{
  "contractName": "Auction",
  "abi": [
    {
      "inputs": [
        {
          "internalType": "address payable",
          "name": "_INTDAOaddress",
          "type": "address"
        }
      ],
      "stateMutability": "nonpayable",
      "type": "constructor"
    },
    {
      "anonymous": false,
      "inputs": [
        {
          "indexed": false,
          "internalType": "uint256",
          "name": "bidId",
          "type": "uint256"
        }
      ],
      "name": "bidCanceled",
      "type": "event"
    },
    {
      "anonymous": false,
      "inputs": [
        {
          "indexed": false,
          "internalType": "uint256",
          "name": "auctionID",
          "type": "uint256"
        },
        {
          "indexed": false,
          "internalType": "uint256",
          "name": "lotAmount",
          "type": "uint256"
        },
        {
          "indexed": false,
          "internalType": "uint256",
          "name": "bestBid",
          "type": "uint256"
        }
      ],
      "name": "buyOutFinished",
      "type": "event"
    },
    {
      "anonymous": false,
      "inputs": [
        {
          "indexed": false,
          "internalType": "uint256",
          "name": "auctionID",
          "type": "uint256"
        },
        {
          "indexed": false,
          "internalType": "uint256",
          "name": "lotAmount",
          "type": "uint256"
        },
        {
          "indexed": false,
          "internalType": "address",
          "name": "lotAddress",
          "type": "address"
        }
      ],
      "name": "buyOutInit",
      "type": "event"
    },
    {
      "anonymous": false,
      "inputs": [
        {
          "indexed": false,
          "internalType": "uint256",
          "name": "auctionID",
          "type": "uint256"
        },
        {
          "indexed": false,
          "internalType": "uint256",
          "name": "posID",
          "type": "uint256"
        },
        {
          "indexed": false,
          "internalType": "uint256",
          "name": "liquidateColleteral",
          "type": "uint256"
        }
      ],
      "name": "liquidateCollateral",
      "type": "event"
    },
    {
      "anonymous": false,
      "inputs": [
        {
          "indexed": false,
          "internalType": "uint256",
          "name": "auctionID",
          "type": "uint256"
        },
        {
          "indexed": false,
          "internalType": "uint256",
          "name": "bidId",
          "type": "uint256"
        },
        {
          "indexed": false,
          "internalType": "uint256",
          "name": "bidAmount",
          "type": "uint256"
        },
        {
          "indexed": false,
          "internalType": "address",
          "name": "owner",
          "type": "address"
        }
      ],
      "name": "newBid",
      "type": "event"
    },
    {
      "inputs": [],
      "name": "auctionNum",
      "outputs": [
        {
          "internalType": "uint256",
          "name": "",
          "type": "uint256"
        }
      ],
      "stateMutability": "view",
      "type": "function",
      "constant": true
    },
    {
      "inputs": [
        {
          "internalType": "uint256",
          "name": "",
          "type": "uint256"
        }
      ],
      "name": "auctions",
      "outputs": [
        {
          "internalType": "bool",
          "name": "initialized",
          "type": "bool"
        },
        {
          "internalType": "bool",
          "name": "finalized",
          "type": "bool"
        },
        {
          "internalType": "address",
          "name": "lotToken",
          "type": "address"
        },
        {
          "internalType": "uint256",
          "name": "lotAmount",
          "type": "uint256"
        },
        {
          "internalType": "address",
          "name": "paymentToken",
          "type": "address"
        },
        {
          "internalType": "uint256",
          "name": "paymentAmount",
          "type": "uint256"
        },
        {
          "internalType": "uint256",
          "name": "initTime",
          "type": "uint256"
        },
        {
          "internalType": "uint256",
          "name": "lastTimeUpdated",
          "type": "uint256"
        },
        {
          "internalType": "uint256",
          "name": "bestBidId",
          "type": "uint256"
        }
      ],
      "stateMutability": "view",
      "type": "function",
      "constant": true
    },
    {
      "inputs": [
        {
          "internalType": "uint256",
          "name": "",
          "type": "uint256"
        }
      ],
      "name": "bids",
      "outputs": [
        {
          "internalType": "address",
          "name": "owner",
          "type": "address"
        },
        {
          "internalType": "uint256",
          "name": "auctionID",
          "type": "uint256"
        },
        {
          "internalType": "uint256",
          "name": "bidAmount",
          "type": "uint256"
        },
        {
          "internalType": "uint256",
          "name": "time",
          "type": "uint256"
        },
        {
          "internalType": "bool",
          "name": "canceled",
          "type": "bool"
        }
      ],
      "stateMutability": "view",
      "type": "function",
      "constant": true
    },
    {
      "inputs": [],
      "name": "bidsNum",
      "outputs": [
        {
          "internalType": "uint256",
          "name": "",
          "type": "uint256"
        }
      ],
      "stateMutability": "view",
      "type": "function",
      "constant": true
    },
    {
      "stateMutability": "payable",
      "type": "receive",
      "payable": true
    },
    {
      "inputs": [],
      "name": "renewContracts",
      "outputs": [],
      "stateMutability": "nonpayable",
      "type": "function"
    },
    {
      "inputs": [],
      "name": "initRuleBuyOut",
      "outputs": [
        {
          "internalType": "uint256",
          "name": "auctionID",
          "type": "uint256"
        }
      ],
      "stateMutability": "nonpayable",
      "type": "function"
    },
    {
      "inputs": [
        {
          "internalType": "uint256",
          "name": "auctionID",
          "type": "uint256"
        }
      ],
      "name": "getBestBidAmount",
      "outputs": [
        {
          "internalType": "uint256",
          "name": "",
          "type": "uint256"
        }
      ],
      "stateMutability": "view",
      "type": "function",
      "constant": true
    },
    {
      "inputs": [
        {
          "internalType": "uint256",
          "name": "coinsAmountNeeded",
          "type": "uint256"
        }
      ],
      "name": "initCoinsBuyOutForStabilization",
      "outputs": [
        {
          "internalType": "uint256",
          "name": "auctionID",
          "type": "uint256"
        }
      ],
      "stateMutability": "nonpayable",
      "type": "function"
    },
    {
      "inputs": [
        {
          "internalType": "uint256",
          "name": "posID",
          "type": "uint256"
        }
      ],
      "name": "initCoinsBuyOut",
      "outputs": [
        {
          "internalType": "uint256",
          "name": "auctionID",
          "type": "uint256"
        }
      ],
      "stateMutability": "nonpayable",
      "type": "function"
    },
    {
      "inputs": [
        {
          "internalType": "uint256",
          "name": "auctionId",
          "type": "uint256"
        },
        {
          "internalType": "uint256",
          "name": "bidAmount",
          "type": "uint256"
        }
      ],
      "name": "makeBid",
      "outputs": [],
      "stateMutability": "nonpayable",
      "type": "function"
    },
    {
      "inputs": [
        {
          "internalType": "uint256",
          "name": "bidId",
          "type": "uint256"
        },
        {
          "internalType": "uint256",
          "name": "newBidAmount",
          "type": "uint256"
        }
      ],
      "name": "improveBid",
      "outputs": [],
      "stateMutability": "nonpayable",
      "type": "function"
    },
    {
      "inputs": [
        {
          "internalType": "uint256",
          "name": "bidId",
          "type": "uint256"
        }
      ],
      "name": "cancelBid",
      "outputs": [],
      "stateMutability": "nonpayable",
      "type": "function"
    },
    {
      "inputs": [
        {
          "internalType": "uint256",
          "name": "auctionId",
          "type": "uint256"
        }
      ],
      "name": "claimToFinalizeAuction",
      "outputs": [
        {
          "internalType": "bool",
          "name": "success",
          "type": "bool"
        }
      ],
      "stateMutability": "nonpayable",
      "type": "function"
    }
  ],
  "bytecode": "0x60806040523480156200001157600080fd5b506040516200606738038062006067833981810160405281019062000037919062000417565b80600360006101000a81548173ffffffffffffffffffffffffffffffffffffffff021916908373ffffffffffffffffffffffffffffffffffffffff160217905550600360009054906101000a900473ffffffffffffffffffffffffffffffffffffffff1673ffffffffffffffffffffffffffffffffffffffff16632abdf04e306040518263ffffffff1660e01b8152600401620000d59190620004bb565b600060405180830381600087803b158015620000f057600080fd5b505af115801562000105573d6000803e3d6000fd5b50505050600360009054906101000a900473ffffffffffffffffffffffffffffffffffffffff1673ffffffffffffffffffffffffffffffffffffffff1663bdfe7d476040518163ffffffff1660e01b815260040162000164906200053d565b602060405180830381865afa15801562000182573d6000803e3d6000fd5b505050506040513d601f19601f82011682018060405250810190620001a8919062000417565b600460006101000a81548173ffffffffffffffffffffffffffffffffffffffff021916908373ffffffffffffffffffffffffffffffffffffffff160217905550600360009054906101000a900473ffffffffffffffffffffffffffffffffffffffff1673ffffffffffffffffffffffffffffffffffffffff1663bdfe7d476040518163ffffffff1660e01b81526004016200024390620005af565b602060405180830381865afa15801562000261573d6000803e3d6000fd5b505050506040513d601f19601f8201168201806040525081019062000287919062000417565b600260006101000a81548173ffffffffffffffffffffffffffffffffffffffff021916908373ffffffffffffffffffffffffffffffffffffffff160217905550600360009054906101000a900473ffffffffffffffffffffffffffffffffffffffff1673ffffffffffffffffffffffffffffffffffffffff1663bdfe7d476040518163ffffffff1660e01b8152600401620003229062000621565b602060405180830381865afa15801562000340573d6000803e3d6000fd5b505050506040513d601f19601f8201168201806040525081019062000366919062000417565b600560006101000a81548173ffffffffffffffffffffffffffffffffffffffff021916908373ffffffffffffffffffffffffffffffffffffffff1602179055505062000643565b600080fd5b600073ffffffffffffffffffffffffffffffffffffffff82169050919050565b6000620003df82620003b2565b9050919050565b620003f181620003d2565b8114620003fd57600080fd5b50565b6000815190506200041181620003e6565b92915050565b60006020828403121562000430576200042f620003ad565b5b6000620004408482850162000400565b91505092915050565b600082825260208201905092915050565b7f61756374696f6e00000000000000000000000000000000000000000000000000600082015250565b60006200049260078362000449565b91506200049f826200045a565b602082019050919050565b620004b581620003d2565b82525050565b60006040820190508181036000830152620004d68162000483565b9050620004e76020830184620004aa565b92915050565b7f6364700000000000000000000000000000000000000000000000000000000000600082015250565b60006200052560038362000449565b91506200053282620004ed565b602082019050919050565b60006020820190508181036000830152620005588162000516565b9050919050565b7f737461626c65436f696e00000000000000000000000000000000000000000000600082015250565b600062000597600a8362000449565b9150620005a4826200055f565b602082019050919050565b60006020820190508181036000830152620005ca8162000588565b9050919050565b7f72756c6500000000000000000000000000000000000000000000000000000000600082015250565b60006200060960048362000449565b91506200061682620005d1565b602082019050919050565b600060208201905081810360008301526200063c81620005fa565b9050919050565b615a1480620006536000396000f3fe6080604052600436106100c65760003560e01c806365d089a81161007f5780639703ef35116100595780639703ef3514610385578063adfcdc11146103ae578063e2a89c0c146103d7578063f85badde14610402576101ad565b806365d089a8146102e05780637343950a1461031d57806383b1e1f21461035a576101ad565b806303ad0a01146101b257806323d86a65146101db578063378096c0146101f25780634423c5f11461021d578063571a26a01461025e5780635ff48900146102a3576101ad565b366101ad57600360009054906101000a900473ffffffffffffffffffffffffffffffffffffffff1673ffffffffffffffffffffffffffffffffffffffff1663bdfe7d476040518163ffffffff1660e01b815260040161012490614349565b602060405180830381865afa158015610141573d6000803e3d6000fd5b505050506040513d601f19601f8201168201806040525081019061016591906143cc565b73ffffffffffffffffffffffffffffffffffffffff166108fc479081150290604051600060405180830381858888f193505050501580156101aa573d6000803e3d6000fd5b50005b600080fd5b3480156101be57600080fd5b506101d960048036038101906101d4919061442f565b61043f565b005b3480156101e757600080fd5b506101f0610de9565b005b3480156101fe57600080fd5b50610207611079565b604051610214919061447e565b60405180910390f35b34801561022957600080fd5b50610244600480360381019061023f9190614499565b61107f565b604051610255959493929190614502565b60405180910390f35b34801561026a57600080fd5b5061028560048036038101906102809190614499565b6110e2565b60405161029a99989796959493929190614555565b60405180910390f35b3480156102af57600080fd5b506102ca60048036038101906102c59190614499565b61118a565b6040516102d7919061447e565b60405180910390f35b3480156102ec57600080fd5b5061030760048036038101906103029190614499565b611786565b604051610314919061447e565b60405180910390f35b34801561032957600080fd5b50610344600480360381019061033f9190614499565b6117df565b60405161035191906145e2565b60405180910390f35b34801561036657600080fd5b5061036f6126a2565b60405161037c919061447e565b60405180910390f35b34801561039157600080fd5b506103ac60048036038101906103a79190614499565b612c06565b005b3480156103ba57600080fd5b506103d560048036038101906103d0919061442f565b6131b5565b005b3480156103e357600080fd5b506103ec613ce4565b6040516103f9919061447e565b60405180910390f35b34801561040e57600080fd5b5061042960048036038101906104249190614499565b613cea565b604051610436919061447e565b60405180910390f35b60006007600084815260200190815260200160002090503373ffffffffffffffffffffffffffffffffffffffff168160000160009054906101000a900473ffffffffffffffffffffffffffffffffffffffff1673ffffffffffffffffffffffffffffffffffffffff16146104e8576040517f08c379a00000000000000000000000000000000000000000000000000000000081526004016104df9061466f565b60405180910390fd5b6000600660008360010154815260200190815260200160002090508060000160009054906101000a900460ff16801561053057508060000160019054906101000a900460ff16155b61056f576040517f08c379a000000000000000000000000000000000000000000000000000000000815260040161056690614701565b60405180910390fd5b600060076000836006015481526020019081526020016000209050600360009054906101000a900473ffffffffffffffffffffffffffffffffffffffff1673ffffffffffffffffffffffffffffffffffffffff1663bdfe7d476040518163ffffffff1660e01b81526004016105e39061476d565b602060405180830381865afa158015610600573d6000803e3d6000fd5b505050506040513d601f19601f8201168201806040525081019061062491906143cc565b73ffffffffffffffffffffffffffffffffffffffff168260000160029054906101000a900473ffffffffffffffffffffffffffffffffffffffff1673ffffffffffffffffffffffffffffffffffffffff1614806107695750600360009054906101000a900473ffffffffffffffffffffffffffffffffffffffff1673ffffffffffffffffffffffffffffffffffffffff1663bdfe7d476040518163ffffffff1660e01b81526004016106d5906147d9565b602060405180830381865afa1580156106f2573d6000803e3d6000fd5b505050506040513d601f19601f8201168201806040525081019061071691906143cc565b73ffffffffffffffffffffffffffffffffffffffff168260000160029054906101000a900473ffffffffffffffffffffffffffffffffffffffff1673ffffffffffffffffffffffffffffffffffffffff16145b1561087e5760008411801561083e5750836064600360009054906101000a900473ffffffffffffffffffffffffffffffffffffffff1673ffffffffffffffffffffffffffffffffffffffff1663145f822b6040518163ffffffff1660e01b81526004016107d590614845565b602060405180830381865afa1580156107f2573d6000803e3d6000fd5b505050506040513d601f19601f82011682018060405250810190610816919061487a565b606461082291906148d6565b8360020154610831919061492c565b61083b91906149b5565b11155b61087d576040517f08c379a000000000000000000000000000000000000000000000000000000000815260040161087490614a32565b60405180910390fd5b5b600360009054906101000a900473ffffffffffffffffffffffffffffffffffffffff1673ffffffffffffffffffffffffffffffffffffffff1663bdfe7d476040518163ffffffff1660e01b81526004016108d790614a9e565b602060405180830381865afa1580156108f4573d6000803e3d6000fd5b505050506040513d601f19601f8201168201806040525081019061091891906143cc565b73ffffffffffffffffffffffffffffffffffffffff168260000160029054906101000a900473ffffffffffffffffffffffffffffffffffffffff1673ffffffffffffffffffffffffffffffffffffffff161415610a7f57600084118015610a3f5750836064600360009054906101000a900473ffffffffffffffffffffffffffffffffffffffff1673ffffffffffffffffffffffffffffffffffffffff1663145f822b6040518163ffffffff1660e01b81526004016109d690614845565b602060405180830381865afa1580156109f3573d6000803e3d6000fd5b505050506040513d601f19601f82011682018060405250810190610a17919061487a565b6064610a239190614abe565b8360020154610a32919061492c565b610a3c91906149b5565b10155b610a7e576040517f08c379a0000000000000000000000000000000000000000000000000000000008152600401610a7590614a32565b60405180910390fd5b5b60008260020160009054906101000a900473ffffffffffffffffffffffffffffffffffffffff169050600360009054906101000a900473ffffffffffffffffffffffffffffffffffffffff1673ffffffffffffffffffffffffffffffffffffffff1663bdfe7d476040518163ffffffff1660e01b8152600401610b019061476d565b602060405180830381865afa158015610b1e573d6000803e3d6000fd5b505050506040513d601f19601f82011682018060405250810190610b4291906143cc565b73ffffffffffffffffffffffffffffffffffffffff168360000160029054906101000a900473ffffffffffffffffffffffffffffffffffffffff1673ffffffffffffffffffffffffffffffffffffffff161480610c875750600360009054906101000a900473ffffffffffffffffffffffffffffffffffffffff1673ffffffffffffffffffffffffffffffffffffffff1663bdfe7d476040518163ffffffff1660e01b8152600401610bf3906147d9565b602060405180830381865afa158015610c10573d6000803e3d6000fd5b505050506040513d601f19601f82011682018060405250810190610c3491906143cc565b73ffffffffffffffffffffffffffffffffffffffff168360000160029054906101000a900473ffffffffffffffffffffffffffffffffffffffff1673ffffffffffffffffffffffffffffffffffffffff16145b15610d61576000846002015486610c9e9190614abe565b90508173ffffffffffffffffffffffffffffffffffffffff166323b872dd3330846040518463ffffffff1660e01b8152600401610cdd93929190614af2565b6020604051808303816000875af1158015610cfc573d6000803e3d6000fd5b505050506040513d601f19601f82011682018060405250810190610d209190614b55565b610d5f576040517f08c379a0000000000000000000000000000000000000000000000000000000008152600401610d5690614bf4565b60405180910390fd5b505b8484600201819055504283600501819055508583600601819055507ffec53f788c9ef6de6841d61017cbcd768a3dbd9dd7cac7b45d42de5589b0a5d7846001015487878760000160009054906101000a900473ffffffffffffffffffffffffffffffffffffffff16604051610dd99493929190614c14565b60405180910390a1505050505050565b600360009054906101000a900473ffffffffffffffffffffffffffffffffffffffff1673ffffffffffffffffffffffffffffffffffffffff1663bdfe7d476040518163ffffffff1660e01b8152600401610e429061476d565b602060405180830381865afa158015610e5f573d6000803e3d6000fd5b505050506040513d601f19601f82011682018060405250810190610e8391906143cc565b600260006101000a81548173ffffffffffffffffffffffffffffffffffffffff021916908373ffffffffffffffffffffffffffffffffffffffff160217905550600360009054906101000a900473ffffffffffffffffffffffffffffffffffffffff1673ffffffffffffffffffffffffffffffffffffffff1663bdfe7d476040518163ffffffff1660e01b8152600401610f1c90614ca5565b602060405180830381865afa158015610f39573d6000803e3d6000fd5b505050506040513d601f19601f82011682018060405250810190610f5d91906143cc565b600460006101000a81548173ffffffffffffffffffffffffffffffffffffffff021916908373ffffffffffffffffffffffffffffffffffffffff160217905550600360009054906101000a900473ffffffffffffffffffffffffffffffffffffffff1673ffffffffffffffffffffffffffffffffffffffff1663bdfe7d476040518163ffffffff1660e01b8152600401610ff690614a9e565b602060405180830381865afa158015611013573d6000803e3d6000fd5b505050506040513d601f19601f8201168201806040525081019061103791906143cc565b600560006101000a81548173ffffffffffffffffffffffffffffffffffffffff021916908373ffffffffffffffffffffffffffffffffffffffff160217905550565b60015481565b60076020528060005260406000206000915090508060000160009054906101000a900473ffffffffffffffffffffffffffffffffffffffff16908060010154908060020154908060030154908060040160009054906101000a900460ff16905085565b60066020528060005260406000206000915090508060000160009054906101000a900460ff16908060000160019054906101000a900460ff16908060000160029054906101000a900473ffffffffffffffffffffffffffffffffffffffff16908060010154908060020160009054906101000a900473ffffffffffffffffffffffffffffffffffffffff16908060030154908060040154908060050154908060060154905089565b6000600460009054906101000a900473ffffffffffffffffffffffffffffffffffffffff1673ffffffffffffffffffffffffffffffffffffffff1663776879e5836040518263ffffffff1660e01b81526004016111e7919061447e565b602060405180830381865afa158015611204573d6000803e3d6000fd5b505050506040513d601f19601f820116820180604052508101906112289190614b55565b611267576040517f08c379a000000000000000000000000000000000000000000000000000000000815260040161125e90614d11565b60405180910390fd5b6000600360009054906101000a900473ffffffffffffffffffffffffffffffffffffffff1673ffffffffffffffffffffffffffffffffffffffff1663bdfe7d476040518163ffffffff1660e01b81526004016112c2906147d9565b602060405180830381865afa1580156112df573d6000803e3d6000fd5b505050506040513d601f19601f8201168201806040525081019061130391906143cc565b90506000600460009054906101000a900473ffffffffffffffffffffffffffffffffffffffff1673ffffffffffffffffffffffffffffffffffffffff1663d4ddc1a7856040518263ffffffff1660e01b8152600401611362919061447e565b602060405180830381865afa15801561137f573d6000803e3d6000fd5b505050506040513d601f19601f820116820180604052508101906113a3919061487a565b90508173ffffffffffffffffffffffffffffffffffffffff166323b872dd600360009054906101000a900473ffffffffffffffffffffffffffffffffffffffff1673ffffffffffffffffffffffffffffffffffffffff1663bdfe7d476040518163ffffffff1660e01b815260040161141a90614ca5565b602060405180830381865afa158015611437573d6000803e3d6000fd5b505050506040513d601f19601f8201168201806040525081019061145b91906143cc565b30846040518463ffffffff1660e01b815260040161147b93929190614d90565b6020604051808303816000875af115801561149a573d6000803e3d6000fd5b505050506040513d601f19601f820116820180604052508101906114be9190614b55565b6114fd576040517f08c379a00000000000000000000000000000000000000000000000000000000081526004016114f490614e39565b60405180910390fd5b60008081548092919061150f90614e59565b919050559250600060066000858152602001908152602001600020905060018160000160006101000a81548160ff02191690831515021790555060008160000160016101000a81548160ff021916908315150217905550600360009054906101000a900473ffffffffffffffffffffffffffffffffffffffff1673ffffffffffffffffffffffffffffffffffffffff1663bdfe7d476040518163ffffffff1660e01b81526004016115bf906147d9565b602060405180830381865afa1580156115dc573d6000803e3d6000fd5b505050506040513d601f19601f8201168201806040525081019061160091906143cc565b8160000160026101000a81548173ffffffffffffffffffffffffffffffffffffffff021916908373ffffffffffffffffffffffffffffffffffffffff160217905550818160010181905550600360009054906101000a900473ffffffffffffffffffffffffffffffffffffffff1673ffffffffffffffffffffffffffffffffffffffff1663bdfe7d476040518163ffffffff1660e01b81526004016116a49061476d565b602060405180830381865afa1580156116c1573d6000803e3d6000fd5b505050506040513d601f19601f820116820180604052508101906116e591906143cc565b8160020160006101000a81548173ffffffffffffffffffffffffffffffffffffffff021916908373ffffffffffffffffffffffffffffffffffffffff160217905550428160050181905550428160040181905550600081600601819055507f082844962cf5145347cebd63a315279825bc23fed895630911764ad520ffea2584868460405161177693929190614ea2565b60405180910390a1505050919050565b6000806006600084815260200190815260200160002090506000816006015411156117d4576000600760008360060154815260200190815260200160002090508060020154925050506117da565b60009150505b919050565b6000806006600084815260200190815260200160002090508060000160009054906101000a900460ff16801561182457508060000160019054906101000a900460ff16155b611863576040517f08c379a000000000000000000000000000000000000000000000000000000000815260040161185a90614f4b565b60405180910390fd5b600360009054906101000a900473ffffffffffffffffffffffffffffffffffffffff1673ffffffffffffffffffffffffffffffffffffffff1663145f822b6040518163ffffffff1660e01b81526004016118bc90614fb7565b602060405180830381865afa1580156118d9573d6000803e3d6000fd5b505050506040513d601f19601f820116820180604052508101906118fd919061487a565b81600501544261190d9190614abe565b101561194e576040517f08c379a000000000000000000000000000000000000000000000000000000000815260040161194590615049565b60405180910390fd5b600081600601541415801561196b57508060050154816004015414155b6119aa576040517f08c379a00000000000000000000000000000000000000000000000000000000081526004016119a1906150b5565b60405180910390fd5b60006007600083600601548152602001908152602001600020905060008260000160029054906101000a900473ffffffffffffffffffffffffffffffffffffffff16905060008360020160009054906101000a900473ffffffffffffffffffffffffffffffffffffffff169050600360009054906101000a900473ffffffffffffffffffffffffffffffffffffffff1673ffffffffffffffffffffffffffffffffffffffff1663bdfe7d476040518163ffffffff1660e01b8152600401611a709061476d565b602060405180830381865afa158015611a8d573d6000803e3d6000fd5b505050506040513d601f19601f82011682018060405250810190611ab191906143cc565b73ffffffffffffffffffffffffffffffffffffffff168460000160029054906101000a900473ffffffffffffffffffffffffffffffffffffffff1673ffffffffffffffffffffffffffffffffffffffff16148015611bf75750600360009054906101000a900473ffffffffffffffffffffffffffffffffffffffff1673ffffffffffffffffffffffffffffffffffffffff1663bdfe7d476040518163ffffffff1660e01b8152600401611b6390614a9e565b602060405180830381865afa158015611b80573d6000803e3d6000fd5b505050506040513d601f19601f82011682018060405250810190611ba491906143cc565b73ffffffffffffffffffffffffffffffffffffffff168460020160009054906101000a900473ffffffffffffffffffffffffffffffffffffffff1673ffffffffffffffffffffffffffffffffffffffff16145b15611e13578173ffffffffffffffffffffffffffffffffffffffff1663a9059cbb8460000160009054906101000a900473ffffffffffffffffffffffffffffffffffffffff1686600101546040518363ffffffff1660e01b8152600401611c5f9291906150d5565b6020604051808303816000875af1158015611c7e573d6000803e3d6000fd5b505050506040513d601f19601f82011682018060405250810190611ca29190614b55565b611cab57600080fd5b8073ffffffffffffffffffffffffffffffffffffffff1663a9059cbb600360009054906101000a900473ffffffffffffffffffffffffffffffffffffffff1673ffffffffffffffffffffffffffffffffffffffff1663bdfe7d476040518163ffffffff1660e01b8152600401611d2090614ca5565b602060405180830381865afa158015611d3d573d6000803e3d6000fd5b505050506040513d601f19601f82011682018060405250810190611d6191906143cc565b85600201546040518363ffffffff1660e01b8152600401611d839291906150fe565b6020604051808303816000875af1158015611da2573d6000803e3d6000fd5b505050506040513d601f19601f82011682018060405250810190611dc69190614b55565b611dcf57600080fd5b7f316f148f986c9d3880b02142d215ebfc51857506d0b21ab35f195689ce6d1ceb8685600101548560020154604051611e0a93929190614ea2565b60405180910390a15b600360009054906101000a900473ffffffffffffffffffffffffffffffffffffffff1673ffffffffffffffffffffffffffffffffffffffff1663bdfe7d476040518163ffffffff1660e01b8152600401611e6c90614a9e565b602060405180830381865afa158015611e89573d6000803e3d6000fd5b505050506040513d601f19601f82011682018060405250810190611ead91906143cc565b73ffffffffffffffffffffffffffffffffffffffff168460000160029054906101000a900473ffffffffffffffffffffffffffffffffffffffff1673ffffffffffffffffffffffffffffffffffffffff16148015611ff35750600360009054906101000a900473ffffffffffffffffffffffffffffffffffffffff1673ffffffffffffffffffffffffffffffffffffffff1663bdfe7d476040518163ffffffff1660e01b8152600401611f5f9061476d565b602060405180830381865afa158015611f7c573d6000803e3d6000fd5b505050506040513d601f19601f82011682018060405250810190611fa091906143cc565b73ffffffffffffffffffffffffffffffffffffffff168460020160009054906101000a900473ffffffffffffffffffffffffffffffffffffffff1673ffffffffffffffffffffffffffffffffffffffff16145b1561227c57600460009054906101000a900473ffffffffffffffffffffffffffffffffffffffff1673ffffffffffffffffffffffffffffffffffffffff16630403dc098460000160009054906101000a900473ffffffffffffffffffffffffffffffffffffffff1685600201546040518363ffffffff1660e01b815260040161207d9291906150d5565b6020604051808303816000875af115801561209c573d6000803e3d6000fd5b505050506040513d601f19601f820116820180604052508101906120c09190614b55565b6120ff576040517f08c379a00000000000000000000000000000000000000000000000000000000081526004016120f690615173565b60405180910390fd5b600260009054906101000a900473ffffffffffffffffffffffffffffffffffffffff1673ffffffffffffffffffffffffffffffffffffffff1663a9059cbb600360009054906101000a900473ffffffffffffffffffffffffffffffffffffffff1673ffffffffffffffffffffffffffffffffffffffff1663bdfe7d476040518163ffffffff1660e01b815260040161219690614ca5565b602060405180830381865afa1580156121b3573d6000803e3d6000fd5b505050506040513d601f19601f820116820180604052508101906121d791906143cc565b86600301546040518363ffffffff1660e01b81526004016121f99291906150fe565b6020604051808303816000875af1158015612218573d6000803e3d6000fd5b505050506040513d601f19601f8201168201806040525081019061223c9190614b55565b61227b576040517f08c379a0000000000000000000000000000000000000000000000000000000008152600401612272906151df565b60405180910390fd5b5b600360009054906101000a900473ffffffffffffffffffffffffffffffffffffffff1673ffffffffffffffffffffffffffffffffffffffff1663bdfe7d476040518163ffffffff1660e01b81526004016122d5906147d9565b602060405180830381865afa1580156122f2573d6000803e3d6000fd5b505050506040513d601f19601f8201168201806040525081019061231691906143cc565b73ffffffffffffffffffffffffffffffffffffffff168460000160029054906101000a900473ffffffffffffffffffffffffffffffffffffffff1673ffffffffffffffffffffffffffffffffffffffff1614801561245c5750600360009054906101000a900473ffffffffffffffffffffffffffffffffffffffff1673ffffffffffffffffffffffffffffffffffffffff1663bdfe7d476040518163ffffffff1660e01b81526004016123c89061476d565b602060405180830381865afa1580156123e5573d6000803e3d6000fd5b505050506040513d601f19601f8201168201806040525081019061240991906143cc565b73ffffffffffffffffffffffffffffffffffffffff168460020160009054906101000a900473ffffffffffffffffffffffffffffffffffffffff1673ffffffffffffffffffffffffffffffffffffffff16145b15612678578173ffffffffffffffffffffffffffffffffffffffff1663a9059cbb8460000160009054906101000a900473ffffffffffffffffffffffffffffffffffffffff1686600101546040518363ffffffff1660e01b81526004016124c49291906150d5565b6020604051808303816000875af11580156124e3573d6000803e3d6000fd5b505050506040513d601f19601f820116820180604052508101906125079190614b55565b61251057600080fd5b8073ffffffffffffffffffffffffffffffffffffffff1663a9059cbb600360009054906101000a900473ffffffffffffffffffffffffffffffffffffffff1673ffffffffffffffffffffffffffffffffffffffff1663bdfe7d476040518163ffffffff1660e01b815260040161258590614ca5565b602060405180830381865afa1580156125a2573d6000803e3d6000fd5b505050506040513d601f19601f820116820180604052508101906125c691906143cc565b85600201546040518363ffffffff1660e01b81526004016125e89291906150fe565b6020604051808303816000875af1158015612607573d6000803e3d6000fd5b505050506040513d601f19601f8201168201806040525081019061262b9190614b55565b61263457600080fd5b7f316f148f986c9d3880b02142d215ebfc51857506d0b21ab35f195689ce6d1ceb868560010154856002015460405161266f93929190614ea2565b60405180910390a15b60018460000160016101000a81548160ff0219169083151502179055506001945050505050919050565b600080600260009054906101000a900473ffffffffffffffffffffffffffffffffffffffff1673ffffffffffffffffffffffffffffffffffffffff1663dd62ed3e600360009054906101000a900473ffffffffffffffffffffffffffffffffffffffff1673ffffffffffffffffffffffffffffffffffffffff1663bdfe7d476040518163ffffffff1660e01b815260040161273c90614ca5565b602060405180830381865afa158015612759573d6000803e3d6000fd5b505050506040513d601f19601f8201168201806040525081019061277d91906143cc565b306040518363ffffffff1660e01b815260040161279b9291906151ff565b602060405180830381865afa1580156127b8573d6000803e3d6000fd5b505050506040513d601f19601f820116820180604052508101906127dc919061487a565b9050600260009054906101000a900473ffffffffffffffffffffffffffffffffffffffff1673ffffffffffffffffffffffffffffffffffffffff166323b872dd600360009054906101000a900473ffffffffffffffffffffffffffffffffffffffff1673ffffffffffffffffffffffffffffffffffffffff1663bdfe7d476040518163ffffffff1660e01b815260040161287590614ca5565b602060405180830381865afa158015612892573d6000803e3d6000fd5b505050506040513d601f19601f820116820180604052508101906128b691906143cc565b30846040518463ffffffff1660e01b81526004016128d693929190614d90565b6020604051808303816000875af11580156128f5573d6000803e3d6000fd5b505050506040513d601f19601f820116820180604052508101906129199190614b55565b612958576040517f08c379a000000000000000000000000000000000000000000000000000000000815260040161294f9061529a565b60405180910390fd5b60008081548092919061296a90614e59565b919050559150600060066000848152602001908152602001600020905060018160000160006101000a81548160ff02191690831515021790555060008160000160016101000a81548160ff021916908315150217905550600360009054906101000a900473ffffffffffffffffffffffffffffffffffffffff1673ffffffffffffffffffffffffffffffffffffffff1663bdfe7d476040518163ffffffff1660e01b8152600401612a1a9061476d565b602060405180830381865afa158015612a37573d6000803e3d6000fd5b505050506040513d601f19601f82011682018060405250810190612a5b91906143cc565b8160000160026101000a81548173ffffffffffffffffffffffffffffffffffffffff021916908373ffffffffffffffffffffffffffffffffffffffff160217905550818160010181905550600360009054906101000a900473ffffffffffffffffffffffffffffffffffffffff1673ffffffffffffffffffffffffffffffffffffffff1663bdfe7d476040518163ffffffff1660e01b8152600401612aff90614a9e565b602060405180830381865afa158015612b1c573d6000803e3d6000fd5b505050506040513d601f19601f82011682018060405250810190612b4091906143cc565b8160020160006101000a81548173ffffffffffffffffffffffffffffffffffffffff021916908373ffffffffffffffffffffffffffffffffffffffff160217905550428160050181905550428160040181905550600081600601819055507fdb8dd885380749a42d93685c4954d7dd30b146634d3e33f49620084ce98e4e8f8382600101548360000160029054906101000a900473ffffffffffffffffffffffffffffffffffffffff16604051612bf9939291906152ba565b60405180910390a1505090565b60006007600083815260200190815260200160002090503373ffffffffffffffffffffffffffffffffffffffff168160000160009054906101000a900473ffffffffffffffffffffffffffffffffffffffff1673ffffffffffffffffffffffffffffffffffffffff16148015612c8b57508060040160009054906101000a900460ff16155b612cca576040517f08c379a0000000000000000000000000000000000000000000000000000000008152600401612cc190615363565b60405180910390fd5b6000600660008360010154815260200190815260200160002090508060000160009054906101000a900460ff16612d36576040517f08c379a0000000000000000000000000000000000000000000000000000000008152600401612d2d906153f5565b60405180910390fd5b8281600601541415612d7d576040517f08c379a0000000000000000000000000000000000000000000000000000000008152600401612d7490615487565b60405180910390fd5b60008160020160009054906101000a900473ffffffffffffffffffffffffffffffffffffffff169050600360009054906101000a900473ffffffffffffffffffffffffffffffffffffffff1673ffffffffffffffffffffffffffffffffffffffff1663bdfe7d476040518163ffffffff1660e01b8152600401612dff90614a9e565b602060405180830381865afa158015612e1c573d6000803e3d6000fd5b505050506040513d601f19601f82011682018060405250810190612e4091906143cc565b73ffffffffffffffffffffffffffffffffffffffff168260000160029054906101000a900473ffffffffffffffffffffffffffffffffffffffff1673ffffffffffffffffffffffffffffffffffffffff16148015612f865750600360009054906101000a900473ffffffffffffffffffffffffffffffffffffffff1673ffffffffffffffffffffffffffffffffffffffff1663bdfe7d476040518163ffffffff1660e01b8152600401612ef29061476d565b602060405180830381865afa158015612f0f573d6000803e3d6000fd5b505050506040513d601f19601f82011682018060405250810190612f3391906143cc565b73ffffffffffffffffffffffffffffffffffffffff168260020160009054906101000a900473ffffffffffffffffffffffffffffffffffffffff1673ffffffffffffffffffffffffffffffffffffffff16145b15613075578073ffffffffffffffffffffffffffffffffffffffff1663a9059cbb8460000160009054906101000a900473ffffffffffffffffffffffffffffffffffffffff1684600301546040518363ffffffff1660e01b8152600401612fee9291906150d5565b6020604051808303816000875af115801561300d573d6000803e3d6000fd5b505050506040513d601f19601f820116820180604052508101906130319190614b55565b613070576040517f08c379a000000000000000000000000000000000000000000000000000000000815260040161306790615519565b60405180910390fd5b61315b565b8073ffffffffffffffffffffffffffffffffffffffff1663a9059cbb8460000160009054906101000a900473ffffffffffffffffffffffffffffffffffffffff1685600201546040518363ffffffff1660e01b81526004016130d89291906150d5565b6020604051808303816000875af11580156130f7573d6000803e3d6000fd5b505050506040513d601f19601f8201168201806040525081019061311b9190614b55565b61315a576040517f08c379a000000000000000000000000000000000000000000000000000000000815260040161315190615519565b60405180910390fd5b5b7ffac423451217205d5c65185b7a90cc7d957ec2dd791403d541d2c4460f9d8f378460405161318a919061447e565b60405180910390a160018360040160006101000a81548160ff02191690831515021790555050505050565b60006006600084815260200190815260200160002090508060000160009054906101000a900460ff1680156131f957508060000160019054906101000a900460ff16155b613238576040517f08c379a000000000000000000000000000000000000000000000000000000000815260040161322f90614701565b60405180910390fd5b600081600601541461375657600060076000836006015481526020019081526020016000209050600360009054906101000a900473ffffffffffffffffffffffffffffffffffffffff1673ffffffffffffffffffffffffffffffffffffffff1663bdfe7d476040518163ffffffff1660e01b81526004016132b89061476d565b602060405180830381865afa1580156132d5573d6000803e3d6000fd5b505050506040513d601f19601f820116820180604052508101906132f991906143cc565b73ffffffffffffffffffffffffffffffffffffffff168260000160029054906101000a900473ffffffffffffffffffffffffffffffffffffffff1673ffffffffffffffffffffffffffffffffffffffff16148061343e5750600360009054906101000a900473ffffffffffffffffffffffffffffffffffffffff1673ffffffffffffffffffffffffffffffffffffffff1663bdfe7d476040518163ffffffff1660e01b81526004016133aa906147d9565b602060405180830381865afa1580156133c7573d6000803e3d6000fd5b505050506040513d601f19601f820116820180604052508101906133eb91906143cc565b73ffffffffffffffffffffffffffffffffffffffff168260000160029054906101000a900473ffffffffffffffffffffffffffffffffffffffff1673ffffffffffffffffffffffffffffffffffffffff16145b15613553576000831180156135135750826064600360009054906101000a900473ffffffffffffffffffffffffffffffffffffffff1673ffffffffffffffffffffffffffffffffffffffff1663145f822b6040518163ffffffff1660e01b81526004016134aa90614845565b602060405180830381865afa1580156134c7573d6000803e3d6000fd5b505050506040513d601f19601f820116820180604052508101906134eb919061487a565b60646134f791906148d6565b8360020154613506919061492c565b61351091906149b5565b11155b613552576040517f08c379a000000000000000000000000000000000000000000000000000000000815260040161354990614a32565b60405180910390fd5b5b600360009054906101000a900473ffffffffffffffffffffffffffffffffffffffff1673ffffffffffffffffffffffffffffffffffffffff1663bdfe7d476040518163ffffffff1660e01b81526004016135ac90614a9e565b602060405180830381865afa1580156135c9573d6000803e3d6000fd5b505050506040513d601f19601f820116820180604052508101906135ed91906143cc565b73ffffffffffffffffffffffffffffffffffffffff168260000160029054906101000a900473ffffffffffffffffffffffffffffffffffffffff1673ffffffffffffffffffffffffffffffffffffffff161415613754576000831180156137145750826064600360009054906101000a900473ffffffffffffffffffffffffffffffffffffffff1673ffffffffffffffffffffffffffffffffffffffff1663145f822b6040518163ffffffff1660e01b81526004016136ab90614845565b602060405180830381865afa1580156136c8573d6000803e3d6000fd5b505050506040513d601f19601f820116820180604052508101906136ec919061487a565b60646136f89190614abe565b8360020154613707919061492c565b61371191906149b5565b10155b613753576040517f08c379a000000000000000000000000000000000000000000000000000000000815260040161374a90615585565b60405180910390fd5b5b505b60008211613799576040517f08c379a000000000000000000000000000000000000000000000000000000000815260040161379090614a32565b60405180910390fd5b60008160020160009054906101000a900473ffffffffffffffffffffffffffffffffffffffff169050600360009054906101000a900473ffffffffffffffffffffffffffffffffffffffff1673ffffffffffffffffffffffffffffffffffffffff1663bdfe7d476040518163ffffffff1660e01b815260040161381b90614a9e565b602060405180830381865afa158015613838573d6000803e3d6000fd5b505050506040513d601f19601f8201168201806040525081019061385c91906143cc565b73ffffffffffffffffffffffffffffffffffffffff168260000160029054906101000a900473ffffffffffffffffffffffffffffffffffffffff1673ffffffffffffffffffffffffffffffffffffffff161415613afe576064600360009054906101000a900473ffffffffffffffffffffffffffffffffffffffff1673ffffffffffffffffffffffffffffffffffffffff1663145f822b6040518163ffffffff1660e01b815260040161390e906155f1565b602060405180830381865afa15801561392b573d6000803e3d6000fd5b505050506040513d601f19601f8201168201806040525081019061394f919061487a565b600560009054906101000a900473ffffffffffffffffffffffffffffffffffffffff1673ffffffffffffffffffffffffffffffffffffffff166318160ddd6040518163ffffffff1660e01b8152600401602060405180830381865afa1580156139bc573d6000803e3d6000fd5b505050506040513d601f19601f820116820180604052508101906139e0919061487a565b6139ea919061492c565b6139f491906149b5565b831115613a36576040517f08c379a0000000000000000000000000000000000000000000000000000000008152600401613a2d9061565d565b60405180910390fd5b8073ffffffffffffffffffffffffffffffffffffffff166323b872dd333085600301546040518463ffffffff1660e01b8152600401613a7793929190614af2565b6020604051808303816000875af1158015613a96573d6000803e3d6000fd5b505050506040513d601f19601f82011682018060405250810190613aba9190614b55565b613af9576040517f08c379a0000000000000000000000000000000000000000000000000000000008152600401613af0906156ef565b60405180910390fd5b613bbe565b8073ffffffffffffffffffffffffffffffffffffffff166323b872dd3330866040518463ffffffff1660e01b8152600401613b3b93929190614af2565b6020604051808303816000875af1158015613b5a573d6000803e3d6000fd5b505050506040513d601f19601f82011682018060405250810190613b7e9190614b55565b613bbd576040517f08c379a0000000000000000000000000000000000000000000000000000000008152600401613bb490615781565b60405180910390fd5b5b6000600160008154613bcf90614e59565b91905081905590506000600760008381526020019081526020016000209050338160000160006101000a81548173ffffffffffffffffffffffffffffffffffffffff021916908373ffffffffffffffffffffffffffffffffffffffff16021790555085816001018190555084816002018190555042816003018190555060008160040160006101000a81548160ff0219169083151502179055508184600601819055504284600501819055507ffec53f788c9ef6de6841d61017cbcd768a3dbd9dd7cac7b45d42de5589b0a5d78683878460000160009054906101000a900473ffffffffffffffffffffffffffffffffffffffff16604051613cd49493929190614c14565b60405180910390a1505050505050565b60005481565b600080600260009054906101000a900473ffffffffffffffffffffffffffffffffffffffff1673ffffffffffffffffffffffffffffffffffffffff166370a08231600460009054906101000a900473ffffffffffffffffffffffffffffffffffffffff166040518263ffffffff1660e01b8152600401613d6a91906157a1565b602060405180830381865afa158015613d87573d6000803e3d6000fd5b505050506040513d601f19601f82011682018060405250810190613dab919061487a565b905060006064600360009054906101000a900473ffffffffffffffffffffffffffffffffffffffff1673ffffffffffffffffffffffffffffffffffffffff1663145f822b6040518163ffffffff1660e01b8152600401613e0a90615808565b602060405180830381865afa158015613e27573d6000803e3d6000fd5b505050506040513d601f19601f82011682018060405250810190613e4b919061487a565b600260009054906101000a900473ffffffffffffffffffffffffffffffffffffffff1673ffffffffffffffffffffffffffffffffffffffff166318160ddd6040518163ffffffff1660e01b8152600401602060405180830381865afa158015613eb8573d6000803e3d6000fd5b505050506040513d601f19601f82011682018060405250810190613edc919061487a565b613ee6919061492c565b613ef091906149b5565b9050600360009054906101000a900473ffffffffffffffffffffffffffffffffffffffff1673ffffffffffffffffffffffffffffffffffffffff1663145f822b6040518163ffffffff1660e01b8152600401613f4b90615874565b602060405180830381865afa158015613f68573d6000803e3d6000fd5b505050506040513d601f19601f82011682018060405250810190613f8c919061487a565b841115613fce576040517f08c379a0000000000000000000000000000000000000000000000000000000008152600401613fc5906158e0565b60405180910390fd5b600581613fdb91906149b5565b821061401c576040517f08c379a00000000000000000000000000000000000000000000000000000000081526004016140139061594c565b60405180910390fd5b81816140289190614abe565b84111561403e57818161403b9190614abe565b93505b60008081548092919061405090614e59565b919050559250600060066000858152602001908152602001600020905084816003018190555060018160000160006101000a81548160ff02191690831515021790555060008160000160016101000a81548160ff021916908315150217905550600360009054906101000a900473ffffffffffffffffffffffffffffffffffffffff1673ffffffffffffffffffffffffffffffffffffffff1663bdfe7d476040518163ffffffff1660e01b815260040161410990614a9e565b602060405180830381865afa158015614126573d6000803e3d6000fd5b505050506040513d601f19601f8201168201806040525081019061414a91906143cc565b8160000160026101000a81548173ffffffffffffffffffffffffffffffffffffffff021916908373ffffffffffffffffffffffffffffffffffffffff160217905550600360009054906101000a900473ffffffffffffffffffffffffffffffffffffffff1673ffffffffffffffffffffffffffffffffffffffff1663bdfe7d476040518163ffffffff1660e01b81526004016141e59061476d565b602060405180830381865afa158015614202573d6000803e3d6000fd5b505050506040513d601f19601f8201168201806040525081019061422691906143cc565b8160020160006101000a81548173ffffffffffffffffffffffffffffffffffffffff021916908373ffffffffffffffffffffffffffffffffffffffff160217905550428160050181905550428160040181905550600081600601819055507fdb8dd885380749a42d93685c4954d7dd30b146634d3e33f49620084ce98e4e8f8460008360000160029054906101000a900473ffffffffffffffffffffffffffffffffffffffff166040516142dc939291906159a7565b60405180910390a1505050919050565b600082825260208201905092915050565b7f6f7261636c650000000000000000000000000000000000000000000000000000600082015250565b60006143336006836142ec565b915061433e826142fd565b602082019050919050565b6000602082019050818103600083015261436281614326565b9050919050565b600080fd5b600073ffffffffffffffffffffffffffffffffffffffff82169050919050565b60006143998261436e565b9050919050565b6143a98161438e565b81146143b457600080fd5b50565b6000815190506143c6816143a0565b92915050565b6000602082840312156143e2576143e1614369565b5b60006143f0848285016143b7565b91505092915050565b6000819050919050565b61440c816143f9565b811461441757600080fd5b50565b60008135905061442981614403565b92915050565b6000806040838503121561444657614445614369565b5b60006144548582860161441a565b92505060206144658582860161441a565b9150509250929050565b614478816143f9565b82525050565b6000602082019050614493600083018461446f565b92915050565b6000602082840312156144af576144ae614369565b5b60006144bd8482850161441a565b91505092915050565b60006144d18261436e565b9050919050565b6144e1816144c6565b82525050565b60008115159050919050565b6144fc816144e7565b82525050565b600060a08201905061451760008301886144d8565b614524602083018761446f565b614531604083018661446f565b61453e606083018561446f565b61454b60808301846144f3565b9695505050505050565b60006101208201905061456b600083018c6144f3565b614578602083018b6144f3565b614585604083018a6144d8565b614592606083018961446f565b61459f60808301886144d8565b6145ac60a083018761446f565b6145b960c083018661446f565b6145c660e083018561446f565b6145d461010083018461446f565b9a9950505050505050505050565b60006020820190506145f760008301846144f3565b92915050565b7f596f75206d617920696d70726f7665206f6e6c7920796f757220706572736f6e60008201527f616c206269647300000000000000000000000000000000000000000000000000602082015250565b60006146596027836142ec565b9150614664826145fd565b604082019050919050565b600060208201905081810360008301526146888161464c565b9050919050565b7f61756374696f6e49642069732077726f6e67206f7220697420697320616c726560008201527f6164792066696e69736865640000000000000000000000000000000000000000602082015250565b60006146eb602c836142ec565b91506146f68261468f565b604082019050919050565b6000602082019050818103600083015261471a816146de565b9050919050565b7f737461626c65436f696e00000000000000000000000000000000000000000000600082015250565b6000614757600a836142ec565b915061476282614721565b602082019050919050565b600060208201905081810360008301526147868161474a565b9050919050565b7f7765746800000000000000000000000000000000000000000000000000000000600082015250565b60006147c36004836142ec565b91506147ce8261478d565b602082019050919050565b600060208201905081810360008301526147f2816147b6565b9050919050565b7f6d696e41756374696f6e50726963654d6f766500000000000000000000000000600082015250565b600061482f6013836142ec565b915061483a826147f9565b602082019050919050565b6000602082019050818103600083015261485e81614822565b9050919050565b60008151905061487481614403565b92915050565b6000602082840312156148905761488f614369565b5b600061489e84828501614865565b91505092915050565b7f4e487b7100000000000000000000000000000000000000000000000000000000600052601160045260246000fd5b60006148e1826143f9565b91506148ec836143f9565b9250827fffffffffffffffffffffffffffffffffffffffffffffffffffffffffffffffff03821115614921576149206148a7565b5b828201905092915050565b6000614937826143f9565b9150614942836143f9565b9250817fffffffffffffffffffffffffffffffffffffffffffffffffffffffffffffffff048311821515161561497b5761497a6148a7565b5b828202905092915050565b7f4e487b7100000000000000000000000000000000000000000000000000000000600052601260045260246000fd5b60006149c0826143f9565b91506149cb836143f9565b9250826149db576149da614986565b5b828204905092915050565b7f796f757220626964206973206e6f74206869676820656e6f7567680000000000600082015250565b6000614a1c601b836142ec565b9150614a27826149e6565b602082019050919050565b60006020820190508181036000830152614a4b81614a0f565b9050919050565b7f72756c6500000000000000000000000000000000000000000000000000000000600082015250565b6000614a886004836142ec565b9150614a9382614a52565b602082019050919050565b60006020820190508181036000830152614ab781614a7b565b9050919050565b6000614ac9826143f9565b9150614ad4836143f9565b925082821015614ae757614ae66148a7565b5b828203905092915050565b6000606082019050614b0760008301866144d8565b614b1460208301856144d8565b614b21604083018461446f565b949350505050565b614b32816144e7565b8114614b3d57600080fd5b50565b600081519050614b4f81614b29565b92915050565b600060208284031215614b6b57614b6a614369565b5b6000614b7984828501614b40565b91505092915050565b7f596f752073686f756c6420666972737420617070726f7665207061796d656e7460008201527f20746f2061756374696f6e20636f6e7472616374206164647265737300000000602082015250565b6000614bde603c836142ec565b9150614be982614b82565b604082019050919050565b60006020820190508181036000830152614c0d81614bd1565b9050919050565b6000608082019050614c29600083018761446f565b614c36602083018661446f565b614c43604083018561446f565b614c5060608301846144d8565b95945050505050565b7f6364700000000000000000000000000000000000000000000000000000000000600082015250565b6000614c8f6003836142ec565b9150614c9a82614c59565b602082019050919050565b60006020820190508181036000830152614cbe81614c82565b9050919050565b7f706f736974696f6e206973206e6f74206f6e206c69717569646174696f6e0000600082015250565b6000614cfb601e836142ec565b9150614d0682614cc5565b602082019050919050565b60006020820190508181036000830152614d2a81614cee565b9050919050565b6000819050919050565b6000614d56614d51614d4c8461436e565b614d31565b61436e565b9050919050565b6000614d6882614d3b565b9050919050565b6000614d7a82614d5d565b9050919050565b614d8a81614d6f565b82525050565b6000606082019050614da56000830186614d81565b614db260208301856144d8565b614dbf604083018461446f565b949350505050565b7f636f756c64206e6f74207472616e73666572207765746820666f7220736f6d6560008201527f20726561736f6e00000000000000000000000000000000000000000000000000602082015250565b6000614e236027836142ec565b9150614e2e82614dc7565b604082019050919050565b60006020820190508181036000830152614e5281614e16565b9050919050565b6000614e64826143f9565b91507fffffffffffffffffffffffffffffffffffffffffffffffffffffffffffffffff821415614e9757614e966148a7565b5b600182019050919050565b6000606082019050614eb7600083018661446f565b614ec4602083018561446f565b614ed1604083018461446f565b949350505050565b7f7468652061756374696f6e2069732066696e6973686564206f72206e6f6e2d6560008201527f78697374656e7400000000000000000000000000000000000000000000000000602082015250565b6000614f356027836142ec565b9150614f4082614ed9565b604082019050919050565b60006020820190508181036000830152614f6481614f28565b9050919050565b7f61756374696f6e5475726e4475726174696f6e00000000000000000000000000600082015250565b6000614fa16013836142ec565b9150614fac82614f6b565b602082019050919050565b60006020820190508181036000830152614fd081614f94565b9050919050565b7f697420697320746f6f206561726c7920746f2066696e616c697a652c2077616960008201527f7420612062697400000000000000000000000000000000000000000000000000602082015250565b60006150336027836142ec565b915061503e82614fd7565b604082019050919050565b6000602082019050818103600083015261506281615026565b9050919050565b7f74686572652073686f756c64206265206174206c65617374206f6e6520626964600082015250565b600061509f6020836142ec565b91506150aa82615069565b602082019050919050565b600060208201905081810360008301526150ce81615092565b9050919050565b60006040820190506150ea60008301856144d8565b6150f7602083018461446f565b9392505050565b60006040820190506151136000830185614d81565b615120602083018461446f565b9392505050565b7f636f756c64206e6f74206d696e742072756c6500000000000000000000000000600082015250565b600061515d6013836142ec565b915061516882615127565b602082019050919050565b6000602082019050818103600083015261518c81615150565b9050919050565b7f636f756c64206e6f74207472616e7366657220636f696e730000000000000000600082015250565b60006151c96018836142ec565b91506151d482615193565b602082019050919050565b600060208201905081810360008301526151f8816151bc565b9050919050565b60006040820190506152146000830185614d81565b61522160208301846144d8565b9392505050565b7f43616e206e6f74207472616e7366657220737572706c75732066726f6d20434460008201527f5000000000000000000000000000000000000000000000000000000000000000602082015250565b60006152846021836142ec565b915061528f82615228565b604082019050919050565b600060208201905081810360008301526152b381615277565b9050919050565b60006060820190506152cf600083018661446f565b6152dc602083018561446f565b6152e960408301846144d8565b949350505050565b7f4f6e6c7920626964206f776e6572206d61792063616e63656c2069742c20696660008201527f206974207761736e27742063616e63656c6564206561726c6965720000000000602082015250565b600061534d603b836142ec565b9150615358826152f1565b604082019050919050565b6000602082019050818103600083015261537c81615340565b9050919050565b7f74686520626964206973206d616465206f6e206e6f6e2d6578697374656e742060008201527f61756374696f6e00000000000000000000000000000000000000000000000000602082015250565b60006153df6027836142ec565b91506153ea82615383565b604082019050919050565b6000602082019050818103600083015261540e816153d2565b9050919050565b7f596f752063616e206e6f742063616e63656c206120626964206966206974206960008201527f7320612062657374206f6e650000000000000000000000000000000000000000602082015250565b6000615471602c836142ec565b915061547c82615415565b604082019050919050565b600060208201905081810360008301526154a081615464565b9050919050565b7f77652077657265206e6f742061626c6520746f207472616e7366657220796f7560008201527f7220626964206261636b00000000000000000000000000000000000000000000602082015250565b6000615503602a836142ec565b915061550e826154a7565b604082019050919050565b60006020820190508181036000830152615532816154f6565b9050919050565b7f796f757220626964206973206e6f74206c6f7720656e6f756768000000000000600082015250565b600061556f601a836142ec565b915061557a82615539565b602082019050919050565b6000602082019050818103600083015261559e81615562565b9050919050565b7f6d617852756c65456d697373696f6e50657263656e7400000000000000000000600082015250565b60006155db6016836142ec565b91506155e6826155a5565b602082019050919050565b6000602082019050818103600083015261560a816155ce565b9050919050565b7f746f6f206d616e792072756c657320666f72206f6e6520656d697373696f6e00600082015250565b6000615647601f836142ec565b915061565282615611565b602082019050919050565b600060208201905081810360008301526156768161563a565b9050919050565b7f596f752073686f756c6420666972737420617070726f766520737461626c654360008201527f6f696e7320746f2061756374696f6e20636f6e74726163742061646472657373602082015250565b60006156d96040836142ec565b91506156e48261567d565b604082019050919050565b60006020820190508181036000830152615708816156cc565b9050919050565b7f596f752073686f756c6420666972737420617070726f766520626964416d6f7560008201527f6e7420746f2061756374696f6e20636f6e747261637420616464726573730000602082015250565b600061576b603e836142ec565b91506157768261570f565b604082019050919050565b6000602082019050818103600083015261579a8161575e565b9050919050565b60006020820190506157b660008301846144d8565b92915050565b7f73746162696c697a6174696f6e46756e6450657263656e740000000000000000600082015250565b60006157f26018836142ec565b91506157fd826157bc565b602082019050919050565b60006020820190508181036000830152615821816157e5565b9050919050565b7f6d6178436f696e73466f7253746162696c697a6174696f6e0000000000000000600082015250565b600061585e6018836142ec565b915061586982615828565b602082019050919050565b6000602082019050818103600083015261588d81615851565b9050919050565b7f746f6f206d616e7920636f696e7320666f72206f6e652061756374696f6e0000600082015250565b60006158ca601e836142ec565b91506158d582615894565b602082019050919050565b600060208201905081810360008301526158f9816158bd565b9050919050565b7f6e6f7420736f206c6f7720746f20696e69742052756c6520656d697373696f6e600082015250565b60006159366020836142ec565b915061594182615900565b602082019050919050565b6000602082019050818103600083015261596581615929565b9050919050565b6000819050919050565b600061599161598c6159878461596c565b614d31565b6143f9565b9050919050565b6159a181615976565b82525050565b60006060820190506159bc600083018661446f565b6159c96020830185615998565b6159d660408301846144d8565b94935050505056fea2646970667358221220e7d59e0f69e12dd5171f83d2d1969417e033163d59b979a8da81da19b153b4d964736f6c634300080a0033",
  "immutableReferences": {},
  "source": "// SPDX-License-Identifier: UNLICENSED\r\npragma solidity >=0.4.22 <0.9.0;\r\n\r\nimport \"./INTDAO.sol\";\r\nimport \"./stableCoin.sol\";\r\nimport \"./CDP.sol\";\r\nimport \"./Rule.sol\";\r\n\r\n    struct auctionEntity {\r\n        bool initialized;\r\n        bool finalized;\r\n        address lotToken;\r\n        uint lotAmount;\r\n        address paymentToken;\r\n        uint256 paymentAmount;\r\n        uint256 initTime;\r\n        uint256 lastTimeUpdated;\r\n        uint256 bestBidId;\r\n    }\r\n\r\n    struct Bid {\r\n        address owner;\r\n        uint256 auctionID;\r\n        uint256 bidAmount;\r\n        uint256 time;\r\n        bool canceled;\r\n    }\r\n\r\ncontract Auction {\r\n    uint256 public auctionNum;\r\n    uint256 public bidsNum;\r\n    stableCoin coin;\r\n    INTDAO dao;\r\n    CDP cdp;\r\n    Rule rule;\r\n\r\n    mapping(uint256 => auctionEntity) public auctions;\r\n    mapping (uint256 => Bid) public bids;\r\n\r\n    event buyOutInit(uint256 auctionID, uint256 lotAmount, address lotAddress);\r\n    event buyOutFinished(uint256 auctionID, uint256 lotAmount, uint256 bestBid);\r\n    event newBid(uint256 auctionID, uint256 bidId, uint256 bidAmount, address owner);\r\n    event bidCanceled(uint256 bidId);\r\n\r\n    event liquidateCollateral(uint256 auctionID, uint256 posID, uint256 liquidateColleteral);\r\n\r\n    constructor(address payable _INTDAOaddress){\r\n        dao = INTDAO(_INTDAOaddress);\r\n        dao.setAddressOnce(\"auction\", payable(address(this)));\r\n        cdp = CDP(dao.addresses('cdp'));\r\n        coin = stableCoin(payable(dao.addresses('stableCoin')));\r\n        rule = Rule(payable(dao.addresses('rule')));\r\n    }\r\n\r\n    function renewContracts() public {\r\n        coin = stableCoin(payable(dao.addresses('stableCoin')));\r\n        cdp = CDP(dao.addresses('cdp'));\r\n        rule = Rule(payable(dao.addresses('rule')));\r\n    }\r\n\r\n    function initRuleBuyOut() public returns (uint256 auctionID){\r\n        uint256 allowed = coin.allowance(dao.addresses('cdp'), address(this));\r\n        require (coin.transferFrom(dao.addresses('cdp'), address(this), allowed), \"Can not transfer surplus from CDP\");\r\n        auctionID = auctionNum++;\r\n        auctionEntity storage a = auctions[auctionID];\r\n\r\n        a.initialized = true;\r\n        a.finalized = false;\r\n        a.lotToken = dao.addresses('stableCoin');\r\n        a.lotAmount = allowed;\r\n        a.paymentToken = dao.addresses('rule');\r\n        a.lastTimeUpdated = block.timestamp;\r\n        a.initTime = block.timestamp;\r\n        a.bestBidId = 0;\r\n\r\n        emit buyOutInit(auctionID, a.lotAmount, a.lotToken);\r\n        return auctionID;\r\n    }\r\n\r\n    function getBestBidAmount (uint256 auctionID) public view returns (uint256){\r\n        auctionEntity storage a = auctions[auctionID];\r\n        if (a.bestBidId >0) {\r\n            Bid storage b = bids[a.bestBidId];\r\n            return b.bidAmount;\r\n        }\r\n        else return 0;\r\n    }\r\n\r\n    function initCoinsBuyOutForStabilization(uint256 coinsAmountNeeded) public returns (uint256 auctionID){\r\n        uint256 actualStabilizationFund = coin.balanceOf(address(cdp));\r\n        uint256 preferableStabilizationFund = coin.totalSupply() * dao.params(\"stabilizationFundPercent\")/100;\r\n        require(coinsAmountNeeded<=dao.params(\"maxCoinsForStabilization\"), \"too many coins for one auction\");\r\n\r\n        require (actualStabilizationFund<preferableStabilizationFund/5, \"not so low to init Rule emission\");\r\n        if (coinsAmountNeeded > preferableStabilizationFund - actualStabilizationFund)\r\n            coinsAmountNeeded = preferableStabilizationFund - actualStabilizationFund;\r\n\r\n        auctionID = auctionNum++;\r\n        auctionEntity storage a = auctions[auctionID];\r\n\r\n        a.paymentAmount = coinsAmountNeeded;\r\n        a.initialized = true;\r\n        a.finalized = false;\r\n        a.lotToken = dao.addresses('rule');\r\n        a.paymentToken = dao.addresses('stableCoin');\r\n        a.lastTimeUpdated = block.timestamp;\r\n        a.initTime = block.timestamp;\r\n        a.bestBidId = 0;\r\n        emit buyOutInit(auctionID, 0, a.lotToken);\r\n        return auctionID;\r\n    }\r\n\r\n    function initCoinsBuyOut(uint256 posID) public returns (uint256 auctionID){\r\n        require(cdp.isOnLiquidation(posID), \"position is not on liquidation\");\r\n        ERC20 weth = ERC20(dao.addresses('weth'));\r\n        uint256 wethLocked = cdp.wethLocked(posID);\r\n        require(weth.transferFrom(dao.addresses('cdp'), address(this), wethLocked), \"could not transfer weth for some reason\");\r\n\r\n        auctionID = auctionNum++;\r\n        auctionEntity storage a = auctions[auctionID];\r\n\r\n        a.initialized = true;\r\n        a.finalized = false;\r\n        a.lotToken = dao.addresses('weth');\r\n        a.lotAmount = wethLocked;\r\n        a.paymentToken = dao.addresses('stableCoin');\r\n        a.lastTimeUpdated = block.timestamp;\r\n        a.initTime = block.timestamp;\r\n        a.bestBidId = 0;\r\n\r\n        emit liquidateCollateral(auctionID, posID, wethLocked);\r\n        return auctionID;\r\n    }\r\n\r\n    function makeBid(uint256 auctionId, uint256 bidAmount) public{\r\n        auctionEntity storage a = auctions[auctionId];\r\n        require(a.initialized&&!a.finalized, \"auctionId is wrong or it is already finished\");\r\n\r\n        if (a.bestBidId!=0){\r\n            Bid storage bestBid = bids[a.bestBidId];\r\n            if (a.lotToken == dao.addresses('stableCoin') || a.lotToken == dao.addresses('weth'))\r\n                require(bidAmount>0 && bestBid.bidAmount*(100+dao.params('minAuctionPriceMove'))/100<=bidAmount, \"your bid is not high enough\");\r\n            if (a.lotToken == dao.addresses('rule'))\r\n                require(bidAmount>0 && bestBid.bidAmount*(100-dao.params('minAuctionPriceMove'))/100>=bidAmount, \"your bid is not low enough\");\r\n        }\r\n        require(bidAmount>0, \"your bid is not high enough\");\r\n        ERC20 paymentToken = ERC20(address(a.paymentToken));\r\n        if (a.lotToken == dao.addresses('rule')){\r\n            require(bidAmount<=rule.totalSupply()*dao.params('maxRuleEmissionPercent')/100, \"too many rules for one emission\");\r\n            require(paymentToken.transferFrom(msg.sender, address(this), a.paymentAmount), \"You should first approve stableCoins to auction contract address\");\r\n        }\r\n        else\r\n            require(paymentToken.transferFrom(msg.sender, address(this), bidAmount), \"You should first approve bidAmount to auction contract address\");\r\n\r\n        uint256 bidId = ++bidsNum;\r\n        Bid storage b = bids[bidId];\r\n        b.owner = msg.sender;\r\n        b.auctionID = auctionId;\r\n        b.bidAmount = bidAmount;\r\n        b.time = block.timestamp;\r\n        b.canceled = false;\r\n\r\n        a.bestBidId = bidId;\r\n        a.lastTimeUpdated = block.timestamp;\r\n        emit newBid(auctionId, bidId, bidAmount, b.owner);\r\n    }\r\n\r\n    function improveBid(uint256 bidId, uint256 newBidAmount) public{\r\n        Bid storage b = bids[bidId];\r\n        require(b.owner == msg.sender, \"You may improve only your personal bids\");\r\n        auctionEntity storage a = auctions[b.auctionID];\r\n        require(a.initialized&&!a.finalized, \"auctionId is wrong or it is already finished\");\r\n        Bid storage bestBid = bids[a.bestBidId];\r\n\r\n        if (a.lotToken == dao.addresses('stableCoin') || a.lotToken == dao.addresses('weth'))\r\n            require(newBidAmount>0 && bestBid.bidAmount*(100+dao.params('minAuctionPriceMove'))/100<=newBidAmount, \"your bid is not high enough\");\r\n        if (a.lotToken == dao.addresses('rule'))\r\n            require(newBidAmount>0 && bestBid.bidAmount*(100-dao.params('minAuctionPriceMove'))/100>=newBidAmount, \"your bid is not high enough\");\r\n\r\n        ERC20 paymentToken = ERC20(address(a.paymentToken));\r\n\r\n        if (a.lotToken == dao.addresses('stableCoin') || a.lotToken == dao.addresses('weth')){\r\n            uint256 difference = newBidAmount-b.bidAmount;\r\n            require(paymentToken.transferFrom(msg.sender, address(this), difference), \"You should first approve payment to auction contract address\");\r\n        }\r\n\r\n        b.bidAmount = newBidAmount;\r\n        a.lastTimeUpdated = block.timestamp;\r\n        a.bestBidId = bidId;\r\n        emit newBid(b.auctionID, bidId, newBidAmount, b.owner);\r\n    }\r\n\r\n    function cancelBid(uint256 bidId) public{\r\n        Bid storage b = bids[bidId];\r\n        require (b.owner==msg.sender && !b.canceled, \"Only bid owner may cancel it, if it wasn't canceled earlier\");\r\n        auctionEntity storage a = auctions[b.auctionID];\r\n        require(a.initialized, \"the bid is made on non-existent auction\");\r\n        require(a.bestBidId!=bidId, \"You can not cancel a bid if it is a best one\");\r\n        ERC20 paymentToken = ERC20(address(a.paymentToken));\r\n        if (a.lotToken == dao.addresses('rule') && a.paymentToken == dao.addresses('stableCoin'))\r\n            require(paymentToken.transfer(b.owner, a.paymentAmount), \"we were not able to transfer your bid back\");\r\n        else\r\n            require(paymentToken.transfer(b.owner, b.bidAmount), \"we were not able to transfer your bid back\");\r\n        emit bidCanceled(bidId);\r\n        b.canceled = true;\r\n    }\r\n\r\n    function claimToFinalizeAuction(uint256 auctionId) public returns (bool success){\r\n        auctionEntity storage a = auctions[auctionId];\r\n        require(a.initialized && !a.finalized, \"the auction is finished or non-existent\");\r\n        require(block.timestamp-a.lastTimeUpdated>=dao.params('auctionTurnDuration'), \"it is too early to finalize, wait a bit\");\r\n        require(a.bestBidId!=0 && a.initTime!=a.lastTimeUpdated, \"there should be at least one bid\");\r\n        Bid storage bestBid = bids[a.bestBidId];\r\n        ERC20 lotToken = ERC20(address(a.lotToken));\r\n        ERC20 paymentToken = ERC20(address(a.paymentToken));\r\n        if (a.lotToken == dao.addresses('stableCoin') && a.paymentToken == dao.addresses('rule')) {\r\n            require(lotToken.transfer(bestBid.owner, a.lotAmount));\r\n            require(paymentToken.transfer(dao.addresses('cdp'), bestBid.bidAmount));\r\n            emit buyOutFinished(auctionId, a.lotAmount, bestBid.bidAmount);\r\n        }\r\n        if (a.lotToken == dao.addresses('rule') && a.paymentToken == dao.addresses('stableCoin')){\r\n            require(cdp.mintRule(bestBid.owner, bestBid.bidAmount), \"could not mint rule\");\r\n            require(coin.transfer(dao.addresses('cdp'), a.paymentAmount), \"could not transfer coins\");\r\n        }\r\n        if (a.lotToken == dao.addresses('weth') && a.paymentToken == dao.addresses('stableCoin')){\r\n            require(lotToken.transfer(bestBid.owner, a.lotAmount));\r\n            require(paymentToken.transfer(dao.addresses('cdp'), bestBid.bidAmount));\r\n            emit buyOutFinished(auctionId, a.lotAmount, bestBid.bidAmount);\r\n        }\r\n        a.finalized = true;\r\n        return true;\r\n    }\r\n\r\n    receive() external payable {\r\n        dao.addresses('oracle').transfer(address(this).balance);\r\n    }\r\n}\r\n",
  "sourcePath": "B:\\YandexDisk\\\\ICO\\CryptoFiat\\repo\\contracts\\Auction.sol",
  "compiler": {
    "name": "solc",
    "version": "0.8.10+commit.fc410830.Emscripten.clang"
  },
  "schemaVersion": "3.4.5",
  "updatedAt": "2023-06-26T11:35:20.563Z",
  "networkType": "ethereum",
  "devdoc": {
    "kind": "dev",
    "methods": {},
    "version": 1
  },
  "userdoc": {
    "kind": "user",
    "methods": {},
    "version": 1
  }
}