{
  "contractName": "Auction",
  "abi": [
    {
      "inputs": [
        {
          "internalType": "address",
          "name": "_INTDAOaddress",
          "type": "address"
        }
      ],
      "stateMutability": "nonpayable",
      "type": "constructor"
    },
    {
      "anonymous": false,
      "inputs": [
        {
          "indexed": false,
          "internalType": "uint256",
          "name": "bidId",
          "type": "uint256"
        }
      ],
      "name": "bidCanceled",
      "type": "event"
    },
    {
      "anonymous": false,
      "inputs": [
        {
          "indexed": false,
          "internalType": "uint32",
          "name": "auctionID",
          "type": "uint32"
        },
        {
          "indexed": false,
          "internalType": "uint256",
          "name": "lotAmount",
          "type": "uint256"
        },
        {
          "indexed": false,
          "internalType": "uint256",
          "name": "bestBid",
          "type": "uint256"
        }
      ],
      "name": "buyOutFinished",
      "type": "event"
    },
    {
      "anonymous": false,
      "inputs": [
        {
          "indexed": false,
          "internalType": "uint32",
          "name": "auctionID",
          "type": "uint32"
        },
        {
          "indexed": false,
          "internalType": "uint256",
          "name": "lotAmount",
          "type": "uint256"
        },
        {
          "indexed": false,
          "internalType": "address",
          "name": "lotAddress",
          "type": "address"
        }
      ],
      "name": "buyOutInit",
      "type": "event"
    },
    {
      "anonymous": false,
      "inputs": [
        {
          "indexed": false,
          "internalType": "uint32",
          "name": "auctionID",
          "type": "uint32"
        },
        {
          "indexed": false,
          "internalType": "uint256",
          "name": "posID",
          "type": "uint256"
        },
        {
          "indexed": false,
          "internalType": "uint256",
          "name": "collateral",
          "type": "uint256"
        }
      ],
      "name": "liquidateCollateral",
      "type": "event"
    },
    {
      "anonymous": false,
      "inputs": [
        {
          "indexed": false,
          "internalType": "uint32",
          "name": "auctionID",
          "type": "uint32"
        },
        {
          "indexed": false,
          "internalType": "uint256",
          "name": "bidId",
          "type": "uint256"
        },
        {
          "indexed": false,
          "internalType": "uint256",
          "name": "bidAmount",
          "type": "uint256"
        },
        {
          "indexed": false,
          "internalType": "address",
          "name": "owner",
          "type": "address"
        }
      ],
      "name": "newBid",
      "type": "event"
    },
    {
      "inputs": [],
      "name": "auctionNum",
      "outputs": [
        {
          "internalType": "uint32",
          "name": "",
          "type": "uint32"
        }
      ],
      "stateMutability": "view",
      "type": "function"
    },
    {
      "inputs": [
        {
          "internalType": "uint32",
          "name": "",
          "type": "uint32"
        }
      ],
      "name": "auctions",
      "outputs": [
        {
          "internalType": "bool",
          "name": "initialized",
          "type": "bool"
        },
        {
          "internalType": "bool",
          "name": "finalized",
          "type": "bool"
        },
        {
          "internalType": "address",
          "name": "lotToken",
          "type": "address"
        },
        {
          "internalType": "uint256",
          "name": "lotAmount",
          "type": "uint256"
        },
        {
          "internalType": "address",
          "name": "paymentToken",
          "type": "address"
        },
        {
          "internalType": "uint256",
          "name": "paymentAmount",
          "type": "uint256"
        },
        {
          "internalType": "uint256",
          "name": "initTime",
          "type": "uint256"
        },
        {
          "internalType": "uint256",
          "name": "lastTimeUpdated",
          "type": "uint256"
        },
        {
          "internalType": "uint32",
          "name": "bestBidId",
          "type": "uint32"
        },
        {
          "internalType": "bool",
          "name": "isMarginCall",
          "type": "bool"
        }
      ],
      "stateMutability": "view",
      "type": "function"
    },
    {
      "inputs": [
        {
          "internalType": "uint32",
          "name": "",
          "type": "uint32"
        }
      ],
      "name": "bids",
      "outputs": [
        {
          "internalType": "address",
          "name": "owner",
          "type": "address"
        },
        {
          "internalType": "uint32",
          "name": "auctionID",
          "type": "uint32"
        },
        {
          "internalType": "uint256",
          "name": "bidAmount",
          "type": "uint256"
        },
        {
          "internalType": "uint256",
          "name": "time",
          "type": "uint256"
        },
        {
          "internalType": "bool",
          "name": "canceled",
          "type": "bool"
        }
      ],
      "stateMutability": "view",
      "type": "function"
    },
    {
      "inputs": [],
      "name": "bidsNum",
      "outputs": [
        {
          "internalType": "uint32",
          "name": "",
          "type": "uint32"
        }
      ],
      "stateMutability": "view",
      "type": "function"
    },
    {
      "inputs": [],
      "name": "renewContracts",
      "outputs": [],
      "stateMutability": "nonpayable",
      "type": "function"
    },
    {
      "inputs": [],
      "name": "initRuleBuyOut",
      "outputs": [
        {
          "internalType": "uint32",
          "name": "auctionID",
          "type": "uint32"
        }
      ],
      "stateMutability": "nonpayable",
      "type": "function"
    },
    {
      "inputs": [
        {
          "internalType": "uint256",
          "name": "coinsAmountNeeded",
          "type": "uint256"
        }
      ],
      "name": "initCoinsBuyOutForStabilization",
      "outputs": [
        {
          "internalType": "uint32",
          "name": "auctionID",
          "type": "uint32"
        }
      ],
      "stateMutability": "nonpayable",
      "type": "function"
    },
    {
      "inputs": [
        {
          "internalType": "uint256",
          "name": "posID",
          "type": "uint256"
        },
        {
          "internalType": "uint128",
          "name": "collateral",
          "type": "uint128"
        }
      ],
      "name": "initCoinsBuyOut",
      "outputs": [
        {
          "internalType": "uint32",
          "name": "auctionID",
          "type": "uint32"
        }
      ],
      "stateMutability": "nonpayable",
      "type": "function"
    },
    {
      "inputs": [
        {
          "internalType": "uint32",
          "name": "auctionId",
          "type": "uint32"
        },
        {
          "internalType": "uint256",
          "name": "bidAmount",
          "type": "uint256"
        }
      ],
      "name": "makeBid",
      "outputs": [
        {
          "internalType": "uint32",
          "name": "bidId",
          "type": "uint32"
        }
      ],
      "stateMutability": "nonpayable",
      "type": "function"
    },
    {
      "inputs": [
        {
          "internalType": "uint32",
          "name": "bidId",
          "type": "uint32"
        },
        {
          "internalType": "uint256",
          "name": "newBidAmount",
          "type": "uint256"
        }
      ],
      "name": "improveBid",
      "outputs": [],
      "stateMutability": "nonpayable",
      "type": "function"
    },
    {
      "inputs": [
        {
          "internalType": "uint32",
          "name": "bidId",
          "type": "uint32"
        }
      ],
      "name": "cancelBid",
      "outputs": [],
      "stateMutability": "nonpayable",
      "type": "function"
    },
    {
      "inputs": [
        {
          "internalType": "uint32",
          "name": "auctionID",
          "type": "uint32"
        }
      ],
      "name": "claimToFinalizeAuction",
      "outputs": [
        {
          "internalType": "bool",
          "name": "success",
          "type": "bool"
        }
      ],
      "stateMutability": "nonpayable",
      "type": "function"
    },
    {
      "inputs": [
        {
          "internalType": "uint32",
          "name": "auctionId",
          "type": "uint32"
        }
      ],
      "name": "isFinalized",
      "outputs": [
        {
          "internalType": "bool",
          "name": "finalized",
          "type": "bool"
        }
      ],
      "stateMutability": "view",
      "type": "function"
    },
    {
      "inputs": [
        {
          "internalType": "uint32",
          "name": "auctionID",
          "type": "uint32"
        }
      ],
      "name": "getPaymentAmount",
      "outputs": [
        {
          "internalType": "uint256",
          "name": "",
          "type": "uint256"
        }
      ],
      "stateMutability": "view",
      "type": "function"
    },
    {
      "inputs": [
        {
          "internalType": "uint32",
          "name": "auctionID",
          "type": "uint32"
        }
      ],
      "name": "getBestBidAmount",
      "outputs": [
        {
          "internalType": "uint256",
          "name": "",
          "type": "uint256"
        }
      ],
      "stateMutability": "view",
      "type": "function"
    }
  ],
  "bytecode": "0x60a06040523480156200001157600080fd5b5060405162003f2338038062003f2383398101604081905262000034916200004b565b60016000556001600160a01b03166080526200007d565b6000602082840312156200005e57600080fd5b81516001600160a01b03811681146200007657600080fd5b9392505050565b608051613d64620001bf600039600081816103bd0152818161045c015281816105060152818161075d01528181610a2501528181610c0101528181610d6b01528181610e5e01528181610eeb01528181610fa7015281816110d40152818161117b0152818161121b015281816112fe0152818161139e015281816114d9015281816115a801528181611a0e01528181611bcd01528181611e3f01528181611ee601528181611f860152818161206901528181612109015281816121f50152818161229c015281816125fa01528181612775015281816128070152818161289901528181612927015281816129e301528181612a9b01528181612bce01528181612c5501528181612dd401528181612e6a0152818161306c015281816131fd0152818161338e015281816135070152818161364c015261378b0152613d646000f3fe608060405234801561001057600080fd5b50600436106100c55760003560e01c8063194d2c92146100ca57806323d86a6514610119578063378096c01461012357806350892fbe1461014f57806378b36c18146101d757806382eae402146101ea57806383b1e1f21461021357806393b4192f1461021b578063bd249ab61461022e578063bfc8968014610251578063c745f33f1461032f578063e2a89c0c1461035d578063e2e7a9041461036d578063f85badde14610380578063fa3191f314610393575b600080fd5b6101066100d83660046138c6565b63ffffffff908116600090815260046020908152604080832060060154909316825260059052206001015490565b6040519081526020015b60405180910390f35b6101216103a6565b005b60015461013a90600160201b900463ffffffff1681565b60405163ffffffff9091168152602001610110565b61019e61015d3660046138c6565b60056020526000908152604090208054600182015460028301546003909301546001600160a01b03831693600160a01b90930463ffffffff16929060ff1685565b604080516001600160a01b03909616865263ffffffff90941660208601529284019190915260608301521515608082015260a001610110565b6101216101e53660046138c6565b61059e565b6101066101f83660046138c6565b63ffffffff1660009081526004602052604090206003015490565b61013a610974565b61013a6102293660046138e8565b611040565b61024161023c3660046138c6565b6119c4565b6040519015158152602001610110565b6102cc61025f3660046138c6565b6004602081905260009182526040909120805460018201546002830154600384015494840154600585015460069095015460ff808616976101008704821697620100009097046001600160a01b0390811697951694909392909163ffffffff821691600160201b9004168a565b604080519a15158b5298151560208b01526001600160a01b03978816988a0198909852606089019590955294909216608087015260a086015260c085015260e084019190915263ffffffff16610100830152151561012082015261014001610110565b61024161033d3660046138c6565b63ffffffff16600090815260046020526040902054610100900460ff1690565b60015461013a9063ffffffff1681565b61012161037b3660046138e8565b611d37565b61013a61038e366004613912565b6124a3565b61013a6103a136600461392b565b612a7a565b60405163bdfe7d4760e01b81526001600160a01b037f0000000000000000000000000000000000000000000000000000000000000000169063bdfe7d47906103f090600401613967565b602060405180830381865afa15801561040d573d6000803e3d6000fd5b505050506040513d601f19601f820116820180604052508101906104319190613984565b600280546001600160a01b0319166001600160a01b0392831617905560405163bdfe7d4760e01b81527f00000000000000000000000000000000000000000000000000000000000000009091169063bdfe7d4790610491906004016139ad565b602060405180830381865afa1580156104ae573d6000803e3d6000fd5b505050506040513d601f19601f820116820180604052508101906104d29190613984565b60018054600160401b600160e01b031916600160401b6001600160a01b039384160217905560405163bdfe7d4760e01b81527f00000000000000000000000000000000000000000000000000000000000000009091169063bdfe7d479061053b906004016139d1565b602060405180830381865afa158015610558573d6000803e3d6000fd5b505050506040513d601f19601f8201168201806040525081019061057c9190613984565b600380546001600160a01b0319166001600160a01b0392909216919091179055565b6105a6612f1d565b63ffffffff8116600090815260056020526040902080546001600160a01b0316331480156105d95750600381015460ff16155b61064e5760405162461bcd60e51b815260206004820152603b60248201527f4f6e6c7920626964206f776e6572206d61792063616e63656c2069742c20696660448201527a1034ba103bb0b9b713ba1031b0b731b2b632b21032b0b93634b2b960291b60648201526084015b60405180910390fd5b8054600160a01b900463ffffffff166000908152600460205260409020805460ff166106cc5760405162461bcd60e51b815260206004820152602760248201527f74686520626964206973206d616465206f6e206e6f6e2d6578697374656e742060448201526630bab1ba34b7b760c91b6064820152608401610645565b600681015463ffffffff80851691160361073d5760405162461bcd60e51b815260206004820152602c60248201527f596f752063616e206e6f742063616e63656c206120626964206966206974206960448201526b7320612062657374206f6e6560a01b6064820152608401610645565b600281015460405163bdfe7d4760e01b81526001600160a01b03918216917f0000000000000000000000000000000000000000000000000000000000000000169063bdfe7d4790610790906004016139d1565b602060405180830381865afa1580156107ad573d6000803e3d6000fd5b505050506040513d601f19601f820116820180604052508101906107d19190613984565b82546001600160a01b039182166201000090910490911603610888578254600383015460405163a9059cbb60e01b81526001600160a01b038481169363a9059cbb936108249392909116916004016139ef565b6020604051808303816000875af1158015610843573d6000803e3d6000fd5b505050506040513d601f19601f820116820180604052508101906108679190613a08565b6108835760405162461bcd60e51b815260040161064590613a2a565b61091e565b8254600184015460405163a9059cbb60e01b81526001600160a01b038481169363a9059cbb936108bf9392909116916004016139ef565b6020604051808303816000875af11580156108de573d6000803e3d6000fd5b505050506040513d601f19601f820116820180604052508101906109029190613a08565b61091e5760405162461bcd60e51b815260040161064590613a2a565b60405163ffffffff851681527ffac423451217205d5c65185b7a90cc7d957ec2dd791403d541d2c4460f9d8f379060200160405180910390a15050600301805460ff191660011790556109716001600055565b50565b600061097e612f1d565b600354600160a81b900460ff16156109e25760405162461bcd60e51b815260206004820152602160248201527f52756c65206275794f75742061756374696f6e20616c726561647920657869736044820152601d60fa1b6064820152608401610645565b60405163145f822b60e01b815260206004820181905260248201527f6d696e52756c65546f6b656e73546f496e6974566f74696e6750657263656e7460448201527f00000000000000000000000000000000000000000000000000000000000000006001600160a01b03169063145f822b90606401602060405180830381865afa158015610a74573d6000803e3d6000fd5b505050506040513d601f19601f82011682018060405250810190610a989190613a74565b600354604080516318160ddd60e01b815290516064926001600160a01b0316916318160ddd9160048083019260209291908290030181865afa158015610ae2573d6000803e3d6000fd5b505050506040513d601f19601f82011682018060405250810190610b069190613a74565b610b109190613aa3565b610b1a9190613ac5565b6003546040516370a0823160e01b81526001600160a01b03909116906370a0823190610b4a903390600401613adc565b602060405180830381865afa158015610b67573d6000803e3d6000fd5b505050506040513d601f19601f82011682018060405250810190610b8b9190613a74565b1015610bd35760405162461bcd60e51b81526020600482015260176024820152766e6f7420656e6f7567682072756c652062616c616e636560481b6044820152606401610645565b60015460405163bdfe7d4760e01b81526000916001600160a01b03600160401b90910481169163dd62ed3e917f0000000000000000000000000000000000000000000000000000000000000000169063bdfe7d4790610c3490600401613967565b602060405180830381865afa158015610c51573d6000803e3d6000fd5b505050506040513d601f19601f82011682018060405250810190610c759190613984565b6040516001600160e01b031960e084901b1681526001600160a01b039091166004820152306024820152604401602060405180830381865afa158015610cbf573d6000803e3d6000fd5b505050506040513d601f19601f82011682018060405250810190610ce39190613a74565b905060008111610d3f5760405162461bcd60e51b815260206004820152602160248201527f43616e206e6f74207472616e7366657220737572706c75732066726f6d2043446044820152600560fc1b6064820152608401610645565b60015460405163bdfe7d4760e01b8152600160401b9091046001600160a01b03908116916323b872dd917f0000000000000000000000000000000000000000000000000000000000000000169063bdfe7d4790610d9e90600401613967565b602060405180830381865afa158015610dbb573d6000803e3d6000fd5b505050506040513d601f19601f82011682018060405250810190610ddf9190613984565b30846040518463ffffffff1660e01b8152600401610dff93929190613af0565b6020604051808303816000875af1158015610e1e573d6000803e3d6000fd5b505050506040513d601f19601f82011682018060405250810190610e429190613a08565b5060405163bdfe7d4760e01b8152610f66906001600160a01b037f0000000000000000000000000000000000000000000000000000000000000000169063bdfe7d4790610e91906004016139ad565b602060405180830381865afa158015610eae573d6000803e3d6000fd5b505050506040513d601f19601f82011682018060405250810190610ed29190613984565b60405163bdfe7d4760e01b815283906001600160a01b037f0000000000000000000000000000000000000000000000000000000000000000169063bdfe7d4790610f1e906004016139d1565b602060405180830381865afa158015610f3b573d6000803e3d6000fd5b505050506040513d601f19601f82011682018060405250810190610f5f9190613984565b6000612f76565b6003805460ff60a81b1916600160a81b17905560405163bdfe7d4760e01b8152909250600080516020613d0f83398151915290839083906001600160a01b037f0000000000000000000000000000000000000000000000000000000000000000169063bdfe7d4790610fda906004016139ad565b602060405180830381865afa158015610ff7573d6000803e3d6000fd5b505050506040513d601f19601f8201168201806040525081019061101b9190613984565b60405161102a93929190613b14565b60405180910390a15061103d6001600055565b90565b600061104a612f1d565b63ffffffff83166000908152600460205260409020805460ff16801561107757508054610100900460ff16155b6110935760405162461bcd60e51b815260040161064590613b3b565b600681015463ffffffff161561149957600681015463ffffffff1660009081526005602052604090819020905163bdfe7d4760e01b81526001600160a01b037f0000000000000000000000000000000000000000000000000000000000000000169063bdfe7d4790611107906004016139ad565b602060405180830381865afa158015611124573d6000803e3d6000fd5b505050506040513d601f19601f820116820180604052508101906111489190613984565b82546201000090046001600160a01b0390811691161480611206575060405163bdfe7d4760e01b81526001600160a01b037f0000000000000000000000000000000000000000000000000000000000000000169063bdfe7d47906111ae90600401613b87565b602060405180830381865afa1580156111cb573d6000803e3d6000fd5b505050506040513d601f19601f820116820180604052508101906111ef9190613984565b82546201000090046001600160a01b039081169116145b156112e7576000841180156112cb57508360647f00000000000000000000000000000000000000000000000000000000000000006001600160a01b031663145f822b6040518163ffffffff1660e01b815260040161126390613ba5565b602060405180830381865afa158015611280573d6000803e3d6000fd5b505050506040513d601f19601f820116820180604052508101906112a49190613a74565b6112af906064613bd2565b83600101546112be9190613ac5565b6112c89190613aa3565b11155b6112e75760405162461bcd60e51b815260040161064590613be5565b60405163bdfe7d4760e01b81526001600160a01b037f0000000000000000000000000000000000000000000000000000000000000000169063bdfe7d4790611331906004016139d1565b602060405180830381865afa15801561134e573d6000803e3d6000fd5b505050506040513d601f19601f820116820180604052508101906113729190613984565b82546001600160a01b0391821662010000909104909116036114975760008411801561144e57508360647f00000000000000000000000000000000000000000000000000000000000000006001600160a01b031663145f822b6040518163ffffffff1660e01b81526004016113e690613ba5565b602060405180830381865afa158015611403573d6000803e3d6000fd5b505050506040513d601f19601f820116820180604052508101906114279190613a74565b611432906064613c1a565b83600101546114419190613ac5565b61144b9190613aa3565b10155b6114975760405162461bcd60e51b815260206004820152601a6024820152790f2deeae440c4d2c840d2e640dcdee840d8deee40cadcdeeaced60331b6044820152606401610645565b505b600083116114b95760405162461bcd60e51b815260040161064590613be5565b600281015460405163bdfe7d4760e01b81526001600160a01b03918216917f0000000000000000000000000000000000000000000000000000000000000000169063bdfe7d479061150c906004016139d1565b602060405180830381865afa158015611529573d6000803e3d6000fd5b505050506040513d601f19601f8201168201806040525081019061154d9190613984565b82546001600160a01b0391821662010000909104909116036117e45760405163145f822b60e01b81526020600482015260166024820152751b585e149d5b19515b5a5cdcda5bdb94195c98d95b9d60521b60448201526064907f00000000000000000000000000000000000000000000000000000000000000006001600160a01b03169063145f822b908301602060405180830381865afa1580156115f6573d6000803e3d6000fd5b505050506040513d601f19601f8201168201806040525081019061161a9190613a74565b600360009054906101000a90046001600160a01b03166001600160a01b03166318160ddd6040518163ffffffff1660e01b8152600401602060405180830381865afa15801561166d573d6000803e3d6000fd5b505050506040513d601f19601f820116820180604052508101906116919190613a74565b61169b9190613ac5565b6116a59190613aa3565b8411156116f45760405162461bcd60e51b815260206004820152601f60248201527f746f6f206d616e792072756c657320666f72206f6e6520656d697373696f6e006044820152606401610645565b60038201546040516323b872dd60e01b81526001600160a01b038316916323b872dd91611728913391309190600401613af0565b6020604051808303816000875af1158015611747573d6000803e3d6000fd5b505050506040513d601f19601f8201168201806040525081019061176b9190613a08565b6117df576040805162461bcd60e51b81526020600482015260248101919091527f596f752073686f756c6420666972737420617070726f766520737461626c654360448201527f6f696e7320746f2061756374696f6e20636f6e747261637420616464726573736064820152608401610645565b6118c9565b6040516323b872dd60e01b81526001600160a01b038216906323b872dd9061181490339030908990600401613af0565b6020604051808303816000875af1158015611833573d6000803e3d6000fd5b505050506040513d601f19601f820116820180604052508101906118579190613a08565b6118c95760405162461bcd60e51b815260206004820152603e60248201527f596f752073686f756c6420666972737420617070726f766520626964416d6f7560448201527f6e7420746f2061756374696f6e20636f6e7472616374206164647265737300006064820152608401610645565b600180546004906118e690600160201b900463ffffffff16613c2d565b82546101009290920a63ffffffff818102199093168284169182021790935560008381526005602081905260409182902080546001600160c01b0319163363ffffffff60a01b191617600160a01b958c169590950294909417845560018401899055426002850181905560038501805460ff1916905560068801805463ffffffff1916909617909555860193909355815492519095509091600080516020613cef833981519152916119a991899188918a916001600160a01b0390911690613c50565b60405180910390a15050506119be6001600055565b92915050565b60006119ce612f1d565b63ffffffff821660009081526004602052604090206006810154600160201b900460ff1615611b205760405163bdfe7d4760e01b81526001600160a01b037f0000000000000000000000000000000000000000000000000000000000000000169063bdfe7d4790611a4190600401613967565b602060405180830381865afa158015611a5e573d6000803e3d6000fd5b505050506040513d601f19601f82011682018060405250810190611a829190613984565b6001600160a01b0316336001600160a01b031614611b205760405162461bcd60e51b815260206004820152604f60248201527f4f6e6c792043445020636f6e7472616374206d61792066696e6973682074686960448201527f732061756374696f6e2e20506c656173652c207573652066696e6973684d617260648201526e33b4b721b0b6361036b2ba3437b21760891b608482015260a401610645565b805460ff168015611b3857508054610100900460ff16155b611b945760405162461bcd60e51b815260206004820152602760248201527f7468652061756374696f6e2069732066696e6973686564206f72206e6f6e2d656044820152661e1a5cdd195b9d60ca1b6064820152608401610645565b60405163145f822b60e01b815260206004820152601360248201527230bab1ba34b7b72a3ab937223ab930ba34b7b760691b60448201527f00000000000000000000000000000000000000000000000000000000000000006001600160a01b03169063145f822b90606401602060405180830381865afa158015611c1c573d6000803e3d6000fd5b505050506040513d601f19601f82011682018060405250810190611c409190613a74565b6005820154611c4f9042613c1a565b1015611cad5760405162461bcd60e51b815260206004820152602760248201527f697420697320746f6f206561726c7920746f2066696e616c697a652c207761696044820152661d081848189a5d60ca1b6064820152608401610645565b600681015463ffffffff1615801590611cce57508060050154816004015414155b611d1a5760405162461bcd60e51b815260206004820181905260248201527f74686572652073686f756c64206265206174206c65617374206f6e65206269646044820152606401610645565b611d238361302a565b6001915050611d326001600055565b919050565b611d3f612f1d565b63ffffffff8216600090815260056020526040902080546001600160a01b03163314611dbd5760405162461bcd60e51b815260206004820152602760248201527f596f75206d617920696d70726f7665206f6e6c7920796f757220706572736f6e604482015266616c206269647360c81b6064820152608401610645565b8054600160a01b900463ffffffff166000908152600460205260409020805460ff168015611df257508054610100900460ff16155b611e0e5760405162461bcd60e51b815260040161064590613b3b565b600681015463ffffffff1660009081526005602052604090819020905163bdfe7d4760e01b81526001600160a01b037f0000000000000000000000000000000000000000000000000000000000000000169063bdfe7d4790611e72906004016139ad565b602060405180830381865afa158015611e8f573d6000803e3d6000fd5b505050506040513d601f19601f82011682018060405250810190611eb39190613984565b82546201000090046001600160a01b0390811691161480611f71575060405163bdfe7d4760e01b81526001600160a01b037f0000000000000000000000000000000000000000000000000000000000000000169063bdfe7d4790611f1990600401613b87565b602060405180830381865afa158015611f36573d6000803e3d6000fd5b505050506040513d601f19601f82011682018060405250810190611f5a9190613984565b82546201000090046001600160a01b039081169116145b156120525760008411801561203657508360647f00000000000000000000000000000000000000000000000000000000000000006001600160a01b031663145f822b6040518163ffffffff1660e01b8152600401611fce90613ba5565b602060405180830381865afa158015611feb573d6000803e3d6000fd5b505050506040513d601f19601f8201168201806040525081019061200f9190613a74565b61201a906064613bd2565b83600101546120299190613ac5565b6120339190613aa3565b11155b6120525760405162461bcd60e51b815260040161064590613be5565b60405163bdfe7d4760e01b81526001600160a01b037f0000000000000000000000000000000000000000000000000000000000000000169063bdfe7d479061209c906004016139d1565b602060405180830381865afa1580156120b9573d6000803e3d6000fd5b505050506040513d601f19601f820116820180604052508101906120dd9190613984565b82546001600160a01b0391821662010000909104909116036121d5576000841180156121b957508360647f00000000000000000000000000000000000000000000000000000000000000006001600160a01b031663145f822b6040518163ffffffff1660e01b815260040161215190613ba5565b602060405180830381865afa15801561216e573d6000803e3d6000fd5b505050506040513d601f19601f820116820180604052508101906121929190613a74565b61219d906064613c1a565b83600101546121ac9190613ac5565b6121b69190613aa3565b10155b6121d55760405162461bcd60e51b815260040161064590613be5565b600282015460405163bdfe7d4760e01b81526001600160a01b03918216917f0000000000000000000000000000000000000000000000000000000000000000169063bdfe7d4790612228906004016139ad565b602060405180830381865afa158015612245573d6000803e3d6000fd5b505050506040513d601f19601f820116820180604052508101906122699190613984565b83546201000090046001600160a01b0390811691161480612327575060405163bdfe7d4760e01b81526001600160a01b037f0000000000000000000000000000000000000000000000000000000000000000169063bdfe7d47906122cf90600401613b87565b602060405180830381865afa1580156122ec573d6000803e3d6000fd5b505050506040513d601f19601f820116820180604052508101906123109190613984565b83546201000090046001600160a01b039081169116145b1561242757600084600101548661233e9190613c1a565b6040516323b872dd60e01b81529091506001600160a01b038316906323b872dd9061237190339030908690600401613af0565b6020604051808303816000875af1158015612390573d6000803e3d6000fd5b505050506040513d601f19601f820116820180604052508101906123b49190613a08565b6124255760405162461bcd60e51b815260206004820152603c60248201527f596f752073686f756c6420666972737420617070726f7665207061796d656e7460448201527b20746f2061756374696f6e20636f6e7472616374206164647265737360201b6064820152608401610645565b505b6001840185905542600584015560068301805463ffffffff191663ffffffff888116919091179091558454604051600080516020613cef8339815191529261248992600160a01b8104909116918a918a916001600160a01b0390911690613c50565b60405180910390a15050505061249f6001600055565b5050565b60006124ad612f1d565b600354600160a01b900460ff161561252b5760405162461bcd60e51b815260206004820152603b60248201527f436f696e734275794f7574466f7253746162696c697a6174696f6e20616c726560448201527a18591e48195e1a5cdd1cc8185b99081b9bdd08199a5b9a5cda1959602a1b6064820152608401610645565b6001546002546040516370a0823160e01b8152600092600160401b90046001600160a01b03908116926370a082319261256a9290911690600401613adc565b602060405180830381865afa158015612587573d6000803e3d6000fd5b505050506040513d601f19601f820116820180604052508101906125ab9190613a74565b60405163145f822b60e01b81526020600482015260186024820152771cdd18589a5b1a5e985d1a5bdb919d5b9914195c98d95b9d60421b60448201529091506000906064906001600160a01b037f0000000000000000000000000000000000000000000000000000000000000000169063145f822b908301602060405180830381865afa158015612640573d6000803e3d6000fd5b505050506040513d601f19601f820116820180604052508101906126649190613a74565b600160089054906101000a90046001600160a01b03166001600160a01b03166318160ddd6040518163ffffffff1660e01b8152600401602060405180830381865afa1580156126b7573d6000803e3d6000fd5b505050506040513d601f19601f820116820180604052508101906126db9190613a74565b6126e59190613ac5565b6126ef9190613aa3565b90508082106127405760405162461bcd60e51b815260206004820181905260248201527f6e6f7420736f206c6f7720746f20696e69742052756c6520656d697373696f6e6044820152606401610645565b61274a8282613c1a565b84111561275e5761275b8282613c1a565b93505b60405163145f822b60e01b81526001600160a01b037f0000000000000000000000000000000000000000000000000000000000000000169063145f822b906127a890600401613c7e565b602060405180830381865afa1580156127c5573d6000803e3d6000fd5b505050506040513d601f19601f820116820180604052508101906127e99190613a74565b84111561287e5760405163145f822b60e01b81526001600160a01b037f0000000000000000000000000000000000000000000000000000000000000000169063145f822b9061283a90600401613c7e565b602060405180830381865afa158015612857573d6000803e3d6000fd5b505050506040513d601f19601f8201168201806040525081019061287b9190613a74565b93505b60405163bdfe7d4760e01b81526129a1906001600160a01b037f0000000000000000000000000000000000000000000000000000000000000000169063bdfe7d47906128cc906004016139d1565b602060405180830381865afa1580156128e9573d6000803e3d6000fd5b505050506040513d601f19601f8201168201806040525081019061290d9190613984565b60405163bdfe7d4760e01b81526000906001600160a01b037f0000000000000000000000000000000000000000000000000000000000000000169063bdfe7d479061295a906004016139ad565b602060405180830381865afa158015612977573d6000803e3d6000fd5b505050506040513d601f19601f8201168201806040525081019061299b9190613984565b87612f76565b6003805460ff60a01b1916600160a01b17905560405163bdfe7d4760e01b8152909350600080516020613d0f8339815191529084906000906001600160a01b037f0000000000000000000000000000000000000000000000000000000000000000169063bdfe7d4790612a16906004016139d1565b602060405180830381865afa158015612a33573d6000803e3d6000fd5b505050506040513d601f19601f82011682018060405250810190612a579190613984565b604051612a6693929190613b14565b60405180910390a15050611d326001600055565b6000612a84612f1d565b60405163bdfe7d4760e01b81526001600160a01b037f0000000000000000000000000000000000000000000000000000000000000000169063bdfe7d4790612ace90600401613967565b602060405180830381865afa158015612aeb573d6000803e3d6000fd5b505050506040513d601f19601f82011682018060405250810190612b0f9190613984565b6001600160a01b0316336001600160a01b031614612bb45760405162461bcd60e51b815260206004820152605660248201527f4f6e6c792043445020636f6e7472616374206d617920696e766f6b652074686960448201527f73206d6574686f642e20506c656173652c20757365207374617274436f696e73606482015275109d5e53dd5d081a5b8810d1140818dbdb9d1c9858dd60521b608482015260a401610645565b60405163bdfe7d4760e01b81526000906001600160a01b037f0000000000000000000000000000000000000000000000000000000000000000169063bdfe7d4790612c0190600401613b87565b602060405180830381865afa158015612c1e573d6000803e3d6000fd5b505050506040513d601f19601f82011682018060405250810190612c429190613984565b9050806001600160a01b03166323b872dd7f00000000000000000000000000000000000000000000000000000000000000006001600160a01b031663bdfe7d476040518163ffffffff1660e01b8152600401612c9d90613967565b602060405180830381865afa158015612cba573d6000803e3d6000fd5b505050506040513d601f19601f82011682018060405250810190612cde9190613984565b6040516001600160e01b031960e084901b1681526001600160a01b0390911660048201523060248201526001600160801b03861660448201526064016020604051808303816000875af1158015612d39573d6000803e3d6000fd5b505050506040513d601f19601f82011682018060405250810190612d5d9190613a08565b612db95760405162461bcd60e51b815260206004820152602760248201527f636f756c64206e6f74207472616e73666572207765746820666f7220736f6d65604482015266103932b0b9b7b760c91b6064820152608401610645565b60405163bdfe7d4760e01b8152612e9d906001600160a01b037f0000000000000000000000000000000000000000000000000000000000000000169063bdfe7d4790612e0790600401613b87565b602060405180830381865afa158015612e24573d6000803e3d6000fd5b505050506040513d601f19601f82011682018060405250810190612e489190613984565b60405163bdfe7d4760e01b81526001600160801b038616906001600160a01b037f0000000000000000000000000000000000000000000000000000000000000000169063bdfe7d4790610f1e906004016139ad565b63ffffffff8116600081815260046020908152604091829020600601805460ff60201b1916600160201b179055815192835282018790526001600160801b038616908201529092507fbca770893441e991f222925e16791268351c3d29352bd6e00e673287353a57ef9060600160405180910390a1506119be6001600055565b600260005403612f6f5760405162461bcd60e51b815260206004820152601f60248201527f5265656e7472616e637947756172643a207265656e7472616e742063616c6c006044820152606401610645565b6002600055565b60018054600091908290612f8f9063ffffffff16613c2d565b82546101009290920a63ffffffff8181021990931692821690810292909217909255600090815260046020819052604090912080546001600160b01b031916620100006001600160a01b03998a160217600190811782558101969096556002860180546001600160a01b0319169590971694909417909555506003830155426005830181905590820155600601805463ffffffff1916905590565b63ffffffff808216600090815260046020818152604080842060068101549095168452600590915291829020915163bdfe7d4760e01b81526001600160a01b037f0000000000000000000000000000000000000000000000000000000000000000169163bdfe7d479161309d91016139ad565b602060405180830381865afa1580156130ba573d6000803e3d6000fd5b505050506040513d601f19601f820116820180604052508101906130de9190613984565b82546001600160a01b0391821662010000909104909116036133775781548154600184015460405163a9059cbb60e01b81526001600160a01b036201000090940484169363a9059cbb93613137939116916004016139ef565b6020604051808303816000875af1158015613156573d6000803e3d6000fd5b505050506040513d601f19601f8201168201806040525081019061317a9190613a08565b6131d75760405162461bcd60e51b815260206004820152602860248201527f6c6f74546f6b656e207472616e73666572206661696c656420666f7220736f6d60448201526732903932b0b9b7b760c11b6064820152608401610645565b600282015460405163bdfe7d4760e01b81526001600160a01b039182169163a9059cbb917f00000000000000000000000000000000000000000000000000000000000000009091169063bdfe7d479061323290600401613967565b602060405180830381865afa15801561324f573d6000803e3d6000fd5b505050506040513d601f19601f820116820180604052508101906132739190613984565b83600101546040518363ffffffff1660e01b81526004016132959291906139ef565b6020604051808303816000875af11580156132b4573d6000803e3d6000fd5b505050506040513d601f19601f820116820180604052508101906132d89190613a08565b6133395760405162461bcd60e51b815260206004820152602c60248201527f7061796d656e74546f6b656e207472616e73666572206661696c656420666f7260448201526b1039b7b6b2903932b0b9b7b760a11b6064820152608401610645565b6003805460ff60a81b1916905560018281015490820154604051600080516020613ccf8339815191529261336e928792613cb0565b60405180910390a15b60405163bdfe7d4760e01b81526001600160a01b037f0000000000000000000000000000000000000000000000000000000000000000169063bdfe7d47906133c1906004016139d1565b602060405180830381865afa1580156133de573d6000803e3d6000fd5b505050506040513d601f19601f820116820180604052508101906134029190613984565b82546001600160a01b0391821662010000909104909116036136355760025481546001830154604051630403dc0960e01b81526001600160a01b0393841693630403dc0993613456939116916004016139ef565b6020604051808303816000875af1158015613475573d6000803e3d6000fd5b505050506040513d601f19601f820116820180604052508101906134999190613a08565b6134db5760405162461bcd60e51b8152602060048201526013602482015272636f756c64206e6f74206d696e742072756c6560681b6044820152606401610645565b60015460405163bdfe7d4760e01b8152600160401b9091046001600160a01b039081169163a9059cbb917f0000000000000000000000000000000000000000000000000000000000000000169063bdfe7d479061353a90600401613967565b602060405180830381865afa158015613557573d6000803e3d6000fd5b505050506040513d601f19601f8201168201806040525081019061357b9190613984565b84600301546040518363ffffffff1660e01b815260040161359d9291906139ef565b6020604051808303816000875af11580156135bc573d6000803e3d6000fd5b505050506040513d601f19601f820116820180604052508101906135e09190613a08565b6136275760405162461bcd60e51b8152602060048201526018602482015277636f756c64206e6f74207472616e7366657220636f696e7360401b6044820152606401610645565b6003805460ff60a01b191690555b60405163bdfe7d4760e01b81526001600160a01b037f0000000000000000000000000000000000000000000000000000000000000000169063bdfe7d479061367f90600401613b87565b602060405180830381865afa15801561369c573d6000803e3d6000fd5b505050506040513d601f19601f820116820180604052508101906136c09190613984565b82546001600160a01b0391821662010000909104909116036138a15781548154600184015460405163a9059cbb60e01b81526001600160a01b036201000090940484169363a9059cbb93613719939116916004016139ef565b6020604051808303816000875af1158015613738573d6000803e3d6000fd5b505050506040513d601f19601f8201168201806040525081019061375c9190613a08565b61376557600080fd5b600282015460405163bdfe7d4760e01b81526001600160a01b039182169163a9059cbb917f00000000000000000000000000000000000000000000000000000000000000009091169063bdfe7d47906137c090600401613967565b602060405180830381865afa1580156137dd573d6000803e3d6000fd5b505050506040513d601f19601f820116820180604052508101906138019190613984565b83600101546040518363ffffffff1660e01b81526004016138239291906139ef565b6020604051808303816000875af1158015613842573d6000803e3d6000fd5b505050506040513d601f19601f820116820180604052508101906138669190613a08565b61386f57600080fd5b600080516020613ccf833981519152838360010154836001015460405161389893929190613cb0565b60405180910390a15b50805461ff00191661010017905550565b803563ffffffff81168114611d3257600080fd5b6000602082840312156138d857600080fd5b6138e1826138b2565b9392505050565b600080604083850312156138fb57600080fd5b613904836138b2565b946020939093013593505050565b60006020828403121561392457600080fd5b5035919050565b6000806040838503121561393e57600080fd5b8235915060208301356001600160801b038116811461395c57600080fd5b809150509250929050565b60208082526003908201526206364760ec1b604082015260600190565b60006020828403121561399657600080fd5b81516001600160a01b03811681146138e157600080fd5b6020808252600a908201526939ba30b13632a1b7b4b760b11b604082015260600190565b60208082526004908201526372756c6560e01b604082015260600190565b6001600160a01b03929092168252602082015260400190565b600060208284031215613a1a57600080fd5b815180151581146138e157600080fd5b6020808252602a908201527f77652077657265206e6f742061626c6520746f207472616e7366657220796f756040820152697220626964206261636b60b01b606082015260800190565b600060208284031215613a8657600080fd5b5051919050565b634e487b7160e01b600052601160045260246000fd5b600082613ac057634e487b7160e01b600052601260045260246000fd5b500490565b80820281158282048414176119be576119be613a8d565b6001600160a01b0391909116815260200190565b6001600160a01b039384168152919092166020820152604081019190915260600190565b63ffffffff93909316835260208301919091526001600160a01b0316604082015260600190565b6020808252602c908201527f61756374696f6e49642069732077726f6e67206f7220697420697320616c726560408201526b18591e48199a5b9a5cda195960a21b606082015260800190565b6020808252600490820152630eecae8d60e31b604082015260600190565b6020808252601390820152726d696e41756374696f6e50726963654d6f766560681b604082015260600190565b808201808211156119be576119be613a8d565b6020808252601b908201527a0f2deeae440c4d2c840d2e640dcdee840d0d2ced040cadcdeeaced602b1b604082015260600190565b818103818111156119be576119be613a8d565b600063ffffffff808316818103613c4657613c46613a8d565b6001019392505050565b63ffffffff948516815292909316602083015260408201526001600160a01b03909116606082015260800190565b60208082526018908201527736b0bc21b7b4b739a337b929ba30b134b634bd30ba34b7b760411b604082015260600190565b63ffffffff939093168352602083019190915260408201526060019056fe0ee7855ba9fb0a4dcaafdc4ab664ec206d66e8a1cba0f1c76af3bd51a912a0cbeb8c99cce712855d65d3e2cc2f17e5680d7f0728918e592122da176a45a69f15108c614ddd89aaff61a9e254d5a4c476fde6a4fe3623fa604a7bf08366558588a26469706673582212204b4982b59c262bbd177f30f854eccb281500d2cea413959e3dbb55077786c94664736f6c63430008120033",
  "immutableReferences": {
    "826": [
      {
        "length": 32,
        "start": 957
      },
      {
        "length": 32,
        "start": 1116
      },
      {
        "length": 32,
        "start": 1286
      },
      {
        "length": 32,
        "start": 1885
      },
      {
        "length": 32,
        "start": 2597
      },
      {
        "length": 32,
        "start": 3073
      },
      {
        "length": 32,
        "start": 3435
      },
      {
        "length": 32,
        "start": 3678
      },
      {
        "length": 32,
        "start": 3819
      },
      {
        "length": 32,
        "start": 4007
      },
      {
        "length": 32,
        "start": 4308
      },
      {
        "length": 32,
        "start": 4475
      },
      {
        "length": 32,
        "start": 4635
      },
      {
        "length": 32,
        "start": 4862
      },
      {
        "length": 32,
        "start": 5022
      },
      {
        "length": 32,
        "start": 5337
      },
      {
        "length": 32,
        "start": 5544
      },
      {
        "length": 32,
        "start": 6670
      },
      {
        "length": 32,
        "start": 7117
      },
      {
        "length": 32,
        "start": 7743
      },
      {
        "length": 32,
        "start": 7910
      },
      {
        "length": 32,
        "start": 8070
      },
      {
        "length": 32,
        "start": 8297
      },
      {
        "length": 32,
        "start": 8457
      },
      {
        "length": 32,
        "start": 8693
      },
      {
        "length": 32,
        "start": 8860
      },
      {
        "length": 32,
        "start": 9722
      },
      {
        "length": 32,
        "start": 10101
      },
      {
        "length": 32,
        "start": 10247
      },
      {
        "length": 32,
        "start": 10393
      },
      {
        "length": 32,
        "start": 10535
      },
      {
        "length": 32,
        "start": 10723
      },
      {
        "length": 32,
        "start": 10907
      },
      {
        "length": 32,
        "start": 11214
      },
      {
        "length": 32,
        "start": 11349
      },
      {
        "length": 32,
        "start": 11732
      },
      {
        "length": 32,
        "start": 11882
      },
      {
        "length": 32,
        "start": 12396
      },
      {
        "length": 32,
        "start": 12797
      },
      {
        "length": 32,
        "start": 13198
      },
      {
        "length": 32,
        "start": 13575
      },
      {
        "length": 32,
        "start": 13900
      },
      {
        "length": 32,
        "start": 14219
      }
    ]
  },
  "source": "// SPDX-License-Identifier: UNLICENSED\r\npragma solidity 0.8.18;\r\nimport \"@openzeppelin/contracts/token/ERC20/IERC20.sol\";\r\nimport \"@openzeppelin/contracts/security/ReentrancyGuard.sol\";\r\nimport \"./IDAO.sol\";\r\nimport \"./ICDP.sol\";\r\n\r\n    struct auctionEntity {\r\n        bool initialized;\r\n        bool finalized;\r\n        address lotToken;\r\n        uint lotAmount;\r\n        address paymentToken;\r\n        uint256 paymentAmount;\r\n        uint256 initTime;\r\n        uint256 lastTimeUpdated;\r\n        uint32 bestBidId;\r\n        bool isMarginCall;\r\n    }\r\n\r\n    struct Bid {\r\n        address owner;\r\n        uint32 auctionID;\r\n        uint256 bidAmount;\r\n        uint256 time;\r\n        bool canceled;\r\n    }\r\n\r\ncontract Auction is ReentrancyGuard{\r\n    uint32 public auctionNum;\r\n    uint32 public bidsNum;\r\n    IERC20 coin;\r\n    IDAO immutable dao;\r\n    ICDP cdp;\r\n    IERC20 rule;\r\n    bool isCoinsBuyOutForStabilization;\r\n    bool ruleBuyOut;\r\n\r\n    mapping(uint32 => auctionEntity) public auctions;\r\n    mapping (uint32 => Bid) public bids;\r\n\r\n    event buyOutInit(uint32 auctionID, uint256 lotAmount, address lotAddress);\r\n    event buyOutFinished(uint32 auctionID, uint256 lotAmount, uint256 bestBid);\r\n    event newBid(uint32 auctionID, uint256 bidId, uint256 bidAmount, address owner);\r\n    event bidCanceled(uint256 bidId);\r\n    event liquidateCollateral(uint32 auctionID, uint256 posID, uint256 collateral);\r\n\r\n    constructor(address _INTDAOaddress){\r\n        dao = IDAO(_INTDAOaddress);\r\n    }\r\n\r\n    function renewContracts() public{\r\n        cdp = ICDP(dao.addresses(\"cdp\"));\r\n        coin = IERC20(dao.addresses(\"stableCoin\"));\r\n        rule = IERC20(dao.addresses(\"rule\"));\r\n    }\r\n\r\n    function initRuleBuyOut() nonReentrant external returns (uint32 auctionID){ //TODO: !\r\n        require (!ruleBuyOut, \"Rule buyOut auction already exist\");\r\n        require ((rule.balanceOf(msg.sender)>=rule.totalSupply()/100*dao.params(\"minRuleTokensToInitVotingPercent\")), \"not enough rule balance\");\r\n\r\n        uint256 allowed = coin.allowance(dao.addresses(\"cdp\"), address(this));\r\n        require (allowed>0, \"Can not transfer surplus from CDP\");\r\n\r\n        coin.transferFrom(dao.addresses(\"cdp\"), address(this), allowed);\r\n\r\n        auctionID = createNewAuction(dao.addresses(\"stableCoin\"), allowed, dao.addresses(\"rule\"), 0);\r\n        ruleBuyOut = true;\r\n\r\n        emit buyOutInit(auctionID, allowed, dao.addresses(\"stableCoin\"));\r\n        return auctionID;\r\n    }\r\n\r\n    function initCoinsBuyOutForStabilization(uint256 coinsAmountNeeded) nonReentrant external returns (uint32 auctionID){\r\n        require (!isCoinsBuyOutForStabilization, \"CoinsBuyOutForStabilization already exists and not finished\");\r\n        uint256 actualStabilizationFund = coin.balanceOf(address(cdp));\r\n        uint256 preferableStabilizationFund = coin.totalSupply() * dao.params(\"stabilizationFundPercent\")/100;\r\n        require (actualStabilizationFund<preferableStabilizationFund, \"not so low to init Rule emission\");\r\n\r\n        if (coinsAmountNeeded > preferableStabilizationFund - actualStabilizationFund)\r\n            coinsAmountNeeded = preferableStabilizationFund - actualStabilizationFund;\r\n        if (coinsAmountNeeded>dao.params(\"maxCoinsForStabilization\"))\r\n            coinsAmountNeeded = dao.params(\"maxCoinsForStabilization\");\r\n\r\n        auctionID = createNewAuction(dao.addresses(\"rule\"), 0, dao.addresses(\"stableCoin\"), coinsAmountNeeded);\r\n        isCoinsBuyOutForStabilization = true;\r\n\r\n        emit buyOutInit(auctionID, 0, dao.addresses(\"rule\"));\r\n        return auctionID;\r\n    }\r\n\r\n    function initCoinsBuyOut(uint256 posID, uint128 collateral) nonReentrant external returns (uint32 auctionID){\r\n        require (msg.sender == dao.addresses(\"cdp\"), \"Only CDP contract may invoke this method. Please, use startCoinsBuyOut in CDP contract\");\r\n        IERC20 weth = IERC20(dao.addresses(\"weth\"));\r\n        require(weth.transferFrom(dao.addresses(\"cdp\"), address(this), collateral), \"could not transfer weth for some reason\");\r\n\r\n        auctionID = createNewAuction (dao.addresses(\"weth\"), collateral, dao.addresses(\"stableCoin\"),0);\r\n        auctions[auctionID].isMarginCall = true;\r\n        emit liquidateCollateral(auctionID, posID, collateral);\r\n\r\n        return auctionID;\r\n    }\r\n\r\n    function createNewAuction(address lotToken, uint256 lotAmount, address paymentToken, uint256 paymentAmount) internal returns (uint32 auctionID){\r\n        auctionID = ++auctionNum;\r\n        auctionEntity storage a = auctions[auctionID];\r\n\r\n        a.initialized = true;\r\n        a.finalized = false;\r\n        a.lotToken = lotToken;\r\n        a.lotAmount = lotAmount;\r\n        a.paymentToken = paymentToken;\r\n        a.paymentAmount = paymentAmount;\r\n        a.lastTimeUpdated = block.timestamp;\r\n        a.initTime = block.timestamp;\r\n        a.bestBidId = 0;\r\n        return auctionID;\r\n    }\r\n\r\n    function makeBid(uint32 auctionId, uint256 bidAmount) nonReentrant external returns (uint32 bidId){\r\n        auctionEntity storage a = auctions[auctionId];\r\n        require(a.initialized&&!a.finalized, \"auctionId is wrong or it is already finished\");\r\n\r\n        if (a.bestBidId!=0){\r\n            Bid storage bestBid = bids[a.bestBidId];\r\n            if (a.lotToken == dao.addresses(\"stableCoin\") || a.lotToken == dao.addresses(\"weth\"))\r\n                require(bidAmount>0 && bestBid.bidAmount*(100+dao.params(\"minAuctionPriceMove\"))/100<=bidAmount, \"your bid is not high enough\");\r\n            if (a.lotToken == dao.addresses(\"rule\"))\r\n                require(bidAmount>0 && bestBid.bidAmount*(100-dao.params(\"minAuctionPriceMove\"))/100>=bidAmount, \"your bid is not low enough\");\r\n        }\r\n        require(bidAmount>0, \"your bid is not high enough\");\r\n        IERC20 paymentToken = IERC20(address(a.paymentToken));\r\n        if (a.lotToken == dao.addresses(\"rule\")){\r\n            require(bidAmount<=rule.totalSupply()*dao.params(\"maxRuleEmissionPercent\")/100, \"too many rules for one emission\");\r\n            require(paymentToken.transferFrom(msg.sender, address(this), a.paymentAmount), \"You should first approve stableCoins to auction contract address\");\r\n        }\r\n        else\r\n            require(paymentToken.transferFrom(msg.sender, address(this), bidAmount), \"You should first approve bidAmount to auction contract address\");\r\n\r\n        bidId = ++bidsNum;\r\n        Bid storage b = bids[bidId];\r\n        b.owner = msg.sender;\r\n        b.auctionID = auctionId;\r\n        b.bidAmount = bidAmount;\r\n        b.time = block.timestamp;\r\n        b.canceled = false;\r\n\r\n        a.bestBidId = bidId;\r\n        a.lastTimeUpdated = block.timestamp;\r\n        emit newBid(auctionId, bidId, bidAmount, b.owner);\r\n        return bidId;\r\n    }\r\n\r\n    function improveBid(uint32 bidId, uint256 newBidAmount) nonReentrant external{\r\n        Bid storage b = bids[bidId];\r\n        require(b.owner == msg.sender, \"You may improve only your personal bids\");\r\n        auctionEntity storage a = auctions[b.auctionID];\r\n        require(a.initialized&&!a.finalized, \"auctionId is wrong or it is already finished\");\r\n        Bid storage bestBid = bids[a.bestBidId];\r\n\r\n        if (a.lotToken == dao.addresses(\"stableCoin\") || a.lotToken == dao.addresses(\"weth\"))\r\n            require(newBidAmount>0 && bestBid.bidAmount*(100+dao.params(\"minAuctionPriceMove\"))/100<=newBidAmount, \"your bid is not high enough\");\r\n        if (a.lotToken == dao.addresses(\"rule\"))\r\n            require(newBidAmount>0 && bestBid.bidAmount*(100-dao.params(\"minAuctionPriceMove\"))/100>=newBidAmount, \"your bid is not high enough\");\r\n\r\n        IERC20 paymentToken = IERC20(address(a.paymentToken));\r\n\r\n        if (a.lotToken == dao.addresses(\"stableCoin\") || a.lotToken == dao.addresses(\"weth\")){\r\n            uint256 difference = newBidAmount-b.bidAmount;\r\n            require(paymentToken.transferFrom(msg.sender, address(this), difference), \"You should first approve payment to auction contract address\");\r\n        }\r\n\r\n        b.bidAmount = newBidAmount;\r\n        a.lastTimeUpdated = block.timestamp;\r\n        a.bestBidId = bidId;\r\n        emit newBid(b.auctionID, bidId, newBidAmount, b.owner);\r\n    }\r\n\r\n    function cancelBid(uint32 bidId) nonReentrant external{\r\n        Bid storage b = bids[bidId];\r\n        require (b.owner==msg.sender && !b.canceled, \"Only bid owner may cancel it, if it wasn't canceled earlier\");\r\n        auctionEntity storage a = auctions[b.auctionID];\r\n        require(a.initialized, \"the bid is made on non-existent auction\");\r\n        require(a.bestBidId!=bidId, \"You can not cancel a bid if it is a best one\");\r\n        IERC20 paymentToken = IERC20(address(a.paymentToken));\r\n        if (a.lotToken == dao.addresses(\"rule\"))\r\n            require(paymentToken.transfer(b.owner, a.paymentAmount), \"we were not able to transfer your bid back\");\r\n        else\r\n            require(paymentToken.transfer(b.owner, b.bidAmount), \"we were not able to transfer your bid back\");\r\n        emit bidCanceled(bidId);\r\n        b.canceled = true;\r\n    }\r\n\r\n    function claimToFinalizeAuction(uint32 auctionID) nonReentrant external returns (bool success){\r\n        auctionEntity storage a = auctions[auctionID];\r\n        if (a.isMarginCall)\r\n            require (msg.sender == dao.addresses(\"cdp\"), \"Only CDP contract may finish this auction. Please, use finishMarginCall method.\");\r\n\r\n        require(a.initialized && !a.finalized, \"the auction is finished or non-existent\");\r\n        require(block.timestamp-a.lastTimeUpdated>=dao.params(\"auctionTurnDuration\"), \"it is too early to finalize, wait a bit\");\r\n        require(a.bestBidId!=0 && a.initTime!=a.lastTimeUpdated, \"there should be at least one bid\");\r\n\r\n        finalizeAuction(auctionID);\r\n        return true;\r\n    }\r\n\r\n    function finalizeAuction(uint32 auctionID) internal {\r\n        auctionEntity storage a = auctions[auctionID];\r\n        Bid storage bestBid = bids[a.bestBidId];\r\n\r\n        if (a.lotToken == dao.addresses(\"stableCoin\")){\r\n            require(IERC20(address(a.lotToken)).transfer(bestBid.owner, a.lotAmount), \"lotToken transfer failed for some reason\");\r\n            require(IERC20(address(a.paymentToken)).transfer(dao.addresses(\"cdp\"), bestBid.bidAmount), \"paymentToken transfer failed for some reason\");\r\n            ruleBuyOut = false;\r\n            emit buyOutFinished(auctionID, a.lotAmount, bestBid.bidAmount);\r\n        }\r\n        if (a.lotToken == dao.addresses(\"rule\")){\r\n            require(cdp.mintRule(bestBid.owner, bestBid.bidAmount), \"could not mint rule\");\r\n            require(coin.transfer(dao.addresses(\"cdp\"), a.paymentAmount), \"could not transfer coins\");\r\n            isCoinsBuyOutForStabilization = false;\r\n        }\r\n        if (a.lotToken == dao.addresses(\"weth\")){\r\n            require(IERC20(address(a.lotToken)).transfer(bestBid.owner, a.lotAmount));\r\n            require(IERC20(address(a.paymentToken)).transfer(dao.addresses(\"cdp\"), bestBid.bidAmount));\r\n            emit buyOutFinished(auctionID, a.lotAmount, bestBid.bidAmount);\r\n        }\r\n        a.finalized = true;\r\n    }\r\n\r\n    function isFinalized(uint32 auctionId) external view returns (bool finalized){\r\n        return auctions[auctionId].finalized;\r\n    }\r\n\r\n    function getPaymentAmount(uint32 auctionID) external view returns (uint256){\r\n        return auctions[auctionID].paymentAmount;\r\n    }\r\n\r\n    function getBestBidAmount(uint32 auctionID) external view returns (uint256){\r\n        return bids[auctions[auctionID].bestBidId].bidAmount;\r\n    }\r\n}\r\n",
  "sourcePath": "C:\\Users\\d.nagornykh\\YandexDisk\\\\ICO\\CryptoFiat\\repo\\contracts\\Auction.sol",
  "compiler": {
    "name": "solc",
    "version": "0.8.18+commit.87f61d96.Emscripten.clang"
  },
  "schemaVersion": "3.4.14",
  "updatedAt": "2023-09-29T08:17:48.031Z",
  "devdoc": {
    "kind": "dev",
    "methods": {},
    "version": 1
  },
  "userdoc": {
    "kind": "user",
    "methods": {},
    "version": 1
  }
}