{
  "contractName": "Auction",
  "abi": [
    {
      "inputs": [
        {
          "internalType": "address",
          "name": "_INTDAOaddress",
          "type": "address"
        }
      ],
      "stateMutability": "nonpayable",
      "type": "constructor"
    },
    {
      "anonymous": false,
      "inputs": [
        {
          "indexed": false,
          "internalType": "uint256",
          "name": "posID",
          "type": "uint256"
        },
        {
          "indexed": false,
          "internalType": "uint256",
          "name": "liquidateColleteral",
          "type": "uint256"
        },
        {
          "indexed": false,
          "internalType": "uint256",
          "name": "startPrice",
          "type": "uint256"
        }
      ],
      "name": "liquidateColleteral",
      "type": "event"
    },
    {
      "inputs": [
        {
          "internalType": "uint256",
          "name": "",
          "type": "uint256"
        }
      ],
      "name": "auctions",
      "outputs": [
        {
          "internalType": "bool",
          "name": "finalized",
          "type": "bool"
        },
        {
          "internalType": "address",
          "name": "lotToken",
          "type": "address"
        },
        {
          "internalType": "uint256",
          "name": "lotAmount",
          "type": "uint256"
        },
        {
          "internalType": "address",
          "name": "paymentToken",
          "type": "address"
        },
        {
          "internalType": "uint256",
          "name": "bestBidId",
          "type": "uint256"
        },
        {
          "internalType": "uint256",
          "name": "lastTimeUpdated",
          "type": "uint256"
        }
      ],
      "stateMutability": "view",
      "type": "function"
    },
    {
      "inputs": [
        {
          "internalType": "uint256",
          "name": "",
          "type": "uint256"
        }
      ],
      "name": "bids",
      "outputs": [
        {
          "internalType": "address",
          "name": "owner",
          "type": "address"
        },
        {
          "internalType": "uint256",
          "name": "auctionID",
          "type": "uint256"
        },
        {
          "internalType": "uint256",
          "name": "bidAmount",
          "type": "uint256"
        },
        {
          "internalType": "uint256",
          "name": "time",
          "type": "uint256"
        }
      ],
      "stateMutability": "view",
      "type": "function"
    },
    {
      "inputs": [],
      "name": "initRuleBuyOut",
      "outputs": [
        {
          "internalType": "bool",
          "name": "success",
          "type": "bool"
        }
      ],
      "stateMutability": "nonpayable",
      "type": "function"
    }
  ],
  "bytecode": "0x608060405234801561001057600080fd5b5060405161055a38038061055a8339818101604052810190610032919061010c565b60008190508073ffffffffffffffffffffffffffffffffffffffff16632abdf04e306040518263ffffffff1660e01b815260040161007091906101a5565b600060405180830381600087803b15801561008a57600080fd5b505af115801561009e573d6000803e3d6000fd5b5050505050506101d3565b600080fd5b600073ffffffffffffffffffffffffffffffffffffffff82169050919050565b60006100d9826100ae565b9050919050565b6100e9816100ce565b81146100f457600080fd5b50565b600081519050610106816100e0565b92915050565b600060208284031215610122576101216100a9565b5b6000610130848285016100f7565b91505092915050565b600082825260208201905092915050565b7f61756374696f6e00000000000000000000000000000000000000000000000000600082015250565b6000610180600783610139565b915061018b8261014a565b602082019050919050565b61019f816100ce565b82525050565b600060408201905081810360008301526101be81610173565b90506101cd6020830184610196565b92915050565b610378806101e26000396000f3fe608060405234801561001057600080fd5b50600436106100415760003560e01c80634423c5f114610046578063571a26a01461007957806383b1e1f2146100ae575b600080fd5b610060600480360381019061005b91906101e9565b6100cc565b6040516100709493929190610266565b60405180910390f35b610093600480360381019061008e91906101e9565b61011c565b6040516100a5969594939291906102c6565b60405180910390f35b6100b66101a5565b6040516100c39190610327565b60405180910390f35b60026020528060005260406000206000915090508060000160009054906101000a900473ffffffffffffffffffffffffffffffffffffffff16908060010154908060020154908060030154905084565b60016020528060005260406000206000915090508060000160009054906101000a900460ff16908060000160019054906101000a900473ffffffffffffffffffffffffffffffffffffffff16908060010154908060020160009054906101000a900473ffffffffffffffffffffffffffffffffffffffff16908060030154908060040154905086565b60006001905090565b600080fd5b6000819050919050565b6101c6816101b3565b81146101d157600080fd5b50565b6000813590506101e3816101bd565b92915050565b6000602082840312156101ff576101fe6101ae565b5b600061020d848285016101d4565b91505092915050565b600073ffffffffffffffffffffffffffffffffffffffff82169050919050565b600061024182610216565b9050919050565b61025181610236565b82525050565b610260816101b3565b82525050565b600060808201905061027b6000830187610248565b6102886020830186610257565b6102956040830185610257565b6102a26060830184610257565b95945050505050565b60008115159050919050565b6102c0816102ab565b82525050565b600060c0820190506102db60008301896102b7565b6102e86020830188610248565b6102f56040830187610257565b6103026060830186610248565b61030f6080830185610257565b61031c60a0830184610257565b979650505050505050565b600060208201905061033c60008301846102b7565b9291505056fea2646970667358221220867ea51e1e04fca9ef176ad035bfcadec2a170ee795dceb6e40b96c82b09a0e564736f6c634300080a0033",
  "immutableReferences": {},
  "source": "// SPDX-License-Identifier: UNLICENSED\r\npragma solidity >=0.4.22 <0.9.0;\r\n\r\nimport \"./INTDAO.sol\";\r\n\r\n//started at 11.30 25/05/2020\r\n\r\ncontract Auction {\r\n    uint auctionID;\r\n\r\n    mapping(uint => auctionEntity) public auctions;\r\n    mapping (uint => Bid) public bids;\r\n\r\n    struct auctionEntity {\r\n        bool finalized;\r\n        address lotToken;\r\n        uint lotAmount;\r\n        address paymentToken;\r\n        uint bestBidId;\r\n        uint lastTimeUpdated;\r\n    }\r\n\r\n    struct Bid {\r\n        address owner;\r\n        uint auctionID;\r\n        uint bidAmount;\r\n        uint time;\r\n    }\r\n\r\n    event liquidateColleteral(uint posID, uint liquidateColleteral, uint startPrice);\r\n\r\n    constructor(address _INTDAOaddress){\r\n        INTDAO dao = INTDAO(_INTDAOaddress);\r\n        dao.setAddressOnce(\"auction\", address(this));\r\n    }\r\n\r\n    function initRuleBuyOut() public returns (bool success){\r\n        //   ,      Rule.    Rule;\r\n        return true;\r\n    }\r\n}\r\n",
  "sourcePath": "C:\\Users\\d.nagornykh\\YandexDisk\\\\ICO\\CryptoFiat\\repo\\contracts\\Auction.sol",
  "compiler": {
    "name": "solc",
    "version": "0.8.10+commit.fc410830.Emscripten.clang"
  },
  "schemaVersion": "3.4.4",
  "updatedAt": "2023-01-02T06:46:55.889Z",
  "devdoc": {
    "kind": "dev",
    "methods": {},
    "version": 1
  },
  "userdoc": {
    "kind": "user",
    "methods": {},
    "version": 1
  }
}