{
  "contractName": "Auction",
  "abi": [
    {
      "inputs": [
        {
          "internalType": "address",
          "name": "_INTDAOaddress",
          "type": "address"
        }
      ],
      "stateMutability": "nonpayable",
      "type": "constructor"
    },
    {
      "anonymous": false,
      "inputs": [
        {
          "indexed": false,
          "internalType": "uint256",
          "name": "bidId",
          "type": "uint256"
        }
      ],
      "name": "bidCanceled",
      "type": "event"
    },
    {
      "anonymous": false,
      "inputs": [
        {
          "indexed": false,
          "internalType": "uint256",
          "name": "auctionID",
          "type": "uint256"
        },
        {
          "indexed": false,
          "internalType": "uint256",
          "name": "lotAmount",
          "type": "uint256"
        },
        {
          "indexed": false,
          "internalType": "uint256",
          "name": "bestBid",
          "type": "uint256"
        }
      ],
      "name": "buyOutFinished",
      "type": "event"
    },
    {
      "anonymous": false,
      "inputs": [
        {
          "indexed": false,
          "internalType": "uint256",
          "name": "auctionID",
          "type": "uint256"
        },
        {
          "indexed": false,
          "internalType": "uint256",
          "name": "lotAmount",
          "type": "uint256"
        },
        {
          "indexed": false,
          "internalType": "address",
          "name": "lotAddress",
          "type": "address"
        }
      ],
      "name": "buyOutInit",
      "type": "event"
    },
    {
      "anonymous": false,
      "inputs": [
        {
          "indexed": false,
          "internalType": "uint256",
          "name": "auctionID",
          "type": "uint256"
        },
        {
          "indexed": false,
          "internalType": "uint256",
          "name": "posID",
          "type": "uint256"
        },
        {
          "indexed": false,
          "internalType": "uint256",
          "name": "collateral",
          "type": "uint256"
        }
      ],
      "name": "liquidateCollateral",
      "type": "event"
    },
    {
      "anonymous": false,
      "inputs": [
        {
          "indexed": false,
          "internalType": "uint256",
          "name": "auctionID",
          "type": "uint256"
        },
        {
          "indexed": false,
          "internalType": "uint256",
          "name": "bidId",
          "type": "uint256"
        },
        {
          "indexed": false,
          "internalType": "uint256",
          "name": "bidAmount",
          "type": "uint256"
        },
        {
          "indexed": false,
          "internalType": "address",
          "name": "owner",
          "type": "address"
        }
      ],
      "name": "newBid",
      "type": "event"
    },
    {
      "inputs": [],
      "name": "auctionNum",
      "outputs": [
        {
          "internalType": "uint256",
          "name": "",
          "type": "uint256"
        }
      ],
      "stateMutability": "view",
      "type": "function"
    },
    {
      "inputs": [
        {
          "internalType": "uint256",
          "name": "",
          "type": "uint256"
        }
      ],
      "name": "auctions",
      "outputs": [
        {
          "internalType": "bool",
          "name": "initialized",
          "type": "bool"
        },
        {
          "internalType": "bool",
          "name": "finalized",
          "type": "bool"
        },
        {
          "internalType": "address",
          "name": "lotToken",
          "type": "address"
        },
        {
          "internalType": "uint256",
          "name": "lotAmount",
          "type": "uint256"
        },
        {
          "internalType": "address",
          "name": "paymentToken",
          "type": "address"
        },
        {
          "internalType": "uint256",
          "name": "paymentAmount",
          "type": "uint256"
        },
        {
          "internalType": "uint256",
          "name": "initTime",
          "type": "uint256"
        },
        {
          "internalType": "uint256",
          "name": "lastTimeUpdated",
          "type": "uint256"
        },
        {
          "internalType": "uint256",
          "name": "bestBidId",
          "type": "uint256"
        },
        {
          "internalType": "bool",
          "name": "isMarginCall",
          "type": "bool"
        }
      ],
      "stateMutability": "view",
      "type": "function"
    },
    {
      "inputs": [
        {
          "internalType": "uint256",
          "name": "",
          "type": "uint256"
        }
      ],
      "name": "bids",
      "outputs": [
        {
          "internalType": "address",
          "name": "owner",
          "type": "address"
        },
        {
          "internalType": "uint256",
          "name": "auctionID",
          "type": "uint256"
        },
        {
          "internalType": "uint256",
          "name": "bidAmount",
          "type": "uint256"
        },
        {
          "internalType": "uint256",
          "name": "time",
          "type": "uint256"
        },
        {
          "internalType": "bool",
          "name": "canceled",
          "type": "bool"
        }
      ],
      "stateMutability": "view",
      "type": "function"
    },
    {
      "inputs": [],
      "name": "bidsNum",
      "outputs": [
        {
          "internalType": "uint256",
          "name": "",
          "type": "uint256"
        }
      ],
      "stateMutability": "view",
      "type": "function"
    },
    {
      "inputs": [],
      "name": "renewContracts",
      "outputs": [],
      "stateMutability": "nonpayable",
      "type": "function"
    },
    {
      "inputs": [],
      "name": "initRuleBuyOut",
      "outputs": [
        {
          "internalType": "uint256",
          "name": "auctionID",
          "type": "uint256"
        }
      ],
      "stateMutability": "nonpayable",
      "type": "function"
    },
    {
      "inputs": [
        {
          "internalType": "uint256",
          "name": "coinsAmountNeeded",
          "type": "uint256"
        }
      ],
      "name": "initCoinsBuyOutForStabilization",
      "outputs": [
        {
          "internalType": "uint256",
          "name": "auctionID",
          "type": "uint256"
        }
      ],
      "stateMutability": "nonpayable",
      "type": "function"
    },
    {
      "inputs": [
        {
          "internalType": "uint256",
          "name": "posID",
          "type": "uint256"
        },
        {
          "internalType": "uint256",
          "name": "collateral",
          "type": "uint256"
        }
      ],
      "name": "initCoinsBuyOut",
      "outputs": [
        {
          "internalType": "uint256",
          "name": "auctionID",
          "type": "uint256"
        }
      ],
      "stateMutability": "nonpayable",
      "type": "function"
    },
    {
      "inputs": [
        {
          "internalType": "uint256",
          "name": "auctionId",
          "type": "uint256"
        },
        {
          "internalType": "uint256",
          "name": "bidAmount",
          "type": "uint256"
        }
      ],
      "name": "makeBid",
      "outputs": [
        {
          "internalType": "uint256",
          "name": "bidId",
          "type": "uint256"
        }
      ],
      "stateMutability": "nonpayable",
      "type": "function"
    },
    {
      "inputs": [
        {
          "internalType": "uint256",
          "name": "bidId",
          "type": "uint256"
        },
        {
          "internalType": "uint256",
          "name": "newBidAmount",
          "type": "uint256"
        }
      ],
      "name": "improveBid",
      "outputs": [],
      "stateMutability": "nonpayable",
      "type": "function"
    },
    {
      "inputs": [
        {
          "internalType": "uint256",
          "name": "bidId",
          "type": "uint256"
        }
      ],
      "name": "cancelBid",
      "outputs": [],
      "stateMutability": "nonpayable",
      "type": "function"
    },
    {
      "inputs": [
        {
          "internalType": "uint256",
          "name": "auctionID",
          "type": "uint256"
        }
      ],
      "name": "claimToFinalizeAuction",
      "outputs": [
        {
          "internalType": "bool",
          "name": "success",
          "type": "bool"
        }
      ],
      "stateMutability": "nonpayable",
      "type": "function"
    },
    {
      "inputs": [
        {
          "internalType": "uint256",
          "name": "auctionId",
          "type": "uint256"
        }
      ],
      "name": "isFinalized",
      "outputs": [
        {
          "internalType": "bool",
          "name": "finalized",
          "type": "bool"
        }
      ],
      "stateMutability": "view",
      "type": "function"
    },
    {
      "inputs": [
        {
          "internalType": "uint256",
          "name": "auctionID",
          "type": "uint256"
        }
      ],
      "name": "getPaymentAmount",
      "outputs": [
        {
          "internalType": "uint256",
          "name": "",
          "type": "uint256"
        }
      ],
      "stateMutability": "view",
      "type": "function"
    },
    {
      "inputs": [
        {
          "internalType": "uint256",
          "name": "auctionID",
          "type": "uint256"
        }
      ],
      "name": "getBestBidAmount",
      "outputs": [
        {
          "internalType": "uint256",
          "name": "",
          "type": "uint256"
        }
      ],
      "stateMutability": "view",
      "type": "function"
    }
  ],
  "bytecode": "0x60a06040523480156200001157600080fd5b5060405162003e6f38038062003e6f8339810160408190526200003491620002a5565b6001600160a01b03811660808190526040805163155ef82760e11b81526004810191909152600760448201526630bab1ba34b7b760c91b6064820152306024820152632abdf04e90608401600060405180830381600087803b1580156200009a57600080fd5b505af1158015620000af573d6000803e3d6000fd5b50505050620000c3620000ca60201b60201c565b50620002d7565b60805160405163bdfe7d4760e01b815260206004820152600360248201526206364760ec1b60448201526001600160a01b039091169063bdfe7d4790606401602060405180830381865afa15801562000127573d6000803e3d6000fd5b505050506040513d601f19601f820116820180604052508101906200014d9190620002a5565b600380546001600160a01b0319166001600160a01b0392831617905560805160405163bdfe7d4760e01b815260206004820152600a60248201526939ba30b13632a1b7b4b760b11b604482015291169063bdfe7d4790606401602060405180830381865afa158015620001c4573d6000803e3d6000fd5b505050506040513d601f19601f82011682018060405250810190620001ea9190620002a5565b600280546001600160a01b0319166001600160a01b0392831617905560805160405163bdfe7d4760e01b8152602060048083019190915260248201526372756c6560e01b604482015291169063bdfe7d4790606401602060405180830381865afa1580156200025d573d6000803e3d6000fd5b505050506040513d601f19601f82011682018060405250810190620002839190620002a5565b600480546001600160a01b0319166001600160a01b0392909216919091179055565b600060208284031215620002b857600080fd5b81516001600160a01b0381168114620002d057600080fd5b9392505050565b608051613a56620004196000396000818161043d015281816104e4015281816105840152818161066701528181610707015281816107f30152818161089a01528181610a9501528181610b3401528181610bd501528181610c9f01528181610e5e0152818161106101528181611240015281816113a20152818161149701528181611524015281816115e00152818161180501528181611a8501528181611b2c01528181611bcc01528181611caf01528181611d4f01528181611e8a01528181611f590152818161233101528181612464015281816124eb0152818161264e015281816126db015281816128b901528181612a3401528181612ac601528181612b5801528181612be601528181612ca201528181612d6b01528181612efe0152818161308f015281816132000152818161334701526134860152613a566000f3fe608060405234801561001057600080fd5b50600436106100c55760003560e01c806303ad0a01146100ca57806323d86a65146100df57806333727c4d146100e7578063378096c0146101245780634423c5f11461013b578063571a26a0146101b957806365d089a81461028757806368a720b8146102ba5780637343950a146102dd57806383b1e1f2146102f05780639703ef35146102f8578063adfcdc111461030b578063c0219ad91461031e578063e2a89c0c14610331578063f85badde1461033a575b600080fd5b6100dd6100d836600461363b565b61034d565b005b6100dd610a7e565b61010f6100f536600461365d565b600090815260056020526040902054610100900460ff1690565b60405190151581526020015b60405180910390f35b61012d60015481565b60405190815260200161011b565b61018561014936600461365d565b600660205260009081526040902080546001820154600283015460038401546004909401546001600160a01b0390931693919290919060ff1685565b604080516001600160a01b03909616865260208601949094529284019190915260608301521515608082015260a00161011b565b61022a6101c736600461365d565b60056020819052600091825260409091208054600182015460028301546003840154600485015495850154600686015460079096015460ff808716986101008804821698620100009098046001600160a01b03908116989616959093929091168a565b604080519a15158b5298151560208b01526001600160a01b03978816988a0198909852606089019590955294909216608087015260a086015260c085015260e084019190915261010083015215156101208201526101400161011b565b61012d61029536600461365d565b6000908152600560209081526040808320600690810154845290915290206002015490565b61012d6102c836600461365d565b60009081526005602052604090206003015490565b61010f6102eb36600461365d565b610c6d565b61012d610fb7565b6100dd61030636600461365d565b61166d565b61012d61031936600461363b565b611a0c565b61012d61032c36600461363b565b612317565b61012d60005481565b61012d61034836600461365d565b612770565b600082815260066020526040902080546001600160a01b031633146103c95760405162461bcd60e51b815260206004820152602760248201527f596f75206d617920696d70726f7665206f6e6c7920796f757220706572736f6e604482015266616c206269647360c81b60648201526084015b60405180910390fd5b60018101546000908152600560205260409020805460ff1680156103f457508054610100900460ff16155b6104105760405162461bcd60e51b81526004016103c090613676565b6006818101546000908152602091909152604090819020905163bdfe7d4760e01b81526001600160a01b037f0000000000000000000000000000000000000000000000000000000000000000169063bdfe7d4790610470906004016136c2565b602060405180830381865afa15801561048d573d6000803e3d6000fd5b505050506040513d601f19601f820116820180604052508101906104b191906136e6565b82546201000090046001600160a01b039081169116148061056f575060405163bdfe7d4760e01b81526001600160a01b037f0000000000000000000000000000000000000000000000000000000000000000169063bdfe7d479061051790600401613716565b602060405180830381865afa158015610534573d6000803e3d6000fd5b505050506040513d601f19601f8201168201806040525081019061055891906136e6565b82546201000090046001600160a01b039081169116145b156106505760008411801561063457508360647f00000000000000000000000000000000000000000000000000000000000000006001600160a01b031663145f822b6040518163ffffffff1660e01b81526004016105cc90613734565b602060405180830381865afa1580156105e9573d6000803e3d6000fd5b505050506040513d601f19601f8201168201806040525081019061060d9190613761565b610618906064613790565b836002015461062791906137a3565b61063191906137ba565b11155b6106505760405162461bcd60e51b81526004016103c0906137dc565b60405163bdfe7d4760e01b81526001600160a01b037f0000000000000000000000000000000000000000000000000000000000000000169063bdfe7d479061069a90600401613811565b602060405180830381865afa1580156106b7573d6000803e3d6000fd5b505050506040513d601f19601f820116820180604052508101906106db91906136e6565b82546001600160a01b0391821662010000909104909116036107d3576000841180156107b757508360647f00000000000000000000000000000000000000000000000000000000000000006001600160a01b031663145f822b6040518163ffffffff1660e01b815260040161074f90613734565b602060405180830381865afa15801561076c573d6000803e3d6000fd5b505050506040513d601f19601f820116820180604052508101906107909190613761565b61079b90606461382f565b83600201546107aa91906137a3565b6107b491906137ba565b10155b6107d35760405162461bcd60e51b81526004016103c0906137dc565b600282015460405163bdfe7d4760e01b81526001600160a01b03918216917f0000000000000000000000000000000000000000000000000000000000000000169063bdfe7d4790610826906004016136c2565b602060405180830381865afa158015610843573d6000803e3d6000fd5b505050506040513d601f19601f8201168201806040525081019061086791906136e6565b83546201000090046001600160a01b0390811691161480610925575060405163bdfe7d4760e01b81526001600160a01b037f0000000000000000000000000000000000000000000000000000000000000000169063bdfe7d47906108cd90600401613716565b602060405180830381865afa1580156108ea573d6000803e3d6000fd5b505050506040513d601f19601f8201168201806040525081019061090e91906136e6565b83546201000090046001600160a01b039081169116145b15610a2557600084600201548661093c919061382f565b6040516323b872dd60e01b81529091506001600160a01b038316906323b872dd9061096f90339030908690600401613842565b6020604051808303816000875af115801561098e573d6000803e3d6000fd5b505050506040513d601f19601f820116820180604052508101906109b29190613866565b610a235760405162461bcd60e51b815260206004820152603c60248201527f596f752073686f756c6420666972737420617070726f7665207061796d656e7460448201527b20746f2061756374696f6e20636f6e7472616374206164647265737360201b60648201526084016103c0565b505b6002840185905542600584015560068301869055600184015484546040516000805160206139e183398151915292610a6e9290918a918a916001600160a01b0390911690613888565b60405180910390a1505050505050565b60405163bdfe7d4760e01b81526001600160a01b037f0000000000000000000000000000000000000000000000000000000000000000169063bdfe7d4790610ac8906004016138ac565b602060405180830381865afa158015610ae5573d6000803e3d6000fd5b505050506040513d601f19601f82011682018060405250810190610b0991906136e6565b600380546001600160a01b0319166001600160a01b0392831617905560405163bdfe7d4760e01b81527f00000000000000000000000000000000000000000000000000000000000000009091169063bdfe7d4790610b69906004016136c2565b602060405180830381865afa158015610b86573d6000803e3d6000fd5b505050506040513d601f19601f82011682018060405250810190610baa91906136e6565b600280546001600160a01b0319166001600160a01b0392831617905560405163bdfe7d4760e01b81527f00000000000000000000000000000000000000000000000000000000000000009091169063bdfe7d4790610c0a90600401613811565b602060405180830381865afa158015610c27573d6000803e3d6000fd5b505050506040513d601f19601f82011682018060405250810190610c4b91906136e6565b600480546001600160a01b0319166001600160a01b0392909216919091179055565b6000818152600560205260408120600781015460ff1615610db15760405163bdfe7d4760e01b81526001600160a01b037f0000000000000000000000000000000000000000000000000000000000000000169063bdfe7d4790610cd2906004016138ac565b602060405180830381865afa158015610cef573d6000803e3d6000fd5b505050506040513d601f19601f82011682018060405250810190610d1391906136e6565b6001600160a01b0316336001600160a01b031614610db15760405162461bcd60e51b815260206004820152604f60248201527f4f6e6c792043445020636f6e7472616374206d61792066696e6973682074686960448201527f732061756374696f6e2e20506c656173652c207573652066696e6973684d617260648201526e33b4b721b0b6361036b2ba3437b21760891b608482015260a4016103c0565b805460ff168015610dc957508054610100900460ff16155b610e255760405162461bcd60e51b815260206004820152602760248201527f7468652061756374696f6e2069732066696e6973686564206f72206e6f6e2d656044820152661e1a5cdd195b9d60ca1b60648201526084016103c0565b60405163145f822b60e01b815260206004820152601360248201527230bab1ba34b7b72a3ab937223ab930ba34b7b760691b60448201527f00000000000000000000000000000000000000000000000000000000000000006001600160a01b03169063145f822b90606401602060405180830381865afa158015610ead573d6000803e3d6000fd5b505050506040513d601f19601f82011682018060405250810190610ed19190613761565b6005820154610ee0904261382f565b1015610f3e5760405162461bcd60e51b815260206004820152602760248201527f697420697320746f6f206561726c7920746f2066696e616c697a652c207761696044820152661d081848189a5d60ca1b60648201526084016103c0565b600681015415801590610f5957508060050154816004015414155b610fa55760405162461bcd60e51b815260206004820181905260248201527f74686572652073686f756c64206265206174206c65617374206f6e652062696460448201526064016103c0565b610fae83612d32565b50600192915050565b600454600090600160a81b900460ff161561101e5760405162461bcd60e51b815260206004820152602160248201527f52756c65206275794f75742061756374696f6e20616c726561647920657869736044820152601d60fa1b60648201526084016103c0565b60405163145f822b60e01b815260206004820181905260248201527f6d696e52756c65546f6b656e73546f496e6974566f74696e6750657263656e7460448201527f00000000000000000000000000000000000000000000000000000000000000006001600160a01b03169063145f822b90606401602060405180830381865afa1580156110b0573d6000803e3d6000fd5b505050506040513d601f19601f820116820180604052508101906110d49190613761565b6064600460009054906101000a90046001600160a01b03166001600160a01b03166318160ddd6040518163ffffffff1660e01b8152600401602060405180830381865afa158015611129573d6000803e3d6000fd5b505050506040513d601f19601f8201168201806040525081019061114d9190613761565b61115791906137ba565b61116191906137a3565b600480546040516370a0823160e01b81526001600160a01b03909116916370a0823191611190913391016138c9565b602060405180830381865afa1580156111ad573d6000803e3d6000fd5b505050506040513d601f19601f820116820180604052508101906111d19190613761565b10156112195760405162461bcd60e51b81526020600482015260176024820152766e6f7420656e6f7567682072756c652062616c616e636560481b60448201526064016103c0565b60025460405163bdfe7d4760e01b81526000916001600160a01b039081169163dd62ed3e917f0000000000000000000000000000000000000000000000000000000000000000169063bdfe7d4790611273906004016138ac565b602060405180830381865afa158015611290573d6000803e3d6000fd5b505050506040513d601f19601f820116820180604052508101906112b491906136e6565b6040516001600160e01b031960e084901b1681526001600160a01b039091166004820152306024820152604401602060405180830381865afa1580156112fe573d6000803e3d6000fd5b505050506040513d601f19601f820116820180604052508101906113229190613761565b90506000811161137e5760405162461bcd60e51b815260206004820152602160248201527f43616e206e6f74207472616e7366657220737572706c75732066726f6d2043446044820152600560fc1b60648201526084016103c0565b60025460405163bdfe7d4760e01b81526001600160a01b03918216916323b872dd917f00000000000000000000000000000000000000000000000000000000000000009091169063bdfe7d47906113d7906004016138ac565b602060405180830381865afa1580156113f4573d6000803e3d6000fd5b505050506040513d601f19601f8201168201806040525081019061141891906136e6565b30846040518463ffffffff1660e01b815260040161143893929190613842565b6020604051808303816000875af1158015611457573d6000803e3d6000fd5b505050506040513d601f19601f8201168201806040525081019061147b9190613866565b5060405163bdfe7d4760e01b815261159f906001600160a01b037f0000000000000000000000000000000000000000000000000000000000000000169063bdfe7d47906114ca906004016136c2565b602060405180830381865afa1580156114e7573d6000803e3d6000fd5b505050506040513d601f19601f8201168201806040525081019061150b91906136e6565b60405163bdfe7d4760e01b815283906001600160a01b037f0000000000000000000000000000000000000000000000000000000000000000169063bdfe7d479061155790600401613811565b602060405180830381865afa158015611574573d6000803e3d6000fd5b505050506040513d601f19601f8201168201806040525081019061159891906136e6565b60006135ac565b6004805460ff60a81b1916600160a81b17815560405163bdfe7d4760e01b81529193506000805160206139c183398151915291849184916001600160a01b037f0000000000000000000000000000000000000000000000000000000000000000169163bdfe7d479161161191016136c2565b602060405180830381865afa15801561162e573d6000803e3d6000fd5b505050506040513d601f19601f8201168201806040525081019061165291906136e6565b604051611661939291906138dd565b60405180910390a15090565b600081815260066020526040902080546001600160a01b0316331480156116995750600481015460ff16155b6117095760405162461bcd60e51b815260206004820152603b60248201527f4f6e6c7920626964206f776e6572206d61792063616e63656c2069742c20696660448201527a1034ba103bb0b9b713ba1031b0b731b2b632b21032b0b93634b2b960291b60648201526084016103c0565b60018101546000908152600560205260409020805460ff1661177d5760405162461bcd60e51b815260206004820152602760248201527f74686520626964206973206d616465206f6e206e6f6e2d6578697374656e742060448201526630bab1ba34b7b760c91b60648201526084016103c0565b828160060154036117e55760405162461bcd60e51b815260206004820152602c60248201527f596f752063616e206e6f742063616e63656c206120626964206966206974206960448201526b7320612062657374206f6e6560a01b60648201526084016103c0565b600281015460405163bdfe7d4760e01b81526001600160a01b03918216917f0000000000000000000000000000000000000000000000000000000000000000169063bdfe7d479061183890600401613811565b602060405180830381865afa158015611855573d6000803e3d6000fd5b505050506040513d601f19601f8201168201806040525081019061187991906136e6565b82546001600160a01b039182166201000090910490911603611930578254600383015460405163a9059cbb60e01b81526001600160a01b038481169363a9059cbb936118cc9392909116916004016138fc565b6020604051808303816000875af11580156118eb573d6000803e3d6000fd5b505050506040513d601f19601f8201168201806040525081019061190f9190613866565b61192b5760405162461bcd60e51b81526004016103c090613915565b6119c6565b8254600284015460405163a9059cbb60e01b81526001600160a01b038481169363a9059cbb936119679392909116916004016138fc565b6020604051808303816000875af1158015611986573d6000803e3d6000fd5b505050506040513d601f19601f820116820180604052508101906119aa9190613866565b6119c65760405162461bcd60e51b81526004016103c090613915565b6040518481527ffac423451217205d5c65185b7a90cc7d957ec2dd791403d541d2c4460f9d8f379060200160405180910390a15050600401805460ff1916600117905550565b6000828152600560205260408120805460ff168015611a3257508054610100900460ff16155b611a4e5760405162461bcd60e51b81526004016103c090613676565b600681015415611e4a576006818101546000908152602091909152604090819020905163bdfe7d4760e01b81526001600160a01b037f0000000000000000000000000000000000000000000000000000000000000000169063bdfe7d4790611ab8906004016136c2565b602060405180830381865afa158015611ad5573d6000803e3d6000fd5b505050506040513d601f19601f82011682018060405250810190611af991906136e6565b82546201000090046001600160a01b0390811691161480611bb7575060405163bdfe7d4760e01b81526001600160a01b037f0000000000000000000000000000000000000000000000000000000000000000169063bdfe7d4790611b5f90600401613716565b602060405180830381865afa158015611b7c573d6000803e3d6000fd5b505050506040513d601f19601f82011682018060405250810190611ba091906136e6565b82546201000090046001600160a01b039081169116145b15611c9857600084118015611c7c57508360647f00000000000000000000000000000000000000000000000000000000000000006001600160a01b031663145f822b6040518163ffffffff1660e01b8152600401611c1490613734565b602060405180830381865afa158015611c31573d6000803e3d6000fd5b505050506040513d601f19601f82011682018060405250810190611c559190613761565b611c60906064613790565b8360020154611c6f91906137a3565b611c7991906137ba565b11155b611c985760405162461bcd60e51b81526004016103c0906137dc565b60405163bdfe7d4760e01b81526001600160a01b037f0000000000000000000000000000000000000000000000000000000000000000169063bdfe7d4790611ce290600401613811565b602060405180830381865afa158015611cff573d6000803e3d6000fd5b505050506040513d601f19601f82011682018060405250810190611d2391906136e6565b82546001600160a01b039182166201000090910490911603611e4857600084118015611dff57508360647f00000000000000000000000000000000000000000000000000000000000000006001600160a01b031663145f822b6040518163ffffffff1660e01b8152600401611d9790613734565b602060405180830381865afa158015611db4573d6000803e3d6000fd5b505050506040513d601f19601f82011682018060405250810190611dd89190613761565b611de390606461382f565b8360020154611df291906137a3565b611dfc91906137ba565b10155b611e485760405162461bcd60e51b815260206004820152601a6024820152790f2deeae440c4d2c840d2e640dcdee840d8deee40cadcdeeaced60331b60448201526064016103c0565b505b60008311611e6a5760405162461bcd60e51b81526004016103c0906137dc565b600281015460405163bdfe7d4760e01b81526001600160a01b03918216917f0000000000000000000000000000000000000000000000000000000000000000169063bdfe7d4790611ebd90600401613811565b602060405180830381865afa158015611eda573d6000803e3d6000fd5b505050506040513d601f19601f82011682018060405250810190611efe91906136e6565b82546001600160a01b0391821662010000909104909116036121895760405163145f822b60e01b81526020600482015260166024820152751b585e149d5b19515b5a5cdcda5bdb94195c98d95b9d60521b60448201526064907f00000000000000000000000000000000000000000000000000000000000000006001600160a01b03169063145f822b908301602060405180830381865afa158015611fa7573d6000803e3d6000fd5b505050506040513d601f19601f82011682018060405250810190611fcb9190613761565b60048054604080516318160ddd60e01b815290516001600160a01b03909216926318160ddd9282820192602092908290030181865afa158015612012573d6000803e3d6000fd5b505050506040513d601f19601f820116820180604052508101906120369190613761565b61204091906137a3565b61204a91906137ba565b8411156120995760405162461bcd60e51b815260206004820152601f60248201527f746f6f206d616e792072756c657320666f72206f6e6520656d697373696f6e0060448201526064016103c0565b60038201546040516323b872dd60e01b81526001600160a01b038316916323b872dd916120cd913391309190600401613842565b6020604051808303816000875af11580156120ec573d6000803e3d6000fd5b505050506040513d601f19601f820116820180604052508101906121109190613866565b612184576040805162461bcd60e51b81526020600482015260248101919091527f596f752073686f756c6420666972737420617070726f766520737461626c654360448201527f6f696e7320746f2061756374696f6e20636f6e7472616374206164647265737360648201526084016103c0565b61226e565b6040516323b872dd60e01b81526001600160a01b038216906323b872dd906121b990339030908990600401613842565b6020604051808303816000875af11580156121d8573d6000803e3d6000fd5b505050506040513d601f19601f820116820180604052508101906121fc9190613866565b61226e5760405162461bcd60e51b815260206004820152603e60248201527f596f752073686f756c6420666972737420617070726f766520626964416d6f7560448201527f6e7420746f2061756374696f6e20636f6e74726163742061646472657373000060648201526084016103c0565b60016000815461227d9061395f565b918290555060008181526006602081905260409182902080546001600160a01b031916331781556001810189905560028101889055426003820181905560048201805460ff19169055918601849055600586019190915580549151929550916000805160206139e18339815191529161230591899188918a916001600160a01b031690613888565b60405180910390a15050505b92915050565b60405163bdfe7d4760e01b81526000906001600160a01b037f0000000000000000000000000000000000000000000000000000000000000000169063bdfe7d4790612364906004016138ac565b602060405180830381865afa158015612381573d6000803e3d6000fd5b505050506040513d601f19601f820116820180604052508101906123a591906136e6565b6001600160a01b0316336001600160a01b03161461244a5760405162461bcd60e51b815260206004820152605660248201527f4f6e6c792043445020636f6e7472616374206d617920696e766f6b652074686960448201527f73206d6574686f642e20506c656173652c20757365207374617274436f696e73606482015275109d5e53dd5d081a5b8810d1140818dbdb9d1c9858dd60521b608482015260a4016103c0565b60405163bdfe7d4760e01b81526000906001600160a01b037f0000000000000000000000000000000000000000000000000000000000000000169063bdfe7d479061249790600401613716565b602060405180830381865afa1580156124b4573d6000803e3d6000fd5b505050506040513d601f19601f820116820180604052508101906124d891906136e6565b9050806001600160a01b03166323b872dd7f00000000000000000000000000000000000000000000000000000000000000006001600160a01b031663bdfe7d476040518163ffffffff1660e01b8152600401612533906138ac565b602060405180830381865afa158015612550573d6000803e3d6000fd5b505050506040513d601f19601f8201168201806040525081019061257491906136e6565b30866040518463ffffffff1660e01b815260040161259493929190613842565b6020604051808303816000875af11580156125b3573d6000803e3d6000fd5b505050506040513d601f19601f820116820180604052508101906125d79190613866565b6126335760405162461bcd60e51b815260206004820152602760248201527f636f756c64206e6f74207472616e73666572207765746820666f7220736f6d65604482015266103932b0b9b7b760c91b60648201526084016103c0565b60405163bdfe7d4760e01b815261270e906001600160a01b037f0000000000000000000000000000000000000000000000000000000000000000169063bdfe7d479061268190600401613716565b602060405180830381865afa15801561269e573d6000803e3d6000fd5b505050506040513d601f19601f820116820180604052508101906126c291906136e6565b60405163bdfe7d4760e01b815285906001600160a01b037f0000000000000000000000000000000000000000000000000000000000000000169063bdfe7d4790611557906004016136c2565b60008181526005602052604090819020600701805460ff19166001179055519092507f082844962cf5145347cebd63a315279825bc23fed895630911764ad520ffea259061276190849087908790613978565b60405180910390a15092915050565b600454600090600160a01b900460ff16156127f15760405162461bcd60e51b815260206004820152603b60248201527f436f696e734275794f7574466f7253746162696c697a6174696f6e20616c726560448201527a18591e48195e1a5cdd1cc8185b99081b9bdd08199a5b9a5cda1959602a1b60648201526084016103c0565b6002546003546040516370a0823160e01b81526000926001600160a01b03908116926370a082319261282992909116906004016138c9565b602060405180830381865afa158015612846573d6000803e3d6000fd5b505050506040513d601f19601f8201168201806040525081019061286a9190613761565b60405163145f822b60e01b81526020600482015260186024820152771cdd18589a5b1a5e985d1a5bdb919d5b9914195c98d95b9d60421b60448201529091506000906064906001600160a01b037f0000000000000000000000000000000000000000000000000000000000000000169063145f822b908301602060405180830381865afa1580156128ff573d6000803e3d6000fd5b505050506040513d601f19601f820116820180604052508101906129239190613761565b600260009054906101000a90046001600160a01b03166001600160a01b03166318160ddd6040518163ffffffff1660e01b8152600401602060405180830381865afa158015612976573d6000803e3d6000fd5b505050506040513d601f19601f8201168201806040525081019061299a9190613761565b6129a491906137a3565b6129ae91906137ba565b90508082106129ff5760405162461bcd60e51b815260206004820181905260248201527f6e6f7420736f206c6f7720746f20696e69742052756c6520656d697373696f6e60448201526064016103c0565b612a09828261382f565b841115612a1d57612a1a828261382f565b93505b60405163145f822b60e01b81526001600160a01b037f0000000000000000000000000000000000000000000000000000000000000000169063145f822b90612a679060040161398e565b602060405180830381865afa158015612a84573d6000803e3d6000fd5b505050506040513d601f19601f82011682018060405250810190612aa89190613761565b841115612b3d5760405163145f822b60e01b81526001600160a01b037f0000000000000000000000000000000000000000000000000000000000000000169063145f822b90612af99060040161398e565b602060405180830381865afa158015612b16573d6000803e3d6000fd5b505050506040513d601f19601f82011682018060405250810190612b3a9190613761565b93505b60405163bdfe7d4760e01b8152612c60906001600160a01b037f0000000000000000000000000000000000000000000000000000000000000000169063bdfe7d4790612b8b90600401613811565b602060405180830381865afa158015612ba8573d6000803e3d6000fd5b505050506040513d601f19601f82011682018060405250810190612bcc91906136e6565b60405163bdfe7d4760e01b81526000906001600160a01b037f0000000000000000000000000000000000000000000000000000000000000000169063bdfe7d4790612c19906004016136c2565b602060405180830381865afa158015612c36573d6000803e3d6000fd5b505050506040513d601f19601f82011682018060405250810190612c5a91906136e6565b876135ac565b6004805460ff60a01b1916600160a01b17815560405163bdfe7d4760e01b81529194506000805160206139c18339815191529185916000916001600160a01b037f0000000000000000000000000000000000000000000000000000000000000000169163bdfe7d4791612cd39101613811565b602060405180830381865afa158015612cf0573d6000803e3d6000fd5b505050506040513d601f19601f82011682018060405250810190612d1491906136e6565b604051612d23939291906138dd565b60405180910390a15050919050565b6000818152600560209081526040808320600680820154855290925291829020915163bdfe7d4760e01b81529091906001600160a01b037f0000000000000000000000000000000000000000000000000000000000000000169063bdfe7d4790612d9e906004016136c2565b602060405180830381865afa158015612dbb573d6000803e3d6000fd5b505050506040513d601f19601f82011682018060405250810190612ddf91906136e6565b82546001600160a01b0391821662010000909104909116036130785781548154600184015460405163a9059cbb60e01b81526001600160a01b036201000090940484169363a9059cbb93612e38939116916004016138fc565b6020604051808303816000875af1158015612e57573d6000803e3d6000fd5b505050506040513d601f19601f82011682018060405250810190612e7b9190613866565b612ed85760405162461bcd60e51b815260206004820152602860248201527f6c6f74546f6b656e207472616e73666572206661696c656420666f7220736f6d60448201526732903932b0b9b7b760c11b60648201526084016103c0565b600282015460405163bdfe7d4760e01b81526001600160a01b039182169163a9059cbb917f00000000000000000000000000000000000000000000000000000000000000009091169063bdfe7d4790612f33906004016138ac565b602060405180830381865afa158015612f50573d6000803e3d6000fd5b505050506040513d601f19601f82011682018060405250810190612f7491906136e6565b83600201546040518363ffffffff1660e01b8152600401612f969291906138fc565b6020604051808303816000875af1158015612fb5573d6000803e3d6000fd5b505050506040513d601f19601f82011682018060405250810190612fd99190613866565b61303a5760405162461bcd60e51b815260206004820152602c60248201527f7061796d656e74546f6b656e207472616e73666572206661696c656420666f7260448201526b1039b7b6b2903932b0b9b7b760a11b60648201526084016103c0565b6004805460ff60a81b1916905560018201546002820154604051600080516020613a018339815191529261306f928792613978565b60405180910390a15b60405163bdfe7d4760e01b81526001600160a01b037f0000000000000000000000000000000000000000000000000000000000000000169063bdfe7d47906130c290600401613811565b602060405180830381865afa1580156130df573d6000803e3d6000fd5b505050506040513d601f19601f8201168201806040525081019061310391906136e6565b82546001600160a01b0391821662010000909104909116036133305760035481546002830154604051630403dc0960e01b81526001600160a01b0393841693630403dc0993613157939116916004016138fc565b6020604051808303816000875af1158015613176573d6000803e3d6000fd5b505050506040513d601f19601f8201168201806040525081019061319a9190613866565b6131dc5760405162461bcd60e51b8152602060048201526013602482015272636f756c64206e6f74206d696e742072756c6560681b60448201526064016103c0565b60025460405163bdfe7d4760e01b81526001600160a01b039182169163a9059cbb917f00000000000000000000000000000000000000000000000000000000000000009091169063bdfe7d4790613235906004016138ac565b602060405180830381865afa158015613252573d6000803e3d6000fd5b505050506040513d601f19601f8201168201806040525081019061327691906136e6565b84600301546040518363ffffffff1660e01b81526004016132989291906138fc565b6020604051808303816000875af11580156132b7573d6000803e3d6000fd5b505050506040513d601f19601f820116820180604052508101906132db9190613866565b6133225760405162461bcd60e51b8152602060048201526018602482015277636f756c64206e6f74207472616e7366657220636f696e7360401b60448201526064016103c0565b6004805460ff60a01b191690555b60405163bdfe7d4760e01b81526001600160a01b037f0000000000000000000000000000000000000000000000000000000000000000169063bdfe7d479061337a90600401613716565b602060405180830381865afa158015613397573d6000803e3d6000fd5b505050506040513d601f19601f820116820180604052508101906133bb91906136e6565b82546001600160a01b03918216620100009091049091160361359b5781548154600184015460405163a9059cbb60e01b81526001600160a01b036201000090940484169363a9059cbb93613414939116916004016138fc565b6020604051808303816000875af1158015613433573d6000803e3d6000fd5b505050506040513d601f19601f820116820180604052508101906134579190613866565b61346057600080fd5b600282015460405163bdfe7d4760e01b81526001600160a01b039182169163a9059cbb917f00000000000000000000000000000000000000000000000000000000000000009091169063bdfe7d47906134bb906004016138ac565b602060405180830381865afa1580156134d8573d6000803e3d6000fd5b505050506040513d601f19601f820116820180604052508101906134fc91906136e6565b83600201546040518363ffffffff1660e01b815260040161351e9291906138fc565b6020604051808303816000875af115801561353d573d6000803e3d6000fd5b505050506040513d601f19601f820116820180604052508101906135619190613866565b61356a57600080fd5b60018201546002820154604051600080516020613a0183398151915292613592928792613978565b60405180910390a15b50805461ff00191661010017905550565b600080600081546135bc9061395f565b918290555060008181526005602081905260408220805460016001600160b01b0319909116620100006001600160a01b039b8c160217811782558101979097556002870180546001600160a01b031916969098169590951790965560038501929092555042918301829055600483019190915560069091019190915590565b6000806040838503121561364e57600080fd5b50508035926020909101359150565b60006020828403121561366f57600080fd5b5035919050565b6020808252602c908201527f61756374696f6e49642069732077726f6e67206f7220697420697320616c726560408201526b18591e48199a5b9a5cda195960a21b606082015260800190565b6020808252600a908201526939ba30b13632a1b7b4b760b11b604082015260600190565b6000602082840312156136f857600080fd5b81516001600160a01b038116811461370f57600080fd5b9392505050565b6020808252600490820152630eecae8d60e31b604082015260600190565b6020808252601390820152726d696e41756374696f6e50726963654d6f766560681b604082015260600190565b60006020828403121561377357600080fd5b5051919050565b634e487b7160e01b600052601160045260246000fd5b808201808211156123115761231161377a565b80820281158282048414176123115761231161377a565b6000826137d757634e487b7160e01b600052601260045260246000fd5b500490565b6020808252601b908201527a0f2deeae440c4d2c840d2e640dcdee840d0d2ced040cadcdeeaced602b1b604082015260600190565b60208082526004908201526372756c6560e01b604082015260600190565b818103818111156123115761231161377a565b6001600160a01b039384168152919092166020820152604081019190915260600190565b60006020828403121561387857600080fd5b8151801515811461370f57600080fd5b938452602084019290925260408301526001600160a01b0316606082015260800190565b60208082526003908201526206364760ec1b604082015260600190565b6001600160a01b0391909116815260200190565b92835260208301919091526001600160a01b0316604082015260600190565b6001600160a01b03929092168252602082015260400190565b6020808252602a908201527f77652077657265206e6f742061626c6520746f207472616e7366657220796f756040820152697220626964206261636b60b01b606082015260800190565b6000600182016139715761397161377a565b5060010190565b9283526020830191909152604082015260600190565b60208082526018908201527736b0bc21b7b4b739a337b929ba30b134b634bd30ba34b7b760411b60408201526060019056fedb8dd885380749a42d93685c4954d7dd30b146634d3e33f49620084ce98e4e8ffec53f788c9ef6de6841d61017cbcd768a3dbd9dd7cac7b45d42de5589b0a5d7316f148f986c9d3880b02142d215ebfc51857506d0b21ab35f195689ce6d1ceba2646970667358221220663ea6d8e086b18f1136f6d17c196dc30465b577351a64fbff0d7306f6ed20de64736f6c63430008120033",
  "immutableReferences": {
    "758": [
      {
        "length": 32,
        "start": 1085
      },
      {
        "length": 32,
        "start": 1252
      },
      {
        "length": 32,
        "start": 1412
      },
      {
        "length": 32,
        "start": 1639
      },
      {
        "length": 32,
        "start": 1799
      },
      {
        "length": 32,
        "start": 2035
      },
      {
        "length": 32,
        "start": 2202
      },
      {
        "length": 32,
        "start": 2709
      },
      {
        "length": 32,
        "start": 2868
      },
      {
        "length": 32,
        "start": 3029
      },
      {
        "length": 32,
        "start": 3231
      },
      {
        "length": 32,
        "start": 3678
      },
      {
        "length": 32,
        "start": 4193
      },
      {
        "length": 32,
        "start": 4672
      },
      {
        "length": 32,
        "start": 5026
      },
      {
        "length": 32,
        "start": 5271
      },
      {
        "length": 32,
        "start": 5412
      },
      {
        "length": 32,
        "start": 5600
      },
      {
        "length": 32,
        "start": 6149
      },
      {
        "length": 32,
        "start": 6789
      },
      {
        "length": 32,
        "start": 6956
      },
      {
        "length": 32,
        "start": 7116
      },
      {
        "length": 32,
        "start": 7343
      },
      {
        "length": 32,
        "start": 7503
      },
      {
        "length": 32,
        "start": 7818
      },
      {
        "length": 32,
        "start": 8025
      },
      {
        "length": 32,
        "start": 9009
      },
      {
        "length": 32,
        "start": 9316
      },
      {
        "length": 32,
        "start": 9451
      },
      {
        "length": 32,
        "start": 9806
      },
      {
        "length": 32,
        "start": 9947
      },
      {
        "length": 32,
        "start": 10425
      },
      {
        "length": 32,
        "start": 10804
      },
      {
        "length": 32,
        "start": 10950
      },
      {
        "length": 32,
        "start": 11096
      },
      {
        "length": 32,
        "start": 11238
      },
      {
        "length": 32,
        "start": 11426
      },
      {
        "length": 32,
        "start": 11627
      },
      {
        "length": 32,
        "start": 12030
      },
      {
        "length": 32,
        "start": 12431
      },
      {
        "length": 32,
        "start": 12800
      },
      {
        "length": 32,
        "start": 13127
      },
      {
        "length": 32,
        "start": 13446
      }
    ]
  },
  "source": "// SPDX-License-Identifier: UNLICENSED\r\npragma solidity 0.8.18;\r\nimport \"@openzeppelin/contracts/token/ERC20/IERC20.sol\";\r\nimport \"./IDAO.sol\";\r\nimport \"./ICDP.sol\";\r\n\r\n\r\n    struct auctionEntity {\r\n        bool initialized;\r\n        bool finalized;\r\n        address lotToken;\r\n        uint lotAmount;\r\n        address paymentToken;\r\n        uint256 paymentAmount;\r\n        uint256 initTime;\r\n        uint256 lastTimeUpdated;\r\n        uint256 bestBidId;\r\n        bool isMarginCall;\r\n    }\r\n\r\n    struct Bid {\r\n        address owner;\r\n        uint256 auctionID;\r\n        uint256 bidAmount;\r\n        uint256 time;\r\n        bool canceled;\r\n    }\r\n\r\ncontract Auction {\r\n    uint256 public auctionNum;\r\n    uint256 public bidsNum;\r\n    IERC20 coin;\r\n    IDAO immutable dao;\r\n    ICDP cdp;\r\n    IERC20 rule;\r\n    bool isCoinsBuyOutForStabilization;\r\n    bool ruleBuyOut;\r\n\r\n    mapping(uint256 => auctionEntity) public auctions;\r\n    mapping (uint256 => Bid) public bids;\r\n\r\n    event buyOutInit(uint256 auctionID, uint256 lotAmount, address lotAddress);\r\n    event buyOutFinished(uint256 auctionID, uint256 lotAmount, uint256 bestBid);\r\n    event newBid(uint256 auctionID, uint256 bidId, uint256 bidAmount, address owner);\r\n    event bidCanceled(uint256 bidId);\r\n    event liquidateCollateral(uint256 auctionID, uint256 posID, uint256 collateral);\r\n\r\n    constructor(address _INTDAOaddress){\r\n        dao = IDAO(_INTDAOaddress);\r\n        dao.setAddressOnce(\"auction\", address(this));\r\n        renewContracts();\r\n    }\r\n\r\n    function renewContracts() public{\r\n        cdp = ICDP(dao.addresses('cdp'));\r\n        coin = IERC20(dao.addresses('stableCoin'));\r\n        rule = IERC20(dao.addresses('rule'));\r\n    }\r\n\r\n    function initRuleBuyOut() external returns (uint256 auctionID){\r\n        require (!ruleBuyOut, \"Rule buyOut auction already exist\");\r\n        require ((rule.balanceOf(msg.sender)>=rule.totalSupply()/100*dao.params('minRuleTokensToInitVotingPercent')), \"not enough rule balance\");\r\n\r\n        uint256 allowed = coin.allowance(dao.addresses('cdp'), address(this));\r\n        require (allowed>0, \"Can not transfer surplus from CDP\");\r\n\r\n        coin.transferFrom(dao.addresses('cdp'), address(this), allowed);\r\n\r\n        auctionID = createNewAuction(dao.addresses('stableCoin'), allowed, dao.addresses('rule'), 0);\r\n        ruleBuyOut = true;\r\n\r\n        emit buyOutInit(auctionID, allowed, dao.addresses('stableCoin'));\r\n        return auctionID;\r\n    }\r\n\r\n    function initCoinsBuyOutForStabilization(uint256 coinsAmountNeeded) external returns (uint256 auctionID){\r\n        require (!isCoinsBuyOutForStabilization, \"CoinsBuyOutForStabilization already exists and not finished\");\r\n        uint256 actualStabilizationFund = coin.balanceOf(address(cdp));\r\n        uint256 preferableStabilizationFund = coin.totalSupply() * dao.params(\"stabilizationFundPercent\")/100;\r\n        require (actualStabilizationFund<preferableStabilizationFund, \"not so low to init Rule emission\");\r\n\r\n        if (coinsAmountNeeded > preferableStabilizationFund - actualStabilizationFund)\r\n            coinsAmountNeeded = preferableStabilizationFund - actualStabilizationFund;\r\n        if (coinsAmountNeeded>dao.params(\"maxCoinsForStabilization\"))\r\n            coinsAmountNeeded = dao.params(\"maxCoinsForStabilization\");\r\n\r\n        auctionID = createNewAuction(dao.addresses('rule'), 0, dao.addresses('stableCoin'), coinsAmountNeeded);\r\n        isCoinsBuyOutForStabilization = true;\r\n\r\n        emit buyOutInit(auctionID, 0, dao.addresses('rule'));\r\n        return auctionID;\r\n    }\r\n\r\n    function initCoinsBuyOut(uint256 posID, uint256 collateral) external returns (uint256 auctionID){\r\n        require (msg.sender == dao.addresses('cdp'), \"Only CDP contract may invoke this method. Please, use startCoinsBuyOut in CDP contract\");\r\n        IERC20 weth = IERC20(dao.addresses('weth'));\r\n        require(weth.transferFrom(dao.addresses('cdp'), address(this), collateral), \"could not transfer weth for some reason\");\r\n\r\n        auctionID = createNewAuction (dao.addresses('weth'), collateral, dao.addresses('stableCoin'),0);\r\n        auctions[auctionID].isMarginCall = true;\r\n        emit liquidateCollateral(auctionID, posID, collateral);\r\n\r\n        return auctionID;\r\n    }\r\n\r\n    function createNewAuction(address lotToken, uint256 lotAmount, address paymentToken, uint256 paymentAmount) internal returns (uint256 auctionID){\r\n        auctionID = ++auctionNum;\r\n        auctionEntity storage a = auctions[auctionID];\r\n\r\n        a.initialized = true;\r\n        a.finalized = false;\r\n        a.lotToken = lotToken;\r\n        a.lotAmount = lotAmount;\r\n        a.paymentToken = paymentToken;\r\n        a.paymentAmount = paymentAmount;\r\n        a.lastTimeUpdated = block.timestamp;\r\n        a.initTime = block.timestamp;\r\n        a.bestBidId = 0;\r\n        return auctionID;\r\n    }\r\n\r\n    function makeBid(uint256 auctionId, uint256 bidAmount) external returns (uint256 bidId){\r\n        auctionEntity storage a = auctions[auctionId];\r\n        require(a.initialized&&!a.finalized, \"auctionId is wrong or it is already finished\");\r\n\r\n        if (a.bestBidId!=0){\r\n            Bid storage bestBid = bids[a.bestBidId];\r\n            if (a.lotToken == dao.addresses('stableCoin') || a.lotToken == dao.addresses('weth'))\r\n                require(bidAmount>0 && bestBid.bidAmount*(100+dao.params('minAuctionPriceMove'))/100<=bidAmount, \"your bid is not high enough\");\r\n            if (a.lotToken == dao.addresses('rule'))\r\n                require(bidAmount>0 && bestBid.bidAmount*(100-dao.params('minAuctionPriceMove'))/100>=bidAmount, \"your bid is not low enough\");\r\n        }\r\n        require(bidAmount>0, \"your bid is not high enough\");\r\n        IERC20 paymentToken = IERC20(address(a.paymentToken));\r\n        if (a.lotToken == dao.addresses('rule')){\r\n            require(bidAmount<=rule.totalSupply()*dao.params('maxRuleEmissionPercent')/100, \"too many rules for one emission\");\r\n            require(paymentToken.transferFrom(msg.sender, address(this), a.paymentAmount), \"You should first approve stableCoins to auction contract address\");\r\n        }\r\n        else\r\n            require(paymentToken.transferFrom(msg.sender, address(this), bidAmount), \"You should first approve bidAmount to auction contract address\");\r\n\r\n        bidId = ++bidsNum;\r\n        Bid storage b = bids[bidId];\r\n        b.owner = msg.sender;\r\n        b.auctionID = auctionId;\r\n        b.bidAmount = bidAmount;\r\n        b.time = block.timestamp;\r\n        b.canceled = false;\r\n\r\n        a.bestBidId = bidId;\r\n        a.lastTimeUpdated = block.timestamp;\r\n        emit newBid(auctionId, bidId, bidAmount, b.owner);\r\n        return bidId;\r\n    }\r\n\r\n    function improveBid(uint256 bidId, uint256 newBidAmount) external{\r\n        Bid storage b = bids[bidId];\r\n        require(b.owner == msg.sender, \"You may improve only your personal bids\");\r\n        auctionEntity storage a = auctions[b.auctionID];\r\n        require(a.initialized&&!a.finalized, \"auctionId is wrong or it is already finished\");\r\n        Bid storage bestBid = bids[a.bestBidId];\r\n\r\n        if (a.lotToken == dao.addresses('stableCoin') || a.lotToken == dao.addresses('weth'))\r\n            require(newBidAmount>0 && bestBid.bidAmount*(100+dao.params('minAuctionPriceMove'))/100<=newBidAmount, \"your bid is not high enough\");\r\n        if (a.lotToken == dao.addresses('rule'))\r\n            require(newBidAmount>0 && bestBid.bidAmount*(100-dao.params('minAuctionPriceMove'))/100>=newBidAmount, \"your bid is not high enough\");\r\n\r\n        IERC20 paymentToken = IERC20(address(a.paymentToken));\r\n\r\n        if (a.lotToken == dao.addresses('stableCoin') || a.lotToken == dao.addresses('weth')){\r\n            uint256 difference = newBidAmount-b.bidAmount;\r\n            require(paymentToken.transferFrom(msg.sender, address(this), difference), \"You should first approve payment to auction contract address\");\r\n        }\r\n\r\n        b.bidAmount = newBidAmount;\r\n        a.lastTimeUpdated = block.timestamp;\r\n        a.bestBidId = bidId;\r\n        emit newBid(b.auctionID, bidId, newBidAmount, b.owner);\r\n    }\r\n\r\n    function cancelBid(uint256 bidId) external{\r\n        Bid storage b = bids[bidId];\r\n        require (b.owner==msg.sender && !b.canceled, \"Only bid owner may cancel it, if it wasn't canceled earlier\");\r\n        auctionEntity storage a = auctions[b.auctionID];\r\n        require(a.initialized, \"the bid is made on non-existent auction\");\r\n        require(a.bestBidId!=bidId, \"You can not cancel a bid if it is a best one\");\r\n        IERC20 paymentToken = IERC20(address(a.paymentToken));\r\n        if (a.lotToken == dao.addresses('rule'))\r\n            require(paymentToken.transfer(b.owner, a.paymentAmount), \"we were not able to transfer your bid back\");\r\n        else\r\n            require(paymentToken.transfer(b.owner, b.bidAmount), \"we were not able to transfer your bid back\");\r\n        emit bidCanceled(bidId);\r\n        b.canceled = true;\r\n    }\r\n\r\n    function claimToFinalizeAuction(uint256 auctionID) external returns (bool success){\r\n        auctionEntity storage a = auctions[auctionID];\r\n        if (a.isMarginCall)\r\n            require (msg.sender == dao.addresses('cdp'), \"Only CDP contract may finish this auction. Please, use finishMarginCall method.\");\r\n\r\n        require(a.initialized && !a.finalized, \"the auction is finished or non-existent\");\r\n        require(block.timestamp-a.lastTimeUpdated>=dao.params('auctionTurnDuration'), \"it is too early to finalize, wait a bit\");\r\n        require(a.bestBidId!=0 && a.initTime!=a.lastTimeUpdated, \"there should be at least one bid\");\r\n\r\n        finalizeAuction(auctionID);\r\n        return true;\r\n    }\r\n\r\n    function finalizeAuction(uint256 auctionID) internal {\r\n        auctionEntity storage a = auctions[auctionID];\r\n        Bid storage bestBid = bids[a.bestBidId];\r\n\r\n        if (a.lotToken == dao.addresses('stableCoin')){\r\n            require(IERC20(address(a.lotToken)).transfer(bestBid.owner, a.lotAmount), \"lotToken transfer failed for some reason\");\r\n            require(IERC20(address(a.paymentToken)).transfer(dao.addresses('cdp'), bestBid.bidAmount), \"paymentToken transfer failed for some reason\");\r\n            ruleBuyOut = false;\r\n            emit buyOutFinished(auctionID, a.lotAmount, bestBid.bidAmount);\r\n        }\r\n        if (a.lotToken == dao.addresses('rule')){\r\n            require(cdp.mintRule(bestBid.owner, bestBid.bidAmount), \"could not mint rule\");\r\n            require(coin.transfer(dao.addresses('cdp'), a.paymentAmount), \"could not transfer coins\");\r\n            isCoinsBuyOutForStabilization = false;\r\n        }\r\n        if (a.lotToken == dao.addresses('weth')){\r\n            require(IERC20(address(a.lotToken)).transfer(bestBid.owner, a.lotAmount));\r\n            require(IERC20(address(a.paymentToken)).transfer(dao.addresses('cdp'), bestBid.bidAmount));\r\n            emit buyOutFinished(auctionID, a.lotAmount, bestBid.bidAmount);\r\n        }\r\n        a.finalized = true;\r\n    }\r\n\r\n    function isFinalized(uint256 auctionId) external view returns (bool finalized){\r\n        return auctions[auctionId].finalized;\r\n    }\r\n\r\n    function getPaymentAmount(uint256 auctionID) external view returns (uint256){\r\n        return auctions[auctionID].paymentAmount;\r\n    }\r\n\r\n    function getBestBidAmount(uint256 auctionID) external view returns (uint256){\r\n        return bids[auctions[auctionID].bestBidId].bidAmount;\r\n    }\r\n}\r\n",
  "sourcePath": "C:\\Users\\d.nagornykh\\YandexDisk\\\\ICO\\CryptoFiat\\repo\\contracts\\Auction.sol",
  "compiler": {
    "name": "solc",
    "version": "0.8.18+commit.87f61d96.Emscripten.clang"
  },
  "schemaVersion": "3.4.14",
  "updatedAt": "2023-09-22T07:52:06.943Z",
  "devdoc": {
    "kind": "dev",
    "methods": {},
    "version": 1
  },
  "userdoc": {
    "kind": "user",
    "methods": {},
    "version": 1
  }
}