{
  "contractName": "Auction",
  "abi": [
    {
      "inputs": [
        {
          "internalType": "address payable",
          "name": "_INTDAOaddress",
          "type": "address"
        }
      ],
      "stateMutability": "nonpayable",
      "type": "constructor"
    },
    {
      "anonymous": false,
      "inputs": [
        {
          "indexed": false,
          "internalType": "uint256",
          "name": "bidId",
          "type": "uint256"
        }
      ],
      "name": "bidCanceled",
      "type": "event"
    },
    {
      "anonymous": false,
      "inputs": [
        {
          "indexed": false,
          "internalType": "uint256",
          "name": "auctionID",
          "type": "uint256"
        },
        {
          "indexed": false,
          "internalType": "uint256",
          "name": "lotAmount",
          "type": "uint256"
        },
        {
          "indexed": false,
          "internalType": "uint256",
          "name": "bestBid",
          "type": "uint256"
        }
      ],
      "name": "buyOutFinished",
      "type": "event"
    },
    {
      "anonymous": false,
      "inputs": [
        {
          "indexed": false,
          "internalType": "uint256",
          "name": "auctionID",
          "type": "uint256"
        },
        {
          "indexed": false,
          "internalType": "uint256",
          "name": "lotAmount",
          "type": "uint256"
        },
        {
          "indexed": false,
          "internalType": "address",
          "name": "lotAddress",
          "type": "address"
        }
      ],
      "name": "buyOutInit",
      "type": "event"
    },
    {
      "anonymous": false,
      "inputs": [
        {
          "indexed": false,
          "internalType": "uint256",
          "name": "auctionID",
          "type": "uint256"
        },
        {
          "indexed": false,
          "internalType": "uint256",
          "name": "posID",
          "type": "uint256"
        },
        {
          "indexed": false,
          "internalType": "uint256",
          "name": "liquidateColleteral",
          "type": "uint256"
        }
      ],
      "name": "liquidateCollateral",
      "type": "event"
    },
    {
      "anonymous": false,
      "inputs": [
        {
          "indexed": false,
          "internalType": "uint256",
          "name": "auctionID",
          "type": "uint256"
        },
        {
          "indexed": false,
          "internalType": "uint256",
          "name": "bidId",
          "type": "uint256"
        },
        {
          "indexed": false,
          "internalType": "uint256",
          "name": "bidAmount",
          "type": "uint256"
        },
        {
          "indexed": false,
          "internalType": "address",
          "name": "owner",
          "type": "address"
        }
      ],
      "name": "newBid",
      "type": "event"
    },
    {
      "inputs": [],
      "name": "auctionNum",
      "outputs": [
        {
          "internalType": "uint256",
          "name": "",
          "type": "uint256"
        }
      ],
      "stateMutability": "view",
      "type": "function",
      "constant": true
    },
    {
      "inputs": [
        {
          "internalType": "uint256",
          "name": "",
          "type": "uint256"
        }
      ],
      "name": "auctions",
      "outputs": [
        {
          "internalType": "bool",
          "name": "initialized",
          "type": "bool"
        },
        {
          "internalType": "bool",
          "name": "finalized",
          "type": "bool"
        },
        {
          "internalType": "address",
          "name": "lotToken",
          "type": "address"
        },
        {
          "internalType": "uint256",
          "name": "lotAmount",
          "type": "uint256"
        },
        {
          "internalType": "address",
          "name": "paymentToken",
          "type": "address"
        },
        {
          "internalType": "uint256",
          "name": "paymentAmount",
          "type": "uint256"
        },
        {
          "internalType": "uint256",
          "name": "initTime",
          "type": "uint256"
        },
        {
          "internalType": "uint256",
          "name": "lastTimeUpdated",
          "type": "uint256"
        },
        {
          "internalType": "uint256",
          "name": "bestBidId",
          "type": "uint256"
        }
      ],
      "stateMutability": "view",
      "type": "function",
      "constant": true
    },
    {
      "inputs": [
        {
          "internalType": "uint256",
          "name": "",
          "type": "uint256"
        }
      ],
      "name": "bids",
      "outputs": [
        {
          "internalType": "address",
          "name": "owner",
          "type": "address"
        },
        {
          "internalType": "uint256",
          "name": "auctionID",
          "type": "uint256"
        },
        {
          "internalType": "uint256",
          "name": "bidAmount",
          "type": "uint256"
        },
        {
          "internalType": "uint256",
          "name": "time",
          "type": "uint256"
        },
        {
          "internalType": "bool",
          "name": "canceled",
          "type": "bool"
        }
      ],
      "stateMutability": "view",
      "type": "function",
      "constant": true
    },
    {
      "inputs": [],
      "name": "bidsNum",
      "outputs": [
        {
          "internalType": "uint256",
          "name": "",
          "type": "uint256"
        }
      ],
      "stateMutability": "view",
      "type": "function",
      "constant": true
    },
    {
      "stateMutability": "payable",
      "type": "receive",
      "payable": true
    },
    {
      "inputs": [],
      "name": "renewContracts",
      "outputs": [],
      "stateMutability": "nonpayable",
      "type": "function"
    },
    {
      "inputs": [],
      "name": "initRuleBuyOut",
      "outputs": [
        {
          "internalType": "uint256",
          "name": "auctionID",
          "type": "uint256"
        }
      ],
      "stateMutability": "nonpayable",
      "type": "function"
    },
    {
      "inputs": [
        {
          "internalType": "uint256",
          "name": "auctionID",
          "type": "uint256"
        }
      ],
      "name": "getBestBidAmount",
      "outputs": [
        {
          "internalType": "uint256",
          "name": "",
          "type": "uint256"
        }
      ],
      "stateMutability": "view",
      "type": "function",
      "constant": true
    },
    {
      "inputs": [
        {
          "internalType": "uint256",
          "name": "coinsAmountNeeded",
          "type": "uint256"
        }
      ],
      "name": "initCoinsBuyOutForStabilization",
      "outputs": [
        {
          "internalType": "uint256",
          "name": "auctionID",
          "type": "uint256"
        }
      ],
      "stateMutability": "nonpayable",
      "type": "function"
    },
    {
      "inputs": [
        {
          "internalType": "uint256",
          "name": "posID",
          "type": "uint256"
        }
      ],
      "name": "initCoinsBuyOut",
      "outputs": [
        {
          "internalType": "uint256",
          "name": "auctionID",
          "type": "uint256"
        }
      ],
      "stateMutability": "nonpayable",
      "type": "function"
    },
    {
      "inputs": [
        {
          "internalType": "uint256",
          "name": "auctionId",
          "type": "uint256"
        },
        {
          "internalType": "uint256",
          "name": "bidAmount",
          "type": "uint256"
        }
      ],
      "name": "makeBid",
      "outputs": [],
      "stateMutability": "nonpayable",
      "type": "function"
    },
    {
      "inputs": [
        {
          "internalType": "uint256",
          "name": "bidId",
          "type": "uint256"
        },
        {
          "internalType": "uint256",
          "name": "newBidAmount",
          "type": "uint256"
        }
      ],
      "name": "improveBid",
      "outputs": [],
      "stateMutability": "nonpayable",
      "type": "function"
    },
    {
      "inputs": [
        {
          "internalType": "uint256",
          "name": "bidId",
          "type": "uint256"
        }
      ],
      "name": "cancelBid",
      "outputs": [],
      "stateMutability": "nonpayable",
      "type": "function"
    },
    {
      "inputs": [
        {
          "internalType": "uint256",
          "name": "auctionId",
          "type": "uint256"
        }
      ],
      "name": "claimToFinalizeAuction",
      "outputs": [
        {
          "internalType": "bool",
          "name": "success",
          "type": "bool"
        }
      ],
      "stateMutability": "nonpayable",
      "type": "function"
    }
  ],
  "bytecode": "0x60806040523480156200001157600080fd5b5060405162005a2d38038062005a2d833981810160405281019062000037919062000338565b80600360006101000a81548173ffffffffffffffffffffffffffffffffffffffff021916908373ffffffffffffffffffffffffffffffffffffffff160217905550600360009054906101000a900473ffffffffffffffffffffffffffffffffffffffff1673ffffffffffffffffffffffffffffffffffffffff16632abdf04e306040518263ffffffff1660e01b8152600401620000d59190620003dc565b600060405180830381600087803b158015620000f057600080fd5b505af115801562000105573d6000803e3d6000fd5b50505050600360009054906101000a900473ffffffffffffffffffffffffffffffffffffffff1673ffffffffffffffffffffffffffffffffffffffff1663bdfe7d476040518163ffffffff1660e01b815260040162000164906200045e565b602060405180830381865afa15801562000182573d6000803e3d6000fd5b505050506040513d601f19601f82011682018060405250810190620001a8919062000338565b600460006101000a81548173ffffffffffffffffffffffffffffffffffffffff021916908373ffffffffffffffffffffffffffffffffffffffff160217905550600360009054906101000a900473ffffffffffffffffffffffffffffffffffffffff1673ffffffffffffffffffffffffffffffffffffffff1663bdfe7d476040518163ffffffff1660e01b81526004016200024390620004d0565b602060405180830381865afa15801562000261573d6000803e3d6000fd5b505050506040513d601f19601f8201168201806040525081019062000287919062000338565b600260006101000a81548173ffffffffffffffffffffffffffffffffffffffff021916908373ffffffffffffffffffffffffffffffffffffffff16021790555050620004f2565b600080fd5b600073ffffffffffffffffffffffffffffffffffffffff82169050919050565b60006200030082620002d3565b9050919050565b6200031281620002f3565b81146200031e57600080fd5b50565b600081519050620003328162000307565b92915050565b600060208284031215620003515762000350620002ce565b5b6000620003618482850162000321565b91505092915050565b600082825260208201905092915050565b7f61756374696f6e00000000000000000000000000000000000000000000000000600082015250565b6000620003b36007836200036a565b9150620003c0826200037b565b602082019050919050565b620003d681620002f3565b82525050565b60006040820190508181036000830152620003f781620003a4565b9050620004086020830184620003cb565b92915050565b7f6364700000000000000000000000000000000000000000000000000000000000600082015250565b6000620004466003836200036a565b915062000453826200040e565b602082019050919050565b60006020820190508181036000830152620004798162000437565b9050919050565b7f737461626c65436f696e00000000000000000000000000000000000000000000600082015250565b6000620004b8600a836200036a565b9150620004c58262000480565b602082019050919050565b60006020820190508181036000830152620004eb81620004a9565b9050919050565b61552b80620005026000396000f3fe6080604052600436106100c65760003560e01c806365d089a81161007f5780639703ef35116100595780639703ef3514610385578063adfcdc11146103ae578063e2a89c0c146103d7578063f85badde14610402576101ad565b806365d089a8146102e05780637343950a1461031d57806383b1e1f21461035a576101ad565b806303ad0a01146101b257806323d86a65146101db578063378096c0146101f25780634423c5f11461021d578063571a26a01461025e5780635ff48900146102a3576101ad565b366101ad57600360009054906101000a900473ffffffffffffffffffffffffffffffffffffffff1673ffffffffffffffffffffffffffffffffffffffff1663bdfe7d476040518163ffffffff1660e01b815260040161012490614010565b602060405180830381865afa158015610141573d6000803e3d6000fd5b505050506040513d601f19601f820116820180604052508101906101659190614093565b73ffffffffffffffffffffffffffffffffffffffff166108fc479081150290604051600060405180830381858888f193505050501580156101aa573d6000803e3d6000fd5b50005b600080fd5b3480156101be57600080fd5b506101d960048036038101906101d491906140f6565b61043f565b005b3480156101e757600080fd5b506101f0610de9565b005b3480156101fe57600080fd5b50610207610f9f565b6040516102149190614145565b60405180910390f35b34801561022957600080fd5b50610244600480360381019061023f9190614160565b610fa5565b6040516102559594939291906141c9565b60405180910390f35b34801561026a57600080fd5b5061028560048036038101906102809190614160565b611008565b60405161029a9998979695949392919061421c565b60405180910390f35b3480156102af57600080fd5b506102ca60048036038101906102c59190614160565b6110b0565b6040516102d79190614145565b60405180910390f35b3480156102ec57600080fd5b5061030760048036038101906103029190614160565b6116ac565b6040516103149190614145565b60405180910390f35b34801561032957600080fd5b50610344600480360381019061033f9190614160565b611705565b60405161035191906142a9565b60405180910390f35b34801561036657600080fd5b5061036f6125c8565b60405161037c9190614145565b60405180910390f35b34801561039157600080fd5b506103ac60048036038101906103a79190614160565b612b2c565b005b3480156103ba57600080fd5b506103d560048036038101906103d091906140f6565b6130db565b005b3480156103e357600080fd5b506103ec613a87565b6040516103f99190614145565b60405180910390f35b34801561040e57600080fd5b5061042960048036038101906104249190614160565b613a8d565b6040516104369190614145565b60405180910390f35b60006006600084815260200190815260200160002090503373ffffffffffffffffffffffffffffffffffffffff168160000160009054906101000a900473ffffffffffffffffffffffffffffffffffffffff1673ffffffffffffffffffffffffffffffffffffffff16146104e8576040517f08c379a00000000000000000000000000000000000000000000000000000000081526004016104df90614336565b60405180910390fd5b6000600560008360010154815260200190815260200160002090508060000160009054906101000a900460ff16801561053057508060000160019054906101000a900460ff16155b61056f576040517f08c379a0000000000000000000000000000000000000000000000000000000008152600401610566906143c8565b60405180910390fd5b600060066000836006015481526020019081526020016000209050600360009054906101000a900473ffffffffffffffffffffffffffffffffffffffff1673ffffffffffffffffffffffffffffffffffffffff1663bdfe7d476040518163ffffffff1660e01b81526004016105e390614434565b602060405180830381865afa158015610600573d6000803e3d6000fd5b505050506040513d601f19601f820116820180604052508101906106249190614093565b73ffffffffffffffffffffffffffffffffffffffff168260000160029054906101000a900473ffffffffffffffffffffffffffffffffffffffff1673ffffffffffffffffffffffffffffffffffffffff1614806107695750600360009054906101000a900473ffffffffffffffffffffffffffffffffffffffff1673ffffffffffffffffffffffffffffffffffffffff1663bdfe7d476040518163ffffffff1660e01b81526004016106d5906144a0565b602060405180830381865afa1580156106f2573d6000803e3d6000fd5b505050506040513d601f19601f820116820180604052508101906107169190614093565b73ffffffffffffffffffffffffffffffffffffffff168260000160029054906101000a900473ffffffffffffffffffffffffffffffffffffffff1673ffffffffffffffffffffffffffffffffffffffff16145b1561087e5760008411801561083e5750836064600360009054906101000a900473ffffffffffffffffffffffffffffffffffffffff1673ffffffffffffffffffffffffffffffffffffffff1663145f822b6040518163ffffffff1660e01b81526004016107d59061450c565b602060405180830381865afa1580156107f2573d6000803e3d6000fd5b505050506040513d601f19601f820116820180604052508101906108169190614541565b6064610822919061459d565b836002015461083191906145f3565b61083b919061467c565b11155b61087d576040517f08c379a0000000000000000000000000000000000000000000000000000000008152600401610874906146f9565b60405180910390fd5b5b600360009054906101000a900473ffffffffffffffffffffffffffffffffffffffff1673ffffffffffffffffffffffffffffffffffffffff1663bdfe7d476040518163ffffffff1660e01b81526004016108d790614765565b602060405180830381865afa1580156108f4573d6000803e3d6000fd5b505050506040513d601f19601f820116820180604052508101906109189190614093565b73ffffffffffffffffffffffffffffffffffffffff168260000160029054906101000a900473ffffffffffffffffffffffffffffffffffffffff1673ffffffffffffffffffffffffffffffffffffffff161415610a7f57600084118015610a3f5750836064600360009054906101000a900473ffffffffffffffffffffffffffffffffffffffff1673ffffffffffffffffffffffffffffffffffffffff1663145f822b6040518163ffffffff1660e01b81526004016109d69061450c565b602060405180830381865afa1580156109f3573d6000803e3d6000fd5b505050506040513d601f19601f82011682018060405250810190610a179190614541565b6064610a239190614785565b8360020154610a3291906145f3565b610a3c919061467c565b10155b610a7e576040517f08c379a0000000000000000000000000000000000000000000000000000000008152600401610a75906146f9565b60405180910390fd5b5b60008260020160009054906101000a900473ffffffffffffffffffffffffffffffffffffffff169050600360009054906101000a900473ffffffffffffffffffffffffffffffffffffffff1673ffffffffffffffffffffffffffffffffffffffff1663bdfe7d476040518163ffffffff1660e01b8152600401610b0190614434565b602060405180830381865afa158015610b1e573d6000803e3d6000fd5b505050506040513d601f19601f82011682018060405250810190610b429190614093565b73ffffffffffffffffffffffffffffffffffffffff168360000160029054906101000a900473ffffffffffffffffffffffffffffffffffffffff1673ffffffffffffffffffffffffffffffffffffffff161480610c875750600360009054906101000a900473ffffffffffffffffffffffffffffffffffffffff1673ffffffffffffffffffffffffffffffffffffffff1663bdfe7d476040518163ffffffff1660e01b8152600401610bf3906144a0565b602060405180830381865afa158015610c10573d6000803e3d6000fd5b505050506040513d601f19601f82011682018060405250810190610c349190614093565b73ffffffffffffffffffffffffffffffffffffffff168360000160029054906101000a900473ffffffffffffffffffffffffffffffffffffffff1673ffffffffffffffffffffffffffffffffffffffff16145b15610d61576000846002015486610c9e9190614785565b90508173ffffffffffffffffffffffffffffffffffffffff166323b872dd3330846040518463ffffffff1660e01b8152600401610cdd939291906147b9565b6020604051808303816000875af1158015610cfc573d6000803e3d6000fd5b505050506040513d601f19601f82011682018060405250810190610d20919061481c565b610d5f576040517f08c379a0000000000000000000000000000000000000000000000000000000008152600401610d56906148bb565b60405180910390fd5b505b8484600201819055504283600501819055508583600601819055507ffec53f788c9ef6de6841d61017cbcd768a3dbd9dd7cac7b45d42de5589b0a5d7846001015487878760000160009054906101000a900473ffffffffffffffffffffffffffffffffffffffff16604051610dd994939291906148db565b60405180910390a1505050505050565b600360009054906101000a900473ffffffffffffffffffffffffffffffffffffffff1673ffffffffffffffffffffffffffffffffffffffff1663bdfe7d476040518163ffffffff1660e01b8152600401610e4290614434565b602060405180830381865afa158015610e5f573d6000803e3d6000fd5b505050506040513d601f19601f82011682018060405250810190610e839190614093565b600260006101000a81548173ffffffffffffffffffffffffffffffffffffffff021916908373ffffffffffffffffffffffffffffffffffffffff160217905550600360009054906101000a900473ffffffffffffffffffffffffffffffffffffffff1673ffffffffffffffffffffffffffffffffffffffff1663bdfe7d476040518163ffffffff1660e01b8152600401610f1c9061496c565b602060405180830381865afa158015610f39573d6000803e3d6000fd5b505050506040513d601f19601f82011682018060405250810190610f5d9190614093565b600460006101000a81548173ffffffffffffffffffffffffffffffffffffffff021916908373ffffffffffffffffffffffffffffffffffffffff160217905550565b60015481565b60066020528060005260406000206000915090508060000160009054906101000a900473ffffffffffffffffffffffffffffffffffffffff16908060010154908060020154908060030154908060040160009054906101000a900460ff16905085565b60056020528060005260406000206000915090508060000160009054906101000a900460ff16908060000160019054906101000a900460ff16908060000160029054906101000a900473ffffffffffffffffffffffffffffffffffffffff16908060010154908060020160009054906101000a900473ffffffffffffffffffffffffffffffffffffffff16908060030154908060040154908060050154908060060154905089565b6000600460009054906101000a900473ffffffffffffffffffffffffffffffffffffffff1673ffffffffffffffffffffffffffffffffffffffff1663776879e5836040518263ffffffff1660e01b815260040161110d9190614145565b602060405180830381865afa15801561112a573d6000803e3d6000fd5b505050506040513d601f19601f8201168201806040525081019061114e919061481c565b61118d576040517f08c379a0000000000000000000000000000000000000000000000000000000008152600401611184906149d8565b60405180910390fd5b6000600360009054906101000a900473ffffffffffffffffffffffffffffffffffffffff1673ffffffffffffffffffffffffffffffffffffffff1663bdfe7d476040518163ffffffff1660e01b81526004016111e8906144a0565b602060405180830381865afa158015611205573d6000803e3d6000fd5b505050506040513d601f19601f820116820180604052508101906112299190614093565b90506000600460009054906101000a900473ffffffffffffffffffffffffffffffffffffffff1673ffffffffffffffffffffffffffffffffffffffff1663d4ddc1a7856040518263ffffffff1660e01b81526004016112889190614145565b602060405180830381865afa1580156112a5573d6000803e3d6000fd5b505050506040513d601f19601f820116820180604052508101906112c99190614541565b90508173ffffffffffffffffffffffffffffffffffffffff166323b872dd600360009054906101000a900473ffffffffffffffffffffffffffffffffffffffff1673ffffffffffffffffffffffffffffffffffffffff1663bdfe7d476040518163ffffffff1660e01b81526004016113409061496c565b602060405180830381865afa15801561135d573d6000803e3d6000fd5b505050506040513d601f19601f820116820180604052508101906113819190614093565b30846040518463ffffffff1660e01b81526004016113a193929190614a57565b6020604051808303816000875af11580156113c0573d6000803e3d6000fd5b505050506040513d601f19601f820116820180604052508101906113e4919061481c565b611423576040517f08c379a000000000000000000000000000000000000000000000000000000000815260040161141a90614b00565b60405180910390fd5b60008081548092919061143590614b20565b919050559250600060056000858152602001908152602001600020905060018160000160006101000a81548160ff02191690831515021790555060008160000160016101000a81548160ff021916908315150217905550600360009054906101000a900473ffffffffffffffffffffffffffffffffffffffff1673ffffffffffffffffffffffffffffffffffffffff1663bdfe7d476040518163ffffffff1660e01b81526004016114e5906144a0565b602060405180830381865afa158015611502573d6000803e3d6000fd5b505050506040513d601f19601f820116820180604052508101906115269190614093565b8160000160026101000a81548173ffffffffffffffffffffffffffffffffffffffff021916908373ffffffffffffffffffffffffffffffffffffffff160217905550818160010181905550600360009054906101000a900473ffffffffffffffffffffffffffffffffffffffff1673ffffffffffffffffffffffffffffffffffffffff1663bdfe7d476040518163ffffffff1660e01b81526004016115ca90614434565b602060405180830381865afa1580156115e7573d6000803e3d6000fd5b505050506040513d601f19601f8201168201806040525081019061160b9190614093565b8160020160006101000a81548173ffffffffffffffffffffffffffffffffffffffff021916908373ffffffffffffffffffffffffffffffffffffffff160217905550428160050181905550428160040181905550600081600601819055507f082844962cf5145347cebd63a315279825bc23fed895630911764ad520ffea2584868460405161169c93929190614b69565b60405180910390a1505050919050565b6000806005600084815260200190815260200160002090506000816006015411156116fa57600060066000836006015481526020019081526020016000209050806002015492505050611700565b60009150505b919050565b6000806005600084815260200190815260200160002090508060000160009054906101000a900460ff16801561174a57508060000160019054906101000a900460ff16155b611789576040517f08c379a000000000000000000000000000000000000000000000000000000000815260040161178090614c12565b60405180910390fd5b600360009054906101000a900473ffffffffffffffffffffffffffffffffffffffff1673ffffffffffffffffffffffffffffffffffffffff1663145f822b6040518163ffffffff1660e01b81526004016117e290614c7e565b602060405180830381865afa1580156117ff573d6000803e3d6000fd5b505050506040513d601f19601f820116820180604052508101906118239190614541565b8160050154426118339190614785565b1015611874576040517f08c379a000000000000000000000000000000000000000000000000000000000815260040161186b90614d10565b60405180910390fd5b600081600601541415801561189157508060050154816004015414155b6118d0576040517f08c379a00000000000000000000000000000000000000000000000000000000081526004016118c790614d7c565b60405180910390fd5b60006006600083600601548152602001908152602001600020905060008260000160029054906101000a900473ffffffffffffffffffffffffffffffffffffffff16905060008360020160009054906101000a900473ffffffffffffffffffffffffffffffffffffffff169050600360009054906101000a900473ffffffffffffffffffffffffffffffffffffffff1673ffffffffffffffffffffffffffffffffffffffff1663bdfe7d476040518163ffffffff1660e01b815260040161199690614434565b602060405180830381865afa1580156119b3573d6000803e3d6000fd5b505050506040513d601f19601f820116820180604052508101906119d79190614093565b73ffffffffffffffffffffffffffffffffffffffff168460000160029054906101000a900473ffffffffffffffffffffffffffffffffffffffff1673ffffffffffffffffffffffffffffffffffffffff16148015611b1d5750600360009054906101000a900473ffffffffffffffffffffffffffffffffffffffff1673ffffffffffffffffffffffffffffffffffffffff1663bdfe7d476040518163ffffffff1660e01b8152600401611a8990614765565b602060405180830381865afa158015611aa6573d6000803e3d6000fd5b505050506040513d601f19601f82011682018060405250810190611aca9190614093565b73ffffffffffffffffffffffffffffffffffffffff168460020160009054906101000a900473ffffffffffffffffffffffffffffffffffffffff1673ffffffffffffffffffffffffffffffffffffffff16145b15611d39578173ffffffffffffffffffffffffffffffffffffffff1663a9059cbb8460000160009054906101000a900473ffffffffffffffffffffffffffffffffffffffff1686600101546040518363ffffffff1660e01b8152600401611b85929190614d9c565b6020604051808303816000875af1158015611ba4573d6000803e3d6000fd5b505050506040513d601f19601f82011682018060405250810190611bc8919061481c565b611bd157600080fd5b8073ffffffffffffffffffffffffffffffffffffffff1663a9059cbb600360009054906101000a900473ffffffffffffffffffffffffffffffffffffffff1673ffffffffffffffffffffffffffffffffffffffff1663bdfe7d476040518163ffffffff1660e01b8152600401611c469061496c565b602060405180830381865afa158015611c63573d6000803e3d6000fd5b505050506040513d601f19601f82011682018060405250810190611c879190614093565b85600201546040518363ffffffff1660e01b8152600401611ca9929190614dc5565b6020604051808303816000875af1158015611cc8573d6000803e3d6000fd5b505050506040513d601f19601f82011682018060405250810190611cec919061481c565b611cf557600080fd5b7f316f148f986c9d3880b02142d215ebfc51857506d0b21ab35f195689ce6d1ceb8685600101548560020154604051611d3093929190614b69565b60405180910390a15b600360009054906101000a900473ffffffffffffffffffffffffffffffffffffffff1673ffffffffffffffffffffffffffffffffffffffff1663bdfe7d476040518163ffffffff1660e01b8152600401611d9290614765565b602060405180830381865afa158015611daf573d6000803e3d6000fd5b505050506040513d601f19601f82011682018060405250810190611dd39190614093565b73ffffffffffffffffffffffffffffffffffffffff168460000160029054906101000a900473ffffffffffffffffffffffffffffffffffffffff1673ffffffffffffffffffffffffffffffffffffffff16148015611f195750600360009054906101000a900473ffffffffffffffffffffffffffffffffffffffff1673ffffffffffffffffffffffffffffffffffffffff1663bdfe7d476040518163ffffffff1660e01b8152600401611e8590614434565b602060405180830381865afa158015611ea2573d6000803e3d6000fd5b505050506040513d601f19601f82011682018060405250810190611ec69190614093565b73ffffffffffffffffffffffffffffffffffffffff168460020160009054906101000a900473ffffffffffffffffffffffffffffffffffffffff1673ffffffffffffffffffffffffffffffffffffffff16145b156121a257600460009054906101000a900473ffffffffffffffffffffffffffffffffffffffff1673ffffffffffffffffffffffffffffffffffffffff16630403dc098460000160009054906101000a900473ffffffffffffffffffffffffffffffffffffffff1685600201546040518363ffffffff1660e01b8152600401611fa3929190614d9c565b6020604051808303816000875af1158015611fc2573d6000803e3d6000fd5b505050506040513d601f19601f82011682018060405250810190611fe6919061481c565b612025576040517f08c379a000000000000000000000000000000000000000000000000000000000815260040161201c90614e3a565b60405180910390fd5b600260009054906101000a900473ffffffffffffffffffffffffffffffffffffffff1673ffffffffffffffffffffffffffffffffffffffff1663a9059cbb600360009054906101000a900473ffffffffffffffffffffffffffffffffffffffff1673ffffffffffffffffffffffffffffffffffffffff1663bdfe7d476040518163ffffffff1660e01b81526004016120bc9061496c565b602060405180830381865afa1580156120d9573d6000803e3d6000fd5b505050506040513d601f19601f820116820180604052508101906120fd9190614093565b86600301546040518363ffffffff1660e01b815260040161211f929190614dc5565b6020604051808303816000875af115801561213e573d6000803e3d6000fd5b505050506040513d601f19601f82011682018060405250810190612162919061481c565b6121a1576040517f08c379a000000000000000000000000000000000000000000000000000000000815260040161219890614ea6565b60405180910390fd5b5b600360009054906101000a900473ffffffffffffffffffffffffffffffffffffffff1673ffffffffffffffffffffffffffffffffffffffff1663bdfe7d476040518163ffffffff1660e01b81526004016121fb906144a0565b602060405180830381865afa158015612218573d6000803e3d6000fd5b505050506040513d601f19601f8201168201806040525081019061223c9190614093565b73ffffffffffffffffffffffffffffffffffffffff168460000160029054906101000a900473ffffffffffffffffffffffffffffffffffffffff1673ffffffffffffffffffffffffffffffffffffffff161480156123825750600360009054906101000a900473ffffffffffffffffffffffffffffffffffffffff1673ffffffffffffffffffffffffffffffffffffffff1663bdfe7d476040518163ffffffff1660e01b81526004016122ee90614434565b602060405180830381865afa15801561230b573d6000803e3d6000fd5b505050506040513d601f19601f8201168201806040525081019061232f9190614093565b73ffffffffffffffffffffffffffffffffffffffff168460020160009054906101000a900473ffffffffffffffffffffffffffffffffffffffff1673ffffffffffffffffffffffffffffffffffffffff16145b1561259e578173ffffffffffffffffffffffffffffffffffffffff1663a9059cbb8460000160009054906101000a900473ffffffffffffffffffffffffffffffffffffffff1686600101546040518363ffffffff1660e01b81526004016123ea929190614d9c565b6020604051808303816000875af1158015612409573d6000803e3d6000fd5b505050506040513d601f19601f8201168201806040525081019061242d919061481c565b61243657600080fd5b8073ffffffffffffffffffffffffffffffffffffffff1663a9059cbb600360009054906101000a900473ffffffffffffffffffffffffffffffffffffffff1673ffffffffffffffffffffffffffffffffffffffff1663bdfe7d476040518163ffffffff1660e01b81526004016124ab9061496c565b602060405180830381865afa1580156124c8573d6000803e3d6000fd5b505050506040513d601f19601f820116820180604052508101906124ec9190614093565b85600201546040518363ffffffff1660e01b815260040161250e929190614dc5565b6020604051808303816000875af115801561252d573d6000803e3d6000fd5b505050506040513d601f19601f82011682018060405250810190612551919061481c565b61255a57600080fd5b7f316f148f986c9d3880b02142d215ebfc51857506d0b21ab35f195689ce6d1ceb868560010154856002015460405161259593929190614b69565b60405180910390a15b60018460000160016101000a81548160ff0219169083151502179055506001945050505050919050565b600080600260009054906101000a900473ffffffffffffffffffffffffffffffffffffffff1673ffffffffffffffffffffffffffffffffffffffff1663dd62ed3e600360009054906101000a900473ffffffffffffffffffffffffffffffffffffffff1673ffffffffffffffffffffffffffffffffffffffff1663bdfe7d476040518163ffffffff1660e01b81526004016126629061496c565b602060405180830381865afa15801561267f573d6000803e3d6000fd5b505050506040513d601f19601f820116820180604052508101906126a39190614093565b306040518363ffffffff1660e01b81526004016126c1929190614ec6565b602060405180830381865afa1580156126de573d6000803e3d6000fd5b505050506040513d601f19601f820116820180604052508101906127029190614541565b9050600260009054906101000a900473ffffffffffffffffffffffffffffffffffffffff1673ffffffffffffffffffffffffffffffffffffffff166323b872dd600360009054906101000a900473ffffffffffffffffffffffffffffffffffffffff1673ffffffffffffffffffffffffffffffffffffffff1663bdfe7d476040518163ffffffff1660e01b815260040161279b9061496c565b602060405180830381865afa1580156127b8573d6000803e3d6000fd5b505050506040513d601f19601f820116820180604052508101906127dc9190614093565b30846040518463ffffffff1660e01b81526004016127fc93929190614a57565b6020604051808303816000875af115801561281b573d6000803e3d6000fd5b505050506040513d601f19601f8201168201806040525081019061283f919061481c565b61287e576040517f08c379a000000000000000000000000000000000000000000000000000000000815260040161287590614f61565b60405180910390fd5b60008081548092919061289090614b20565b919050559150600060056000848152602001908152602001600020905060018160000160006101000a81548160ff02191690831515021790555060008160000160016101000a81548160ff021916908315150217905550600360009054906101000a900473ffffffffffffffffffffffffffffffffffffffff1673ffffffffffffffffffffffffffffffffffffffff1663bdfe7d476040518163ffffffff1660e01b815260040161294090614434565b602060405180830381865afa15801561295d573d6000803e3d6000fd5b505050506040513d601f19601f820116820180604052508101906129819190614093565b8160000160026101000a81548173ffffffffffffffffffffffffffffffffffffffff021916908373ffffffffffffffffffffffffffffffffffffffff160217905550818160010181905550600360009054906101000a900473ffffffffffffffffffffffffffffffffffffffff1673ffffffffffffffffffffffffffffffffffffffff1663bdfe7d476040518163ffffffff1660e01b8152600401612a2590614765565b602060405180830381865afa158015612a42573d6000803e3d6000fd5b505050506040513d601f19601f82011682018060405250810190612a669190614093565b8160020160006101000a81548173ffffffffffffffffffffffffffffffffffffffff021916908373ffffffffffffffffffffffffffffffffffffffff160217905550428160050181905550428160040181905550600081600601819055507fdb8dd885380749a42d93685c4954d7dd30b146634d3e33f49620084ce98e4e8f8382600101548360000160029054906101000a900473ffffffffffffffffffffffffffffffffffffffff16604051612b1f93929190614f81565b60405180910390a1505090565b60006006600083815260200190815260200160002090503373ffffffffffffffffffffffffffffffffffffffff168160000160009054906101000a900473ffffffffffffffffffffffffffffffffffffffff1673ffffffffffffffffffffffffffffffffffffffff16148015612bb157508060040160009054906101000a900460ff16155b612bf0576040517f08c379a0000000000000000000000000000000000000000000000000000000008152600401612be79061502a565b60405180910390fd5b6000600560008360010154815260200190815260200160002090508060000160009054906101000a900460ff16612c5c576040517f08c379a0000000000000000000000000000000000000000000000000000000008152600401612c53906150bc565b60405180910390fd5b8281600601541415612ca3576040517f08c379a0000000000000000000000000000000000000000000000000000000008152600401612c9a9061514e565b60405180910390fd5b60008160020160009054906101000a900473ffffffffffffffffffffffffffffffffffffffff169050600360009054906101000a900473ffffffffffffffffffffffffffffffffffffffff1673ffffffffffffffffffffffffffffffffffffffff1663bdfe7d476040518163ffffffff1660e01b8152600401612d2590614765565b602060405180830381865afa158015612d42573d6000803e3d6000fd5b505050506040513d601f19601f82011682018060405250810190612d669190614093565b73ffffffffffffffffffffffffffffffffffffffff168260000160029054906101000a900473ffffffffffffffffffffffffffffffffffffffff1673ffffffffffffffffffffffffffffffffffffffff16148015612eac5750600360009054906101000a900473ffffffffffffffffffffffffffffffffffffffff1673ffffffffffffffffffffffffffffffffffffffff1663bdfe7d476040518163ffffffff1660e01b8152600401612e1890614434565b602060405180830381865afa158015612e35573d6000803e3d6000fd5b505050506040513d601f19601f82011682018060405250810190612e599190614093565b73ffffffffffffffffffffffffffffffffffffffff168260020160009054906101000a900473ffffffffffffffffffffffffffffffffffffffff1673ffffffffffffffffffffffffffffffffffffffff16145b15612f9b578073ffffffffffffffffffffffffffffffffffffffff1663a9059cbb8460000160009054906101000a900473ffffffffffffffffffffffffffffffffffffffff1684600301546040518363ffffffff1660e01b8152600401612f14929190614d9c565b6020604051808303816000875af1158015612f33573d6000803e3d6000fd5b505050506040513d601f19601f82011682018060405250810190612f57919061481c565b612f96576040517f08c379a0000000000000000000000000000000000000000000000000000000008152600401612f8d906151e0565b60405180910390fd5b613081565b8073ffffffffffffffffffffffffffffffffffffffff1663a9059cbb8460000160009054906101000a900473ffffffffffffffffffffffffffffffffffffffff1685600201546040518363ffffffff1660e01b8152600401612ffe929190614d9c565b6020604051808303816000875af115801561301d573d6000803e3d6000fd5b505050506040513d601f19601f82011682018060405250810190613041919061481c565b613080576040517f08c379a0000000000000000000000000000000000000000000000000000000008152600401613077906151e0565b60405180910390fd5b5b7ffac423451217205d5c65185b7a90cc7d957ec2dd791403d541d2c4460f9d8f37846040516130b09190614145565b60405180910390a160018360040160006101000a81548160ff02191690831515021790555050505050565b60006005600084815260200190815260200160002090508060000160009054906101000a900460ff16801561311f57508060000160019054906101000a900460ff16155b61315e576040517f08c379a0000000000000000000000000000000000000000000000000000000008152600401613155906143c8565b60405180910390fd5b600081600601541461367c57600060066000836006015481526020019081526020016000209050600360009054906101000a900473ffffffffffffffffffffffffffffffffffffffff1673ffffffffffffffffffffffffffffffffffffffff1663bdfe7d476040518163ffffffff1660e01b81526004016131de90614434565b602060405180830381865afa1580156131fb573d6000803e3d6000fd5b505050506040513d601f19601f8201168201806040525081019061321f9190614093565b73ffffffffffffffffffffffffffffffffffffffff168260000160029054906101000a900473ffffffffffffffffffffffffffffffffffffffff1673ffffffffffffffffffffffffffffffffffffffff1614806133645750600360009054906101000a900473ffffffffffffffffffffffffffffffffffffffff1673ffffffffffffffffffffffffffffffffffffffff1663bdfe7d476040518163ffffffff1660e01b81526004016132d0906144a0565b602060405180830381865afa1580156132ed573d6000803e3d6000fd5b505050506040513d601f19601f820116820180604052508101906133119190614093565b73ffffffffffffffffffffffffffffffffffffffff168260000160029054906101000a900473ffffffffffffffffffffffffffffffffffffffff1673ffffffffffffffffffffffffffffffffffffffff16145b15613479576000831180156134395750826064600360009054906101000a900473ffffffffffffffffffffffffffffffffffffffff1673ffffffffffffffffffffffffffffffffffffffff1663145f822b6040518163ffffffff1660e01b81526004016133d09061450c565b602060405180830381865afa1580156133ed573d6000803e3d6000fd5b505050506040513d601f19601f820116820180604052508101906134119190614541565b606461341d919061459d565b836002015461342c91906145f3565b613436919061467c565b11155b613478576040517f08c379a000000000000000000000000000000000000000000000000000000000815260040161346f906146f9565b60405180910390fd5b5b600360009054906101000a900473ffffffffffffffffffffffffffffffffffffffff1673ffffffffffffffffffffffffffffffffffffffff1663bdfe7d476040518163ffffffff1660e01b81526004016134d290614765565b602060405180830381865afa1580156134ef573d6000803e3d6000fd5b505050506040513d601f19601f820116820180604052508101906135139190614093565b73ffffffffffffffffffffffffffffffffffffffff168260000160029054906101000a900473ffffffffffffffffffffffffffffffffffffffff1673ffffffffffffffffffffffffffffffffffffffff16141561367a5760008311801561363a5750826064600360009054906101000a900473ffffffffffffffffffffffffffffffffffffffff1673ffffffffffffffffffffffffffffffffffffffff1663145f822b6040518163ffffffff1660e01b81526004016135d19061450c565b602060405180830381865afa1580156135ee573d6000803e3d6000fd5b505050506040513d601f19601f820116820180604052508101906136129190614541565b606461361e9190614785565b836002015461362d91906145f3565b613637919061467c565b10155b613679576040517f08c379a00000000000000000000000000000000000000000000000000000000081526004016136709061524c565b60405180910390fd5b5b505b600082116136bf576040517f08c379a00000000000000000000000000000000000000000000000000000000081526004016136b6906146f9565b60405180910390fd5b60008160020160009054906101000a900473ffffffffffffffffffffffffffffffffffffffff169050600360009054906101000a900473ffffffffffffffffffffffffffffffffffffffff1673ffffffffffffffffffffffffffffffffffffffff1663bdfe7d476040518163ffffffff1660e01b815260040161374190614765565b602060405180830381865afa15801561375e573d6000803e3d6000fd5b505050506040513d601f19601f820116820180604052508101906137829190614093565b73ffffffffffffffffffffffffffffffffffffffff168260000160029054906101000a900473ffffffffffffffffffffffffffffffffffffffff1673ffffffffffffffffffffffffffffffffffffffff1614156138a1578073ffffffffffffffffffffffffffffffffffffffff166323b872dd333085600301546040518463ffffffff1660e01b815260040161381a939291906147b9565b6020604051808303816000875af1158015613839573d6000803e3d6000fd5b505050506040513d601f19601f8201168201806040525081019061385d919061481c565b61389c576040517f08c379a0000000000000000000000000000000000000000000000000000000008152600401613893906152de565b60405180910390fd5b613961565b8073ffffffffffffffffffffffffffffffffffffffff166323b872dd3330866040518463ffffffff1660e01b81526004016138de939291906147b9565b6020604051808303816000875af11580156138fd573d6000803e3d6000fd5b505050506040513d601f19601f82011682018060405250810190613921919061481c565b613960576040517f08c379a000000000000000000000000000000000000000000000000000000000815260040161395790615370565b60405180910390fd5b5b600060016000815461397290614b20565b91905081905590506000600660008381526020019081526020016000209050338160000160006101000a81548173ffffffffffffffffffffffffffffffffffffffff021916908373ffffffffffffffffffffffffffffffffffffffff16021790555085816001018190555084816002018190555042816003018190555060008160040160006101000a81548160ff0219169083151502179055508184600601819055504284600501819055507ffec53f788c9ef6de6841d61017cbcd768a3dbd9dd7cac7b45d42de5589b0a5d78683878460000160009054906101000a900473ffffffffffffffffffffffffffffffffffffffff16604051613a7794939291906148db565b60405180910390a1505050505050565b60005481565b600080600260009054906101000a900473ffffffffffffffffffffffffffffffffffffffff1673ffffffffffffffffffffffffffffffffffffffff166370a08231600460009054906101000a900473ffffffffffffffffffffffffffffffffffffffff166040518263ffffffff1660e01b8152600401613b0d9190615390565b602060405180830381865afa158015613b2a573d6000803e3d6000fd5b505050506040513d601f19601f82011682018060405250810190613b4e9190614541565b905060006064600360009054906101000a900473ffffffffffffffffffffffffffffffffffffffff1673ffffffffffffffffffffffffffffffffffffffff1663145f822b6040518163ffffffff1660e01b8152600401613bad906153f7565b602060405180830381865afa158015613bca573d6000803e3d6000fd5b505050506040513d601f19601f82011682018060405250810190613bee9190614541565b600260009054906101000a900473ffffffffffffffffffffffffffffffffffffffff1673ffffffffffffffffffffffffffffffffffffffff166318160ddd6040518163ffffffff1660e01b8152600401602060405180830381865afa158015613c5b573d6000803e3d6000fd5b505050506040513d601f19601f82011682018060405250810190613c7f9190614541565b613c8991906145f3565b613c93919061467c565b9050600581613ca2919061467c565b8210613ce3576040517f08c379a0000000000000000000000000000000000000000000000000000000008152600401613cda90615463565b60405180910390fd5b8181613cef9190614785565b841115613d05578181613d029190614785565b93505b600080815480929190613d1790614b20565b919050559250600060056000858152602001908152602001600020905084816003018190555060018160000160006101000a81548160ff02191690831515021790555060008160000160016101000a81548160ff021916908315150217905550600360009054906101000a900473ffffffffffffffffffffffffffffffffffffffff1673ffffffffffffffffffffffffffffffffffffffff1663bdfe7d476040518163ffffffff1660e01b8152600401613dd090614765565b602060405180830381865afa158015613ded573d6000803e3d6000fd5b505050506040513d601f19601f82011682018060405250810190613e119190614093565b8160000160026101000a81548173ffffffffffffffffffffffffffffffffffffffff021916908373ffffffffffffffffffffffffffffffffffffffff160217905550600360009054906101000a900473ffffffffffffffffffffffffffffffffffffffff1673ffffffffffffffffffffffffffffffffffffffff1663bdfe7d476040518163ffffffff1660e01b8152600401613eac90614434565b602060405180830381865afa158015613ec9573d6000803e3d6000fd5b505050506040513d601f19601f82011682018060405250810190613eed9190614093565b8160020160006101000a81548173ffffffffffffffffffffffffffffffffffffffff021916908373ffffffffffffffffffffffffffffffffffffffff160217905550428160050181905550428160040181905550600081600601819055507fdb8dd885380749a42d93685c4954d7dd30b146634d3e33f49620084ce98e4e8f8460008360000160029054906101000a900473ffffffffffffffffffffffffffffffffffffffff16604051613fa3939291906154be565b60405180910390a1505050919050565b600082825260208201905092915050565b7f6f7261636c650000000000000000000000000000000000000000000000000000600082015250565b6000613ffa600683613fb3565b915061400582613fc4565b602082019050919050565b6000602082019050818103600083015261402981613fed565b9050919050565b600080fd5b600073ffffffffffffffffffffffffffffffffffffffff82169050919050565b600061406082614035565b9050919050565b61407081614055565b811461407b57600080fd5b50565b60008151905061408d81614067565b92915050565b6000602082840312156140a9576140a8614030565b5b60006140b78482850161407e565b91505092915050565b6000819050919050565b6140d3816140c0565b81146140de57600080fd5b50565b6000813590506140f0816140ca565b92915050565b6000806040838503121561410d5761410c614030565b5b600061411b858286016140e1565b925050602061412c858286016140e1565b9150509250929050565b61413f816140c0565b82525050565b600060208201905061415a6000830184614136565b92915050565b60006020828403121561417657614175614030565b5b6000614184848285016140e1565b91505092915050565b600061419882614035565b9050919050565b6141a88161418d565b82525050565b60008115159050919050565b6141c3816141ae565b82525050565b600060a0820190506141de600083018861419f565b6141eb6020830187614136565b6141f86040830186614136565b6142056060830185614136565b61421260808301846141ba565b9695505050505050565b600061012082019050614232600083018c6141ba565b61423f602083018b6141ba565b61424c604083018a61419f565b6142596060830189614136565b614266608083018861419f565b61427360a0830187614136565b61428060c0830186614136565b61428d60e0830185614136565b61429b610100830184614136565b9a9950505050505050505050565b60006020820190506142be60008301846141ba565b92915050565b7f596f75206d617920696d70726f7665206f6e6c7920796f757220706572736f6e60008201527f616c206269647300000000000000000000000000000000000000000000000000602082015250565b6000614320602783613fb3565b915061432b826142c4565b604082019050919050565b6000602082019050818103600083015261434f81614313565b9050919050565b7f61756374696f6e49642069732077726f6e67206f7220697420697320616c726560008201527f6164792066696e69736865640000000000000000000000000000000000000000602082015250565b60006143b2602c83613fb3565b91506143bd82614356565b604082019050919050565b600060208201905081810360008301526143e1816143a5565b9050919050565b7f737461626c65436f696e00000000000000000000000000000000000000000000600082015250565b600061441e600a83613fb3565b9150614429826143e8565b602082019050919050565b6000602082019050818103600083015261444d81614411565b9050919050565b7f7765746800000000000000000000000000000000000000000000000000000000600082015250565b600061448a600483613fb3565b915061449582614454565b602082019050919050565b600060208201905081810360008301526144b98161447d565b9050919050565b7f6d696e41756374696f6e50726963654d6f766500000000000000000000000000600082015250565b60006144f6601383613fb3565b9150614501826144c0565b602082019050919050565b60006020820190508181036000830152614525816144e9565b9050919050565b60008151905061453b816140ca565b92915050565b60006020828403121561455757614556614030565b5b60006145658482850161452c565b91505092915050565b7f4e487b7100000000000000000000000000000000000000000000000000000000600052601160045260246000fd5b60006145a8826140c0565b91506145b3836140c0565b9250827fffffffffffffffffffffffffffffffffffffffffffffffffffffffffffffffff038211156145e8576145e761456e565b5b828201905092915050565b60006145fe826140c0565b9150614609836140c0565b9250817fffffffffffffffffffffffffffffffffffffffffffffffffffffffffffffffff04831182151516156146425761464161456e565b5b828202905092915050565b7f4e487b7100000000000000000000000000000000000000000000000000000000600052601260045260246000fd5b6000614687826140c0565b9150614692836140c0565b9250826146a2576146a161464d565b5b828204905092915050565b7f796f757220626964206973206e6f74206869676820656e6f7567680000000000600082015250565b60006146e3601b83613fb3565b91506146ee826146ad565b602082019050919050565b60006020820190508181036000830152614712816146d6565b9050919050565b7f72756c6500000000000000000000000000000000000000000000000000000000600082015250565b600061474f600483613fb3565b915061475a82614719565b602082019050919050565b6000602082019050818103600083015261477e81614742565b9050919050565b6000614790826140c0565b915061479b836140c0565b9250828210156147ae576147ad61456e565b5b828203905092915050565b60006060820190506147ce600083018661419f565b6147db602083018561419f565b6147e86040830184614136565b949350505050565b6147f9816141ae565b811461480457600080fd5b50565b600081519050614816816147f0565b92915050565b60006020828403121561483257614831614030565b5b600061484084828501614807565b91505092915050565b7f596f752073686f756c6420666972737420617070726f7665207061796d656e7460008201527f20746f2061756374696f6e20636f6e7472616374206164647265737300000000602082015250565b60006148a5603c83613fb3565b91506148b082614849565b604082019050919050565b600060208201905081810360008301526148d481614898565b9050919050565b60006080820190506148f06000830187614136565b6148fd6020830186614136565b61490a6040830185614136565b614917606083018461419f565b95945050505050565b7f6364700000000000000000000000000000000000000000000000000000000000600082015250565b6000614956600383613fb3565b915061496182614920565b602082019050919050565b6000602082019050818103600083015261498581614949565b9050919050565b7f706f736974696f6e206973206e6f74206f6e206c69717569646174696f6e0000600082015250565b60006149c2601e83613fb3565b91506149cd8261498c565b602082019050919050565b600060208201905081810360008301526149f1816149b5565b9050919050565b6000819050919050565b6000614a1d614a18614a1384614035565b6149f8565b614035565b9050919050565b6000614a2f82614a02565b9050919050565b6000614a4182614a24565b9050919050565b614a5181614a36565b82525050565b6000606082019050614a6c6000830186614a48565b614a79602083018561419f565b614a866040830184614136565b949350505050565b7f636f756c64206e6f74207472616e73666572207765746820666f7220736f6d6560008201527f20726561736f6e00000000000000000000000000000000000000000000000000602082015250565b6000614aea602783613fb3565b9150614af582614a8e565b604082019050919050565b60006020820190508181036000830152614b1981614add565b9050919050565b6000614b2b826140c0565b91507fffffffffffffffffffffffffffffffffffffffffffffffffffffffffffffffff821415614b5e57614b5d61456e565b5b600182019050919050565b6000606082019050614b7e6000830186614136565b614b8b6020830185614136565b614b986040830184614136565b949350505050565b7f7468652061756374696f6e2069732066696e6973686564206f72206e6f6e2d6560008201527f78697374656e7400000000000000000000000000000000000000000000000000602082015250565b6000614bfc602783613fb3565b9150614c0782614ba0565b604082019050919050565b60006020820190508181036000830152614c2b81614bef565b9050919050565b7f61756374696f6e5475726e4475726174696f6e00000000000000000000000000600082015250565b6000614c68601383613fb3565b9150614c7382614c32565b602082019050919050565b60006020820190508181036000830152614c9781614c5b565b9050919050565b7f697420697320746f6f206561726c7920746f2066696e616c697a652c2077616960008201527f7420612062697400000000000000000000000000000000000000000000000000602082015250565b6000614cfa602783613fb3565b9150614d0582614c9e565b604082019050919050565b60006020820190508181036000830152614d2981614ced565b9050919050565b7f74686572652073686f756c64206265206174206c65617374206f6e6520626964600082015250565b6000614d66602083613fb3565b9150614d7182614d30565b602082019050919050565b60006020820190508181036000830152614d9581614d59565b9050919050565b6000604082019050614db1600083018561419f565b614dbe6020830184614136565b9392505050565b6000604082019050614dda6000830185614a48565b614de76020830184614136565b9392505050565b7f636f756c64206e6f74206d696e742072756c6500000000000000000000000000600082015250565b6000614e24601383613fb3565b9150614e2f82614dee565b602082019050919050565b60006020820190508181036000830152614e5381614e17565b9050919050565b7f636f756c64206e6f74207472616e7366657220636f696e730000000000000000600082015250565b6000614e90601883613fb3565b9150614e9b82614e5a565b602082019050919050565b60006020820190508181036000830152614ebf81614e83565b9050919050565b6000604082019050614edb6000830185614a48565b614ee8602083018461419f565b9392505050565b7f43616e206e6f74207472616e7366657220737572706c75732066726f6d20434460008201527f5000000000000000000000000000000000000000000000000000000000000000602082015250565b6000614f4b602183613fb3565b9150614f5682614eef565b604082019050919050565b60006020820190508181036000830152614f7a81614f3e565b9050919050565b6000606082019050614f966000830186614136565b614fa36020830185614136565b614fb0604083018461419f565b949350505050565b7f4f6e6c7920626964206f776e6572206d61792063616e63656c2069742c20696660008201527f206974207761736e27742063616e63656c6564206561726c6965720000000000602082015250565b6000615014603b83613fb3565b915061501f82614fb8565b604082019050919050565b6000602082019050818103600083015261504381615007565b9050919050565b7f74686520626964206973206d616465206f6e206e6f6e2d6578697374656e742060008201527f61756374696f6e00000000000000000000000000000000000000000000000000602082015250565b60006150a6602783613fb3565b91506150b18261504a565b604082019050919050565b600060208201905081810360008301526150d581615099565b9050919050565b7f596f752063616e206e6f742063616e63656c206120626964206966206974206960008201527f7320612062657374206f6e650000000000000000000000000000000000000000602082015250565b6000615138602c83613fb3565b9150615143826150dc565b604082019050919050565b600060208201905081810360008301526151678161512b565b9050919050565b7f77652077657265206e6f742061626c6520746f207472616e7366657220796f7560008201527f7220626964206261636b00000000000000000000000000000000000000000000602082015250565b60006151ca602a83613fb3565b91506151d58261516e565b604082019050919050565b600060208201905081810360008301526151f9816151bd565b9050919050565b7f796f757220626964206973206e6f74206c6f7720656e6f756768000000000000600082015250565b6000615236601a83613fb3565b915061524182615200565b602082019050919050565b6000602082019050818103600083015261526581615229565b9050919050565b7f596f752073686f756c6420666972737420617070726f766520737461626c654360008201527f6f696e7320746f2061756374696f6e20636f6e74726163742061646472657373602082015250565b60006152c8604083613fb3565b91506152d38261526c565b604082019050919050565b600060208201905081810360008301526152f7816152bb565b9050919050565b7f596f752073686f756c6420666972737420617070726f766520626964416d6f7560008201527f6e7420746f2061756374696f6e20636f6e747261637420616464726573730000602082015250565b600061535a603e83613fb3565b9150615365826152fe565b604082019050919050565b600060208201905081810360008301526153898161534d565b9050919050565b60006020820190506153a5600083018461419f565b92915050565b7f73746162696c697a6174696f6e46756e6450657263656e740000000000000000600082015250565b60006153e1601883613fb3565b91506153ec826153ab565b602082019050919050565b60006020820190508181036000830152615410816153d4565b9050919050565b7f6e6f7420736f206c6f7720746f20696e69742052756c6520656d697373696f6e600082015250565b600061544d602083613fb3565b915061545882615417565b602082019050919050565b6000602082019050818103600083015261547c81615440565b9050919050565b6000819050919050565b60006154a86154a361549e84615483565b6149f8565b6140c0565b9050919050565b6154b88161548d565b82525050565b60006060820190506154d36000830186614136565b6154e060208301856154af565b6154ed604083018461419f565b94935050505056fea264697066735822122045cb67d50e9b495d9d2dc54b2cb8c64001429a71b34864e067e54651d5811cc464736f6c634300080a0033",
  "immutableReferences": {},
  "source": "// SPDX-License-Identifier: UNLICENSED\r\npragma solidity >=0.4.22 <0.9.0;\r\n\r\nimport \"./INTDAO.sol\";\r\nimport \"./stableCoin.sol\";\r\nimport \"./CDP.sol\";\r\n\r\n    struct auctionEntity {\r\n        bool initialized;\r\n        bool finalized;\r\n        address lotToken;\r\n        uint lotAmount;\r\n        address paymentToken;\r\n        uint256 paymentAmount;\r\n        uint256 initTime;\r\n        uint256 lastTimeUpdated;\r\n        uint256 bestBidId;\r\n    }\r\n\r\n    struct Bid {\r\n        address owner;\r\n        uint256 auctionID;\r\n        uint256 bidAmount;\r\n        uint256 time;\r\n        bool canceled;\r\n    }\r\n\r\ncontract Auction {\r\n    uint256 public auctionNum;\r\n    uint256 public bidsNum;\r\n    stableCoin coin;\r\n    INTDAO dao;\r\n    CDP cdp;\r\n\r\n    mapping(uint256 => auctionEntity) public auctions;\r\n    mapping (uint256 => Bid) public bids;\r\n\r\n    event buyOutInit(uint256 auctionID, uint256 lotAmount, address lotAddress);\r\n    event buyOutFinished(uint256 auctionID, uint256 lotAmount, uint256 bestBid);\r\n    event newBid(uint256 auctionID, uint256 bidId, uint256 bidAmount, address owner);\r\n    event bidCanceled(uint256 bidId);\r\n\r\n    event liquidateCollateral(uint256 auctionID, uint256 posID, uint256 liquidateColleteral);\r\n\r\n    constructor(address payable _INTDAOaddress){\r\n        dao = INTDAO(_INTDAOaddress);\r\n        dao.setAddressOnce(\"auction\", payable(address(this)));\r\n        cdp = CDP(dao.addresses('cdp'));\r\n        coin = stableCoin(payable(dao.addresses('stableCoin')));\r\n    }\r\n\r\n    function renewContracts() public {\r\n        coin = stableCoin(payable(dao.addresses('stableCoin')));\r\n        cdp = CDP(dao.addresses('cdp'));\r\n    }\r\n\r\n    function initRuleBuyOut() public returns (uint256 auctionID){\r\n        uint256 allowed = coin.allowance(dao.addresses('cdp'), address(this));//CHTO?? Kak mojet bit takoy allowence???\r\n        require (coin.transferFrom(dao.addresses('cdp'), address(this), allowed), \"Can not transfer surplus from CDP\");\r\n        auctionID = auctionNum++;\r\n        auctionEntity storage a = auctions[auctionID];\r\n\r\n        a.initialized = true;\r\n        a.finalized = false;\r\n        a.lotToken = dao.addresses('stableCoin');\r\n        a.lotAmount = allowed;\r\n        a.paymentToken = dao.addresses('rule');\r\n        a.lastTimeUpdated = block.timestamp;\r\n        a.initTime = block.timestamp;\r\n        a.bestBidId = 0;\r\n\r\n        emit buyOutInit(auctionID, a.lotAmount, a.lotToken);\r\n        return auctionID;\r\n    }\r\n\r\n    function getBestBidAmount (uint256 auctionID) public view returns (uint256){\r\n        auctionEntity storage a = auctions[auctionID];\r\n        if (a.bestBidId >0) {\r\n            Bid storage b = bids[a.bestBidId];\r\n            return b.bidAmount;\r\n        }\r\n        else return 0;\r\n    }\r\n\r\n    function initCoinsBuyOutForStabilization(uint256 coinsAmountNeeded) public returns (uint256 auctionID){\r\n        uint256 actualStabilizationFund = coin.balanceOf(address(cdp));\r\n        uint256 preferableStabilizationFund = coin.totalSupply() * dao.params(\"stabilizationFundPercent\")/100;\r\n\r\n        require (actualStabilizationFund<preferableStabilizationFund/5, \"not so low to init Rule emission\");\r\n        if (coinsAmountNeeded > preferableStabilizationFund - actualStabilizationFund)\r\n            coinsAmountNeeded = preferableStabilizationFund - actualStabilizationFund;\r\n\r\n        auctionID = auctionNum++;\r\n        auctionEntity storage a = auctions[auctionID];\r\n\r\n        a.paymentAmount = coinsAmountNeeded;\r\n        a.initialized = true;\r\n        a.finalized = false;\r\n        a.lotToken = dao.addresses('rule');\r\n        a.paymentToken = dao.addresses('stableCoin');\r\n        a.lastTimeUpdated = block.timestamp;\r\n        a.initTime = block.timestamp;\r\n        a.bestBidId = 0;\r\n        emit buyOutInit(auctionID, 0, a.lotToken);\r\n        return auctionID;\r\n    }\r\n\r\n    function initCoinsBuyOut(uint256 posID) public returns (uint256 auctionID){\r\n        require(cdp.isOnLiquidation(posID), \"position is not on liquidation\");\r\n        ERC20 weth = ERC20(dao.addresses('weth'));\r\n        uint256 wethLocked = cdp.wethLocked(posID);\r\n        require(weth.transferFrom(dao.addresses('cdp'), address(this), wethLocked), \"could not transfer weth for some reason\");\r\n\r\n        auctionID = auctionNum++;\r\n        auctionEntity storage a = auctions[auctionID];\r\n\r\n        a.initialized = true;\r\n        a.finalized = false;\r\n        a.lotToken = dao.addresses('weth');\r\n        a.lotAmount = wethLocked;\r\n        a.paymentToken = dao.addresses('stableCoin');\r\n        a.lastTimeUpdated = block.timestamp;\r\n        a.initTime = block.timestamp;\r\n        a.bestBidId = 0;\r\n\r\n        emit liquidateCollateral(auctionID, posID, wethLocked);\r\n        return auctionID;\r\n    }\r\n\r\n    function makeBid(uint256 auctionId, uint256 bidAmount) public{\r\n        auctionEntity storage a = auctions[auctionId];\r\n        require(a.initialized&&!a.finalized, \"auctionId is wrong or it is already finished\");\r\n\r\n        if (a.bestBidId!=0){\r\n            Bid storage bestBid = bids[a.bestBidId];\r\n            if (a.lotToken == dao.addresses('stableCoin') || a.lotToken == dao.addresses('weth'))\r\n                require(bidAmount>0 && bestBid.bidAmount*(100+dao.params('minAuctionPriceMove'))/100<=bidAmount, \"your bid is not high enough\");\r\n            if (a.lotToken == dao.addresses('rule'))\r\n                require(bidAmount>0 && bestBid.bidAmount*(100-dao.params('minAuctionPriceMove'))/100>=bidAmount, \"your bid is not low enough\");\r\n        }\r\n        require(bidAmount>0, \"your bid is not high enough\");\r\n        ERC20 paymentToken = ERC20(address(a.paymentToken));\r\n        if (a.lotToken == dao.addresses('rule'))\r\n            require(paymentToken.transferFrom(msg.sender, address(this), a.paymentAmount), \"You should first approve stableCoins to auction contract address\");\r\n        else\r\n            require(paymentToken.transferFrom(msg.sender, address(this), bidAmount), \"You should first approve bidAmount to auction contract address\");\r\n\r\n        uint256 bidId = ++bidsNum;\r\n        Bid storage b = bids[bidId];\r\n        b.owner = msg.sender;\r\n        b.auctionID = auctionId;\r\n        b.bidAmount = bidAmount;\r\n        b.time = block.timestamp;\r\n        b.canceled = false;\r\n\r\n        a.bestBidId = bidId;\r\n        a.lastTimeUpdated = block.timestamp;\r\n        emit newBid(auctionId, bidId, bidAmount, b.owner);\r\n    }\r\n\r\n    function improveBid(uint256 bidId, uint256 newBidAmount) public{\r\n        Bid storage b = bids[bidId];\r\n        require(b.owner == msg.sender, \"You may improve only your personal bids\");\r\n        auctionEntity storage a = auctions[b.auctionID];\r\n        require(a.initialized&&!a.finalized, \"auctionId is wrong or it is already finished\");\r\n        Bid storage bestBid = bids[a.bestBidId];\r\n\r\n        if (a.lotToken == dao.addresses('stableCoin') || a.lotToken == dao.addresses('weth'))\r\n            require(newBidAmount>0 && bestBid.bidAmount*(100+dao.params('minAuctionPriceMove'))/100<=newBidAmount, \"your bid is not high enough\");\r\n        if (a.lotToken == dao.addresses('rule'))\r\n            require(newBidAmount>0 && bestBid.bidAmount*(100-dao.params('minAuctionPriceMove'))/100>=newBidAmount, \"your bid is not high enough\");\r\n\r\n        ERC20 paymentToken = ERC20(address(a.paymentToken));\r\n\r\n        if (a.lotToken == dao.addresses('stableCoin') || a.lotToken == dao.addresses('weth')){\r\n            uint256 difference = newBidAmount-b.bidAmount;\r\n            require(paymentToken.transferFrom(msg.sender, address(this), difference), \"You should first approve payment to auction contract address\");\r\n        }\r\n\r\n        b.bidAmount = newBidAmount;\r\n        a.lastTimeUpdated = block.timestamp;\r\n        a.bestBidId = bidId;\r\n        emit newBid(b.auctionID, bidId, newBidAmount, b.owner);\r\n        //TODO: test improve bid\r\n    }\r\n\r\n    function cancelBid(uint256 bidId) public{\r\n        Bid storage b = bids[bidId];\r\n        require (b.owner==msg.sender && !b.canceled, \"Only bid owner may cancel it, if it wasn't canceled earlier\");\r\n        auctionEntity storage a = auctions[b.auctionID];\r\n        require(a.initialized, \"the bid is made on non-existent auction\");\r\n        require(a.bestBidId!=bidId, \"You can not cancel a bid if it is a best one\");\r\n        ERC20 paymentToken = ERC20(address(a.paymentToken));\r\n        if (a.lotToken == dao.addresses('rule') && a.paymentToken == dao.addresses('stableCoin'))\r\n            require(paymentToken.transfer(b.owner, a.paymentAmount), \"we were not able to transfer your bid back\");\r\n        else\r\n            require(paymentToken.transfer(b.owner, b.bidAmount), \"we were not able to transfer your bid back\");\r\n        emit bidCanceled(bidId);\r\n        b.canceled = true;\r\n    }\r\n\r\n    function claimToFinalizeAuction(uint256 auctionId) public returns (bool success){\r\n        auctionEntity storage a = auctions[auctionId];\r\n        require(a.initialized && !a.finalized, \"the auction is finished or non-existent\");\r\n        require(block.timestamp-a.lastTimeUpdated>=dao.params('auctionTurnDuration'), \"it is too early to finalize, wait a bit\");\r\n        require(a.bestBidId!=0 && a.initTime!=a.lastTimeUpdated, \"there should be at least one bid\");\r\n        Bid storage bestBid = bids[a.bestBidId];\r\n        ERC20 lotToken = ERC20(address(a.lotToken));\r\n        ERC20 paymentToken = ERC20(address(a.paymentToken));\r\n        if (a.lotToken == dao.addresses('stableCoin') && a.paymentToken == dao.addresses('rule')) {\r\n            require(lotToken.transfer(bestBid.owner, a.lotAmount));\r\n            require(paymentToken.transfer(dao.addresses('cdp'), bestBid.bidAmount));\r\n            emit buyOutFinished(auctionId, a.lotAmount, bestBid.bidAmount);\r\n        }\r\n        if (a.lotToken == dao.addresses('rule') && a.paymentToken == dao.addresses('stableCoin')){\r\n            require(cdp.mintRule(bestBid.owner, bestBid.bidAmount), \"could not mint rule\");\r\n            require(coin.transfer(dao.addresses('cdp'), a.paymentAmount), \"could not transfer coins\");\r\n        }\r\n        if (a.lotToken == dao.addresses('weth') && a.paymentToken == dao.addresses('stableCoin')){\r\n            require(lotToken.transfer(bestBid.owner, a.lotAmount));\r\n            require(paymentToken.transfer(dao.addresses('cdp'), bestBid.bidAmount));\r\n            emit buyOutFinished(auctionId, a.lotAmount, bestBid.bidAmount);\r\n        }\r\n        a.finalized = true;\r\n        return true;\r\n    }\r\n\r\n    receive() external payable {\r\n        dao.addresses('oracle').transfer(address(this).balance);\r\n    }\r\n}\r\n",
  "sourcePath": "C:\\Users\\d.nagornykh\\YandexDisk\\\\ICO\\CryptoFiat\\repo\\contracts\\Auction.sol",
  "compiler": {
    "name": "solc",
    "version": "0.8.10+commit.fc410830.Emscripten.clang"
  },
  "schemaVersion": "3.4.11",
  "updatedAt": "2023-03-14T06:05:35.231Z",
  "networkType": "ethereum",
  "devdoc": {
    "kind": "dev",
    "methods": {},
    "version": 1
  },
  "userdoc": {
    "kind": "user",
    "methods": {},
    "version": 1
  }
}