{
  "contractName": "Auction",
  "abi": [
    {
      "inputs": [
        {
          "internalType": "address payable",
          "name": "_INTDAOaddress",
          "type": "address"
        }
      ],
      "stateMutability": "nonpayable",
      "type": "constructor"
    },
    {
      "anonymous": false,
      "inputs": [
        {
          "indexed": false,
          "internalType": "uint256",
          "name": "bidId",
          "type": "uint256"
        }
      ],
      "name": "bidCanceled",
      "type": "event"
    },
    {
      "anonymous": false,
      "inputs": [
        {
          "indexed": false,
          "internalType": "uint256",
          "name": "auctionID",
          "type": "uint256"
        },
        {
          "indexed": false,
          "internalType": "uint256",
          "name": "lotAmount",
          "type": "uint256"
        },
        {
          "indexed": false,
          "internalType": "uint256",
          "name": "bestBid",
          "type": "uint256"
        }
      ],
      "name": "buyOutFinished",
      "type": "event"
    },
    {
      "anonymous": false,
      "inputs": [
        {
          "indexed": false,
          "internalType": "uint256",
          "name": "auctionID",
          "type": "uint256"
        },
        {
          "indexed": false,
          "internalType": "uint256",
          "name": "lotAmount",
          "type": "uint256"
        },
        {
          "indexed": false,
          "internalType": "address",
          "name": "lotAddress",
          "type": "address"
        }
      ],
      "name": "buyOutInit",
      "type": "event"
    },
    {
      "anonymous": false,
      "inputs": [
        {
          "indexed": false,
          "internalType": "uint256",
          "name": "auctionID",
          "type": "uint256"
        },
        {
          "indexed": false,
          "internalType": "uint256",
          "name": "posID",
          "type": "uint256"
        },
        {
          "indexed": false,
          "internalType": "uint256",
          "name": "collateral",
          "type": "uint256"
        }
      ],
      "name": "liquidateCollateral",
      "type": "event"
    },
    {
      "anonymous": false,
      "inputs": [
        {
          "indexed": false,
          "internalType": "uint256",
          "name": "auctionID",
          "type": "uint256"
        },
        {
          "indexed": false,
          "internalType": "uint256",
          "name": "bidId",
          "type": "uint256"
        },
        {
          "indexed": false,
          "internalType": "uint256",
          "name": "bidAmount",
          "type": "uint256"
        },
        {
          "indexed": false,
          "internalType": "address",
          "name": "owner",
          "type": "address"
        }
      ],
      "name": "newBid",
      "type": "event"
    },
    {
      "inputs": [],
      "name": "auctionNum",
      "outputs": [
        {
          "internalType": "uint256",
          "name": "",
          "type": "uint256"
        }
      ],
      "stateMutability": "view",
      "type": "function"
    },
    {
      "inputs": [
        {
          "internalType": "uint256",
          "name": "",
          "type": "uint256"
        }
      ],
      "name": "auctions",
      "outputs": [
        {
          "internalType": "bool",
          "name": "initialized",
          "type": "bool"
        },
        {
          "internalType": "bool",
          "name": "finalized",
          "type": "bool"
        },
        {
          "internalType": "address",
          "name": "lotToken",
          "type": "address"
        },
        {
          "internalType": "uint256",
          "name": "lotAmount",
          "type": "uint256"
        },
        {
          "internalType": "address",
          "name": "paymentToken",
          "type": "address"
        },
        {
          "internalType": "uint256",
          "name": "paymentAmount",
          "type": "uint256"
        },
        {
          "internalType": "uint256",
          "name": "initTime",
          "type": "uint256"
        },
        {
          "internalType": "uint256",
          "name": "lastTimeUpdated",
          "type": "uint256"
        },
        {
          "internalType": "uint256",
          "name": "bestBidId",
          "type": "uint256"
        },
        {
          "internalType": "bool",
          "name": "isMarginCall",
          "type": "bool"
        }
      ],
      "stateMutability": "view",
      "type": "function"
    },
    {
      "inputs": [
        {
          "internalType": "uint256",
          "name": "",
          "type": "uint256"
        }
      ],
      "name": "bids",
      "outputs": [
        {
          "internalType": "address",
          "name": "owner",
          "type": "address"
        },
        {
          "internalType": "uint256",
          "name": "auctionID",
          "type": "uint256"
        },
        {
          "internalType": "uint256",
          "name": "bidAmount",
          "type": "uint256"
        },
        {
          "internalType": "uint256",
          "name": "time",
          "type": "uint256"
        },
        {
          "internalType": "bool",
          "name": "canceled",
          "type": "bool"
        }
      ],
      "stateMutability": "view",
      "type": "function"
    },
    {
      "inputs": [],
      "name": "bidsNum",
      "outputs": [
        {
          "internalType": "uint256",
          "name": "",
          "type": "uint256"
        }
      ],
      "stateMutability": "view",
      "type": "function"
    },
    {
      "stateMutability": "payable",
      "type": "receive"
    },
    {
      "inputs": [],
      "name": "renewContracts",
      "outputs": [],
      "stateMutability": "nonpayable",
      "type": "function"
    },
    {
      "inputs": [],
      "name": "initRuleBuyOut",
      "outputs": [
        {
          "internalType": "uint256",
          "name": "auctionID",
          "type": "uint256"
        }
      ],
      "stateMutability": "nonpayable",
      "type": "function"
    },
    {
      "inputs": [
        {
          "internalType": "uint256",
          "name": "coinsAmountNeeded",
          "type": "uint256"
        }
      ],
      "name": "initCoinsBuyOutForStabilization",
      "outputs": [
        {
          "internalType": "uint256",
          "name": "auctionID",
          "type": "uint256"
        }
      ],
      "stateMutability": "nonpayable",
      "type": "function"
    },
    {
      "inputs": [
        {
          "internalType": "uint256",
          "name": "posID",
          "type": "uint256"
        },
        {
          "internalType": "uint256",
          "name": "collateral",
          "type": "uint256"
        }
      ],
      "name": "initCoinsBuyOut",
      "outputs": [
        {
          "internalType": "uint256",
          "name": "auctionID",
          "type": "uint256"
        }
      ],
      "stateMutability": "nonpayable",
      "type": "function"
    },
    {
      "inputs": [
        {
          "internalType": "uint256",
          "name": "auctionId",
          "type": "uint256"
        },
        {
          "internalType": "uint256",
          "name": "bidAmount",
          "type": "uint256"
        }
      ],
      "name": "makeBid",
      "outputs": [
        {
          "internalType": "uint256",
          "name": "bidId",
          "type": "uint256"
        }
      ],
      "stateMutability": "nonpayable",
      "type": "function"
    },
    {
      "inputs": [
        {
          "internalType": "uint256",
          "name": "bidId",
          "type": "uint256"
        },
        {
          "internalType": "uint256",
          "name": "newBidAmount",
          "type": "uint256"
        }
      ],
      "name": "improveBid",
      "outputs": [],
      "stateMutability": "nonpayable",
      "type": "function"
    },
    {
      "inputs": [
        {
          "internalType": "uint256",
          "name": "bidId",
          "type": "uint256"
        }
      ],
      "name": "cancelBid",
      "outputs": [],
      "stateMutability": "nonpayable",
      "type": "function"
    },
    {
      "inputs": [
        {
          "internalType": "uint256",
          "name": "auctionID",
          "type": "uint256"
        }
      ],
      "name": "claimToFinalizeAuction",
      "outputs": [
        {
          "internalType": "bool",
          "name": "success",
          "type": "bool"
        }
      ],
      "stateMutability": "nonpayable",
      "type": "function"
    },
    {
      "inputs": [
        {
          "internalType": "uint256",
          "name": "auctionId",
          "type": "uint256"
        }
      ],
      "name": "isFinalized",
      "outputs": [
        {
          "internalType": "bool",
          "name": "finalized",
          "type": "bool"
        }
      ],
      "stateMutability": "view",
      "type": "function"
    },
    {
      "inputs": [
        {
          "internalType": "uint256",
          "name": "auctionID",
          "type": "uint256"
        }
      ],
      "name": "getPaymentAmount",
      "outputs": [
        {
          "internalType": "uint256",
          "name": "",
          "type": "uint256"
        }
      ],
      "stateMutability": "view",
      "type": "function"
    },
    {
      "inputs": [
        {
          "internalType": "uint256",
          "name": "auctionID",
          "type": "uint256"
        }
      ],
      "name": "getBestBidAmount",
      "outputs": [
        {
          "internalType": "uint256",
          "name": "",
          "type": "uint256"
        }
      ],
      "stateMutability": "view",
      "type": "function"
    },
    {
      "inputs": [],
      "name": "withdraw",
      "outputs": [],
      "stateMutability": "nonpayable",
      "type": "function"
    }
  ],
  "bytecode": "0x60806040523480156200001157600080fd5b506040516200380e3803806200380e8339810160408190526200003491620002aa565b600380546001600160a01b0319166001600160a01b0383169081179091556040805163155ef82760e11b81526004810191909152600760448201526630bab1ba34b7b760c91b6064820152306024820152632abdf04e90608401600060405180830381600087803b158015620000a957600080fd5b505af1158015620000be573d6000803e3d6000fd5b50506003805460405163bdfe7d4760e01b81526020600482015260248101929092526206364760ec1b60448301526001600160a01b0316925063bdfe7d479150606401602060405180830381865afa1580156200011f573d6000803e3d6000fd5b505050506040513d601f19601f82011682018060405250810190620001459190620002aa565b600480546001600160a01b039283166001600160a01b031990911617815560035460405163bdfe7d4760e01b815292169163bdfe7d4791620001a691016020808252600a908201526939ba30b13632a1b7b4b760b11b604082015260600190565b602060405180830381865afa158015620001c4573d6000803e3d6000fd5b505050506040513d601f19601f82011682018060405250810190620001ea9190620002aa565b600280546001600160a01b0319166001600160a01b0392831617905560035460405163bdfe7d4760e01b8152602060048083019190915260248201526372756c6560e01b604482015291169063bdfe7d4790606401602060405180830381865afa1580156200025d573d6000803e3d6000fd5b505050506040513d601f19601f82011682018060405250810190620002839190620002aa565b600580546001600160a01b0319166001600160a01b039290921691909117905550620002dc565b600060208284031215620002bd57600080fd5b81516001600160a01b0381168114620002d557600080fd5b9392505050565b61352280620002ec6000396000f3fe6080604052600436106100c75760003560e01c806303ad0a01146100d357806323d86a65146100f557806333727c4d1461010a578063378096c0146101545780633ccfd60b146101785780634423c5f11461018d578063571a26a01461021857806365d089a8146102f257806368a720b8146103315780637343950a1461036157806383b1e1f2146103815780639703ef3514610396578063adfcdc11146103b6578063c0219ad9146103d6578063e2a89c0c146103f6578063f85badde1461040c57600080fd5b366100ce57005b600080fd5b3480156100df57600080fd5b506100f36100ee36600461311b565b61042c565b005b34801561010157600080fd5b506100f3610a9b565b34801561011657600080fd5b5061013f61012536600461313d565b600090815260066020526040902054610100900460ff1690565b60405190151581526020015b60405180910390f35b34801561016057600080fd5b5061016a60015481565b60405190815260200161014b565b34801561018457600080fd5b506100f3610c2e565b34801561019957600080fd5b506101e46101a836600461313d565b600760205260009081526040902080546001820154600283015460038401546004909401546001600160a01b0390931693919290919060ff1685565b604080516001600160a01b03909616865260208601949094529284019190915260608301521515608082015260a00161014b565b34801561022457600080fd5b5061029561023336600461313d565b60066020819052600091825260409091208054600182015460028301546003840154600485015460058601549686015460079096015460ff808716986101008804821698620100009098046001600160a01b039081169896169590929091168a565b604080519a15158b5298151560208b01526001600160a01b03978816988a0198909852606089019590955294909216608087015260a086015260c085015260e084019190915261010083015215156101208201526101400161014b565b3480156102fe57600080fd5b5061016a61030d36600461313d565b60009081526006602081815260408084209092015483526007905290206002015490565b34801561033d57600080fd5b5061016a61034c36600461313d565b60009081526006602052604090206003015490565b34801561036d57600080fd5b5061013f61037c36600461313d565b610cec565b34801561038d57600080fd5b5061016a610ffe565b3480156103a257600080fd5b506100f36103b136600461313d565b611426565b3480156103c257600080fd5b5061016a6103d136600461311b565b6117a9565b3480156103e257600080fd5b5061016a6103f136600461311b565b611ff8565b34801561040257600080fd5b5061016a60005481565b34801561041857600080fd5b5061016a61042736600461313d565b6123b9565b600082815260076020526040902080546001600160a01b031633146104a85760405162461bcd60e51b815260206004820152602760248201527f596f75206d617920696d70726f7665206f6e6c7920796f757220706572736f6e604482015266616c206269647360c81b60648201526084015b60405180910390fd5b60018101546000908152600660205260409020805460ff1680156104d357508054610100900460ff16155b6104ef5760405162461bcd60e51b815260040161049f90613156565b600681015460009081526007602052604090819020600354915163bdfe7d4760e01b815290916001600160a01b03169063bdfe7d4790610531906004016131a2565b602060405180830381865afa15801561054e573d6000803e3d6000fd5b505050506040513d601f19601f8201168201806040525081019061057291906131c6565b82546201000090046001600160a01b0390811691161480610614575060035460405163bdfe7d4760e01b81526001600160a01b039091169063bdfe7d47906105bc906004016131f6565b602060405180830381865afa1580156105d9573d6000803e3d6000fd5b505050506040513d601f19601f820116820180604052508101906105fd91906131c6565b82546201000090046001600160a01b039081169116145b156106db576000841180156106bf575060035460405163145f822b60e01b815285916064916001600160a01b039091169063145f822b9061065790600401613214565b602060405180830381865afa158015610674573d6000803e3d6000fd5b505050506040513d601f19601f820116820180604052508101906106989190613241565b6106a3906064613270565b83600201546106b29190613283565b6106bc919061329a565b11155b6106db5760405162461bcd60e51b815260040161049f906132bc565b60035460405163bdfe7d4760e01b81526001600160a01b039091169063bdfe7d4790610709906004016132f1565b602060405180830381865afa158015610726573d6000803e3d6000fd5b505050506040513d601f19601f8201168201806040525081019061074a91906131c6565b82546001600160a01b0391821662010000909104909116036108285760008411801561080c575060035460405163145f822b60e01b815285916064916001600160a01b039091169063145f822b906107a490600401613214565b602060405180830381865afa1580156107c1573d6000803e3d6000fd5b505050506040513d601f19601f820116820180604052508101906107e59190613241565b6107f090606461330f565b83600201546107ff9190613283565b610809919061329a565b10155b6108285760405162461bcd60e51b815260040161049f906132bc565b600282015460035460405163bdfe7d4760e01b81526001600160a01b03928316929091169063bdfe7d479061085f906004016131a2565b602060405180830381865afa15801561087c573d6000803e3d6000fd5b505050506040513d601f19601f820116820180604052508101906108a091906131c6565b83546201000090046001600160a01b0390811691161480610942575060035460405163bdfe7d4760e01b81526001600160a01b039091169063bdfe7d47906108ea906004016131f6565b602060405180830381865afa158015610907573d6000803e3d6000fd5b505050506040513d601f19601f8201168201806040525081019061092b91906131c6565b83546201000090046001600160a01b039081169116145b15610a42576000846002015486610959919061330f565b6040516323b872dd60e01b81529091506001600160a01b038316906323b872dd9061098c90339030908690600401613322565b6020604051808303816000875af11580156109ab573d6000803e3d6000fd5b505050506040513d601f19601f820116820180604052508101906109cf9190613346565b610a405760405162461bcd60e51b815260206004820152603c60248201527f596f752073686f756c6420666972737420617070726f7665207061796d656e7460448201527b20746f2061756374696f6e20636f6e7472616374206164647265737360201b606482015260840161049f565b505b6002840185905542600584015560068301869055600184015484546040516000805160206134ad83398151915292610a8b9290918a918a916001600160a01b0390911690613368565b60405180910390a1505050505050565b60035460405163bdfe7d4760e01b81526001600160a01b039091169063bdfe7d4790610ac9906004016131a2565b602060405180830381865afa158015610ae6573d6000803e3d6000fd5b505050506040513d601f19601f82011682018060405250810190610b0a91906131c6565b600280546001600160a01b0319166001600160a01b0392831617905560035460405163bdfe7d4760e01b815291169063bdfe7d4790610b4b9060040161338c565b602060405180830381865afa158015610b68573d6000803e3d6000fd5b505050506040513d601f19601f82011682018060405250810190610b8c91906131c6565b600480546001600160a01b0319166001600160a01b0392831617815560035460405163bdfe7d4760e01b815292169163bdfe7d4791610bcb91016132f1565b602060405180830381865afa158015610be8573d6000803e3d6000fd5b505050506040513d601f19601f82011682018060405250810190610c0c91906131c6565b600580546001600160a01b0319166001600160a01b0392909216919091179055565b60035460405163bdfe7d4760e01b81526020600482015260066024820152656f7261636c6560d01b60448201526001600160a01b039091169063bdfe7d4790606401602060405180830381865afa158015610c8d573d6000803e3d6000fd5b505050506040513d601f19601f82011682018060405250810190610cb191906131c6565b6001600160a01b03166108fc479081150290604051600060405180830381858888f19350505050158015610ce9573d6000803e3d6000fd5b50565b6000818152600660205260408120600781015460ff1615610e145760035460405163bdfe7d4760e01b81526001600160a01b039091169063bdfe7d4790610d359060040161338c565b602060405180830381865afa158015610d52573d6000803e3d6000fd5b505050506040513d601f19601f82011682018060405250810190610d7691906131c6565b6001600160a01b0316336001600160a01b031614610e145760405162461bcd60e51b815260206004820152604f60248201527f4f6e6c792043445020636f6e7472616374206d61792066696e6973682074686960448201527f732061756374696f6e2e20506c656173652c207573652066696e6973684d617260648201526e33b4b721b0b6361036b2ba3437b21760891b608482015260a40161049f565b805460ff168015610e2c57508054610100900460ff16155b610e885760405162461bcd60e51b815260206004820152602760248201527f7468652061756374696f6e2069732066696e6973686564206f72206e6f6e2d656044820152661e1a5cdd195b9d60ca1b606482015260840161049f565b60035460405163145f822b60e01b815260206004820152601360248201527230bab1ba34b7b72a3ab937223ab930ba34b7b760691b60448201526001600160a01b039091169063145f822b90606401602060405180830381865afa158015610ef4573d6000803e3d6000fd5b505050506040513d601f19601f82011682018060405250810190610f189190613241565b6005820154610f27904261330f565b1015610f855760405162461bcd60e51b815260206004820152602760248201527f697420697320746f6f206561726c7920746f2066696e616c697a652c207761696044820152661d081848189a5d60ca1b606482015260840161049f565b600681015415801590610fa057508060050154816004015414155b610fec5760405162461bcd60e51b815260206004820181905260248201527f74686572652073686f756c64206265206174206c65617374206f6e6520626964604482015260640161049f565b610ff5836128cb565b50600192915050565b600554600090600160a81b900460ff16156110655760405162461bcd60e51b815260206004820152602160248201527f52756c65206275794f75742061756374696f6e20616c726561647920657869736044820152601d60fa1b606482015260840161049f565b60025460035460405163bdfe7d4760e01b81526000926001600160a01b039081169263dd62ed3e9291169063bdfe7d47906110a29060040161338c565b602060405180830381865afa1580156110bf573d6000803e3d6000fd5b505050506040513d601f19601f820116820180604052508101906110e391906131c6565b6040516001600160e01b031960e084901b1681526001600160a01b039091166004820152306024820152604401602060405180830381865afa15801561112d573d6000803e3d6000fd5b505050506040513d601f19601f820116820180604052508101906111519190613241565b9050600081116111ad5760405162461bcd60e51b815260206004820152602160248201527f43616e206e6f74207472616e7366657220737572706c75732066726f6d2043446044820152600560fc1b606482015260840161049f565b60025460035460405163bdfe7d4760e01b81526001600160a01b03928316926323b872dd92169063bdfe7d47906111e69060040161338c565b602060405180830381865afa158015611203573d6000803e3d6000fd5b505050506040513d601f19601f8201168201806040525081019061122791906131c6565b30846040518463ffffffff1660e01b815260040161124793929190613322565b6020604051808303816000875af1158015611266573d6000803e3d6000fd5b505050506040513d601f19601f8201168201806040525081019061128a9190613346565b5060035460405163bdfe7d4760e01b8152611372916001600160a01b03169063bdfe7d47906112bb906004016131a2565b602060405180830381865afa1580156112d8573d6000803e3d6000fd5b505050506040513d601f19601f820116820180604052508101906112fc91906131c6565b60035460405163bdfe7d4760e01b815284916001600160a01b03169063bdfe7d479061132a906004016132f1565b602060405180830381865afa158015611347573d6000803e3d6000fd5b505050506040513d601f19601f8201168201806040525081019061136b91906131c6565b6000613091565b6005805460ff60a81b1916600160a81b17905560035460405163bdfe7d4760e01b815291935060008051602061348d83398151915291849184916001600160a01b039091169063bdfe7d47906113ca906004016131a2565b602060405180830381865afa1580156113e7573d6000803e3d6000fd5b505050506040513d601f19601f8201168201806040525081019061140b91906131c6565b60405161141a939291906133a9565b60405180910390a15090565b600081815260076020526040902080546001600160a01b0316331480156114525750600481015460ff16155b6114c25760405162461bcd60e51b815260206004820152603b60248201527f4f6e6c7920626964206f776e6572206d61792063616e63656c2069742c20696660448201527a1034ba103bb0b9b713ba1031b0b731b2b632b21032b0b93634b2b960291b606482015260840161049f565b60018101546000908152600660205260409020805460ff166115365760405162461bcd60e51b815260206004820152602760248201527f74686520626964206973206d616465206f6e206e6f6e2d6578697374656e742060448201526630bab1ba34b7b760c91b606482015260840161049f565b8281600601540361159e5760405162461bcd60e51b815260206004820152602c60248201527f596f752063616e206e6f742063616e63656c206120626964206966206974206960448201526b7320612062657374206f6e6560a01b606482015260840161049f565b600281015460035460405163bdfe7d4760e01b81526001600160a01b03928316929091169063bdfe7d47906115d5906004016132f1565b602060405180830381865afa1580156115f2573d6000803e3d6000fd5b505050506040513d601f19601f8201168201806040525081019061161691906131c6565b82546001600160a01b0391821662010000909104909116036116cd578254600383015460405163a9059cbb60e01b81526001600160a01b038481169363a9059cbb936116699392909116916004016133c8565b6020604051808303816000875af1158015611688573d6000803e3d6000fd5b505050506040513d601f19601f820116820180604052508101906116ac9190613346565b6116c85760405162461bcd60e51b815260040161049f906133e1565b611763565b8254600284015460405163a9059cbb60e01b81526001600160a01b038481169363a9059cbb936117049392909116916004016133c8565b6020604051808303816000875af1158015611723573d6000803e3d6000fd5b505050506040513d601f19601f820116820180604052508101906117479190613346565b6117635760405162461bcd60e51b815260040161049f906133e1565b6040518481527ffac423451217205d5c65185b7a90cc7d957ec2dd791403d541d2c4460f9d8f379060200160405180910390a15050600401805460ff1916600117905550565b6000828152600660205260408120805460ff1680156117cf57508054610100900460ff16155b6117eb5760405162461bcd60e51b815260040161049f90613156565b600681015415611b5d57600681015460009081526007602052604090819020600354915163bdfe7d4760e01b815290916001600160a01b03169063bdfe7d4790611837906004016131a2565b602060405180830381865afa158015611854573d6000803e3d6000fd5b505050506040513d601f19601f8201168201806040525081019061187891906131c6565b82546201000090046001600160a01b039081169116148061191a575060035460405163bdfe7d4760e01b81526001600160a01b039091169063bdfe7d47906118c2906004016131f6565b602060405180830381865afa1580156118df573d6000803e3d6000fd5b505050506040513d601f19601f8201168201806040525081019061190391906131c6565b82546201000090046001600160a01b039081169116145b156119e1576000841180156119c5575060035460405163145f822b60e01b815285916064916001600160a01b039091169063145f822b9061195d90600401613214565b602060405180830381865afa15801561197a573d6000803e3d6000fd5b505050506040513d601f19601f8201168201806040525081019061199e9190613241565b6119a9906064613270565b83600201546119b89190613283565b6119c2919061329a565b11155b6119e15760405162461bcd60e51b815260040161049f906132bc565b60035460405163bdfe7d4760e01b81526001600160a01b039091169063bdfe7d4790611a0f906004016132f1565b602060405180830381865afa158015611a2c573d6000803e3d6000fd5b505050506040513d601f19601f82011682018060405250810190611a5091906131c6565b82546001600160a01b039182166201000090910490911603611b5b57600084118015611b12575060035460405163145f822b60e01b815285916064916001600160a01b039091169063145f822b90611aaa90600401613214565b602060405180830381865afa158015611ac7573d6000803e3d6000fd5b505050506040513d601f19601f82011682018060405250810190611aeb9190613241565b611af690606461330f565b8360020154611b059190613283565b611b0f919061329a565b10155b611b5b5760405162461bcd60e51b815260206004820152601a6024820152790f2deeae440c4d2c840d2e640dcdee840d8deee40cadcdeeaced60331b604482015260640161049f565b505b60008311611b7d5760405162461bcd60e51b815260040161049f906132bc565b600281015460035460405163bdfe7d4760e01b81526001600160a01b03928316929091169063bdfe7d4790611bb4906004016132f1565b602060405180830381865afa158015611bd1573d6000803e3d6000fd5b505050506040513d601f19601f82011682018060405250810190611bf591906131c6565b82546001600160a01b039182166201000090910490911603611e6e5760035460405163145f822b60e01b81526020600482015260166024820152751b585e149d5b19515b5a5cdcda5bdb94195c98d95b9d60521b60448201526064916001600160a01b03169063145f822b908301602060405180830381865afa158015611c80573d6000803e3d6000fd5b505050506040513d601f19601f82011682018060405250810190611ca49190613241565b600560009054906101000a90046001600160a01b03166001600160a01b03166318160ddd6040518163ffffffff1660e01b8152600401602060405180830381865afa158015611cf7573d6000803e3d6000fd5b505050506040513d601f19601f82011682018060405250810190611d1b9190613241565b611d259190613283565b611d2f919061329a565b841115611d7e5760405162461bcd60e51b815260206004820152601f60248201527f746f6f206d616e792072756c657320666f72206f6e6520656d697373696f6e00604482015260640161049f565b60038201546040516323b872dd60e01b81526001600160a01b038316916323b872dd91611db2913391309190600401613322565b6020604051808303816000875af1158015611dd1573d6000803e3d6000fd5b505050506040513d601f19601f82011682018060405250810190611df59190613346565b611e69576040805162461bcd60e51b81526020600482015260248101919091527f596f752073686f756c6420666972737420617070726f766520737461626c654360448201527f6f696e7320746f2061756374696f6e20636f6e74726163742061646472657373606482015260840161049f565b611f53565b6040516323b872dd60e01b81526001600160a01b038216906323b872dd90611e9e90339030908990600401613322565b6020604051808303816000875af1158015611ebd573d6000803e3d6000fd5b505050506040513d601f19601f82011682018060405250810190611ee19190613346565b611f535760405162461bcd60e51b815260206004820152603e60248201527f596f752073686f756c6420666972737420617070726f766520626964416d6f7560448201527f6e7420746f2061756374696f6e20636f6e747261637420616464726573730000606482015260840161049f565b600160008154611f629061342b565b91829055506000818152600760205260409081902080546001600160a01b031916331781556001810188905560028101879055426003820181905560048201805460ff1916905560068601849055600586015580549151929550916000805160206134ad83398151915291611fe691899188918a916001600160a01b031690613368565b60405180910390a15050505b92915050565b60035460405163bdfe7d4760e01b81526000916001600160a01b03169063bdfe7d47906120279060040161338c565b602060405180830381865afa158015612044573d6000803e3d6000fd5b505050506040513d601f19601f8201168201806040525081019061206891906131c6565b6001600160a01b0316336001600160a01b03161461210d5760405162461bcd60e51b815260206004820152605660248201527f4f6e6c792043445020636f6e7472616374206d617920696e766f6b652074686960448201527f73206d6574686f642e20506c656173652c20757365207374617274436f696e73606482015275109d5e53dd5d081a5b8810d1140818dbdb9d1c9858dd60521b608482015260a40161049f565b60035460405163bdfe7d4760e01b81526000916001600160a01b03169063bdfe7d479061213c906004016131f6565b602060405180830381865afa158015612159573d6000803e3d6000fd5b505050506040513d601f19601f8201168201806040525081019061217d91906131c6565b60035460405163bdfe7d4760e01b81529192506001600160a01b03808416926323b872dd929091169063bdfe7d47906121b89060040161338c565b602060405180830381865afa1580156121d5573d6000803e3d6000fd5b505050506040513d601f19601f820116820180604052508101906121f991906131c6565b30866040518463ffffffff1660e01b815260040161221993929190613322565b6020604051808303816000875af1158015612238573d6000803e3d6000fd5b505050506040513d601f19601f8201168201806040525081019061225c9190613346565b6122b85760405162461bcd60e51b815260206004820152602760248201527f636f756c64206e6f74207472616e73666572207765746820666f7220736f6d65604482015266103932b0b9b7b760c91b606482015260840161049f565b60035460405163bdfe7d4760e01b8152612357916001600160a01b03169063bdfe7d47906122e8906004016131f6565b602060405180830381865afa158015612305573d6000803e3d6000fd5b505050506040513d601f19601f8201168201806040525081019061232991906131c6565b60035460405163bdfe7d4760e01b815286916001600160a01b03169063bdfe7d479061132a906004016131a2565b60008181526006602052604090819020600701805460ff19166001179055519092507f082844962cf5145347cebd63a315279825bc23fed895630911764ad520ffea25906123aa90849087908790613444565b60405180910390a15092915050565b600554600090600160a01b900460ff161561243a5760405162461bcd60e51b815260206004820152603b60248201527f436f696e734275794f7574466f7253746162696c697a6174696f6e20616c726560448201527a18591e48195e1a5cdd1cc8185b99081b9bdd08199a5b9a5cda1959602a1b606482015260840161049f565b600254600480546040516370a0823160e01b81526001600160a01b039182169281019290925260009216906370a0823190602401602060405180830381865afa15801561248b573d6000803e3d6000fd5b505050506040513d601f19601f820116820180604052508101906124af9190613241565b60035460405163145f822b60e01b81526020600482015260186024820152771cdd18589a5b1a5e985d1a5bdb919d5b9914195c98d95b9d60421b60448201529192506000916064916001600160a01b03169063145f822b908301602060405180830381865afa158015612526573d6000803e3d6000fd5b505050506040513d601f19601f8201168201806040525081019061254a9190613241565b600260009054906101000a90046001600160a01b03166001600160a01b03166318160ddd6040518163ffffffff1660e01b8152600401602060405180830381865afa15801561259d573d6000803e3d6000fd5b505050506040513d601f19601f820116820180604052508101906125c19190613241565b6125cb9190613283565b6125d5919061329a565b90508082106126265760405162461bcd60e51b815260206004820181905260248201527f6e6f7420736f206c6f7720746f20696e69742052756c6520656d697373696f6e604482015260640161049f565b612630828261330f565b84111561264457612641828261330f565b93505b60035460405163145f822b60e01b81526001600160a01b039091169063145f822b906126729060040161345a565b602060405180830381865afa15801561268f573d6000803e3d6000fd5b505050506040513d601f19601f820116820180604052508101906126b39190613241565b84111561272c5760035460405163145f822b60e01b81526001600160a01b039091169063145f822b906126e89060040161345a565b602060405180830381865afa158015612705573d6000803e3d6000fd5b505050506040513d601f19601f820116820180604052508101906127299190613241565b93505b60035460405163bdfe7d4760e01b8152612813916001600160a01b03169063bdfe7d479061275c906004016132f1565b602060405180830381865afa158015612779573d6000803e3d6000fd5b505050506040513d601f19601f8201168201806040525081019061279d91906131c6565b60035460405163bdfe7d4760e01b81526000916001600160a01b03169063bdfe7d47906127cc906004016131a2565b602060405180830381865afa1580156127e9573d6000803e3d6000fd5b505050506040513d601f19601f8201168201806040525081019061280d91906131c6565b87613091565b6005805460ff60a01b1916600160a01b17905560035460405163bdfe7d4760e01b815291945060008051602061348d8339815191529185916000916001600160a01b039091169063bdfe7d479061286c906004016132f1565b602060405180830381865afa158015612889573d6000803e3d6000fd5b505050506040513d601f19601f820116820180604052508101906128ad91906131c6565b6040516128bc939291906133a9565b60405180910390a15050919050565b6000818152600660208181526040808420928301548452600790915291829020600354925163bdfe7d4760e01b8152919290916001600160a01b039091169063bdfe7d479061291c906004016131a2565b602060405180830381865afa158015612939573d6000803e3d6000fd5b505050506040513d601f19601f8201168201806040525081019061295d91906131c6565b82546001600160a01b039182166201000090910490911603612bd65781548154600184015460405163a9059cbb60e01b81526001600160a01b036201000090940484169363a9059cbb936129b6939116916004016133c8565b6020604051808303816000875af11580156129d5573d6000803e3d6000fd5b505050506040513d601f19601f820116820180604052508101906129f99190613346565b612a565760405162461bcd60e51b815260206004820152602860248201527f6c6f74546f6b656e207472616e73666572206661696c656420666f7220736f6d60448201526732903932b0b9b7b760c11b606482015260840161049f565b600282015460035460405163bdfe7d4760e01b81526001600160a01b039283169263a9059cbb92169063bdfe7d4790612a919060040161338c565b602060405180830381865afa158015612aae573d6000803e3d6000fd5b505050506040513d601f19601f82011682018060405250810190612ad291906131c6565b83600201546040518363ffffffff1660e01b8152600401612af49291906133c8565b6020604051808303816000875af1158015612b13573d6000803e3d6000fd5b505050506040513d601f19601f82011682018060405250810190612b379190613346565b612b985760405162461bcd60e51b815260206004820152602c60248201527f7061796d656e74546f6b656e207472616e73666572206661696c656420666f7260448201526b1039b7b6b2903932b0b9b7b760a11b606482015260840161049f565b6005805460ff60a81b19169055600182015460028201546040516000805160206134cd83398151915292612bcd928792613444565b60405180910390a15b60035460405163bdfe7d4760e01b81526001600160a01b039091169063bdfe7d4790612c04906004016132f1565b602060405180830381865afa158015612c21573d6000803e3d6000fd5b505050506040513d601f19601f82011682018060405250810190612c4591906131c6565b82546001600160a01b039182166201000090910490911603612e51576004805482546002840154604051630403dc0960e01b81526001600160a01b0393841694630403dc0994612c9894169291016133c8565b6020604051808303816000875af1158015612cb7573d6000803e3d6000fd5b505050506040513d601f19601f82011682018060405250810190612cdb9190613346565b612d1d5760405162461bcd60e51b8152602060048201526013602482015272636f756c64206e6f74206d696e742072756c6560681b604482015260640161049f565b60025460035460405163bdfe7d4760e01b81526001600160a01b039283169263a9059cbb92169063bdfe7d4790612d569060040161338c565b602060405180830381865afa158015612d73573d6000803e3d6000fd5b505050506040513d601f19601f82011682018060405250810190612d9791906131c6565b84600301546040518363ffffffff1660e01b8152600401612db99291906133c8565b6020604051808303816000875af1158015612dd8573d6000803e3d6000fd5b505050506040513d601f19601f82011682018060405250810190612dfc9190613346565b612e435760405162461bcd60e51b8152602060048201526018602482015277636f756c64206e6f74207472616e7366657220636f696e7360401b604482015260640161049f565b6005805460ff60a01b191690555b60035460405163bdfe7d4760e01b81526001600160a01b039091169063bdfe7d4790612e7f906004016131f6565b602060405180830381865afa158015612e9c573d6000803e3d6000fd5b505050506040513d601f19601f82011682018060405250810190612ec091906131c6565b82546001600160a01b0391821662010000909104909116036130805781548154600184015460405163a9059cbb60e01b81526001600160a01b036201000090940484169363a9059cbb93612f19939116916004016133c8565b6020604051808303816000875af1158015612f38573d6000803e3d6000fd5b505050506040513d601f19601f82011682018060405250810190612f5c9190613346565b612f6557600080fd5b600282015460035460405163bdfe7d4760e01b81526001600160a01b039283169263a9059cbb92169063bdfe7d4790612fa09060040161338c565b602060405180830381865afa158015612fbd573d6000803e3d6000fd5b505050506040513d601f19601f82011682018060405250810190612fe191906131c6565b83600201546040518363ffffffff1660e01b81526004016130039291906133c8565b6020604051808303816000875af1158015613022573d6000803e3d6000fd5b505050506040513d601f19601f820116820180604052508101906130469190613346565b61304f57600080fd5b600182015460028201546040516000805160206134cd83398151915292613077928792613444565b60405180910390a15b50805461ff00191661010017905550565b600080600081546130a19061342b565b918290555060008181526006602081905260408220805460016001600160b01b0319909116620100006001600160a01b039b8c160217811782558101979097556002870180546001600160a01b03191696909816959095179096556003850192909255504260058401819055600484015591019190915590565b6000806040838503121561312e57600080fd5b50508035926020909101359150565b60006020828403121561314f57600080fd5b5035919050565b6020808252602c908201527f61756374696f6e49642069732077726f6e67206f7220697420697320616c726560408201526b18591e48199a5b9a5cda195960a21b606082015260800190565b6020808252600a908201526939ba30b13632a1b7b4b760b11b604082015260600190565b6000602082840312156131d857600080fd5b81516001600160a01b03811681146131ef57600080fd5b9392505050565b6020808252600490820152630eecae8d60e31b604082015260600190565b6020808252601390820152726d696e41756374696f6e50726963654d6f766560681b604082015260600190565b60006020828403121561325357600080fd5b5051919050565b634e487b7160e01b600052601160045260246000fd5b80820180821115611ff257611ff261325a565b8082028115828204841417611ff257611ff261325a565b6000826132b757634e487b7160e01b600052601260045260246000fd5b500490565b6020808252601b908201527a0f2deeae440c4d2c840d2e640dcdee840d0d2ced040cadcdeeaced602b1b604082015260600190565b60208082526004908201526372756c6560e01b604082015260600190565b81810381811115611ff257611ff261325a565b6001600160a01b039384168152919092166020820152604081019190915260600190565b60006020828403121561335857600080fd5b815180151581146131ef57600080fd5b938452602084019290925260408301526001600160a01b0316606082015260800190565b60208082526003908201526206364760ec1b604082015260600190565b92835260208301919091526001600160a01b0316604082015260600190565b6001600160a01b03929092168252602082015260400190565b6020808252602a908201527f77652077657265206e6f742061626c6520746f207472616e7366657220796f756040820152697220626964206261636b60b01b606082015260800190565b60006001820161343d5761343d61325a565b5060010190565b9283526020830191909152604082015260600190565b60208082526018908201527736b0bc21b7b4b739a337b929ba30b134b634bd30ba34b7b760411b60408201526060019056fedb8dd885380749a42d93685c4954d7dd30b146634d3e33f49620084ce98e4e8ffec53f788c9ef6de6841d61017cbcd768a3dbd9dd7cac7b45d42de5589b0a5d7316f148f986c9d3880b02142d215ebfc51857506d0b21ab35f195689ce6d1ceba2646970667358221220983e3778893f9ea01328ad38941c0aaf28e6f06c8ad9026bc8456d4ebc812f3364736f6c63430008130033",
  "immutableReferences": {},
  "source": "// SPDX-License-Identifier: UNLICENSED\r\npragma solidity 0.8.19;\r\nimport \"@openzeppelin/contracts/token/ERC20/IERC20.sol\";\r\n\r\nimport \"./INTDAO.sol\";\r\nimport \"./CDP.sol\";\r\n\r\n    struct auctionEntity {\r\n        bool initialized;\r\n        bool finalized;\r\n        address lotToken;\r\n        uint lotAmount;\r\n        address paymentToken;\r\n        uint256 paymentAmount;\r\n        uint256 initTime;\r\n        uint256 lastTimeUpdated;\r\n        uint256 bestBidId;\r\n        bool isMarginCall;\r\n    }\r\n\r\n    struct Bid {\r\n        address owner;\r\n        uint256 auctionID;\r\n        uint256 bidAmount;\r\n        uint256 time;\r\n        bool canceled;\r\n    }\r\n\r\ncontract Auction {\r\n    uint256 public auctionNum;\r\n    uint256 public bidsNum;\r\n    IERC20 coin;\r\n    INTDAO dao;\r\n    CDP cdp;\r\n    IERC20 rule;\r\n    bool isCoinsBuyOutForStabilization;\r\n    bool ruleBuyOut;\r\n\r\n    mapping(uint256 => auctionEntity) public auctions;\r\n    mapping (uint256 => Bid) public bids;\r\n\r\n    event buyOutInit(uint256 auctionID, uint256 lotAmount, address lotAddress);\r\n    event buyOutFinished(uint256 auctionID, uint256 lotAmount, uint256 bestBid);\r\n    event newBid(uint256 auctionID, uint256 bidId, uint256 bidAmount, address owner);\r\n    event bidCanceled(uint256 bidId);\r\n    event liquidateCollateral(uint256 auctionID, uint256 posID, uint256 collateral);\r\n\r\n    constructor(address payable _INTDAOaddress){\r\n        dao = INTDAO(_INTDAOaddress);\r\n        dao.setAddressOnce(\"auction\", payable(address(this)));\r\n        cdp = CDP(dao.addresses('cdp'));\r\n        coin = IERC20(payable(dao.addresses('stableCoin')));\r\n        rule = IERC20(payable(dao.addresses('rule')));\r\n    }\r\n\r\n    function renewContracts() external {\r\n        coin = IERC20(payable(dao.addresses('stableCoin')));\r\n        cdp = CDP(dao.addresses('cdp'));\r\n        rule = IERC20(payable(dao.addresses('rule')));\r\n    }\r\n\r\n    function initRuleBuyOut() external returns (uint256 auctionID){\r\n        require (!ruleBuyOut, \"Rule buyOut auction already exist\");\r\n\r\n        uint256 allowed = coin.allowance(dao.addresses('cdp'), address(this));\r\n        require (allowed>0, \"Can not transfer surplus from CDP\");\r\n\r\n        coin.transferFrom(dao.addresses('cdp'), address(this), allowed);\r\n\r\n        auctionID = createNewAuction(dao.addresses('stableCoin'), allowed, dao.addresses('rule'), 0);\r\n        ruleBuyOut = true;\r\n\r\n        emit buyOutInit(auctionID, allowed, dao.addresses('stableCoin'));\r\n        return auctionID;\r\n    }\r\n\r\n    function initCoinsBuyOutForStabilization(uint256 coinsAmountNeeded) external returns (uint256 auctionID){\r\n        require (!isCoinsBuyOutForStabilization, \"CoinsBuyOutForStabilization already exists and not finished\");\r\n        uint256 actualStabilizationFund = coin.balanceOf(address(cdp));\r\n        uint256 preferableStabilizationFund = coin.totalSupply() * dao.params(\"stabilizationFundPercent\")/100;\r\n        require (actualStabilizationFund<preferableStabilizationFund, \"not so low to init Rule emission\");\r\n\r\n        if (coinsAmountNeeded > preferableStabilizationFund - actualStabilizationFund)\r\n            coinsAmountNeeded = preferableStabilizationFund - actualStabilizationFund;\r\n        if (coinsAmountNeeded>dao.params(\"maxCoinsForStabilization\"))\r\n            coinsAmountNeeded = dao.params(\"maxCoinsForStabilization\");\r\n\r\n        auctionID = createNewAuction(dao.addresses('rule'), 0, dao.addresses('stableCoin'), coinsAmountNeeded);\r\n        isCoinsBuyOutForStabilization = true;\r\n\r\n        emit buyOutInit(auctionID, 0, dao.addresses('rule'));\r\n        return auctionID;\r\n    }\r\n\r\n    function initCoinsBuyOut(uint256 posID, uint256 collateral) external returns (uint256 auctionID){\r\n        require (msg.sender == dao.addresses('cdp'), \"Only CDP contract may invoke this method. Please, use startCoinsBuyOut in CDP contract\");\r\n        ERC20 weth = ERC20(dao.addresses('weth'));\r\n        require(weth.transferFrom(dao.addresses('cdp'), address(this), collateral), \"could not transfer weth for some reason\");\r\n\r\n        auctionID = createNewAuction (dao.addresses('weth'), collateral, dao.addresses('stableCoin'),0);\r\n        auctions[auctionID].isMarginCall = true;\r\n        emit liquidateCollateral(auctionID, posID, collateral);\r\n\r\n        return auctionID;\r\n    }\r\n\r\n    function createNewAuction(address lotToken, uint256 lotAmount, address paymentToken, uint256 paymentAmount) internal returns (uint256 auctionID){\r\n        auctionID = ++auctionNum;\r\n        auctionEntity storage a = auctions[auctionID];\r\n\r\n        a.initialized = true;\r\n        a.finalized = false;\r\n        a.lotToken = lotToken;\r\n        a.lotAmount = lotAmount;\r\n        a.paymentToken = paymentToken;\r\n        a.paymentAmount = paymentAmount;\r\n        a.lastTimeUpdated = block.timestamp;\r\n        a.initTime = block.timestamp;\r\n        a.bestBidId = 0;\r\n        return auctionID;\r\n    }\r\n\r\n    function makeBid(uint256 auctionId, uint256 bidAmount) external returns (uint256 bidId){\r\n        auctionEntity storage a = auctions[auctionId];\r\n        require(a.initialized&&!a.finalized, \"auctionId is wrong or it is already finished\");\r\n\r\n        if (a.bestBidId!=0){\r\n            Bid storage bestBid = bids[a.bestBidId];\r\n            if (a.lotToken == dao.addresses('stableCoin') || a.lotToken == dao.addresses('weth'))\r\n                require(bidAmount>0 && bestBid.bidAmount*(100+dao.params('minAuctionPriceMove'))/100<=bidAmount, \"your bid is not high enough\");\r\n            if (a.lotToken == dao.addresses('rule'))\r\n                require(bidAmount>0 && bestBid.bidAmount*(100-dao.params('minAuctionPriceMove'))/100>=bidAmount, \"your bid is not low enough\");\r\n        }\r\n        require(bidAmount>0, \"your bid is not high enough\");\r\n        ERC20 paymentToken = ERC20(address(a.paymentToken));\r\n        if (a.lotToken == dao.addresses('rule')){\r\n            require(bidAmount<=rule.totalSupply()*dao.params('maxRuleEmissionPercent')/100, \"too many rules for one emission\");\r\n            require(paymentToken.transferFrom(msg.sender, address(this), a.paymentAmount), \"You should first approve stableCoins to auction contract address\");\r\n        }\r\n        else\r\n            require(paymentToken.transferFrom(msg.sender, address(this), bidAmount), \"You should first approve bidAmount to auction contract address\");\r\n\r\n        bidId = ++bidsNum;\r\n        Bid storage b = bids[bidId];\r\n        b.owner = msg.sender;\r\n        b.auctionID = auctionId;\r\n        b.bidAmount = bidAmount;\r\n        b.time = block.timestamp;\r\n        b.canceled = false;\r\n\r\n        a.bestBidId = bidId;\r\n        a.lastTimeUpdated = block.timestamp;\r\n        emit newBid(auctionId, bidId, bidAmount, b.owner);\r\n        return bidId;\r\n    }\r\n\r\n    function improveBid(uint256 bidId, uint256 newBidAmount) external{\r\n        Bid storage b = bids[bidId];\r\n        require(b.owner == msg.sender, \"You may improve only your personal bids\");\r\n        auctionEntity storage a = auctions[b.auctionID];\r\n        require(a.initialized&&!a.finalized, \"auctionId is wrong or it is already finished\");\r\n        Bid storage bestBid = bids[a.bestBidId];\r\n\r\n        if (a.lotToken == dao.addresses('stableCoin') || a.lotToken == dao.addresses('weth'))\r\n            require(newBidAmount>0 && bestBid.bidAmount*(100+dao.params('minAuctionPriceMove'))/100<=newBidAmount, \"your bid is not high enough\");\r\n        if (a.lotToken == dao.addresses('rule'))\r\n            require(newBidAmount>0 && bestBid.bidAmount*(100-dao.params('minAuctionPriceMove'))/100>=newBidAmount, \"your bid is not high enough\");\r\n\r\n        ERC20 paymentToken = ERC20(address(a.paymentToken));\r\n\r\n        if (a.lotToken == dao.addresses('stableCoin') || a.lotToken == dao.addresses('weth')){\r\n            uint256 difference = newBidAmount-b.bidAmount;\r\n            require(paymentToken.transferFrom(msg.sender, address(this), difference), \"You should first approve payment to auction contract address\");\r\n        }\r\n\r\n        b.bidAmount = newBidAmount;\r\n        a.lastTimeUpdated = block.timestamp;\r\n        a.bestBidId = bidId;\r\n        emit newBid(b.auctionID, bidId, newBidAmount, b.owner);\r\n    }\r\n\r\n    function cancelBid(uint256 bidId) external{\r\n        Bid storage b = bids[bidId];\r\n        require (b.owner==msg.sender && !b.canceled, \"Only bid owner may cancel it, if it wasn't canceled earlier\");\r\n        auctionEntity storage a = auctions[b.auctionID];\r\n        require(a.initialized, \"the bid is made on non-existent auction\");\r\n        require(a.bestBidId!=bidId, \"You can not cancel a bid if it is a best one\");\r\n        ERC20 paymentToken = ERC20(address(a.paymentToken));\r\n        if (a.lotToken == dao.addresses('rule'))\r\n            require(paymentToken.transfer(b.owner, a.paymentAmount), \"we were not able to transfer your bid back\");\r\n        else\r\n            require(paymentToken.transfer(b.owner, b.bidAmount), \"we were not able to transfer your bid back\");\r\n        emit bidCanceled(bidId);\r\n        b.canceled = true;\r\n    }\r\n\r\n    function claimToFinalizeAuction(uint256 auctionID) external returns (bool success){\r\n        auctionEntity storage a = auctions[auctionID];\r\n        if (a.isMarginCall)\r\n            require (msg.sender == dao.addresses('cdp'), \"Only CDP contract may finish this auction. Please, use finishMarginCall method.\");\r\n\r\n        require(a.initialized && !a.finalized, \"the auction is finished or non-existent\");\r\n        require(block.timestamp-a.lastTimeUpdated>=dao.params('auctionTurnDuration'), \"it is too early to finalize, wait a bit\");\r\n        require(a.bestBidId!=0 && a.initTime!=a.lastTimeUpdated, \"there should be at least one bid\");\r\n\r\n        finalizeAuction(auctionID);\r\n        return true;\r\n    }\r\n\r\n    function finalizeAuction(uint256 auctionID) internal {\r\n        auctionEntity storage a = auctions[auctionID];\r\n        Bid storage bestBid = bids[a.bestBidId];\r\n\r\n        if (a.lotToken == dao.addresses('stableCoin')){\r\n            require(ERC20(address(a.lotToken)).transfer(bestBid.owner, a.lotAmount), \"lotToken transfer failed for some reason\");\r\n            require(ERC20(address(a.paymentToken)).transfer(dao.addresses('cdp'), bestBid.bidAmount), \"paymentToken transfer failed for some reason\");\r\n            ruleBuyOut = false;\r\n            emit buyOutFinished(auctionID, a.lotAmount, bestBid.bidAmount);\r\n        }\r\n        if (a.lotToken == dao.addresses('rule')){\r\n            require(cdp.mintRule(bestBid.owner, bestBid.bidAmount), \"could not mint rule\");\r\n            require(coin.transfer(dao.addresses('cdp'), a.paymentAmount), \"could not transfer coins\");\r\n            isCoinsBuyOutForStabilization = false;\r\n        }\r\n        if (a.lotToken == dao.addresses('weth')){\r\n            require(ERC20(address(a.lotToken)).transfer(bestBid.owner, a.lotAmount));\r\n            require(ERC20(address(a.paymentToken)).transfer(dao.addresses('cdp'), bestBid.bidAmount));\r\n            emit buyOutFinished(auctionID, a.lotAmount, bestBid.bidAmount);\r\n        }\r\n        a.finalized = true;\r\n    }\r\n\r\n    function isFinalized(uint256 auctionId) public view returns (bool finalized){\r\n        return auctions[auctionId].finalized;\r\n    }\r\n\r\n    function getPaymentAmount(uint256 auctionID) public view returns (uint256){\r\n        return auctions[auctionID].paymentAmount;\r\n    }\r\n\r\n    function getBestBidAmount (uint256 auctionID) public view returns (uint256){\r\n        return bids[auctions[auctionID].bestBidId].bidAmount;\r\n    }\r\n\r\n    receive() external payable {}\r\n\r\n    function withdraw() external {\r\n        dao.addresses('oracle').transfer(address(this).balance);\r\n    }\r\n}\r\n",
  "sourcePath": "C:\\Users\\d.nagornykh\\YandexDisk\\\\ICO\\CryptoFiat\\repo\\contracts\\Auction.sol",
  "compiler": {
    "name": "solc",
    "version": "0.8.19+commit.7dd6d404.Emscripten.clang"
  },
  "schemaVersion": "3.4.14",
  "updatedAt": "2023-08-11T06:20:07.168Z",
  "devdoc": {
    "kind": "dev",
    "methods": {},
    "version": 1
  },
  "userdoc": {
    "kind": "user",
    "methods": {},
    "version": 1
  }
}