{
  "contractName": "Auction",
  "abi": [
    {
      "inputs": [
        {
          "internalType": "address payable",
          "name": "_INTDAOaddress",
          "type": "address"
        }
      ],
      "stateMutability": "nonpayable",
      "type": "constructor"
    },
    {
      "anonymous": false,
      "inputs": [
        {
          "indexed": false,
          "internalType": "uint256",
          "name": "bidId",
          "type": "uint256"
        }
      ],
      "name": "bidCanceled",
      "type": "event"
    },
    {
      "anonymous": false,
      "inputs": [
        {
          "indexed": false,
          "internalType": "uint256",
          "name": "auctionID",
          "type": "uint256"
        },
        {
          "indexed": false,
          "internalType": "uint256",
          "name": "lotAmount",
          "type": "uint256"
        },
        {
          "indexed": false,
          "internalType": "uint256",
          "name": "bestBid",
          "type": "uint256"
        }
      ],
      "name": "buyOutFinished",
      "type": "event"
    },
    {
      "anonymous": false,
      "inputs": [
        {
          "indexed": false,
          "internalType": "uint256",
          "name": "auctionID",
          "type": "uint256"
        },
        {
          "indexed": false,
          "internalType": "uint256",
          "name": "lotAmount",
          "type": "uint256"
        },
        {
          "indexed": false,
          "internalType": "address",
          "name": "lotAddress",
          "type": "address"
        }
      ],
      "name": "buyOutInit",
      "type": "event"
    },
    {
      "anonymous": false,
      "inputs": [
        {
          "indexed": false,
          "internalType": "uint256",
          "name": "auctionID",
          "type": "uint256"
        },
        {
          "indexed": false,
          "internalType": "uint256",
          "name": "posID",
          "type": "uint256"
        },
        {
          "indexed": false,
          "internalType": "uint256",
          "name": "collateral",
          "type": "uint256"
        }
      ],
      "name": "liquidateCollateral",
      "type": "event"
    },
    {
      "anonymous": false,
      "inputs": [
        {
          "indexed": false,
          "internalType": "uint256",
          "name": "auctionID",
          "type": "uint256"
        },
        {
          "indexed": false,
          "internalType": "uint256",
          "name": "bidId",
          "type": "uint256"
        },
        {
          "indexed": false,
          "internalType": "uint256",
          "name": "bidAmount",
          "type": "uint256"
        },
        {
          "indexed": false,
          "internalType": "address",
          "name": "owner",
          "type": "address"
        }
      ],
      "name": "newBid",
      "type": "event"
    },
    {
      "inputs": [],
      "name": "auctionNum",
      "outputs": [
        {
          "internalType": "uint256",
          "name": "",
          "type": "uint256"
        }
      ],
      "stateMutability": "view",
      "type": "function"
    },
    {
      "inputs": [
        {
          "internalType": "uint256",
          "name": "",
          "type": "uint256"
        }
      ],
      "name": "auctions",
      "outputs": [
        {
          "internalType": "bool",
          "name": "initialized",
          "type": "bool"
        },
        {
          "internalType": "bool",
          "name": "finalized",
          "type": "bool"
        },
        {
          "internalType": "address",
          "name": "lotToken",
          "type": "address"
        },
        {
          "internalType": "uint256",
          "name": "lotAmount",
          "type": "uint256"
        },
        {
          "internalType": "address",
          "name": "paymentToken",
          "type": "address"
        },
        {
          "internalType": "uint256",
          "name": "paymentAmount",
          "type": "uint256"
        },
        {
          "internalType": "uint256",
          "name": "initTime",
          "type": "uint256"
        },
        {
          "internalType": "uint256",
          "name": "lastTimeUpdated",
          "type": "uint256"
        },
        {
          "internalType": "uint256",
          "name": "bestBidId",
          "type": "uint256"
        },
        {
          "internalType": "bool",
          "name": "isMarginCall",
          "type": "bool"
        }
      ],
      "stateMutability": "view",
      "type": "function"
    },
    {
      "inputs": [
        {
          "internalType": "uint256",
          "name": "",
          "type": "uint256"
        }
      ],
      "name": "bids",
      "outputs": [
        {
          "internalType": "address",
          "name": "owner",
          "type": "address"
        },
        {
          "internalType": "uint256",
          "name": "auctionID",
          "type": "uint256"
        },
        {
          "internalType": "uint256",
          "name": "bidAmount",
          "type": "uint256"
        },
        {
          "internalType": "uint256",
          "name": "time",
          "type": "uint256"
        },
        {
          "internalType": "bool",
          "name": "canceled",
          "type": "bool"
        }
      ],
      "stateMutability": "view",
      "type": "function"
    },
    {
      "inputs": [],
      "name": "bidsNum",
      "outputs": [
        {
          "internalType": "uint256",
          "name": "",
          "type": "uint256"
        }
      ],
      "stateMutability": "view",
      "type": "function"
    },
    {
      "inputs": [],
      "name": "renewContracts",
      "outputs": [],
      "stateMutability": "nonpayable",
      "type": "function"
    },
    {
      "inputs": [],
      "name": "initRuleBuyOut",
      "outputs": [
        {
          "internalType": "uint256",
          "name": "auctionID",
          "type": "uint256"
        }
      ],
      "stateMutability": "nonpayable",
      "type": "function"
    },
    {
      "inputs": [
        {
          "internalType": "uint256",
          "name": "coinsAmountNeeded",
          "type": "uint256"
        }
      ],
      "name": "initCoinsBuyOutForStabilization",
      "outputs": [
        {
          "internalType": "uint256",
          "name": "auctionID",
          "type": "uint256"
        }
      ],
      "stateMutability": "nonpayable",
      "type": "function"
    },
    {
      "inputs": [
        {
          "internalType": "uint256",
          "name": "posID",
          "type": "uint256"
        },
        {
          "internalType": "uint256",
          "name": "collateral",
          "type": "uint256"
        }
      ],
      "name": "initCoinsBuyOut",
      "outputs": [
        {
          "internalType": "uint256",
          "name": "auctionID",
          "type": "uint256"
        }
      ],
      "stateMutability": "nonpayable",
      "type": "function"
    },
    {
      "inputs": [
        {
          "internalType": "uint256",
          "name": "auctionId",
          "type": "uint256"
        },
        {
          "internalType": "uint256",
          "name": "bidAmount",
          "type": "uint256"
        }
      ],
      "name": "makeBid",
      "outputs": [
        {
          "internalType": "uint256",
          "name": "bidId",
          "type": "uint256"
        }
      ],
      "stateMutability": "nonpayable",
      "type": "function"
    },
    {
      "inputs": [
        {
          "internalType": "uint256",
          "name": "bidId",
          "type": "uint256"
        },
        {
          "internalType": "uint256",
          "name": "newBidAmount",
          "type": "uint256"
        }
      ],
      "name": "improveBid",
      "outputs": [],
      "stateMutability": "nonpayable",
      "type": "function"
    },
    {
      "inputs": [
        {
          "internalType": "uint256",
          "name": "bidId",
          "type": "uint256"
        }
      ],
      "name": "cancelBid",
      "outputs": [],
      "stateMutability": "nonpayable",
      "type": "function"
    },
    {
      "inputs": [
        {
          "internalType": "uint256",
          "name": "auctionID",
          "type": "uint256"
        }
      ],
      "name": "claimToFinalizeAuction",
      "outputs": [
        {
          "internalType": "bool",
          "name": "success",
          "type": "bool"
        }
      ],
      "stateMutability": "nonpayable",
      "type": "function"
    },
    {
      "inputs": [
        {
          "internalType": "uint256",
          "name": "auctionId",
          "type": "uint256"
        }
      ],
      "name": "isFinalized",
      "outputs": [
        {
          "internalType": "bool",
          "name": "finalized",
          "type": "bool"
        }
      ],
      "stateMutability": "view",
      "type": "function"
    },
    {
      "inputs": [
        {
          "internalType": "uint256",
          "name": "auctionID",
          "type": "uint256"
        }
      ],
      "name": "getPaymentAmount",
      "outputs": [
        {
          "internalType": "uint256",
          "name": "",
          "type": "uint256"
        }
      ],
      "stateMutability": "view",
      "type": "function"
    },
    {
      "inputs": [
        {
          "internalType": "uint256",
          "name": "auctionID",
          "type": "uint256"
        }
      ],
      "name": "getBestBidAmount",
      "outputs": [
        {
          "internalType": "uint256",
          "name": "",
          "type": "uint256"
        }
      ],
      "stateMutability": "view",
      "type": "function"
    }
  ],
  "bytecode": "0x60806040523480156200001157600080fd5b506040516200367d3803806200367d8339810160408190526200003491620002c3565b600380546001600160a01b0319166001600160a01b0383169081179091556040805163155ef82760e11b81526004810191909152600760448201526630bab1ba34b7b760c91b6064820152306024820152632abdf04e90608401600060405180830381600087803b158015620000a957600080fd5b505af1158015620000be573d6000803e3d6000fd5b50506003805460405163bdfe7d4760e01b81526020600482015260248101929092526206364760ec1b60448301526001600160a01b0316925063bdfe7d479150606401602060405180830381865afa1580156200011f573d6000803e3d6000fd5b505050506040513d601f19601f82011682018060405250810190620001459190620002c3565b600480546001600160a01b039283166001600160a01b031990911617815560035460405163bdfe7d4760e01b815292169163bdfe7d4791620001a691016020808252600a908201526939ba30b13632a1b7b4b760b11b604082015260600190565b602060405180830381865afa158015620001c4573d6000803e3d6000fd5b505050506040513d601f19601f82011682018060405250810190620001ea9190620002c3565b600280546001600160a01b0319166001600160a01b0392831617905560035460405163bdfe7d4760e01b8152602060048083019190915260248201526372756c6560e01b604482015291169063bdfe7d4790606401602060405180830381865afa1580156200025d573d6000803e3d6000fd5b505050506040513d601f19601f82011682018060405250810190620002839190620002c3565b600580546001600160a01b0319166001600160a01b039290921691909117905550620002ea565b6001600160a01b0381168114620002c057600080fd5b50565b600060208284031215620002d657600080fd5b8151620002e381620002aa565b9392505050565b61338380620002fa6000396000f3fe608060405234801561001057600080fd5b50600436106100c55760003560e01c806303ad0a01146100ca57806323d86a65146100df57806333727c4d146100e7578063378096c0146101245780634423c5f11461013b578063571a26a0146101b957806365d089a81461028657806368a720b8146102b85780637343950a146102db57806383b1e1f2146102ee5780639703ef35146102f6578063adfcdc1114610309578063c0219ad91461031c578063e2a89c0c1461032f578063f85badde14610338575b600080fd5b6100dd6100d8366004612f7c565b61034b565b005b6100dd6109ba565b61010f6100f5366004612f9e565b600090815260066020526040902054610100900460ff1690565b60405190151581526020015b60405180910390f35b61012d60015481565b60405190815260200161011b565b610185610149366004612f9e565b600760205260009081526040902080546001820154600283015460038401546004909401546001600160a01b0390931693919290919060ff1685565b604080516001600160a01b03909616865260208601949094529284019190915260608301521515608082015260a00161011b565b6102296101c7366004612f9e565b60066020819052600091825260409091208054600182015460028301546003840154600485015460058601549686015460079096015460ff808716986101008804821698620100009098046001600160a01b039081169896169590929091168a565b604080519a15158b5298151560208b01526001600160a01b03978816988a0198909852606089019590955294909216608087015260a086015260c085015260e084019190915261010083015215156101208201526101400161011b565b61012d610294366004612f9e565b60009081526006602081815260408084209092015483526007905290206002015490565b61012d6102c6366004612f9e565b60009081526006602052604090206003015490565b61010f6102e9366004612f9e565b610b4d565b61012d610e5f565b6100dd610304366004612f9e565b611287565b61012d610317366004612f7c565b61160a565b61012d61032a366004612f7c565b611e59565b61012d60005481565b61012d610346366004612f9e565b61221a565b600082815260076020526040902080546001600160a01b031633146103c75760405162461bcd60e51b815260206004820152602760248201527f596f75206d617920696d70726f7665206f6e6c7920796f757220706572736f6e604482015266616c206269647360c81b60648201526084015b60405180910390fd5b60018101546000908152600660205260409020805460ff1680156103f257508054610100900460ff16155b61040e5760405162461bcd60e51b81526004016103be90612fb7565b600681015460009081526007602052604090819020600354915163bdfe7d4760e01b815290916001600160a01b03169063bdfe7d479061045090600401613003565b602060405180830381865afa15801561046d573d6000803e3d6000fd5b505050506040513d601f19601f820116820180604052508101906104919190613027565b82546201000090046001600160a01b0390811691161480610533575060035460405163bdfe7d4760e01b81526001600160a01b039091169063bdfe7d47906104db90600401613057565b602060405180830381865afa1580156104f8573d6000803e3d6000fd5b505050506040513d601f19601f8201168201806040525081019061051c9190613027565b82546201000090046001600160a01b039081169116145b156105fa576000841180156105de575060035460405163145f822b60e01b815285916064916001600160a01b039091169063145f822b9061057690600401613075565b602060405180830381865afa158015610593573d6000803e3d6000fd5b505050506040513d601f19601f820116820180604052508101906105b791906130a2565b6105c29060646130d1565b83600201546105d191906130e4565b6105db91906130fb565b11155b6105fa5760405162461bcd60e51b81526004016103be9061311d565b60035460405163bdfe7d4760e01b81526001600160a01b039091169063bdfe7d479061062890600401613152565b602060405180830381865afa158015610645573d6000803e3d6000fd5b505050506040513d601f19601f820116820180604052508101906106699190613027565b82546001600160a01b0391821662010000909104909116036107475760008411801561072b575060035460405163145f822b60e01b815285916064916001600160a01b039091169063145f822b906106c390600401613075565b602060405180830381865afa1580156106e0573d6000803e3d6000fd5b505050506040513d601f19601f8201168201806040525081019061070491906130a2565b61070f906064613170565b836002015461071e91906130e4565b61072891906130fb565b10155b6107475760405162461bcd60e51b81526004016103be9061311d565b600282015460035460405163bdfe7d4760e01b81526001600160a01b03928316929091169063bdfe7d479061077e90600401613003565b602060405180830381865afa15801561079b573d6000803e3d6000fd5b505050506040513d601f19601f820116820180604052508101906107bf9190613027565b83546201000090046001600160a01b0390811691161480610861575060035460405163bdfe7d4760e01b81526001600160a01b039091169063bdfe7d479061080990600401613057565b602060405180830381865afa158015610826573d6000803e3d6000fd5b505050506040513d601f19601f8201168201806040525081019061084a9190613027565b83546201000090046001600160a01b039081169116145b156109615760008460020154866108789190613170565b6040516323b872dd60e01b81529091506001600160a01b038316906323b872dd906108ab90339030908690600401613183565b6020604051808303816000875af11580156108ca573d6000803e3d6000fd5b505050506040513d601f19601f820116820180604052508101906108ee91906131a7565b61095f5760405162461bcd60e51b815260206004820152603c60248201527f596f752073686f756c6420666972737420617070726f7665207061796d656e7460448201527b20746f2061756374696f6e20636f6e7472616374206164647265737360201b60648201526084016103be565b505b60028401859055426005840155600683018690556001840154845460405160008051602061330e833981519152926109aa9290918a918a916001600160a01b03909116906131c9565b60405180910390a1505050505050565b60035460405163bdfe7d4760e01b81526001600160a01b039091169063bdfe7d47906109e890600401613003565b602060405180830381865afa158015610a05573d6000803e3d6000fd5b505050506040513d601f19601f82011682018060405250810190610a299190613027565b600280546001600160a01b0319166001600160a01b0392831617905560035460405163bdfe7d4760e01b815291169063bdfe7d4790610a6a906004016131ed565b602060405180830381865afa158015610a87573d6000803e3d6000fd5b505050506040513d601f19601f82011682018060405250810190610aab9190613027565b600480546001600160a01b0319166001600160a01b0392831617815560035460405163bdfe7d4760e01b815292169163bdfe7d4791610aea9101613152565b602060405180830381865afa158015610b07573d6000803e3d6000fd5b505050506040513d601f19601f82011682018060405250810190610b2b9190613027565b600580546001600160a01b0319166001600160a01b0392909216919091179055565b6000818152600660205260408120600781015460ff1615610c755760035460405163bdfe7d4760e01b81526001600160a01b039091169063bdfe7d4790610b96906004016131ed565b602060405180830381865afa158015610bb3573d6000803e3d6000fd5b505050506040513d601f19601f82011682018060405250810190610bd79190613027565b6001600160a01b0316336001600160a01b031614610c755760405162461bcd60e51b815260206004820152604f60248201527f4f6e6c792043445020636f6e7472616374206d61792066696e6973682074686960448201527f732061756374696f6e2e20506c656173652c207573652066696e6973684d617260648201526e33b4b721b0b6361036b2ba3437b21760891b608482015260a4016103be565b805460ff168015610c8d57508054610100900460ff16155b610ce95760405162461bcd60e51b815260206004820152602760248201527f7468652061756374696f6e2069732066696e6973686564206f72206e6f6e2d656044820152661e1a5cdd195b9d60ca1b60648201526084016103be565b60035460405163145f822b60e01b815260206004820152601360248201527230bab1ba34b7b72a3ab937223ab930ba34b7b760691b60448201526001600160a01b039091169063145f822b90606401602060405180830381865afa158015610d55573d6000803e3d6000fd5b505050506040513d601f19601f82011682018060405250810190610d7991906130a2565b6005820154610d889042613170565b1015610de65760405162461bcd60e51b815260206004820152602760248201527f697420697320746f6f206561726c7920746f2066696e616c697a652c207761696044820152661d081848189a5d60ca1b60648201526084016103be565b600681015415801590610e0157508060050154816004015414155b610e4d5760405162461bcd60e51b815260206004820181905260248201527f74686572652073686f756c64206265206174206c65617374206f6e652062696460448201526064016103be565b610e568361272c565b50600192915050565b600554600090600160a81b900460ff1615610ec65760405162461bcd60e51b815260206004820152602160248201527f52756c65206275794f75742061756374696f6e20616c726561647920657869736044820152601d60fa1b60648201526084016103be565b60025460035460405163bdfe7d4760e01b81526000926001600160a01b039081169263dd62ed3e9291169063bdfe7d4790610f03906004016131ed565b602060405180830381865afa158015610f20573d6000803e3d6000fd5b505050506040513d601f19601f82011682018060405250810190610f449190613027565b6040516001600160e01b031960e084901b1681526001600160a01b039091166004820152306024820152604401602060405180830381865afa158015610f8e573d6000803e3d6000fd5b505050506040513d601f19601f82011682018060405250810190610fb291906130a2565b90506000811161100e5760405162461bcd60e51b815260206004820152602160248201527f43616e206e6f74207472616e7366657220737572706c75732066726f6d2043446044820152600560fc1b60648201526084016103be565b60025460035460405163bdfe7d4760e01b81526001600160a01b03928316926323b872dd92169063bdfe7d4790611047906004016131ed565b602060405180830381865afa158015611064573d6000803e3d6000fd5b505050506040513d601f19601f820116820180604052508101906110889190613027565b30846040518463ffffffff1660e01b81526004016110a893929190613183565b6020604051808303816000875af11580156110c7573d6000803e3d6000fd5b505050506040513d601f19601f820116820180604052508101906110eb91906131a7565b5060035460405163bdfe7d4760e01b81526111d3916001600160a01b03169063bdfe7d479061111c90600401613003565b602060405180830381865afa158015611139573d6000803e3d6000fd5b505050506040513d601f19601f8201168201806040525081019061115d9190613027565b60035460405163bdfe7d4760e01b815284916001600160a01b03169063bdfe7d479061118b90600401613152565b602060405180830381865afa1580156111a8573d6000803e3d6000fd5b505050506040513d601f19601f820116820180604052508101906111cc9190613027565b6000612ef2565b6005805460ff60a81b1916600160a81b17905560035460405163bdfe7d4760e01b81529193506000805160206132ee83398151915291849184916001600160a01b039091169063bdfe7d479061122b90600401613003565b602060405180830381865afa158015611248573d6000803e3d6000fd5b505050506040513d601f19601f8201168201806040525081019061126c9190613027565b60405161127b9392919061320a565b60405180910390a15090565b600081815260076020526040902080546001600160a01b0316331480156112b35750600481015460ff16155b6113235760405162461bcd60e51b815260206004820152603b60248201527f4f6e6c7920626964206f776e6572206d61792063616e63656c2069742c20696660448201527a1034ba103bb0b9b713ba1031b0b731b2b632b21032b0b93634b2b960291b60648201526084016103be565b60018101546000908152600660205260409020805460ff166113975760405162461bcd60e51b815260206004820152602760248201527f74686520626964206973206d616465206f6e206e6f6e2d6578697374656e742060448201526630bab1ba34b7b760c91b60648201526084016103be565b828160060154036113ff5760405162461bcd60e51b815260206004820152602c60248201527f596f752063616e206e6f742063616e63656c206120626964206966206974206960448201526b7320612062657374206f6e6560a01b60648201526084016103be565b600281015460035460405163bdfe7d4760e01b81526001600160a01b03928316929091169063bdfe7d479061143690600401613152565b602060405180830381865afa158015611453573d6000803e3d6000fd5b505050506040513d601f19601f820116820180604052508101906114779190613027565b82546001600160a01b03918216620100009091049091160361152e578254600383015460405163a9059cbb60e01b81526001600160a01b038481169363a9059cbb936114ca939290911691600401613229565b6020604051808303816000875af11580156114e9573d6000803e3d6000fd5b505050506040513d601f19601f8201168201806040525081019061150d91906131a7565b6115295760405162461bcd60e51b81526004016103be90613242565b6115c4565b8254600284015460405163a9059cbb60e01b81526001600160a01b038481169363a9059cbb93611565939290911691600401613229565b6020604051808303816000875af1158015611584573d6000803e3d6000fd5b505050506040513d601f19601f820116820180604052508101906115a891906131a7565b6115c45760405162461bcd60e51b81526004016103be90613242565b6040518481527ffac423451217205d5c65185b7a90cc7d957ec2dd791403d541d2c4460f9d8f379060200160405180910390a15050600401805460ff1916600117905550565b6000828152600660205260408120805460ff16801561163057508054610100900460ff16155b61164c5760405162461bcd60e51b81526004016103be90612fb7565b6006810154156119be57600681015460009081526007602052604090819020600354915163bdfe7d4760e01b815290916001600160a01b03169063bdfe7d479061169890600401613003565b602060405180830381865afa1580156116b5573d6000803e3d6000fd5b505050506040513d601f19601f820116820180604052508101906116d99190613027565b82546201000090046001600160a01b039081169116148061177b575060035460405163bdfe7d4760e01b81526001600160a01b039091169063bdfe7d479061172390600401613057565b602060405180830381865afa158015611740573d6000803e3d6000fd5b505050506040513d601f19601f820116820180604052508101906117649190613027565b82546201000090046001600160a01b039081169116145b1561184257600084118015611826575060035460405163145f822b60e01b815285916064916001600160a01b039091169063145f822b906117be90600401613075565b602060405180830381865afa1580156117db573d6000803e3d6000fd5b505050506040513d601f19601f820116820180604052508101906117ff91906130a2565b61180a9060646130d1565b836002015461181991906130e4565b61182391906130fb565b11155b6118425760405162461bcd60e51b81526004016103be9061311d565b60035460405163bdfe7d4760e01b81526001600160a01b039091169063bdfe7d479061187090600401613152565b602060405180830381865afa15801561188d573d6000803e3d6000fd5b505050506040513d601f19601f820116820180604052508101906118b19190613027565b82546001600160a01b0391821662010000909104909116036119bc57600084118015611973575060035460405163145f822b60e01b815285916064916001600160a01b039091169063145f822b9061190b90600401613075565b602060405180830381865afa158015611928573d6000803e3d6000fd5b505050506040513d601f19601f8201168201806040525081019061194c91906130a2565b611957906064613170565b836002015461196691906130e4565b61197091906130fb565b10155b6119bc5760405162461bcd60e51b815260206004820152601a6024820152790f2deeae440c4d2c840d2e640dcdee840d8deee40cadcdeeaced60331b60448201526064016103be565b505b600083116119de5760405162461bcd60e51b81526004016103be9061311d565b600281015460035460405163bdfe7d4760e01b81526001600160a01b03928316929091169063bdfe7d4790611a1590600401613152565b602060405180830381865afa158015611a32573d6000803e3d6000fd5b505050506040513d601f19601f82011682018060405250810190611a569190613027565b82546001600160a01b039182166201000090910490911603611ccf5760035460405163145f822b60e01b81526020600482015260166024820152751b585e149d5b19515b5a5cdcda5bdb94195c98d95b9d60521b60448201526064916001600160a01b03169063145f822b908301602060405180830381865afa158015611ae1573d6000803e3d6000fd5b505050506040513d601f19601f82011682018060405250810190611b0591906130a2565b600560009054906101000a90046001600160a01b03166001600160a01b03166318160ddd6040518163ffffffff1660e01b8152600401602060405180830381865afa158015611b58573d6000803e3d6000fd5b505050506040513d601f19601f82011682018060405250810190611b7c91906130a2565b611b8691906130e4565b611b9091906130fb565b841115611bdf5760405162461bcd60e51b815260206004820152601f60248201527f746f6f206d616e792072756c657320666f72206f6e6520656d697373696f6e0060448201526064016103be565b60038201546040516323b872dd60e01b81526001600160a01b038316916323b872dd91611c13913391309190600401613183565b6020604051808303816000875af1158015611c32573d6000803e3d6000fd5b505050506040513d601f19601f82011682018060405250810190611c5691906131a7565b611cca576040805162461bcd60e51b81526020600482015260248101919091527f596f752073686f756c6420666972737420617070726f766520737461626c654360448201527f6f696e7320746f2061756374696f6e20636f6e7472616374206164647265737360648201526084016103be565b611db4565b6040516323b872dd60e01b81526001600160a01b038216906323b872dd90611cff90339030908990600401613183565b6020604051808303816000875af1158015611d1e573d6000803e3d6000fd5b505050506040513d601f19601f82011682018060405250810190611d4291906131a7565b611db45760405162461bcd60e51b815260206004820152603e60248201527f596f752073686f756c6420666972737420617070726f766520626964416d6f7560448201527f6e7420746f2061756374696f6e20636f6e74726163742061646472657373000060648201526084016103be565b600160008154611dc39061328c565b91829055506000818152600760205260409081902080546001600160a01b031916331781556001810188905560028101879055426003820181905560048201805460ff19169055600686018490556005860155805491519295509160008051602061330e83398151915291611e4791899188918a916001600160a01b0316906131c9565b60405180910390a15050505b92915050565b60035460405163bdfe7d4760e01b81526000916001600160a01b03169063bdfe7d4790611e88906004016131ed565b602060405180830381865afa158015611ea5573d6000803e3d6000fd5b505050506040513d601f19601f82011682018060405250810190611ec99190613027565b6001600160a01b0316336001600160a01b031614611f6e5760405162461bcd60e51b815260206004820152605660248201527f4f6e6c792043445020636f6e7472616374206d617920696e766f6b652074686960448201527f73206d6574686f642e20506c656173652c20757365207374617274436f696e73606482015275109d5e53dd5d081a5b8810d1140818dbdb9d1c9858dd60521b608482015260a4016103be565b60035460405163bdfe7d4760e01b81526000916001600160a01b03169063bdfe7d4790611f9d90600401613057565b602060405180830381865afa158015611fba573d6000803e3d6000fd5b505050506040513d601f19601f82011682018060405250810190611fde9190613027565b60035460405163bdfe7d4760e01b81529192506001600160a01b03808416926323b872dd929091169063bdfe7d4790612019906004016131ed565b602060405180830381865afa158015612036573d6000803e3d6000fd5b505050506040513d601f19601f8201168201806040525081019061205a9190613027565b30866040518463ffffffff1660e01b815260040161207a93929190613183565b6020604051808303816000875af1158015612099573d6000803e3d6000fd5b505050506040513d601f19601f820116820180604052508101906120bd91906131a7565b6121195760405162461bcd60e51b815260206004820152602760248201527f636f756c64206e6f74207472616e73666572207765746820666f7220736f6d65604482015266103932b0b9b7b760c91b60648201526084016103be565b60035460405163bdfe7d4760e01b81526121b8916001600160a01b03169063bdfe7d479061214990600401613057565b602060405180830381865afa158015612166573d6000803e3d6000fd5b505050506040513d601f19601f8201168201806040525081019061218a9190613027565b60035460405163bdfe7d4760e01b815286916001600160a01b03169063bdfe7d479061118b90600401613003565b60008181526006602052604090819020600701805460ff19166001179055519092507f082844962cf5145347cebd63a315279825bc23fed895630911764ad520ffea259061220b908490879087906132a5565b60405180910390a15092915050565b600554600090600160a01b900460ff161561229b5760405162461bcd60e51b815260206004820152603b60248201527f436f696e734275794f7574466f7253746162696c697a6174696f6e20616c726560448201527a18591e48195e1a5cdd1cc8185b99081b9bdd08199a5b9a5cda1959602a1b60648201526084016103be565b600254600480546040516370a0823160e01b81526001600160a01b039182169281019290925260009216906370a0823190602401602060405180830381865afa1580156122ec573d6000803e3d6000fd5b505050506040513d601f19601f8201168201806040525081019061231091906130a2565b60035460405163145f822b60e01b81526020600482015260186024820152771cdd18589a5b1a5e985d1a5bdb919d5b9914195c98d95b9d60421b60448201529192506000916064916001600160a01b03169063145f822b908301602060405180830381865afa158015612387573d6000803e3d6000fd5b505050506040513d601f19601f820116820180604052508101906123ab91906130a2565b600260009054906101000a90046001600160a01b03166001600160a01b03166318160ddd6040518163ffffffff1660e01b8152600401602060405180830381865afa1580156123fe573d6000803e3d6000fd5b505050506040513d601f19601f8201168201806040525081019061242291906130a2565b61242c91906130e4565b61243691906130fb565b90508082106124875760405162461bcd60e51b815260206004820181905260248201527f6e6f7420736f206c6f7720746f20696e69742052756c6520656d697373696f6e60448201526064016103be565b6124918282613170565b8411156124a5576124a28282613170565b93505b60035460405163145f822b60e01b81526001600160a01b039091169063145f822b906124d3906004016132bb565b602060405180830381865afa1580156124f0573d6000803e3d6000fd5b505050506040513d601f19601f8201168201806040525081019061251491906130a2565b84111561258d5760035460405163145f822b60e01b81526001600160a01b039091169063145f822b90612549906004016132bb565b602060405180830381865afa158015612566573d6000803e3d6000fd5b505050506040513d601f19601f8201168201806040525081019061258a91906130a2565b93505b60035460405163bdfe7d4760e01b8152612674916001600160a01b03169063bdfe7d47906125bd90600401613152565b602060405180830381865afa1580156125da573d6000803e3d6000fd5b505050506040513d601f19601f820116820180604052508101906125fe9190613027565b60035460405163bdfe7d4760e01b81526000916001600160a01b03169063bdfe7d479061262d90600401613003565b602060405180830381865afa15801561264a573d6000803e3d6000fd5b505050506040513d601f19601f8201168201806040525081019061266e9190613027565b87612ef2565b6005805460ff60a01b1916600160a01b17905560035460405163bdfe7d4760e01b81529194506000805160206132ee8339815191529185916000916001600160a01b039091169063bdfe7d47906126cd90600401613152565b602060405180830381865afa1580156126ea573d6000803e3d6000fd5b505050506040513d601f19601f8201168201806040525081019061270e9190613027565b60405161271d9392919061320a565b60405180910390a15050919050565b6000818152600660208181526040808420928301548452600790915291829020600354925163bdfe7d4760e01b8152919290916001600160a01b039091169063bdfe7d479061277d90600401613003565b602060405180830381865afa15801561279a573d6000803e3d6000fd5b505050506040513d601f19601f820116820180604052508101906127be9190613027565b82546001600160a01b039182166201000090910490911603612a375781548154600184015460405163a9059cbb60e01b81526001600160a01b036201000090940484169363a9059cbb9361281793911691600401613229565b6020604051808303816000875af1158015612836573d6000803e3d6000fd5b505050506040513d601f19601f8201168201806040525081019061285a91906131a7565b6128b75760405162461bcd60e51b815260206004820152602860248201527f6c6f74546f6b656e207472616e73666572206661696c656420666f7220736f6d60448201526732903932b0b9b7b760c11b60648201526084016103be565b600282015460035460405163bdfe7d4760e01b81526001600160a01b039283169263a9059cbb92169063bdfe7d47906128f2906004016131ed565b602060405180830381865afa15801561290f573d6000803e3d6000fd5b505050506040513d601f19601f820116820180604052508101906129339190613027565b83600201546040518363ffffffff1660e01b8152600401612955929190613229565b6020604051808303816000875af1158015612974573d6000803e3d6000fd5b505050506040513d601f19601f8201168201806040525081019061299891906131a7565b6129f95760405162461bcd60e51b815260206004820152602c60248201527f7061796d656e74546f6b656e207472616e73666572206661696c656420666f7260448201526b1039b7b6b2903932b0b9b7b760a11b60648201526084016103be565b6005805460ff60a81b191690556001820154600282015460405160008051602061332e83398151915292612a2e9287926132a5565b60405180910390a15b60035460405163bdfe7d4760e01b81526001600160a01b039091169063bdfe7d4790612a6590600401613152565b602060405180830381865afa158015612a82573d6000803e3d6000fd5b505050506040513d601f19601f82011682018060405250810190612aa69190613027565b82546001600160a01b039182166201000090910490911603612cb2576004805482546002840154604051630403dc0960e01b81526001600160a01b0393841694630403dc0994612af99416929101613229565b6020604051808303816000875af1158015612b18573d6000803e3d6000fd5b505050506040513d601f19601f82011682018060405250810190612b3c91906131a7565b612b7e5760405162461bcd60e51b8152602060048201526013602482015272636f756c64206e6f74206d696e742072756c6560681b60448201526064016103be565b60025460035460405163bdfe7d4760e01b81526001600160a01b039283169263a9059cbb92169063bdfe7d4790612bb7906004016131ed565b602060405180830381865afa158015612bd4573d6000803e3d6000fd5b505050506040513d601f19601f82011682018060405250810190612bf89190613027565b84600301546040518363ffffffff1660e01b8152600401612c1a929190613229565b6020604051808303816000875af1158015612c39573d6000803e3d6000fd5b505050506040513d601f19601f82011682018060405250810190612c5d91906131a7565b612ca45760405162461bcd60e51b8152602060048201526018602482015277636f756c64206e6f74207472616e7366657220636f696e7360401b60448201526064016103be565b6005805460ff60a01b191690555b60035460405163bdfe7d4760e01b81526001600160a01b039091169063bdfe7d4790612ce090600401613057565b602060405180830381865afa158015612cfd573d6000803e3d6000fd5b505050506040513d601f19601f82011682018060405250810190612d219190613027565b82546001600160a01b039182166201000090910490911603612ee15781548154600184015460405163a9059cbb60e01b81526001600160a01b036201000090940484169363a9059cbb93612d7a93911691600401613229565b6020604051808303816000875af1158015612d99573d6000803e3d6000fd5b505050506040513d601f19601f82011682018060405250810190612dbd91906131a7565b612dc657600080fd5b600282015460035460405163bdfe7d4760e01b81526001600160a01b039283169263a9059cbb92169063bdfe7d4790612e01906004016131ed565b602060405180830381865afa158015612e1e573d6000803e3d6000fd5b505050506040513d601f19601f82011682018060405250810190612e429190613027565b83600201546040518363ffffffff1660e01b8152600401612e64929190613229565b6020604051808303816000875af1158015612e83573d6000803e3d6000fd5b505050506040513d601f19601f82011682018060405250810190612ea791906131a7565b612eb057600080fd5b6001820154600282015460405160008051602061332e83398151915292612ed89287926132a5565b60405180910390a15b50805461ff00191661010017905550565b60008060008154612f029061328c565b918290555060008181526006602081905260408220805460016001600160b01b0319909116620100006001600160a01b039b8c160217811782558101979097556002870180546001600160a01b03191696909816959095179096556003850192909255504260058401819055600484015591019190915590565b60008060408385031215612f8f57600080fd5b50508035926020909101359150565b600060208284031215612fb057600080fd5b5035919050565b6020808252602c908201527f61756374696f6e49642069732077726f6e67206f7220697420697320616c726560408201526b18591e48199a5b9a5cda195960a21b606082015260800190565b6020808252600a908201526939ba30b13632a1b7b4b760b11b604082015260600190565b60006020828403121561303957600080fd5b81516001600160a01b038116811461305057600080fd5b9392505050565b6020808252600490820152630eecae8d60e31b604082015260600190565b6020808252601390820152726d696e41756374696f6e50726963654d6f766560681b604082015260600190565b6000602082840312156130b457600080fd5b5051919050565b634e487b7160e01b600052601160045260246000fd5b80820180821115611e5357611e536130bb565b8082028115828204841417611e5357611e536130bb565b60008261311857634e487b7160e01b600052601260045260246000fd5b500490565b6020808252601b908201527a0f2deeae440c4d2c840d2e640dcdee840d0d2ced040cadcdeeaced602b1b604082015260600190565b60208082526004908201526372756c6560e01b604082015260600190565b81810381811115611e5357611e536130bb565b6001600160a01b039384168152919092166020820152604081019190915260600190565b6000602082840312156131b957600080fd5b8151801515811461305057600080fd5b938452602084019290925260408301526001600160a01b0316606082015260800190565b60208082526003908201526206364760ec1b604082015260600190565b92835260208301919091526001600160a01b0316604082015260600190565b6001600160a01b03929092168252602082015260400190565b6020808252602a908201527f77652077657265206e6f742061626c6520746f207472616e7366657220796f756040820152697220626964206261636b60b01b606082015260800190565b60006001820161329e5761329e6130bb565b5060010190565b9283526020830191909152604082015260600190565b60208082526018908201527736b0bc21b7b4b739a337b929ba30b134b634bd30ba34b7b760411b60408201526060019056fedb8dd885380749a42d93685c4954d7dd30b146634d3e33f49620084ce98e4e8ffec53f788c9ef6de6841d61017cbcd768a3dbd9dd7cac7b45d42de5589b0a5d7316f148f986c9d3880b02142d215ebfc51857506d0b21ab35f195689ce6d1ceba264697066735822122066032365f44d4cf5d67a2399a66e8ba287ec2108acee0bed72d84e481f1a420164736f6c63430008130033",
  "immutableReferences": {},
  "source": "// SPDX-License-Identifier: UNLICENSED\r\npragma solidity 0.8.19;\r\nimport \"@openzeppelin/contracts/token/ERC20/IERC20.sol\";\r\n\r\ninterface IDAO{\r\n    function addresses(string memory) external view returns (address);\r\n    function params(string memory) external view returns (uint256);\r\n    function setAddressOnce(string memory, address) external;\r\n}\r\n\r\ninterface ICDP{\r\n    function mintRule(address to, uint256 amount) external returns (bool success);\r\n}\r\n\r\n    struct auctionEntity {\r\n        bool initialized;\r\n        bool finalized;\r\n        address lotToken;\r\n        uint lotAmount;\r\n        address paymentToken;\r\n        uint256 paymentAmount;\r\n        uint256 initTime;\r\n        uint256 lastTimeUpdated;\r\n        uint256 bestBidId;\r\n        bool isMarginCall;\r\n    }\r\n\r\n    struct Bid {\r\n        address owner;\r\n        uint256 auctionID;\r\n        uint256 bidAmount;\r\n        uint256 time;\r\n        bool canceled;\r\n    }\r\n\r\ncontract Auction {\r\n    uint256 public auctionNum;\r\n    uint256 public bidsNum;\r\n    IERC20 coin;\r\n    IDAO dao;\r\n    ICDP cdp;\r\n    IERC20 rule;\r\n    bool isCoinsBuyOutForStabilization;\r\n    bool ruleBuyOut;\r\n\r\n    mapping(uint256 => auctionEntity) public auctions;\r\n    mapping (uint256 => Bid) public bids;\r\n\r\n    event buyOutInit(uint256 auctionID, uint256 lotAmount, address lotAddress);\r\n    event buyOutFinished(uint256 auctionID, uint256 lotAmount, uint256 bestBid);\r\n    event newBid(uint256 auctionID, uint256 bidId, uint256 bidAmount, address owner);\r\n    event bidCanceled(uint256 bidId);\r\n    event liquidateCollateral(uint256 auctionID, uint256 posID, uint256 collateral);\r\n\r\n    constructor(address payable _INTDAOaddress){\r\n        dao = IDAO(_INTDAOaddress);\r\n        dao.setAddressOnce(\"auction\", address(this));\r\n        cdp = ICDP(dao.addresses('cdp'));\r\n        coin = IERC20(payable(dao.addresses('stableCoin')));\r\n        rule = IERC20(payable(dao.addresses('rule')));\r\n    }\r\n\r\n    function renewContracts() external {\r\n        coin = IERC20(payable(dao.addresses('stableCoin')));\r\n        cdp = ICDP(dao.addresses('cdp'));\r\n        rule = IERC20(payable(dao.addresses('rule')));\r\n    }\r\n\r\n    function initRuleBuyOut() external returns (uint256 auctionID){\r\n        require (!ruleBuyOut, \"Rule buyOut auction already exist\");\r\n\r\n        uint256 allowed = coin.allowance(dao.addresses('cdp'), address(this));\r\n        require (allowed>0, \"Can not transfer surplus from CDP\");\r\n\r\n        coin.transferFrom(dao.addresses('cdp'), address(this), allowed);\r\n\r\n        auctionID = createNewAuction(dao.addresses('stableCoin'), allowed, dao.addresses('rule'), 0);\r\n        ruleBuyOut = true;\r\n\r\n        emit buyOutInit(auctionID, allowed, dao.addresses('stableCoin'));\r\n        return auctionID;\r\n    }\r\n\r\n    function initCoinsBuyOutForStabilization(uint256 coinsAmountNeeded) external returns (uint256 auctionID){\r\n        require (!isCoinsBuyOutForStabilization, \"CoinsBuyOutForStabilization already exists and not finished\");\r\n        uint256 actualStabilizationFund = coin.balanceOf(address(cdp));\r\n        uint256 preferableStabilizationFund = coin.totalSupply() * dao.params(\"stabilizationFundPercent\")/100;\r\n        require (actualStabilizationFund<preferableStabilizationFund, \"not so low to init Rule emission\");\r\n\r\n        if (coinsAmountNeeded > preferableStabilizationFund - actualStabilizationFund)\r\n            coinsAmountNeeded = preferableStabilizationFund - actualStabilizationFund;\r\n        if (coinsAmountNeeded>dao.params(\"maxCoinsForStabilization\"))\r\n            coinsAmountNeeded = dao.params(\"maxCoinsForStabilization\");\r\n\r\n        auctionID = createNewAuction(dao.addresses('rule'), 0, dao.addresses('stableCoin'), coinsAmountNeeded);\r\n        isCoinsBuyOutForStabilization = true;\r\n\r\n        emit buyOutInit(auctionID, 0, dao.addresses('rule'));\r\n        return auctionID;\r\n    }\r\n\r\n    function initCoinsBuyOut(uint256 posID, uint256 collateral) external returns (uint256 auctionID){\r\n        require (msg.sender == dao.addresses('cdp'), \"Only CDP contract may invoke this method. Please, use startCoinsBuyOut in CDP contract\");\r\n        IERC20 weth = IERC20(dao.addresses('weth'));\r\n        require(weth.transferFrom(dao.addresses('cdp'), address(this), collateral), \"could not transfer weth for some reason\");\r\n\r\n        auctionID = createNewAuction (dao.addresses('weth'), collateral, dao.addresses('stableCoin'),0);\r\n        auctions[auctionID].isMarginCall = true;\r\n        emit liquidateCollateral(auctionID, posID, collateral);\r\n\r\n        return auctionID;\r\n    }\r\n\r\n    function createNewAuction(address lotToken, uint256 lotAmount, address paymentToken, uint256 paymentAmount) internal returns (uint256 auctionID){\r\n        auctionID = ++auctionNum;\r\n        auctionEntity storage a = auctions[auctionID];\r\n\r\n        a.initialized = true;\r\n        a.finalized = false;\r\n        a.lotToken = lotToken;\r\n        a.lotAmount = lotAmount;\r\n        a.paymentToken = paymentToken;\r\n        a.paymentAmount = paymentAmount;\r\n        a.lastTimeUpdated = block.timestamp;\r\n        a.initTime = block.timestamp;\r\n        a.bestBidId = 0;\r\n        return auctionID;\r\n    }\r\n\r\n    function makeBid(uint256 auctionId, uint256 bidAmount) external returns (uint256 bidId){\r\n        auctionEntity storage a = auctions[auctionId];\r\n        require(a.initialized&&!a.finalized, \"auctionId is wrong or it is already finished\");\r\n\r\n        if (a.bestBidId!=0){\r\n            Bid storage bestBid = bids[a.bestBidId];\r\n            if (a.lotToken == dao.addresses('stableCoin') || a.lotToken == dao.addresses('weth'))\r\n                require(bidAmount>0 && bestBid.bidAmount*(100+dao.params('minAuctionPriceMove'))/100<=bidAmount, \"your bid is not high enough\");\r\n            if (a.lotToken == dao.addresses('rule'))\r\n                require(bidAmount>0 && bestBid.bidAmount*(100-dao.params('minAuctionPriceMove'))/100>=bidAmount, \"your bid is not low enough\");\r\n        }\r\n        require(bidAmount>0, \"your bid is not high enough\");\r\n        IERC20 paymentToken = IERC20(address(a.paymentToken));\r\n        if (a.lotToken == dao.addresses('rule')){\r\n            require(bidAmount<=rule.totalSupply()*dao.params('maxRuleEmissionPercent')/100, \"too many rules for one emission\");\r\n            require(paymentToken.transferFrom(msg.sender, address(this), a.paymentAmount), \"You should first approve stableCoins to auction contract address\");\r\n        }\r\n        else\r\n            require(paymentToken.transferFrom(msg.sender, address(this), bidAmount), \"You should first approve bidAmount to auction contract address\");\r\n\r\n        bidId = ++bidsNum;\r\n        Bid storage b = bids[bidId];\r\n        b.owner = msg.sender;\r\n        b.auctionID = auctionId;\r\n        b.bidAmount = bidAmount;\r\n        b.time = block.timestamp;\r\n        b.canceled = false;\r\n\r\n        a.bestBidId = bidId;\r\n        a.lastTimeUpdated = block.timestamp;\r\n        emit newBid(auctionId, bidId, bidAmount, b.owner);\r\n        return bidId;\r\n    }\r\n\r\n    function improveBid(uint256 bidId, uint256 newBidAmount) external{\r\n        Bid storage b = bids[bidId];\r\n        require(b.owner == msg.sender, \"You may improve only your personal bids\");\r\n        auctionEntity storage a = auctions[b.auctionID];\r\n        require(a.initialized&&!a.finalized, \"auctionId is wrong or it is already finished\");\r\n        Bid storage bestBid = bids[a.bestBidId];\r\n\r\n        if (a.lotToken == dao.addresses('stableCoin') || a.lotToken == dao.addresses('weth'))\r\n            require(newBidAmount>0 && bestBid.bidAmount*(100+dao.params('minAuctionPriceMove'))/100<=newBidAmount, \"your bid is not high enough\");\r\n        if (a.lotToken == dao.addresses('rule'))\r\n            require(newBidAmount>0 && bestBid.bidAmount*(100-dao.params('minAuctionPriceMove'))/100>=newBidAmount, \"your bid is not high enough\");\r\n\r\n        IERC20 paymentToken = IERC20(address(a.paymentToken));\r\n\r\n        if (a.lotToken == dao.addresses('stableCoin') || a.lotToken == dao.addresses('weth')){\r\n            uint256 difference = newBidAmount-b.bidAmount;\r\n            require(paymentToken.transferFrom(msg.sender, address(this), difference), \"You should first approve payment to auction contract address\");\r\n        }\r\n\r\n        b.bidAmount = newBidAmount;\r\n        a.lastTimeUpdated = block.timestamp;\r\n        a.bestBidId = bidId;\r\n        emit newBid(b.auctionID, bidId, newBidAmount, b.owner);\r\n    }\r\n\r\n    function cancelBid(uint256 bidId) external{\r\n        Bid storage b = bids[bidId];\r\n        require (b.owner==msg.sender && !b.canceled, \"Only bid owner may cancel it, if it wasn't canceled earlier\");\r\n        auctionEntity storage a = auctions[b.auctionID];\r\n        require(a.initialized, \"the bid is made on non-existent auction\");\r\n        require(a.bestBidId!=bidId, \"You can not cancel a bid if it is a best one\");\r\n        IERC20 paymentToken = IERC20(address(a.paymentToken));\r\n        if (a.lotToken == dao.addresses('rule'))\r\n            require(paymentToken.transfer(b.owner, a.paymentAmount), \"we were not able to transfer your bid back\");\r\n        else\r\n            require(paymentToken.transfer(b.owner, b.bidAmount), \"we were not able to transfer your bid back\");\r\n        emit bidCanceled(bidId);\r\n        b.canceled = true;\r\n    }\r\n\r\n    function claimToFinalizeAuction(uint256 auctionID) external returns (bool success){\r\n        auctionEntity storage a = auctions[auctionID];\r\n        if (a.isMarginCall)\r\n            require (msg.sender == dao.addresses('cdp'), \"Only CDP contract may finish this auction. Please, use finishMarginCall method.\");\r\n\r\n        require(a.initialized && !a.finalized, \"the auction is finished or non-existent\");\r\n        require(block.timestamp-a.lastTimeUpdated>=dao.params('auctionTurnDuration'), \"it is too early to finalize, wait a bit\");\r\n        require(a.bestBidId!=0 && a.initTime!=a.lastTimeUpdated, \"there should be at least one bid\");\r\n\r\n        finalizeAuction(auctionID);\r\n        return true;\r\n    }\r\n\r\n    function finalizeAuction(uint256 auctionID) internal {\r\n        auctionEntity storage a = auctions[auctionID];\r\n        Bid storage bestBid = bids[a.bestBidId];\r\n\r\n        if (a.lotToken == dao.addresses('stableCoin')){\r\n            require(IERC20(address(a.lotToken)).transfer(bestBid.owner, a.lotAmount), \"lotToken transfer failed for some reason\");\r\n            require(IERC20(address(a.paymentToken)).transfer(dao.addresses('cdp'), bestBid.bidAmount), \"paymentToken transfer failed for some reason\");\r\n            ruleBuyOut = false;\r\n            emit buyOutFinished(auctionID, a.lotAmount, bestBid.bidAmount);\r\n        }\r\n        if (a.lotToken == dao.addresses('rule')){\r\n            require(cdp.mintRule(bestBid.owner, bestBid.bidAmount), \"could not mint rule\");\r\n            require(coin.transfer(dao.addresses('cdp'), a.paymentAmount), \"could not transfer coins\");\r\n            isCoinsBuyOutForStabilization = false;\r\n        }\r\n        if (a.lotToken == dao.addresses('weth')){\r\n            require(IERC20(address(a.lotToken)).transfer(bestBid.owner, a.lotAmount));\r\n            require(IERC20(address(a.paymentToken)).transfer(dao.addresses('cdp'), bestBid.bidAmount));\r\n            emit buyOutFinished(auctionID, a.lotAmount, bestBid.bidAmount);\r\n        }\r\n        a.finalized = true;\r\n    }\r\n\r\n    function isFinalized(uint256 auctionId) public view returns (bool finalized){\r\n        return auctions[auctionId].finalized;\r\n    }\r\n\r\n    function getPaymentAmount(uint256 auctionID) public view returns (uint256){\r\n        return auctions[auctionID].paymentAmount;\r\n    }\r\n\r\n    function getBestBidAmount (uint256 auctionID) public view returns (uint256){\r\n        return bids[auctions[auctionID].bestBidId].bidAmount;\r\n    }\r\n}\r\n",
  "sourcePath": "C:\\Users\\d.nagornykh\\YandexDisk\\\\ICO\\CryptoFiat\\repo\\contracts\\Auction.sol",
  "compiler": {
    "name": "solc",
    "version": "0.8.19+commit.7dd6d404.Emscripten.clang"
  },
  "schemaVersion": "3.4.14",
  "updatedAt": "2023-08-14T08:42:01.614Z",
  "devdoc": {
    "kind": "dev",
    "methods": {},
    "version": 1
  },
  "userdoc": {
    "kind": "user",
    "methods": {},
    "version": 1
  }
}