{
  "contractName": "Auction",
  "abi": [
    {
      "inputs": [
        {
          "internalType": "address",
          "name": "_INTDAOaddress",
          "type": "address"
        }
      ],
      "stateMutability": "nonpayable",
      "type": "constructor"
    },
    {
      "anonymous": false,
      "inputs": [
        {
          "indexed": false,
          "internalType": "uint256",
          "name": "bidId",
          "type": "uint256"
        }
      ],
      "name": "bidCanceled",
      "type": "event"
    },
    {
      "anonymous": false,
      "inputs": [
        {
          "indexed": false,
          "internalType": "uint32",
          "name": "auctionID",
          "type": "uint32"
        },
        {
          "indexed": false,
          "internalType": "uint256",
          "name": "lotAmount",
          "type": "uint256"
        },
        {
          "indexed": false,
          "internalType": "uint256",
          "name": "bestBid",
          "type": "uint256"
        }
      ],
      "name": "buyOutFinished",
      "type": "event"
    },
    {
      "anonymous": false,
      "inputs": [
        {
          "indexed": false,
          "internalType": "uint32",
          "name": "auctionID",
          "type": "uint32"
        },
        {
          "indexed": false,
          "internalType": "uint256",
          "name": "lotAmount",
          "type": "uint256"
        },
        {
          "indexed": false,
          "internalType": "address",
          "name": "lotAddress",
          "type": "address"
        }
      ],
      "name": "buyOutInit",
      "type": "event"
    },
    {
      "anonymous": false,
      "inputs": [
        {
          "indexed": false,
          "internalType": "uint32",
          "name": "auctionID",
          "type": "uint32"
        },
        {
          "indexed": false,
          "internalType": "uint256",
          "name": "posID",
          "type": "uint256"
        },
        {
          "indexed": false,
          "internalType": "uint256",
          "name": "collateral",
          "type": "uint256"
        }
      ],
      "name": "liquidateCollateral",
      "type": "event"
    },
    {
      "anonymous": false,
      "inputs": [
        {
          "indexed": false,
          "internalType": "uint32",
          "name": "auctionID",
          "type": "uint32"
        },
        {
          "indexed": false,
          "internalType": "uint256",
          "name": "bidId",
          "type": "uint256"
        },
        {
          "indexed": false,
          "internalType": "uint256",
          "name": "bidAmount",
          "type": "uint256"
        },
        {
          "indexed": false,
          "internalType": "address",
          "name": "owner",
          "type": "address"
        }
      ],
      "name": "newBid",
      "type": "event"
    },
    {
      "inputs": [],
      "name": "auctionNum",
      "outputs": [
        {
          "internalType": "uint32",
          "name": "",
          "type": "uint32"
        }
      ],
      "stateMutability": "view",
      "type": "function"
    },
    {
      "inputs": [
        {
          "internalType": "uint32",
          "name": "",
          "type": "uint32"
        }
      ],
      "name": "auctions",
      "outputs": [
        {
          "internalType": "bool",
          "name": "initialized",
          "type": "bool"
        },
        {
          "internalType": "bool",
          "name": "finalized",
          "type": "bool"
        },
        {
          "internalType": "address",
          "name": "lotToken",
          "type": "address"
        },
        {
          "internalType": "uint256",
          "name": "lotAmount",
          "type": "uint256"
        },
        {
          "internalType": "address",
          "name": "paymentToken",
          "type": "address"
        },
        {
          "internalType": "uint256",
          "name": "paymentAmount",
          "type": "uint256"
        },
        {
          "internalType": "uint256",
          "name": "initTime",
          "type": "uint256"
        },
        {
          "internalType": "uint256",
          "name": "lastTimeUpdated",
          "type": "uint256"
        },
        {
          "internalType": "uint32",
          "name": "bestBidId",
          "type": "uint32"
        }
      ],
      "stateMutability": "view",
      "type": "function"
    },
    {
      "inputs": [
        {
          "internalType": "uint32",
          "name": "",
          "type": "uint32"
        }
      ],
      "name": "bids",
      "outputs": [
        {
          "internalType": "address",
          "name": "owner",
          "type": "address"
        },
        {
          "internalType": "uint32",
          "name": "auctionID",
          "type": "uint32"
        },
        {
          "internalType": "uint256",
          "name": "bidAmount",
          "type": "uint256"
        },
        {
          "internalType": "uint256",
          "name": "time",
          "type": "uint256"
        },
        {
          "internalType": "bool",
          "name": "canceled",
          "type": "bool"
        }
      ],
      "stateMutability": "view",
      "type": "function"
    },
    {
      "inputs": [],
      "name": "bidsNum",
      "outputs": [
        {
          "internalType": "uint32",
          "name": "",
          "type": "uint32"
        }
      ],
      "stateMutability": "view",
      "type": "function"
    },
    {
      "inputs": [],
      "name": "renewContracts",
      "outputs": [],
      "stateMutability": "nonpayable",
      "type": "function"
    },
    {
      "inputs": [],
      "name": "initRuleBuyOut",
      "outputs": [
        {
          "internalType": "uint32",
          "name": "auctionID",
          "type": "uint32"
        }
      ],
      "stateMutability": "nonpayable",
      "type": "function"
    },
    {
      "inputs": [
        {
          "internalType": "uint256",
          "name": "coinsAmountNeeded",
          "type": "uint256"
        }
      ],
      "name": "initCoinsBuyOutForStabilization",
      "outputs": [
        {
          "internalType": "uint32",
          "name": "auctionID",
          "type": "uint32"
        }
      ],
      "stateMutability": "nonpayable",
      "type": "function"
    },
    {
      "inputs": [
        {
          "internalType": "uint32",
          "name": "posID",
          "type": "uint32"
        },
        {
          "internalType": "uint128",
          "name": "collateral",
          "type": "uint128"
        }
      ],
      "name": "initCoinsBuyOut",
      "outputs": [
        {
          "internalType": "uint32",
          "name": "auctionID",
          "type": "uint32"
        }
      ],
      "stateMutability": "nonpayable",
      "type": "function"
    },
    {
      "inputs": [
        {
          "internalType": "uint32",
          "name": "auctionId",
          "type": "uint32"
        },
        {
          "internalType": "uint256",
          "name": "bidAmount",
          "type": "uint256"
        }
      ],
      "name": "makeBid",
      "outputs": [
        {
          "internalType": "uint32",
          "name": "bidId",
          "type": "uint32"
        }
      ],
      "stateMutability": "nonpayable",
      "type": "function"
    },
    {
      "inputs": [
        {
          "internalType": "uint32",
          "name": "bidId",
          "type": "uint32"
        },
        {
          "internalType": "uint256",
          "name": "newBidAmount",
          "type": "uint256"
        }
      ],
      "name": "improveBid",
      "outputs": [],
      "stateMutability": "nonpayable",
      "type": "function"
    },
    {
      "inputs": [
        {
          "internalType": "uint32",
          "name": "bidId",
          "type": "uint32"
        }
      ],
      "name": "cancelBid",
      "outputs": [],
      "stateMutability": "nonpayable",
      "type": "function"
    },
    {
      "inputs": [
        {
          "internalType": "uint32",
          "name": "auctionID",
          "type": "uint32"
        }
      ],
      "name": "claimToFinalizeAuction",
      "outputs": [
        {
          "internalType": "bool",
          "name": "success",
          "type": "bool"
        }
      ],
      "stateMutability": "nonpayable",
      "type": "function"
    },
    {
      "inputs": [
        {
          "internalType": "uint32",
          "name": "auctionId",
          "type": "uint32"
        }
      ],
      "name": "isFinalized",
      "outputs": [
        {
          "internalType": "bool",
          "name": "finalized",
          "type": "bool"
        }
      ],
      "stateMutability": "view",
      "type": "function"
    },
    {
      "inputs": [
        {
          "internalType": "uint32",
          "name": "auctionID",
          "type": "uint32"
        }
      ],
      "name": "getPaymentAmount",
      "outputs": [
        {
          "internalType": "uint256",
          "name": "",
          "type": "uint256"
        }
      ],
      "stateMutability": "view",
      "type": "function"
    },
    {
      "inputs": [
        {
          "internalType": "uint32",
          "name": "auctionID",
          "type": "uint32"
        }
      ],
      "name": "getBestBidAmount",
      "outputs": [
        {
          "internalType": "uint256",
          "name": "",
          "type": "uint256"
        }
      ],
      "stateMutability": "view",
      "type": "function"
    }
  ],
  "bytecode": "0x60a06040523480156200001157600080fd5b5060405162003f9038038062003f9083398101604081905262000034916200004b565b60016000556001600160a01b03166080526200007d565b6000602082840312156200005e57600080fd5b81516001600160a01b03811681146200007657600080fd5b9392505050565b608051613dca620001c6600039600081816103aa01528181610449015281816104f3015281816105ac015281816106e40152818161076b015281816108ea0152818161098001528181610c1901528181610ee1015281816110bd015281816112270152818161131a015281816113a70152818161141b01528181611548015281816115ef0152818161168f01528181611772015281816118120152818161194d01528181611a1c01528181611e6b01528181611f10015281816120cf01528181612341015281816123e8015281816124880152818161256b0152818161260b015281816126f70152818161279e01528181612afc01528181612c7701528181612d0901528181612d9b01528181612e2901528181612ee5015281816130cb0152818161325c015281816133ed01528181613566015281816136ab01526137ea0152613dca6000f3fe608060405234801561001057600080fd5b50600436106100c55760003560e01c8063194d2c92146100ca57806323d86a6514610119578063378096c01461012357806350892fbe1461014f578063735dbd77146101d757806378b36c18146101ea57806382eae402146101fd57806383b1e1f21461022657806393b4192f1461022e578063bd249ab614610241578063bfc8968014610264578063c745f33f1461032f578063e2a89c0c1461035d578063e2e7a9041461036d578063f85badde14610380575b600080fd5b6101066100d8366004613925565b63ffffffff908116600090815260046020908152604080832060060154909316825260059052206001015490565b6040519081526020015b60405180910390f35b610121610393565b005b60015461013a90600160201b900463ffffffff1681565b60405163ffffffff9091168152602001610110565b61019e61015d366004613925565b60056020526000908152604090208054600182015460028301546003909301546001600160a01b03831693600160a01b90930463ffffffff16929060ff1685565b604080516001600160a01b03909616865263ffffffff90941660208601529284019190915260608301521515608082015260a001610110565b61013a6101e5366004613947565b61058b565b6101216101f8366004613925565b610a5f565b61010661020b366004613925565b63ffffffff1660009081526004602052604090206003015490565b61013a610e30565b61013a61023c36600461398a565b6114b4565b61025461024f366004613925565b611e32565b6040519015158152602001610110565b6102d4610272366004613925565b6004602081905260009182526040909120805460018201546002830154600384015494840154600585015460069095015460ff80861697610100870490911696620100009096046001600160a01b039081169694169390929163ffffffff1689565b604080519915158a5297151560208a01526001600160a01b0396871697890197909752606088019490945293909116608086015260a085015260c084019190915260e083015263ffffffff1661010082015261012001610110565b61025461033d366004613925565b63ffffffff16600090815260046020526040902054610100900460ff1690565b60015461013a9063ffffffff1681565b61012161037b36600461398a565b612239565b61013a61038e3660046139b4565b6129a5565b60405163bdfe7d4760e01b81526001600160a01b037f0000000000000000000000000000000000000000000000000000000000000000169063bdfe7d47906103dd906004016139cd565b602060405180830381865afa1580156103fa573d6000803e3d6000fd5b505050506040513d601f19601f8201168201806040525081019061041e91906139ea565b600280546001600160a01b0319166001600160a01b0392831617905560405163bdfe7d4760e01b81527f00000000000000000000000000000000000000000000000000000000000000009091169063bdfe7d479061047e90600401613a13565b602060405180830381865afa15801561049b573d6000803e3d6000fd5b505050506040513d601f19601f820116820180604052508101906104bf91906139ea565b60018054600160401b600160e01b031916600160401b6001600160a01b039384160217905560405163bdfe7d4760e01b81527f00000000000000000000000000000000000000000000000000000000000000009091169063bdfe7d479061052890600401613a37565b602060405180830381865afa158015610545573d6000803e3d6000fd5b505050506040513d601f19601f8201168201806040525081019061056991906139ea565b600380546001600160a01b0319166001600160a01b0392909216919091179055565b6000610595612f7c565b60405163bdfe7d4760e01b81526001600160a01b037f0000000000000000000000000000000000000000000000000000000000000000169063bdfe7d47906105df906004016139cd565b602060405180830381865afa1580156105fc573d6000803e3d6000fd5b505050506040513d601f19601f8201168201806040525081019061062091906139ea565b6001600160a01b0316336001600160a01b0316146106ca5760405162461bcd60e51b815260206004820152605660248201527f4f6e6c792043445020636f6e7472616374206d617920696e766f6b652074686960448201527f73206d6574686f642e20506c656173652c20757365207374617274436f696e73606482015275109d5e53dd5d081a5b8810d1140818dbdb9d1c9858dd60521b608482015260a4015b60405180910390fd5b60405163bdfe7d4760e01b81526000906001600160a01b037f0000000000000000000000000000000000000000000000000000000000000000169063bdfe7d479061071790600401613a55565b602060405180830381865afa158015610734573d6000803e3d6000fd5b505050506040513d601f19601f8201168201806040525081019061075891906139ea565b9050806001600160a01b03166323b872dd7f00000000000000000000000000000000000000000000000000000000000000006001600160a01b031663bdfe7d476040518163ffffffff1660e01b81526004016107b3906139cd565b602060405180830381865afa1580156107d0573d6000803e3d6000fd5b505050506040513d601f19601f820116820180604052508101906107f491906139ea565b6040516001600160e01b031960e084901b1681526001600160a01b0390911660048201523060248201526001600160801b03861660448201526064016020604051808303816000875af115801561084f573d6000803e3d6000fd5b505050506040513d601f19601f820116820180604052508101906108739190613a73565b6108cf5760405162461bcd60e51b815260206004820152602760248201527f636f756c64206e6f74207472616e73666572207765746820666f7220736f6d65604482015266103932b0b9b7b760c91b60648201526084016106c1565b60405163bdfe7d4760e01b81526109fb906001600160a01b037f0000000000000000000000000000000000000000000000000000000000000000169063bdfe7d479061091d90600401613a55565b602060405180830381865afa15801561093a573d6000803e3d6000fd5b505050506040513d601f19601f8201168201806040525081019061095e91906139ea565b60405163bdfe7d4760e01b81526001600160801b038616906001600160a01b037f0000000000000000000000000000000000000000000000000000000000000000169063bdfe7d47906109b390600401613a13565b602060405180830381865afa1580156109d0573d6000803e3d6000fd5b505050506040513d601f19601f820116820180604052508101906109f491906139ea565b6000612fd5565b6040805163ffffffff8381168252871660208201526001600160801b0386168183015290519193507fbca770893441e991f222925e16791268351c3d29352bd6e00e673287353a57ef919081900360600190a150610a596001600055565b92915050565b610a67612f7c565b63ffffffff8116600090815260056020526040902080546001600160a01b031633148015610a9a5750600381015460ff16155b610b0a5760405162461bcd60e51b815260206004820152603b60248201527f4f6e6c7920626964206f776e6572206d61792063616e63656c2069742c20696660448201527a1034ba103bb0b9b713ba1031b0b731b2b632b21032b0b93634b2b960291b60648201526084016106c1565b8054600160a01b900463ffffffff166000908152600460205260409020805460ff16610b885760405162461bcd60e51b815260206004820152602760248201527f74686520626964206973206d616465206f6e206e6f6e2d6578697374656e742060448201526630bab1ba34b7b760c91b60648201526084016106c1565b600681015463ffffffff808516911603610bf95760405162461bcd60e51b815260206004820152602c60248201527f596f752063616e206e6f742063616e63656c206120626964206966206974206960448201526b7320612062657374206f6e6560a01b60648201526084016106c1565b600281015460405163bdfe7d4760e01b81526001600160a01b03918216917f0000000000000000000000000000000000000000000000000000000000000000169063bdfe7d4790610c4c90600401613a37565b602060405180830381865afa158015610c69573d6000803e3d6000fd5b505050506040513d601f19601f82011682018060405250810190610c8d91906139ea565b82546001600160a01b039182166201000090910490911603610d44578254600383015460405163a9059cbb60e01b81526001600160a01b038481169363a9059cbb93610ce0939290911691600401613a95565b6020604051808303816000875af1158015610cff573d6000803e3d6000fd5b505050506040513d601f19601f82011682018060405250810190610d239190613a73565b610d3f5760405162461bcd60e51b81526004016106c190613aae565b610dda565b8254600184015460405163a9059cbb60e01b81526001600160a01b038481169363a9059cbb93610d7b939290911691600401613a95565b6020604051808303816000875af1158015610d9a573d6000803e3d6000fd5b505050506040513d601f19601f82011682018060405250810190610dbe9190613a73565b610dda5760405162461bcd60e51b81526004016106c190613aae565b60405163ffffffff851681527ffac423451217205d5c65185b7a90cc7d957ec2dd791403d541d2c4460f9d8f379060200160405180910390a15050600301805460ff19166001179055610e2d6001600055565b50565b6000610e3a612f7c565b600354600160a81b900460ff1615610e9e5760405162461bcd60e51b815260206004820152602160248201527f52756c65206275794f75742061756374696f6e20616c726561647920657869736044820152601d60fa1b60648201526084016106c1565b60405163145f822b60e01b815260206004820181905260248201527f6d696e52756c65546f6b656e73546f496e6974566f74696e6750657263656e7460448201527f00000000000000000000000000000000000000000000000000000000000000006001600160a01b03169063145f822b90606401602060405180830381865afa158015610f30573d6000803e3d6000fd5b505050506040513d601f19601f82011682018060405250810190610f549190613af8565b600354604080516318160ddd60e01b815290516064926001600160a01b0316916318160ddd9160048083019260209291908290030181865afa158015610f9e573d6000803e3d6000fd5b505050506040513d601f19601f82011682018060405250810190610fc29190613af8565b610fcc9190613b27565b610fd69190613b49565b6003546040516370a0823160e01b81526001600160a01b03909116906370a0823190611006903390600401613b60565b602060405180830381865afa158015611023573d6000803e3d6000fd5b505050506040513d601f19601f820116820180604052508101906110479190613af8565b101561108f5760405162461bcd60e51b81526020600482015260176024820152766e6f7420656e6f7567682072756c652062616c616e636560481b60448201526064016106c1565b60015460405163bdfe7d4760e01b81526000916001600160a01b03600160401b90910481169163dd62ed3e917f0000000000000000000000000000000000000000000000000000000000000000169063bdfe7d47906110f0906004016139cd565b602060405180830381865afa15801561110d573d6000803e3d6000fd5b505050506040513d601f19601f8201168201806040525081019061113191906139ea565b6040516001600160e01b031960e084901b1681526001600160a01b039091166004820152306024820152604401602060405180830381865afa15801561117b573d6000803e3d6000fd5b505050506040513d601f19601f8201168201806040525081019061119f9190613af8565b9050600081116111fb5760405162461bcd60e51b815260206004820152602160248201527f43616e206e6f74207472616e7366657220737572706c75732066726f6d2043446044820152600560fc1b60648201526084016106c1565b60015460405163bdfe7d4760e01b8152600160401b9091046001600160a01b03908116916323b872dd917f0000000000000000000000000000000000000000000000000000000000000000169063bdfe7d479061125a906004016139cd565b602060405180830381865afa158015611277573d6000803e3d6000fd5b505050506040513d601f19601f8201168201806040525081019061129b91906139ea565b30846040518463ffffffff1660e01b81526004016112bb93929190613b74565b6020604051808303816000875af11580156112da573d6000803e3d6000fd5b505050506040513d601f19601f820116820180604052508101906112fe9190613a73565b5060405163bdfe7d4760e01b81526113da906001600160a01b037f0000000000000000000000000000000000000000000000000000000000000000169063bdfe7d479061134d90600401613a13565b602060405180830381865afa15801561136a573d6000803e3d6000fd5b505050506040513d601f19601f8201168201806040525081019061138e91906139ea565b60405163bdfe7d4760e01b815283906001600160a01b037f0000000000000000000000000000000000000000000000000000000000000000169063bdfe7d47906109b390600401613a37565b6003805460ff60a81b1916600160a81b17905560405163bdfe7d4760e01b8152909250600080516020613d7583398151915290839083906001600160a01b037f0000000000000000000000000000000000000000000000000000000000000000169063bdfe7d479061144e90600401613a13565b602060405180830381865afa15801561146b573d6000803e3d6000fd5b505050506040513d601f19601f8201168201806040525081019061148f91906139ea565b60405161149e93929190613b98565b60405180910390a1506114b16001600055565b90565b60006114be612f7c565b63ffffffff83166000908152600460205260409020805460ff1680156114eb57508054610100900460ff16155b6115075760405162461bcd60e51b81526004016106c190613bbf565b600681015463ffffffff161561190d57600681015463ffffffff1660009081526005602052604090819020905163bdfe7d4760e01b81526001600160a01b037f0000000000000000000000000000000000000000000000000000000000000000169063bdfe7d479061157b90600401613a13565b602060405180830381865afa158015611598573d6000803e3d6000fd5b505050506040513d601f19601f820116820180604052508101906115bc91906139ea565b82546201000090046001600160a01b039081169116148061167a575060405163bdfe7d4760e01b81526001600160a01b037f0000000000000000000000000000000000000000000000000000000000000000169063bdfe7d479061162290600401613a55565b602060405180830381865afa15801561163f573d6000803e3d6000fd5b505050506040513d601f19601f8201168201806040525081019061166391906139ea565b82546201000090046001600160a01b039081169116145b1561175b5760008411801561173f57508360647f00000000000000000000000000000000000000000000000000000000000000006001600160a01b031663145f822b6040518163ffffffff1660e01b81526004016116d790613c0b565b602060405180830381865afa1580156116f4573d6000803e3d6000fd5b505050506040513d601f19601f820116820180604052508101906117189190613af8565b611723906064613c38565b83600101546117329190613b49565b61173c9190613b27565b11155b61175b5760405162461bcd60e51b81526004016106c190613c4b565b60405163bdfe7d4760e01b81526001600160a01b037f0000000000000000000000000000000000000000000000000000000000000000169063bdfe7d47906117a590600401613a37565b602060405180830381865afa1580156117c2573d6000803e3d6000fd5b505050506040513d601f19601f820116820180604052508101906117e691906139ea565b82546001600160a01b03918216620100009091049091160361190b576000841180156118c257508360647f00000000000000000000000000000000000000000000000000000000000000006001600160a01b031663145f822b6040518163ffffffff1660e01b815260040161185a90613c0b565b602060405180830381865afa158015611877573d6000803e3d6000fd5b505050506040513d601f19601f8201168201806040525081019061189b9190613af8565b6118a6906064613c80565b83600101546118b59190613b49565b6118bf9190613b27565b10155b61190b5760405162461bcd60e51b815260206004820152601a6024820152790f2deeae440c4d2c840d2e640dcdee840d8deee40cadcdeeaced60331b60448201526064016106c1565b505b6000831161192d5760405162461bcd60e51b81526004016106c190613c4b565b600281015460405163bdfe7d4760e01b81526001600160a01b03918216917f0000000000000000000000000000000000000000000000000000000000000000169063bdfe7d479061198090600401613a37565b602060405180830381865afa15801561199d573d6000803e3d6000fd5b505050506040513d601f19601f820116820180604052508101906119c191906139ea565b82546001600160a01b039182166201000090910490911603611c585760405163145f822b60e01b81526020600482015260166024820152751b585e149d5b19515b5a5cdcda5bdb94195c98d95b9d60521b60448201526064907f00000000000000000000000000000000000000000000000000000000000000006001600160a01b03169063145f822b908301602060405180830381865afa158015611a6a573d6000803e3d6000fd5b505050506040513d601f19601f82011682018060405250810190611a8e9190613af8565b600360009054906101000a90046001600160a01b03166001600160a01b03166318160ddd6040518163ffffffff1660e01b8152600401602060405180830381865afa158015611ae1573d6000803e3d6000fd5b505050506040513d601f19601f82011682018060405250810190611b059190613af8565b611b0f9190613b49565b611b199190613b27565b841115611b685760405162461bcd60e51b815260206004820152601f60248201527f746f6f206d616e792072756c657320666f72206f6e6520656d697373696f6e0060448201526064016106c1565b60038201546040516323b872dd60e01b81526001600160a01b038316916323b872dd91611b9c913391309190600401613b74565b6020604051808303816000875af1158015611bbb573d6000803e3d6000fd5b505050506040513d601f19601f82011682018060405250810190611bdf9190613a73565b611c53576040805162461bcd60e51b81526020600482015260248101919091527f596f752073686f756c6420666972737420617070726f766520737461626c654360448201527f6f696e7320746f2061756374696f6e20636f6e7472616374206164647265737360648201526084016106c1565b611d3d565b6040516323b872dd60e01b81526001600160a01b038216906323b872dd90611c8890339030908990600401613b74565b6020604051808303816000875af1158015611ca7573d6000803e3d6000fd5b505050506040513d601f19601f82011682018060405250810190611ccb9190613a73565b611d3d5760405162461bcd60e51b815260206004820152603e60248201527f596f752073686f756c6420666972737420617070726f766520626964416d6f7560448201527f6e7420746f2061756374696f6e20636f6e74726163742061646472657373000060648201526084016106c1565b60018054600490611d5a90600160201b900463ffffffff16613c93565b82546101009290920a63ffffffff818102199093168284169182021790935560008381526005602081905260409182902080546001600160c01b0319163363ffffffff60a01b191617600160a01b958c169590950294909417845560018401899055426002850181905560038501805460ff1916905560068801805463ffffffff1916909617909555860193909355815492519095509091600080516020613d5583398151915291611e1d91899188918a916001600160a01b0390911690613cb6565b60405180910390a1505050610a596001600055565b6000611e3c612f7c565b63ffffffff8216600090815260046020819052604091829020915163bdfe7d4760e01b81526001600160a01b037f0000000000000000000000000000000000000000000000000000000000000000169163bdfe7d4791611e9c9101613a55565b602060405180830381865afa158015611eb9573d6000803e3d6000fd5b505050506040513d601f19601f82011682018060405250810190611edd91906139ea565b81546001600160a01b0391821662010000909104909116036120225760405163bdfe7d4760e01b81526001600160a01b037f0000000000000000000000000000000000000000000000000000000000000000169063bdfe7d4790611f43906004016139cd565b602060405180830381865afa158015611f60573d6000803e3d6000fd5b505050506040513d601f19601f82011682018060405250810190611f8491906139ea565b6001600160a01b0316336001600160a01b0316146120225760405162461bcd60e51b815260206004820152604f60248201527f4f6e6c792043445020636f6e7472616374206d61792066696e6973682074686960448201527f732061756374696f6e2e20506c656173652c207573652066696e6973684d617260648201526e33b4b721b0b6361036b2ba3437b21760891b608482015260a4016106c1565b805460ff16801561203a57508054610100900460ff16155b6120965760405162461bcd60e51b815260206004820152602760248201527f7468652061756374696f6e2069732066696e6973686564206f72206e6f6e2d656044820152661e1a5cdd195b9d60ca1b60648201526084016106c1565b60405163145f822b60e01b815260206004820152601360248201527230bab1ba34b7b72a3ab937223ab930ba34b7b760691b60448201527f00000000000000000000000000000000000000000000000000000000000000006001600160a01b03169063145f822b90606401602060405180830381865afa15801561211e573d6000803e3d6000fd5b505050506040513d601f19601f820116820180604052508101906121429190613af8565b60058201546121519042613c80565b10156121af5760405162461bcd60e51b815260206004820152602760248201527f697420697320746f6f206561726c7920746f2066696e616c697a652c207761696044820152661d081848189a5d60ca1b60648201526084016106c1565b600681015463ffffffff16158015906121d057508060050154816004015414155b61221c5760405162461bcd60e51b815260206004820181905260248201527f74686572652073686f756c64206265206174206c65617374206f6e652062696460448201526064016106c1565b61222583613089565b60019150506122346001600055565b919050565b612241612f7c565b63ffffffff8216600090815260056020526040902080546001600160a01b031633146122bf5760405162461bcd60e51b815260206004820152602760248201527f596f75206d617920696d70726f7665206f6e6c7920796f757220706572736f6e604482015266616c206269647360c81b60648201526084016106c1565b8054600160a01b900463ffffffff166000908152600460205260409020805460ff1680156122f457508054610100900460ff16155b6123105760405162461bcd60e51b81526004016106c190613bbf565b600681015463ffffffff1660009081526005602052604090819020905163bdfe7d4760e01b81526001600160a01b037f0000000000000000000000000000000000000000000000000000000000000000169063bdfe7d479061237490600401613a13565b602060405180830381865afa158015612391573d6000803e3d6000fd5b505050506040513d601f19601f820116820180604052508101906123b591906139ea565b82546201000090046001600160a01b0390811691161480612473575060405163bdfe7d4760e01b81526001600160a01b037f0000000000000000000000000000000000000000000000000000000000000000169063bdfe7d479061241b90600401613a55565b602060405180830381865afa158015612438573d6000803e3d6000fd5b505050506040513d601f19601f8201168201806040525081019061245c91906139ea565b82546201000090046001600160a01b039081169116145b156125545760008411801561253857508360647f00000000000000000000000000000000000000000000000000000000000000006001600160a01b031663145f822b6040518163ffffffff1660e01b81526004016124d090613c0b565b602060405180830381865afa1580156124ed573d6000803e3d6000fd5b505050506040513d601f19601f820116820180604052508101906125119190613af8565b61251c906064613c38565b836001015461252b9190613b49565b6125359190613b27565b11155b6125545760405162461bcd60e51b81526004016106c190613c4b565b60405163bdfe7d4760e01b81526001600160a01b037f0000000000000000000000000000000000000000000000000000000000000000169063bdfe7d479061259e90600401613a37565b602060405180830381865afa1580156125bb573d6000803e3d6000fd5b505050506040513d601f19601f820116820180604052508101906125df91906139ea565b82546001600160a01b0391821662010000909104909116036126d7576000841180156126bb57508360647f00000000000000000000000000000000000000000000000000000000000000006001600160a01b031663145f822b6040518163ffffffff1660e01b815260040161265390613c0b565b602060405180830381865afa158015612670573d6000803e3d6000fd5b505050506040513d601f19601f820116820180604052508101906126949190613af8565b61269f906064613c80565b83600101546126ae9190613b49565b6126b89190613b27565b10155b6126d75760405162461bcd60e51b81526004016106c190613c4b565b600282015460405163bdfe7d4760e01b81526001600160a01b03918216917f0000000000000000000000000000000000000000000000000000000000000000169063bdfe7d479061272a90600401613a13565b602060405180830381865afa158015612747573d6000803e3d6000fd5b505050506040513d601f19601f8201168201806040525081019061276b91906139ea565b83546201000090046001600160a01b0390811691161480612829575060405163bdfe7d4760e01b81526001600160a01b037f0000000000000000000000000000000000000000000000000000000000000000169063bdfe7d47906127d190600401613a55565b602060405180830381865afa1580156127ee573d6000803e3d6000fd5b505050506040513d601f19601f8201168201806040525081019061281291906139ea565b83546201000090046001600160a01b039081169116145b156129295760008460010154866128409190613c80565b6040516323b872dd60e01b81529091506001600160a01b038316906323b872dd9061287390339030908690600401613b74565b6020604051808303816000875af1158015612892573d6000803e3d6000fd5b505050506040513d601f19601f820116820180604052508101906128b69190613a73565b6129275760405162461bcd60e51b815260206004820152603c60248201527f596f752073686f756c6420666972737420617070726f7665207061796d656e7460448201527b20746f2061756374696f6e20636f6e7472616374206164647265737360201b60648201526084016106c1565b505b6001840185905542600584015560068301805463ffffffff191663ffffffff888116919091179091558454604051600080516020613d558339815191529261298b92600160a01b8104909116918a918a916001600160a01b0390911690613cb6565b60405180910390a1505050506129a16001600055565b5050565b60006129af612f7c565b600354600160a01b900460ff1615612a2d5760405162461bcd60e51b815260206004820152603b60248201527f436f696e734275794f7574466f7253746162696c697a6174696f6e20616c726560448201527a18591e48195e1a5cdd1cc8185b99081b9bdd08199a5b9a5cda1959602a1b60648201526084016106c1565b6001546002546040516370a0823160e01b8152600092600160401b90046001600160a01b03908116926370a0823192612a6c9290911690600401613b60565b602060405180830381865afa158015612a89573d6000803e3d6000fd5b505050506040513d601f19601f82011682018060405250810190612aad9190613af8565b60405163145f822b60e01b81526020600482015260186024820152771cdd18589a5b1a5e985d1a5bdb919d5b9914195c98d95b9d60421b60448201529091506000906064906001600160a01b037f0000000000000000000000000000000000000000000000000000000000000000169063145f822b908301602060405180830381865afa158015612b42573d6000803e3d6000fd5b505050506040513d601f19601f82011682018060405250810190612b669190613af8565b600160089054906101000a90046001600160a01b03166001600160a01b03166318160ddd6040518163ffffffff1660e01b8152600401602060405180830381865afa158015612bb9573d6000803e3d6000fd5b505050506040513d601f19601f82011682018060405250810190612bdd9190613af8565b612be79190613b49565b612bf19190613b27565b9050808210612c425760405162461bcd60e51b815260206004820181905260248201527f6e6f7420736f206c6f7720746f20696e69742052756c6520656d697373696f6e60448201526064016106c1565b612c4c8282613c80565b841115612c6057612c5d8282613c80565b93505b60405163145f822b60e01b81526001600160a01b037f0000000000000000000000000000000000000000000000000000000000000000169063145f822b90612caa90600401613ce4565b602060405180830381865afa158015612cc7573d6000803e3d6000fd5b505050506040513d601f19601f82011682018060405250810190612ceb9190613af8565b841115612d805760405163145f822b60e01b81526001600160a01b037f0000000000000000000000000000000000000000000000000000000000000000169063145f822b90612d3c90600401613ce4565b602060405180830381865afa158015612d59573d6000803e3d6000fd5b505050506040513d601f19601f82011682018060405250810190612d7d9190613af8565b93505b60405163bdfe7d4760e01b8152612ea3906001600160a01b037f0000000000000000000000000000000000000000000000000000000000000000169063bdfe7d4790612dce90600401613a37565b602060405180830381865afa158015612deb573d6000803e3d6000fd5b505050506040513d601f19601f82011682018060405250810190612e0f91906139ea565b60405163bdfe7d4760e01b81526000906001600160a01b037f0000000000000000000000000000000000000000000000000000000000000000169063bdfe7d4790612e5c90600401613a13565b602060405180830381865afa158015612e79573d6000803e3d6000fd5b505050506040513d601f19601f82011682018060405250810190612e9d91906139ea565b87612fd5565b6003805460ff60a01b1916600160a01b17905560405163bdfe7d4760e01b8152909350600080516020613d758339815191529084906000906001600160a01b037f0000000000000000000000000000000000000000000000000000000000000000169063bdfe7d4790612f1890600401613a37565b602060405180830381865afa158015612f35573d6000803e3d6000fd5b505050506040513d601f19601f82011682018060405250810190612f5991906139ea565b604051612f6893929190613b98565b60405180910390a150506122346001600055565b600260005403612fce5760405162461bcd60e51b815260206004820152601f60248201527f5265656e7472616e637947756172643a207265656e7472616e742063616c6c0060448201526064016106c1565b6002600055565b60018054600091908290612fee9063ffffffff16613c93565b82546101009290920a63ffffffff8181021990931692821690810292909217909255600090815260046020819052604090912080546001600160b01b031916620100006001600160a01b03998a160217600190811782558101969096556002860180546001600160a01b0319169590971694909417909555506003830155426005830181905590820155600601805463ffffffff1916905590565b63ffffffff808216600090815260046020818152604080842060068101549095168452600590915291829020915163bdfe7d4760e01b81526001600160a01b037f0000000000000000000000000000000000000000000000000000000000000000169163bdfe7d47916130fc9101613a13565b602060405180830381865afa158015613119573d6000803e3d6000fd5b505050506040513d601f19601f8201168201806040525081019061313d91906139ea565b82546001600160a01b0391821662010000909104909116036133d65781548154600184015460405163a9059cbb60e01b81526001600160a01b036201000090940484169363a9059cbb9361319693911691600401613a95565b6020604051808303816000875af11580156131b5573d6000803e3d6000fd5b505050506040513d601f19601f820116820180604052508101906131d99190613a73565b6132365760405162461bcd60e51b815260206004820152602860248201527f6c6f74546f6b656e207472616e73666572206661696c656420666f7220736f6d60448201526732903932b0b9b7b760c11b60648201526084016106c1565b600282015460405163bdfe7d4760e01b81526001600160a01b039182169163a9059cbb917f00000000000000000000000000000000000000000000000000000000000000009091169063bdfe7d4790613291906004016139cd565b602060405180830381865afa1580156132ae573d6000803e3d6000fd5b505050506040513d601f19601f820116820180604052508101906132d291906139ea565b83600101546040518363ffffffff1660e01b81526004016132f4929190613a95565b6020604051808303816000875af1158015613313573d6000803e3d6000fd5b505050506040513d601f19601f820116820180604052508101906133379190613a73565b6133985760405162461bcd60e51b815260206004820152602c60248201527f7061796d656e74546f6b656e207472616e73666572206661696c656420666f7260448201526b1039b7b6b2903932b0b9b7b760a11b60648201526084016106c1565b6003805460ff60a81b1916905560018281015490820154604051600080516020613d35833981519152926133cd928792613d16565b60405180910390a15b60405163bdfe7d4760e01b81526001600160a01b037f0000000000000000000000000000000000000000000000000000000000000000169063bdfe7d479061342090600401613a37565b602060405180830381865afa15801561343d573d6000803e3d6000fd5b505050506040513d601f19601f8201168201806040525081019061346191906139ea565b82546001600160a01b0391821662010000909104909116036136945760025481546001830154604051630403dc0960e01b81526001600160a01b0393841693630403dc09936134b593911691600401613a95565b6020604051808303816000875af11580156134d4573d6000803e3d6000fd5b505050506040513d601f19601f820116820180604052508101906134f89190613a73565b61353a5760405162461bcd60e51b8152602060048201526013602482015272636f756c64206e6f74206d696e742072756c6560681b60448201526064016106c1565b60015460405163bdfe7d4760e01b8152600160401b9091046001600160a01b039081169163a9059cbb917f0000000000000000000000000000000000000000000000000000000000000000169063bdfe7d4790613599906004016139cd565b602060405180830381865afa1580156135b6573d6000803e3d6000fd5b505050506040513d601f19601f820116820180604052508101906135da91906139ea565b84600301546040518363ffffffff1660e01b81526004016135fc929190613a95565b6020604051808303816000875af115801561361b573d6000803e3d6000fd5b505050506040513d601f19601f8201168201806040525081019061363f9190613a73565b6136865760405162461bcd60e51b8152602060048201526018602482015277636f756c64206e6f74207472616e7366657220636f696e7360401b60448201526064016106c1565b6003805460ff60a01b191690555b60405163bdfe7d4760e01b81526001600160a01b037f0000000000000000000000000000000000000000000000000000000000000000169063bdfe7d47906136de90600401613a55565b602060405180830381865afa1580156136fb573d6000803e3d6000fd5b505050506040513d601f19601f8201168201806040525081019061371f91906139ea565b82546001600160a01b0391821662010000909104909116036139005781548154600184015460405163a9059cbb60e01b81526001600160a01b036201000090940484169363a9059cbb9361377893911691600401613a95565b6020604051808303816000875af1158015613797573d6000803e3d6000fd5b505050506040513d601f19601f820116820180604052508101906137bb9190613a73565b6137c457600080fd5b600282015460405163bdfe7d4760e01b81526001600160a01b039182169163a9059cbb917f00000000000000000000000000000000000000000000000000000000000000009091169063bdfe7d479061381f906004016139cd565b602060405180830381865afa15801561383c573d6000803e3d6000fd5b505050506040513d601f19601f8201168201806040525081019061386091906139ea565b83600101546040518363ffffffff1660e01b8152600401613882929190613a95565b6020604051808303816000875af11580156138a1573d6000803e3d6000fd5b505050506040513d601f19601f820116820180604052508101906138c59190613a73565b6138ce57600080fd5b600080516020613d3583398151915283836001015483600101546040516138f793929190613d16565b60405180910390a15b50805461ff00191661010017905550565b803563ffffffff8116811461223457600080fd5b60006020828403121561393757600080fd5b61394082613911565b9392505050565b6000806040838503121561395a57600080fd5b61396383613911565b915060208301356001600160801b038116811461397f57600080fd5b809150509250929050565b6000806040838503121561399d57600080fd5b6139a683613911565b946020939093013593505050565b6000602082840312156139c657600080fd5b5035919050565b60208082526003908201526206364760ec1b604082015260600190565b6000602082840312156139fc57600080fd5b81516001600160a01b038116811461394057600080fd5b6020808252600a908201526939ba30b13632a1b7b4b760b11b604082015260600190565b60208082526004908201526372756c6560e01b604082015260600190565b6020808252600490820152630eecae8d60e31b604082015260600190565b600060208284031215613a8557600080fd5b8151801515811461394057600080fd5b6001600160a01b03929092168252602082015260400190565b6020808252602a908201527f77652077657265206e6f742061626c6520746f207472616e7366657220796f756040820152697220626964206261636b60b01b606082015260800190565b600060208284031215613b0a57600080fd5b5051919050565b634e487b7160e01b600052601160045260246000fd5b600082613b4457634e487b7160e01b600052601260045260246000fd5b500490565b8082028115828204841417610a5957610a59613b11565b6001600160a01b0391909116815260200190565b6001600160a01b039384168152919092166020820152604081019190915260600190565b63ffffffff93909316835260208301919091526001600160a01b0316604082015260600190565b6020808252602c908201527f61756374696f6e49642069732077726f6e67206f7220697420697320616c726560408201526b18591e48199a5b9a5cda195960a21b606082015260800190565b6020808252601390820152726d696e41756374696f6e50726963654d6f766560681b604082015260600190565b80820180821115610a5957610a59613b11565b6020808252601b908201527a0f2deeae440c4d2c840d2e640dcdee840d0d2ced040cadcdeeaced602b1b604082015260600190565b81810381811115610a5957610a59613b11565b600063ffffffff808316818103613cac57613cac613b11565b6001019392505050565b63ffffffff948516815292909316602083015260408201526001600160a01b03909116606082015260800190565b60208082526018908201527736b0bc21b7b4b739a337b929ba30b134b634bd30ba34b7b760411b604082015260600190565b63ffffffff939093168352602083019190915260408201526060019056fe0ee7855ba9fb0a4dcaafdc4ab664ec206d66e8a1cba0f1c76af3bd51a912a0cbeb8c99cce712855d65d3e2cc2f17e5680d7f0728918e592122da176a45a69f15108c614ddd89aaff61a9e254d5a4c476fde6a4fe3623fa604a7bf08366558588a26469706673582212200f1f66423d10f000501395553621d02dbe38a46a51bc95c86ab95db97b49b67b64736f6c63430008120033",
  "immutableReferences": {
    "824": [
      {
        "length": 32,
        "start": 938
      },
      {
        "length": 32,
        "start": 1097
      },
      {
        "length": 32,
        "start": 1267
      },
      {
        "length": 32,
        "start": 1452
      },
      {
        "length": 32,
        "start": 1764
      },
      {
        "length": 32,
        "start": 1899
      },
      {
        "length": 32,
        "start": 2282
      },
      {
        "length": 32,
        "start": 2432
      },
      {
        "length": 32,
        "start": 3097
      },
      {
        "length": 32,
        "start": 3809
      },
      {
        "length": 32,
        "start": 4285
      },
      {
        "length": 32,
        "start": 4647
      },
      {
        "length": 32,
        "start": 4890
      },
      {
        "length": 32,
        "start": 5031
      },
      {
        "length": 32,
        "start": 5147
      },
      {
        "length": 32,
        "start": 5448
      },
      {
        "length": 32,
        "start": 5615
      },
      {
        "length": 32,
        "start": 5775
      },
      {
        "length": 32,
        "start": 6002
      },
      {
        "length": 32,
        "start": 6162
      },
      {
        "length": 32,
        "start": 6477
      },
      {
        "length": 32,
        "start": 6684
      },
      {
        "length": 32,
        "start": 7787
      },
      {
        "length": 32,
        "start": 7952
      },
      {
        "length": 32,
        "start": 8399
      },
      {
        "length": 32,
        "start": 9025
      },
      {
        "length": 32,
        "start": 9192
      },
      {
        "length": 32,
        "start": 9352
      },
      {
        "length": 32,
        "start": 9579
      },
      {
        "length": 32,
        "start": 9739
      },
      {
        "length": 32,
        "start": 9975
      },
      {
        "length": 32,
        "start": 10142
      },
      {
        "length": 32,
        "start": 11004
      },
      {
        "length": 32,
        "start": 11383
      },
      {
        "length": 32,
        "start": 11529
      },
      {
        "length": 32,
        "start": 11675
      },
      {
        "length": 32,
        "start": 11817
      },
      {
        "length": 32,
        "start": 12005
      },
      {
        "length": 32,
        "start": 12491
      },
      {
        "length": 32,
        "start": 12892
      },
      {
        "length": 32,
        "start": 13293
      },
      {
        "length": 32,
        "start": 13670
      },
      {
        "length": 32,
        "start": 13995
      },
      {
        "length": 32,
        "start": 14314
      }
    ]
  },
  "source": "// SPDX-License-Identifier: UNLICENSED\r\npragma solidity 0.8.18;\r\nimport \"@openzeppelin/contracts/token/ERC20/IERC20.sol\";\r\nimport \"@openzeppelin/contracts/security/ReentrancyGuard.sol\";\r\nimport \"./IDAO.sol\";\r\nimport \"./ICDP.sol\";\r\n\r\n    struct auctionEntity {\r\n        bool initialized;\r\n        bool finalized;\r\n        address lotToken;\r\n        uint lotAmount;\r\n        address paymentToken;\r\n        uint256 paymentAmount;\r\n        uint256 initTime;\r\n        uint256 lastTimeUpdated;\r\n        uint32 bestBidId;\r\n    }\r\n\r\n    struct Bid {\r\n        address owner;\r\n        uint32 auctionID;\r\n        uint256 bidAmount;\r\n        uint256 time;\r\n        bool canceled;\r\n    }\r\n\r\ncontract Auction is ReentrancyGuard{\r\n    uint32 public auctionNum;\r\n    uint32 public bidsNum;\r\n    IERC20 coin;\r\n    IDAO immutable dao;\r\n    ICDP cdp;\r\n    IERC20 rule;\r\n    bool isCoinsBuyOutForStabilization;\r\n    bool ruleBuyOut;\r\n\r\n    mapping(uint32 => auctionEntity) public auctions;\r\n    mapping (uint32 => Bid) public bids;\r\n\r\n    event buyOutInit(uint32 auctionID, uint256 lotAmount, address lotAddress);\r\n    event buyOutFinished(uint32 auctionID, uint256 lotAmount, uint256 bestBid);\r\n    event newBid(uint32 auctionID, uint256 bidId, uint256 bidAmount, address owner);\r\n    event bidCanceled(uint256 bidId);\r\n    event liquidateCollateral(uint32 auctionID, uint256 posID, uint256 collateral);\r\n\r\n    constructor(address _INTDAOaddress){\r\n        dao = IDAO(_INTDAOaddress);\r\n    }\r\n\r\n    function renewContracts() public{\r\n        cdp = ICDP(dao.addresses(\"cdp\"));\r\n        coin = IERC20(dao.addresses(\"stableCoin\"));\r\n        rule = IERC20(dao.addresses(\"rule\"));\r\n    }\r\n\r\n    function initRuleBuyOut() nonReentrant external returns (uint32 auctionID){\r\n        require (!ruleBuyOut, \"Rule buyOut auction already exist\");\r\n        require ((rule.balanceOf(msg.sender)>=rule.totalSupply()/100*dao.params(\"minRuleTokensToInitVotingPercent\")), \"not enough rule balance\");\r\n\r\n        uint256 allowed = coin.allowance(dao.addresses(\"cdp\"), address(this));\r\n        require (allowed>0, \"Can not transfer surplus from CDP\");\r\n\r\n        coin.transferFrom(dao.addresses(\"cdp\"), address(this), allowed);\r\n\r\n        auctionID = createNewAuction(dao.addresses(\"stableCoin\"), allowed, dao.addresses(\"rule\"), 0);\r\n        ruleBuyOut = true;\r\n\r\n        emit buyOutInit(auctionID, allowed, dao.addresses(\"stableCoin\"));\r\n        return auctionID;\r\n    }\r\n\r\n    function initCoinsBuyOutForStabilization(uint256 coinsAmountNeeded) nonReentrant external returns (uint32 auctionID){\r\n        require (!isCoinsBuyOutForStabilization, \"CoinsBuyOutForStabilization already exists and not finished\");\r\n        uint256 actualStabilizationFund = coin.balanceOf(address(cdp));\r\n        uint256 preferableStabilizationFund = coin.totalSupply() * dao.params(\"stabilizationFundPercent\")/100;\r\n        require (actualStabilizationFund<preferableStabilizationFund, \"not so low to init Rule emission\");\r\n\r\n        if (coinsAmountNeeded > preferableStabilizationFund - actualStabilizationFund)\r\n            coinsAmountNeeded = preferableStabilizationFund - actualStabilizationFund;\r\n        if (coinsAmountNeeded>dao.params(\"maxCoinsForStabilization\"))\r\n            coinsAmountNeeded = dao.params(\"maxCoinsForStabilization\");\r\n\r\n        auctionID = createNewAuction(dao.addresses(\"rule\"), 0, dao.addresses(\"stableCoin\"), coinsAmountNeeded);\r\n        isCoinsBuyOutForStabilization = true;\r\n\r\n        emit buyOutInit(auctionID, 0, dao.addresses(\"rule\"));\r\n        return auctionID;\r\n    }\r\n\r\n    function initCoinsBuyOut(uint32 posID, uint128 collateral) nonReentrant external returns (uint32 auctionID){\r\n        require (msg.sender == dao.addresses(\"cdp\"), \"Only CDP contract may invoke this method. Please, use startCoinsBuyOut in CDP contract\");\r\n        IERC20 weth = IERC20(dao.addresses(\"weth\"));\r\n        require(weth.transferFrom(dao.addresses(\"cdp\"), address(this), collateral), \"could not transfer weth for some reason\");\r\n\r\n        auctionID = createNewAuction (dao.addresses(\"weth\"), collateral, dao.addresses(\"stableCoin\"),0);\r\n        emit liquidateCollateral(auctionID, posID, collateral);\r\n\r\n        return auctionID;\r\n    }\r\n\r\n    function createNewAuction(address lotToken, uint256 lotAmount, address paymentToken, uint256 paymentAmount) internal returns (uint32 auctionID){\r\n        auctionID = ++auctionNum;\r\n        auctionEntity storage a = auctions[auctionID];\r\n\r\n        a.initialized = true;\r\n        a.finalized = false;\r\n        a.lotToken = lotToken;\r\n        a.lotAmount = lotAmount;\r\n        a.paymentToken = paymentToken;\r\n        a.paymentAmount = paymentAmount;\r\n        a.lastTimeUpdated = block.timestamp;\r\n        a.initTime = block.timestamp;\r\n        a.bestBidId = 0;\r\n        return auctionID;\r\n    }\r\n\r\n    function makeBid(uint32 auctionId, uint256 bidAmount) nonReentrant external returns (uint32 bidId){\r\n        auctionEntity storage a = auctions[auctionId];\r\n        require(a.initialized&&!a.finalized, \"auctionId is wrong or it is already finished\");\r\n\r\n        if (a.bestBidId!=0){\r\n            Bid storage bestBid = bids[a.bestBidId];\r\n            if (a.lotToken == dao.addresses(\"stableCoin\") || a.lotToken == dao.addresses(\"weth\"))\r\n                require(bidAmount>0 && bestBid.bidAmount*(100+dao.params(\"minAuctionPriceMove\"))/100<=bidAmount, \"your bid is not high enough\");\r\n            if (a.lotToken == dao.addresses(\"rule\"))\r\n                require(bidAmount>0 && bestBid.bidAmount*(100-dao.params(\"minAuctionPriceMove\"))/100>=bidAmount, \"your bid is not low enough\");\r\n        }\r\n        require(bidAmount>0, \"your bid is not high enough\");\r\n        IERC20 paymentToken = IERC20(address(a.paymentToken));\r\n        if (a.lotToken == dao.addresses(\"rule\")){\r\n            require(bidAmount<=rule.totalSupply()*dao.params(\"maxRuleEmissionPercent\")/100, \"too many rules for one emission\");\r\n            require(paymentToken.transferFrom(msg.sender, address(this), a.paymentAmount), \"You should first approve stableCoins to auction contract address\");\r\n        }\r\n        else\r\n            require(paymentToken.transferFrom(msg.sender, address(this), bidAmount), \"You should first approve bidAmount to auction contract address\");\r\n\r\n        bidId = ++bidsNum;\r\n        Bid storage b = bids[bidId];\r\n        b.owner = msg.sender;\r\n        b.auctionID = auctionId;\r\n        b.bidAmount = bidAmount;\r\n        b.time = block.timestamp;\r\n        b.canceled = false;\r\n\r\n        a.bestBidId = bidId;\r\n        a.lastTimeUpdated = block.timestamp;\r\n        emit newBid(auctionId, bidId, bidAmount, b.owner);\r\n        return bidId;\r\n    }\r\n\r\n    function improveBid(uint32 bidId, uint256 newBidAmount) nonReentrant external{\r\n        Bid storage b = bids[bidId];\r\n        require(b.owner == msg.sender, \"You may improve only your personal bids\");\r\n        auctionEntity storage a = auctions[b.auctionID];\r\n        require(a.initialized&&!a.finalized, \"auctionId is wrong or it is already finished\");\r\n        Bid storage bestBid = bids[a.bestBidId];\r\n\r\n        if (a.lotToken == dao.addresses(\"stableCoin\") || a.lotToken == dao.addresses(\"weth\"))\r\n            require(newBidAmount>0 && bestBid.bidAmount*(100+dao.params(\"minAuctionPriceMove\"))/100<=newBidAmount, \"your bid is not high enough\");\r\n        if (a.lotToken == dao.addresses(\"rule\"))\r\n            require(newBidAmount>0 && bestBid.bidAmount*(100-dao.params(\"minAuctionPriceMove\"))/100>=newBidAmount, \"your bid is not high enough\");\r\n\r\n        IERC20 paymentToken = IERC20(address(a.paymentToken));\r\n\r\n        if (a.lotToken == dao.addresses(\"stableCoin\") || a.lotToken == dao.addresses(\"weth\")){\r\n            uint256 difference = newBidAmount-b.bidAmount;\r\n            require(paymentToken.transferFrom(msg.sender, address(this), difference), \"You should first approve payment to auction contract address\");\r\n        }\r\n\r\n        b.bidAmount = newBidAmount;\r\n        a.lastTimeUpdated = block.timestamp;\r\n        a.bestBidId = bidId;\r\n        emit newBid(b.auctionID, bidId, newBidAmount, b.owner);\r\n    }\r\n\r\n    function cancelBid(uint32 bidId) nonReentrant external{\r\n        Bid storage b = bids[bidId];\r\n        require (b.owner==msg.sender && !b.canceled, \"Only bid owner may cancel it, if it wasn't canceled earlier\");\r\n        auctionEntity storage a = auctions[b.auctionID];\r\n        require(a.initialized, \"the bid is made on non-existent auction\");\r\n        require(a.bestBidId!=bidId, \"You can not cancel a bid if it is a best one\");\r\n        IERC20 paymentToken = IERC20(address(a.paymentToken));\r\n        if (a.lotToken == dao.addresses(\"rule\"))\r\n            require(paymentToken.transfer(b.owner, a.paymentAmount), \"we were not able to transfer your bid back\");\r\n        else\r\n            require(paymentToken.transfer(b.owner, b.bidAmount), \"we were not able to transfer your bid back\");\r\n        emit bidCanceled(bidId);\r\n        b.canceled = true;\r\n    }\r\n\r\n    function claimToFinalizeAuction(uint32 auctionID) nonReentrant external returns (bool success){\r\n        auctionEntity storage a = auctions[auctionID];\r\n        if (a.lotToken == dao.addresses(\"weth\"))\r\n            require (msg.sender == dao.addresses(\"cdp\"), \"Only CDP contract may finish this auction. Please, use finishMarginCall method.\");\r\n\r\n        require(a.initialized && !a.finalized, \"the auction is finished or non-existent\");\r\n        require(block.timestamp-a.lastTimeUpdated>=dao.params(\"auctionTurnDuration\"), \"it is too early to finalize, wait a bit\");\r\n        require(a.bestBidId!=0 && a.initTime!=a.lastTimeUpdated, \"there should be at least one bid\");\r\n\r\n        finalizeAuction(auctionID);\r\n        return true;\r\n    }\r\n\r\n    function finalizeAuction(uint32 auctionID) internal {\r\n        auctionEntity storage a = auctions[auctionID];\r\n        Bid storage bestBid = bids[a.bestBidId];\r\n\r\n        if (a.lotToken == dao.addresses(\"stableCoin\")){\r\n            require(IERC20(address(a.lotToken)).transfer(bestBid.owner, a.lotAmount), \"lotToken transfer failed for some reason\");\r\n            require(IERC20(address(a.paymentToken)).transfer(dao.addresses(\"cdp\"), bestBid.bidAmount), \"paymentToken transfer failed for some reason\");\r\n            ruleBuyOut = false;\r\n            emit buyOutFinished(auctionID, a.lotAmount, bestBid.bidAmount);\r\n        }\r\n        if (a.lotToken == dao.addresses(\"rule\")){\r\n            require(cdp.mintRule(bestBid.owner, bestBid.bidAmount), \"could not mint rule\");\r\n            require(coin.transfer(dao.addresses(\"cdp\"), a.paymentAmount), \"could not transfer coins\");\r\n            isCoinsBuyOutForStabilization = false;\r\n        }\r\n        if (a.lotToken == dao.addresses(\"weth\")){\r\n            require(IERC20(address(a.lotToken)).transfer(bestBid.owner, a.lotAmount));\r\n            require(IERC20(address(a.paymentToken)).transfer(dao.addresses(\"cdp\"), bestBid.bidAmount));\r\n            emit buyOutFinished(auctionID, a.lotAmount, bestBid.bidAmount);\r\n        }\r\n        a.finalized = true;\r\n    }\r\n\r\n    function isFinalized(uint32 auctionId) external view returns (bool finalized){\r\n        return auctions[auctionId].finalized;\r\n    }\r\n\r\n    function getPaymentAmount(uint32 auctionID) external view returns (uint256){\r\n        return auctions[auctionID].paymentAmount;\r\n    }\r\n\r\n    function getBestBidAmount(uint32 auctionID) external view returns (uint256){\r\n        return bids[auctions[auctionID].bestBidId].bidAmount;\r\n    }\r\n}\r\n",
  "sourcePath": "D:\\YandexDisk\\\\ICO\\CryptoFiat\\repo\\contracts\\Auction.sol",
  "compiler": {
    "name": "solc",
    "version": "0.8.18+commit.87f61d96.Emscripten.clang"
  },
  "schemaVersion": "3.4.14",
  "updatedAt": "2023-10-01T08:25:02.631Z",
  "devdoc": {
    "kind": "dev",
    "methods": {},
    "version": 1
  },
  "userdoc": {
    "kind": "user",
    "methods": {},
    "version": 1
  }
}