{
  "contractName": "cartContract",
  "abi": [
    {
      "inputs": [
        {
          "internalType": "address payable",
          "name": "_INTDAOaddress",
          "type": "address"
        }
      ],
      "stateMutability": "nonpayable",
      "type": "constructor"
    },
    {
      "anonymous": false,
      "inputs": [
        {
          "indexed": false,
          "internalType": "uint16",
          "name": "id",
          "type": "uint16"
        }
      ],
      "name": "instrumentAdded",
      "type": "event"
    },
    {
      "anonymous": false,
      "inputs": [
        {
          "indexed": false,
          "internalType": "uint16",
          "name": "id",
          "type": "uint16"
        }
      ],
      "name": "shareChanged",
      "type": "event"
    },
    {
      "inputs": [],
      "name": "decimals",
      "outputs": [
        {
          "internalType": "uint8",
          "name": "",
          "type": "uint8"
        }
      ],
      "stateMutability": "view",
      "type": "function"
    },
    {
      "inputs": [
        {
          "internalType": "string",
          "name": "",
          "type": "string"
        }
      ],
      "name": "dictionary",
      "outputs": [
        {
          "internalType": "uint16",
          "name": "",
          "type": "uint16"
        }
      ],
      "stateMutability": "view",
      "type": "function"
    },
    {
      "inputs": [
        {
          "internalType": "uint16",
          "name": "",
          "type": "uint16"
        }
      ],
      "name": "items",
      "outputs": [
        {
          "internalType": "string",
          "name": "symbol",
          "type": "string"
        },
        {
          "internalType": "uint16",
          "name": "share",
          "type": "uint16"
        },
        {
          "internalType": "uint256",
          "name": "initialPrice",
          "type": "uint256"
        }
      ],
      "stateMutability": "view",
      "type": "function"
    },
    {
      "inputs": [],
      "name": "itemsCount",
      "outputs": [
        {
          "internalType": "uint16",
          "name": "",
          "type": "uint16"
        }
      ],
      "stateMutability": "view",
      "type": "function"
    },
    {
      "inputs": [],
      "name": "sharesCount",
      "outputs": [
        {
          "internalType": "uint16",
          "name": "",
          "type": "uint16"
        }
      ],
      "stateMutability": "view",
      "type": "function"
    },
    {
      "inputs": [],
      "name": "renewContracts",
      "outputs": [],
      "stateMutability": "nonpayable",
      "type": "function"
    },
    {
      "inputs": [
        {
          "internalType": "string",
          "name": "symbol",
          "type": "string"
        },
        {
          "internalType": "uint16",
          "name": "share",
          "type": "uint16"
        },
        {
          "internalType": "uint256",
          "name": "initialPrice",
          "type": "uint256"
        }
      ],
      "name": "addItem",
      "outputs": [],
      "stateMutability": "nonpayable",
      "type": "function"
    },
    {
      "inputs": [
        {
          "internalType": "uint16",
          "name": "id",
          "type": "uint16"
        },
        {
          "internalType": "uint16",
          "name": "share",
          "type": "uint16"
        }
      ],
      "name": "setShare",
      "outputs": [],
      "stateMutability": "nonpayable",
      "type": "function"
    },
    {
      "inputs": [],
      "name": "getCurrentSharePrice",
      "outputs": [
        {
          "internalType": "uint256",
          "name": "price",
          "type": "uint256"
        }
      ],
      "stateMutability": "view",
      "type": "function"
    },
    {
      "inputs": [
        {
          "internalType": "string",
          "name": "symbol",
          "type": "string"
        }
      ],
      "name": "getPrice",
      "outputs": [
        {
          "internalType": "uint256",
          "name": "",
          "type": "uint256"
        }
      ],
      "stateMutability": "view",
      "type": "function"
    },
    {
      "inputs": [
        {
          "internalType": "string",
          "name": "symbol",
          "type": "string"
        }
      ],
      "name": "getDecimals",
      "outputs": [
        {
          "internalType": "uint8",
          "name": "_decimals",
          "type": "uint8"
        }
      ],
      "stateMutability": "view",
      "type": "function"
    }
  ],
  "bytecode": "0x60a060405234801561001057600080fd5b5060405161121338038061121383398101604081905261002f91610040565b6001600160a01b0316608052610070565b60006020828403121561005257600080fd5b81516001600160a01b038116811461006957600080fd5b9392505050565b60805161118861008b600039600061038901526111886000f3fe608060405234801561001057600080fd5b50600436106100995760003560e01c806302236e891461009e57806323d86a65146100b9578063313ce567146100c3578063479cdf87146100dd578063524f3889146100f05780639d555cfa14610103578063ab16ef441461012b578063afd0fd1d1461015a578063c71c9e7c1461016d578063e2c03ace14610180578063e8c91e5314610195575b600080fd5b6100a66101b7565b6040519081526020015b60405180910390f35b6100c161035d565b005b6100cb600681565b60405160ff90911681526020016100b0565b6100c16100eb366004610b98565b61041e565b6100a66100fe366004610bee565b6106a3565b60005461011890600160b01b900461ffff1681565b60405161ffff90911681526020016100b0565b610118610139366004610bee565b805160208183018101805160028252928201919093012091525461ffff1681565b6100cb610168366004610bee565b610803565b6100c161017b366004610c2a565b610875565b60005461011890600160a01b900461ffff1681565b6101a86101a3366004610c5d565b610a30565b6040516100b093929190610ccf565b60008060015b60005461ffff600160a01b90910481169082161161033e5761ffff811660009081526001602052604080822060028101549254915163afd0fd1d60e01b81529092916001600160a01b03169063afd0fd1d9061021d908590600401610d32565b602060405180830381865afa15801561023a573d6000803e3d6000fd5b505050506040513d601f19601f8201168201806040525081019061025e9190610dbd565b610269906006610df6565b61027490600a610ef3565b60005460405163524f388960e01b81526001600160a01b039091169063524f3889906102a4908690600401610d32565b602060405180830381865afa1580156102c1573d6000803e3d6000fd5b505050506040513d601f19601f820116820180604052508101906102e59190610f02565b60018401546102fb9061ffff16620f4240610f1b565b62ffffff1661030a9190610f42565b6103149190610f42565b61031e9190610f59565b6103289084610f7b565b925050808061033690610f8e565b9150506101bd565b5060005461035790600160b01b900461ffff1682610f59565b91505090565b60405163bdfe7d4760e01b81526020600482015260066024820152656f7261636c6560d01b60448201527f00000000000000000000000000000000000000000000000000000000000000006001600160a01b03169063bdfe7d4790606401602060405180830381865afa1580156103d8573d6000803e3d6000fd5b505050506040513d601f19601f820116820180604052508101906103fc9190610faf565b600080546001600160a01b0319166001600160a01b0392909216919091179055565b60008054906101000a90046001600160a01b03166001600160a01b031663df034cd06040518163ffffffff1660e01b8152600401602060405180830381865afa15801561046f573d6000803e3d6000fd5b505050506040513d601f19601f820116820180604052508101906104939190610faf565b6001600160a01b0316336001600160a01b0316146105045760405162461bcd60e51b815260206004820152602360248201527f6f6e6c7920617574686f72697a65642061646472657373206d6179206164644960448201526274656d60e81b60648201526084015b60405180910390fd5b6002836040516105149190610fd8565b9081526040519081900360200190205461ffff161561058d5760405162461bcd60e51b815260206004820152602f60248201527f696e737472756d656e7420616c7265616479206578697374732c20706c65617360448201526e652c2075736520736574536861726560881b60648201526084016104fb565b6000805481906014906105aa90600160a01b900461ffff16610f8e565b82546101009290920a61ffff81810219909316828416918202179093556000928352600160208190526040909320928301805461ffff1916928716929092179091559150806105f98682611043565b506002810183905560008054859190601690610621908490600160b01b900461ffff16611102565b92506101000a81548161ffff021916908361ffff1602179055508160028660405161064c9190610fd8565b90815260405160209181900382018120805461ffff191661ffff94851617905591841682527f13d871326aea07b7d5810f3db52f2dab0fc61d26f424a8cef4f159a2f84a7dba910160405180910390a15050505050565b60408051808201909152600381526239ba3160e91b6020918201528151908201206000907f875cadbb0ee04143f031fd4ed42068764ce3b61b8557ee4fc973c3456255812401610792576106f56101b7565b60005460405163524f388960e01b815260206004820152600360248201526265746360e81b60448201526001600160a01b039091169063524f388990606401602060405180830381865afa158015610751573d6000803e3d6000fd5b505050506040513d601f19601f820116820180604052508101906107759190610f02565b61078290620f4240610f42565b61078c9190610f59565b92915050565b60005460405163524f388960e01b81526001600160a01b039091169063524f3889906107c2908590600401611124565b602060405180830381865afa1580156107df573d6000803e3d6000fd5b505050506040513d601f19601f8201168201806040525081019061078c9190610f02565b6000805460405163afd0fd1d60e01b81526001600160a01b039091169063afd0fd1d90610834908590600401611124565b602060405180830381865afa158015610851573d6000803e3d6000fd5b505050506040513d601f19601f8201168201806040525081019061078c9190610dbd565b60008054906101000a90046001600160a01b03166001600160a01b031663df034cd06040518163ffffffff1660e01b8152600401602060405180830381865afa1580156108c6573d6000803e3d6000fd5b505050506040513d601f19601f820116820180604052508101906108ea9190610faf565b6001600160a01b0316336001600160a01b0316146109565760405162461bcd60e51b8152602060048201526024808201527f6f6e6c7920617574686f72697a65642061646472657373206d617920736574536044820152636861726560e01b60648201526084016104fb565b61ffff8083166000908152600160208190526040822090810154825491939081169291601691610990918591600160b01b90910416611137565b92506101000a81548161ffff021916908361ffff16021790555081600060168282829054906101000a900461ffff166109c99190611102565b82546101009290920a61ffff81810219909316918316021790915560018301805461ffff191685831617905560405190851681527fd2c30f026870b6e33e35b8d74c55bc4cbe96cb1d70503d705c9b9a2189c69d4d915060200160405180910390a1505050565b600160205260009081526040902080548190610a4b90610cf8565b80601f0160208091040260200160405190810160405280929190818152602001828054610a7790610cf8565b8015610ac45780601f10610a9957610100808354040283529160200191610ac4565b820191906000526020600020905b815481529060010190602001808311610aa757829003601f168201915b505050506001830154600290930154919261ffff1691905083565b634e487b7160e01b600052604160045260246000fd5b600082601f830112610b0657600080fd5b81356001600160401b0380821115610b2057610b20610adf565b604051601f8301601f19908116603f01168101908282118183101715610b4857610b48610adf565b81604052838152866020858801011115610b6157600080fd5b836020870160208301376000602085830101528094505050505092915050565b803561ffff81168114610b9357600080fd5b919050565b600080600060608486031215610bad57600080fd5b83356001600160401b03811115610bc357600080fd5b610bcf86828701610af5565b935050610bde60208501610b81565b9150604084013590509250925092565b600060208284031215610c0057600080fd5b81356001600160401b03811115610c1657600080fd5b610c2284828501610af5565b949350505050565b60008060408385031215610c3d57600080fd5b610c4683610b81565b9150610c5460208401610b81565b90509250929050565b600060208284031215610c6f57600080fd5b610c7882610b81565b9392505050565b60005b83811015610c9a578181015183820152602001610c82565b50506000910152565b60008151808452610cbb816020860160208601610c7f565b601f01601f19169290920160200192915050565b606081526000610ce26060830186610ca3565b61ffff9490941660208301525060400152919050565b600181811c90821680610d0c57607f821691505b602082108103610d2c57634e487b7160e01b600052602260045260246000fd5b50919050565b6000602080835260008454610d4681610cf8565b80848701526040600180841660008114610d675760018114610d8157610daf565b60ff1985168984015283151560051b890183019550610daf565b896000528660002060005b85811015610da75781548b8201860152908301908801610d8c565b8a0184019650505b509398975050505050505050565b600060208284031215610dcf57600080fd5b815160ff81168114610c7857600080fd5b634e487b7160e01b600052601160045260246000fd5b60ff828116828216039081111561078c5761078c610de0565b600181815b80851115610e4a578160001904821115610e3057610e30610de0565b80851615610e3d57918102915b93841c9390800290610e14565b509250929050565b600082610e615750600161078c565b81610e6e5750600061078c565b8160018114610e845760028114610e8e57610eaa565b600191505061078c565b60ff841115610e9f57610e9f610de0565b50506001821b61078c565b5060208310610133831016604e8410600b8410161715610ecd575081810a61078c565b610ed78383610e0f565b8060001904821115610eeb57610eeb610de0565b029392505050565b6000610c7860ff841683610e52565b600060208284031215610f1457600080fd5b5051919050565b62ffffff818116838216028082169190828114610f3a57610f3a610de0565b505092915050565b808202811582820484141761078c5761078c610de0565b600082610f7657634e487b7160e01b600052601260045260246000fd5b500490565b8082018082111561078c5761078c610de0565b600061ffff808316818103610fa557610fa5610de0565b6001019392505050565b600060208284031215610fc157600080fd5b81516001600160a01b0381168114610c7857600080fd5b60008251610fea818460208701610c7f565b9190910192915050565b601f82111561103e57600081815260208120601f850160051c8101602086101561101b5750805b601f850160051c820191505b8181101561103a57828155600101611027565b5050505b505050565b81516001600160401b0381111561105c5761105c610adf565b6110708161106a8454610cf8565b84610ff4565b602080601f8311600181146110a5576000841561108d5750858301515b600019600386901b1c1916600185901b17855561103a565b600085815260208120601f198616915b828110156110d4578886015182559484019460019091019084016110b5565b50858210156110f25787850151600019600388901b60f8161c191681555b5050505050600190811b01905550565b61ffff81811683821601908082111561111d5761111d610de0565b5092915050565b602081526000610c786020830184610ca3565b61ffff82811682821603908082111561111d5761111d610de056fea2646970667358221220e8836e5f7c978892fab237fbdb454cacd1606892a6ea87c9d7ed8b4eb5ca238264736f6c63430008120033",
  "immutableReferences": {
    "5222": [
      {
        "length": 32,
        "start": 905
      }
    ]
  },
  "source": "// SPDX-License-Identifier: UNLICENSED\r\npragma solidity 0.8.18;\r\nimport \"./IDAO.sol\";\r\n\r\ninterface IOracle{\r\n    function updater() external view returns (address);\r\n    function getPrice(string memory) external view returns (uint256);\r\n    function getDecimals(string memory) external view returns (uint8);\r\n}\r\n\r\ncontract cartContract{\r\n\r\n    struct cartItem {\r\n        string symbol;\r\n        uint16 share;\r\n        uint256 initialPrice;\r\n    }\r\n\r\n    IDAO immutable dao;\r\n    IOracle oracle;\r\n\r\n    uint16 public itemsCount;\r\n    uint16 public sharesCount;\r\n    uint8 public constant decimals = 6;\r\n    mapping(uint16 => cartItem) public items;\r\n    mapping (string => uint16) public dictionary;\r\n\r\n    event instrumentAdded(uint16 id);\r\n    event shareChanged(uint16 id);\r\n\r\n\r\n    constructor(address payable _INTDAOaddress){\r\n        dao = IDAO(_INTDAOaddress);\r\n    }\r\n\r\n    function renewContracts() public {\r\n        oracle = IOracle(dao.addresses(\"oracle\"));\r\n    }\r\n\r\n    function addItem(string memory symbol, uint16 share, uint256 initialPrice) public{\r\n        require(msg.sender == oracle.updater(), \"only authorized address may addItem\");\r\n        require (dictionary[symbol]==0, \"instrument already exists, please, use setShare\");\r\n        uint16 itemId = ++itemsCount;\r\n        cartItem storage c = items[itemId];\r\n        c.share = share;\r\n        c.symbol = symbol;\r\n        c.initialPrice = initialPrice;\r\n        sharesCount += share;\r\n        dictionary[symbol] = itemId;\r\n        emit instrumentAdded(itemId);\r\n    }\r\n\r\n    function setShare(uint16 id, uint16 share) public{\r\n        require(msg.sender == oracle.updater(), \"only authorized address may setShare\");\r\n        cartItem storage c = items[id];\r\n        sharesCount -= c.share;\r\n        sharesCount += share;\r\n        c.share = share;\r\n        emit shareChanged(id);\r\n    }\r\n\r\n    function getCurrentSharePrice() public view returns (uint256 price){\r\n        uint256 overallCartPrice;\r\n        for (uint16 j = 1; j <= itemsCount; j ++) {\r\n            cartItem storage c = items[j];\r\n            overallCartPrice += c.share * 10**6 * oracle.getPrice(c.symbol) * (10**(decimals-oracle.getDecimals(c.symbol)))/c.initialPrice;\r\n        }\r\n        return overallCartPrice/sharesCount;\r\n    }\r\n\r\n    function getPrice(string memory symbol) public view returns (uint256) {\r\n        if (keccak256(bytes(symbol)) == keccak256(bytes(\"stb\")))\r\n            return oracle.getPrice(\"etc\") * 10**6 / getCurrentSharePrice();\r\n        return oracle.getPrice(symbol);\r\n    }\r\n\r\n    function getDecimals(string memory symbol) public view returns (uint8 _decimals) {\r\n        return oracle.getDecimals(symbol);\r\n    }\r\n}\r\n",
  "sourcePath": "D:\\YandexDisk\\\\ICO\\CryptoFiat\\repo\\contracts\\cart.sol",
  "compiler": {
    "name": "solc",
    "version": "0.8.18+commit.87f61d96.Emscripten.clang"
  },
  "schemaVersion": "3.4.14",
  "updatedAt": "2023-10-01T08:25:02.724Z",
  "devdoc": {
    "kind": "dev",
    "methods": {},
    "version": 1
  },
  "userdoc": {
    "kind": "user",
    "methods": {},
    "version": 1
  }
}