{
  "contractName": "cartContract",
  "abi": [
    {
      "inputs": [
        {
          "internalType": "address payable",
          "name": "INTDAOaddress",
          "type": "address"
        }
      ],
      "stateMutability": "nonpayable",
      "type": "constructor"
    },
    {
      "anonymous": false,
      "inputs": [
        {
          "indexed": false,
          "internalType": "uint256",
          "name": "id",
          "type": "uint256"
        }
      ],
      "name": "instrumentAdded",
      "type": "event"
    },
    {
      "anonymous": false,
      "inputs": [
        {
          "indexed": false,
          "internalType": "uint256",
          "name": "id",
          "type": "uint256"
        }
      ],
      "name": "shareChanged",
      "type": "event"
    },
    {
      "inputs": [],
      "name": "decimals",
      "outputs": [
        {
          "internalType": "uint256",
          "name": "",
          "type": "uint256"
        }
      ],
      "stateMutability": "view",
      "type": "function",
      "constant": true
    },
    {
      "inputs": [
        {
          "internalType": "string",
          "name": "",
          "type": "string"
        }
      ],
      "name": "dictionary",
      "outputs": [
        {
          "internalType": "uint256",
          "name": "",
          "type": "uint256"
        }
      ],
      "stateMutability": "view",
      "type": "function",
      "constant": true
    },
    {
      "inputs": [
        {
          "internalType": "uint256",
          "name": "",
          "type": "uint256"
        }
      ],
      "name": "items",
      "outputs": [
        {
          "internalType": "bool",
          "name": "exists",
          "type": "bool"
        },
        {
          "internalType": "string",
          "name": "symbol",
          "type": "string"
        },
        {
          "internalType": "uint256",
          "name": "share",
          "type": "uint256"
        },
        {
          "internalType": "uint256",
          "name": "initialPrice",
          "type": "uint256"
        }
      ],
      "stateMutability": "view",
      "type": "function",
      "constant": true
    },
    {
      "inputs": [],
      "name": "itemsCount",
      "outputs": [
        {
          "internalType": "uint256",
          "name": "",
          "type": "uint256"
        }
      ],
      "stateMutability": "view",
      "type": "function",
      "constant": true
    },
    {
      "inputs": [],
      "name": "sharesCount",
      "outputs": [
        {
          "internalType": "uint256",
          "name": "",
          "type": "uint256"
        }
      ],
      "stateMutability": "view",
      "type": "function",
      "constant": true
    },
    {
      "stateMutability": "payable",
      "type": "receive",
      "payable": true
    },
    {
      "inputs": [],
      "name": "renewContracts",
      "outputs": [],
      "stateMutability": "nonpayable",
      "type": "function"
    },
    {
      "inputs": [
        {
          "internalType": "string",
          "name": "symbol",
          "type": "string"
        },
        {
          "internalType": "uint256",
          "name": "share",
          "type": "uint256"
        },
        {
          "internalType": "uint256",
          "name": "initialPrice",
          "type": "uint256"
        }
      ],
      "name": "addItem",
      "outputs": [],
      "stateMutability": "nonpayable",
      "type": "function"
    },
    {
      "inputs": [
        {
          "internalType": "uint256",
          "name": "id",
          "type": "uint256"
        },
        {
          "internalType": "uint256",
          "name": "share",
          "type": "uint256"
        }
      ],
      "name": "setShare",
      "outputs": [],
      "stateMutability": "nonpayable",
      "type": "function"
    },
    {
      "inputs": [],
      "name": "getCurrentSharePrice",
      "outputs": [
        {
          "internalType": "uint256",
          "name": "price",
          "type": "uint256"
        }
      ],
      "stateMutability": "view",
      "type": "function",
      "constant": true
    },
    {
      "inputs": [
        {
          "internalType": "string",
          "name": "symbol",
          "type": "string"
        }
      ],
      "name": "getPrice",
      "outputs": [
        {
          "internalType": "uint256",
          "name": "",
          "type": "uint256"
        }
      ],
      "stateMutability": "view",
      "type": "function",
      "constant": true
    },
    {
      "inputs": [
        {
          "internalType": "string",
          "name": "symbol",
          "type": "string"
        }
      ],
      "name": "getDecimals",
      "outputs": [
        {
          "internalType": "uint256",
          "name": "_decimals",
          "type": "uint256"
        }
      ],
      "stateMutability": "view",
      "type": "function",
      "constant": true
    }
  ],
  "bytecode": "0x608060405260066004553480156200001657600080fd5b5060405162001e1738038062001e1783398181016040528101906200003c919062000259565b806000806101000a81548173ffffffffffffffffffffffffffffffffffffffff021916908373ffffffffffffffffffffffffffffffffffffffff16021790555060008054906101000a900473ffffffffffffffffffffffffffffffffffffffff1673ffffffffffffffffffffffffffffffffffffffff16632abdf04e306040518263ffffffff1660e01b8152600401620000d79190620002fd565b600060405180830381600087803b158015620000f257600080fd5b505af115801562000107573d6000803e3d6000fd5b5050505060008054906101000a900473ffffffffffffffffffffffffffffffffffffffff1673ffffffffffffffffffffffffffffffffffffffff1663bdfe7d476040518163ffffffff1660e01b815260040162000164906200037f565b602060405180830381865afa15801562000182573d6000803e3d6000fd5b505050506040513d601f19601f82011682018060405250810190620001a8919062000259565b600160006101000a81548173ffffffffffffffffffffffffffffffffffffffff021916908373ffffffffffffffffffffffffffffffffffffffff16021790555050620003a1565b600080fd5b600073ffffffffffffffffffffffffffffffffffffffff82169050919050565b60006200022182620001f4565b9050919050565b620002338162000214565b81146200023f57600080fd5b50565b600081519050620002538162000228565b92915050565b600060208284031215620002725762000271620001ef565b5b6000620002828482850162000242565b91505092915050565b600082825260208201905092915050565b7f6361727400000000000000000000000000000000000000000000000000000000600082015250565b6000620002d46004836200028b565b9150620002e1826200029c565b602082019050919050565b620002f78162000214565b82525050565b600060408201905081810360008301526200031881620002c5565b9050620003296020830184620002ec565b92915050565b7f6f7261636c650000000000000000000000000000000000000000000000000000600082015250565b6000620003676006836200028b565b915062000374826200032f565b602082019050919050565b600060208201905081810360008301526200039a8162000358565b9050919050565b611a6680620003b16000396000f3fe6080604052600436106100a05760003560e01c80639d555cfa116100645780639d555cfa1461025d578063ab16ef4414610288578063afd0fd1d146102c5578063bfb231d214610302578063d5e6c33314610342578063e2c03ace1461036b57610185565b806302236e891461018a57806323d86a65146101b5578063313ce567146101cc578063524f3889146101f75780636bf8e9cc1461023457610185565b366101855760008054906101000a900473ffffffffffffffffffffffffffffffffffffffff1673ffffffffffffffffffffffffffffffffffffffff1663bdfe7d476040518163ffffffff1660e01b81526004016100fc90610e9d565b602060405180830381865afa158015610119573d6000803e3d6000fd5b505050506040513d601f19601f8201168201806040525081019061013d9190610f2f565b73ffffffffffffffffffffffffffffffffffffffff166108fc479081150290604051600060405180830381858888f19350505050158015610182573d6000803e3d6000fd5b50005b600080fd5b34801561019657600080fd5b5061019f610396565b6040516101ac9190610f75565b60405180910390f35b3480156101c157600080fd5b506101ca610584565b005b3480156101d857600080fd5b506101e161065e565b6040516101ee9190610f75565b60405180910390f35b34801561020357600080fd5b5061021e600480360381019061021991906110d6565b610664565b60405161022b9190610f75565b60405180910390f35b34801561024057600080fd5b5061025b6004803603810190610256919061114b565b610816565b005b34801561026957600080fd5b506102726109a6565b60405161027f9190610f75565b60405180910390f35b34801561029457600080fd5b506102af60048036038101906102aa91906110d6565b6109ac565b6040516102bc9190610f75565b60405180910390f35b3480156102d157600080fd5b506102ec60048036038101906102e791906110d6565b6109da565b6040516102f99190610f75565b60405180910390f35b34801561030e57600080fd5b506103296004803603810190610324919061118b565b610a7f565b604051610339949392919061124a565b60405180910390f35b34801561034e57600080fd5b5061036960048036038101906103649190611296565b610b44565b005b34801561037757600080fd5b50610380610d97565b60405161038d9190610f75565b60405180910390f35b6000806000905060005b60025481101561056f5760006005600083815260200190815260200160002090508060030154600160009054906101000a900473ffffffffffffffffffffffffffffffffffffffff1673ffffffffffffffffffffffffffffffffffffffff1663afd0fd1d836001016040518263ffffffff1660e01b815260040161042491906113fb565b602060405180830381865afa158015610441573d6000803e3d6000fd5b505050506040513d601f19601f820116820180604052508101906104659190611432565b600454610472919061148e565b600a61047e91906115f5565b600160009054906101000a900473ffffffffffffffffffffffffffffffffffffffff1673ffffffffffffffffffffffffffffffffffffffff1663524f3889846001016040518263ffffffff1660e01b81526004016104dc91906113fb565b602060405180830381865afa1580156104f9573d6000803e3d6000fd5b505050506040513d601f19601f8201168201806040525081019061051d9190611432565b620f424084600201546105309190611640565b61053a9190611640565b6105449190611640565b61054e91906116c9565b8361055991906116fa565b925050808061056790611750565b9150506103a0565b506003548161057e91906116c9565b91505090565b60008054906101000a900473ffffffffffffffffffffffffffffffffffffffff1673ffffffffffffffffffffffffffffffffffffffff1663bdfe7d476040518163ffffffff1660e01b81526004016105db90610e9d565b602060405180830381865afa1580156105f8573d6000803e3d6000fd5b505050506040513d601f19601f8201168201806040525081019061061c9190610f2f565b600160006101000a81548173ffffffffffffffffffffffffffffffffffffffff021916908373ffffffffffffffffffffffffffffffffffffffff160217905550565b60045481565b60006040518060400160405280600381526020017f73746200000000000000000000000000000000000000000000000000000000008152508051906020012082805190602001201415610772576106b9610396565b620f4240600160009054906101000a900473ffffffffffffffffffffffffffffffffffffffff1673ffffffffffffffffffffffffffffffffffffffff1663524f38896040518163ffffffff1660e01b8152600401610716906117e5565b602060405180830381865afa158015610733573d6000803e3d6000fd5b505050506040513d601f19601f820116820180604052508101906107579190611432565b6107619190611640565b61076b91906116c9565b9050610811565b600160009054906101000a900473ffffffffffffffffffffffffffffffffffffffff1673ffffffffffffffffffffffffffffffffffffffff1663524f3889836040518263ffffffff1660e01b81526004016107cd9190611805565b602060405180830381865afa1580156107ea573d6000803e3d6000fd5b505050506040513d601f19601f8201168201806040525081019061080e9190611432565b90505b919050565b600160009054906101000a900473ffffffffffffffffffffffffffffffffffffffff1673ffffffffffffffffffffffffffffffffffffffff1663df034cd06040518163ffffffff1660e01b8152600401602060405180830381865afa158015610883573d6000803e3d6000fd5b505050506040513d601f19601f820116820180604052508101906108a79190610f2f565b73ffffffffffffffffffffffffffffffffffffffff163373ffffffffffffffffffffffffffffffffffffffff1614610914576040517f08c379a000000000000000000000000000000000000000000000000000000000815260040161090b90611899565b60405180910390fd5b6000600560008481526020019081526020016000209050806002015460036000828254610941919061148e565b92505081905550816003600082825461095a91906116fa565b925050819055508181600201819055507fc51f2a0537439795fe0e0c4f5d6d877370a3f9cbc40c6456f17e7b8c24e308ab836040516109999190610f75565b60405180910390a1505050565b60035481565b6006818051602081018201805184825260208301602085012081835280955050505050506000915090505481565b6000600160009054906101000a900473ffffffffffffffffffffffffffffffffffffffff1673ffffffffffffffffffffffffffffffffffffffff1663afd0fd1d836040518263ffffffff1660e01b8152600401610a379190611805565b602060405180830381865afa158015610a54573d6000803e3d6000fd5b505050506040513d601f19601f82011682018060405250810190610a789190611432565b9050919050565b60056020528060005260406000206000915090508060000160009054906101000a900460ff1690806001018054610ab590611334565b80601f0160208091040260200160405190810160405280929190818152602001828054610ae190611334565b8015610b2e5780601f10610b0357610100808354040283529160200191610b2e565b820191906000526020600020905b815481529060010190602001808311610b1157829003601f168201915b5050505050908060020154908060030154905084565b600160009054906101000a900473ffffffffffffffffffffffffffffffffffffffff1673ffffffffffffffffffffffffffffffffffffffff1663df034cd06040518163ffffffff1660e01b8152600401602060405180830381865afa158015610bb1573d6000803e3d6000fd5b505050506040513d601f19601f82011682018060405250810190610bd59190610f2f565b73ffffffffffffffffffffffffffffffffffffffff163373ffffffffffffffffffffffffffffffffffffffff1614610c42576040517f08c379a0000000000000000000000000000000000000000000000000000000008152600401610c399061192b565b60405180910390fd5b6000600684604051610c549190611987565b90815260200160405180910390205414610ca3576040517f08c379a0000000000000000000000000000000000000000000000000000000008152600401610c9a90611a10565b60405180910390fd5b600060026000815480929190610cb890611750565b919050559050600060056000838152602001908152602001600020905083816002018190555060018160000160006101000a81548160ff02191690831515021790555084816001019080519060200190610d13929190610d9d565b508281600301819055508360036000828254610d2f91906116fa565b9250508190555081600686604051610d479190611987565b9081526020016040518091039020819055507fa19c1a87c7635fc404aa5e0da29d17c3a9f3a1e3135efccec27f072b2494dc3b82604051610d889190610f75565b60405180910390a15050505050565b60025481565b828054610da990611334565b90600052602060002090601f016020900481019282610dcb5760008555610e12565b82601f10610de457805160ff1916838001178555610e12565b82800160010185558215610e12579182015b82811115610e11578251825591602001919060010190610df6565b5b509050610e1f9190610e23565b5090565b5b80821115610e3c576000816000905550600101610e24565b5090565b600082825260208201905092915050565b7f6f7261636c650000000000000000000000000000000000000000000000000000600082015250565b6000610e87600683610e40565b9150610e9282610e51565b602082019050919050565b60006020820190508181036000830152610eb681610e7a565b9050919050565b6000604051905090565b600080fd5b600080fd5b600073ffffffffffffffffffffffffffffffffffffffff82169050919050565b6000610efc82610ed1565b9050919050565b610f0c81610ef1565b8114610f1757600080fd5b50565b600081519050610f2981610f03565b92915050565b600060208284031215610f4557610f44610ec7565b5b6000610f5384828501610f1a565b91505092915050565b6000819050919050565b610f6f81610f5c565b82525050565b6000602082019050610f8a6000830184610f66565b92915050565b600080fd5b600080fd5b6000601f19601f8301169050919050565b7f4e487b7100000000000000000000000000000000000000000000000000000000600052604160045260246000fd5b610fe382610f9a565b810181811067ffffffffffffffff8211171561100257611001610fab565b5b80604052505050565b6000611015610ebd565b90506110218282610fda565b919050565b600067ffffffffffffffff82111561104157611040610fab565b5b61104a82610f9a565b9050602081019050919050565b82818337600083830152505050565b600061107961107484611026565b61100b565b90508281526020810184848401111561109557611094610f95565b5b6110a0848285611057565b509392505050565b600082601f8301126110bd576110bc610f90565b5b81356110cd848260208601611066565b91505092915050565b6000602082840312156110ec576110eb610ec7565b5b600082013567ffffffffffffffff81111561110a57611109610ecc565b5b611116848285016110a8565b91505092915050565b61112881610f5c565b811461113357600080fd5b50565b6000813590506111458161111f565b92915050565b6000806040838503121561116257611161610ec7565b5b600061117085828601611136565b925050602061118185828601611136565b9150509250929050565b6000602082840312156111a1576111a0610ec7565b5b60006111af84828501611136565b91505092915050565b60008115159050919050565b6111cd816111b8565b82525050565b600081519050919050565b60005b838110156111fc5780820151818401526020810190506111e1565b8381111561120b576000848401525b50505050565b600061121c826111d3565b6112268185610e40565b93506112368185602086016111de565b61123f81610f9a565b840191505092915050565b600060808201905061125f60008301876111c4565b81810360208301526112718186611211565b90506112806040830185610f66565b61128d6060830184610f66565b95945050505050565b6000806000606084860312156112af576112ae610ec7565b5b600084013567ffffffffffffffff8111156112cd576112cc610ecc565b5b6112d9868287016110a8565b93505060206112ea86828701611136565b92505060406112fb86828701611136565b9150509250925092565b7f4e487b7100000000000000000000000000000000000000000000000000000000600052602260045260246000fd5b6000600282049050600182168061134c57607f821691505b602082108114156113605761135f611305565b5b50919050565b60008190508160005260206000209050919050565b6000815461138881611334565b6113928186610e40565b945060018216600081146113ad57600181146113bf576113f2565b60ff19831686526020860193506113f2565b6113c885611366565b60005b838110156113ea578154818901526001820191506020810190506113cb565b808801955050505b50505092915050565b60006020820190508181036000830152611415818461137b565b905092915050565b60008151905061142c8161111f565b92915050565b60006020828403121561144857611447610ec7565b5b60006114568482850161141d565b91505092915050565b7f4e487b7100000000000000000000000000000000000000000000000000000000600052601160045260246000fd5b600061149982610f5c565b91506114a483610f5c565b9250828210156114b7576114b661145f565b5b828203905092915050565b60008160011c9050919050565b6000808291508390505b6001851115611519578086048111156114f5576114f461145f565b5b60018516156115045780820291505b8081029050611512856114c2565b94506114d9565b94509492505050565b60008261153257600190506115ee565b8161154057600090506115ee565b816001811461155657600281146115605761158f565b60019150506115ee565b60ff8411156115725761157161145f565b5b8360020a9150848211156115895761158861145f565b5b506115ee565b5060208310610133831016604e8410600b84101617156115c45782820a9050838111156115bf576115be61145f565b5b6115ee565b6115d184848460016114cf565b925090508184048111156115e8576115e761145f565b5b81810290505b9392505050565b600061160082610f5c565b915061160b83610f5c565b92506116387fffffffffffffffffffffffffffffffffffffffffffffffffffffffffffffffff8484611522565b905092915050565b600061164b82610f5c565b915061165683610f5c565b9250817fffffffffffffffffffffffffffffffffffffffffffffffffffffffffffffffff048311821515161561168f5761168e61145f565b5b828202905092915050565b7f4e487b7100000000000000000000000000000000000000000000000000000000600052601260045260246000fd5b60006116d482610f5c565b91506116df83610f5c565b9250826116ef576116ee61169a565b5b828204905092915050565b600061170582610f5c565b915061171083610f5c565b9250827fffffffffffffffffffffffffffffffffffffffffffffffffffffffffffffffff038211156117455761174461145f565b5b828201905092915050565b600061175b82610f5c565b91507fffffffffffffffffffffffffffffffffffffffffffffffffffffffffffffffff82141561178e5761178d61145f565b5b600182019050919050565b7f6574630000000000000000000000000000000000000000000000000000000000600082015250565b60006117cf600383610e40565b91506117da82611799565b602082019050919050565b600060208201905081810360008301526117fe816117c2565b9050919050565b6000602082019050818103600083015261181f8184611211565b905092915050565b7f6f6e6c7920617574686f72697a65642061646472657373206d6179207365745360008201527f6861726500000000000000000000000000000000000000000000000000000000602082015250565b6000611883602483610e40565b915061188e82611827565b604082019050919050565b600060208201905081810360008301526118b281611876565b9050919050565b7f6f6e6c7920617574686f72697a65642061646472657373206d6179206164644960008201527f74656d0000000000000000000000000000000000000000000000000000000000602082015250565b6000611915602383610e40565b9150611920826118b9565b604082019050919050565b6000602082019050818103600083015261194481611908565b9050919050565b600081905092915050565b6000611961826111d3565b61196b818561194b565b935061197b8185602086016111de565b80840191505092915050565b60006119938284611956565b915081905092915050565b7f696e737472756d656e7420616c7265616479206578697374732c20706c65617360008201527f652c207573652073657453686172650000000000000000000000000000000000602082015250565b60006119fa602f83610e40565b9150611a058261199e565b604082019050919050565b60006020820190508181036000830152611a29816119ed565b905091905056fea2646970667358221220cbe788200029df07300b27617aad24e76e46b9a053c427d846998b5bf369485f64736f6c634300080a0033",
  "immutableReferences": {},
  "source": "// SPDX-License-Identifier: UNLICENSED\r\npragma solidity >=0.4.22 <0.9.0;\r\n\r\nimport \"./INTDAO.sol\";\r\nimport \"./exchangeRateContract.sol\";\r\n\r\ncontract cartContract{\r\n\r\n    struct cartItem {\r\n        bool exists;\r\n        string symbol;\r\n        uint256 share;\r\n        uint256 initialPrice;\r\n    }\r\n\r\n    INTDAO dao;\r\n    exchangeRateContract oracle;\r\n\r\n    uint256 public itemsCount;\r\n    uint256 public sharesCount;\r\n    uint256 public decimals = 6;\r\n    mapping(uint256 => cartItem) public items;\r\n    mapping (string => uint256) public dictionary;\r\n\r\n    event instrumentAdded(uint256 id);\r\n    event shareChanged(uint256 id);\r\n\r\n\r\n    constructor(address payable INTDAOaddress){\r\n        dao = INTDAO(INTDAOaddress);\r\n        dao.setAddressOnce('cart',payable(address(this)));\r\n        oracle = exchangeRateContract(dao.addresses('oracle'));\r\n    }\r\n\r\n    function renewContracts() public {\r\n        oracle = exchangeRateContract(dao.addresses('oracle'));\r\n    }\r\n\r\n    function addItem(string memory symbol, uint256 share, uint256 initialPrice) public{\r\n        require(msg.sender == oracle.updater(), \"only authorized address may addItem\");\r\n        require (dictionary[symbol]==0, \"instrument already exists, please, use setShare\");\r\n        uint256 itemId = itemsCount++;\r\n        cartItem storage c = items[itemId];\r\n        c.share = share;\r\n        c.exists = true;\r\n        c.symbol = symbol;\r\n        c.initialPrice = initialPrice;\r\n        sharesCount += share;\r\n        dictionary[symbol] = itemId;\r\n        emit instrumentAdded(itemId);\r\n    }\r\n\r\n    function setShare(uint256 id, uint256 share) public{\r\n        require(msg.sender == oracle.updater(), \"only authorized address may setShare\");\r\n        cartItem storage c = items[id];\r\n        sharesCount -= c.share;\r\n        sharesCount += share;\r\n        c.share = share;\r\n        emit shareChanged(id);\r\n    }\r\n\r\n    function getCurrentSharePrice() public view returns (uint256 price){\r\n        uint256 overallCartPrice = 0;\r\n        for (uint256 j = 0; j < itemsCount; j ++) {\r\n            cartItem storage c = items[j];\r\n            overallCartPrice += c.share * 10**6 * oracle.getPrice(c.symbol) * (10**(decimals-oracle.getDecimals(c.symbol)))/c.initialPrice;\r\n        }\r\n        return overallCartPrice/sharesCount;\r\n    }\r\n\r\n    function getPrice(string memory symbol) public view returns (uint256) {\r\n        if (keccak256(bytes(symbol)) == keccak256(bytes('stb')))\r\n            return oracle.getPrice('etc') * 10**6 / getCurrentSharePrice();\r\n        return oracle.getPrice(symbol);\r\n    }\r\n\r\n    function getDecimals(string memory symbol) public view returns (uint256 _decimals) {\r\n        return oracle.getDecimals(symbol);\r\n    }\r\n\r\n    receive() external payable {\r\n        dao.addresses('oracle').transfer(address(this).balance);\r\n    }\r\n}\r\n",
  "sourcePath": "B:\\YandexDisk\\\\ICO\\CryptoFiat\\repo\\contracts\\cart.sol",
  "compiler": {
    "name": "solc",
    "version": "0.8.10+commit.fc410830.Emscripten.clang"
  },
  "schemaVersion": "3.4.5",
  "updatedAt": "2023-06-26T11:35:20.642Z",
  "networkType": "ethereum",
  "devdoc": {
    "kind": "dev",
    "methods": {},
    "version": 1
  },
  "userdoc": {
    "kind": "user",
    "methods": {},
    "version": 1
  }
}