{
  "contractName": "cartContract",
  "abi": [
    {
      "inputs": [
        {
          "internalType": "address payable",
          "name": "INTDAOaddress",
          "type": "address"
        }
      ],
      "stateMutability": "nonpayable",
      "type": "constructor"
    },
    {
      "anonymous": false,
      "inputs": [
        {
          "indexed": false,
          "internalType": "uint256",
          "name": "id",
          "type": "uint256"
        }
      ],
      "name": "instrumentAdded",
      "type": "event"
    },
    {
      "anonymous": false,
      "inputs": [
        {
          "indexed": false,
          "internalType": "uint256",
          "name": "id",
          "type": "uint256"
        }
      ],
      "name": "shareChanged",
      "type": "event"
    },
    {
      "inputs": [],
      "name": "decimals",
      "outputs": [
        {
          "internalType": "uint256",
          "name": "",
          "type": "uint256"
        }
      ],
      "stateMutability": "view",
      "type": "function"
    },
    {
      "inputs": [
        {
          "internalType": "string",
          "name": "",
          "type": "string"
        }
      ],
      "name": "dictionary",
      "outputs": [
        {
          "internalType": "uint256",
          "name": "",
          "type": "uint256"
        }
      ],
      "stateMutability": "view",
      "type": "function"
    },
    {
      "inputs": [
        {
          "internalType": "uint256",
          "name": "",
          "type": "uint256"
        }
      ],
      "name": "items",
      "outputs": [
        {
          "internalType": "bool",
          "name": "exists",
          "type": "bool"
        },
        {
          "internalType": "string",
          "name": "symbol",
          "type": "string"
        },
        {
          "internalType": "uint256",
          "name": "share",
          "type": "uint256"
        },
        {
          "internalType": "uint256",
          "name": "initialPrice",
          "type": "uint256"
        }
      ],
      "stateMutability": "view",
      "type": "function"
    },
    {
      "inputs": [],
      "name": "itemsCount",
      "outputs": [
        {
          "internalType": "uint256",
          "name": "",
          "type": "uint256"
        }
      ],
      "stateMutability": "view",
      "type": "function"
    },
    {
      "inputs": [],
      "name": "sharesCount",
      "outputs": [
        {
          "internalType": "uint256",
          "name": "",
          "type": "uint256"
        }
      ],
      "stateMutability": "view",
      "type": "function"
    },
    {
      "inputs": [],
      "name": "renewContracts",
      "outputs": [],
      "stateMutability": "nonpayable",
      "type": "function"
    },
    {
      "inputs": [
        {
          "internalType": "string",
          "name": "symbol",
          "type": "string"
        },
        {
          "internalType": "uint256",
          "name": "share",
          "type": "uint256"
        },
        {
          "internalType": "uint256",
          "name": "initialPrice",
          "type": "uint256"
        }
      ],
      "name": "addItem",
      "outputs": [],
      "stateMutability": "nonpayable",
      "type": "function"
    },
    {
      "inputs": [
        {
          "internalType": "uint256",
          "name": "id",
          "type": "uint256"
        },
        {
          "internalType": "uint256",
          "name": "share",
          "type": "uint256"
        }
      ],
      "name": "setShare",
      "outputs": [],
      "stateMutability": "nonpayable",
      "type": "function"
    },
    {
      "inputs": [],
      "name": "getCurrentSharePrice",
      "outputs": [
        {
          "internalType": "uint256",
          "name": "price",
          "type": "uint256"
        }
      ],
      "stateMutability": "view",
      "type": "function"
    },
    {
      "inputs": [
        {
          "internalType": "string",
          "name": "symbol",
          "type": "string"
        }
      ],
      "name": "getPrice",
      "outputs": [
        {
          "internalType": "uint256",
          "name": "",
          "type": "uint256"
        }
      ],
      "stateMutability": "view",
      "type": "function"
    },
    {
      "inputs": [
        {
          "internalType": "string",
          "name": "symbol",
          "type": "string"
        }
      ],
      "name": "getDecimals",
      "outputs": [
        {
          "internalType": "uint8",
          "name": "_decimals",
          "type": "uint8"
        }
      ],
      "stateMutability": "view",
      "type": "function"
    }
  ],
  "bytecode": "0x6080604052600660045534801561001557600080fd5b5060405161119738038061119783398101604081905261003491610180565b600080546001600160a01b0319166001600160a01b0383169081179091556040805163155ef82760e11b815260048082019290925260448101919091526318d85c9d60e21b6064820152306024820152632abdf04e90608401600060405180830381600087803b1580156100a757600080fd5b505af11580156100bb573d6000803e3d6000fd5b505060005460405163bdfe7d4760e01b81526020600482015260066024820152656f7261636c6560d01b60448201526001600160a01b03909116925063bdfe7d479150606401602060405180830381865afa15801561011e573d6000803e3d6000fd5b505050506040513d601f19601f820116820180604052508101906101429190610180565b600180546001600160a01b0319166001600160a01b0392909216919091179055506101a4565b6001600160a01b038116811461017d57600080fd5b50565b60006020828403121561019257600080fd5b815161019d81610168565b9392505050565b610fe4806101b36000396000f3fe608060405234801561001057600080fd5b50600436106100995760003560e01c806302236e891461009e57806323d86a65146100b9578063313ce567146100c3578063524f3889146100cc5780636bf8e9cc146100df5780639d555cfa146100f2578063ab16ef44146100fb578063afd0fd1d14610126578063bfb231d21461014b578063d5e6c3331461016e578063e2c03ace14610181575b600080fd5b6100a661018a565b6040519081526020015b60405180910390f35b6100c1610317565b005b6100a660045481565b6100a66100da366004610a80565b6103bc565b6100c16100ed366004610abc565b61051c565b6100a660035481565b6100a6610109366004610a80565b805160208183018101805160068252928201919093012091525481565b610139610134366004610a80565b61068a565b60405160ff90911681526020016100b0565b61015e610159366004610ade565b6106fc565b6040516100b09493929190610b47565b6100c161017c366004610b75565b6107b1565b6100a660025481565b600080805b6002548110156103035760008181526005602052604090819020600381015460018054935163afd0fd1d60e01b8152929391926001600160a01b039092169163afd0fd1d916101e49190860190600401610bfc565b602060405180830381865afa158015610201573d6000803e3d6000fd5b505050506040513d601f19601f820116820180604052508101906102259190610c87565b60ff166004546102359190610cc7565b61024090600a610dbe565b6001805460405163524f388960e01b81526001600160a01b039091169163524f38899161027291870190600401610bfc565b602060405180830381865afa15801561028f573d6000803e3d6000fd5b505050506040513d601f19601f820116820180604052508101906102b39190610dca565b60028401546102c590620f4240610de3565b6102cf9190610de3565b6102d99190610de3565b6102e39190610dfa565b6102ed9084610e1c565b92505080806102fb90610e2f565b91505061018f565b506003546103119082610dfa565b91505090565b60005460405163bdfe7d4760e01b81526020600482015260066024820152656f7261636c6560d01b60448201526001600160a01b039091169063bdfe7d4790606401602060405180830381865afa158015610376573d6000803e3d6000fd5b505050506040513d601f19601f8201168201806040525081019061039a9190610e48565b600180546001600160a01b0319166001600160a01b0392909216919091179055565b60408051808201909152600381526239ba3160e91b6020918201528151908201206000907f875cadbb0ee04143f031fd4ed42068764ce3b61b8557ee4fc973c34562558124016104ab5761040e61018a565b60015460405163524f388960e01b815260206004820152600360248201526265746360e81b60448201526001600160a01b039091169063524f388990606401602060405180830381865afa15801561046a573d6000803e3d6000fd5b505050506040513d601f19601f8201168201806040525081019061048e9190610dca565b61049b90620f4240610de3565b6104a59190610dfa565b92915050565b60015460405163524f388960e01b81526001600160a01b039091169063524f3889906104db908590600401610e71565b602060405180830381865afa1580156104f8573d6000803e3d6000fd5b505050506040513d601f19601f820116820180604052508101906104a59190610dca565b600160009054906101000a90046001600160a01b03166001600160a01b031663df034cd06040518163ffffffff1660e01b8152600401602060405180830381865afa15801561056f573d6000803e3d6000fd5b505050506040513d601f19601f820116820180604052508101906105939190610e48565b6001600160a01b0316336001600160a01b0316146106045760405162461bcd60e51b8152602060048201526024808201527f6f6e6c7920617574686f72697a65642061646472657373206d617920736574536044820152636861726560e01b60648201526084015b60405180910390fd5b60008281526005602052604081206002810154600380549293919290919061062d908490610cc7565b9250508190555081600360008282546106469190610e1c565b9091555050600281018290556040518381527fc51f2a0537439795fe0e0c4f5d6d877370a3f9cbc40c6456f17e7b8c24e308ab9060200160405180910390a1505050565b60015460405163afd0fd1d60e01b81526000916001600160a01b03169063afd0fd1d906106bb908590600401610e71565b602060405180830381865afa1580156106d8573d6000803e3d6000fd5b505050506040513d601f19601f820116820180604052508101906104a59190610c87565b6005602052600090815260409020805460018201805460ff909216929161072290610bc2565b80601f016020809104026020016040519081016040528092919081815260200182805461074e90610bc2565b801561079b5780601f106107705761010080835404028352916020019161079b565b820191906000526020600020905b81548152906001019060200180831161077e57829003601f168201915b5050505050908060020154908060030154905084565b600160009054906101000a90046001600160a01b03166001600160a01b031663df034cd06040518163ffffffff1660e01b8152600401602060405180830381865afa158015610804573d6000803e3d6000fd5b505050506040513d601f19601f820116820180604052508101906108289190610e48565b6001600160a01b0316336001600160a01b0316146108945760405162461bcd60e51b815260206004820152602360248201527f6f6e6c7920617574686f72697a65642061646472657373206d6179206164644960448201526274656d60e81b60648201526084016105fb565b6006836040516108a49190610e84565b90815260200160405180910390205460001461091a5760405162461bcd60e51b815260206004820152602f60248201527f696e737472756d656e7420616c7265616479206578697374732c20706c65617360448201526e652c2075736520736574536861726560881b60648201526084016105fb565b600280546000918261092b83610e2f565b90915550600081815260056020526040902060028101859055805460ff1916600190811782559192509081016109618682610eef565b50828160030181905550836003600082825461097d9190610e1c565b92505081905550816006866040516109959190610e84565b90815260405160209181900382018120929092558382527fa19c1a87c7635fc404aa5e0da29d17c3a9f3a1e3135efccec27f072b2494dc3b910160405180910390a15050505050565b634e487b7160e01b600052604160045260246000fd5b600082601f830112610a0557600080fd5b81356001600160401b0380821115610a1f57610a1f6109de565b604051601f8301601f19908116603f01168101908282118183101715610a4757610a476109de565b81604052838152866020858801011115610a6057600080fd5b836020870160208301376000602085830101528094505050505092915050565b600060208284031215610a9257600080fd5b81356001600160401b03811115610aa857600080fd5b610ab4848285016109f4565b949350505050565b60008060408385031215610acf57600080fd5b50508035926020909101359150565b600060208284031215610af057600080fd5b5035919050565b60005b83811015610b12578181015183820152602001610afa565b50506000910152565b60008151808452610b33816020860160208601610af7565b601f01601f19169290920160200192915050565b8415158152608060208201526000610b626080830186610b1b565b6040830194909452506060015292915050565b600080600060608486031215610b8a57600080fd5b83356001600160401b03811115610ba057600080fd5b610bac868287016109f4565b9660208601359650604090950135949350505050565b600181811c90821680610bd657607f821691505b602082108103610bf657634e487b7160e01b600052602260045260246000fd5b50919050565b6000602080835260008454610c1081610bc2565b80848701526040600180841660008114610c315760018114610c4b57610c79565b60ff1985168984015283151560051b890183019550610c79565b896000528660002060005b85811015610c715781548b8201860152908301908801610c56565b8a0184019650505b509398975050505050505050565b600060208284031215610c9957600080fd5b815160ff81168114610caa57600080fd5b9392505050565b634e487b7160e01b600052601160045260246000fd5b818103818111156104a5576104a5610cb1565b600181815b80851115610d15578160001904821115610cfb57610cfb610cb1565b80851615610d0857918102915b93841c9390800290610cdf565b509250929050565b600082610d2c575060016104a5565b81610d39575060006104a5565b8160018114610d4f5760028114610d5957610d75565b60019150506104a5565b60ff841115610d6a57610d6a610cb1565b50506001821b6104a5565b5060208310610133831016604e8410600b8410161715610d98575081810a6104a5565b610da28383610cda565b8060001904821115610db657610db6610cb1565b029392505050565b6000610caa8383610d1d565b600060208284031215610ddc57600080fd5b5051919050565b80820281158282048414176104a5576104a5610cb1565b600082610e1757634e487b7160e01b600052601260045260246000fd5b500490565b808201808211156104a5576104a5610cb1565b600060018201610e4157610e41610cb1565b5060010190565b600060208284031215610e5a57600080fd5b81516001600160a01b0381168114610caa57600080fd5b602081526000610caa6020830184610b1b565b60008251610e96818460208701610af7565b9190910192915050565b601f821115610eea57600081815260208120601f850160051c81016020861015610ec75750805b601f850160051c820191505b81811015610ee657828155600101610ed3565b5050505b505050565b81516001600160401b03811115610f0857610f086109de565b610f1c81610f168454610bc2565b84610ea0565b602080601f831160018114610f515760008415610f395750858301515b600019600386901b1c1916600185901b178555610ee6565b600085815260208120601f198616915b82811015610f8057888601518255948401946001909101908401610f61565b5085821015610f9e5787850151600019600388901b60f8161c191681555b5050505050600190811b0190555056fea2646970667358221220ab28cab2c699fdbd1cc8638e2453aed25239f8238fa0df58e3fe651e80b45e6f64736f6c63430008130033",
  "immutableReferences": {},
  "source": "// SPDX-License-Identifier: UNLICENSED\r\npragma solidity 0.8.19;\r\n\r\ninterface IDAO{\r\n    function addresses(string memory) external view returns (address);\r\n    function setAddressOnce(string memory, address) external;\r\n}\r\n\r\ninterface IOracle{\r\n    function updater() external view returns (address);\r\n    function getPrice(string memory) external view returns (uint256);\r\n    function getDecimals(string memory) external view returns (uint8);\r\n}\r\n\r\ncontract cartContract{\r\n\r\n    struct cartItem {\r\n        bool exists;\r\n        string symbol;\r\n        uint256 share;\r\n        uint256 initialPrice;\r\n    }\r\n\r\n    IDAO dao;\r\n    IOracle oracle;\r\n\r\n    uint256 public itemsCount;\r\n    uint256 public sharesCount;\r\n    uint256 public decimals = 6;\r\n    mapping(uint256 => cartItem) public items;\r\n    mapping (string => uint256) public dictionary;\r\n\r\n    event instrumentAdded(uint256 id);\r\n    event shareChanged(uint256 id);\r\n\r\n\r\n    constructor(address payable INTDAOaddress){\r\n        dao = IDAO(INTDAOaddress);\r\n        dao.setAddressOnce('cart',payable(address(this)));\r\n        oracle = IOracle(dao.addresses('oracle'));\r\n    }\r\n\r\n    function renewContracts() public {\r\n        oracle = IOracle(dao.addresses('oracle'));\r\n    }\r\n\r\n    function addItem(string memory symbol, uint256 share, uint256 initialPrice) public{\r\n        require(msg.sender == oracle.updater(), \"only authorized address may addItem\");\r\n        require (dictionary[symbol]==0, \"instrument already exists, please, use setShare\");\r\n        uint256 itemId = itemsCount++;\r\n        cartItem storage c = items[itemId];\r\n        c.share = share;\r\n        c.exists = true;\r\n        c.symbol = symbol;\r\n        c.initialPrice = initialPrice;\r\n        sharesCount += share;\r\n        dictionary[symbol] = itemId;\r\n        emit instrumentAdded(itemId);\r\n    }\r\n\r\n    function setShare(uint256 id, uint256 share) public{\r\n        require(msg.sender == oracle.updater(), \"only authorized address may setShare\");\r\n        cartItem storage c = items[id];\r\n        sharesCount -= c.share;\r\n        sharesCount += share;\r\n        c.share = share;\r\n        emit shareChanged(id);\r\n    }\r\n\r\n    function getCurrentSharePrice() public view returns (uint256 price){\r\n        uint256 overallCartPrice = 0;\r\n        for (uint256 j = 0; j < itemsCount; j ++) {\r\n            cartItem storage c = items[j];\r\n            overallCartPrice += c.share * 10**6 * oracle.getPrice(c.symbol) * (10**(decimals-oracle.getDecimals(c.symbol)))/c.initialPrice;\r\n        }\r\n        return overallCartPrice/sharesCount;\r\n    }\r\n\r\n    function getPrice(string memory symbol) public view returns (uint256) {\r\n        if (keccak256(bytes(symbol)) == keccak256(bytes('stb')))\r\n            return oracle.getPrice('etc') * 10**6 / getCurrentSharePrice();\r\n        return oracle.getPrice(symbol);\r\n    }\r\n\r\n    function getDecimals(string memory symbol) public view returns (uint8 _decimals) {\r\n        return oracle.getDecimals(symbol);\r\n    }\r\n}\r\n",
  "sourcePath": "C:\\Users\\d.nagornykh\\YandexDisk\\\\ICO\\CryptoFiat\\repo\\contracts\\cart.sol",
  "compiler": {
    "name": "solc",
    "version": "0.8.19+commit.7dd6d404.Emscripten.clang"
  },
  "schemaVersion": "3.4.14",
  "updatedAt": "2023-08-14T08:42:01.809Z",
  "devdoc": {
    "kind": "dev",
    "methods": {},
    "version": 1
  },
  "userdoc": {
    "kind": "user",
    "methods": {},
    "version": 1
  }
}