{
  "contractName": "CDP",
  "abi": [
    {
      "inputs": [
        {
          "internalType": "address",
          "name": "_INTDAOaddress",
          "type": "address"
        }
      ],
      "stateMutability": "nonpayable",
      "type": "constructor"
    },
    {
      "inputs": [],
      "name": "numPositions",
      "outputs": [
        {
          "internalType": "uint256",
          "name": "",
          "type": "uint256"
        }
      ],
      "stateMutability": "view",
      "type": "function",
      "constant": true
    },
    {
      "inputs": [
        {
          "internalType": "uint256",
          "name": "",
          "type": "uint256"
        }
      ],
      "name": "positions",
      "outputs": [
        {
          "internalType": "bool",
          "name": "onLiquidation",
          "type": "bool"
        },
        {
          "internalType": "bool",
          "name": "liquidated",
          "type": "bool"
        },
        {
          "internalType": "address",
          "name": "owner",
          "type": "address"
        },
        {
          "internalType": "uint256",
          "name": "stableCoins_minted",
          "type": "uint256"
        },
        {
          "internalType": "uint256",
          "name": "ethAmountLocked",
          "type": "uint256"
        },
        {
          "internalType": "uint256",
          "name": "feeGenerated",
          "type": "uint256"
        },
        {
          "internalType": "uint256",
          "name": "timeOpened",
          "type": "uint256"
        },
        {
          "internalType": "uint256",
          "name": "lastTimeUpdated",
          "type": "uint256"
        },
        {
          "internalType": "uint256",
          "name": "feeRate",
          "type": "uint256"
        }
      ],
      "stateMutability": "view",
      "type": "function",
      "constant": true
    },
    {
      "inputs": [
        {
          "internalType": "uint256",
          "name": "StableCoinsToMint",
          "type": "uint256"
        }
      ],
      "name": "openCDP",
      "outputs": [
        {
          "internalType": "uint256",
          "name": "posId",
          "type": "uint256"
        }
      ],
      "stateMutability": "payable",
      "type": "function",
      "payable": true
    },
    {
      "inputs": [
        {
          "internalType": "uint256",
          "name": "StableCoinsToMint",
          "type": "uint256"
        },
        {
          "internalType": "uint256",
          "name": "ethValue",
          "type": "uint256"
        }
      ],
      "name": "getMaxStableCoinsToMint",
      "outputs": [
        {
          "internalType": "uint256",
          "name": "amount",
          "type": "uint256"
        }
      ],
      "stateMutability": "view",
      "type": "function",
      "constant": true
    },
    {
      "inputs": [
        {
          "internalType": "uint256",
          "name": "posID",
          "type": "uint256"
        }
      ],
      "name": "closeCDP",
      "outputs": [],
      "stateMutability": "nonpayable",
      "type": "function"
    },
    {
      "inputs": [
        {
          "internalType": "uint256",
          "name": "posID",
          "type": "uint256"
        },
        {
          "internalType": "uint256",
          "name": "etherToWithdraw",
          "type": "uint256"
        }
      ],
      "name": "withdrawEther",
      "outputs": [],
      "stateMutability": "nonpayable",
      "type": "function"
    },
    {
      "inputs": [],
      "name": "recieveInterestAfterAuction",
      "outputs": [],
      "stateMutability": "nonpayable",
      "type": "function"
    }
  ],
  "bytecode": "0x60806040526000600160006101000a81548173ffffffffffffffffffffffffffffffffffffffff021916908373ffffffffffffffffffffffffffffffffffffffff16021790555034801561005257600080fd5b506040516109ed3803806109ed8339818101604052810190610074919061025b565b80600160006101000a81548173ffffffffffffffffffffffffffffffffffffffff021916908373ffffffffffffffffffffffffffffffffffffffff160217905550600160009054906101000a900473ffffffffffffffffffffffffffffffffffffffff16600260006101000a81548173ffffffffffffffffffffffffffffffffffffffff021916908373ffffffffffffffffffffffffffffffffffffffff160217905550600260009054906101000a900473ffffffffffffffffffffffffffffffffffffffff1673ffffffffffffffffffffffffffffffffffffffff1663bdfe7d476040518163ffffffff1660e01b8152600401610171906102e5565b602060405180830381865afa15801561018e573d6000803e3d6000fd5b505050506040513d601f19601f820116820180604052508101906101b2919061025b565b600360006101000a81548173ffffffffffffffffffffffffffffffffffffffff021916908373ffffffffffffffffffffffffffffffffffffffff16021790555050610305565b600080fd5b600073ffffffffffffffffffffffffffffffffffffffff82169050919050565b6000610228826101fd565b9050919050565b6102388161021d565b811461024357600080fd5b50565b6000815190506102558161022f565b92915050565b600060208284031215610271576102706101f8565b5b600061027f84828501610246565b91505092915050565b600082825260208201905092915050565b7f6f7261636c654164647265737300000000000000000000000000000000000000600082015250565b60006102cf600d83610288565b91506102da82610299565b602082019050919050565b600060208201905081810360008301526102fe816102c2565b9050919050565b6106d9806103146000396000f3fe6080604052600436106100705760003560e01c80635e71823b1161004e5780635e71823b146100de5780636bb224c3146101095780637ec698d31461013957806399fbab881461017657610070565b806319b1718d146100755780631e4b5ede1461008c5780632650a47c146100b5575b600080fd5b34801561008157600080fd5b5061008a6101bb565b005b34801561009857600080fd5b506100b360048036038101906100ae91906103ec565b6101bd565b005b3480156100c157600080fd5b506100dc60048036038101906100d79190610419565b6101c0565b005b3480156100ea57600080fd5b506100f36101c4565b6040516101009190610468565b60405180910390f35b610123600480360381019061011e91906103ec565b6101ca565b6040516101309190610468565b60405180910390f35b34801561014557600080fd5b50610160600480360381019061015b9190610419565b61031d565b60405161016d9190610468565b60405180910390f35b34801561018257600080fd5b5061019d600480360381019061019891906103ec565b610329565b6040516101b2999897969594939291906104df565b60405180910390f35b565b50565b5050565b60005481565b60008060008154809291906101de9061059b565b9190505590506000600560008381526020019081526020016000209050610205833461031d565b8160010181905550348160020181905550338160000160026101000a81548173ffffffffffffffffffffffffffffffffffffffff021916908373ffffffffffffffffffffffffffffffffffffffff16021790555042816004018190555042816005018190555060008160030181905550600260009054906101000a900473ffffffffffffffffffffffffffffffffffffffff1673ffffffffffffffffffffffffffffffffffffffff1663145f822b6040518163ffffffff1660e01b81526004016102ce90610641565b602060405180830381865afa1580156102eb573d6000803e3d6000fd5b505050506040513d601f19601f8201168201806040525081019061030f9190610676565b816006018190555050919050565b60006001905092915050565b60056020528060005260406000206000915090508060000160009054906101000a900460ff16908060000160019054906101000a900460ff16908060000160029054906101000a900473ffffffffffffffffffffffffffffffffffffffff16908060010154908060020154908060030154908060040154908060050154908060060154905089565b600080fd5b6000819050919050565b6103c9816103b6565b81146103d457600080fd5b50565b6000813590506103e6816103c0565b92915050565b600060208284031215610402576104016103b1565b5b6000610410848285016103d7565b91505092915050565b600080604083850312156104305761042f6103b1565b5b600061043e858286016103d7565b925050602061044f858286016103d7565b9150509250929050565b610462816103b6565b82525050565b600060208201905061047d6000830184610459565b92915050565b60008115159050919050565b61049881610483565b82525050565b600073ffffffffffffffffffffffffffffffffffffffff82169050919050565b60006104c98261049e565b9050919050565b6104d9816104be565b82525050565b6000610120820190506104f5600083018c61048f565b610502602083018b61048f565b61050f604083018a6104d0565b61051c6060830189610459565b6105296080830188610459565b61053660a0830187610459565b61054360c0830186610459565b61055060e0830185610459565b61055e610100830184610459565b9a9950505050505050505050565b7f4e487b7100000000000000000000000000000000000000000000000000000000600052601160045260246000fd5b60006105a6826103b6565b91507fffffffffffffffffffffffffffffffffffffffffffffffffffffffffffffffff8214156105d9576105d861056c565b5b600182019050919050565b600082825260208201905092915050565b7f696e746572657374526174650000000000000000000000000000000000000000600082015250565b600061062b600c836105e4565b9150610636826105f5565b602082019050919050565b6000602082019050818103600083015261065a8161061e565b9050919050565b600081519050610670816103c0565b92915050565b60006020828403121561068c5761068b6103b1565b5b600061069a84828501610661565b9150509291505056fea2646970667358221220acf64623919e33791cf8ef53c76b2cf723e830016bc3c98ad1673a004675ed1b64736f6c634300080a0033",
  "immutableReferences": {},
  "source": "// SPDX-License-Identifier: UNLICENSED\r\npragma solidity >=0.4.22 <0.9.0;\r\nimport \"./INTDAO.sol\";\r\nimport \"./Oracle.sol\";\r\nimport \"./Rule.sol\";\r\n\r\n\r\n//previous Interest price is saved during INT auction - no need or make auction longer in time\r\n//started at 11.30 25/05/2020\r\n\r\ncontract CDP {\r\n    uint256 public numPositions;\r\n\r\n    address INTDAOaddress = address(0);\r\n    INTDAO dao;\r\n    Oracle oracle;\r\n\r\n    address auctionAddress;\r\n\r\n    mapping(uint => Position) public positions;\r\n    mapping (address => uint) allowedToMint; //???\r\n\r\n    struct Position {\r\n        bool onLiquidation;\r\n        bool liquidated;\r\n        address owner;\r\n        uint stableCoins_minted;\r\n        uint ethAmountLocked;\r\n        uint feeGenerated;\r\n        uint timeOpened;\r\n        uint lastTimeUpdated;\r\n        uint feeRate;\r\n    }\r\n\r\n    constructor(address _INTDAOaddress) {\r\n        INTDAOaddress = _INTDAOaddress;\r\n        dao = INTDAO(INTDAOaddress);\r\n        oracle = Oracle(dao.addresses('oracleAddress'));\r\n    }\r\n\r\n    function openCDP (uint StableCoinsToMint) external payable returns (uint256 posId){\r\n        posId = numPositions++;\r\n        Position storage p = positions[posId];\r\n\r\n        p.stableCoins_minted = getMaxStableCoinsToMint(StableCoinsToMint, msg.value);\r\n        p.ethAmountLocked = msg.value;\r\n        p.owner = msg.sender;\r\n        p.timeOpened = block.timestamp;\r\n        p.lastTimeUpdated = block.timestamp;\r\n        p.feeGenerated = 0;\r\n        p.feeRate = dao.params('interestRate');\r\n\r\n        return posId;\r\n    }\r\n\r\n    function getMaxStableCoinsToMint(uint256 StableCoinsToMint, uint256 ethValue) public view returns (uint256 amount) {\r\n        return 1;\r\n    }\r\n\r\n    function closeCDP (uint posID) public{ //shows minimum amount of INT you have to own\r\n        //sendEtherToOwner\r\n    }\r\n\r\n/*\r\n    function updateCDP(uint posID, uint newStableCoinsAmount) payable returns (bool success){\r\n        ethAmountLocked += msg.value;\r\n    }\r\n*/\r\n\r\n    function withdrawEther (uint posID, uint etherToWithdraw) public{\r\n        //open Auction in the same contract\r\n    }\r\n\r\n\r\n    function recieveInterestAfterAuction() public {\r\n        //INT.mintForCDP();\r\n    }\r\n\r\n}\r\n",
  "sourcePath": "C:\\Users\\d.nagornykh\\YandexDisk\\\\ICO\\CryptoFiat\\repo\\contracts\\CDP.sol",
  "compiler": {
    "name": "solc",
    "version": "0.8.10+commit.fc410830.Emscripten.clang"
  },
  "schemaVersion": "3.4.4",
  "updatedAt": "2022-01-19T07:50:28.074Z",
  "networkType": "ethereum",
  "devdoc": {
    "kind": "dev",
    "methods": {},
    "version": 1
  },
  "userdoc": {
    "kind": "user",
    "methods": {},
    "version": 1
  }
}