{
  "contractName": "CDP",
  "abi": [
    {
      "inputs": [
        {
          "internalType": "address payable",
          "name": "INTDAOaddress",
          "type": "address"
        }
      ],
      "stateMutability": "nonpayable",
      "type": "constructor"
    },
    {
      "anonymous": false,
      "inputs": [
        {
          "indexed": false,
          "internalType": "uint256",
          "name": "posID",
          "type": "uint256"
        },
        {
          "indexed": false,
          "internalType": "uint256",
          "name": "timestamp",
          "type": "uint256"
        }
      ],
      "name": "OnLiquidation",
      "type": "event"
    },
    {
      "anonymous": false,
      "inputs": [
        {
          "indexed": false,
          "internalType": "address",
          "name": "owner",
          "type": "address"
        },
        {
          "indexed": false,
          "internalType": "uint256",
          "name": "posId",
          "type": "uint256"
        }
      ],
      "name": "PositionOpened",
      "type": "event"
    },
    {
      "anonymous": false,
      "inputs": [
        {
          "indexed": false,
          "internalType": "uint256",
          "name": "posID",
          "type": "uint256"
        },
        {
          "indexed": false,
          "internalType": "uint256",
          "name": "newStableCoinsAmount",
          "type": "uint256"
        },
        {
          "indexed": false,
          "internalType": "uint256",
          "name": "wethLocked",
          "type": "uint256"
        }
      ],
      "name": "PositionUpdated",
      "type": "event"
    },
    {
      "anonymous": false,
      "inputs": [
        {
          "indexed": false,
          "internalType": "uint256",
          "name": "posID",
          "type": "uint256"
        },
        {
          "indexed": false,
          "internalType": "uint256",
          "name": "timestamp",
          "type": "uint256"
        }
      ],
      "name": "markedOnLiquidation",
      "type": "event"
    },
    {
      "inputs": [],
      "name": "numPositions",
      "outputs": [
        {
          "internalType": "uint256",
          "name": "",
          "type": "uint256"
        }
      ],
      "stateMutability": "view",
      "type": "function",
      "constant": true
    },
    {
      "inputs": [
        {
          "internalType": "uint256",
          "name": "",
          "type": "uint256"
        }
      ],
      "name": "positions",
      "outputs": [
        {
          "internalType": "address",
          "name": "owner",
          "type": "address"
        },
        {
          "internalType": "uint256",
          "name": "coinsMinted",
          "type": "uint256"
        },
        {
          "internalType": "uint256",
          "name": "wethAmountLocked",
          "type": "uint256"
        },
        {
          "internalType": "uint256",
          "name": "feeGeneratedRecorded",
          "type": "uint256"
        },
        {
          "internalType": "uint256",
          "name": "timeOpened",
          "type": "uint256"
        },
        {
          "internalType": "uint256",
          "name": "lastTimeUpdated",
          "type": "uint256"
        },
        {
          "internalType": "uint256",
          "name": "feeRate",
          "type": "uint256"
        },
        {
          "internalType": "uint256",
          "name": "markedOnLiquidation",
          "type": "uint256"
        },
        {
          "internalType": "bool",
          "name": "onLiquidation",
          "type": "bool"
        },
        {
          "internalType": "bool",
          "name": "liquidated",
          "type": "bool"
        },
        {
          "internalType": "uint256",
          "name": "liquidationAuctionID",
          "type": "uint256"
        }
      ],
      "stateMutability": "view",
      "type": "function",
      "constant": true
    },
    {
      "stateMutability": "payable",
      "type": "receive",
      "payable": true
    },
    {
      "inputs": [],
      "name": "renewContracts",
      "outputs": [],
      "stateMutability": "nonpayable",
      "type": "function"
    },
    {
      "inputs": [
        {
          "internalType": "uint256",
          "name": "StableCoinsToMint",
          "type": "uint256"
        }
      ],
      "name": "openCDP",
      "outputs": [
        {
          "internalType": "uint256",
          "name": "posID",
          "type": "uint256"
        }
      ],
      "stateMutability": "payable",
      "type": "function",
      "payable": true
    },
    {
      "inputs": [
        {
          "internalType": "uint256",
          "name": "posID",
          "type": "uint256"
        }
      ],
      "name": "generatedFeeUnrecorded",
      "outputs": [
        {
          "internalType": "uint256",
          "name": "fee",
          "type": "uint256"
        }
      ],
      "stateMutability": "view",
      "type": "function",
      "constant": true
    },
    {
      "inputs": [
        {
          "internalType": "uint256",
          "name": "posID",
          "type": "uint256"
        }
      ],
      "name": "totalCurrentFee",
      "outputs": [
        {
          "internalType": "uint256",
          "name": "fee",
          "type": "uint256"
        }
      ],
      "stateMutability": "view",
      "type": "function",
      "constant": true
    },
    {
      "inputs": [
        {
          "internalType": "uint256",
          "name": "ethValue",
          "type": "uint256"
        }
      ],
      "name": "getMaxStableCoinsToMint",
      "outputs": [
        {
          "internalType": "uint256",
          "name": "amount",
          "type": "uint256"
        }
      ],
      "stateMutability": "view",
      "type": "function",
      "constant": true
    },
    {
      "inputs": [
        {
          "internalType": "uint256",
          "name": "posID",
          "type": "uint256"
        }
      ],
      "name": "getMaxStableCoinsToMintForPos",
      "outputs": [
        {
          "internalType": "uint256",
          "name": "maxAmount",
          "type": "uint256"
        }
      ],
      "stateMutability": "view",
      "type": "function",
      "constant": true
    },
    {
      "inputs": [
        {
          "internalType": "uint256",
          "name": "amount",
          "type": "uint256"
        },
        {
          "internalType": "address",
          "name": "beneficiary",
          "type": "address"
        }
      ],
      "name": "claimInterest",
      "outputs": [],
      "stateMutability": "nonpayable",
      "type": "function"
    },
    {
      "inputs": [
        {
          "internalType": "uint256",
          "name": "amount",
          "type": "uint256"
        },
        {
          "internalType": "address",
          "name": "beneficiary",
          "type": "address"
        }
      ],
      "name": "claimEmission",
      "outputs": [],
      "stateMutability": "nonpayable",
      "type": "function"
    },
    {
      "inputs": [
        {
          "internalType": "uint256",
          "name": "posID",
          "type": "uint256"
        }
      ],
      "name": "closeCDP",
      "outputs": [],
      "stateMutability": "nonpayable",
      "type": "function"
    },
    {
      "inputs": [
        {
          "internalType": "uint256",
          "name": "posID",
          "type": "uint256"
        }
      ],
      "name": "transferFee",
      "outputs": [
        {
          "internalType": "bool",
          "name": "success",
          "type": "bool"
        }
      ],
      "stateMutability": "nonpayable",
      "type": "function"
    },
    {
      "inputs": [],
      "name": "allowSurplusToAuction",
      "outputs": [
        {
          "internalType": "bool",
          "name": "success",
          "type": "bool"
        }
      ],
      "stateMutability": "nonpayable",
      "type": "function"
    },
    {
      "inputs": [
        {
          "internalType": "uint256",
          "name": "posID",
          "type": "uint256"
        }
      ],
      "name": "claimMarginCall",
      "outputs": [
        {
          "internalType": "bool",
          "name": "success",
          "type": "bool"
        }
      ],
      "stateMutability": "nonpayable",
      "type": "function"
    },
    {
      "inputs": [
        {
          "internalType": "uint256",
          "name": "posID",
          "type": "uint256"
        }
      ],
      "name": "startCoinsBuyOut",
      "outputs": [],
      "stateMutability": "nonpayable",
      "type": "function"
    },
    {
      "inputs": [
        {
          "internalType": "uint256",
          "name": "posID",
          "type": "uint256"
        }
      ],
      "name": "finishMarginCall",
      "outputs": [],
      "stateMutability": "nonpayable",
      "type": "function"
    },
    {
      "inputs": [
        {
          "internalType": "uint256",
          "name": "posID",
          "type": "uint256"
        }
      ],
      "name": "markToLiquidate",
      "outputs": [
        {
          "internalType": "bool",
          "name": "success",
          "type": "bool"
        }
      ],
      "stateMutability": "nonpayable",
      "type": "function"
    },
    {
      "inputs": [
        {
          "internalType": "uint256",
          "name": "posID",
          "type": "uint256"
        }
      ],
      "name": "eraseMarkToLiquidate",
      "outputs": [],
      "stateMutability": "nonpayable",
      "type": "function"
    },
    {
      "inputs": [
        {
          "internalType": "uint256",
          "name": "posID",
          "type": "uint256"
        },
        {
          "internalType": "uint256",
          "name": "newStableCoinsAmount",
          "type": "uint256"
        }
      ],
      "name": "updateCDP",
      "outputs": [
        {
          "internalType": "bool",
          "name": "success",
          "type": "bool"
        }
      ],
      "stateMutability": "payable",
      "type": "function",
      "payable": true
    },
    {
      "inputs": [
        {
          "internalType": "uint256",
          "name": "posID",
          "type": "uint256"
        },
        {
          "internalType": "uint256",
          "name": "etherToWithdraw",
          "type": "uint256"
        }
      ],
      "name": "withdrawEther",
      "outputs": [],
      "stateMutability": "nonpayable",
      "type": "function"
    },
    {
      "inputs": [
        {
          "internalType": "uint256",
          "name": "posID",
          "type": "uint256"
        }
      ],
      "name": "wethLocked",
      "outputs": [
        {
          "internalType": "uint256",
          "name": "amount",
          "type": "uint256"
        }
      ],
      "stateMutability": "view",
      "type": "function",
      "constant": true
    },
    {
      "inputs": [
        {
          "internalType": "uint256",
          "name": "posID",
          "type": "uint256"
        }
      ],
      "name": "isOnLiquidation",
      "outputs": [
        {
          "internalType": "bool",
          "name": "result",
          "type": "bool"
        }
      ],
      "stateMutability": "view",
      "type": "function",
      "constant": true
    },
    {
      "inputs": [],
      "name": "burnRule",
      "outputs": [],
      "stateMutability": "nonpayable",
      "type": "function"
    },
    {
      "inputs": [
        {
          "internalType": "address",
          "name": "to",
          "type": "address"
        },
        {
          "internalType": "uint256",
          "name": "amount",
          "type": "uint256"
        }
      ],
      "name": "mintRule",
      "outputs": [
        {
          "internalType": "bool",
          "name": "success",
          "type": "bool"
        }
      ],
      "stateMutability": "nonpayable",
      "type": "function"
    }
  ],
  "bytecode": "0x60806040523480156200001157600080fd5b506040516200657138038062006571833981810160405281019062000037919062000666565b80600160006101000a81548173ffffffffffffffffffffffffffffffffffffffff021916908373ffffffffffffffffffffffffffffffffffffffff160217905550600160009054906101000a900473ffffffffffffffffffffffffffffffffffffffff1673ffffffffffffffffffffffffffffffffffffffff16632abdf04e306040518263ffffffff1660e01b8152600401620000d591906200070a565b600060405180830381600087803b158015620000f057600080fd5b505af115801562000105573d6000803e3d6000fd5b50505050600160009054906101000a900473ffffffffffffffffffffffffffffffffffffffff1673ffffffffffffffffffffffffffffffffffffffff16632abdf04e306040518263ffffffff1660e01b81526004016200016691906200078c565b600060405180830381600087803b1580156200018157600080fd5b505af115801562000196573d6000803e3d6000fd5b50505050600160009054906101000a900473ffffffffffffffffffffffffffffffffffffffff1673ffffffffffffffffffffffffffffffffffffffff1663bdfe7d476040518163ffffffff1660e01b8152600401620001f5906200080e565b602060405180830381865afa15801562000213573d6000803e3d6000fd5b505050506040513d601f19601f8201168201806040525081019062000239919062000666565b600360006101000a81548173ffffffffffffffffffffffffffffffffffffffff021916908373ffffffffffffffffffffffffffffffffffffffff160217905550600160009054906101000a900473ffffffffffffffffffffffffffffffffffffffff1673ffffffffffffffffffffffffffffffffffffffff1663bdfe7d476040518163ffffffff1660e01b8152600401620002d49062000880565b602060405180830381865afa158015620002f2573d6000803e3d6000fd5b505050506040513d601f19601f8201168201806040525081019062000318919062000666565b600260006101000a81548173ffffffffffffffffffffffffffffffffffffffff021916908373ffffffffffffffffffffffffffffffffffffffff160217905550600160009054906101000a900473ffffffffffffffffffffffffffffffffffffffff1673ffffffffffffffffffffffffffffffffffffffff1663bdfe7d476040518163ffffffff1660e01b8152600401620003b390620008f2565b602060405180830381865afa158015620003d1573d6000803e3d6000fd5b505050506040513d601f19601f82011682018060405250810190620003f7919062000666565b600460006101000a81548173ffffffffffffffffffffffffffffffffffffffff021916908373ffffffffffffffffffffffffffffffffffffffff160217905550600160009054906101000a900473ffffffffffffffffffffffffffffffffffffffff1673ffffffffffffffffffffffffffffffffffffffff1663bdfe7d476040518163ffffffff1660e01b8152600401620004929062000964565b602060405180830381865afa158015620004b0573d6000803e3d6000fd5b505050506040513d601f19601f82011682018060405250810190620004d6919062000666565b600560006101000a81548173ffffffffffffffffffffffffffffffffffffffff021916908373ffffffffffffffffffffffffffffffffffffffff160217905550600160009054906101000a900473ffffffffffffffffffffffffffffffffffffffff1673ffffffffffffffffffffffffffffffffffffffff1663bdfe7d476040518163ffffffff1660e01b81526004016200057190620009d6565b602060405180830381865afa1580156200058f573d6000803e3d6000fd5b505050506040513d601f19601f82011682018060405250810190620005b5919062000666565b600660006101000a81548173ffffffffffffffffffffffffffffffffffffffff021916908373ffffffffffffffffffffffffffffffffffffffff16021790555050620009f8565b600080fd5b600073ffffffffffffffffffffffffffffffffffffffff82169050919050565b60006200062e8262000601565b9050919050565b620006408162000621565b81146200064c57600080fd5b50565b600081519050620006608162000635565b92915050565b6000602082840312156200067f576200067e620005fc565b5b60006200068f848285016200064f565b91505092915050565b600082825260208201905092915050565b7f6364700000000000000000000000000000000000000000000000000000000000600082015250565b6000620006e160038362000698565b9150620006ee82620006a9565b602082019050919050565b620007048162000621565b82525050565b600060408201905081810360008301526200072581620006d2565b9050620007366020830184620006f9565b92915050565b7f696e666c6174696f6e5370656e64657200000000000000000000000000000000600082015250565b60006200077460108362000698565b915062000781826200073c565b602082019050919050565b60006040820190508181036000830152620007a78162000765565b9050620007b86020830184620006f9565b92915050565b7f737461626c65436f696e00000000000000000000000000000000000000000000600082015250565b6000620007f6600a8362000698565b91506200080382620007be565b602082019050919050565b600060208201905081810360008301526200082981620007e7565b9050919050565b7f6361727400000000000000000000000000000000000000000000000000000000600082015250565b60006200086860048362000698565b9150620008758262000830565b602082019050919050565b600060208201905081810360008301526200089b8162000859565b9050919050565b7f61756374696f6e00000000000000000000000000000000000000000000000000600082015250565b6000620008da60078362000698565b9150620008e782620008a2565b602082019050919050565b600060208201905081810360008301526200090d81620008cb565b9050919050565b7f72756c6500000000000000000000000000000000000000000000000000000000600082015250565b60006200094c60048362000698565b9150620009598262000914565b602082019050919050565b600060208201905081810360008301526200097f816200093d565b9050919050565b7f7765746800000000000000000000000000000000000000000000000000000000600082015250565b6000620009be60048362000698565b9150620009cb8262000986565b602082019050919050565b60006020820190508181036000830152620009f181620009af565b9050919050565b615b698062000a086000396000f3fe60806040526004361061014f5760003560e01c8063776879e5116100b6578063d42035611161006f578063d4203561146105a1578063d4ddc1a7146105de578063dda001961461061b578063edfc171314610644578063f34792c21461066d578063f98b3fb5146106aa57610236565b8063776879e5146104635780637a7c0e01146104a05780637f660be1146104cb57806391078b48146104f457806399fbab8814610531578063b514307a1461057857610236565b806347ff94681161010857806347ff9468146103355780635c412bb2146103725780635e71823b1461039b5780636530218d146103c65780636bb224c3146104035780636e2796611461043357610236565b80630403dc091461023b5780630beebd39146102785780631db398ef1461028f5780631e4b5ede146102cc57806323d86a65146102f55780632650a47c1461030c57610236565b3661023657600160009054906101000a900473ffffffffffffffffffffffffffffffffffffffff1673ffffffffffffffffffffffffffffffffffffffff1663bdfe7d476040518163ffffffff1660e01b81526004016101ad9061400a565b602060405180830381865afa1580156101ca573d6000803e3d6000fd5b505050506040513d601f19601f820116820180604052508101906101ee919061408d565b73ffffffffffffffffffffffffffffffffffffffff166108fc479081150290604051600060405180830381858888f19350505050158015610233573d6000803e3d6000fd5b50005b600080fd5b34801561024757600080fd5b50610262600480360381019061025d919061412e565b6106e7565b60405161026f9190614189565b60405180910390f35b34801561028457600080fd5b5061028d61089b565b005b34801561029b57600080fd5b506102b660048036038101906102b191906141a4565b6109d9565b6040516102c39190614189565b60405180910390f35b3480156102d857600080fd5b506102f360048036038101906102ee91906141a4565b610f40565b005b34801561030157600080fd5b5061030a6112f3565b005b34801561031857600080fd5b50610333600480360381019061032e91906141d1565b61165d565b005b34801561034157600080fd5b5061035c600480360381019061035791906141a4565b61191e565b6040516103699190614220565b60405180910390f35b34801561037e57600080fd5b506103996004803603810190610394919061423b565b611987565b005b3480156103a757600080fd5b506103b0611b07565b6040516103bd9190614220565b60405180910390f35b3480156103d257600080fd5b506103ed60048036038101906103e891906141a4565b611b0d565b6040516103fa9190614220565b60405180910390f35b61041d600480360381019061041891906141a4565b611d32565b60405161042a9190614220565b60405180910390f35b61044d600480360381019061044891906141d1565b6121df565b60405161045a9190614189565b60405180910390f35b34801561046f57600080fd5b5061048a600480360381019061048591906141a4565b61282c565b6040516104979190614189565b60405180910390f35b3480156104ac57600080fd5b506104b561285e565b6040516104c29190614189565b60405180910390f35b3480156104d757600080fd5b506104f260048036038101906104ed919061423b565b612d8a565b005b34801561050057600080fd5b5061051b600480360381019061051691906141a4565b6132e4565b6040516105289190614220565b60405180910390f35b34801561053d57600080fd5b50610558600480360381019061055391906141a4565b613324565b60405161056f9b9a9998979695949392919061428a565b60405180910390f35b34801561058457600080fd5b5061059f600480360381019061059a91906141a4565b6133b8565b005b3480156105ad57600080fd5b506105c860048036038101906105c391906141a4565b613b0f565b6040516105d59190614189565b60405180910390f35b3480156105ea57600080fd5b50610605600480360381019061060091906141a4565b613cb8565b6040516106129190614220565b60405180910390f35b34801561062757600080fd5b50610642600480360381019061063d91906141a4565b613cdd565b005b34801561065057600080fd5b5061066b600480360381019061066691906141a4565b613d9e565b005b34801561067957600080fd5b50610694600480360381019061068f91906141a4565b613e72565b6040516106a19190614189565b60405180910390f35b3480156106b657600080fd5b506106d160048036038101906106cc91906141a4565b613f75565b6040516106de9190614220565b60405180910390f35b6000600160009054906101000a900473ffffffffffffffffffffffffffffffffffffffff1673ffffffffffffffffffffffffffffffffffffffff1663bdfe7d476040518163ffffffff1660e01b815260040161074290614381565b602060405180830381865afa15801561075f573d6000803e3d6000fd5b505050506040513d601f19601f82011682018060405250810190610783919061408d565b73ffffffffffffffffffffffffffffffffffffffff163373ffffffffffffffffffffffffffffffffffffffff16146107f0576040517f08c379a00000000000000000000000000000000000000000000000000000000081526004016107e790614413565b60405180910390fd5b600560009054906101000a900473ffffffffffffffffffffffffffffffffffffffff1673ffffffffffffffffffffffffffffffffffffffff166340c10f1984846040518363ffffffff1660e01b815260040161084d929190614433565b6020604051808303816000875af115801561086c573d6000803e3d6000fd5b505050506040513d601f19601f820116820180604052508101906108909190614488565b506001905092915050565b600560009054906101000a900473ffffffffffffffffffffffffffffffffffffffff1673ffffffffffffffffffffffffffffffffffffffff16639dc29fac30600560009054906101000a900473ffffffffffffffffffffffffffffffffffffffff1673ffffffffffffffffffffffffffffffffffffffff166370a08231306040518263ffffffff1660e01b815260040161093591906144b5565b602060405180830381865afa158015610952573d6000803e3d6000fd5b505050506040513d601f19601f8201168201806040525081019061097691906144e5565b6040518363ffffffff1660e01b8152600401610993929190614433565b6020604051808303816000875af11580156109b2573d6000803e3d6000fd5b505050506040513d601f19601f820116820180604052508101906109d69190614488565b50565b60008060076000848152602001908152602001600020905060008160070154118015610aac5750600160009054906101000a900473ffffffffffffffffffffffffffffffffffffffff1673ffffffffffffffffffffffffffffffffffffffff1663145f822b6040518163ffffffff1660e01b8152600401610a599061455e565b602060405180830381865afa158015610a76573d6000803e3d6000fd5b505050506040513d601f19601f82011682018060405250810190610a9a91906144e5565b816007015442610aaa91906145ad565b115b610aeb576040517f08c379a0000000000000000000000000000000000000000000000000000000008152600401610ae290614653565b60405180910390fd5b8060080160009054906101000a900460ff1615610b3d576040517f08c379a0000000000000000000000000000000000000000000000000000000008152600401610b34906146e5565b60405180910390fd5b6000610b4884613f75565b610b558360020154611b0d565b610b5f91906145ad565b90508160010154811015610f2a5760018260080160006101000a81548160ff0219169083151502179055506000600660009054906101000a900473ffffffffffffffffffffffffffffffffffffffff1673ffffffffffffffffffffffffffffffffffffffff1663dd62ed3e600160009054906101000a900473ffffffffffffffffffffffffffffffffffffffff1673ffffffffffffffffffffffffffffffffffffffff1663bdfe7d476040518163ffffffff1660e01b8152600401610c2390614751565b602060405180830381865afa158015610c40573d6000803e3d6000fd5b505050506040513d601f19601f82011682018060405250810190610c64919061408d565b600160009054906101000a900473ffffffffffffffffffffffffffffffffffffffff1673ffffffffffffffffffffffffffffffffffffffff1663bdfe7d476040518163ffffffff1660e01b8152600401610cbd90614381565b602060405180830381865afa158015610cda573d6000803e3d6000fd5b505050506040513d601f19601f82011682018060405250810190610cfe919061408d565b6040518363ffffffff1660e01b8152600401610d1b9291906147d0565b602060405180830381865afa158015610d38573d6000803e3d6000fd5b505050506040513d601f19601f82011682018060405250810190610d5c91906144e5565b9050600660009054906101000a900473ffffffffffffffffffffffffffffffffffffffff1673ffffffffffffffffffffffffffffffffffffffff1663095ea7b3600160009054906101000a900473ffffffffffffffffffffffffffffffffffffffff1673ffffffffffffffffffffffffffffffffffffffff1663bdfe7d476040518163ffffffff1660e01b8152600401610df590614381565b602060405180830381865afa158015610e12573d6000803e3d6000fd5b505050506040513d601f19601f82011682018060405250810190610e36919061408d565b856002015484610e4691906147f9565b6040518363ffffffff1660e01b8152600401610e6392919061484f565b6020604051808303816000875af1158015610e82573d6000803e3d6000fd5b505050506040513d601f19601f82011682018060405250810190610ea69190614488565b610ee5576040517f08c379a0000000000000000000000000000000000000000000000000000000008152600401610edc906148ea565b60405180910390fd5b7f31673ddfc0eb6966d1a8d85477c249f90d6d896936c3b1d93bfcaf9b29eb6fc98542604051610f1692919061490a565b60405180910390a160019350505050610f3b565b600082600701819055506000925050505b919050565b60006007600083815260200190815260200160002090508060080160009054906101000a900460ff1615610fa9576040517f08c379a0000000000000000000000000000000000000000000000000000000008152600401610fa09061497f565b60405180910390fd5b60008160010154610fb984613f75565b610fc391906147f9565b9050600360009054906101000a900473ffffffffffffffffffffffffffffffffffffffff1673ffffffffffffffffffffffffffffffffffffffff166323b872dd8360000160009054906101000a900473ffffffffffffffffffffffffffffffffffffffff1630846040518463ffffffff1660e01b81526004016110489392919061499f565b6020604051808303816000875af1158015611067573d6000803e3d6000fd5b505050506040513d601f19601f8201168201806040525081019061108b9190614488565b6110ca576040517f08c379a00000000000000000000000000000000000000000000000000000000081526004016110c190614a6e565b60405180910390fd5b600660009054906101000a900473ffffffffffffffffffffffffffffffffffffffff1673ffffffffffffffffffffffffffffffffffffffff1663a9059cbb8360000160009054906101000a900473ffffffffffffffffffffffffffffffffffffffff1684600201546040518363ffffffff1660e01b815260040161114f929190614433565b6020604051808303816000875af115801561116e573d6000803e3d6000fd5b505050506040513d601f19601f820116820180604052508101906111929190614488565b6111d1576040517f08c379a00000000000000000000000000000000000000000000000000000000081526004016111c890614b00565b60405180910390fd5b60008260020181905550600360009054906101000a900473ffffffffffffffffffffffffffffffffffffffff1673ffffffffffffffffffffffffffffffffffffffff16639dc29fac3084600101546040518363ffffffff1660e01b815260040161123c929190614433565b6020604051808303816000875af115801561125b573d6000803e3d6000fd5b505050506040513d601f19601f8201168201806040525081019061127f9190614488565b6112be576040517f08c379a00000000000000000000000000000000000000000000000000000000081526004016112b590614b92565b60405180910390fd5b6000826001018190555042826005018190555060018260080160016101000a81548160ff021916908315150217905550505050565b600160009054906101000a900473ffffffffffffffffffffffffffffffffffffffff1673ffffffffffffffffffffffffffffffffffffffff1663bdfe7d476040518163ffffffff1660e01b815260040161134c90614bfe565b602060405180830381865afa158015611369573d6000803e3d6000fd5b505050506040513d601f19601f8201168201806040525081019061138d919061408d565b600360006101000a81548173ffffffffffffffffffffffffffffffffffffffff021916908373ffffffffffffffffffffffffffffffffffffffff160217905550600160009054906101000a900473ffffffffffffffffffffffffffffffffffffffff1673ffffffffffffffffffffffffffffffffffffffff1663bdfe7d476040518163ffffffff1660e01b815260040161142690614c6a565b602060405180830381865afa158015611443573d6000803e3d6000fd5b505050506040513d601f19601f82011682018060405250810190611467919061408d565b600260006101000a81548173ffffffffffffffffffffffffffffffffffffffff021916908373ffffffffffffffffffffffffffffffffffffffff160217905550600160009054906101000a900473ffffffffffffffffffffffffffffffffffffffff1673ffffffffffffffffffffffffffffffffffffffff1663bdfe7d476040518163ffffffff1660e01b815260040161150090614381565b602060405180830381865afa15801561151d573d6000803e3d6000fd5b505050506040513d601f19601f82011682018060405250810190611541919061408d565b600460006101000a81548173ffffffffffffffffffffffffffffffffffffffff021916908373ffffffffffffffffffffffffffffffffffffffff160217905550600160009054906101000a900473ffffffffffffffffffffffffffffffffffffffff1673ffffffffffffffffffffffffffffffffffffffff1663bdfe7d476040518163ffffffff1660e01b81526004016115da90614cd6565b602060405180830381865afa1580156115f7573d6000803e3d6000fd5b505050506040513d601f19601f8201168201806040525081019061161b919061408d565b600660006101000a81548173ffffffffffffffffffffffffffffffffffffffff021916908373ffffffffffffffffffffffffffffffffffffffff160217905550565b60006007600084815260200190815260200160002090508060080160009054906101000a900460ff16156116c6576040517f08c379a00000000000000000000000000000000000000000000000000000000081526004016116bd9061497f565b60405180910390fd5b3373ffffffffffffffffffffffffffffffffffffffff168160000160009054906101000a900473ffffffffffffffffffffffffffffffffffffffff1673ffffffffffffffffffffffffffffffffffffffff1614611758576040517f08c379a000000000000000000000000000000000000000000000000000000000815260040161174f90614d68565b60405180910390fd5b8060020154821061179e576040517f08c379a000000000000000000000000000000000000000000000000000000000815260040161179590614dfa565b60405180910390fd5b60008282600201546117b091906145ad565b905060006117bd85613f75565b6117c683611b0d565b6117d091906145ad565b905082600101548111611818576040517f08c379a000000000000000000000000000000000000000000000000000000000815260040161180f90614eb2565b60405180910390fd5b8383600201600082825461182c91906145ad565b92505081905550600660009054906101000a900473ffffffffffffffffffffffffffffffffffffffff1673ffffffffffffffffffffffffffffffffffffffff1663a9059cbb33866040518363ffffffff1660e01b8152600401611890929190614433565b6020604051808303816000875af11580156118af573d6000803e3d6000fd5b505050506040513d601f19601f820116820180604052508101906118d39190614488565b507ff89185fe8013045e431c4a2d209bdc8367e67b3aee3359fde091b6ce08e60550858460010154856002015460405161190f93929190614ed2565b60405180910390a15050505050565b60008060076000848152602001908152602001600020905060646301e13380826006015483600501544261195291906145ad565b84600101546119619190614f09565b61196b9190614f09565b6119759190614f92565b61197f9190614f92565b915050919050565b600160009054906101000a900473ffffffffffffffffffffffffffffffffffffffff1673ffffffffffffffffffffffffffffffffffffffff1663b9181611336040518263ffffffff1660e01b81526004016119e291906144b5565b602060405180830381865afa1580156119ff573d6000803e3d6000fd5b505050506040513d601f19601f82011682018060405250810190611a239190614488565b611a62576040517f08c379a0000000000000000000000000000000000000000000000000000000008152600401611a5990615035565b60405180910390fd5b600360009054906101000a900473ffffffffffffffffffffffffffffffffffffffff1673ffffffffffffffffffffffffffffffffffffffff166340c10f1982846040518363ffffffff1660e01b8152600401611abf929190614433565b6020604051808303816000875af1158015611ade573d6000803e3d6000fd5b505050506040513d601f19601f82011682018060405250810190611b029190614488565b505050565b60005481565b600080600260009054906101000a900473ffffffffffffffffffffffffffffffffffffffff1673ffffffffffffffffffffffffffffffffffffffff1663524f38896040518163ffffffff1660e01b8152600401611b69906150a1565b602060405180830381865afa158015611b86573d6000803e3d6000fd5b505050506040513d601f19601f82011682018060405250810190611baa91906144e5565b90506000600260009054906101000a900473ffffffffffffffffffffffffffffffffffffffff1673ffffffffffffffffffffffffffffffffffffffff1663afd0fd1d6040518163ffffffff1660e01b8152600401611c079061510d565b602060405180830381865afa158015611c24573d6000803e3d6000fd5b505050506040513d601f19601f82011682018060405250810190611c4891906144e5565b9050606481600a611c599190615260565b600160009054906101000a900473ffffffffffffffffffffffffffffffffffffffff1673ffffffffffffffffffffffffffffffffffffffff1663145f822b6040518163ffffffff1660e01b8152600401611cb2906152f7565b602060405180830381865afa158015611ccf573d6000803e3d6000fd5b505050506040513d601f19601f82011682018060405250810190611cf391906144e5565b6064611cff91906145ad565b8487611d0b9190614f09565b611d159190614f09565b611d1f9190614f92565b611d299190614f92565b92505050919050565b600080611d3e34611b0d565b9050808311611d4b578290505b600360009054906101000a900473ffffffffffffffffffffffffffffffffffffffff1673ffffffffffffffffffffffffffffffffffffffff1663313ce5676040518163ffffffff1660e01b8152600401602060405180830381865afa158015611db8573d6000803e3d6000fd5b505050506040513d601f19601f82011682018060405250810190611ddc91906144e5565b600a611de89190615260565b6001611df49190614f09565b8111611e35576040517f08c379a0000000000000000000000000000000000000000000000000000000008152600401611e2c90615389565b60405180910390fd5b600080815480929190611e47906153a9565b91905055915060006007600084815260200190815260200160002090508181600101819055503481600201819055506000600160009054906101000a900473ffffffffffffffffffffffffffffffffffffffff1673ffffffffffffffffffffffffffffffffffffffff1663bdfe7d476040518163ffffffff1660e01b8152600401611ed190614cd6565b602060405180830381865afa158015611eee573d6000803e3d6000fd5b505050506040513d601f19601f82011682018060405250810190611f12919061408d565b73ffffffffffffffffffffffffffffffffffffffff1634604051611f3590615423565b60006040518083038185875af1925050503d8060008114611f72576040519150601f19603f3d011682016040523d82523d6000602084013e611f77565b606091505b5050905080611fbb576040517f08c379a0000000000000000000000000000000000000000000000000000000008152600401611fb2906154aa565b60405180910390fd5b338260000160006101000a81548173ffffffffffffffffffffffffffffffffffffffff021916908373ffffffffffffffffffffffffffffffffffffffff16021790555042826004018190555042826005018190555060008260030181905550600160009054906101000a900473ffffffffffffffffffffffffffffffffffffffff1673ffffffffffffffffffffffffffffffffffffffff1663145f822b6040518163ffffffff1660e01b815260040161207390615516565b602060405180830381865afa158015612090573d6000803e3d6000fd5b505050506040513d601f19601f820116820180604052508101906120b491906144e5565b826006018190555060008260080160006101000a81548160ff021916908315150217905550600360009054906101000a900473ffffffffffffffffffffffffffffffffffffffff1673ffffffffffffffffffffffffffffffffffffffff166340c10f1933856040518363ffffffff1660e01b8152600401612136929190614433565b6020604051808303816000875af1158015612155573d6000803e3d6000fd5b505050506040513d601f19601f820116820180604052508101906121799190614488565b507f7033b91d43234ea7f0b72ec01052e5285ce842c91dcf6ab963fa44a5487417208260000160009054906101000a900473ffffffffffffffffffffffffffffffffffffffff16856040516121cf929190614433565b60405180910390a1505050919050565b6000806007600085815260200190815260200160002090508060080160009054906101000a900460ff1615612249576040517f08c379a00000000000000000000000000000000000000000000000000000000081526004016122409061497f565b60405180910390fd5b3373ffffffffffffffffffffffffffffffffffffffff168160000160009054906101000a900473ffffffffffffffffffffffffffffffffffffffff1673ffffffffffffffffffffffffffffffffffffffff16146122db576040517f08c379a00000000000000000000000000000000000000000000000000000000081526004016122d290614d68565b60405180910390fd5b60006122e68561191e565b8260030160008282546122f991906147f9565b925050819055504282600501819055506000341115612474573482600201600082825461232691906147f9565b925050819055506000600160009054906101000a900473ffffffffffffffffffffffffffffffffffffffff1673ffffffffffffffffffffffffffffffffffffffff1663bdfe7d476040518163ffffffff1660e01b815260040161238890614cd6565b602060405180830381865afa1580156123a5573d6000803e3d6000fd5b505050506040513d601f19601f820116820180604052508101906123c9919061408d565b73ffffffffffffffffffffffffffffffffffffffff16346040516123ec90615423565b60006040518083038185875af1925050503d8060008114612429576040519150601f19603f3d011682016040523d82523d6000602084013e61242e565b606091505b5050905080612472576040517f08c379a0000000000000000000000000000000000000000000000000000000008152600401612469906154aa565b60405180910390fd5b505b61247d85613f75565b61248a8360020154611b0d565b61249491906145ad565b90506000811180156124a65750838110155b6124e5576040517f08c379a00000000000000000000000000000000000000000000000000000000081526004016124dc906155a8565b60405180910390fd5b816001015484111561261e57600082600101548561250391906145ad565b9050600360009054906101000a900473ffffffffffffffffffffffffffffffffffffffff1673ffffffffffffffffffffffffffffffffffffffff166340c10f198460000160009054906101000a900473ffffffffffffffffffffffffffffffffffffffff16836040518363ffffffff1660e01b8152600401612586929190614433565b6020604051808303816000875af11580156125a5573d6000803e3d6000fd5b505050506040513d601f19601f820116820180604052508101906125c99190614488565b508483600101819055507ff89185fe8013045e431c4a2d209bdc8367e67b3aee3359fde091b6ce08e605508686856002015460405161260a93929190614ed2565b60405180910390a160019350505050612826565b816001015484101561282357600084836001015461263c91906145ad565b905080600360009054906101000a900473ffffffffffffffffffffffffffffffffffffffff1673ffffffffffffffffffffffffffffffffffffffff166370a082318560000160009054906101000a900473ffffffffffffffffffffffffffffffffffffffff166040518263ffffffff1660e01b81526004016126be91906144b5565b602060405180830381865afa1580156126db573d6000803e3d6000fd5b505050506040513d601f19601f820116820180604052508101906126ff91906144e5565b101561270a57600080fd5b600360009054906101000a900473ffffffffffffffffffffffffffffffffffffffff1673ffffffffffffffffffffffffffffffffffffffff16639dc29fac8460000160009054906101000a900473ffffffffffffffffffffffffffffffffffffffff16836040518363ffffffff1660e01b815260040161278b929190614433565b6020604051808303816000875af11580156127aa573d6000803e3d6000fd5b505050506040513d601f19601f820116820180604052508101906127ce9190614488565b508483600101819055507ff89185fe8013045e431c4a2d209bdc8367e67b3aee3359fde091b6ce08e605508686856002015460405161280f93929190614ed2565b60405180910390a160019350505050612826565b50505b92915050565b6000806007600084815260200190815260200160002090508060080160009054906101000a900460ff16915050919050565b6000806064600360009054906101000a900473ffffffffffffffffffffffffffffffffffffffff1673ffffffffffffffffffffffffffffffffffffffff166318160ddd6040518163ffffffff1660e01b8152600401602060405180830381865afa1580156128d0573d6000803e3d6000fd5b505050506040513d601f19601f820116820180604052508101906128f491906144e5565b600160009054906101000a900473ffffffffffffffffffffffffffffffffffffffff1673ffffffffffffffffffffffffffffffffffffffff1663145f822b6040518163ffffffff1660e01b815260040161294d90615614565b602060405180830381865afa15801561296a573d6000803e3d6000fd5b505050506040513d601f19601f8201168201806040525081019061298e91906144e5565b6129989190614f09565b6129a29190614f92565b905080600360009054906101000a900473ffffffffffffffffffffffffffffffffffffffff1673ffffffffffffffffffffffffffffffffffffffff166370a08231306040518263ffffffff1660e01b8152600401612a0091906144b5565b602060405180830381865afa158015612a1d573d6000803e3d6000fd5b505050506040513d601f19601f82011682018060405250810190612a4191906144e5565b1015612a82576040517f08c379a0000000000000000000000000000000000000000000000000000000008152600401612a79906156a6565b60405180910390fd5b600081600360009054906101000a900473ffffffffffffffffffffffffffffffffffffffff1673ffffffffffffffffffffffffffffffffffffffff166370a08231306040518263ffffffff1660e01b8152600401612ae091906144b5565b602060405180830381865afa158015612afd573d6000803e3d6000fd5b505050506040513d601f19601f82011682018060405250810190612b2191906144e5565b612b2b91906145ad565b9050600160009054906101000a900473ffffffffffffffffffffffffffffffffffffffff1673ffffffffffffffffffffffffffffffffffffffff1663145f822b6040518163ffffffff1660e01b8152600401612b8690615712565b602060405180830381865afa158015612ba3573d6000803e3d6000fd5b505050506040513d601f19601f82011682018060405250810190612bc791906144e5565b811015612c09576040517f08c379a0000000000000000000000000000000000000000000000000000000008152600401612c00906157a4565b60405180910390fd5b600360009054906101000a900473ffffffffffffffffffffffffffffffffffffffff1673ffffffffffffffffffffffffffffffffffffffff1663095ea7b3600160009054906101000a900473ffffffffffffffffffffffffffffffffffffffff1673ffffffffffffffffffffffffffffffffffffffff1663bdfe7d476040518163ffffffff1660e01b8152600401612ca090614381565b602060405180830381865afa158015612cbd573d6000803e3d6000fd5b505050506040513d601f19601f82011682018060405250810190612ce1919061408d565b836040518363ffffffff1660e01b8152600401612cff92919061484f565b6020604051808303816000875af1158015612d1e573d6000803e3d6000fd5b505050506040513d601f19601f82011682018060405250810190612d429190614488565b612d81576040517f08c379a0000000000000000000000000000000000000000000000000000000008152600401612d7890615836565b60405180910390fd5b60019250505090565b600160009054906101000a900473ffffffffffffffffffffffffffffffffffffffff1673ffffffffffffffffffffffffffffffffffffffff1663b9181611336040518263ffffffff1660e01b8152600401612de591906144b5565b602060405180830381865afa158015612e02573d6000803e3d6000fd5b505050506040513d601f19601f82011682018060405250810190612e269190614488565b612e65576040517f08c379a0000000000000000000000000000000000000000000000000000000008152600401612e5c90615035565b60405180910390fd5b81600360009054906101000a900473ffffffffffffffffffffffffffffffffffffffff1673ffffffffffffffffffffffffffffffffffffffff166370a08231306040518263ffffffff1660e01b8152600401612ec191906144b5565b602060405180830381865afa158015612ede573d6000803e3d6000fd5b505050506040513d601f19601f82011682018060405250810190612f0291906144e5565b1115612fae57600360009054906101000a900473ffffffffffffffffffffffffffffffffffffffff1673ffffffffffffffffffffffffffffffffffffffff1663a9059cbb82846040518363ffffffff1660e01b8152600401612f65929190614433565b6020604051808303816000875af1158015612f84573d6000803e3d6000fd5b505050506040513d601f19601f82011682018060405250810190612fa89190614488565b506132e0565b6000600360009054906101000a900473ffffffffffffffffffffffffffffffffffffffff1673ffffffffffffffffffffffffffffffffffffffff166370a08231306040518263ffffffff1660e01b815260040161300b91906144b5565b602060405180830381865afa158015613028573d6000803e3d6000fd5b505050506040513d601f19601f8201168201806040525081019061304c91906144e5565b8361305791906145ad565b9050600360009054906101000a900473ffffffffffffffffffffffffffffffffffffffff1673ffffffffffffffffffffffffffffffffffffffff1663a9059cbb83600360009054906101000a900473ffffffffffffffffffffffffffffffffffffffff1673ffffffffffffffffffffffffffffffffffffffff166370a08231306040518263ffffffff1660e01b81526004016130f391906144b5565b602060405180830381865afa158015613110573d6000803e3d6000fd5b505050506040513d601f19601f8201168201806040525081019061313491906144e5565b6040518363ffffffff1660e01b8152600401613151929190614433565b6020604051808303816000875af1158015613170573d6000803e3d6000fd5b505050506040513d601f19601f820116820180604052508101906131949190614488565b50600360009054906101000a900473ffffffffffffffffffffffffffffffffffffffff1673ffffffffffffffffffffffffffffffffffffffff1663095ea7b383600360009054906101000a900473ffffffffffffffffffffffffffffffffffffffff1673ffffffffffffffffffffffffffffffffffffffff1663dd62ed3e30876040518363ffffffff1660e01b8152600401613231929190615856565b602060405180830381865afa15801561324e573d6000803e3d6000fd5b505050506040513d601f19601f8201168201806040525081019061327291906144e5565b8461327d91906147f9565b6040518363ffffffff1660e01b815260040161329a929190614433565b6020604051808303816000875af11580156132b9573d6000803e3d6000fd5b505050506040513d601f19601f820116820180604052508101906132dd9190614488565b50505b5050565b60008060076000848152602001908152602001600020905061330583613f75565b6133128260020154611b0d565b61331c91906145ad565b915050919050565b60076020528060005260406000206000915090508060000160009054906101000a900473ffffffffffffffffffffffffffffffffffffffff16908060010154908060020154908060030154908060040154908060050154908060060154908060070154908060080160009054906101000a900460ff16908060080160019054906101000a900460ff1690806009015490508b565b6000600760008381526020019081526020016000209050600460009054906101000a900473ffffffffffffffffffffffffffffffffffffffff1673ffffffffffffffffffffffffffffffffffffffff16637343950a82600901546040518263ffffffff1660e01b815260040161342e9190614220565b6020604051808303816000875af115801561344d573d6000803e3d6000fd5b505050506040513d601f19601f820116820180604052508101906134719190614488565b6134b0576040517f08c379a00000000000000000000000000000000000000000000000000000000081526004016134a7906158cb565b60405180910390fd5b6000600460009054906101000a900473ffffffffffffffffffffffffffffffffffffffff1673ffffffffffffffffffffffffffffffffffffffff166365d089a883600901546040518263ffffffff1660e01b81526004016135119190614220565b602060405180830381865afa15801561352e573d6000803e3d6000fd5b505050506040513d601f19601f8201168201806040525081019061355291906144e5565b90506064600160009054906101000a900473ffffffffffffffffffffffffffffffffffffffff1673ffffffffffffffffffffffffffffffffffffffff1663145f822b6040518163ffffffff1660e01b81526004016135af90615937565b602060405180830381865afa1580156135cc573d6000803e3d6000fd5b505050506040513d601f19601f820116820180604052508101906135f091906144e5565b83600101546135ff9190614f09565b6136099190614f92565b826001015461361891906147f9565b81111561385e5760006064600160009054906101000a900473ffffffffffffffffffffffffffffffffffffffff1673ffffffffffffffffffffffffffffffffffffffff1663145f822b6040518163ffffffff1660e01b815260040161367c90615937565b602060405180830381865afa158015613699573d6000803e3d6000fd5b505050506040513d601f19601f820116820180604052508101906136bd91906144e5565b84600101546136cc9190614f09565b6136d69190614f92565b8360010154836136e691906145ad565b6136f091906145ad565b9050600360009054906101000a900473ffffffffffffffffffffffffffffffffffffffff1673ffffffffffffffffffffffffffffffffffffffff1663a9059cbb8460000160009054906101000a900473ffffffffffffffffffffffffffffffffffffffff16836040518363ffffffff1660e01b8152600401613773929190614433565b6020604051808303816000875af1158015613792573d6000803e3d6000fd5b505050506040513d601f19601f820116820180604052508101906137b69190614488565b50600360009054906101000a900473ffffffffffffffffffffffffffffffffffffffff1673ffffffffffffffffffffffffffffffffffffffff16639dc29fac3085600101546040518363ffffffff1660e01b8152600401613818929190614433565b6020604051808303816000875af1158015613837573d6000803e3d6000fd5b505050506040513d601f19601f8201168201806040525081019061385b9190614488565b50505b81600101548111613b0a578160010154600360009054906101000a900473ffffffffffffffffffffffffffffffffffffffff1673ffffffffffffffffffffffffffffffffffffffff166370a08231306040518263ffffffff1660e01b81526004016138c991906144b5565b602060405180830381865afa1580156138e6573d6000803e3d6000fd5b505050506040513d601f19601f8201168201806040525081019061390a91906144e5565b106139b957600360009054906101000a900473ffffffffffffffffffffffffffffffffffffffff1673ffffffffffffffffffffffffffffffffffffffff16639dc29fac3084600101546040518363ffffffff1660e01b8152600401613970929190614433565b6020604051808303816000875af115801561398f573d6000803e3d6000fd5b505050506040513d601f19601f820116820180604052508101906139b39190614488565b50613b09565b6000600360009054906101000a900473ffffffffffffffffffffffffffffffffffffffff1673ffffffffffffffffffffffffffffffffffffffff166370a08231306040518263ffffffff1660e01b8152600401613a1691906144b5565b602060405180830381865afa158015613a33573d6000803e3d6000fd5b505050506040513d601f19601f82011682018060405250810190613a5791906144e5565b8360010154613a6691906145ad565b9050600460009054906101000a900473ffffffffffffffffffffffffffffffffffffffff1673ffffffffffffffffffffffffffffffffffffffff1663f85badde826040518263ffffffff1660e01b8152600401613ac39190614220565b6020604051808303816000875af1158015613ae2573d6000803e3d6000fd5b505050506040513d601f19601f82011682018060405250810190613b0691906144e5565b50505b5b505050565b6000806007600084815260200190815260200160002090508060080160009054906101000a900460ff1615613b79576040517f08c379a0000000000000000000000000000000000000000000000000000000008152600401613b709061497f565b60405180910390fd5b6000613b848461191e565b8260030154613b9391906147f9565b9050600360009054906101000a900473ffffffffffffffffffffffffffffffffffffffff1673ffffffffffffffffffffffffffffffffffffffff166323b872dd8360000160009054906101000a900473ffffffffffffffffffffffffffffffffffffffff1630846040518463ffffffff1660e01b8152600401613c189392919061499f565b6020604051808303816000875af1158015613c37573d6000803e3d6000fd5b505050506040513d601f19601f82011682018060405250810190613c5b9190614488565b613c9a576040517f08c379a0000000000000000000000000000000000000000000000000000000008152600401613c91906159ef565b60405180910390fd5b60008260030181905550428260050181905550600192505050919050565b6000806007600084815260200190815260200160002090508060020154915050919050565b6000600760008381526020019081526020016000209050600460009054906101000a900473ffffffffffffffffffffffffffffffffffffffff1673ffffffffffffffffffffffffffffffffffffffff16635ff48900836040518263ffffffff1660e01b8152600401613d4f9190614220565b6020604051808303816000875af1158015613d6e573d6000803e3d6000fd5b505050506040513d601f19601f82011682018060405250810190613d9291906144e5565b81600901819055505050565b600060076000838152602001908152602001600020905060008160070154118015613dd857508060080160009054906101000a900460ff16155b8015613df357508060080160019054906101000a900460ff16155b613e32576040517f08c379a0000000000000000000000000000000000000000000000000000000008152600401613e2990615a81565b60405180910390fd5b6000613e3d83613f75565b613e4a8360020154611b0d565b613e5491906145ad565b90508160010154811115613e6d57600082600701819055505b505050565b60008060076000848152602001908152602001600020905060008160070154148015613ead57508060080160009054906101000a900460ff16155b613eec576040517f08c379a0000000000000000000000000000000000000000000000000000000008152600401613ee390615b13565b60405180910390fd5b6000613ef784613f75565b613f048360020154611b0d565b613f0e91906145ad565b90508160010154811015613f69574282600701819055507fc7fcb1762039617a9125455c34980d3770676da1c4e1b42c55bc47fa7ebc970f8442604051613f5692919061490a565b60405180910390a1600192505050613f70565b6000925050505b919050565b600080600760008481526020019081526020016000209050613f968361191e565b8160030154613fa591906147f9565b915050919050565b600082825260208201905092915050565b7f6f7261636c650000000000000000000000000000000000000000000000000000600082015250565b6000613ff4600683613fad565b9150613fff82613fbe565b602082019050919050565b6000602082019050818103600083015261402381613fe7565b9050919050565b600080fd5b600073ffffffffffffffffffffffffffffffffffffffff82169050919050565b600061405a8261402f565b9050919050565b61406a8161404f565b811461407557600080fd5b50565b60008151905061408781614061565b92915050565b6000602082840312156140a3576140a261402a565b5b60006140b184828501614078565b91505092915050565b60006140c58261402f565b9050919050565b6140d5816140ba565b81146140e057600080fd5b50565b6000813590506140f2816140cc565b92915050565b6000819050919050565b61410b816140f8565b811461411657600080fd5b50565b60008135905061412881614102565b92915050565b600080604083850312156141455761414461402a565b5b6000614153858286016140e3565b925050602061416485828601614119565b9150509250929050565b60008115159050919050565b6141838161416e565b82525050565b600060208201905061419e600083018461417a565b92915050565b6000602082840312156141ba576141b961402a565b5b60006141c884828501614119565b91505092915050565b600080604083850312156141e8576141e761402a565b5b60006141f685828601614119565b925050602061420785828601614119565b9150509250929050565b61421a816140f8565b82525050565b60006020820190506142356000830184614211565b92915050565b600080604083850312156142525761425161402a565b5b600061426085828601614119565b9250506020614271858286016140e3565b9150509250929050565b614284816140ba565b82525050565b6000610160820190506142a0600083018e61427b565b6142ad602083018d614211565b6142ba604083018c614211565b6142c7606083018b614211565b6142d4608083018a614211565b6142e160a0830189614211565b6142ee60c0830188614211565b6142fb60e0830187614211565b61430961010083018661417a565b61431761012083018561417a565b614325610140830184614211565b9c9b505050505050505050505050565b7f61756374696f6e00000000000000000000000000000000000000000000000000600082015250565b600061436b600783613fad565b915061437682614335565b602082019050919050565b6000602082019050818103600083015261439a8161435e565b9050919050565b7f4f6e6c792061756374696f6e20697320616c6c6f77656420746f20636c61696d60008201527f206d696e74000000000000000000000000000000000000000000000000000000602082015250565b60006143fd602583613fad565b9150614408826143a1565b604082019050919050565b6000602082019050818103600083015261442c816143f0565b9050919050565b6000604082019050614448600083018561427b565b6144556020830184614211565b9392505050565b6144658161416e565b811461447057600080fd5b50565b6000815190506144828161445c565b92915050565b60006020828403121561449e5761449d61402a565b5b60006144ac84828501614473565b91505092915050565b60006020820190506144ca600083018461427b565b92915050565b6000815190506144df81614102565b92915050565b6000602082840312156144fb576144fa61402a565b5b6000614509848285016144d0565b91505092915050565b7f6d617267696e43616c6c54696d654c696d697400000000000000000000000000600082015250565b6000614548601383613fad565b915061455382614512565b602082019050919050565b600060208201905081810360008301526145778161453b565b9050919050565b7f4e487b7100000000000000000000000000000000000000000000000000000000600052601160045260246000fd5b60006145b8826140f8565b91506145c3836140f8565b9250828210156145d6576145d561457e565b5b828203905092915050565b7f506f736974696f6e206973206e6f74206d61726b656420746f206265206f706560008201527f6e6564206f72206f776e6572207374696c6c206861732074696d650000000000602082015250565b600061463d603b83613fad565b9150614648826145e1565b604082019050919050565b6000602082019050818103600083015261466c81614630565b9050919050565b7f506f736974696f6e20697320616c7265616479206f6e206c697175696461746960008201527f6f6e000000000000000000000000000000000000000000000000000000000000602082015250565b60006146cf602283613fad565b91506146da82614673565b604082019050919050565b600060208201905081810360008301526146fe816146c2565b9050919050565b7f6364700000000000000000000000000000000000000000000000000000000000600082015250565b600061473b600383613fad565b915061474682614705565b602082019050919050565b6000602082019050818103600083015261476a8161472e565b9050919050565b6000819050919050565b600061479661479161478c8461402f565b614771565b61402f565b9050919050565b60006147a88261477b565b9050919050565b60006147ba8261479d565b9050919050565b6147ca816147af565b82525050565b60006040820190506147e560008301856147c1565b6147f260208301846147c1565b9392505050565b6000614804826140f8565b915061480f836140f8565b9250827fffffffffffffffffffffffffffffffffffffffffffffffffffffffffffffffff038211156148445761484361457e565b5b828201905092915050565b600060408201905061486460008301856147c1565b6148716020830184614211565b9392505050565b7f636f756c64206e6f7420617070726f7665207765746820666f7220736f6d652060008201527f726561736f6e0000000000000000000000000000000000000000000000000000602082015250565b60006148d4602683613fad565b91506148df82614878565b604082019050919050565b60006020820190508181036000830152614903816148c7565b9050919050565b600060408201905061491f6000830185614211565b61492c6020830184614211565b9392505050565b7f5468697320706f736974696f6e206973206f6e206c69717569646174696f6e00600082015250565b6000614969601f83613fad565b915061497482614933565b602082019050919050565b600060208201905081810360008301526149988161495c565b9050919050565b60006060820190506149b4600083018661427b565b6149c1602083018561427b565b6149ce6040830184614211565b949350505050565b7f436f756c64206e6f74207472616e7366657220636f696e7320666f7220736f6d60008201527f6520726561736f6e2e20596f75206861766520746f20616c6c6f7720636f696e60208201527f7320666972737400000000000000000000000000000000000000000000000000604082015250565b6000614a58604783613fad565b9150614a63826149d6565b606082019050919050565b60006020820190508181036000830152614a8781614a4b565b9050919050565b7f436f756c64206e6f74207472616e7366657220636f6c6c61746572616c20666f60008201527f7220736f6d6520726561736f6e00000000000000000000000000000000000000602082015250565b6000614aea602d83613fad565b9150614af582614a8e565b604082019050919050565b60006020820190508181036000830152614b1981614add565b9050919050565b7f436f756c64206e6f74206275726e20636f696e7320666f7220736f6d6520726560008201527f61736f6e00000000000000000000000000000000000000000000000000000000602082015250565b6000614b7c602483613fad565b9150614b8782614b20565b604082019050919050565b60006020820190508181036000830152614bab81614b6f565b9050919050565b7f737461626c65436f696e00000000000000000000000000000000000000000000600082015250565b6000614be8600a83613fad565b9150614bf382614bb2565b602082019050919050565b60006020820190508181036000830152614c1781614bdb565b9050919050565b7f6361727400000000000000000000000000000000000000000000000000000000600082015250565b6000614c54600483613fad565b9150614c5f82614c1e565b602082019050919050565b60006020820190508181036000830152614c8381614c47565b9050919050565b7f7765746800000000000000000000000000000000000000000000000000000000600082015250565b6000614cc0600483613fad565b9150614ccb82614c8a565b602082019050919050565b60006020820190508181036000830152614cef81614cb3565b9050919050565b7f4f6e6c79206f776e6572206d6179207570646174652074686520706f7369746960008201527f6f6e000000000000000000000000000000000000000000000000000000000000602082015250565b6000614d52602283613fad565b9150614d5d82614cf6565b604082019050919050565b60006020820190508181036000830152614d8181614d45565b9050919050565b7f596f7520646f6e74206861766520656e6f7567682077657468206c6f636b656460008201527f206f6e207468697320706f730000000000000000000000000000000000000000602082015250565b6000614de4602c83613fad565b9150614def82614d88565b604082019050919050565b60006020820190508181036000830152614e1381614dd7565b9050919050565b7f796f752077616e7420746f206b656570206e6f7420656e6f756768207765746860008201527f20746f20636f76657220656d697373696f6e20616e642063757272656e74206660208201527f6565000000000000000000000000000000000000000000000000000000000000604082015250565b6000614e9c604283613fad565b9150614ea782614e1a565b606082019050919050565b60006020820190508181036000830152614ecb81614e8f565b9050919050565b6000606082019050614ee76000830186614211565b614ef46020830185614211565b614f016040830184614211565b949350505050565b6000614f14826140f8565b9150614f1f836140f8565b9250817fffffffffffffffffffffffffffffffffffffffffffffffffffffffffffffffff0483118215151615614f5857614f5761457e565b5b828202905092915050565b7f4e487b7100000000000000000000000000000000000000000000000000000000600052601260045260246000fd5b6000614f9d826140f8565b9150614fa8836140f8565b925082614fb857614fb7614f63565b5b828204905092915050565b7f6f6e6c7920617574686f72697a65642061646472657373206d617920646f207460008201527f6869730000000000000000000000000000000000000000000000000000000000602082015250565b600061501f602383613fad565b915061502a82614fc3565b604082019050919050565b6000602082019050818103600083015261504e81615012565b9050919050565b7f7374620000000000000000000000000000000000000000000000000000000000600082015250565b600061508b600383613fad565b915061509682615055565b602082019050919050565b600060208201905081810360008301526150ba8161507e565b9050919050565b7f6574630000000000000000000000000000000000000000000000000000000000600082015250565b60006150f7600383613fad565b9150615102826150c1565b602082019050919050565b60006020820190508181036000830152615126816150ea565b9050919050565b60008160011c9050919050565b6000808291508390505b6001851115615184578086048111156151605761515f61457e565b5b600185161561516f5780820291505b808102905061517d8561512d565b9450615144565b94509492505050565b60008261519d5760019050615259565b816151ab5760009050615259565b81600181146151c157600281146151cb576151fa565b6001915050615259565b60ff8411156151dd576151dc61457e565b5b8360020a9150848211156151f4576151f361457e565b5b50615259565b5060208310610133831016604e8410600b841016171561522f5782820a90508381111561522a5761522961457e565b5b615259565b61523c848484600161513a565b925090508184048111156152535761525261457e565b5b81810290505b9392505050565b600061526b826140f8565b9150615276836140f8565b92506152a37fffffffffffffffffffffffffffffffffffffffffffffffffffffffffffffffff848461518d565b905092915050565b7f636f6c6c61746572616c446973636f756e740000000000000000000000000000600082015250565b60006152e1601283613fad565b91506152ec826152ab565b602082019050919050565b60006020820190508181036000830152615310816152d4565b9050919050565b7f796f752063616e206e6f74206d696e74206c657373207468616e203120636f6960008201527f6e00000000000000000000000000000000000000000000000000000000000000602082015250565b6000615373602183613fad565b915061537e82615317565b604082019050919050565b600060208201905081810360008301526153a281615366565b9050919050565b60006153b4826140f8565b91507fffffffffffffffffffffffffffffffffffffffffffffffffffffffffffffffff8214156153e7576153e661457e565b5b600182019050919050565b600081905092915050565b50565b600061540d6000836153f2565b9150615418826153fd565b600082019050919050565b600061542e82615400565b9150819050919050565b7f436f756c64206e6f7420706173732066756e647320746f207765746820636f6e60008201527f747261637420666f7220736f6d6520726561736f6e0000000000000000000000602082015250565b6000615494603583613fad565b915061549f82615438565b604082019050919050565b600060208201905081810360008301526154c381615487565b9050919050565b7f696e746572657374526174650000000000000000000000000000000000000000600082015250565b6000615500600c83613fad565b915061550b826154ca565b602082019050919050565b6000602082019050818103600083015261552f816154f3565b9050919050565b7f6e6f7420656e6f75676820636f6c6c61746572616c20746f206d696e7420616d60008201527f6f756e7400000000000000000000000000000000000000000000000000000000602082015250565b6000615592602483613fad565b915061559d82615536565b604082019050919050565b600060208201905081810360008301526155c181615585565b9050919050565b7f73746162696c697a6174696f6e46756e6450657263656e740000000000000000600082015250565b60006155fe601883613fad565b9150615609826155c8565b602082019050919050565b6000602082019050818103600083015261562d816155f1565b9050919050565b7f696e73756666696369656e742066756e6473206f6e2043445020636f6e74726160008201527f6374000000000000000000000000000000000000000000000000000000000000602082015250565b6000615690602283613fad565b915061569b82615634565b604082019050919050565b600060208201905081810360008301526156bf81615683565b9050919050565b7f6d696e43445042616c616e6365546f496e69744275794f757400000000000000600082015250565b60006156fc601983613fad565b9150615707826156c6565b602082019050919050565b6000602082019050818103600083015261572b816156ef565b9050919050565b7f6e6f7420656e6f75676820737572706c757320746f207374617274206275794f60008201527f7574000000000000000000000000000000000000000000000000000000000000602082015250565b600061578e602283613fad565b915061579982615732565b604082019050919050565b600060208201905081810360008301526157bd81615781565b9050919050565b7f636f756c64206e6f7420617070726f766520636f696e7320666f7220736f6d6560008201527f20726561736f6e00000000000000000000000000000000000000000000000000602082015250565b6000615820602783613fad565b915061582b826157c4565b604082019050919050565b6000602082019050818103600083015261584f81615813565b9050919050565b600060408201905061586b600083018561427b565b615878602083018461427b565b9392505050565b7f636f756c64206e6f742066696e616c697a652061756374696f6e000000000000600082015250565b60006158b5601a83613fad565b91506158c08261587f565b602082019050919050565b600060208201905081810360008301526158e4816158a8565b9050919050565b7f6c69717569646174696f6e466565000000000000000000000000000000000000600082015250565b6000615921600e83613fad565b915061592c826158eb565b602082019050919050565b6000602082019050818103600083015261595081615914565b9050919050565b7f576173206e6f742061626c6520746f207472616e73666572206665652e20496e60008201527f73756666696369656e742062616c616e6365206f7220616c6c6f77616e63652e60208201527f2054727920746f20616c6c6f77207370656e64696e6720666972737400000000604082015250565b60006159d9605c83613fad565b91506159e482615957565b606082019050919050565b60006020820190508181036000830152615a08816159cc565b9050919050565b7f5468697320706f736974696f6e206973206e6f74206d61726b6564206f72206c60008201527f6f636b65642f6c69717569646174656400000000000000000000000000000000602082015250565b6000615a6b603083613fad565b9150615a7682615a0f565b604082019050919050565b60006020820190508181036000830152615a9a81615a5e565b9050919050565b7f5468697320706f736974696f6e206973206f6e206c69717569646174696f6e2060008201527f6f7220616c7265616479206d61726b6564000000000000000000000000000000602082015250565b6000615afd603183613fad565b9150615b0882615aa1565b604082019050919050565b60006020820190508181036000830152615b2c81615af0565b905091905056fea26469706673582212203a4be453627e7d85efa4018b32182d8b54df0b967066759e45443849fb167b8264736f6c634300080a0033",
  "immutableReferences": {},
  "source": "// SPDX-License-Identifier: UNLICENSED\r\npragma solidity >=0.4.22 <0.9.0;\r\nimport \"./INTDAO.sol\";\r\nimport \"./exchangeRateContract.sol\";\r\nimport \"./Rule.sol\";\r\nimport \"./stableCoin.sol\";\r\nimport \"./Auction.sol\";\r\nimport \"./weth.sol\";\r\n\r\n    struct Position {\r\n        address owner;\r\n        uint256 coinsMinted;\r\n        uint256 wethAmountLocked;\r\n        uint256 feeGeneratedRecorded;\r\n        uint256 timeOpened;\r\n        uint256 lastTimeUpdated;\r\n        uint256 feeRate;\r\n        uint256 markedOnLiquidation;\r\n        bool onLiquidation;\r\n        bool liquidated;\r\n        uint256 liquidationAuctionID;\r\n    }\r\n\r\ncontract CDP {\r\n    uint256 public numPositions;\r\n    INTDAO dao;\r\n    exchangeRateContract oracle;\r\n    stableCoin coin;\r\n    Auction auction;\r\n    Rule rule;\r\n    ERC20 weth;\r\n\r\n    mapping(uint256 => Position) public positions;\r\n    event PositionOpened (address owner, uint256 posId);\r\n    event PositionUpdated (uint256 posID, uint256 newStableCoinsAmount, uint256 wethLocked);\r\n    event markedOnLiquidation (uint256 posID, uint256 timestamp);\r\n    event OnLiquidation (uint256 posID, uint256 timestamp);\r\n\r\n    constructor(address payable INTDAOaddress) {\r\n        dao = INTDAO(INTDAOaddress);\r\n        dao.setAddressOnce('cdp',payable(address(this)));\r\n        dao.setAddressOnce('inflationSpender',payable(address(this)));\r\n        coin = stableCoin(payable(dao.addresses('stableCoin')));\r\n        oracle = exchangeRateContract(dao.addresses('cart'));\r\n        auction = Auction(dao.addresses('auction'));\r\n        rule = Rule(dao.addresses('rule'));\r\n        weth = ERC20(dao.addresses('weth'));\r\n    }\r\n\r\n    function renewContracts() public {\r\n        coin = stableCoin(payable(dao.addresses('stableCoin')));\r\n        oracle = exchangeRateContract(dao.addresses('cart'));\r\n        auction = Auction(dao.addresses('auction'));\r\n        weth = ERC20(dao.addresses('weth'));\r\n    }\r\n\r\n    function openCDP (uint StableCoinsToMint) external payable returns (uint256 posID){\r\n        uint256 coinsToMint = getMaxStableCoinsToMint(msg.value);\r\n\r\n        if (StableCoinsToMint <= coinsToMint)\r\n            coinsToMint = StableCoinsToMint;\r\n\r\n        require (coinsToMint>1*10**coin.decimals(), \"you can not mint less than 1 coin\");\r\n\r\n        posID = numPositions++;\r\n        Position storage p = positions[posID];\r\n\r\n        p.coinsMinted = coinsToMint;\r\n        p.wethAmountLocked = msg.value;\r\n        (bool successTransfer, ) = dao.addresses('weth').call{value: msg.value}(\"\");\r\n        require(successTransfer, 'Could not pass funds to weth contract for some reason');\r\n        p.owner = msg.sender;\r\n        p.timeOpened = block.timestamp;\r\n        p.lastTimeUpdated = block.timestamp;\r\n        p.feeGeneratedRecorded = 0;\r\n        p.feeRate = dao.params('interestRate');\r\n        p.onLiquidation = false;\r\n\r\n        coin.mint(msg.sender, coinsToMint);\r\n\r\n        emit PositionOpened(p.owner, posID);\r\n\r\n        return posID;\r\n    }\r\n\r\n    function generatedFeeUnrecorded(uint256 posID) public view returns (uint256 fee) {\r\n        Position storage p = positions[posID];\r\n        return p.coinsMinted * (block.timestamp - p.lastTimeUpdated) * p.feeRate / 31536000 / 100;\r\n    }\r\n\r\n    function totalCurrentFee(uint256 posID) public view returns (uint256 fee){\r\n        Position storage p = positions[posID];\r\n        return p.feeGeneratedRecorded + generatedFeeUnrecorded(posID);\r\n    }\r\n\r\n    function getMaxStableCoinsToMint(uint256 ethValue) public view returns (uint256 amount) {\r\n        uint256 price = oracle.getPrice('stb');\r\n        uint256 decimals = oracle.getDecimals('etc');\r\n        return ethValue * price * (100 - dao.params('collateralDiscount'))/(10**decimals)/100;\r\n    }\r\n\r\n    function getMaxStableCoinsToMintForPos(uint256 posID) public view returns (uint256 maxAmount){\r\n        Position storage p = positions[posID];\r\n        return getMaxStableCoinsToMint(p.wethAmountLocked) - totalCurrentFee(posID);\r\n    }\r\n\r\n    function claimInterest(uint256 amount, address beneficiary) public{\r\n        require(dao.authorized(msg.sender), \"only authorized address may do this\");\r\n        if (coin.balanceOf(address(this))>amount)\r\n            coin.transfer(beneficiary, amount);\r\n        else {\r\n            uint256 difference = amount - coin.balanceOf(address(this));\r\n            coin.transfer(beneficiary, coin.balanceOf(address(this)));\r\n            coin.approve(beneficiary, difference+coin.allowance(address(this), beneficiary));\r\n        }\r\n    }\r\n\r\n    function claimEmission(uint256 amount, address beneficiary) public{\r\n        require(dao.authorized(msg.sender), \"only authorized address may do this\");\r\n        coin.mint(beneficiary,amount);\r\n    }\r\n\r\n    function closeCDP(uint posID) public{\r\n        Position storage p = positions[posID];\r\n        require(!p.onLiquidation, \"This position is on liquidation\");\r\n        uint256 overallDebt = totalCurrentFee(posID)+p.coinsMinted;\r\n        require(coin.transferFrom(p.owner, address(this), overallDebt), \"Could not transfer coins for some reason. You have to allow coins first\");\r\n        require (weth.transfer(p.owner, p.wethAmountLocked), \"Could not transfer collateral for some reason\");\r\n        p.wethAmountLocked = 0;\r\n        require (coin.burn(address(this), p.coinsMinted), \"Could not burn coins for some reason\");\r\n        p.coinsMinted = 0;\r\n        p.lastTimeUpdated = block.timestamp;\r\n        p.liquidated = true;\r\n    }\r\n\r\n    function transferFee(uint posID) public returns (bool success){\r\n        Position storage p = positions[posID];\r\n        require(!p.onLiquidation, \"This position is on liquidation\");\r\n        uint256 fee = p.feeGeneratedRecorded + generatedFeeUnrecorded(posID);\r\n        require(coin.transferFrom(p.owner, address(this), fee), 'Was not able to transfer fee. Insufficient balance or allowance. Try to allow spending first');\r\n        p.feeGeneratedRecorded = 0;\r\n        p.lastTimeUpdated = block.timestamp;\r\n        return true;\r\n    }\r\n\r\n    function allowSurplusToAuction() public returns (bool success) {\r\n        uint256 stabilizationFundAmount = dao.params('stabilizationFundPercent')*coin.totalSupply()/100;\r\n        require (coin.balanceOf(address(this)) >= stabilizationFundAmount, \"insufficient funds on CDP contract\");\r\n        uint256 surplus = coin.balanceOf(address(this)) - stabilizationFundAmount;\r\n        require (surplus >= dao.params('minCDPBalanceToInitBuyOut'), \"not enough surplus to start buyOut\");\r\n        require (coin.approve(dao.addresses('auction'), surplus), \"could not approve coins for some reason\");\r\n        return true;\r\n    }\r\n\r\n    function claimMarginCall(uint posID) public returns (bool success) {\r\n        Position storage p = positions[posID];\r\n        require (p.markedOnLiquidation>0 && block.timestamp - p.markedOnLiquidation > dao.params('marginCallTimeLimit'), \"Position is not marked to be opened or owner still has time\");\r\n        require(!p.onLiquidation, \"Position is already on liquidation\");\r\n        uint256 maxCoinsForPos = getMaxStableCoinsToMint(p.wethAmountLocked) - totalCurrentFee(posID);\r\n        if (maxCoinsForPos < p.coinsMinted) {\r\n            p.onLiquidation = true;\r\n            uint256 currentAllowance = weth.allowance(dao.addresses('cdp'), dao.addresses('auction'));\r\n            require(weth.approve(dao.addresses('auction'), currentAllowance+p.wethAmountLocked), \"could not approve weth for some reason\");\r\n            emit OnLiquidation (posID, block.timestamp);\r\n            return true;\r\n        }\r\n        else {\r\n            p.markedOnLiquidation = 0;\r\n            return false;\r\n        }\r\n    }\r\n\r\n    function startCoinsBuyOut(uint256 posID) public{\r\n        Position storage p = positions[posID];\r\n        p.liquidationAuctionID = auction.initCoinsBuyOut(posID);\r\n    }\r\n\r\n    function finishMarginCall(uint256 posID) public {\r\n        Position storage p = positions[posID];\r\n        require(auction.claimToFinalizeAuction(p.liquidationAuctionID), \"could not finalize auction\");\r\n        uint256 bidAmount = auction.getBestBidAmount(p.liquidationAuctionID);\r\n\r\n        if (bidAmount>p.coinsMinted + p.coinsMinted * dao.params('liquidationFee') / 100){\r\n            uint256 difference = bidAmount - p.coinsMinted - p.coinsMinted * dao.params('liquidationFee') / 100;\r\n            coin.transfer(p.owner, difference);\r\n            coin.burn(address(this), p.coinsMinted);\r\n        }\r\n\r\n        if (bidAmount<=p.coinsMinted){\r\n            if (coin.balanceOf(address(this)) >= p.coinsMinted)\r\n                coin.burn(address(this), p.coinsMinted);\r\n            else {\r\n                uint256 difference = p.coinsMinted - coin.balanceOf(address(this));\r\n                auction.initCoinsBuyOutForStabilization(difference);\r\n            }\r\n        }\r\n    }\r\n\r\n    function markToLiquidate(uint posID) public returns (bool success){\r\n        Position storage p = positions[posID];\r\n        require (p.markedOnLiquidation==0 && !p.onLiquidation, \"This position is on liquidation or already marked\");\r\n        uint256 maxCoinsForPos = getMaxStableCoinsToMint(p.wethAmountLocked) - totalCurrentFee(posID);\r\n        if (maxCoinsForPos < p.coinsMinted) {\r\n            p.markedOnLiquidation = block.timestamp;\r\n            emit markedOnLiquidation (posID, block.timestamp);\r\n            return true;\r\n        }\r\n        return false;\r\n    }\r\n\r\n    function eraseMarkToLiquidate(uint posID) public{\r\n        Position storage p = positions[posID];\r\n        require (p.markedOnLiquidation>0 && !p.onLiquidation && !p.liquidated, \"This position is not marked or locked/liquidated\");\r\n        uint256 maxCoinsForPos = getMaxStableCoinsToMint(p.wethAmountLocked) - totalCurrentFee(posID);\r\n        if (maxCoinsForPos > p.coinsMinted) {\r\n            p.markedOnLiquidation = 0;\r\n        }\r\n    }\r\n\r\n    function updateCDP(uint posID, uint newStableCoinsAmount) public payable returns (bool success){\r\n        Position storage p = positions[posID];\r\n        require(!p.onLiquidation, \"This position is on liquidation\");\r\n        require(p.owner == msg.sender, 'Only owner may update the position');\r\n        uint256 maxCoinsToMint;\r\n\r\n        p.feeGeneratedRecorded += generatedFeeUnrecorded(posID);\r\n        p.lastTimeUpdated = block.timestamp;\r\n\r\n        if (msg.value>0) {\r\n            p.wethAmountLocked += msg.value;\r\n            (bool successTransfer, ) = dao.addresses('weth').call{value: msg.value}(\"\");\r\n            require(successTransfer, 'Could not pass funds to weth contract for some reason');\r\n        }\r\n\r\n        maxCoinsToMint = getMaxStableCoinsToMint(p.wethAmountLocked) - totalCurrentFee(posID);\r\n        require(maxCoinsToMint>0 && maxCoinsToMint >= newStableCoinsAmount, 'not enough collateral to mint amount');\r\n\r\n        if (newStableCoinsAmount > p.coinsMinted) {\r\n            uint256 difference = newStableCoinsAmount - p.coinsMinted;\r\n            coin.mint(p.owner, difference);\r\n            p.coinsMinted = newStableCoinsAmount;\r\n            emit PositionUpdated(posID, newStableCoinsAmount, p.wethAmountLocked);\r\n            return true;\r\n        }\r\n\r\n        if (newStableCoinsAmount < p.coinsMinted) {\r\n            uint256 difference = p.coinsMinted - newStableCoinsAmount;\r\n            require(coin.balanceOf(p.owner)>=difference);\r\n            coin.burn(p.owner, difference);\r\n            p.coinsMinted = newStableCoinsAmount;\r\n            emit PositionUpdated(posID, newStableCoinsAmount, p.wethAmountLocked);\r\n            return true;\r\n        }\r\n    }\r\n\r\n    function withdrawEther (uint256 posID, uint256 etherToWithdraw) public{\r\n        Position storage p = positions[posID];\r\n        require(!p.onLiquidation, \"This position is on liquidation\");\r\n        require(p.owner == msg.sender, 'Only owner may update the position');\r\n        require (etherToWithdraw<p.wethAmountLocked, \"You dont have enough weth locked on this pos\");\r\n        uint256 wethToLeave = p.wethAmountLocked - etherToWithdraw;\r\n        uint256 maxCoins = getMaxStableCoinsToMint(wethToLeave) - totalCurrentFee(posID);\r\n        require (maxCoins>p.coinsMinted, \"you want to keep not enough weth to cover emission and current fee\");\r\n        p.wethAmountLocked -= etherToWithdraw;\r\n        weth.transfer(msg.sender, etherToWithdraw);\r\n        emit PositionUpdated (posID, p.coinsMinted, p.wethAmountLocked);\r\n    }\r\n\r\n    function wethLocked(uint256 posID) public view returns (uint256 amount) {\r\n        Position storage p = positions[posID];\r\n        return p.wethAmountLocked;\r\n    }\r\n\r\n    function isOnLiquidation(uint256 posID) public view returns (bool result){\r\n        Position storage p = positions[posID];\r\n        return p.onLiquidation;\r\n    }\r\n\r\n    function burnRule() public{\r\n        rule.burn(address(this), rule.balanceOf(address(this)));\r\n    }\r\n\r\n    function mintRule(address to, uint256 amount) public returns (bool success){\r\n        require (msg.sender == dao.addresses('auction'), \"Only auction is allowed to claim mint\");\r\n        rule.mint(to, amount);\r\n        return true;\r\n    }\r\n\r\n    receive() external payable {\r\n        dao.addresses('oracle').transfer(address(this).balance);\r\n    }\r\n}\r\n",
  "sourcePath": "B:\\YandexDisk\\\\ICO\\CryptoFiat\\repo\\contracts\\CDP.sol",
  "compiler": {
    "name": "solc",
    "version": "0.8.10+commit.fc410830.Emscripten.clang"
  },
  "schemaVersion": "3.4.5",
  "updatedAt": "2023-06-26T11:35:20.508Z",
  "networkType": "ethereum",
  "devdoc": {
    "kind": "dev",
    "methods": {},
    "version": 1
  },
  "userdoc": {
    "kind": "user",
    "methods": {},
    "version": 1
  }
}