{
  "contractName": "CDP",
  "abi": [
    {
      "inputs": [
        {
          "internalType": "address",
          "name": "_INTDAOaddress",
          "type": "address"
        }
      ],
      "stateMutability": "nonpayable",
      "type": "constructor"
    },
    {
      "anonymous": false,
      "inputs": [
        {
          "indexed": false,
          "internalType": "address",
          "name": "owner",
          "type": "address"
        },
        {
          "indexed": false,
          "internalType": "uint256",
          "name": "posId",
          "type": "uint256"
        }
      ],
      "name": "PositionOpened",
      "type": "event"
    },
    {
      "anonymous": false,
      "inputs": [
        {
          "indexed": false,
          "internalType": "uint256",
          "name": "posID",
          "type": "uint256"
        },
        {
          "indexed": false,
          "internalType": "uint256",
          "name": "newStableCoinsAmount",
          "type": "uint256"
        }
      ],
      "name": "PositionUpdated",
      "type": "event"
    },
    {
      "inputs": [],
      "name": "numPositions",
      "outputs": [
        {
          "internalType": "uint256",
          "name": "",
          "type": "uint256"
        }
      ],
      "stateMutability": "view",
      "type": "function",
      "constant": true
    },
    {
      "inputs": [
        {
          "internalType": "uint256",
          "name": "",
          "type": "uint256"
        }
      ],
      "name": "positions",
      "outputs": [
        {
          "internalType": "bool",
          "name": "onLiquidation",
          "type": "bool"
        },
        {
          "internalType": "bool",
          "name": "liquidated",
          "type": "bool"
        },
        {
          "internalType": "address",
          "name": "owner",
          "type": "address"
        },
        {
          "internalType": "uint256",
          "name": "stableCoins_minted",
          "type": "uint256"
        },
        {
          "internalType": "uint256",
          "name": "ethAmountLocked",
          "type": "uint256"
        },
        {
          "internalType": "uint256",
          "name": "feeGenerated",
          "type": "uint256"
        },
        {
          "internalType": "uint256",
          "name": "timeOpened",
          "type": "uint256"
        },
        {
          "internalType": "uint256",
          "name": "lastTimeUpdated",
          "type": "uint256"
        },
        {
          "internalType": "uint256",
          "name": "feeRate",
          "type": "uint256"
        }
      ],
      "stateMutability": "view",
      "type": "function",
      "constant": true
    },
    {
      "inputs": [
        {
          "internalType": "uint256",
          "name": "StableCoinsToMint",
          "type": "uint256"
        }
      ],
      "name": "openCDP",
      "outputs": [
        {
          "internalType": "uint256",
          "name": "posId",
          "type": "uint256"
        }
      ],
      "stateMutability": "payable",
      "type": "function",
      "payable": true
    },
    {
      "inputs": [
        {
          "internalType": "uint256",
          "name": "posId",
          "type": "uint256"
        }
      ],
      "name": "generatedFee",
      "outputs": [
        {
          "internalType": "uint256",
          "name": "fee",
          "type": "uint256"
        }
      ],
      "stateMutability": "view",
      "type": "function",
      "constant": true
    },
    {
      "inputs": [
        {
          "internalType": "uint256",
          "name": "ethValue",
          "type": "uint256"
        }
      ],
      "name": "getMaxStableCoinsToMint",
      "outputs": [
        {
          "internalType": "uint256",
          "name": "amount",
          "type": "uint256"
        }
      ],
      "stateMutability": "view",
      "type": "function",
      "constant": true
    },
    {
      "inputs": [
        {
          "internalType": "uint256",
          "name": "posID",
          "type": "uint256"
        }
      ],
      "name": "getMaxStableCoinsToMintForPos",
      "outputs": [
        {
          "internalType": "uint256",
          "name": "maxAmount",
          "type": "uint256"
        }
      ],
      "stateMutability": "view",
      "type": "function",
      "constant": true
    },
    {
      "inputs": [
        {
          "internalType": "uint256",
          "name": "posID",
          "type": "uint256"
        }
      ],
      "name": "closeCDP",
      "outputs": [
        {
          "internalType": "bool",
          "name": "success",
          "type": "bool"
        }
      ],
      "stateMutability": "nonpayable",
      "type": "function"
    },
    {
      "inputs": [
        {
          "internalType": "uint256",
          "name": "posID",
          "type": "uint256"
        }
      ],
      "name": "transferFee",
      "outputs": [
        {
          "internalType": "bool",
          "name": "success",
          "type": "bool"
        }
      ],
      "stateMutability": "nonpayable",
      "type": "function"
    },
    {
      "inputs": [
        {
          "internalType": "uint256",
          "name": "posID",
          "type": "uint256"
        }
      ],
      "name": "claim_margin_call",
      "outputs": [
        {
          "internalType": "bool",
          "name": "success",
          "type": "bool"
        }
      ],
      "stateMutability": "nonpayable",
      "type": "function"
    },
    {
      "inputs": [
        {
          "internalType": "uint256",
          "name": "posID",
          "type": "uint256"
        },
        {
          "internalType": "uint256",
          "name": "newStableCoinsAmount",
          "type": "uint256"
        }
      ],
      "name": "updateCDP",
      "outputs": [
        {
          "internalType": "bool",
          "name": "success",
          "type": "bool"
        }
      ],
      "stateMutability": "payable",
      "type": "function",
      "payable": true
    },
    {
      "inputs": [
        {
          "internalType": "uint256",
          "name": "posID",
          "type": "uint256"
        },
        {
          "internalType": "uint256",
          "name": "etherToWithdraw",
          "type": "uint256"
        }
      ],
      "name": "withdrawEther",
      "outputs": [],
      "stateMutability": "nonpayable",
      "type": "function"
    },
    {
      "inputs": [],
      "name": "recieveInterestAfterAuction",
      "outputs": [],
      "stateMutability": "nonpayable",
      "type": "function"
    }
  ],
  "bytecode": "0x60806040526000600160006101000a81548173ffffffffffffffffffffffffffffffffffffffff021916908373ffffffffffffffffffffffffffffffffffffffff1602179055503480156200005357600080fd5b50604051620027f3380380620027f38339818101604052810190620000799190620004bc565b80600160006101000a81548173ffffffffffffffffffffffffffffffffffffffff021916908373ffffffffffffffffffffffffffffffffffffffff160217905550600160009054906101000a900473ffffffffffffffffffffffffffffffffffffffff16600260006101000a81548173ffffffffffffffffffffffffffffffffffffffff021916908373ffffffffffffffffffffffffffffffffffffffff160217905550600260009054906101000a900473ffffffffffffffffffffffffffffffffffffffff1673ffffffffffffffffffffffffffffffffffffffff16632abdf04e306040518263ffffffff1660e01b81526004016200017a919062000560565b600060405180830381600087803b1580156200019557600080fd5b505af1158015620001aa573d6000803e3d6000fd5b50505050600260009054906101000a900473ffffffffffffffffffffffffffffffffffffffff1673ffffffffffffffffffffffffffffffffffffffff1663bdfe7d476040518163ffffffff1660e01b81526004016200020990620005e2565b602060405180830381865afa15801562000227573d6000803e3d6000fd5b505050506040513d601f19601f820116820180604052508101906200024d9190620004bc565b600360006101000a81548173ffffffffffffffffffffffffffffffffffffffff021916908373ffffffffffffffffffffffffffffffffffffffff160217905550600260009054906101000a900473ffffffffffffffffffffffffffffffffffffffff1673ffffffffffffffffffffffffffffffffffffffff1663bdfe7d476040518163ffffffff1660e01b8152600401620002e89062000654565b602060405180830381865afa15801562000306573d6000803e3d6000fd5b505050506040513d601f19601f820116820180604052508101906200032c9190620004bc565b600460006101000a81548173ffffffffffffffffffffffffffffffffffffffff021916908373ffffffffffffffffffffffffffffffffffffffff160217905550600260009054906101000a900473ffffffffffffffffffffffffffffffffffffffff1673ffffffffffffffffffffffffffffffffffffffff1663bdfe7d476040518163ffffffff1660e01b8152600401620003c790620006c6565b602060405180830381865afa158015620003e5573d6000803e3d6000fd5b505050506040513d601f19601f820116820180604052508101906200040b9190620004bc565b600560006101000a81548173ffffffffffffffffffffffffffffffffffffffff021916908373ffffffffffffffffffffffffffffffffffffffff16021790555050620006e8565b600080fd5b600073ffffffffffffffffffffffffffffffffffffffff82169050919050565b6000620004848262000457565b9050919050565b620004968162000477565b8114620004a257600080fd5b50565b600081519050620004b6816200048b565b92915050565b600060208284031215620004d557620004d462000452565b5b6000620004e584828501620004a5565b91505092915050565b600082825260208201905092915050565b7f6364700000000000000000000000000000000000000000000000000000000000600082015250565b600062000537600383620004ee565b91506200054482620004ff565b602082019050919050565b6200055a8162000477565b82525050565b600060408201905081810360008301526200057b8162000528565b90506200058c60208301846200054f565b92915050565b7f6f7261636c650000000000000000000000000000000000000000000000000000600082015250565b6000620005ca600683620004ee565b9150620005d78262000592565b602082019050919050565b60006020820190508181036000830152620005fd81620005bb565b9050919050565b7f737461626c65436f696e00000000000000000000000000000000000000000000600082015250565b60006200063c600a83620004ee565b9150620006498262000604565b602082019050919050565b600060208201905081810360008301526200066f816200062d565b9050919050565b7f61756374696f6e00000000000000000000000000000000000000000000000000600082015250565b6000620006ae600783620004ee565b9150620006bb8262000676565b602082019050919050565b60006020820190508181036000830152620006e1816200069f565b9050919050565b6120fb80620006f86000396000f3fe6080604052600436106100a75760003560e01c80636e279661116100645780636e279661146101c157806391078b48146101f157806399fbab881461022e578063b2cfdc3614610273578063cacda7f3146102b0578063d4203561146102ed576100a7565b806319b1718d146100ac5780631e4b5ede146100c35780632650a47c146101005780635e71823b146101295780636530218d146101545780636bb224c314610191575b600080fd5b3480156100b857600080fd5b506100c161032a565b005b3480156100cf57600080fd5b506100ea60048036038101906100e5919061172c565b61032c565b6040516100f79190611774565b60405180910390f35b34801561010c57600080fd5b506101276004803603810190610122919061178f565b610333565b005b34801561013557600080fd5b5061013e610337565b60405161014b91906117de565b60405180910390f35b34801561016057600080fd5b5061017b6004803603810190610176919061172c565b61033d565b60405161018891906117de565b60405180910390f35b6101ab60048036038101906101a6919061172c565b6104a3565b6040516101b891906117de565b60405180910390f35b6101db60048036038101906101d6919061178f565b610704565b6040516101e89190611774565b60405180910390f35b3480156101fd57600080fd5b506102186004803603810190610213919061172c565b610b85565b60405161022591906117de565b60405180910390f35b34801561023a57600080fd5b506102556004803603810190610250919061172c565b610d16565b60405161026a9998979695949392919061183a565b60405180910390f35b34801561027f57600080fd5b5061029a6004803603810190610295919061172c565b610d9e565b6040516102a79190611774565b60405180910390f35b3480156102bc57600080fd5b506102d760048036038101906102d2919061172c565b610da5565b6040516102e491906117de565b60405180910390f35b3480156102f957600080fd5b50610314600480360381019061030f919061172c565b610e0e565b6040516103219190611774565b60405180910390f35b565b6000919050565b5050565b60005481565b600080600360009054906101000a900473ffffffffffffffffffffffffffffffffffffffff1673ffffffffffffffffffffffffffffffffffffffff1663aa309fef6040518163ffffffff1660e01b8152600401602060405180830381865afa1580156103ad573d6000803e3d6000fd5b505050506040513d601f19601f820116820180604052508101906103d191906118dc565b90506064600260009054906101000a900473ffffffffffffffffffffffffffffffffffffffff1673ffffffffffffffffffffffffffffffffffffffff1663145f822b6040518163ffffffff1660e01b815260040161042e90611966565b602060405180830381865afa15801561044b573d6000803e3d6000fd5b505050506040513d601f19601f8201168201806040525081019061046f91906118dc565b606461047b91906119b5565b828561048791906119e9565b61049191906119e9565b61049b9190611a72565b915050919050565b60008060008154809291906104b790611aa3565b919050559050600060066000838152602001908152602001600020905060006104df3461033d565b90508084116104ec578390505b808260010181905550348260020181905550338260000160026101000a81548173ffffffffffffffffffffffffffffffffffffffff021916908373ffffffffffffffffffffffffffffffffffffffff16021790555042826004018190555042826005018190555060008260030181905550600260009054906101000a900473ffffffffffffffffffffffffffffffffffffffff1673ffffffffffffffffffffffffffffffffffffffff1663145f822b6040518163ffffffff1660e01b81526004016105b690611b38565b602060405180830381865afa1580156105d3573d6000803e3d6000fd5b505050506040513d601f19601f820116820180604052508101906105f791906118dc565b8260060181905550600460009054906101000a900473ffffffffffffffffffffffffffffffffffffffff1673ffffffffffffffffffffffffffffffffffffffff166340c10f1933836040518363ffffffff1660e01b815260040161065c929190611b58565b6020604051808303816000875af115801561067b573d6000803e3d6000fd5b505050506040513d601f19601f8201168201806040525081019061069f9190611bad565b507f7033b91d43234ea7f0b72ec01052e5285ce842c91dcf6ab963fa44a5487417208260000160029054906101000a900473ffffffffffffffffffffffffffffffffffffffff16846040516106f5929190611b58565b60405180910390a15050919050565b6000806006600085815260200190815260200160002090503373ffffffffffffffffffffffffffffffffffffffff168160000160029054906101000a900473ffffffffffffffffffffffffffffffffffffffff1673ffffffffffffffffffffffffffffffffffffffff16146107ae576040517f08c379a00000000000000000000000000000000000000000000000000000000081526004016107a590611c4c565b60405180910390fd5b60006107b985610da5565b826003018190555042826005018190555060003411156107ef57348260020160008282546107e79190611c6c565b925050819055505b8160030154610801836002015461033d565b61080b91906119b5565b905060008111801561081d5750838110155b61085c576040517f08c379a000000000000000000000000000000000000000000000000000000000815260040161085390611d34565b60405180910390fd5b816001015484111561098657600082600101548561087a91906119b5565b9050600460009054906101000a900473ffffffffffffffffffffffffffffffffffffffff1673ffffffffffffffffffffffffffffffffffffffff166340c10f198460000160029054906101000a900473ffffffffffffffffffffffffffffffffffffffff16836040518363ffffffff1660e01b81526004016108fd929190611b58565b6020604051808303816000875af115801561091c573d6000803e3d6000fd5b505050506040513d601f19601f820116820180604052508101906109409190611bad565b507f396804cc530be039a91bbe137a3dc0b0435d63b2d287fe495c78d822fb538d458686604051610972929190611d54565b60405180910390a160019350505050610b7f565b8160010154841015610b7c5760008483600101546109a491906119b5565b905080600460009054906101000a900473ffffffffffffffffffffffffffffffffffffffff1673ffffffffffffffffffffffffffffffffffffffff166370a082318560000160029054906101000a900473ffffffffffffffffffffffffffffffffffffffff166040518263ffffffff1660e01b8152600401610a269190611d7d565b602060405180830381865afa158015610a43573d6000803e3d6000fd5b505050506040513d601f19601f82011682018060405250810190610a6791906118dc565b1015610a7257600080fd5b600460009054906101000a900473ffffffffffffffffffffffffffffffffffffffff1673ffffffffffffffffffffffffffffffffffffffff16639dc29fac8460000160029054906101000a900473ffffffffffffffffffffffffffffffffffffffff16836040518363ffffffff1660e01b8152600401610af3929190611b58565b6020604051808303816000875af1158015610b12573d6000803e3d6000fd5b505050506040513d601f19601f82011682018060405250810190610b369190611bad565b507f396804cc530be039a91bbe137a3dc0b0435d63b2d287fe495c78d822fb538d458686604051610b68929190611d54565b60405180910390a160019350505050610b7f565b50505b92915050565b6000806006600084815260200190815260200160002090506000600360009054906101000a900473ffffffffffffffffffffffffffffffffffffffff1673ffffffffffffffffffffffffffffffffffffffff1663aa309fef6040518163ffffffff1660e01b8152600401602060405180830381865afa158015610c0c573d6000803e3d6000fd5b505050506040513d601f19601f82011682018060405250810190610c3091906118dc565b905081600301546064600260009054906101000a900473ffffffffffffffffffffffffffffffffffffffff1673ffffffffffffffffffffffffffffffffffffffff1663145f822b6040518163ffffffff1660e01b8152600401610c9290611966565b602060405180830381865afa158015610caf573d6000803e3d6000fd5b505050506040513d601f19601f82011682018060405250810190610cd391906118dc565b6064610cdf91906119b5565b838560020154610cef91906119e9565b610cf991906119e9565b610d039190611a72565b610d0d91906119b5565b92505050919050565b60066020528060005260406000206000915090508060000160009054906101000a900460ff16908060000160019054906101000a900460ff16908060000160029054906101000a900473ffffffffffffffffffffffffffffffffffffffff16908060010154908060020154908060030154908060040154908060050154908060060154905089565b6000919050565b60008060066000848152602001908152602001600020905060646301e133808260060154836005015442610dd991906119b5565b8460010154610de891906119e9565b610df291906119e9565b610dfc9190611a72565b610e069190611a72565b915050919050565b600080600660008481526020019081526020016000209050600081600301549050670de0b6b3a76400008111610e79576040517f08c379a0000000000000000000000000000000000000000000000000000000008152600401610e7090611de4565b60405180910390fd5b80600460009054906101000a900473ffffffffffffffffffffffffffffffffffffffff1673ffffffffffffffffffffffffffffffffffffffff166370a082318460000160029054906101000a900473ffffffffffffffffffffffffffffffffffffffff166040518263ffffffff1660e01b8152600401610ef99190611d7d565b602060405180830381865afa158015610f16573d6000803e3d6000fd5b505050506040513d601f19601f82011682018060405250810190610f3a91906118dc565b1015610f7b576040517f08c379a0000000000000000000000000000000000000000000000000000000008152600401610f7290611e76565b60405180910390fd5b600460009054906101000a900473ffffffffffffffffffffffffffffffffffffffff1673ffffffffffffffffffffffffffffffffffffffff16639dc29fac8360000160029054906101000a900473ffffffffffffffffffffffffffffffffffffffff16836040518363ffffffff1660e01b8152600401610ffc929190611b58565b6020604051808303816000875af115801561101b573d6000803e3d6000fd5b505050506040513d601f19601f8201168201806040525081019061103f9190611bad565b80156110e75750600460009054906101000a900473ffffffffffffffffffffffffffffffffffffffff1673ffffffffffffffffffffffffffffffffffffffff166340c10f1930836040518363ffffffff1660e01b81526004016110a3929190611b58565b6020604051808303816000875af11580156110c2573d6000803e3d6000fd5b505050506040513d601f19601f820116820180604052508101906110e69190611bad565b5b611126576040517f08c379a000000000000000000000000000000000000000000000000000000000815260040161111d90611ee2565b60405180910390fd5b600460009054906101000a900473ffffffffffffffffffffffffffffffffffffffff1673ffffffffffffffffffffffffffffffffffffffff166318160ddd6040518163ffffffff1660e01b8152600401602060405180830381865afa158015611193573d6000803e3d6000fd5b505050506040513d601f19601f820116820180604052508101906111b791906118dc565b600260009054906101000a900473ffffffffffffffffffffffffffffffffffffffff1673ffffffffffffffffffffffffffffffffffffffff1663145f822b6040518163ffffffff1660e01b815260040161121090611f4e565b602060405180830381865afa15801561122d573d6000803e3d6000fd5b505050506040513d601f19601f8201168201806040525081019061125191906118dc565b61125b91906119e9565b600460009054906101000a900473ffffffffffffffffffffffffffffffffffffffff1673ffffffffffffffffffffffffffffffffffffffff166370a08231306040518263ffffffff1660e01b81526004016112b69190611d7d565b602060405180830381865afa1580156112d3573d6000803e3d6000fd5b505050506040513d601f19601f820116820180604052508101906112f791906118dc565b11156116ea576000600460009054906101000a900473ffffffffffffffffffffffffffffffffffffffff1673ffffffffffffffffffffffffffffffffffffffff166318160ddd6040518163ffffffff1660e01b8152600401602060405180830381865afa15801561136c573d6000803e3d6000fd5b505050506040513d601f19601f8201168201806040525081019061139091906118dc565b600260009054906101000a900473ffffffffffffffffffffffffffffffffffffffff1673ffffffffffffffffffffffffffffffffffffffff1663145f822b6040518163ffffffff1660e01b81526004016113e990611f4e565b602060405180830381865afa158015611406573d6000803e3d6000fd5b505050506040513d601f19601f8201168201806040525081019061142a91906118dc565b61143491906119e9565b600460009054906101000a900473ffffffffffffffffffffffffffffffffffffffff1673ffffffffffffffffffffffffffffffffffffffff166370a08231306040518263ffffffff1660e01b815260040161148f9190611d7d565b602060405180830381865afa1580156114ac573d6000803e3d6000fd5b505050506040513d601f19601f820116820180604052508101906114d091906118dc565b6114da91906119b5565b9050600460009054906101000a900473ffffffffffffffffffffffffffffffffffffffff1673ffffffffffffffffffffffffffffffffffffffff1663a9059cbb600260009054906101000a900473ffffffffffffffffffffffffffffffffffffffff1673ffffffffffffffffffffffffffffffffffffffff1663bdfe7d476040518163ffffffff1660e01b815260040161157390611fba565b602060405180830381865afa158015611590573d6000803e3d6000fd5b505050506040513d601f19601f820116820180604052508101906115b49190612006565b836040518363ffffffff1660e01b81526004016115d2929190611b58565b6020604051808303816000875af11580156115f1573d6000803e3d6000fd5b505050506040513d601f19601f820116820180604052508101906116159190611bad565b50600560009054906101000a900473ffffffffffffffffffffffffffffffffffffffff1673ffffffffffffffffffffffffffffffffffffffff166383b1e1f26040518163ffffffff1660e01b81526004016020604051808303816000875af1158015611685573d6000803e3d6000fd5b505050506040513d601f19601f820116820180604052508101906116a99190611bad565b6116e8576040517f08c379a00000000000000000000000000000000000000000000000000000000081526004016116df906120a5565b60405180910390fd5b505b5050919050565b600080fd5b6000819050919050565b611709816116f6565b811461171457600080fd5b50565b60008135905061172681611700565b92915050565b600060208284031215611742576117416116f1565b5b600061175084828501611717565b91505092915050565b60008115159050919050565b61176e81611759565b82525050565b60006020820190506117896000830184611765565b92915050565b600080604083850312156117a6576117a56116f1565b5b60006117b485828601611717565b92505060206117c585828601611717565b9150509250929050565b6117d8816116f6565b82525050565b60006020820190506117f360008301846117cf565b92915050565b600073ffffffffffffffffffffffffffffffffffffffff82169050919050565b6000611824826117f9565b9050919050565b61183481611819565b82525050565b600061012082019050611850600083018c611765565b61185d602083018b611765565b61186a604083018a61182b565b61187760608301896117cf565b61188460808301886117cf565b61189160a08301876117cf565b61189e60c08301866117cf565b6118ab60e08301856117cf565b6118b96101008301846117cf565b9a9950505050505050505050565b6000815190506118d681611700565b92915050565b6000602082840312156118f2576118f16116f1565b5b6000611900848285016118c7565b91505092915050565b600082825260208201905092915050565b7f636f6c6c61746572616c446973636f756e740000000000000000000000000000600082015250565b6000611950601283611909565b915061195b8261191a565b602082019050919050565b6000602082019050818103600083015261197f81611943565b9050919050565b7f4e487b7100000000000000000000000000000000000000000000000000000000600052601160045260246000fd5b60006119c0826116f6565b91506119cb836116f6565b9250828210156119de576119dd611986565b5b828203905092915050565b60006119f4826116f6565b91506119ff836116f6565b9250817fffffffffffffffffffffffffffffffffffffffffffffffffffffffffffffffff0483118215151615611a3857611a37611986565b5b828202905092915050565b7f4e487b7100000000000000000000000000000000000000000000000000000000600052601260045260246000fd5b6000611a7d826116f6565b9150611a88836116f6565b925082611a9857611a97611a43565b5b828204905092915050565b6000611aae826116f6565b91507fffffffffffffffffffffffffffffffffffffffffffffffffffffffffffffffff821415611ae157611ae0611986565b5b600182019050919050565b7f696e746572657374526174650000000000000000000000000000000000000000600082015250565b6000611b22600c83611909565b9150611b2d82611aec565b602082019050919050565b60006020820190508181036000830152611b5181611b15565b9050919050565b6000604082019050611b6d600083018561182b565b611b7a60208301846117cf565b9392505050565b611b8a81611759565b8114611b9557600080fd5b50565b600081519050611ba781611b81565b92915050565b600060208284031215611bc357611bc26116f1565b5b6000611bd184828501611b98565b91505092915050565b7f4f6e6c79206f776e6572206d6179207570646174652074686520706f7369746960008201527f6f6e000000000000000000000000000000000000000000000000000000000000602082015250565b6000611c36602283611909565b9150611c4182611bda565b604082019050919050565b60006020820190508181036000830152611c6581611c29565b9050919050565b6000611c77826116f6565b9150611c82836116f6565b9250827fffffffffffffffffffffffffffffffffffffffffffffffffffffffffffffffff03821115611cb757611cb6611986565b5b828201905092915050565b7f6e6f7420656e6f75676820636f6c6c61746572616c20746f206d696e7420616d60008201527f6f756e7400000000000000000000000000000000000000000000000000000000602082015250565b6000611d1e602483611909565b9150611d2982611cc2565b604082019050919050565b60006020820190508181036000830152611d4d81611d11565b9050919050565b6000604082019050611d6960008301856117cf565b611d7660208301846117cf565b9392505050565b6000602082019050611d92600083018461182b565b92915050565b7f4e6f206f72206c6974746c65206665652067656e657261746564000000000000600082015250565b6000611dce601a83611909565b9150611dd982611d98565b602082019050919050565b60006020820190508181036000830152611dfd81611dc1565b9050919050565b7f696e73756666696369656e742066756e6473206f6e206f776e6572732062616c60008201527f616e636500000000000000000000000000000000000000000000000000000000602082015250565b6000611e60602483611909565b9150611e6b82611e04565b604082019050919050565b60006020820190508181036000830152611e8f81611e53565b9050919050565b7f576173206e6f742061626c6520746f207472616e736665722066656500000000600082015250565b6000611ecc601c83611909565b9150611ed782611e96565b602082019050919050565b60006020820190508181036000830152611efb81611ebf565b9050919050565b7f73746162696c697a6174696f6e46756e6450657263656e740000000000000000600082015250565b6000611f38601883611909565b9150611f4382611f02565b602082019050919050565b60006020820190508181036000830152611f6781611f2b565b9050919050565b7f61756374696f6e00000000000000000000000000000000000000000000000000600082015250565b6000611fa4600783611909565b9150611faf82611f6e565b602082019050919050565b60006020820190508181036000830152611fd381611f97565b9050919050565b611fe381611819565b8114611fee57600080fd5b50565b60008151905061200081611fda565b92915050565b60006020828403121561201c5761201b6116f1565b5b600061202a84828501611ff1565b91505092915050565b7f52756c6520746f6b656e206275796f7574206d75737420626520696e6974696160008201527f6c697a6564000000000000000000000000000000000000000000000000000000602082015250565b600061208f602583611909565b915061209a82612033565b604082019050919050565b600060208201905081810360008301526120be81612082565b905091905056fea26469706673582212205e4028eaaa0fbcf1ce604376ef7060684586efd9581cd524a399ba151f6c4f1f64736f6c634300080a0033",
  "immutableReferences": {},
  "source": "// SPDX-License-Identifier: UNLICENSED\r\npragma solidity >=0.4.22 <0.9.0;\r\nimport \"./INTDAO.sol\";\r\nimport \"./Oracle.sol\";\r\nimport \"./Rule.sol\";\r\nimport \"./stableCoin.sol\";\r\nimport \"./Auction.sol\";\r\n\r\n//previous Interest price is saved during INT auction - no need or make auction longer in time\r\n//started at 11.30 25/05/2020\r\n\r\ncontract CDP {\r\n    uint256 public numPositions;\r\n\r\n    address INTDAOaddress = address(0);\r\n\r\n    INTDAO dao;\r\n    Oracle oracle;\r\n    stableCoin coin;\r\n    Auction auction;\r\n\r\n    mapping(uint => Position) public positions;\r\n    event PositionOpened (address owner, uint256 posId);\r\n    event PositionUpdated (uint256 posID, uint256 newStableCoinsAmount);\r\n\r\n    struct Position {\r\n        bool onLiquidation;\r\n        bool liquidated;\r\n        address owner;\r\n        uint stableCoins_minted;\r\n        uint ethAmountLocked;\r\n        uint feeGenerated;\r\n        uint timeOpened;\r\n        uint lastTimeUpdated;\r\n        uint feeRate;\r\n    }\r\n\r\n    constructor(address _INTDAOaddress) {\r\n        INTDAOaddress = _INTDAOaddress;\r\n        dao = INTDAO(INTDAOaddress);\r\n        dao.setAddressOnce('cdp',address(this));\r\n        oracle = Oracle(dao.addresses('oracle'));\r\n        coin = stableCoin(payable(dao.addresses('stableCoin')));\r\n        auction = Auction(dao.addresses('auction'));\r\n    }\r\n\r\n    function openCDP (uint StableCoinsToMint) external payable returns (uint256 posId){\r\n        posId = numPositions++;\r\n        Position storage p = positions[posId];\r\n\r\n        uint coinsToMint = getMaxStableCoinsToMint(msg.value);\r\n\r\n        if (StableCoinsToMint <= coinsToMint)\r\n            coinsToMint = StableCoinsToMint;\r\n\r\n        p.stableCoins_minted = coinsToMint;\r\n        p.ethAmountLocked = msg.value;\r\n        p.owner = msg.sender;\r\n        p.timeOpened = block.timestamp;\r\n        p.lastTimeUpdated = block.timestamp;\r\n        p.feeGenerated = 0;\r\n        p.feeRate = dao.params('interestRate');\r\n\r\n        coin.mint(msg.sender, coinsToMint);\r\n\r\n        emit PositionOpened(p.owner, posId);\r\n\r\n        return posId;\r\n    }\r\n\r\n    function generatedFee(uint posId) public view returns (uint256 fee) {\r\n        Position storage p = positions[posId];\r\n        fee = p.stableCoins_minted * (block.timestamp - p.lastTimeUpdated) * p.feeRate / 31536000 / 100;\r\n        return fee;\r\n    }\r\n\r\n    function getMaxStableCoinsToMint(uint256 ethValue) public view returns (uint256 amount) {\r\n        uint256 etherPrice = oracle.getEtherPriceUSD();\r\n        return ethValue * etherPrice * (100 - dao.params('collateralDiscount'))/(100);\r\n    }\r\n\r\n    function getMaxStableCoinsToMintForPos(uint256 posID) public view returns (uint256 maxAmount){\r\n        Position storage p = positions[posID];\r\n        uint256 etherPrice = oracle.getEtherPriceUSD();\r\n        return p.ethAmountLocked * etherPrice * (100 - dao.params('collateralDiscount'))/100 - p.feeGenerated;\r\n    }\r\n\r\n    function closeCDP(uint posID) public returns (bool success){ //shows minimum amount of INT you have to own\r\n        // Rule allowed to which address? )\r\n        //burnFromCollateral from wich addressAllowed?\r\n        //sendEtherToOwner\r\n        //checkAllowance of RuleTokens\r\n        //if allowed, transfer on balance, then burn\r\n    }\r\n\r\n    function transferFee(uint posID) public returns (bool success){\r\n        Position storage p = positions[posID];\r\n        uint256 fee = p.feeGenerated;\r\n        require(fee > 10**18, 'No or little fee generated');\r\n        require(coin.balanceOf(p.owner) >= fee, 'insufficient funds on owners balance');\r\n        require(coin.burn(p.owner, fee)&&coin.mint(address(this), fee), 'Was not able to transfer fee');\r\n        if (coin.balanceOf(address(this))>dao.params('stabilizationFundPercent')*coin.totalSupply()) {\r\n            uint256 difference = coin.balanceOf(address(this))-dao.params('stabilizationFundPercent')*coin.totalSupply();\r\n            coin.transfer(dao.addresses('auction'), difference);\r\n            require(auction.initRuleBuyOut(), 'Rule token buyout must be initialized');\r\n        }\r\n    }\r\n\r\n    function claim_margin_call(uint posID) public returns (bool success) {\r\n\r\n    }\r\n\r\n    function updateCDP(uint posID, uint newStableCoinsAmount) public payable returns (bool success){\r\n        Position storage p = positions[posID];\r\n        require(p.owner == msg.sender, 'Only owner may update the position');\r\n        uint256 maxCoinsToMint;\r\n\r\n        p.feeGenerated = generatedFee(posID);\r\n        p.lastTimeUpdated = block.timestamp;\r\n\r\n        if (msg.value>0)\r\n            p.ethAmountLocked += msg.value;\r\n\r\n        maxCoinsToMint = getMaxStableCoinsToMint(p.ethAmountLocked) - p.feeGenerated;\r\n        require(maxCoinsToMint>0 && maxCoinsToMint >= newStableCoinsAmount, 'not enough collateral to mint amount');\r\n\r\n        if (newStableCoinsAmount > p.stableCoins_minted) {\r\n            uint256 difference = newStableCoinsAmount - p.stableCoins_minted;\r\n            coin.mint(p.owner, difference);\r\n            emit PositionUpdated(posID, newStableCoinsAmount);\r\n            return true;\r\n        }\r\n\r\n        if (newStableCoinsAmount < p.stableCoins_minted) {\r\n            uint256 difference = p.stableCoins_minted - newStableCoinsAmount;\r\n            require(coin.balanceOf(p.owner)>=difference);\r\n            coin.burn(p.owner, difference);\r\n            emit PositionUpdated(posID, newStableCoinsAmount);\r\n            return true;\r\n        }\r\n    }\r\n\r\n    function withdrawEther (uint posID, uint etherToWithdraw) public{\r\n        //open Auction in the same contract\r\n    }\r\n\r\n\r\n    function recieveInterestAfterAuction() public {\r\n        //INT.mintForCDP();\r\n    }\r\n\r\n}\r\n",
  "sourcePath": "C:\\Users\\d.nagornykh\\YandexDisk\\\\ICO\\CryptoFiat\\repo\\contracts\\CDP.sol",
  "compiler": {
    "name": "solc",
    "version": "0.8.10+commit.fc410830.Emscripten.clang"
  },
  "schemaVersion": "3.4.4",
  "updatedAt": "2023-01-02T06:49:51.301Z",
  "networkType": "ethereum",
  "devdoc": {
    "kind": "dev",
    "methods": {},
    "version": 1
  },
  "userdoc": {
    "kind": "user",
    "methods": {},
    "version": 1
  }
}