{
  "contractName": "CDP",
  "abi": [
    {
      "inputs": [
        {
          "internalType": "address",
          "name": "INTDAOaddress",
          "type": "address"
        }
      ],
      "stateMutability": "nonpayable",
      "type": "constructor"
    },
    {
      "anonymous": false,
      "inputs": [
        {
          "indexed": false,
          "internalType": "uint256",
          "name": "posID",
          "type": "uint256"
        },
        {
          "indexed": false,
          "internalType": "uint256",
          "name": "timestamp",
          "type": "uint256"
        }
      ],
      "name": "OnLiquidation",
      "type": "event"
    },
    {
      "anonymous": false,
      "inputs": [
        {
          "indexed": false,
          "internalType": "address",
          "name": "owner",
          "type": "address"
        },
        {
          "indexed": false,
          "internalType": "uint256",
          "name": "posID",
          "type": "uint256"
        }
      ],
      "name": "PositionOpened",
      "type": "event"
    },
    {
      "anonymous": false,
      "inputs": [
        {
          "indexed": false,
          "internalType": "uint256",
          "name": "posID",
          "type": "uint256"
        },
        {
          "indexed": false,
          "internalType": "uint256",
          "name": "newStableCoinsAmount",
          "type": "uint256"
        },
        {
          "indexed": false,
          "internalType": "uint256",
          "name": "wethLocked",
          "type": "uint256"
        }
      ],
      "name": "PositionUpdated",
      "type": "event"
    },
    {
      "anonymous": false,
      "inputs": [
        {
          "indexed": false,
          "internalType": "uint256",
          "name": "posID",
          "type": "uint256"
        },
        {
          "indexed": false,
          "internalType": "uint256",
          "name": "timestamp",
          "type": "uint256"
        }
      ],
      "name": "markOnLiquidationErased",
      "type": "event"
    },
    {
      "anonymous": false,
      "inputs": [
        {
          "indexed": false,
          "internalType": "uint256",
          "name": "posID",
          "type": "uint256"
        },
        {
          "indexed": false,
          "internalType": "uint256",
          "name": "timestamp",
          "type": "uint256"
        }
      ],
      "name": "markedOnLiquidation",
      "type": "event"
    },
    {
      "inputs": [],
      "name": "numPositions",
      "outputs": [
        {
          "internalType": "uint256",
          "name": "",
          "type": "uint256"
        }
      ],
      "stateMutability": "view",
      "type": "function"
    },
    {
      "inputs": [
        {
          "internalType": "uint256",
          "name": "",
          "type": "uint256"
        }
      ],
      "name": "positions",
      "outputs": [
        {
          "internalType": "address",
          "name": "owner",
          "type": "address"
        },
        {
          "internalType": "uint256",
          "name": "coinsMinted",
          "type": "uint256"
        },
        {
          "internalType": "uint256",
          "name": "wethAmountLocked",
          "type": "uint256"
        },
        {
          "internalType": "uint256",
          "name": "interestAmountRecorded",
          "type": "uint256"
        },
        {
          "internalType": "uint256",
          "name": "timeOpened",
          "type": "uint256"
        },
        {
          "internalType": "uint256",
          "name": "lastTimeUpdated",
          "type": "uint256"
        },
        {
          "internalType": "uint256",
          "name": "interestRate",
          "type": "uint256"
        },
        {
          "internalType": "uint256",
          "name": "markedOnLiquidationTimestamp",
          "type": "uint256"
        },
        {
          "internalType": "bool",
          "name": "onLiquidation",
          "type": "bool"
        },
        {
          "internalType": "bool",
          "name": "liquidated",
          "type": "bool"
        },
        {
          "internalType": "uint256",
          "name": "liquidationAuctionID",
          "type": "uint256"
        },
        {
          "internalType": "bool",
          "name": "restrictInterestWithdrawal",
          "type": "bool"
        }
      ],
      "stateMutability": "view",
      "type": "function"
    },
    {
      "inputs": [],
      "name": "renewContracts",
      "outputs": [],
      "stateMutability": "nonpayable",
      "type": "function"
    },
    {
      "inputs": [
        {
          "internalType": "uint256",
          "name": "stableCoinsToMint",
          "type": "uint256"
        }
      ],
      "name": "openCDP",
      "outputs": [
        {
          "internalType": "uint256",
          "name": "posID",
          "type": "uint256"
        }
      ],
      "stateMutability": "payable",
      "type": "function"
    },
    {
      "inputs": [
        {
          "internalType": "uint256",
          "name": "posID",
          "type": "uint256"
        }
      ],
      "name": "interestAmountUnrecorded",
      "outputs": [
        {
          "internalType": "uint256",
          "name": "interestAmount",
          "type": "uint256"
        }
      ],
      "stateMutability": "view",
      "type": "function"
    },
    {
      "inputs": [
        {
          "internalType": "uint256",
          "name": "posID",
          "type": "uint256"
        }
      ],
      "name": "totalCurrentFee",
      "outputs": [
        {
          "internalType": "uint256",
          "name": "fee",
          "type": "uint256"
        }
      ],
      "stateMutability": "view",
      "type": "function"
    },
    {
      "inputs": [
        {
          "internalType": "uint256",
          "name": "ethValue",
          "type": "uint256"
        }
      ],
      "name": "getMaxStableCoinsToMint",
      "outputs": [
        {
          "internalType": "uint256",
          "name": "amount",
          "type": "uint256"
        }
      ],
      "stateMutability": "view",
      "type": "function"
    },
    {
      "inputs": [
        {
          "internalType": "uint256",
          "name": "posID",
          "type": "uint256"
        }
      ],
      "name": "getMaxStableCoinsToMintForPos",
      "outputs": [
        {
          "internalType": "uint256",
          "name": "maxAmount",
          "type": "uint256"
        }
      ],
      "stateMutability": "view",
      "type": "function"
    },
    {
      "inputs": [
        {
          "internalType": "uint256",
          "name": "amount",
          "type": "uint256"
        },
        {
          "internalType": "address",
          "name": "beneficiary",
          "type": "address"
        }
      ],
      "name": "claimInterest",
      "outputs": [],
      "stateMutability": "nonpayable",
      "type": "function"
    },
    {
      "inputs": [
        {
          "internalType": "uint256",
          "name": "amount",
          "type": "uint256"
        },
        {
          "internalType": "address",
          "name": "beneficiary",
          "type": "address"
        }
      ],
      "name": "claimEmission",
      "outputs": [],
      "stateMutability": "nonpayable",
      "type": "function"
    },
    {
      "inputs": [
        {
          "internalType": "uint256",
          "name": "posID",
          "type": "uint256"
        }
      ],
      "name": "closeCDP",
      "outputs": [],
      "stateMutability": "nonpayable",
      "type": "function"
    },
    {
      "inputs": [
        {
          "internalType": "uint256",
          "name": "posID",
          "type": "uint256"
        }
      ],
      "name": "transferInterest",
      "outputs": [],
      "stateMutability": "nonpayable",
      "type": "function"
    },
    {
      "inputs": [
        {
          "internalType": "uint256",
          "name": "posID",
          "type": "uint256"
        }
      ],
      "name": "switchRestrictInterestWithdrawal",
      "outputs": [],
      "stateMutability": "nonpayable",
      "type": "function"
    },
    {
      "inputs": [],
      "name": "allowSurplusToAuction",
      "outputs": [],
      "stateMutability": "nonpayable",
      "type": "function"
    },
    {
      "inputs": [
        {
          "internalType": "uint256",
          "name": "posID",
          "type": "uint256"
        }
      ],
      "name": "claimMarginCall",
      "outputs": [
        {
          "internalType": "bool",
          "name": "success",
          "type": "bool"
        }
      ],
      "stateMutability": "nonpayable",
      "type": "function"
    },
    {
      "inputs": [
        {
          "internalType": "uint256",
          "name": "posID",
          "type": "uint256"
        }
      ],
      "name": "startCoinsBuyOut",
      "outputs": [],
      "stateMutability": "nonpayable",
      "type": "function"
    },
    {
      "inputs": [
        {
          "internalType": "uint256",
          "name": "posID",
          "type": "uint256"
        }
      ],
      "name": "finishMarginCall",
      "outputs": [],
      "stateMutability": "nonpayable",
      "type": "function"
    },
    {
      "inputs": [
        {
          "internalType": "uint256",
          "name": "posID",
          "type": "uint256"
        }
      ],
      "name": "markToLiquidate",
      "outputs": [],
      "stateMutability": "nonpayable",
      "type": "function"
    },
    {
      "inputs": [
        {
          "internalType": "uint256",
          "name": "posID",
          "type": "uint256"
        }
      ],
      "name": "eraseMarkToLiquidate",
      "outputs": [],
      "stateMutability": "nonpayable",
      "type": "function"
    },
    {
      "inputs": [
        {
          "internalType": "uint256",
          "name": "posID",
          "type": "uint256"
        },
        {
          "internalType": "uint256",
          "name": "newStableCoinsAmount",
          "type": "uint256"
        }
      ],
      "name": "updateCDP",
      "outputs": [
        {
          "internalType": "bool",
          "name": "success",
          "type": "bool"
        }
      ],
      "stateMutability": "payable",
      "type": "function"
    },
    {
      "inputs": [
        {
          "internalType": "uint256",
          "name": "posID",
          "type": "uint256"
        },
        {
          "internalType": "uint256",
          "name": "etherToWithdraw",
          "type": "uint256"
        }
      ],
      "name": "withdrawEther",
      "outputs": [],
      "stateMutability": "nonpayable",
      "type": "function"
    },
    {
      "inputs": [],
      "name": "burnRule",
      "outputs": [],
      "stateMutability": "nonpayable",
      "type": "function"
    },
    {
      "inputs": [
        {
          "internalType": "address",
          "name": "to",
          "type": "address"
        },
        {
          "internalType": "uint256",
          "name": "amount",
          "type": "uint256"
        }
      ],
      "name": "mintRule",
      "outputs": [
        {
          "internalType": "bool",
          "name": "success",
          "type": "bool"
        }
      ],
      "stateMutability": "nonpayable",
      "type": "function"
    }
  ],
  "bytecode": "0x60806040523480156200001157600080fd5b5060405162003d5138038062003d5183398101604081905262000034916200046d565b600180546001600160a01b0319166001600160a01b0383169081179091556040805163155ef82760e11b81526004810191909152600360448201526206364760ec1b6064820152306024820152632abdf04e90608401600060405180830381600087803b158015620000a557600080fd5b505af1158015620000ba573d6000803e3d6000fd5b50506001546040805163155ef82760e11b81526004810191909152601060448201526f34b7333630ba34b7b729b832b73232b960811b60648201523060248201526001600160a01b039091169250632abdf04e9150608401600060405180830381600087803b1580156200012d57600080fd5b505af115801562000142573d6000803e3d6000fd5b50505050620001566200015d60201b60201c565b506200049f565b60015460405163bdfe7d4760e01b815260206004820152600a60248201526939ba30b13632a1b7b4b760b11b60448201526001600160a01b039091169063bdfe7d4790606401602060405180830381865afa158015620001c1573d6000803e3d6000fd5b505050506040513d601f19601f82011682018060405250810190620001e791906200046d565b600380546001600160a01b0319166001600160a01b0392831617905560015460405163bdfe7d4760e01b8152602060048083019190915260248201526372756c6560e01b604482015291169063bdfe7d4790606401602060405180830381865afa1580156200025a573d6000803e3d6000fd5b505050506040513d601f19601f820116820180604052508101906200028091906200046d565b600580546001600160a01b0319166001600160a01b0392831617905560015460405163bdfe7d4760e01b8152602060048083019190915260248201526318d85c9d60e21b604482015291169063bdfe7d4790606401602060405180830381865afa158015620002f3573d6000803e3d6000fd5b505050506040513d601f19601f820116820180604052508101906200031991906200046d565b600280546001600160a01b0319166001600160a01b0392831617905560015460405163bdfe7d4760e01b815260206004820152600760248201526630bab1ba34b7b760c91b604482015291169063bdfe7d4790606401602060405180830381865afa1580156200038d573d6000803e3d6000fd5b505050506040513d601f19601f82011682018060405250810190620003b391906200046d565b600480546001600160a01b0319166001600160a01b0392831617815560015460405163bdfe7d4760e01b81526020818401526024810192909252630eecae8d60e31b60448301529091169063bdfe7d4790606401602060405180830381865afa15801562000425573d6000803e3d6000fd5b505050506040513d601f19601f820116820180604052508101906200044b91906200046d565b600680546001600160a01b0319166001600160a01b0392909216919091179055565b6000602082840312156200048057600080fd5b81516001600160a01b03811681146200049857600080fd5b9392505050565b6138a280620004af6000396000f3fe6080604052600436106101105760003560e01c80630403dc09146101155780630beebd391461014a5780631db398ef146101615780631e4b5ede146101815780631ebbd577146101a157806323d86a65146101c15780632650a47c146101d65780635c412bb2146101f65780635e71823b146102165780636050c7461461023a5780636530218d1461025a5780636bb224c31461027a5780636e2796611461028d5780637380518f146102a05780637a7c0e01146102c05780637f660be1146102d557806391078b48146102f557806399fbab8814610315578063b514307a14610409578063dda0019614610429578063edfc171314610449578063f34792c214610469578063f98b3fb514610489575b600080fd5b34801561012157600080fd5b50610135610130366004613354565b6104a9565b60405190151581526020015b60405180910390f35b34801561015657600080fd5b5061015f6105fb565b005b34801561016d57600080fd5b5061013561017c366004613380565b6106c7565b34801561018d57600080fd5b5061015f61019c366004613380565b610ba0565b3480156101ad57600080fd5b5061015f6101bc366004613380565b610ebb565b3480156101cd57600080fd5b5061015f610f38565b3480156101e257600080fd5b5061015f6101f1366004613399565b61120f565b34801561020257600080fd5b5061015f6102113660046133bb565b611451565b34801561022257600080fd5b5061022c60005481565b604051908152602001610141565b34801561024657600080fd5b5061022c610255366004613380565b611546565b34801561026657600080fd5b5061022c610275366004613380565b6115a5565b61022c610288366004613380565b61178c565b61013561029b366004613399565b611ab8565b3480156102ac57600080fd5b5061015f6102bb366004613380565b611f14565b3480156102cc57600080fd5b5061015f6120d8565b3480156102e157600080fd5b5061015f6102f03660046133bb565b612577565b34801561030157600080fd5b5061022c610310366004613380565b612935565b34801561032157600080fd5b506103a0610330366004613380565b600760208190526000918252604090912080546001820154600283015460038401546004850154600586015460068701549787015460088801546009890154600a909901546001600160a01b039098169996989597949693959294919260ff80831693610100909304811692168c565b604080516001600160a01b03909d168d5260208d019b909b52998b019890985260608a0196909652608089019490945260a088019290925260c087015260e086015215156101008501521515610120840152610140830152151561016082015261018001610141565b34801561041557600080fd5b5061015f610424366004613380565b612965565b34801561043557600080fd5b5061015f610444366004613380565b612fff565b34801561045557600080fd5b5061015f610464366004613380565b61313f565b34801561047557600080fd5b5061015f610484366004613380565b61323b565b34801561049557600080fd5b5061022c6104a4366004613380565b613315565b60015460405163bdfe7d4760e01b81526000916001600160a01b03169063bdfe7d47906104d8906004016133eb565b602060405180830381865afa1580156104f5573d6000803e3d6000fd5b505050506040513d601f19601f82011682018060405250810190610519919061340c565b6001600160a01b0316336001600160a01b03161461058c5760405162461bcd60e51b815260206004820152602560248201527f4f6e6c792061756374696f6e20697320616c6c6f77656420746f20636c61696d604482015264081b5a5b9d60da1b60648201526084015b60405180910390fd5b6005546040516340c10f1960e01b81526001600160a01b03909116906340c10f19906105be9086908690600401613429565b600060405180830381600087803b1580156105d857600080fd5b505af11580156105ec573d6000803e3d6000fd5b50505050600190505b92915050565b6005546040516370a0823160e01b81526001600160a01b0390911690639dc29fac90309083906370a0823190610635908490600401613442565b602060405180830381865afa158015610652573d6000803e3d6000fd5b505050506040513d601f19601f820116820180604052508101906106769190613456565b6040518363ffffffff1660e01b8152600401610693929190613429565b600060405180830381600087803b1580156106ad57600080fd5b505af11580156106c1573d6000803e3d6000fd5b50505050565b600081815260076020819052604082209081015415801590610785575060015460405163145f822b60e01b81526020600482015260136024820152721b585c99da5b90d85b1b151a5b59531a5b5a5d606a1b60448201526001600160a01b039091169063145f822b90606401602060405180830381865afa158015610750573d6000803e3d6000fd5b505050506040513d601f19601f820116820180604052508101906107749190613456565b60078201546107839042613485565b115b6107f75760405162461bcd60e51b815260206004820152603d60248201527f506f736974696f6e206973206e6f74206d61726b6564206f6e206c697175696460448201527f6174696f6e206f72206f776e6572207374696c6c206861732074696d650000006064820152608401610583565b600881015460ff1615801561081657506008810154610100900460ff16155b6108835760405162461bcd60e51b815260206004820152603860248201527f506f736974696f6e20697320616c7265616479206f6e206c69717569646174696044820152771bdb881bdc88185b1c9958591e481b1a5c5d5a59185d195960421b6064820152608401610583565b806001015461089184612935565b1015610b905760088101805460ff19166001908117909155600654905460405163bdfe7d4760e01b815260206004820152600360248201526206364760ec1b60448201526000926001600160a01b039081169263dd62ed3e9291169063bdfe7d4790606401602060405180830381865afa158015610913573d6000803e3d6000fd5b505050506040513d601f19601f82011682018060405250810190610937919061340c565b60015460405163bdfe7d4760e01b81526001600160a01b039091169063bdfe7d4790610965906004016133eb565b602060405180830381865afa158015610982573d6000803e3d6000fd5b505050506040513d601f19601f820116820180604052508101906109a6919061340c565b6040518363ffffffff1660e01b81526004016109c3929190613498565b602060405180830381865afa1580156109e0573d6000803e3d6000fd5b505050506040513d601f19601f82011682018060405250810190610a049190613456565b60065460015460405163bdfe7d4760e01b81529293506001600160a01b039182169263095ea7b3929091169063bdfe7d4790610a42906004016133eb565b602060405180830381865afa158015610a5f573d6000803e3d6000fd5b505050506040513d601f19601f82011682018060405250810190610a83919061340c565b6002850154610a9290856134b2565b6040518363ffffffff1660e01b8152600401610aaf929190613429565b6020604051808303816000875af1158015610ace573d6000803e3d6000fd5b505050506040513d601f19601f82011682018060405250810190610af291906134c5565b610b4d5760405162461bcd60e51b815260206004820152602660248201527f636f756c64206e6f7420617070726f7665207765746820666f7220736f6d65206044820152653932b0b9b7b760d11b6064820152608401610583565b7f31673ddfc0eb6966d1a8d85477c249f90d6d896936c3b1d93bfcaf9b29eb6fc98442604051610b7e9291906134e7565b60405180910390a15060019392505050565b6000600790910181905592915050565b600081815260076020526040902080546001600160a01b03163314610c115760405162461bcd60e51b815260206004820152602160248201527f4f6e6c79206f776e6572206d617920636c6f73652068697320706f736974696f6044820152603760f91b6064820152608401610583565b600881015460ff1615610c365760405162461bcd60e51b8152600401610583906134f5565b60008160010154610c4684613315565b610c5091906134b2565b60035483546040516323b872dd60e01b81529293506001600160a01b03918216926323b872dd92610c899216903090869060040161352c565b6020604051808303816000875af1158015610ca8573d6000803e3d6000fd5b505050506040513d601f19601f82011682018060405250810190610ccc91906134c5565b610d4e5760405162461bcd60e51b815260206004820152604760248201527f436f756c64206e6f74207472616e7366657220636f696e7320666f7220736f6d60448201527f6520726561736f6e2e20596f75206861766520746f20616c6c6f7720636f696e6064820152661cc8199a5c9cdd60ca1b608482015260a401610583565b6006548254600284015460405163a9059cbb60e01b81526001600160a01b039384169363a9059cbb93610d8693911691600401613429565b6020604051808303816000875af1158015610da5573d6000803e3d6000fd5b505050506040513d601f19601f82011682018060405250810190610dc991906134c5565b610e2b5760405162461bcd60e51b815260206004820152602d60248201527f436f756c64206e6f74207472616e7366657220636f6c6c61746572616c20666f60448201526c391039b7b6b2903932b0b9b7b760991b6064820152608401610583565b600060028301556003546001830154604051632770a7eb60e21b81526001600160a01b0390921691639dc29fac91610e6891309190600401613429565b600060405180830381600087803b158015610e8257600080fd5b505af1158015610e96573d6000803e3d6000fd5b505060006001850155505042600583015550600801805461ff00191661010017905550565b600081815260076020526040902080546001600160a01b03163314610f225760405162461bcd60e51b815260206004820181905260248201527f4f6e6c79206f776e6572206d61792073657420746869732070726f70657274796044820152606401610583565b600a01805460ff19811660ff9091161517905550565b60015460405163bdfe7d4760e01b815260206004820152600a60248201526939ba30b13632a1b7b4b760b11b60448201526001600160a01b039091169063bdfe7d4790606401602060405180830381865afa158015610f9b573d6000803e3d6000fd5b505050506040513d601f19601f82011682018060405250810190610fbf919061340c565b600380546001600160a01b0319166001600160a01b0392831617905560015460405163bdfe7d4760e01b8152602060048083019190915260248201526372756c6560e01b604482015291169063bdfe7d4790606401602060405180830381865afa158015611031573d6000803e3d6000fd5b505050506040513d601f19601f82011682018060405250810190611055919061340c565b600580546001600160a01b0319166001600160a01b0392831617905560015460405163bdfe7d4760e01b8152602060048083019190915260248201526318d85c9d60e21b604482015291169063bdfe7d4790606401602060405180830381865afa1580156110c7573d6000803e3d6000fd5b505050506040513d601f19601f820116820180604052508101906110eb919061340c565b600280546001600160a01b0319166001600160a01b0392831617905560015460405163bdfe7d4760e01b815291169063bdfe7d479061112c906004016133eb565b602060405180830381865afa158015611149573d6000803e3d6000fd5b505050506040513d601f19601f8201168201806040525081019061116d919061340c565b600480546001600160a01b0319166001600160a01b0392831617815560015460405163bdfe7d4760e01b815292169163bdfe7d47916111ac9101613550565b602060405180830381865afa1580156111c9573d6000803e3d6000fd5b505050506040513d601f19601f820116820180604052508101906111ed919061340c565b600680546001600160a01b0319166001600160a01b0392909216919091179055565b6000828152600760205260409020600881015460ff16156112425760405162461bcd60e51b8152600401610583906134f5565b80546001600160a01b0316331461126b5760405162461bcd60e51b81526004016105839061356e565b806002015482106112d35760405162461bcd60e51b815260206004820152602c60248201527f596f7520646f6e74206861766520656e6f7567682077657468206c6f636b656460448201526b206f6e207468697320706f7360a01b6064820152608401610583565b60008282600201546112e59190613485565b905060006112f285613315565b6112fb836115a5565b6113059190613485565b90508260010154811161138b5760405162461bcd60e51b815260206004820152604260248201527f796f752077616e7420746f206b656570206e6f7420656e6f756768207765746860448201527f20746f20636f76657220656d697373696f6e20616e642063757272656e742066606482015261656560f01b608482015260a401610583565b8383600201600082825461139f9190613485565b909155505060065460405163a9059cbb60e01b81526001600160a01b039091169063a9059cbb906113d69033908890600401613429565b6020604051808303816000875af11580156113f5573d6000803e3d6000fd5b505050506040513d601f19601f8201168201806040525081019061141991906134c5565b506001830154600284015460405160008051602061382d833981519152926114429289926135b0565b60405180910390a15050505050565b6001546040516301fd3f7760e71b81526001600160a01b039091169063fe9fbb8090611481903390600401613442565b602060405180830381865afa15801561149e573d6000803e3d6000fd5b505050506040513d601f19601f820116820180604052508101906114c291906134c5565b6114de5760405162461bcd60e51b8152600401610583906135c6565b6003546040516340c10f1960e01b81526001600160a01b03909116906340c10f19906115109084908690600401613429565b600060405180830381600087803b15801561152a57600080fd5b505af115801561153e573d6000803e3d6000fd5b505050505050565b6000818152600760205260408120600681015460058201546064916301e13380916115719042613485565b84600101546115809190613609565b61158a9190613609565b6115949190613620565b61159e9190613620565b9392505050565b60025460405163524f388960e01b815260206004820152600360248201526239ba3160e91b604482015260009182916001600160a01b039091169063524f388990606401602060405180830381865afa158015611606573d6000803e3d6000fd5b505050506040513d601f19601f8201168201806040525081019061162a9190613456565b60025460405163afd0fd1d60e01b815260206004820152600360248201526265746360e81b60448201529192506000916001600160a01b039091169063afd0fd1d90606401602060405180830381865afa15801561168c573d6000803e3d6000fd5b505050506040513d601f19601f820116820180604052508101906116b09190613642565b60ff16905060646116c282600a613749565b60015460405163145f822b60e01b815260206004820152601260248201527118dbdb1b185d195c985b111a5cd8dbdd5b9d60721b60448201526001600160a01b039091169063145f822b90606401602060405180830381865afa15801561172d573d6000803e3d6000fd5b505050506040513d601f19601f820116820180604052508101906117519190613456565b61175c906064613485565b6117668588613609565b6117709190613609565b61177a9190613620565b6117849190613620565b949350505050565b6000611797346115a5565b82116117a357816117ac565b6117ac346115a5565b60015460405163145f822b60e01b81529193506001600160a01b03169063145f822b906117db90600401613755565b602060405180830381865afa1580156117f8573d6000803e3d6000fd5b505050506040513d601f19601f8201168201806040525081019061181c9190613456565b82101561183b5760405162461bcd60e51b81526004016105839061377d565b60008054908061184a836137be565b90915550600081815260076020526040808220600180820187905534600283015554915163bdfe7d4760e01b8152939450926001600160a01b039091169063bdfe7d479061189a90600401613550565b602060405180830381865afa1580156118b7573d6000803e3d6000fd5b505050506040513d601f19601f820116820180604052508101906118db919061340c565b6001600160a01b03163460405160006040518083038185875af1925050503d8060008114611925576040519150601f19603f3d011682016040523d82523d6000602084013e61192a565b606091505b505090508061194b5760405162461bcd60e51b8152600401610583906137d7565b81546001600160a01b0319163317825542600480840182905560058401919091556000600384015560015460405163145f822b60e01b81526001600160a01b03919091169163145f822b916119c191016020808252600c908201526b696e7465726573745261746560a01b604082015260600190565b602060405180830381865afa1580156119de573d6000803e3d6000fd5b505050506040513d601f19601f82011682018060405250810190611a029190613456565b60068301556003546040516340c10f1960e01b81526001600160a01b03909116906340c10f1990611a399033908890600401613429565b600060405180830381600087803b158015611a5357600080fd5b505af1158015611a67573d6000803e3d6000fd5b505083546040517f7033b91d43234ea7f0b72ec01052e5285ce842c91dcf6ab963fa44a5487417209350611aa992506001600160a01b03909116908690613429565b60405180910390a15050919050565b6000828152600760205260408120600881015460ff1615611aeb5760405162461bcd60e51b8152600401610583906134f5565b80546001600160a01b03163314611b145760405162461bcd60e51b81526004016105839061356e565b60015460405163145f822b60e01b81526001600160a01b039091169063145f822b90611b4290600401613755565b602060405180830381865afa158015611b5f573d6000803e3d6000fd5b505050506040513d601f19601f82011682018060405250810190611b839190613456565b831015611ba25760405162461bcd60e51b81526004016105839061377d565b611bab84611546565b816003016000828254611bbe91906134b2565b90915550504260058201553415611cca5734816002016000828254611be391906134b2565b909155505060015460405163bdfe7d4760e01b81526000916001600160a01b03169063bdfe7d4790611c1790600401613550565b602060405180830381865afa158015611c34573d6000803e3d6000fd5b505050506040513d601f19601f82011682018060405250810190611c58919061340c565b6001600160a01b03163460405160006040518083038185875af1925050503d8060008114611ca2576040519150601f19603f3d011682016040523d82523d6000602084013e611ca7565b606091505b5050905080611cc85760405162461bcd60e51b8152600401610583906137d7565b505b82611cd485612935565b1015611d2e5760405162461bcd60e51b8152602060048201526024808201527f6e6f7420656e6f75676820636f6c6c61746572616c20746f206d696e7420616d6044820152631bdd5b9d60e21b6064820152608401610583565b8060010154831115611df4576000816001015484611d4c9190613485565b60035483546040516340c10f1960e01b81529293506001600160a01b03918216926340c10f1992611d839216908590600401613429565b600060405180830381600087803b158015611d9d57600080fd5b505af1158015611db1573d6000803e3d6000fd5b5050505060018201849055600282015460405160008051602061382d83398151915291611de191889188916135b0565b60405180910390a16001925050506105f5565b8060010154831015611ecb576000838260010154611e129190613485565b60035483546040516370a0823160e01b815292935083926001600160a01b03928316926370a0823192611e4a92911690600401613442565b602060405180830381865afa158015611e67573d6000803e3d6000fd5b505050506040513d601f19601f82011682018060405250810190611e8b9190613456565b1015611e9657600080fd5b6003548254604051632770a7eb60e21b81526001600160a01b0392831692639dc29fac92611d83929116908590600401613429565b80600101548303611f0d5760008051602061382d83398151915284848360020154604051611efb939291906135b0565b60405180910390a160019150506105f5565b5092915050565b6000818152600760205260409020600a81015460ff1615611f885780546001600160a01b03163314611f885760405162461bcd60e51b815260206004820181905260248201527f4f6e6c79206f776e6572206d6179207472616e7366657220696e7465726573746044820152606401610583565b600881015460ff1615611fad5760405162461bcd60e51b8152600401610583906134f5565b60035481546001600160a01b03918216916323b872dd911630611fcf86613315565b6040518463ffffffff1660e01b8152600401611fed9392919061352c565b6020604051808303816000875af115801561200c573d6000803e3d6000fd5b505050506040513d601f19601f8201168201806040525081019061203091906134c5565b6120c75760405162461bcd60e51b815260206004820152605c60248201527f576173206e6f742061626c6520746f207472616e73666572206665652e20496e60448201527f73756666696369656e742062616c616e6365206f7220616c6c6f77616e63652e60648201527b08151c9e481d1bc8185b1b1bddc81cdc195b991a5b99c8199a5c9cdd60221b608482015260a401610583565b600060038201554260059091015550565b60006064600360009054906101000a90046001600160a01b03166001600160a01b03166318160ddd6040518163ffffffff1660e01b8152600401602060405180830381865afa15801561212f573d6000803e3d6000fd5b505050506040513d601f19601f820116820180604052508101906121539190613456565b60015460405163145f822b60e01b81526020600482015260186024820152771cdd18589a5b1a5e985d1a5bdb919d5b9914195c98d95b9d60421b60448201526001600160a01b039091169063145f822b90606401602060405180830381865afa1580156121c4573d6000803e3d6000fd5b505050506040513d601f19601f820116820180604052508101906121e89190613456565b6121f29190613609565b6121fc9190613620565b6003546040516370a0823160e01b815291925082916001600160a01b03909116906370a0823190612231903090600401613442565b602060405180830381865afa15801561224e573d6000803e3d6000fd5b505050506040513d601f19601f820116820180604052508101906122729190613456565b10156122cb5760405162461bcd60e51b815260206004820152602260248201527f696e73756666696369656e742066756e6473206f6e2043445020636f6e74726160448201526118dd60f21b6064820152608401610583565b6003546040516370a0823160e01b815260009183916001600160a01b03909116906370a0823190612300903090600401613442565b602060405180830381865afa15801561231d573d6000803e3d6000fd5b505050506040513d601f19601f820116820180604052508101906123419190613456565b61234b9190613485565b60015460405163145f822b60e01b81526020600482015260196024820152781b5a5b90d11410985b185b98d9551bd25b9a5d109d5e53dd5d603a1b60448201529192506001600160a01b03169063145f822b90606401602060405180830381865afa1580156123be573d6000803e3d6000fd5b505050506040513d601f19601f820116820180604052508101906123e29190613456565b81101561243c5760405162461bcd60e51b815260206004820152602260248201527f6e6f7420656e6f75676820737572706c757320746f207374617274206275794f6044820152611d5d60f21b6064820152608401610583565b60035460015460405163bdfe7d4760e01b81526001600160a01b039283169263095ea7b392169063bdfe7d4790612475906004016133eb565b602060405180830381865afa158015612492573d6000803e3d6000fd5b505050506040513d601f19601f820116820180604052508101906124b6919061340c565b836040518363ffffffff1660e01b81526004016124d4929190613429565b6020604051808303816000875af11580156124f3573d6000803e3d6000fd5b505050506040513d601f19601f8201168201806040525081019061251791906134c5565b6125735760405162461bcd60e51b815260206004820152602760248201527f636f756c64206e6f7420617070726f766520636f696e7320666f7220736f6d65604482015266103932b0b9b7b760c91b6064820152608401610583565b5050565b6001546040516301fd3f7760e71b81526001600160a01b039091169063fe9fbb80906125a7903390600401613442565b602060405180830381865afa1580156125c4573d6000803e3d6000fd5b505050506040513d601f19601f820116820180604052508101906125e891906134c5565b6126045760405162461bcd60e51b8152600401610583906135c6565b6003546040516370a0823160e01b815283916001600160a01b0316906370a0823190612634903090600401613442565b602060405180830381865afa158015612651573d6000803e3d6000fd5b505050506040513d601f19601f820116820180604052508101906126759190613456565b11156126f55760035460405163a9059cbb60e01b81526001600160a01b039091169063a9059cbb906126ad9084908690600401613429565b6020604051808303816000875af11580156126cc573d6000803e3d6000fd5b505050506040513d601f19601f820116820180604052508101906126f091906134c5565b505050565b6003546040516370a0823160e01b81526000916001600160a01b0316906370a0823190612726903090600401613442565b602060405180830381865afa158015612743573d6000803e3d6000fd5b505050506040513d601f19601f820116820180604052508101906127679190613456565b6127719084613485565b6003546040516370a0823160e01b81529192506001600160a01b03169063a9059cbb90849083906370a08231906127ac903090600401613442565b602060405180830381865afa1580156127c9573d6000803e3d6000fd5b505050506040513d601f19601f820116820180604052508101906127ed9190613456565b6040518363ffffffff1660e01b815260040161280a929190613429565b6020604051808303816000875af1158015612829573d6000803e3d6000fd5b505050506040513d601f19601f8201168201806040525081019061284d91906134c5565b50600354604051636eb1769f60e11b81526001600160a01b039091169063095ea7b3908490839063dd62ed3e9061288a9030908590600401613498565b602060405180830381865afa1580156128a7573d6000803e3d6000fd5b505050506040513d601f19601f820116820180604052508101906128cb9190613456565b6128d590856134b2565b6040518363ffffffff1660e01b81526004016128f2929190613429565b6020604051808303816000875af1158015612911573d6000803e3d6000fd5b505050506040513d601f19601f820116820180604052508101906106c191906134c5565b600061294082613315565b60008381526007602052604090206002015461295b906115a5565b6105f59190613485565b6000818152600760205260409020600881015460ff16801561299157506008810154610100900460ff16155b80156129a05750600981015415155b612a1c5760405162461bcd60e51b8152602060048201526053602482015260008051602061384d83398151915260448201527f722077617320616c7265616479206c697175696461746564206f7220617563746064820152721a5bdb881dd85cc81b9bdd081cdd185c9d1959606a1b608482015260a401610583565b6004805460098301546040516333727c4d60e01b8152928301526001600160a01b0316906333727c4d90602401602060405180830381865afa158015612a66573d6000803e3d6000fd5b505050506040513d601f19601f82011682018060405250810190612a8a91906134c5565b612b47576004805460098301546040516339a1ca8560e11b8152928301526001600160a01b031690637343950a906024016020604051808303816000875af1158015612ada573d6000803e3d6000fd5b505050506040513d601f19601f82011682018060405250810190612afe91906134c5565b612b475760405162461bcd60e51b815260206004820152601a60248201527931b7bab632103737ba103334b730b634bd329030bab1ba34b7b760311b6044820152606401610583565b600480546009830154604051630d14e41760e31b8152928301526000916001600160a01b03909116906368a720b890602401602060405180830381865afa158015612b96573d6000803e3d6000fd5b505050506040513d601f19601f82011682018060405250810190612bba9190613456565b905081600101548110612d9f5760015460405163145f822b60e01b815260206004820152600e60248201526d6c69717569646174696f6e46656560901b60448201526000916064916001600160a01b039091169063145f822b908301602060405180830381865afa158015612c33573d6000803e3d6000fd5b505050506040513d601f19601f82011682018060405250810190612c579190613456565b8460010154612c669190613609565b612c709190613620565b612c7985613315565b8460010154612c8891906134b2565b612c9291906134b2565b905080821115612d205760035483546001600160a01b039182169163a9059cbb9116612cbe8486613485565b6040518363ffffffff1660e01b8152600401612cdb929190613429565b6020604051808303816000875af1158015612cfa573d6000803e3d6000fd5b505050506040513d601f19601f82011682018060405250810190612d1e91906134c5565b505b6003546001840154604051632770a7eb60e21b81526001600160a01b0390921691639dc29fac91612d5691309190600401613429565b600060405180830381600087803b158015612d7057600080fd5b505af1158015612d84573d6000803e3d6000fd5b5050506008909301805461ff00191661010017905550505050565b60018201546003546040516370a0823160e01b81526001600160a01b03909116906370a0823190612dd4903090600401613442565b602060405180830381865afa158015612df1573d6000803e3d6000fd5b505050506040513d601f19601f82011682018060405250810190612e159190613456565b10612e98576003546001830154604051632770a7eb60e21b81526001600160a01b0390921691639dc29fac91612e5091309190600401613429565b600060405180830381600087803b158015612e6a57600080fd5b505af1158015612e7e573d6000803e3d6000fd5b5050506008909201805461ff001916610100179055505050565b6003546040516370a0823160e01b81526000916001600160a01b0316906370a0823190612ec9903090600401613442565b602060405180830381865afa158015612ee6573d6000803e3d6000fd5b505050506040513d601f19601f82011682018060405250810190612f0a9190613456565b600354604051632770a7eb60e21b81529192506001600160a01b031690639dc29fac90612f3d9030908590600401613429565b600060405180830381600087803b158015612f5757600080fd5b505af1158015612f6b573d6000803e3d6000fd5b5050505080836001016000828254612f839190613485565b9091555050600480546001850154604051637c2dd6ef60e11b8152928301526001600160a01b03169063f85badde906024016020604051808303816000875af1158015612fd4573d6000803e3d6000fd5b505050506040513d601f19601f82011682018060405250810190612ff89190613456565b5050505050565b6000818152600760205260409020600881015460ff16801561302b57506008810154610100900460ff16155b801561303957506009810154155b6130b65760405162461bcd60e51b8152602060048201526054602482015260008051602061384d83398151915260448201527f7220616c7265616479206c6971756964617465642c206f722061756374696f6e606482015273081dd85cc8185b1c9958591e481cdd185c9d195960621b608482015260a401610583565b60048054600283015460405163c0219ad960e01b81526001600160a01b039092169263c0219ad9926130ec9287929091016134e7565b6020604051808303816000875af115801561310b573d6000803e3d6000fd5b505050506040513d601f19601f8201168201806040525081019061312f9190613456565b6009820155600060029091015550565b600081815260076020819052604090912090810154158015906131675750600881015460ff16155b801561317d57506008810154610100900460ff16155b6131e25760405162461bcd60e51b815260206004820152603060248201527f5468697320706f736974696f6e206973206e6f74206d61726b6564206f72206c60448201526f1bd8dad9590bdb1a5c5d5a59185d195960821b6064820152608401610583565b80600101546131f083612935565b111561257357600060078201556040517f7bb2fe2f24d265750abd1f17821c6d5a97b2e2302e000a2d1b78fa5d48c5d3319061322f90849042906134e7565b60405180910390a15050565b6000818152600760208190526040909120908101541580156132625750600881015460ff16155b6132c85760405162461bcd60e51b815260206004820152603160248201527f5468697320706f736974696f6e206973206f6e206c69717569646174696f6e206044820152701bdc88185b1c9958591e481b585c9ad959607a1b6064820152608401610583565b80600101546132d683612935565b10156125735742600782018190556040517fc7fcb1762039617a9125455c34980d3770676da1c4e1b42c55bc47fa7ebc970f9161322f918591906134e7565b600061332082611546565b6000838152600760205260409020600301546105f591906134b2565b6001600160a01b038116811461335157600080fd5b50565b6000806040838503121561336757600080fd5b82356133728161333c565b946020939093013593505050565b60006020828403121561339257600080fd5b5035919050565b600080604083850312156133ac57600080fd5b50508035926020909101359150565b600080604083850312156133ce57600080fd5b8235915060208301356133e08161333c565b809150509250929050565b60208082526007908201526630bab1ba34b7b760c91b604082015260600190565b60006020828403121561341e57600080fd5b815161159e8161333c565b6001600160a01b03929092168252602082015260400190565b6001600160a01b0391909116815260200190565b60006020828403121561346857600080fd5b5051919050565b634e487b7160e01b600052601160045260246000fd5b818103818111156105f5576105f561346f565b6001600160a01b0392831681529116602082015260400190565b808201808211156105f5576105f561346f565b6000602082840312156134d757600080fd5b8151801515811461159e57600080fd5b918252602082015260400190565b6020808252601f908201527f5468697320706f736974696f6e206973206f6e206c69717569646174696f6e00604082015260600190565b6001600160a01b039384168152919092166020820152604081019190915260600190565b6020808252600490820152630eecae8d60e31b604082015260600190565b60208082526022908201527f4f6e6c79206f776e6572206d6179207570646174652074686520706f7369746960408201526137b760f11b606082015260800190565b9283526020830191909152604082015260600190565b60208082526023908201527f6f6e6c7920617574686f72697a65642061646472657373206d617920646f207460408201526268697360e81b606082015260800190565b80820281158282048414176105f5576105f561346f565b60008261363d57634e487b7160e01b600052601260045260246000fd5b500490565b60006020828403121561365457600080fd5b815160ff8116811461159e57600080fd5b600181815b808511156136a05781600019048211156136865761368661346f565b8085161561369357918102915b93841c939080029061366a565b509250929050565b6000826136b7575060016105f5565b816136c4575060006105f5565b81600181146136da57600281146136e457613700565b60019150506105f5565b60ff8411156136f5576136f561346f565b50506001821b6105f5565b5060208310610133831016604e8410600b8410161715613723575081810a6105f5565b61372d8383613665565b80600019048211156137415761374161346f565b029392505050565b600061159e83836136a8565b6020808252600e908201526d1b5a5b90dbda5b9cd51bd35a5b9d60921b604082015260600190565b60208082526021908201527f796f752063616e206e6f74206d696e74206c657373207468616e203120636f696040820152603760f91b606082015260800190565b6000600182016137d0576137d061346f565b5060010190565b60208082526035908201527f436f756c64206e6f7420706173732066756e647320746f207765746820636f6e6040820152743a3930b1ba103337b91039b7b6b2903932b0b9b7b760591b60608201526080019056fef89185fe8013045e431c4a2d209bdc8367e67b3aee3359fde091b6ce08e60550506f736974696f6e206973206e6f74206f6e206c69717569646174696f6e206fa264697066735822122060953a042ca2dd08b673ec8dab932fe1cd668abd076382975b8d21cac28a1b4d64736f6c63430008130033",
  "immutableReferences": {},
  "source": "// SPDX-License-Identifier: UNLICENSED\r\npragma solidity 0.8.19;\r\nimport \"@openzeppelin/contracts/token/ERC20/IERC20.sol\";\r\nimport \"./IDAO.sol\";\r\n\r\ninterface IERC20MintableAndBurnable is IERC20{\r\n    function mint(address to, uint256 amount) external;\r\n    function burn(address from, uint256 amount) external;\r\n}\r\n\r\ninterface IAuction{\r\n    function initCoinsBuyOut(uint256 posID, uint256 collateral) external returns (uint256 auctionID);\r\n    function isFinalized(uint256 auctionId) external view returns (bool finalized);\r\n    function claimToFinalizeAuction(uint256 auctionID) external returns (bool success);\r\n    function getPaymentAmount(uint256 auctionID) external view returns (uint256);\r\n    function initCoinsBuyOutForStabilization(uint256 coinsAmountNeeded) external returns (uint256 auctionID);\r\n}\r\n\r\ninterface ICart{\r\n    function getPrice(string memory symbol) external view returns (uint256);\r\n    function getDecimals(string memory symbol) external view returns (uint8);\r\n}\r\n\r\n    struct Position {\r\n        address owner;\r\n        uint256 coinsMinted;\r\n        uint256 wethAmountLocked;\r\n        uint256 interestAmountRecorded;\r\n        uint256 timeOpened;\r\n        uint256 lastTimeUpdated;\r\n        uint256 interestRate;\r\n        uint256 markedOnLiquidationTimestamp;\r\n        bool onLiquidation;\r\n        bool liquidated;\r\n        uint256 liquidationAuctionID;\r\n        bool restrictInterestWithdrawal;\r\n    }\r\n\r\ncontract CDP {\r\n    uint256 public numPositions;\r\n    IDAO dao;\r\n    ICart oracleCart;\r\n    IERC20MintableAndBurnable coin;\r\n    IAuction auction;\r\n    IERC20MintableAndBurnable rule;\r\n    IERC20 weth;\r\n\r\n    mapping(uint256 => Position) public positions;\r\n    event PositionOpened (address owner, uint256 posID);\r\n    event PositionUpdated (uint256 posID, uint256 newStableCoinsAmount, uint256 wethLocked);\r\n    event markedOnLiquidation (uint256 posID, uint256 timestamp);\r\n    event markOnLiquidationErased (uint256 posID, uint256 timestamp);\r\n    event OnLiquidation (uint256 posID, uint256 timestamp);\r\n\r\n    constructor(address INTDAOaddress){\r\n        dao = IDAO(INTDAOaddress);\r\n        dao.setAddressOnce('cdp',payable(address(this)));\r\n        dao.setAddressOnce('inflationSpender',payable(address(this)));\r\n        renewContracts();\r\n    }\r\n\r\n    function renewContracts() public{\r\n        coin = IERC20MintableAndBurnable(dao.addresses('stableCoin'));\r\n        rule = IERC20MintableAndBurnable(dao.addresses('rule'));\r\n        oracleCart = ICart(dao.addresses('cart'));\r\n        auction = IAuction(dao.addresses('auction'));\r\n        weth = IERC20(dao.addresses('weth'));\r\n    }\r\n\r\n    function openCDP(uint256 stableCoinsToMint) external payable returns (uint256 posID){\r\n        stableCoinsToMint = (stableCoinsToMint > getMaxStableCoinsToMint(msg.value))\r\n                            ?getMaxStableCoinsToMint(msg.value):stableCoinsToMint;\r\n\r\n        require (stableCoinsToMint >= dao.params('minCoinsToMint'), \"you can not mint less than 1 coin\");\r\n\r\n        posID = numPositions++;\r\n        Position storage p = positions[posID];\r\n\r\n        p.coinsMinted = stableCoinsToMint;\r\n        p.wethAmountLocked = msg.value;\r\n        (bool successTransfer, ) = dao.addresses('weth').call{value: msg.value}(\"\");\r\n        require(successTransfer, 'Could not pass funds to weth contract for some reason');\r\n        p.owner = msg.sender;\r\n        p.timeOpened = block.timestamp;\r\n        p.lastTimeUpdated = block.timestamp;\r\n        p.interestAmountRecorded = 0;\r\n        p.interestRate = dao.params('interestRate');\r\n\r\n        coin.mint(msg.sender, stableCoinsToMint);\r\n\r\n        emit PositionOpened(p.owner, posID);\r\n\r\n        return posID;\r\n    }\r\n\r\n    function interestAmountUnrecorded(uint256 posID) public view returns (uint256 interestAmount) {\r\n        Position storage p = positions[posID];\r\n        return p.coinsMinted * (block.timestamp - p.lastTimeUpdated) * p.interestRate / 31536000 / 100;\r\n    }\r\n\r\n    function totalCurrentFee(uint256 posID) public view returns (uint256 fee){\r\n        return positions[posID].interestAmountRecorded + interestAmountUnrecorded(posID);\r\n    }\r\n\r\n    function getMaxStableCoinsToMint(uint256 ethValue) public view returns (uint256 amount) {\r\n        uint256 price = oracleCart.getPrice('stb');\r\n        uint256 decimals = oracleCart.getDecimals('etc');\r\n        return ethValue * price * (100 - dao.params('collateralDiscount'))/(10**decimals)/100;\r\n    }\r\n\r\n    function getMaxStableCoinsToMintForPos(uint256 posID) public view returns (uint256 maxAmount){\r\n        return getMaxStableCoinsToMint(positions[posID].wethAmountLocked) - totalCurrentFee(posID);\r\n    }\r\n\r\n    function claimInterest(uint256 amount, address beneficiary) external{\r\n        require(dao.isAuthorized(msg.sender), \"only authorized address may do this\");\r\n        if (coin.balanceOf(address(this))>amount)\r\n            coin.transfer(beneficiary, amount);\r\n        else {\r\n            uint256 difference = amount - coin.balanceOf(address(this));\r\n            coin.transfer(beneficiary, coin.balanceOf(address(this)));\r\n            coin.approve(beneficiary, difference+coin.allowance(address(this), beneficiary));\r\n        }\r\n    }\r\n\r\n    function claimEmission(uint256 amount, address beneficiary) external{\r\n        require(dao.isAuthorized(msg.sender), \"only authorized address may do this\");\r\n        coin.mint(beneficiary,amount);\r\n    }\r\n\r\n    function closeCDP(uint256 posID) external{\r\n        Position storage p = positions[posID];\r\n        require(p.owner == msg.sender, \"Only owner may close his position\");\r\n        require(!p.onLiquidation, \"This position is on liquidation\");\r\n        uint256 overallDebt = totalCurrentFee(posID)+p.coinsMinted;\r\n        require(coin.transferFrom(p.owner, address(this), overallDebt), \"Could not transfer coins for some reason. You have to allow coins first\");\r\n        require (weth.transfer(p.owner, p.wethAmountLocked), \"Could not transfer collateral for some reason\");\r\n        p.wethAmountLocked = 0;\r\n        coin.burn(address(this), p.coinsMinted);\r\n        p.coinsMinted = 0;\r\n        p.lastTimeUpdated = block.timestamp;\r\n        p.liquidated = true;\r\n    }\r\n\r\n    function transferInterest(uint256 posID) external{\r\n        Position storage p = positions[posID];\r\n        if (p.restrictInterestWithdrawal)\r\n            require(p.owner == msg.sender, \"Only owner may transfer interest\");\r\n        require(!p.onLiquidation, \"This position is on liquidation\");\r\n        require(coin.transferFrom(p.owner, address(this), totalCurrentFee(posID)), 'Was not able to transfer fee. Insufficient balance or allowance. Try to allow spending first');\r\n        p.interestAmountRecorded = 0;\r\n        p.lastTimeUpdated = block.timestamp;\r\n    }\r\n\r\n    function switchRestrictInterestWithdrawal(uint256 posID) external{\r\n        Position storage p = positions[posID];\r\n        require (p.owner == msg.sender, \"Only owner may set this property\");\r\n        p.restrictInterestWithdrawal = !p.restrictInterestWithdrawal;\r\n    }\r\n\r\n    function allowSurplusToAuction() external{\r\n        uint256 stabilizationFundAmount = dao.params('stabilizationFundPercent')*coin.totalSupply()/100;\r\n        require (coin.balanceOf(address(this)) >= stabilizationFundAmount, \"insufficient funds on CDP contract\");\r\n        uint256 surplus = coin.balanceOf(address(this)) - stabilizationFundAmount;\r\n        require (surplus >= dao.params('minCDPBalanceToInitBuyOut'), \"not enough surplus to start buyOut\");\r\n        require (coin.approve(dao.addresses('auction'), surplus), \"could not approve coins for some reason\");\r\n    }\r\n\r\n    function claimMarginCall(uint256 posID) external returns (bool success){\r\n        Position storage p = positions[posID];\r\n            require (p.markedOnLiquidationTimestamp >0 && block.timestamp - p.markedOnLiquidationTimestamp > dao.params('marginCallTimeLimit'), \"Position is not marked on liquidation or owner still has time\");\r\n        require(!p.onLiquidation && !p.liquidated, \"Position is already on liquidation or already liquidated\");\r\n        if (getMaxStableCoinsToMintForPos(posID) < p.coinsMinted) {\r\n            p.onLiquidation = true;\r\n            uint256 currentAllowance = weth.allowance(dao.addresses('cdp'), dao.addresses('auction'));\r\n            require(weth.approve(dao.addresses('auction'), currentAllowance+p.wethAmountLocked), \"could not approve weth for some reason\");\r\n            emit OnLiquidation(posID, block.timestamp);\r\n            return true;\r\n        }\r\n        else {\r\n            p.markedOnLiquidationTimestamp = 0;\r\n            return false;\r\n        }\r\n    }\r\n\r\n    function startCoinsBuyOut(uint256 posID) external{\r\n        Position storage p = positions[posID];\r\n        require (p.onLiquidation && !p.liquidated && p.liquidationAuctionID == 0, \"Position is not on liquidation or already liquidated, or auction was already started\");\r\n        p.liquidationAuctionID = auction.initCoinsBuyOut(posID, p.wethAmountLocked);\r\n        p.wethAmountLocked = 0;\r\n    }\r\n\r\n    function finishMarginCall(uint256 posID) external{\r\n        Position storage p = positions[posID];\r\n        require(p.onLiquidation && !p.liquidated && p.liquidationAuctionID !=0, \"Position is not on liquidation or was already liquidated or auction was not started\");\r\n        if (!auction.isFinalized(p.liquidationAuctionID))\r\n            require(auction.claimToFinalizeAuction(p.liquidationAuctionID), \"could not finalize auction\");\r\n\r\n        uint256 paymentAmount = auction.getPaymentAmount(p.liquidationAuctionID);\r\n\r\n        if (paymentAmount >=p.coinsMinted){\r\n            uint256 overallDebt = p.coinsMinted + totalCurrentFee(posID) + p.coinsMinted * dao.params('liquidationFee') / 100;\r\n            if (paymentAmount > overallDebt)\r\n                coin.transfer(p.owner, paymentAmount - overallDebt);\r\n            coin.burn(address(this), p.coinsMinted);\r\n            p.liquidated = true;\r\n            return;\r\n        }\r\n        else {\r\n            if (coin.balanceOf(address(this)) >= p.coinsMinted){\r\n                coin.burn(address(this), p.coinsMinted);\r\n                p.liquidated = true;\r\n                return;\r\n            }\r\n            else {\r\n                uint256 toBurn = coin.balanceOf(address(this));\r\n                coin.burn(address(this), toBurn);\r\n                p.coinsMinted -= toBurn;\r\n                auction.initCoinsBuyOutForStabilization(p.coinsMinted);\r\n            }\r\n        }\r\n    }\r\n\r\n    function markToLiquidate(uint256 posID) external{\r\n        Position storage p = positions[posID];\r\n        require (p.markedOnLiquidationTimestamp == 0 && !p.onLiquidation, \"This position is on liquidation or already marked\");\r\n        if (getMaxStableCoinsToMintForPos(posID) < p.coinsMinted) {\r\n            p.markedOnLiquidationTimestamp = block.timestamp;\r\n            emit markedOnLiquidation (posID, block.timestamp);\r\n        }\r\n    }\r\n\r\n    function eraseMarkToLiquidate(uint posID) external{\r\n        Position storage p = positions[posID];\r\n        require (p.markedOnLiquidationTimestamp >0 && !p.onLiquidation && !p.liquidated, \"This position is not marked or locked/liquidated\");\r\n        if (getMaxStableCoinsToMintForPos(posID) > p.coinsMinted) {\r\n            p.markedOnLiquidationTimestamp = 0;\r\n            emit markOnLiquidationErased (posID, block.timestamp);\r\n        }\r\n    }\r\n\r\n    function updateCDP(uint posID, uint newStableCoinsAmount) external payable returns (bool success){\r\n        Position storage p = positions[posID];\r\n        require(!p.onLiquidation, \"This position is on liquidation\");\r\n        require(p.owner == msg.sender, \"Only owner may update the position\");\r\n        require (newStableCoinsAmount >= dao.params('minCoinsToMint'), \"you can not mint less than 1 coin\");\r\n\r\n        p.interestAmountRecorded += interestAmountUnrecorded(posID);\r\n        p.lastTimeUpdated = block.timestamp;\r\n\r\n        if (msg.value>0) {\r\n            p.wethAmountLocked += msg.value;\r\n            (bool successTransfer, ) = dao.addresses('weth').call{value: msg.value}(\"\");\r\n            require(successTransfer, 'Could not pass funds to weth contract for some reason');\r\n        }\r\n\r\n        require(getMaxStableCoinsToMintForPos(posID) >= newStableCoinsAmount, 'not enough collateral to mint amount');\r\n\r\n        if (newStableCoinsAmount > p.coinsMinted) {\r\n            uint256 difference = newStableCoinsAmount - p.coinsMinted;\r\n            coin.mint(p.owner, difference);\r\n            p.coinsMinted = newStableCoinsAmount;\r\n            emit PositionUpdated(posID, newStableCoinsAmount, p.wethAmountLocked);\r\n            return true;\r\n        }\r\n\r\n        if (newStableCoinsAmount < p.coinsMinted) {\r\n            uint256 difference = p.coinsMinted - newStableCoinsAmount;\r\n            require(coin.balanceOf(p.owner)>=difference);\r\n            coin.burn(p.owner, difference);\r\n            p.coinsMinted = newStableCoinsAmount;\r\n            emit PositionUpdated(posID, newStableCoinsAmount, p.wethAmountLocked);\r\n            return true;\r\n        }\r\n\r\n        if (newStableCoinsAmount == p.coinsMinted) {\r\n            emit PositionUpdated(posID, newStableCoinsAmount, p.wethAmountLocked);\r\n            return true;\r\n        }\r\n    }\r\n\r\n    function withdrawEther (uint256 posID, uint256 etherToWithdraw) external{\r\n        Position storage p = positions[posID];\r\n        require(!p.onLiquidation, \"This position is on liquidation\");\r\n        require(p.owner == msg.sender, 'Only owner may update the position');\r\n        require (etherToWithdraw<p.wethAmountLocked, \"You dont have enough weth locked on this pos\");\r\n        uint256 wethToLeave = p.wethAmountLocked - etherToWithdraw;\r\n        uint256 maxCoins = getMaxStableCoinsToMint(wethToLeave) - totalCurrentFee(posID);\r\n        require (maxCoins>p.coinsMinted, \"you want to keep not enough weth to cover emission and current fee\");\r\n        p.wethAmountLocked -= etherToWithdraw;\r\n        weth.transfer(msg.sender, etherToWithdraw);\r\n        emit PositionUpdated (posID, p.coinsMinted, p.wethAmountLocked);\r\n    }\r\n\r\n    function burnRule() external{\r\n        rule.burn(address(this), rule.balanceOf(address(this)));\r\n    }\r\n\r\n    function mintRule(address to, uint256 amount) external returns (bool success){\r\n        require (msg.sender == dao.addresses('auction'), \"Only auction is allowed to claim mint\");\r\n        rule.mint(to, amount);\r\n        return true;\r\n    }\r\n}\r\n",
  "sourcePath": "C:\\Users\\d.nagornykh\\YandexDisk\\\\ICO\\CryptoFiat\\repo\\contracts\\CDP.sol",
  "compiler": {
    "name": "solc",
    "version": "0.8.19+commit.7dd6d404.Emscripten.clang"
  },
  "schemaVersion": "3.4.14",
  "updatedAt": "2023-08-17T09:35:28.981Z",
  "devdoc": {
    "kind": "dev",
    "methods": {},
    "version": 1
  },
  "userdoc": {
    "kind": "user",
    "methods": {},
    "version": 1
  }
}