{
  "contractName": "CDP",
  "abi": [
    {
      "inputs": [
        {
          "internalType": "address",
          "name": "INTDAOaddress",
          "type": "address"
        }
      ],
      "stateMutability": "nonpayable",
      "type": "constructor"
    },
    {
      "anonymous": false,
      "inputs": [
        {
          "indexed": false,
          "internalType": "address",
          "name": "owner",
          "type": "address"
        },
        {
          "indexed": false,
          "internalType": "uint256",
          "name": "posID",
          "type": "uint256"
        }
      ],
      "name": "PositionOpened",
      "type": "event"
    },
    {
      "anonymous": false,
      "inputs": [
        {
          "indexed": false,
          "internalType": "uint32",
          "name": "posID",
          "type": "uint32"
        },
        {
          "indexed": false,
          "internalType": "uint256",
          "name": "newStableCoinsAmount",
          "type": "uint256"
        },
        {
          "indexed": false,
          "internalType": "uint256",
          "name": "wethLocked",
          "type": "uint256"
        }
      ],
      "name": "PositionUpdated",
      "type": "event"
    },
    {
      "anonymous": false,
      "inputs": [
        {
          "indexed": false,
          "internalType": "uint32",
          "name": "posID",
          "type": "uint32"
        },
        {
          "indexed": false,
          "internalType": "uint24",
          "name": "liquidationStatus",
          "type": "uint24"
        }
      ],
      "name": "liquidationStatusChanged",
      "type": "event"
    },
    {
      "inputs": [],
      "name": "numPositions",
      "outputs": [
        {
          "internalType": "uint32",
          "name": "",
          "type": "uint32"
        }
      ],
      "stateMutability": "view",
      "type": "function"
    },
    {
      "inputs": [
        {
          "internalType": "uint32",
          "name": "",
          "type": "uint32"
        }
      ],
      "name": "positions",
      "outputs": [
        {
          "internalType": "uint128",
          "name": "coinsMinted",
          "type": "uint128"
        },
        {
          "internalType": "uint128",
          "name": "wethAmountLocked",
          "type": "uint128"
        },
        {
          "internalType": "uint128",
          "name": "interestAmountRecorded",
          "type": "uint128"
        },
        {
          "internalType": "uint32",
          "name": "timeOpened",
          "type": "uint32"
        },
        {
          "internalType": "uint32",
          "name": "lastTimeUpdated",
          "type": "uint32"
        },
        {
          "internalType": "uint24",
          "name": "interestRate",
          "type": "uint24"
        },
        {
          "internalType": "uint32",
          "name": "markedOnLiquidationTimestamp",
          "type": "uint32"
        },
        {
          "internalType": "uint24",
          "name": "liquidationStatus",
          "type": "uint24"
        },
        {
          "internalType": "uint32",
          "name": "liquidationAuctionID",
          "type": "uint32"
        },
        {
          "internalType": "bool",
          "name": "restrictInterestWithdrawal",
          "type": "bool"
        },
        {
          "internalType": "address",
          "name": "owner",
          "type": "address"
        }
      ],
      "stateMutability": "view",
      "type": "function"
    },
    {
      "inputs": [],
      "name": "renewContracts",
      "outputs": [],
      "stateMutability": "nonpayable",
      "type": "function"
    },
    {
      "inputs": [
        {
          "internalType": "uint256",
          "name": "stableCoinsToMint",
          "type": "uint256"
        }
      ],
      "name": "openCDP",
      "outputs": [
        {
          "internalType": "uint256",
          "name": "",
          "type": "uint256"
        }
      ],
      "stateMutability": "payable",
      "type": "function"
    },
    {
      "inputs": [
        {
          "internalType": "uint32",
          "name": "posID",
          "type": "uint32"
        }
      ],
      "name": "interestAmountUnrecorded",
      "outputs": [
        {
          "internalType": "uint256",
          "name": "interestAmount",
          "type": "uint256"
        }
      ],
      "stateMutability": "view",
      "type": "function"
    },
    {
      "inputs": [
        {
          "internalType": "uint32",
          "name": "posID",
          "type": "uint32"
        }
      ],
      "name": "totalCurrentFee",
      "outputs": [
        {
          "internalType": "uint256",
          "name": "fee",
          "type": "uint256"
        }
      ],
      "stateMutability": "view",
      "type": "function"
    },
    {
      "inputs": [
        {
          "internalType": "uint256",
          "name": "ethValue",
          "type": "uint256"
        }
      ],
      "name": "getMaxStableCoinsToMint",
      "outputs": [
        {
          "internalType": "uint256",
          "name": "amount",
          "type": "uint256"
        }
      ],
      "stateMutability": "view",
      "type": "function"
    },
    {
      "inputs": [
        {
          "internalType": "uint32",
          "name": "posID",
          "type": "uint32"
        }
      ],
      "name": "getMaxStableCoinsToMintForPos",
      "outputs": [
        {
          "internalType": "uint256",
          "name": "maxAmount",
          "type": "uint256"
        }
      ],
      "stateMutability": "view",
      "type": "function"
    },
    {
      "inputs": [
        {
          "internalType": "uint256",
          "name": "amount",
          "type": "uint256"
        },
        {
          "internalType": "address",
          "name": "beneficiary",
          "type": "address"
        }
      ],
      "name": "claimInterest",
      "outputs": [],
      "stateMutability": "nonpayable",
      "type": "function"
    },
    {
      "inputs": [
        {
          "internalType": "uint256",
          "name": "amount",
          "type": "uint256"
        },
        {
          "internalType": "address",
          "name": "beneficiary",
          "type": "address"
        }
      ],
      "name": "claimEmission",
      "outputs": [],
      "stateMutability": "nonpayable",
      "type": "function"
    },
    {
      "inputs": [
        {
          "internalType": "uint32",
          "name": "posID",
          "type": "uint32"
        }
      ],
      "name": "closeCDP",
      "outputs": [],
      "stateMutability": "nonpayable",
      "type": "function"
    },
    {
      "inputs": [
        {
          "internalType": "uint32",
          "name": "posID",
          "type": "uint32"
        }
      ],
      "name": "transferInterest",
      "outputs": [],
      "stateMutability": "nonpayable",
      "type": "function"
    },
    {
      "inputs": [
        {
          "internalType": "uint32",
          "name": "posID",
          "type": "uint32"
        }
      ],
      "name": "switchRestrictInterestWithdrawal",
      "outputs": [],
      "stateMutability": "nonpayable",
      "type": "function"
    },
    {
      "inputs": [],
      "name": "allowSurplusToAuction",
      "outputs": [],
      "stateMutability": "nonpayable",
      "type": "function"
    },
    {
      "inputs": [
        {
          "internalType": "uint32",
          "name": "posID",
          "type": "uint32"
        }
      ],
      "name": "claimMarginCall",
      "outputs": [],
      "stateMutability": "nonpayable",
      "type": "function"
    },
    {
      "inputs": [
        {
          "internalType": "uint32",
          "name": "posID",
          "type": "uint32"
        }
      ],
      "name": "startCoinsBuyOut",
      "outputs": [],
      "stateMutability": "nonpayable",
      "type": "function"
    },
    {
      "inputs": [
        {
          "internalType": "uint32",
          "name": "posID",
          "type": "uint32"
        }
      ],
      "name": "finishMarginCall",
      "outputs": [],
      "stateMutability": "nonpayable",
      "type": "function"
    },
    {
      "inputs": [
        {
          "internalType": "uint32",
          "name": "posID",
          "type": "uint32"
        }
      ],
      "name": "markToLiquidate",
      "outputs": [],
      "stateMutability": "nonpayable",
      "type": "function"
    },
    {
      "inputs": [
        {
          "internalType": "uint32",
          "name": "posID",
          "type": "uint32"
        }
      ],
      "name": "eraseMarkToLiquidate",
      "outputs": [],
      "stateMutability": "nonpayable",
      "type": "function"
    },
    {
      "inputs": [
        {
          "internalType": "uint32",
          "name": "posID",
          "type": "uint32"
        },
        {
          "internalType": "uint256",
          "name": "newStableCoinsAmount",
          "type": "uint256"
        }
      ],
      "name": "updateCDP",
      "outputs": [
        {
          "internalType": "bool",
          "name": "success",
          "type": "bool"
        }
      ],
      "stateMutability": "payable",
      "type": "function"
    },
    {
      "inputs": [
        {
          "internalType": "uint32",
          "name": "posID",
          "type": "uint32"
        },
        {
          "internalType": "uint128",
          "name": "etherToWithdraw",
          "type": "uint128"
        }
      ],
      "name": "withdrawEther",
      "outputs": [],
      "stateMutability": "nonpayable",
      "type": "function"
    },
    {
      "inputs": [],
      "name": "burnRule",
      "outputs": [],
      "stateMutability": "nonpayable",
      "type": "function"
    },
    {
      "inputs": [
        {
          "internalType": "address",
          "name": "to",
          "type": "address"
        },
        {
          "internalType": "uint256",
          "name": "amount",
          "type": "uint256"
        }
      ],
      "name": "mintRule",
      "outputs": [
        {
          "internalType": "bool",
          "name": "success",
          "type": "bool"
        }
      ],
      "stateMutability": "nonpayable",
      "type": "function"
    }
  ],
  "bytecode": "0x60a06040523480156200001157600080fd5b50604051620043733803806200437383398101604081905262000034916200004b565b60016000556001600160a01b03166080526200007d565b6000602082840312156200005e57600080fd5b81516001600160a01b03811681146200007657600080fd5b9392505050565b6080516142476200012c6000396000818161050c015281816108a401528181610ab801528181610b3a01528181610c3301528181610e0101528181610ebc01528181610f6f01528181611010015281816110b10152818161143c01528181611cd201528181611e21015281816124cc0152818161272d0152818161281d0152818161290b01528181612a8201528181612e49015281816130610152818161315201526132b201526142476000f3fe6080604052600436106101105760003560e01c80630403dc0914610115578063085c63a31461014a5780630beebd391461016c5780631b4796511461018157806320363781146101a157806323d86a65146101cf5780632d5e3d5b146101e45780633502a65e146102045780634b9d9b751461022457806355378f48146102375780635c412bb2146102575780635e71823b146102775780636530218d146102a15780636bb224c3146102c15780636e3682f1146102d45780637a7c0e01146102f45780637f660be1146103095780639b49eac014610329578063b83b402214610349578063caed013514610369578063ddde609014610389578063deebe410146103a9578063f6738f21146104d2575b600080fd5b34801561012157600080fd5b50610135610130366004613bfd565b6104f2565b60405190151581526020015b60405180910390f35b34801561015657600080fd5b5061016a610165366004613c3b565b610661565b005b34801561017857600080fd5b5061016a610769565b34801561018d57600080fd5b5061016a61019c366004613c3b565b610834565b3480156101ad57600080fd5b506101c16101bc366004613c3b565b610d8d565b604051908152602001610141565b3480156101db57600080fd5b5061016a610dd1565b3480156101f057600080fd5b5061016a6101ff366004613c3b565b611149565b34801561021057600080fd5b5061016a61021f366004613c3b565b6118b2565b610135610232366004613c58565b611c41565b34801561024357600080fd5b5061016a610252366004613c76565b6121d6565b34801561026357600080fd5b5061016a610272366004613cbb565b6124ad565b34801561028357600080fd5b506001546102949063ffffffff1681565b6040516101419190613ce0565b3480156102ad57600080fd5b506101c16102bc366004613cf1565b6125cc565b6101c16102cf366004613cf1565b6127db565b3480156102e057600080fd5b5061016a6102ef366004613c3b565b612c1a565b34801561030057600080fd5b5061016a612d88565b34801561031557600080fd5b5061016a610324366004613cbb565b613293565b34801561033557600080fd5b5061016a610344366004613c3b565b613683565b34801561035557600080fd5b5061016a610364366004613c3b565b6138c5565b34801561037557600080fd5b506101c1610384366004613c3b565b6139aa565b34801561039557600080fd5b506101c16103a4366004613c3b565b613a2b565b3480156103b557600080fd5b506104566103c4366004613c3b565b6006602052600090815260409020805460018201546002909201546001600160801b0380831693600160801b938490048216939181169291810463ffffffff90811692600160a01b8304821692600160c01b810462ffffff90811693600160d81b90920482169290811691630100000082041690600160381b810460ff1690600160401b90046001600160a01b03168b565b604080516001600160801b039c8d1681529a8c1660208c015298909a169789019790975263ffffffff9586166060890152938516608088015262ffffff92831660a088015290841660c08701521660e08501521661010083015215156101208201526001600160a01b0390911661014082015261016001610141565b3480156104de57600080fd5b5061016a6104ed366004613c3b565b613a62565b60405163bdfe7d4760e01b81526000906001600160a01b037f0000000000000000000000000000000000000000000000000000000000000000169063bdfe7d479061053f90600401613d0a565b602060405180830381865afa15801561055c573d6000803e3d6000fd5b505050506040513d601f19601f820116820180604052508101906105809190613d2b565b6001600160a01b0316336001600160a01b0316146105f35760405162461bcd60e51b815260206004820152602560248201527f4f6e6c792061756374696f6e20697320616c6c6f77656420746f20636c61696d604482015264081b5a5b9d60da1b60648201526084015b60405180910390fd5b600480546040516340c10f1960e01b81526001600160a01b03909116916340c10f1991610624918791879101613d48565b600060405180830381600087803b15801561063e57600080fd5b505af1158015610652573d6000803e3d6000fd5b50505050600190505b92915050565b63ffffffff808216600090815260066020526040902060018101549091600160d81b9091041615801561069b5750600281015462ffffff16155b6106e15760405162461bcd60e51b815260206004820152601760248201527677726f6e67206c69717569646174696f6e53746174757360481b60448201526064016105ea565b80546001600160801b03166106f583610d8d565b106107395760405162461bcd60e51b81526020600482015260146024820152730c6ded8d8c2e8cae4c2d840d2e640cadcdeeaced60631b60448201526064016105ea565b6001818101805463ffffffff60d81b1916600160d81b4263ffffffff1602179055610765908390613afd565b5050565b600480546040516370a0823160e01b81526001600160a01b0390911691639dc29fac91309184916370a08231916107a291859101613d61565b602060405180830381865afa1580156107bf573d6000803e3d6000fd5b505050506040513d601f19601f820116820180604052508101906107e39190613d75565b6040518363ffffffff1660e01b8152600401610800929190613d48565b600060405180830381600087803b15801561081a57600080fd5b505af115801561082e573d6000803e3d6000fd5b50505050565b61083c613b8f565b63ffffffff808216600090815260066020526040902060018101549091600160d81b9091041615801590610935575060405163145f822b60e01b81526020600482015260136024820152721b585c99da5b90d85b1b151a5b59531a5b5a5d606a1b60448201527f00000000000000000000000000000000000000000000000000000000000000006001600160a01b03169063145f822b90606401602060405180830381865afa1580156108f3573d6000803e3d6000fd5b505050506040513d601f19601f820116820180604052508101906109179190613d75565b600182015461093390600160d81b900463ffffffff1642613da4565b115b6109a75760405162461bcd60e51b815260206004820152603d60248201527f506f736974696f6e206973206e6f74206d61726b6564206f6e206c697175696460448201527f6174696f6e206f72206f776e6572207374696c6c206861732074696d6500000060648201526084016105ea565b600281015462ffffff166001146109fb5760405162461bcd60e51b815260206004820152601860248201527757726f6e67206c69717569646174696f6e2073746174757360401b60448201526064016105ea565b80546001600160801b0316610a0f83610d8d565b10610a6c5760405162461bcd60e51b815260206004820152602760248201527f436f6c6c61746572616c20697320656e6f7567682c2073686f756c64206572616044820152667365206d61726b60c81b60648201526084016105ea565b610a77826002613afd565b60055460405163bdfe7d4760e01b815260206004820152600360248201526206364760ec1b60448201526000916001600160a01b039081169163dd62ed3e917f0000000000000000000000000000000000000000000000000000000000000000169063bdfe7d4790606401602060405180830381865afa158015610aff573d6000803e3d6000fd5b505050506040513d601f19601f82011682018060405250810190610b239190613d2b565b60405163bdfe7d4760e01b81526001600160a01b037f0000000000000000000000000000000000000000000000000000000000000000169063bdfe7d4790610b6d90600401613d0a565b602060405180830381865afa158015610b8a573d6000803e3d6000fd5b505050506040513d601f19601f82011682018060405250810190610bae9190613d2b565b6040518363ffffffff1660e01b8152600401610bcb929190613db7565b602060405180830381865afa158015610be8573d6000803e3d6000fd5b505050506040513d601f19601f82011682018060405250810190610c0c9190613d75565b60055460405163bdfe7d4760e01b81529192506001600160a01b039081169163095ea7b3917f0000000000000000000000000000000000000000000000000000000000000000169063bdfe7d4790610c6690600401613d0a565b602060405180830381865afa158015610c83573d6000803e3d6000fd5b505050506040513d601f19601f82011682018060405250810190610ca79190613d2b565b8454610cc390600160801b90046001600160801b031685613dd1565b6040518363ffffffff1660e01b8152600401610ce0929190613d48565b6020604051808303816000875af1158015610cff573d6000803e3d6000fd5b505050506040513d601f19601f82011682018060405250810190610d239190613de4565b610d7e5760405162461bcd60e51b815260206004820152602660248201527f636f756c64206e6f7420617070726f7665207765746820666f7220736f6d65206044820152653932b0b9b7b760d11b60648201526084016105ea565b5050610d8a6001600055565b50565b6000610d9882613a2b565b63ffffffff8316600090815260066020526040902054610dc790600160801b90046001600160801b03166125cc565b61065b9190613da4565b60405163bdfe7d4760e01b815260206004820152600a60248201526939ba30b13632a1b7b4b760b11b60448201527f00000000000000000000000000000000000000000000000000000000000000006001600160a01b03169063bdfe7d4790606401602060405180830381865afa158015610e50573d6000803e3d6000fd5b505050506040513d601f19601f82011682018060405250810190610e749190613d2b565b600280546001600160a01b0319166001600160a01b0392831617905560405163bdfe7d4760e01b8152602060048083019190915260248201526372756c6560e01b60448201527f00000000000000000000000000000000000000000000000000000000000000009091169063bdfe7d4790606401602060405180830381865afa158015610f05573d6000803e3d6000fd5b505050506040513d601f19601f82011682018060405250810190610f299190613d2b565b600480546001600160a01b0319166001600160a01b0392831617815560405163bdfe7d4760e01b815260208183015260248101919091526318d85c9d60e21b60448201527f00000000000000000000000000000000000000000000000000000000000000009091169063bdfe7d4790606401602060405180830381865afa158015610fb8573d6000803e3d6000fd5b505050506040513d601f19601f82011682018060405250810190610fdc9190613d2b565b60018054600160201b600160c01b031916600160201b6001600160a01b039384160217905560405163bdfe7d4760e01b81527f00000000000000000000000000000000000000000000000000000000000000009091169063bdfe7d479061104590600401613d0a565b602060405180830381865afa158015611062573d6000803e3d6000fd5b505050506040513d601f19601f820116820180604052508101906110869190613d2b565b600380546001600160a01b0319166001600160a01b0392831617905560405163bdfe7d4760e01b81527f00000000000000000000000000000000000000000000000000000000000000009091169063bdfe7d47906110e690600401613e06565b602060405180830381865afa158015611103573d6000803e3d6000fd5b505050506040513d601f19601f820116820180604052508101906111279190613d2b565b600580546001600160a01b0319166001600160a01b0392909216919091179055565b611151613b8f565b63ffffffff8116600090815260066020526040902060028082015462ffffff1614801561118e575060028101546301000000900463ffffffff1615155b61120e5760405162461bcd60e51b815260206004820152605760248201526000805160206141d283398151915260448201527f722077617320616c7265616479206c697175696461746564206f7220617563746064820152761a5bdb881dd85cc8185b1c9958591e481cdd185c9d1959604a1b608482015260a4016105ea565b600354600282015460405163c745f33f60e01b81526001600160a01b039092169163c745f33f9161125091630100000090910463ffffffff1690600401613ce0565b602060405180830381865afa15801561126d573d6000803e3d6000fd5b505050506040513d601f19601f820116820180604052508101906112919190613de4565b611363576003546002820154604051635e924d5b60e11b81526001600160a01b039092169163bd249ab6916112d791630100000090910463ffffffff1690600401613ce0565b6020604051808303816000875af11580156112f6573d6000803e3d6000fd5b505050506040513d601f19601f8201168201806040525081019061131a9190613de4565b6113635760405162461bcd60e51b815260206004820152601a60248201527931b7bab632103737ba103334b730b634bd329030bab1ba34b7b760311b60448201526064016105ea565b6003546002820154604051634175720160e11b81526000926001600160a01b0316916382eae402916113a5916301000000900463ffffffff1690600401613ce0565b602060405180830381865afa1580156113c2573d6000803e3d6000fd5b505050506040513d601f19601f820116820180604052508101906113e69190613d75565b82549091506001600160801b031681106116065760405163145f822b60e01b815260206004820152600e60248201526d6c69717569646174696f6e46656560901b60448201526000906064906001600160a01b037f0000000000000000000000000000000000000000000000000000000000000000169063145f822b908301602060405180830381865afa158015611482573d6000803e3d6000fd5b505050506040513d601f19601f820116820180604052508101906114a69190613d75565b84546114bb91906001600160801b0316613e24565b6114c59190613e3b565b6114ce85613a2b565b84546114e391906001600160801b0316613dd1565b6114ed9190613dd1565b9050808211156115855760028054908401546001600160a01b039182169163a9059cbb91600160401b9004166115238486613da4565b6040518363ffffffff1660e01b8152600401611540929190613d48565b6020604051808303816000875af115801561155f573d6000803e3d6000fd5b505050506040513d601f19601f820116820180604052508101906115839190613de4565b505b6002548354604051632770a7eb60e21b81526001600160a01b0390921691639dc29fac916115c19130916001600160801b031690600401613e5d565b600060405180830381600087803b1580156115db57600080fd5b505af11580156115ef573d6000803e3d6000fd5b505050506115fe846003613afd565b5050506118a8565b81546002546040516370a0823160e01b81526001600160801b03909216916001600160a01b03909116906370a0823190611644903090600401613d61565b602060405180830381865afa158015611661573d6000803e3d6000fd5b505050506040513d601f19601f820116820180604052508101906116859190613d75565b1061170a576002548254604051632770a7eb60e21b81526001600160a01b0390921691639dc29fac916116c69130916001600160801b031690600401613e5d565b600060405180830381600087803b1580156116e057600080fd5b505af11580156116f4573d6000803e3d6000fd5b50505050611703836003613afd565b50506118a8565b6002546040516370a0823160e01b81526000916001600160a01b0316906370a082319061173b903090600401613d61565b602060405180830381865afa158015611758573d6000803e3d6000fd5b505050506040513d601f19601f8201168201806040525081019061177c9190613d75565b600254604051632770a7eb60e21b81529192506001600160a01b031690639dc29fac906117af9030908590600401613d48565b600060405180830381600087803b1580156117c957600080fd5b505af11580156117dd573d6000803e3d6000fd5b505084548392508591506000906117fe9084906001600160801b0316613e7f565b82546101009290920a6001600160801b0381810219909316918316021790915560035485546001600160a01b03909116925063f85badde9161184291869116613da4565b6040518263ffffffff1660e01b815260040161186091815260200190565b6020604051808303816000875af115801561187f573d6000803e3d6000fd5b505050506040513d601f19601f820116820180604052508101906118a39190613d75565b505050505b610d8a6001600055565b6118ba613b8f565b63ffffffff811660009081526006602052604090206002810154600160401b90046001600160a01b0316331461193c5760405162461bcd60e51b815260206004820152602160248201527f4f6e6c79206f776e6572206d617920636c6f73652068697320706f736974696f6044820152603760f91b60648201526084016105ea565b60028181015462ffffff16106119a75760405162461bcd60e51b815260206004820152603c60248201526000805160206141f283398151915260448201527b1bdc88185b1c9958591e481b1a5c5d5a59185d19590bd8db1bdcd95960221b60648201526084016105ea565b80546000906001600160801b03166119be84613a2b565b6119c89190613dd1565b60028054908401546040516323b872dd60e01b81529293506001600160a01b03918216926323b872dd92611a0b92600160401b9004169030908690600401613ea6565b6020604051808303816000875af1158015611a2a573d6000803e3d6000fd5b505050506040513d601f19601f82011682018060405250810190611a4e9190613de4565b611ad05760405162461bcd60e51b815260206004820152604760248201527f436f756c64206e6f74207472616e7366657220636f696e7320666f7220736f6d60448201527f6520726561736f6e2e20596f75206861766520746f20616c6c6f7720636f696e6064820152661cc8199a5c9cdd60ca1b608482015260a4016105ea565b6005546002830154835460405163a9059cbb60e01b81526001600160a01b039384169363a9059cbb93611b2393600160401b90910490911691600160801b9091046001600160801b031690600401613e5d565b6020604051808303816000875af1158015611b42573d6000803e3d6000fd5b505050506040513d601f19601f82011682018060405250810190611b669190613de4565b611bc85760405162461bcd60e51b815260206004820152602d60248201527f436f756c64206e6f74207472616e7366657220636f6c6c61746572616c20666f60448201526c391039b7b6b2903932b0b9b7b760991b60648201526084016105ea565b6002548254604051632770a7eb60e21b81526001600160a01b0390921691639dc29fac91611c049130916001600160801b031690600401613e5d565b600060405180830381600087803b158015611c1e57600080fd5b505af1158015611c32573d6000803e3d6000fd5b50505050610d7e836004613afd565b6000611c4b613b8f565b63ffffffff8316600090815260066020526040902060028082015462ffffff1610611c885760405162461bcd60e51b81526004016105ea90613eca565b6002810154600160401b90046001600160a01b03163314611cbb5760405162461bcd60e51b81526004016105ea90613efb565b60405163145f822b60e01b81526001600160a01b037f0000000000000000000000000000000000000000000000000000000000000000169063145f822b90611d0590600401613f3d565b602060405180830381865afa158015611d22573d6000803e3d6000fd5b505050506040513d601f19601f82011682018060405250810190611d469190613d75565b831015611d655760405162461bcd60e51b81526004016105ea90613f65565b611d6e846139aa565b600182018054600090611d8b9084906001600160801b0316613fa6565b82546101009290920a6001600160801b038181021990931691909216919091021790555060018101805463ffffffff60a01b1916600160a01b4263ffffffff16021790553415611f1c57805434908290601090611df9908490600160801b90046001600160801b0316613fa6565b92506101000a8154816001600160801b0302191690836001600160801b0316021790555060007f00000000000000000000000000000000000000000000000000000000000000006001600160a01b031663bdfe7d476040518163ffffffff1660e01b8152600401611e6990613e06565b602060405180830381865afa158015611e86573d6000803e3d6000fd5b505050506040513d601f19601f82011682018060405250810190611eaa9190613d2b565b6001600160a01b03163460405160006040518083038185875af1925050503d8060008114611ef4576040519150601f19603f3d011682016040523d82523d6000602084013e611ef9565b606091505b5050905080611f1a5760405162461bcd60e51b81526004016105ea90613fc6565b505b82611f2685610d8d565b1015611f805760405162461bcd60e51b8152602060048201526024808201527f6e6f7420656e6f75676820636f6c6c61746572616c20746f206d696e7420616d6044820152631bdd5b9d60e21b60648201526084016105ea565b80546001600160801b0316831115612038578054600090611faa906001600160801b031685613da4565b60028054908401546040516340c10f1960e01b81529293506001600160a01b03918216926340c10f1992611feb92600160401b900416908590600401613d48565b600060405180830381600087803b15801561200557600080fd5b505af1158015612019573d6000803e3d6000fd5b505083546001600160801b0319166001600160801b0387161784555050505b80546001600160801b03168310156121815780546000906120639085906001600160801b0316613da4565b60028054908401546040516370a0823160e01b815292935083926001600160a01b03928316926370a08231926120a792600160401b90910490911690600401613d61565b602060405180830381865afa1580156120c4573d6000803e3d6000fd5b505050506040513d601f19601f820116820180604052508101906120e89190613d75565b10156120f357600080fd5b6002805490830154604051632770a7eb60e21b81526001600160a01b0392831692639dc29fac9261213492600160401b909104909116908590600401613d48565b600060405180830381600087803b15801561214e57600080fd5b505af1158015612162573d6000803e3d6000fd5b505083546001600160801b0319166001600160801b0387161784555050505b80546040805163ffffffff8716815260208101869052600160801b9092046001600160801b0316908201526000805160206141b28339815191529060600160405180910390a1600191505061065b6001600055565b6121de613b8f565b63ffffffff82166000908152600660205260409020600281015462ffffff161561221a5760405162461bcd60e51b81526004016105ea90613eca565b6002810154600160401b90046001600160a01b0316331461224d5760405162461bcd60e51b81526004016105ea90613efb565b80546001600160801b03600160801b9091048116908316106122c65760405162461bcd60e51b815260206004820152602c60248201527f596f7520646f6e74206861766520656e6f7567682077657468206c6f636b656460448201526b206f6e207468697320706f7360a01b60648201526084016105ea565b80546000906122e6908490600160801b90046001600160801b0316613e7f565b6001600160801b0316905060006122fc85613a2b565b612305836125cc565b61230f9190613da4565b83549091506001600160801b0316811161239c5760405162461bcd60e51b815260206004820152604260248201527f796f752077616e7420746f206b656570206e6f7420656e6f756768207765746860448201527f20746f20636f76657220656d697373696f6e20616e642063757272656e742066606482015261656560f01b608482015260a4016105ea565b8254849084906010906123c0908490600160801b90046001600160801b0316613e7f565b82546001600160801b039182166101009390930a92830291909202199091161790555060055460405163a9059cbb60e01b81526001600160a01b039091169063a9059cbb906124159033908890600401613e5d565b6020604051808303816000875af1158015612434573d6000803e3d6000fd5b505050506040513d601f19601f820116820180604052508101906124589190613de4565b5082546040805163ffffffff881681526001600160801b038084166020830152600160801b90930490921682820152516000805160206141b28339815191529181900360600190a15050506107656001600055565b6124b5613b8f565b6040516301fd3f7760e71b81526001600160a01b037f0000000000000000000000000000000000000000000000000000000000000000169063fe9fbb8090612501903390600401613d61565b602060405180830381865afa15801561251e573d6000803e3d6000fd5b505050506040513d601f19601f820116820180604052508101906125429190613de4565b61255e5760405162461bcd60e51b81526004016105ea9061401b565b6002546040516340c10f1960e01b81526001600160a01b03909116906340c10f19906125909084908690600401613d48565b600060405180830381600087803b1580156125aa57600080fd5b505af11580156125be573d6000803e3d6000fd5b505050506107656001600055565b60015460405163524f388960e01b815260206004820152600360248201526239ba3160e91b60448201526000918291600160201b9091046001600160a01b03169063524f388990606401602060405180830381865afa158015612633573d6000803e3d6000fd5b505050506040513d601f19601f820116820180604052508101906126579190613d75565b60015460405163afd0fd1d60e01b815260206004820152600360248201526265746360e81b6044820152919250600091600160201b9091046001600160a01b03169063afd0fd1d90606401602060405180830381865afa1580156126bf573d6000803e3d6000fd5b505050506040513d601f19601f820116820180604052508101906126e3919061405e565b60ff16905060646126f582600a614165565b60405163145f822b60e01b815260206004820152601260248201527118dbdb1b185d195c985b111a5cd8dbdd5b9d60721b60448201527f00000000000000000000000000000000000000000000000000000000000000006001600160a01b03169063145f822b90606401602060405180830381865afa15801561277c573d6000803e3d6000fd5b505050506040513d601f19601f820116820180604052508101906127a09190613d75565b6127ab906064613da4565b6127b58588613e24565b6127bf9190613e24565b6127c99190613e3b565b6127d39190613e3b565b949350505050565b60006127e5613b8f565b6127ee346125cc565b82116127fa5781612803565b612803346125cc565b60405163145f822b60e01b81529092506001600160a01b037f0000000000000000000000000000000000000000000000000000000000000000169063145f822b9061285090600401613f3d565b602060405180830381865afa15801561286d573d6000803e3d6000fd5b505050506040513d601f19601f820116820180604052508101906128919190613d75565b6128a390670de0b6b3a7640000613e24565b8210156128c25760405162461bcd60e51b81526004016105ea90613f65565b60015463ffffffff16600090815260066020526040808220346001600160801b03908116600160801b02908616178155905163bdfe7d4760e01b81529091906001600160a01b037f0000000000000000000000000000000000000000000000000000000000000000169063bdfe7d479061293e90600401613e06565b602060405180830381865afa15801561295b573d6000803e3d6000fd5b505050506040513d601f19601f8201168201806040525081019061297f9190613d2b565b6001600160a01b03163460405160006040518083038185875af1925050503d80600081146129c9576040519150601f19603f3d011682016040523d82523d6000602084013e6129ce565b606091505b50509050806129ef5760405162461bcd60e51b81526004016105ea90613fc6565b600282018054600160401b600160e01b03191633600160401b02179055600182018054600160801b600160c01b031916600160801b4263ffffffff1690810263ffffffff60a01b191691909117600160a01b9190910217905560405163145f822b60e01b815260206004820152600c60248201526b696e7465726573745261746560a01b60448201526001600160a01b037f0000000000000000000000000000000000000000000000000000000000000000169063145f822b90606401602060405180830381865afa158015612ac9573d6000803e3d6000fd5b505050506040513d601f19601f82011682018060405250810190612aed9190613d75565b60018301805462ffffff92909216600160c01b0262ffffff60c01b199092169190911790556002546040516340c10f1960e01b81526001600160a01b03909116906340c10f1990612b449033908890600401613d48565b600060405180830381600087803b158015612b5e57600080fd5b505af1158015612b72573d6000803e3d6000fd5b50505050600282015460015460408051600160401b9093046001600160a01b0316835263ffffffff90911660208301527f7033b91d43234ea7f0b72ec01052e5285ce842c91dcf6ab963fa44a548741720910160405180910390a16001805463ffffffff16906000612be383614171565b91906101000a81548163ffffffff021916908363ffffffff16021790555063ffffffff1692505050612c156001600055565b919050565b612c22613b8f565b63ffffffff8116600090815260066020526040902060028082015462ffffff16148015612c5e575060028101546301000000900463ffffffff16155b612cbe5760405162461bcd60e51b815260206004820152603d60248201526000805160206141d283398151915260448201527f722061756374696f6e2077617320616c7265616479207374617274656400000060648201526084016105ea565b600354815460405163735dbd7760e01b815263ffffffff85166004820152600160801b9091046001600160801b031660248201526001600160a01b039091169063735dbd77906044016020604051808303816000875af1158015612d26573d6000803e3d6000fd5b505050506040513d601f19601f82011682018060405250810190612d4a9190614194565b60028201805463ffffffff9290921663010000000266ffffffff0000001990921691909117905580546001600160801b03169055610d8a6001600055565b612d90613b8f565b60006064600260009054906101000a90046001600160a01b03166001600160a01b03166318160ddd6040518163ffffffff1660e01b8152600401602060405180830381865afa158015612de7573d6000803e3d6000fd5b505050506040513d601f19601f82011682018060405250810190612e0b9190613d75565b60405163145f822b60e01b81526020600482015260186024820152771cdd18589a5b1a5e985d1a5bdb919d5b9914195c98d95b9d60421b60448201527f00000000000000000000000000000000000000000000000000000000000000006001600160a01b03169063145f822b90606401602060405180830381865afa158015612e98573d6000803e3d6000fd5b505050506040513d601f19601f82011682018060405250810190612ebc9190613d75565b612ec69190613e24565b612ed09190613e3b565b6002546040516370a0823160e01b815291925082916001600160a01b03909116906370a0823190612f05903090600401613d61565b602060405180830381865afa158015612f22573d6000803e3d6000fd5b505050506040513d601f19601f82011682018060405250810190612f469190613d75565b1015612f9f5760405162461bcd60e51b815260206004820152602260248201527f696e73756666696369656e742066756e6473206f6e2043445020636f6e74726160448201526118dd60f21b60648201526084016105ea565b6002546040516370a0823160e01b815260009183916001600160a01b03909116906370a0823190612fd4903090600401613d61565b602060405180830381865afa158015612ff1573d6000803e3d6000fd5b505050506040513d601f19601f820116820180604052508101906130159190613d75565b61301f9190613da4565b60405163145f822b60e01b81526020600482015260196024820152781b5a5b90d11410985b185b98d9551bd25b9a5d109d5e53dd5d603a1b60448201529091507f00000000000000000000000000000000000000000000000000000000000000006001600160a01b03169063145f822b90606401602060405180830381865afa1580156130b0573d6000803e3d6000fd5b505050506040513d601f19601f820116820180604052508101906130d49190613d75565b81101561312e5760405162461bcd60e51b815260206004820152602260248201527f6e6f7420656e6f75676820737572706c757320746f207374617274206275794f6044820152611d5d60f21b60648201526084016105ea565b60025460405163bdfe7d4760e01b81526001600160a01b039182169163095ea7b3917f00000000000000000000000000000000000000000000000000000000000000009091169063bdfe7d479061318790600401613d0a565b602060405180830381865afa1580156131a4573d6000803e3d6000fd5b505050506040513d601f19601f820116820180604052508101906131c89190613d2b565b836040518363ffffffff1660e01b81526004016131e6929190613d48565b6020604051808303816000875af1158015613205573d6000803e3d6000fd5b505050506040513d601f19601f820116820180604052508101906132299190613de4565b6132855760405162461bcd60e51b815260206004820152602760248201527f636f756c64206e6f7420617070726f766520636f696e7320666f7220736f6d65604482015266103932b0b9b7b760c91b60648201526084016105ea565b50506132916001600055565b565b61329b613b8f565b6040516301fd3f7760e71b81526001600160a01b037f0000000000000000000000000000000000000000000000000000000000000000169063fe9fbb80906132e7903390600401613d61565b602060405180830381865afa158015613304573d6000803e3d6000fd5b505050506040513d601f19601f820116820180604052508101906133289190613de4565b6133445760405162461bcd60e51b81526004016105ea9061401b565b6002546040516370a0823160e01b815283916001600160a01b0316906370a0823190613374903090600401613d61565b602060405180830381865afa158015613391573d6000803e3d6000fd5b505050506040513d601f19601f820116820180604052508101906133b59190613d75565b11156134365760025460405163a9059cbb60e01b81526001600160a01b039091169063a9059cbb906133ed9084908690600401613d48565b6020604051808303816000875af115801561340c573d6000803e3d6000fd5b505050506040513d601f19601f820116820180604052508101906134309190613de4565b50613679565b6002546040516370a0823160e01b81526000916001600160a01b0316906370a0823190613467903090600401613d61565b602060405180830381865afa158015613484573d6000803e3d6000fd5b505050506040513d601f19601f820116820180604052508101906134a89190613d75565b6134b29084613da4565b6002546040516370a0823160e01b81529192506001600160a01b03169063a9059cbb90849083906370a08231906134ed903090600401613d61565b602060405180830381865afa15801561350a573d6000803e3d6000fd5b505050506040513d601f19601f8201168201806040525081019061352e9190613d75565b6040518363ffffffff1660e01b815260040161354b929190613d48565b6020604051808303816000875af115801561356a573d6000803e3d6000fd5b505050506040513d601f19601f8201168201806040525081019061358e9190613de4565b50600254604051636eb1769f60e11b81526001600160a01b039091169063095ea7b3908490839063dd62ed3e906135cb9030908590600401613db7565b602060405180830381865afa1580156135e8573d6000803e3d6000fd5b505050506040513d601f19601f8201168201806040525081019061360c9190613d75565b6136169085613dd1565b6040518363ffffffff1660e01b8152600401613633929190613d48565b6020604051808303816000875af1158015613652573d6000803e3d6000fd5b505050506040513d601f19601f820116820180604052508101906136769190613de4565b50505b6107656001600055565b61368b613b8f565b63ffffffff811660009081526006602052604090206002810154600160381b900460ff1615613717576002810154600160401b90046001600160a01b031633146137175760405162461bcd60e51b815260206004820181905260248201527f4f6e6c79206f776e6572206d6179207472616e7366657220696e74657265737460448201526064016105ea565b60028181015462ffffff16106137735760405162461bcd60e51b815260206004820152602d60248201526000805160206141f283398151915260448201526c1bdc881b1a5c5d5a59185d1959609a1b60648201526084016105ea565b60028054908201546001600160a01b03918216916323b872dd91600160401b9004163061379f86613a2b565b6040518463ffffffff1660e01b81526004016137bd93929190613ea6565b6020604051808303816000875af11580156137dc573d6000803e3d6000fd5b505050506040513d601f19601f820116820180604052508101906138009190613de4565b6138975760405162461bcd60e51b815260206004820152605c60248201527f576173206e6f742061626c6520746f207472616e73666572206665652e20496e60448201527f73756666696369656e742062616c616e6365206f7220616c6c6f77616e63652e60648201527b08151c9e481d1bc8185b1b1bddc81cdc195b991a5b99c8199a5c9cdd60221b608482015260a4016105ea565b60019081018054600167ffffffff0000000160801b031916600160a01b4263ffffffff160217905560005550565b63ffffffff808216600090815260066020526040902060018101549091600160d81b90910416158015906139025750600281015462ffffff166001145b61396f5760405162461bcd60e51b815260206004820152603860248201527f5468697320706f736974696f6e206973206e6f74206d61726b6564206f72206f6044820152771b881b1a5c5d5a59185d1a5bdb8bdb1a5c5d5a59185d195960421b60648201526084016105ea565b80546001600160801b031661398383610d8d565b1161398d57600080fd5b60018101805463ffffffff60d81b19169055610765826000613afd565b63ffffffff80821660009081526006602052604081206001810154919290916064916301e133809162ffffff600160c01b820416916139f191600160a01b90041642613da4565b8454613a0691906001600160801b0316613e24565b613a109190613e24565b613a1a9190613e3b565b613a249190613e3b565b9392505050565b6000613a36826139aa565b63ffffffff831660009081526006602052604090206001015461065b91906001600160801b0316613dd1565b63ffffffff811660009081526006602052604090206002810154600160401b90046001600160a01b03163314613ada5760405162461bcd60e51b815260206004820181905260248201527f4f6e6c79206f776e6572206d61792073657420746869732070726f706572747960448201526064016105ea565b600201805460ff60381b198116600160381b9182900460ff161590910217905550565b63ffffffff82811660008181526006602090815260409182902060028101805462ffffff191662ffffff881690811790915560018201805463ffffffff60a01b1916600160a01b4290981697909702969096179095558251938452908301939093527fb178ef024f193469eaf1f07de14c7fdb010da53f3c6a5b82c968d0e12138192c910160405180910390a1505050565b600260005403613be15760405162461bcd60e51b815260206004820152601f60248201527f5265656e7472616e637947756172643a207265656e7472616e742063616c6c0060448201526064016105ea565b6002600055565b6001600160a01b0381168114610d8a57600080fd5b60008060408385031215613c1057600080fd5b8235613c1b81613be8565b946020939093013593505050565b63ffffffff81168114610d8a57600080fd5b600060208284031215613c4d57600080fd5b8135613a2481613c29565b60008060408385031215613c6b57600080fd5b8235613c1b81613c29565b60008060408385031215613c8957600080fd5b8235613c9481613c29565b915060208301356001600160801b0381168114613cb057600080fd5b809150509250929050565b60008060408385031215613cce57600080fd5b823591506020830135613cb081613be8565b63ffffffff91909116815260200190565b600060208284031215613d0357600080fd5b5035919050565b60208082526007908201526630bab1ba34b7b760c91b604082015260600190565b600060208284031215613d3d57600080fd5b8151613a2481613be8565b6001600160a01b03929092168252602082015260400190565b6001600160a01b0391909116815260200190565b600060208284031215613d8757600080fd5b5051919050565b634e487b7160e01b600052601160045260246000fd5b8181038181111561065b5761065b613d8e565b6001600160a01b0392831681529116602082015260400190565b8082018082111561065b5761065b613d8e565b600060208284031215613df657600080fd5b81518015158114613a2457600080fd5b6020808252600490820152630eecae8d60e31b604082015260600190565b808202811582820484141761065b5761065b613d8e565b600082613e5857634e487b7160e01b600052601260045260246000fd5b500490565b6001600160a01b039290921682526001600160801b0316602082015260400190565b6001600160801b03828116828216039080821115613e9f57613e9f613d8e565b5092915050565b6001600160a01b039384168152919092166020820152604081019190915260600190565b60208082526017908201527657726f6e67206c69717569646174696f6e53746174757360481b604082015260600190565b60208082526022908201527f4f6e6c79206f776e6572206d6179207570646174652074686520706f7369746960408201526137b760f11b606082015260800190565b6020808252600e908201526d1b5a5b90dbda5b9cd51bd35a5b9d60921b604082015260600190565b60208082526021908201527f796f752063616e206e6f74206d696e74206c657373207468616e203120636f696040820152603760f91b606082015260800190565b6001600160801b03818116838216019080821115613e9f57613e9f613d8e565b60208082526035908201527f436f756c64206e6f7420706173732066756e647320746f207765746820636f6e6040820152743a3930b1ba103337b91039b7b6b2903932b0b9b7b760591b606082015260800190565b60208082526023908201527f6f6e6c7920617574686f72697a65642061646472657373206d617920646f207460408201526268697360e81b606082015260800190565b60006020828403121561407057600080fd5b815160ff81168114613a2457600080fd5b600181815b808511156140bc5781600019048211156140a2576140a2613d8e565b808516156140af57918102915b93841c9390800290614086565b509250929050565b6000826140d35750600161065b565b816140e05750600061065b565b81600181146140f657600281146141005761411c565b600191505061065b565b60ff84111561411157614111613d8e565b50506001821b61065b565b5060208310610133831016604e8410600b841016171561413f575081810a61065b565b6141498383614081565b806000190482111561415d5761415d613d8e565b029392505050565b6000613a2483836140c4565b600063ffffffff80831681810361418a5761418a613d8e565b6001019392505050565b6000602082840312156141a657600080fd5b8151613a2481613c2956fe08f4653388d1722dda80df5371a929c2646144ba37dca412b134cc286eaa3cb5506f736974696f6e206973206e6f74206f6e206c69717569646174696f6e206f5468697320706f736974696f6e206973206f6e206c69717569646174696f6e20a2646970667358221220d8ce526e3b12c60a6cc348d1da316f6f77ad96023333e06c5179bb71aa25f16764736f6c63430008120033",
  "immutableReferences": {
    "2231": [
      {
        "length": 32,
        "start": 1292
      },
      {
        "length": 32,
        "start": 2212
      },
      {
        "length": 32,
        "start": 2744
      },
      {
        "length": 32,
        "start": 2874
      },
      {
        "length": 32,
        "start": 3123
      },
      {
        "length": 32,
        "start": 3585
      },
      {
        "length": 32,
        "start": 3772
      },
      {
        "length": 32,
        "start": 3951
      },
      {
        "length": 32,
        "start": 4112
      },
      {
        "length": 32,
        "start": 4273
      },
      {
        "length": 32,
        "start": 5180
      },
      {
        "length": 32,
        "start": 7378
      },
      {
        "length": 32,
        "start": 7713
      },
      {
        "length": 32,
        "start": 9420
      },
      {
        "length": 32,
        "start": 10029
      },
      {
        "length": 32,
        "start": 10269
      },
      {
        "length": 32,
        "start": 10507
      },
      {
        "length": 32,
        "start": 10882
      },
      {
        "length": 32,
        "start": 11849
      },
      {
        "length": 32,
        "start": 12385
      },
      {
        "length": 32,
        "start": 12626
      },
      {
        "length": 32,
        "start": 12978
      }
    ]
  },
  "source": "// SPDX-License-Identifier: UNLICENSED\r\npragma solidity 0.8.18;\r\nimport \"@openzeppelin/contracts/token/ERC20/IERC20.sol\";\r\nimport \"@openzeppelin/contracts/security/ReentrancyGuard.sol\";\r\nimport \"./IDAO.sol\";\r\n\r\ninterface IERC20MintableAndBurnable is IERC20{\r\n    function mint(address to, uint256 amount) external;\r\n    function burn(address from, uint256 amount) external;\r\n}\r\n\r\ninterface IAuction{\r\n    function initCoinsBuyOut(uint32 posID, uint128 collateral) external returns (uint32 auctionID);\r\n    function isFinalized(uint32 auctionId) external view returns (bool finalized);\r\n    function claimToFinalizeAuction(uint32 auctionID) external returns (bool success);\r\n    function getPaymentAmount(uint32 auctionID) external view returns (uint256);\r\n    function initCoinsBuyOutForStabilization(uint256 coinsAmountNeeded) external returns (uint256 auctionID);\r\n}\r\n\r\ninterface ICart{\r\n    function getPrice(string memory symbol) external view returns (uint256);\r\n    function getDecimals(string memory symbol) external view returns (uint8);\r\n}\r\n\r\n    struct Position {\r\n        uint128 coinsMinted;\r\n        uint128 wethAmountLocked;\r\n        uint128 interestAmountRecorded;\r\n        uint32 timeOpened;\r\n        uint32 lastTimeUpdated;\r\n        uint24 interestRate;\r\n        uint32 markedOnLiquidationTimestamp;\r\n        uint24 liquidationStatus; //0 - ok, 1- markedOnLiquidation, 2 - onLiquidation, 3 - liquidated, 4 - closed;\r\n        uint32 liquidationAuctionID;\r\n        bool restrictInterestWithdrawal;\r\n        address owner;\r\n    }\r\n\r\ncontract CDP is ReentrancyGuard{\r\n    uint32 public numPositions;\r\n    IDAO immutable dao;\r\n    ICart oracleCart;\r\n    IERC20MintableAndBurnable coin;\r\n    IAuction auction;\r\n    IERC20MintableAndBurnable rule;\r\n    IERC20 weth;\r\n\r\n    mapping(uint32 => Position) public positions;\r\n    event PositionOpened (address owner, uint256 posID);\r\n    event PositionUpdated (uint32 posID, uint256 newStableCoinsAmount, uint256 wethLocked);\r\n    event liquidationStatusChanged (uint32 posID, uint24 liquidationStatus);\r\n\r\n    constructor(address INTDAOaddress){\r\n        dao = IDAO(INTDAOaddress);\r\n    }\r\n\r\n    function renewContracts() external{\r\n        coin = IERC20MintableAndBurnable(dao.addresses(\"stableCoin\"));\r\n        rule = IERC20MintableAndBurnable(dao.addresses(\"rule\"));\r\n        oracleCart = ICart(dao.addresses(\"cart\"));\r\n        auction = IAuction(dao.addresses(\"auction\"));\r\n        weth = IERC20(dao.addresses(\"weth\"));\r\n    }\r\n\r\n    function openCDP(uint256 stableCoinsToMint) nonReentrant external payable returns (uint256){\r\n        stableCoinsToMint = (stableCoinsToMint > getMaxStableCoinsToMint(msg.value))\r\n            ?getMaxStableCoinsToMint(msg.value)\r\n            :stableCoinsToMint;\r\n\r\n        require (stableCoinsToMint >= dao.params(\"minCoinsToMint\")*10**18, \"you can not mint less than 1 coin\");\r\n\r\n        Position storage p = positions[numPositions];\r\n\r\n        p.coinsMinted = uint128(stableCoinsToMint);\r\n        p.wethAmountLocked = uint128(msg.value);\r\n        (bool successTransfer, ) = dao.addresses(\"weth\").call{value: msg.value}(\"\");\r\n        require(successTransfer, \"Could not pass funds to weth contract for some reason\");\r\n        p.owner = msg.sender;\r\n        p.timeOpened = uint32(block.timestamp);\r\n        p.lastTimeUpdated = uint32(block.timestamp);\r\n        p.interestRate = uint24(dao.params(\"interestRate\"));\r\n        coin.mint(msg.sender, stableCoinsToMint);\r\n\r\n        emit PositionOpened(p.owner, numPositions);\r\n        return numPositions++;\r\n    }\r\n\r\n    function interestAmountUnrecorded(uint32 posID) public view returns (uint256 interestAmount) {\r\n        Position storage p = positions[posID];\r\n        return p.coinsMinted * (block.timestamp - p.lastTimeUpdated) * p.interestRate / 365 days / 100;\r\n    }\r\n\r\n    function totalCurrentFee(uint32 posID) public view returns (uint256 fee){\r\n        return positions[posID].interestAmountRecorded + interestAmountUnrecorded(posID);\r\n    }\r\n\r\n    function getMaxStableCoinsToMint(uint256 ethValue) public view returns (uint256 amount) {\r\n        uint256 price = oracleCart.getPrice(\"stb\");\r\n        uint256 decimals = oracleCart.getDecimals(\"etc\");\r\n        return ethValue * price * (100 - dao.params(\"collateralDiscount\"))/(10**decimals)/100;\r\n    }\r\n\r\n    function getMaxStableCoinsToMintForPos(uint32 posID) public view returns (uint256 maxAmount){\r\n        return getMaxStableCoinsToMint(positions[posID].wethAmountLocked) - totalCurrentFee(posID);\r\n    }\r\n\r\n    function claimInterest(uint256 amount, address beneficiary) nonReentrant external{\r\n        require(dao.isAuthorized(msg.sender), \"only authorized address may do this\");\r\n        if (coin.balanceOf(address(this))>amount)\r\n            coin.transfer(beneficiary, amount);\r\n        else {\r\n            uint256 difference = amount - coin.balanceOf(address(this));\r\n            coin.transfer(beneficiary, coin.balanceOf(address(this)));\r\n            coin.approve(beneficiary, difference+coin.allowance(address(this), beneficiary));\r\n        }\r\n    }\r\n\r\n    function claimEmission(uint256 amount, address beneficiary) nonReentrant external{\r\n        require(dao.isAuthorized(msg.sender), \"only authorized address may do this\");\r\n        coin.mint(beneficiary,amount);\r\n    }\r\n\r\n    function closeCDP(uint32 posID) nonReentrant external{\r\n        Position storage p = positions[posID];\r\n        require(p.owner == msg.sender, \"Only owner may close his position\");\r\n        require(p.liquidationStatus < 2, \"This position is on liquidation or already liquidated/closed\");\r\n        uint256 overallDebt = totalCurrentFee(posID)+p.coinsMinted;\r\n        require(coin.transferFrom(p.owner, address(this), overallDebt), \"Could not transfer coins for some reason. You have to allow coins first\");\r\n        require (weth.transfer(p.owner, p.wethAmountLocked), \"Could not transfer collateral for some reason\");\r\n        coin.burn(address(this), p.coinsMinted);\r\n        changeStatus(posID, 4);\r\n    }\r\n\r\n    function transferInterest(uint32 posID) nonReentrant external{\r\n        Position storage p = positions[posID];\r\n        if (p.restrictInterestWithdrawal){\r\n            require(p.owner == msg.sender, \"Only owner may transfer interest\");\r\n        }\r\n        require(p.liquidationStatus < 2, \"This position is on liquidation or liquidated\");\r\n        require(coin.transferFrom(p.owner, address(this), totalCurrentFee(posID)), \"Was not able to transfer fee. Insufficient balance or allowance. Try to allow spending first\");\r\n        p.interestAmountRecorded = 0;\r\n        p.lastTimeUpdated = uint32(block.timestamp);\r\n    }\r\n\r\n    function switchRestrictInterestWithdrawal(uint32 posID) external{\r\n        Position storage p = positions[posID];\r\n        require (p.owner == msg.sender, \"Only owner may set this property\");\r\n            p.restrictInterestWithdrawal = !p.restrictInterestWithdrawal;\r\n    }\r\n\r\n    function allowSurplusToAuction() nonReentrant external{\r\n        uint256 stabilizationFundAmount = dao.params(\"stabilizationFundPercent\")*coin.totalSupply()/100;\r\n        require (coin.balanceOf(address(this)) >= stabilizationFundAmount, \"insufficient funds on CDP contract\");\r\n        uint256 surplus = coin.balanceOf(address(this)) - stabilizationFundAmount;\r\n        require (surplus >= dao.params(\"minCDPBalanceToInitBuyOut\"), \"not enough surplus to start buyOut\");\r\n        require (coin.approve(dao.addresses(\"auction\"), surplus), \"could not approve coins for some reason\");\r\n    }\r\n\r\n    function claimMarginCall(uint32 posID) nonReentrant external{\r\n        Position storage p = positions[posID];\r\n        require (p.markedOnLiquidationTimestamp >0 && block.timestamp - p.markedOnLiquidationTimestamp > dao.params(\"marginCallTimeLimit\"), \"Position is not marked on liquidation or owner still has time\");\r\n        require(p.liquidationStatus == 1, \"Wrong liquidation status\");\r\n        require(getMaxStableCoinsToMintForPos(posID) < p.coinsMinted, \"Collateral is enough, should erase mark\");\r\n        changeStatus(posID, 2);\r\n        uint256 currentAllowance = weth.allowance(dao.addresses(\"cdp\"), dao.addresses(\"auction\"));\r\n        require(weth.approve(dao.addresses(\"auction\"), currentAllowance+p.wethAmountLocked), \"could not approve weth for some reason\");\r\n    }\r\n\r\n    function startCoinsBuyOut(uint32 posID) nonReentrant external{\r\n        Position storage p = positions[posID];\r\n        require (p.liquidationStatus == 2 && p.liquidationAuctionID == 0, \"Position is not on liquidation or auction was already started\");\r\n        p.liquidationAuctionID = auction.initCoinsBuyOut(posID, p.wethAmountLocked);\r\n        p.wethAmountLocked = 0;\r\n    }\r\n\r\n    function finishMarginCall(uint32 posID) nonReentrant external{\r\n        Position storage p = positions[posID];\r\n        require(p.liquidationStatus == 2 && p.liquidationAuctionID !=0, \"Position is not on liquidation or was already liquidated or auction was already started\");\r\n        if (!auction.isFinalized(p.liquidationAuctionID))\r\n            require(auction.claimToFinalizeAuction(p.liquidationAuctionID), \"could not finalize auction\");\r\n\r\n        uint256 paymentAmount = auction.getPaymentAmount(p.liquidationAuctionID);\r\n\r\n        if (paymentAmount >=p.coinsMinted){\r\n            uint256 overallDebt = p.coinsMinted + totalCurrentFee(posID) + p.coinsMinted * dao.params(\"liquidationFee\") / 100;\r\n            if (paymentAmount > overallDebt)\r\n                coin.transfer(p.owner, paymentAmount - overallDebt);\r\n            coin.burn(address(this), p.coinsMinted);\r\n            changeStatus(posID, 3);\r\n            return;\r\n        }\r\n        else {\r\n            if (coin.balanceOf(address(this)) >= p.coinsMinted){\r\n                coin.burn(address(this), p.coinsMinted);\r\n                changeStatus(posID, 3);\r\n                return;\r\n            }\r\n            else {\r\n                uint256 toBurn = coin.balanceOf(address(this));\r\n                coin.burn(address(this), toBurn);\r\n                p.coinsMinted -= uint128(toBurn);\r\n                auction.initCoinsBuyOutForStabilization(p.coinsMinted - paymentAmount); //TODO: after auction somthing passed here\r\n            }\r\n        }\r\n    }\r\n\r\n    function changeStatus(uint32 posID, uint24 currentStatus) internal{\r\n        Position storage p = positions[posID];\r\n        p.liquidationStatus = currentStatus;\r\n        p.lastTimeUpdated = uint32(block.timestamp);\r\n        emit liquidationStatusChanged(posID, currentStatus);\r\n    }\r\n\r\n    function markToLiquidate(uint32 posID) external{\r\n        Position storage p = positions[posID];\r\n        require (p.markedOnLiquidationTimestamp == 0 && p.liquidationStatus == 0, \"wrong liquidationStatus\");\r\n        require(getMaxStableCoinsToMintForPos(posID) < p.coinsMinted, \"collateral is enough\");\r\n        p.markedOnLiquidationTimestamp = uint32(block.timestamp);\r\n        changeStatus(posID, 1);\r\n    }\r\n\r\n    function eraseMarkToLiquidate(uint32 posID) public{\r\n        Position storage p = positions[posID];\r\n        require (p.markedOnLiquidationTimestamp >0 && p.liquidationStatus == 1, \"This position is not marked or on liquidation/liquidated\");\r\n        require(getMaxStableCoinsToMintForPos(posID) > p.coinsMinted);\r\n        p.markedOnLiquidationTimestamp = 0;\r\n        changeStatus(posID, 0);\r\n    }\r\n\r\n    function updateCDP(uint32 posID, uint newStableCoinsAmount) nonReentrant external payable returns (bool success){\r\n        Position storage p = positions[posID];\r\n        require(p.liquidationStatus<2, \"Wrong liquidationStatus\");\r\n        require(p.owner == msg.sender, \"Only owner may update the position\");\r\n        require (newStableCoinsAmount >= dao.params(\"minCoinsToMint\"), \"you can not mint less than 1 coin\");\r\n\r\n        p.interestAmountRecorded += uint128(interestAmountUnrecorded(posID));\r\n        p.lastTimeUpdated = uint32(block.timestamp);\r\n\r\n        if (msg.value>0) {\r\n            p.wethAmountLocked += uint128(msg.value);\r\n            (bool successTransfer, ) = dao.addresses(\"weth\").call{value: msg.value}(\"\");\r\n            require(successTransfer, \"Could not pass funds to weth contract for some reason\");\r\n        }\r\n\r\n        require(getMaxStableCoinsToMintForPos(posID) >= newStableCoinsAmount, \"not enough collateral to mint amount\");\r\n\r\n        if (newStableCoinsAmount > p.coinsMinted) {\r\n            uint256 difference = newStableCoinsAmount - p.coinsMinted;\r\n            coin.mint(p.owner, difference);\r\n            p.coinsMinted = uint128(newStableCoinsAmount);\r\n        }\r\n        if (newStableCoinsAmount < p.coinsMinted) {\r\n            uint256 difference = p.coinsMinted - newStableCoinsAmount;\r\n            require(coin.balanceOf(p.owner)>=difference);\r\n            coin.burn(p.owner, difference);\r\n            p.coinsMinted = uint128(newStableCoinsAmount);\r\n        }\r\n        emit PositionUpdated(posID, newStableCoinsAmount, p.wethAmountLocked);\r\n        return true;\r\n    }\r\n\r\n    function withdrawEther (uint32 posID, uint128 etherToWithdraw) nonReentrant external{\r\n        Position storage p = positions[posID];\r\n        require(p.liquidationStatus == 0, \"Wrong liquidationStatus\");\r\n        require(p.owner == msg.sender, \"Only owner may update the position\");\r\n        require (etherToWithdraw<p.wethAmountLocked, \"You dont have enough weth locked on this pos\");\r\n        uint256 wethToLeave = p.wethAmountLocked - etherToWithdraw;\r\n        uint256 maxCoins = getMaxStableCoinsToMint(wethToLeave) - totalCurrentFee(posID);\r\n        require (maxCoins>p.coinsMinted, \"you want to keep not enough weth to cover emission and current fee\");\r\n        p.wethAmountLocked -= etherToWithdraw;\r\n        weth.transfer(msg.sender, etherToWithdraw);\r\n        emit PositionUpdated (posID, p.coinsMinted, p.wethAmountLocked);\r\n    }\r\n\r\n    function burnRule() external{\r\n        rule.burn(address(this), rule.balanceOf(address(this)));\r\n    }\r\n\r\n    function mintRule(address to, uint256 amount) external returns (bool success){\r\n        require (msg.sender == dao.addresses(\"auction\"), \"Only auction is allowed to claim mint\");\r\n        rule.mint(to, amount);\r\n        return true;\r\n    }\r\n}\r\n",
  "sourcePath": "D:\\YandexDisk\\\\ICO\\CryptoFiat\\repo\\contracts\\CDP.sol",
  "compiler": {
    "name": "solc",
    "version": "0.8.18+commit.87f61d96.Emscripten.clang"
  },
  "schemaVersion": "3.4.14",
  "updatedAt": "2023-10-01T08:25:02.647Z",
  "devdoc": {
    "kind": "dev",
    "methods": {},
    "version": 1
  },
  "userdoc": {
    "kind": "user",
    "methods": {},
    "version": 1
  }
}