{
  "contractName": "CDP",
  "abi": [
    {
      "inputs": [
        {
          "internalType": "address payable",
          "name": "INTDAOaddress",
          "type": "address"
        }
      ],
      "stateMutability": "nonpayable",
      "type": "constructor"
    },
    {
      "anonymous": false,
      "inputs": [
        {
          "indexed": false,
          "internalType": "uint256",
          "name": "posID",
          "type": "uint256"
        },
        {
          "indexed": false,
          "internalType": "uint256",
          "name": "timestamp",
          "type": "uint256"
        }
      ],
      "name": "OnLiquidation",
      "type": "event"
    },
    {
      "anonymous": false,
      "inputs": [
        {
          "indexed": false,
          "internalType": "address",
          "name": "owner",
          "type": "address"
        },
        {
          "indexed": false,
          "internalType": "uint256",
          "name": "posId",
          "type": "uint256"
        }
      ],
      "name": "PositionOpened",
      "type": "event"
    },
    {
      "anonymous": false,
      "inputs": [
        {
          "indexed": false,
          "internalType": "uint256",
          "name": "posID",
          "type": "uint256"
        },
        {
          "indexed": false,
          "internalType": "uint256",
          "name": "newStableCoinsAmount",
          "type": "uint256"
        },
        {
          "indexed": false,
          "internalType": "uint256",
          "name": "wethLocked",
          "type": "uint256"
        }
      ],
      "name": "PositionUpdated",
      "type": "event"
    },
    {
      "anonymous": false,
      "inputs": [
        {
          "indexed": false,
          "internalType": "uint256",
          "name": "posID",
          "type": "uint256"
        },
        {
          "indexed": false,
          "internalType": "uint256",
          "name": "timestamp",
          "type": "uint256"
        }
      ],
      "name": "markedOnLiquidation",
      "type": "event"
    },
    {
      "inputs": [],
      "name": "numPositions",
      "outputs": [
        {
          "internalType": "uint256",
          "name": "",
          "type": "uint256"
        }
      ],
      "stateMutability": "view",
      "type": "function",
      "constant": true
    },
    {
      "inputs": [
        {
          "internalType": "uint256",
          "name": "",
          "type": "uint256"
        }
      ],
      "name": "positions",
      "outputs": [
        {
          "internalType": "address",
          "name": "owner",
          "type": "address"
        },
        {
          "internalType": "uint256",
          "name": "coinsMinted",
          "type": "uint256"
        },
        {
          "internalType": "uint256",
          "name": "wethAmountLocked",
          "type": "uint256"
        },
        {
          "internalType": "uint256",
          "name": "feeGeneratedRecorded",
          "type": "uint256"
        },
        {
          "internalType": "uint256",
          "name": "timeOpened",
          "type": "uint256"
        },
        {
          "internalType": "uint256",
          "name": "lastTimeUpdated",
          "type": "uint256"
        },
        {
          "internalType": "uint256",
          "name": "feeRate",
          "type": "uint256"
        },
        {
          "internalType": "uint256",
          "name": "markedOnLiquidation",
          "type": "uint256"
        },
        {
          "internalType": "bool",
          "name": "onLiquidation",
          "type": "bool"
        },
        {
          "internalType": "bool",
          "name": "liquidated",
          "type": "bool"
        },
        {
          "internalType": "uint256",
          "name": "liquidationAuctionID",
          "type": "uint256"
        }
      ],
      "stateMutability": "view",
      "type": "function",
      "constant": true
    },
    {
      "stateMutability": "payable",
      "type": "receive",
      "payable": true
    },
    {
      "inputs": [],
      "name": "renewContracts",
      "outputs": [],
      "stateMutability": "nonpayable",
      "type": "function"
    },
    {
      "inputs": [
        {
          "internalType": "uint256",
          "name": "StableCoinsToMint",
          "type": "uint256"
        }
      ],
      "name": "openCDP",
      "outputs": [
        {
          "internalType": "uint256",
          "name": "posID",
          "type": "uint256"
        }
      ],
      "stateMutability": "payable",
      "type": "function",
      "payable": true
    },
    {
      "inputs": [
        {
          "internalType": "uint256",
          "name": "posID",
          "type": "uint256"
        }
      ],
      "name": "generatedFeeUnrecorded",
      "outputs": [
        {
          "internalType": "uint256",
          "name": "fee",
          "type": "uint256"
        }
      ],
      "stateMutability": "view",
      "type": "function",
      "constant": true
    },
    {
      "inputs": [
        {
          "internalType": "uint256",
          "name": "posID",
          "type": "uint256"
        }
      ],
      "name": "totalCurrentFee",
      "outputs": [
        {
          "internalType": "uint256",
          "name": "fee",
          "type": "uint256"
        }
      ],
      "stateMutability": "view",
      "type": "function",
      "constant": true
    },
    {
      "inputs": [
        {
          "internalType": "uint256",
          "name": "ethValue",
          "type": "uint256"
        }
      ],
      "name": "getMaxStableCoinsToMint",
      "outputs": [
        {
          "internalType": "uint256",
          "name": "amount",
          "type": "uint256"
        }
      ],
      "stateMutability": "view",
      "type": "function",
      "constant": true
    },
    {
      "inputs": [
        {
          "internalType": "uint256",
          "name": "posID",
          "type": "uint256"
        }
      ],
      "name": "getMaxStableCoinsToMintForPos",
      "outputs": [
        {
          "internalType": "uint256",
          "name": "maxAmount",
          "type": "uint256"
        }
      ],
      "stateMutability": "view",
      "type": "function",
      "constant": true
    },
    {
      "inputs": [
        {
          "internalType": "uint256",
          "name": "amount",
          "type": "uint256"
        },
        {
          "internalType": "address",
          "name": "beneficiary",
          "type": "address"
        }
      ],
      "name": "claimInterest",
      "outputs": [],
      "stateMutability": "nonpayable",
      "type": "function"
    },
    {
      "inputs": [
        {
          "internalType": "uint256",
          "name": "amount",
          "type": "uint256"
        },
        {
          "internalType": "address",
          "name": "beneficiary",
          "type": "address"
        }
      ],
      "name": "claimEmission",
      "outputs": [],
      "stateMutability": "nonpayable",
      "type": "function"
    },
    {
      "inputs": [
        {
          "internalType": "uint256",
          "name": "posID",
          "type": "uint256"
        }
      ],
      "name": "closeCDP",
      "outputs": [],
      "stateMutability": "nonpayable",
      "type": "function"
    },
    {
      "inputs": [
        {
          "internalType": "uint256",
          "name": "posID",
          "type": "uint256"
        }
      ],
      "name": "transferFee",
      "outputs": [
        {
          "internalType": "bool",
          "name": "success",
          "type": "bool"
        }
      ],
      "stateMutability": "nonpayable",
      "type": "function"
    },
    {
      "inputs": [],
      "name": "allowSurplusToAuction",
      "outputs": [
        {
          "internalType": "bool",
          "name": "success",
          "type": "bool"
        }
      ],
      "stateMutability": "nonpayable",
      "type": "function"
    },
    {
      "inputs": [
        {
          "internalType": "uint256",
          "name": "posID",
          "type": "uint256"
        }
      ],
      "name": "claimMarginCall",
      "outputs": [
        {
          "internalType": "bool",
          "name": "success",
          "type": "bool"
        }
      ],
      "stateMutability": "nonpayable",
      "type": "function"
    },
    {
      "inputs": [
        {
          "internalType": "uint256",
          "name": "posID",
          "type": "uint256"
        }
      ],
      "name": "startCoinsBuyOut",
      "outputs": [],
      "stateMutability": "nonpayable",
      "type": "function"
    },
    {
      "inputs": [
        {
          "internalType": "uint256",
          "name": "posID",
          "type": "uint256"
        }
      ],
      "name": "finishMarginCall",
      "outputs": [],
      "stateMutability": "nonpayable",
      "type": "function"
    },
    {
      "inputs": [
        {
          "internalType": "uint256",
          "name": "posID",
          "type": "uint256"
        }
      ],
      "name": "markToLiquidate",
      "outputs": [
        {
          "internalType": "bool",
          "name": "success",
          "type": "bool"
        }
      ],
      "stateMutability": "nonpayable",
      "type": "function"
    },
    {
      "inputs": [
        {
          "internalType": "uint256",
          "name": "posID",
          "type": "uint256"
        }
      ],
      "name": "eraseMarkToLiquidate",
      "outputs": [],
      "stateMutability": "nonpayable",
      "type": "function"
    },
    {
      "inputs": [
        {
          "internalType": "uint256",
          "name": "posID",
          "type": "uint256"
        },
        {
          "internalType": "uint256",
          "name": "newStableCoinsAmount",
          "type": "uint256"
        }
      ],
      "name": "updateCDP",
      "outputs": [
        {
          "internalType": "bool",
          "name": "success",
          "type": "bool"
        }
      ],
      "stateMutability": "payable",
      "type": "function",
      "payable": true
    },
    {
      "inputs": [
        {
          "internalType": "uint256",
          "name": "posID",
          "type": "uint256"
        },
        {
          "internalType": "uint256",
          "name": "etherToWithdraw",
          "type": "uint256"
        }
      ],
      "name": "withdrawEther",
      "outputs": [],
      "stateMutability": "nonpayable",
      "type": "function"
    },
    {
      "inputs": [
        {
          "internalType": "uint256",
          "name": "posID",
          "type": "uint256"
        }
      ],
      "name": "wethLocked",
      "outputs": [
        {
          "internalType": "uint256",
          "name": "amount",
          "type": "uint256"
        }
      ],
      "stateMutability": "view",
      "type": "function",
      "constant": true
    },
    {
      "inputs": [
        {
          "internalType": "uint256",
          "name": "posID",
          "type": "uint256"
        }
      ],
      "name": "isOnLiquidation",
      "outputs": [
        {
          "internalType": "bool",
          "name": "result",
          "type": "bool"
        }
      ],
      "stateMutability": "view",
      "type": "function",
      "constant": true
    },
    {
      "inputs": [],
      "name": "burnRule",
      "outputs": [],
      "stateMutability": "nonpayable",
      "type": "function"
    },
    {
      "inputs": [
        {
          "internalType": "address",
          "name": "to",
          "type": "address"
        },
        {
          "internalType": "uint256",
          "name": "amount",
          "type": "uint256"
        }
      ],
      "name": "mintRule",
      "outputs": [
        {
          "internalType": "bool",
          "name": "success",
          "type": "bool"
        }
      ],
      "stateMutability": "nonpayable",
      "type": "function"
    }
  ],
  "bytecode": "0x60806040523480156200001157600080fd5b506040516200672c3803806200672c833981810160405281019062000037919062000666565b80600160006101000a81548173ffffffffffffffffffffffffffffffffffffffff021916908373ffffffffffffffffffffffffffffffffffffffff160217905550600160009054906101000a900473ffffffffffffffffffffffffffffffffffffffff1673ffffffffffffffffffffffffffffffffffffffff16632abdf04e306040518263ffffffff1660e01b8152600401620000d591906200070a565b600060405180830381600087803b158015620000f057600080fd5b505af115801562000105573d6000803e3d6000fd5b50505050600160009054906101000a900473ffffffffffffffffffffffffffffffffffffffff1673ffffffffffffffffffffffffffffffffffffffff16632abdf04e306040518263ffffffff1660e01b81526004016200016691906200078c565b600060405180830381600087803b1580156200018157600080fd5b505af115801562000196573d6000803e3d6000fd5b50505050600160009054906101000a900473ffffffffffffffffffffffffffffffffffffffff1673ffffffffffffffffffffffffffffffffffffffff1663bdfe7d476040518163ffffffff1660e01b8152600401620001f5906200080e565b602060405180830381865afa15801562000213573d6000803e3d6000fd5b505050506040513d601f19601f8201168201806040525081019062000239919062000666565b600360006101000a81548173ffffffffffffffffffffffffffffffffffffffff021916908373ffffffffffffffffffffffffffffffffffffffff160217905550600160009054906101000a900473ffffffffffffffffffffffffffffffffffffffff1673ffffffffffffffffffffffffffffffffffffffff1663bdfe7d476040518163ffffffff1660e01b8152600401620002d49062000880565b602060405180830381865afa158015620002f2573d6000803e3d6000fd5b505050506040513d601f19601f8201168201806040525081019062000318919062000666565b600260006101000a81548173ffffffffffffffffffffffffffffffffffffffff021916908373ffffffffffffffffffffffffffffffffffffffff160217905550600160009054906101000a900473ffffffffffffffffffffffffffffffffffffffff1673ffffffffffffffffffffffffffffffffffffffff1663bdfe7d476040518163ffffffff1660e01b8152600401620003b390620008f2565b602060405180830381865afa158015620003d1573d6000803e3d6000fd5b505050506040513d601f19601f82011682018060405250810190620003f7919062000666565b600460006101000a81548173ffffffffffffffffffffffffffffffffffffffff021916908373ffffffffffffffffffffffffffffffffffffffff160217905550600160009054906101000a900473ffffffffffffffffffffffffffffffffffffffff1673ffffffffffffffffffffffffffffffffffffffff1663bdfe7d476040518163ffffffff1660e01b8152600401620004929062000964565b602060405180830381865afa158015620004b0573d6000803e3d6000fd5b505050506040513d601f19601f82011682018060405250810190620004d6919062000666565b600560006101000a81548173ffffffffffffffffffffffffffffffffffffffff021916908373ffffffffffffffffffffffffffffffffffffffff160217905550600160009054906101000a900473ffffffffffffffffffffffffffffffffffffffff1673ffffffffffffffffffffffffffffffffffffffff1663bdfe7d476040518163ffffffff1660e01b81526004016200057190620009d6565b602060405180830381865afa1580156200058f573d6000803e3d6000fd5b505050506040513d601f19601f82011682018060405250810190620005b5919062000666565b600660006101000a81548173ffffffffffffffffffffffffffffffffffffffff021916908373ffffffffffffffffffffffffffffffffffffffff16021790555050620009f8565b600080fd5b600073ffffffffffffffffffffffffffffffffffffffff82169050919050565b60006200062e8262000601565b9050919050565b620006408162000621565b81146200064c57600080fd5b50565b600081519050620006608162000635565b92915050565b6000602082840312156200067f576200067e620005fc565b5b60006200068f848285016200064f565b91505092915050565b600082825260208201905092915050565b7f6364700000000000000000000000000000000000000000000000000000000000600082015250565b6000620006e160038362000698565b9150620006ee82620006a9565b602082019050919050565b620007048162000621565b82525050565b600060408201905081810360008301526200072581620006d2565b9050620007366020830184620006f9565b92915050565b7f696e666c6174696f6e5370656e64657200000000000000000000000000000000600082015250565b60006200077460108362000698565b915062000781826200073c565b602082019050919050565b60006040820190508181036000830152620007a78162000765565b9050620007b86020830184620006f9565b92915050565b7f737461626c65436f696e00000000000000000000000000000000000000000000600082015250565b6000620007f6600a8362000698565b91506200080382620007be565b602082019050919050565b600060208201905081810360008301526200082981620007e7565b9050919050565b7f6361727400000000000000000000000000000000000000000000000000000000600082015250565b60006200086860048362000698565b9150620008758262000830565b602082019050919050565b600060208201905081810360008301526200089b8162000859565b9050919050565b7f61756374696f6e00000000000000000000000000000000000000000000000000600082015250565b6000620008da60078362000698565b9150620008e782620008a2565b602082019050919050565b600060208201905081810360008301526200090d81620008cb565b9050919050565b7f72756c6500000000000000000000000000000000000000000000000000000000600082015250565b60006200094c60048362000698565b9150620009598262000914565b602082019050919050565b600060208201905081810360008301526200097f816200093d565b9050919050565b7f7765746800000000000000000000000000000000000000000000000000000000600082015250565b6000620009be60048362000698565b9150620009cb8262000986565b602082019050919050565b60006020820190508181036000830152620009f181620009af565b9050919050565b615d248062000a086000396000f3fe60806040526004361061014f5760003560e01c8063776879e5116100b6578063d42035611161006f578063d4203561146105a1578063d4ddc1a7146105de578063dda001961461061b578063edfc171314610644578063f34792c21461066d578063f98b3fb5146106aa57610236565b8063776879e5146104635780637a7c0e01146104a05780637f660be1146104cb57806391078b48146104f457806399fbab8814610531578063b514307a1461057857610236565b806347ff94681161010857806347ff9468146103355780635c412bb2146103725780635e71823b1461039b5780636530218d146103c65780636bb224c3146104035780636e2796611461043357610236565b80630403dc091461023b5780630beebd39146102785780631db398ef1461028f5780631e4b5ede146102cc57806323d86a65146102f55780632650a47c1461030c57610236565b3661023657600160009054906101000a900473ffffffffffffffffffffffffffffffffffffffff1673ffffffffffffffffffffffffffffffffffffffff1663bdfe7d476040518163ffffffff1660e01b81526004016101ad906141c5565b602060405180830381865afa1580156101ca573d6000803e3d6000fd5b505050506040513d601f19601f820116820180604052508101906101ee9190614248565b73ffffffffffffffffffffffffffffffffffffffff166108fc479081150290604051600060405180830381858888f19350505050158015610233573d6000803e3d6000fd5b50005b600080fd5b34801561024757600080fd5b50610262600480360381019061025d91906142e9565b6106e7565b60405161026f9190614344565b60405180910390f35b34801561028457600080fd5b5061028d61089b565b005b34801561029b57600080fd5b506102b660048036038101906102b1919061435f565b6109d9565b6040516102c39190614344565b60405180910390f35b3480156102d857600080fd5b506102f360048036038101906102ee919061435f565b610f40565b005b34801561030157600080fd5b5061030a6112f3565b005b34801561031857600080fd5b50610333600480360381019061032e919061438c565b61165d565b005b34801561034157600080fd5b5061035c6004803603810190610357919061435f565b61191e565b60405161036991906143db565b60405180910390f35b34801561037e57600080fd5b50610399600480360381019061039491906143f6565b611987565b005b3480156103a757600080fd5b506103b0611b07565b6040516103bd91906143db565b60405180910390f35b3480156103d257600080fd5b506103ed60048036038101906103e8919061435f565b611b0d565b6040516103fa91906143db565b60405180910390f35b61041d6004803603810190610418919061435f565b611d32565b60405161042a91906143db565b60405180910390f35b61044d6004803603810190610448919061438c565b6121df565b60405161045a9190614344565b60405180910390f35b34801561046f57600080fd5b5061048a6004803603810190610485919061435f565b61281a565b6040516104979190614344565b60405180910390f35b3480156104ac57600080fd5b506104b561284c565b6040516104c29190614344565b60405180910390f35b3480156104d757600080fd5b506104f260048036038101906104ed91906143f6565b612f58565b005b34801561050057600080fd5b5061051b6004803603810190610516919061435f565b6134b2565b60405161052891906143db565b60405180910390f35b34801561053d57600080fd5b506105586004803603810190610553919061435f565b6134f2565b60405161056f9b9a99989796959493929190614445565b60405180910390f35b34801561058457600080fd5b5061059f600480360381019061059a919061435f565b613586565b005b3480156105ad57600080fd5b506105c860048036038101906105c3919061435f565b613cdd565b6040516105d59190614344565b60405180910390f35b3480156105ea57600080fd5b506106056004803603810190610600919061435f565b613e73565b60405161061291906143db565b60405180910390f35b34801561062757600080fd5b50610642600480360381019061063d919061435f565b613e98565b005b34801561065057600080fd5b5061066b6004803603810190610666919061435f565b613f59565b005b34801561067957600080fd5b50610694600480360381019061068f919061435f565b61402d565b6040516106a19190614344565b60405180910390f35b3480156106b657600080fd5b506106d160048036038101906106cc919061435f565b614130565b6040516106de91906143db565b60405180910390f35b6000600160009054906101000a900473ffffffffffffffffffffffffffffffffffffffff1673ffffffffffffffffffffffffffffffffffffffff1663bdfe7d476040518163ffffffff1660e01b81526004016107429061453c565b602060405180830381865afa15801561075f573d6000803e3d6000fd5b505050506040513d601f19601f820116820180604052508101906107839190614248565b73ffffffffffffffffffffffffffffffffffffffff163373ffffffffffffffffffffffffffffffffffffffff16146107f0576040517f08c379a00000000000000000000000000000000000000000000000000000000081526004016107e7906145ce565b60405180910390fd5b600560009054906101000a900473ffffffffffffffffffffffffffffffffffffffff1673ffffffffffffffffffffffffffffffffffffffff166340c10f1984846040518363ffffffff1660e01b815260040161084d9291906145ee565b6020604051808303816000875af115801561086c573d6000803e3d6000fd5b505050506040513d601f19601f820116820180604052508101906108909190614643565b506001905092915050565b600560009054906101000a900473ffffffffffffffffffffffffffffffffffffffff1673ffffffffffffffffffffffffffffffffffffffff16639dc29fac30600560009054906101000a900473ffffffffffffffffffffffffffffffffffffffff1673ffffffffffffffffffffffffffffffffffffffff166370a08231306040518263ffffffff1660e01b81526004016109359190614670565b602060405180830381865afa158015610952573d6000803e3d6000fd5b505050506040513d601f19601f8201168201806040525081019061097691906146a0565b6040518363ffffffff1660e01b81526004016109939291906145ee565b6020604051808303816000875af11580156109b2573d6000803e3d6000fd5b505050506040513d601f19601f820116820180604052508101906109d69190614643565b50565b60008060076000848152602001908152602001600020905060008160070154118015610aac5750600160009054906101000a900473ffffffffffffffffffffffffffffffffffffffff1673ffffffffffffffffffffffffffffffffffffffff1663145f822b6040518163ffffffff1660e01b8152600401610a5990614719565b602060405180830381865afa158015610a76573d6000803e3d6000fd5b505050506040513d601f19601f82011682018060405250810190610a9a91906146a0565b816007015442610aaa9190614768565b115b610aeb576040517f08c379a0000000000000000000000000000000000000000000000000000000008152600401610ae29061480e565b60405180910390fd5b8060080160009054906101000a900460ff1615610b3d576040517f08c379a0000000000000000000000000000000000000000000000000000000008152600401610b34906148a0565b60405180910390fd5b6000610b4884614130565b610b558360020154611b0d565b610b5f9190614768565b90508160010154811015610f2a5760018260080160006101000a81548160ff0219169083151502179055506000600660009054906101000a900473ffffffffffffffffffffffffffffffffffffffff1673ffffffffffffffffffffffffffffffffffffffff1663dd62ed3e600160009054906101000a900473ffffffffffffffffffffffffffffffffffffffff1673ffffffffffffffffffffffffffffffffffffffff1663bdfe7d476040518163ffffffff1660e01b8152600401610c239061490c565b602060405180830381865afa158015610c40573d6000803e3d6000fd5b505050506040513d601f19601f82011682018060405250810190610c649190614248565b600160009054906101000a900473ffffffffffffffffffffffffffffffffffffffff1673ffffffffffffffffffffffffffffffffffffffff1663bdfe7d476040518163ffffffff1660e01b8152600401610cbd9061453c565b602060405180830381865afa158015610cda573d6000803e3d6000fd5b505050506040513d601f19601f82011682018060405250810190610cfe9190614248565b6040518363ffffffff1660e01b8152600401610d1b92919061498b565b602060405180830381865afa158015610d38573d6000803e3d6000fd5b505050506040513d601f19601f82011682018060405250810190610d5c91906146a0565b9050600660009054906101000a900473ffffffffffffffffffffffffffffffffffffffff1673ffffffffffffffffffffffffffffffffffffffff1663095ea7b3600160009054906101000a900473ffffffffffffffffffffffffffffffffffffffff1673ffffffffffffffffffffffffffffffffffffffff1663bdfe7d476040518163ffffffff1660e01b8152600401610df59061453c565b602060405180830381865afa158015610e12573d6000803e3d6000fd5b505050506040513d601f19601f82011682018060405250810190610e369190614248565b856002015484610e4691906149b4565b6040518363ffffffff1660e01b8152600401610e63929190614a0a565b6020604051808303816000875af1158015610e82573d6000803e3d6000fd5b505050506040513d601f19601f82011682018060405250810190610ea69190614643565b610ee5576040517f08c379a0000000000000000000000000000000000000000000000000000000008152600401610edc90614aa5565b60405180910390fd5b7f31673ddfc0eb6966d1a8d85477c249f90d6d896936c3b1d93bfcaf9b29eb6fc98542604051610f16929190614ac5565b60405180910390a160019350505050610f3b565b600082600701819055506000925050505b919050565b60006007600083815260200190815260200160002090508060080160009054906101000a900460ff1615610fa9576040517f08c379a0000000000000000000000000000000000000000000000000000000008152600401610fa090614b3a565b60405180910390fd5b60008160010154610fb984614130565b610fc391906149b4565b9050600360009054906101000a900473ffffffffffffffffffffffffffffffffffffffff1673ffffffffffffffffffffffffffffffffffffffff166323b872dd8360000160009054906101000a900473ffffffffffffffffffffffffffffffffffffffff1630846040518463ffffffff1660e01b815260040161104893929190614b5a565b6020604051808303816000875af1158015611067573d6000803e3d6000fd5b505050506040513d601f19601f8201168201806040525081019061108b9190614643565b6110ca576040517f08c379a00000000000000000000000000000000000000000000000000000000081526004016110c190614c29565b60405180910390fd5b600660009054906101000a900473ffffffffffffffffffffffffffffffffffffffff1673ffffffffffffffffffffffffffffffffffffffff1663a9059cbb8360000160009054906101000a900473ffffffffffffffffffffffffffffffffffffffff1684600201546040518363ffffffff1660e01b815260040161114f9291906145ee565b6020604051808303816000875af115801561116e573d6000803e3d6000fd5b505050506040513d601f19601f820116820180604052508101906111929190614643565b6111d1576040517f08c379a00000000000000000000000000000000000000000000000000000000081526004016111c890614cbb565b60405180910390fd5b60008260020181905550600360009054906101000a900473ffffffffffffffffffffffffffffffffffffffff1673ffffffffffffffffffffffffffffffffffffffff16639dc29fac3084600101546040518363ffffffff1660e01b815260040161123c9291906145ee565b6020604051808303816000875af115801561125b573d6000803e3d6000fd5b505050506040513d601f19601f8201168201806040525081019061127f9190614643565b6112be576040517f08c379a00000000000000000000000000000000000000000000000000000000081526004016112b590614d4d565b60405180910390fd5b6000826001018190555042826005018190555060018260080160016101000a81548160ff021916908315150217905550505050565b600160009054906101000a900473ffffffffffffffffffffffffffffffffffffffff1673ffffffffffffffffffffffffffffffffffffffff1663bdfe7d476040518163ffffffff1660e01b815260040161134c90614db9565b602060405180830381865afa158015611369573d6000803e3d6000fd5b505050506040513d601f19601f8201168201806040525081019061138d9190614248565b600360006101000a81548173ffffffffffffffffffffffffffffffffffffffff021916908373ffffffffffffffffffffffffffffffffffffffff160217905550600160009054906101000a900473ffffffffffffffffffffffffffffffffffffffff1673ffffffffffffffffffffffffffffffffffffffff1663bdfe7d476040518163ffffffff1660e01b815260040161142690614e25565b602060405180830381865afa158015611443573d6000803e3d6000fd5b505050506040513d601f19601f820116820180604052508101906114679190614248565b600260006101000a81548173ffffffffffffffffffffffffffffffffffffffff021916908373ffffffffffffffffffffffffffffffffffffffff160217905550600160009054906101000a900473ffffffffffffffffffffffffffffffffffffffff1673ffffffffffffffffffffffffffffffffffffffff1663bdfe7d476040518163ffffffff1660e01b81526004016115009061453c565b602060405180830381865afa15801561151d573d6000803e3d6000fd5b505050506040513d601f19601f820116820180604052508101906115419190614248565b600460006101000a81548173ffffffffffffffffffffffffffffffffffffffff021916908373ffffffffffffffffffffffffffffffffffffffff160217905550600160009054906101000a900473ffffffffffffffffffffffffffffffffffffffff1673ffffffffffffffffffffffffffffffffffffffff1663bdfe7d476040518163ffffffff1660e01b81526004016115da90614e91565b602060405180830381865afa1580156115f7573d6000803e3d6000fd5b505050506040513d601f19601f8201168201806040525081019061161b9190614248565b600660006101000a81548173ffffffffffffffffffffffffffffffffffffffff021916908373ffffffffffffffffffffffffffffffffffffffff160217905550565b60006007600084815260200190815260200160002090508060080160009054906101000a900460ff16156116c6576040517f08c379a00000000000000000000000000000000000000000000000000000000081526004016116bd90614b3a565b60405180910390fd5b3373ffffffffffffffffffffffffffffffffffffffff168160000160009054906101000a900473ffffffffffffffffffffffffffffffffffffffff1673ffffffffffffffffffffffffffffffffffffffff1614611758576040517f08c379a000000000000000000000000000000000000000000000000000000000815260040161174f90614f23565b60405180910390fd5b8060020154821061179e576040517f08c379a000000000000000000000000000000000000000000000000000000000815260040161179590614fb5565b60405180910390fd5b60008282600201546117b09190614768565b905060006117bd85614130565b6117c683611b0d565b6117d09190614768565b905082600101548111611818576040517f08c379a000000000000000000000000000000000000000000000000000000000815260040161180f9061506d565b60405180910390fd5b8383600201600082825461182c9190614768565b92505081905550600660009054906101000a900473ffffffffffffffffffffffffffffffffffffffff1673ffffffffffffffffffffffffffffffffffffffff1663a9059cbb33866040518363ffffffff1660e01b81526004016118909291906145ee565b6020604051808303816000875af11580156118af573d6000803e3d6000fd5b505050506040513d601f19601f820116820180604052508101906118d39190614643565b507ff89185fe8013045e431c4a2d209bdc8367e67b3aee3359fde091b6ce08e60550858460010154856002015460405161190f9392919061508d565b60405180910390a15050505050565b60008060076000848152602001908152602001600020905060646301e1338082600601548360050154426119529190614768565b846001015461196191906150c4565b61196b91906150c4565b611975919061514d565b61197f919061514d565b915050919050565b600160009054906101000a900473ffffffffffffffffffffffffffffffffffffffff1673ffffffffffffffffffffffffffffffffffffffff1663b9181611336040518263ffffffff1660e01b81526004016119e29190614670565b602060405180830381865afa1580156119ff573d6000803e3d6000fd5b505050506040513d601f19601f82011682018060405250810190611a239190614643565b611a62576040517f08c379a0000000000000000000000000000000000000000000000000000000008152600401611a59906151f0565b60405180910390fd5b600360009054906101000a900473ffffffffffffffffffffffffffffffffffffffff1673ffffffffffffffffffffffffffffffffffffffff166340c10f1982846040518363ffffffff1660e01b8152600401611abf9291906145ee565b6020604051808303816000875af1158015611ade573d6000803e3d6000fd5b505050506040513d601f19601f82011682018060405250810190611b029190614643565b505050565b60005481565b600080600260009054906101000a900473ffffffffffffffffffffffffffffffffffffffff1673ffffffffffffffffffffffffffffffffffffffff1663524f38896040518163ffffffff1660e01b8152600401611b699061525c565b602060405180830381865afa158015611b86573d6000803e3d6000fd5b505050506040513d601f19601f82011682018060405250810190611baa91906146a0565b90506000600260009054906101000a900473ffffffffffffffffffffffffffffffffffffffff1673ffffffffffffffffffffffffffffffffffffffff1663afd0fd1d6040518163ffffffff1660e01b8152600401611c07906152c8565b602060405180830381865afa158015611c24573d6000803e3d6000fd5b505050506040513d601f19601f82011682018060405250810190611c4891906146a0565b9050606481600a611c59919061541b565b600160009054906101000a900473ffffffffffffffffffffffffffffffffffffffff1673ffffffffffffffffffffffffffffffffffffffff1663145f822b6040518163ffffffff1660e01b8152600401611cb2906154b2565b602060405180830381865afa158015611ccf573d6000803e3d6000fd5b505050506040513d601f19601f82011682018060405250810190611cf391906146a0565b6064611cff9190614768565b8487611d0b91906150c4565b611d1591906150c4565b611d1f919061514d565b611d29919061514d565b92505050919050565b600080611d3e34611b0d565b9050808311611d4b578290505b600360009054906101000a900473ffffffffffffffffffffffffffffffffffffffff1673ffffffffffffffffffffffffffffffffffffffff1663313ce5676040518163ffffffff1660e01b8152600401602060405180830381865afa158015611db8573d6000803e3d6000fd5b505050506040513d601f19601f82011682018060405250810190611ddc91906146a0565b600a611de8919061541b565b6001611df491906150c4565b8111611e35576040517f08c379a0000000000000000000000000000000000000000000000000000000008152600401611e2c90615544565b60405180910390fd5b600080815480929190611e4790615564565b91905055915060006007600084815260200190815260200160002090508181600101819055503481600201819055506000600160009054906101000a900473ffffffffffffffffffffffffffffffffffffffff1673ffffffffffffffffffffffffffffffffffffffff1663bdfe7d476040518163ffffffff1660e01b8152600401611ed190614e91565b602060405180830381865afa158015611eee573d6000803e3d6000fd5b505050506040513d601f19601f82011682018060405250810190611f129190614248565b73ffffffffffffffffffffffffffffffffffffffff1634604051611f35906155de565b60006040518083038185875af1925050503d8060008114611f72576040519150601f19603f3d011682016040523d82523d6000602084013e611f77565b606091505b5050905080611fbb576040517f08c379a0000000000000000000000000000000000000000000000000000000008152600401611fb290615665565b60405180910390fd5b338260000160006101000a81548173ffffffffffffffffffffffffffffffffffffffff021916908373ffffffffffffffffffffffffffffffffffffffff16021790555042826004018190555042826005018190555060008260030181905550600160009054906101000a900473ffffffffffffffffffffffffffffffffffffffff1673ffffffffffffffffffffffffffffffffffffffff1663145f822b6040518163ffffffff1660e01b8152600401612073906156d1565b602060405180830381865afa158015612090573d6000803e3d6000fd5b505050506040513d601f19601f820116820180604052508101906120b491906146a0565b826006018190555060008260080160006101000a81548160ff021916908315150217905550600360009054906101000a900473ffffffffffffffffffffffffffffffffffffffff1673ffffffffffffffffffffffffffffffffffffffff166340c10f1933856040518363ffffffff1660e01b81526004016121369291906145ee565b6020604051808303816000875af1158015612155573d6000803e3d6000fd5b505050506040513d601f19601f820116820180604052508101906121799190614643565b507f7033b91d43234ea7f0b72ec01052e5285ce842c91dcf6ab963fa44a5487417208260000160009054906101000a900473ffffffffffffffffffffffffffffffffffffffff16856040516121cf9291906145ee565b60405180910390a1505050919050565b6000806007600085815260200190815260200160002090508060080160009054906101000a900460ff1615612249576040517f08c379a000000000000000000000000000000000000000000000000000000000815260040161224090614b3a565b60405180910390fd5b3373ffffffffffffffffffffffffffffffffffffffff168160000160009054906101000a900473ffffffffffffffffffffffffffffffffffffffff1673ffffffffffffffffffffffffffffffffffffffff16146122db576040517f08c379a00000000000000000000000000000000000000000000000000000000081526004016122d290614f23565b60405180910390fd5b60006122e68561191e565b82600301819055504282600501819055506000341115612462573482600201600082825461231491906149b4565b925050819055506000600160009054906101000a900473ffffffffffffffffffffffffffffffffffffffff1673ffffffffffffffffffffffffffffffffffffffff1663bdfe7d476040518163ffffffff1660e01b815260040161237690614e91565b602060405180830381865afa158015612393573d6000803e3d6000fd5b505050506040513d601f19601f820116820180604052508101906123b79190614248565b73ffffffffffffffffffffffffffffffffffffffff16346040516123da906155de565b60006040518083038185875af1925050503d8060008114612417576040519150601f19603f3d011682016040523d82523d6000602084013e61241c565b606091505b5050905080612460576040517f08c379a000000000000000000000000000000000000000000000000000000000815260040161245790615665565b60405180910390fd5b505b61246b85614130565b6124788360020154611b0d565b6124829190614768565b90506000811180156124945750838110155b6124d3576040517f08c379a00000000000000000000000000000000000000000000000000000000081526004016124ca90615763565b60405180910390fd5b816001015484111561260c5760008260010154856124f19190614768565b9050600360009054906101000a900473ffffffffffffffffffffffffffffffffffffffff1673ffffffffffffffffffffffffffffffffffffffff166340c10f198460000160009054906101000a900473ffffffffffffffffffffffffffffffffffffffff16836040518363ffffffff1660e01b81526004016125749291906145ee565b6020604051808303816000875af1158015612593573d6000803e3d6000fd5b505050506040513d601f19601f820116820180604052508101906125b79190614643565b508483600101819055507ff89185fe8013045e431c4a2d209bdc8367e67b3aee3359fde091b6ce08e60550868685600201546040516125f89392919061508d565b60405180910390a160019350505050612814565b816001015484101561281157600084836001015461262a9190614768565b905080600360009054906101000a900473ffffffffffffffffffffffffffffffffffffffff1673ffffffffffffffffffffffffffffffffffffffff166370a082318560000160009054906101000a900473ffffffffffffffffffffffffffffffffffffffff166040518263ffffffff1660e01b81526004016126ac9190614670565b602060405180830381865afa1580156126c9573d6000803e3d6000fd5b505050506040513d601f19601f820116820180604052508101906126ed91906146a0565b10156126f857600080fd5b600360009054906101000a900473ffffffffffffffffffffffffffffffffffffffff1673ffffffffffffffffffffffffffffffffffffffff16639dc29fac8460000160009054906101000a900473ffffffffffffffffffffffffffffffffffffffff16836040518363ffffffff1660e01b81526004016127799291906145ee565b6020604051808303816000875af1158015612798573d6000803e3d6000fd5b505050506040513d601f19601f820116820180604052508101906127bc9190614643565b508483600101819055507ff89185fe8013045e431c4a2d209bdc8367e67b3aee3359fde091b6ce08e60550868685600201546040516127fd9392919061508d565b60405180910390a160019350505050612814565b50505b92915050565b6000806007600084815260200190815260200160002090508060080160009054906101000a900460ff16915050919050565b6000806064600360009054906101000a900473ffffffffffffffffffffffffffffffffffffffff1673ffffffffffffffffffffffffffffffffffffffff166318160ddd6040518163ffffffff1660e01b8152600401602060405180830381865afa1580156128be573d6000803e3d6000fd5b505050506040513d601f19601f820116820180604052508101906128e291906146a0565b600160009054906101000a900473ffffffffffffffffffffffffffffffffffffffff1673ffffffffffffffffffffffffffffffffffffffff1663145f822b6040518163ffffffff1660e01b815260040161293b906157cf565b602060405180830381865afa158015612958573d6000803e3d6000fd5b505050506040513d601f19601f8201168201806040525081019061297c91906146a0565b61298691906150c4565b612990919061514d565b905080600360009054906101000a900473ffffffffffffffffffffffffffffffffffffffff1673ffffffffffffffffffffffffffffffffffffffff166370a08231306040518263ffffffff1660e01b81526004016129ee9190614670565b602060405180830381865afa158015612a0b573d6000803e3d6000fd5b505050506040513d601f19601f82011682018060405250810190612a2f91906146a0565b1015612a70576040517f08c379a0000000000000000000000000000000000000000000000000000000008152600401612a6790615861565b60405180910390fd5b600081600360009054906101000a900473ffffffffffffffffffffffffffffffffffffffff1673ffffffffffffffffffffffffffffffffffffffff166370a08231306040518263ffffffff1660e01b8152600401612ace9190614670565b602060405180830381865afa158015612aeb573d6000803e3d6000fd5b505050506040513d601f19601f82011682018060405250810190612b0f91906146a0565b612b199190614768565b9050600160009054906101000a900473ffffffffffffffffffffffffffffffffffffffff1673ffffffffffffffffffffffffffffffffffffffff1663145f822b6040518163ffffffff1660e01b8152600401612b74906158cd565b602060405180830381865afa158015612b91573d6000803e3d6000fd5b505050506040513d601f19601f82011682018060405250810190612bb591906146a0565b811015612bf7576040517f08c379a0000000000000000000000000000000000000000000000000000000008152600401612bee9061595f565b60405180910390fd5b6000600360009054906101000a900473ffffffffffffffffffffffffffffffffffffffff1673ffffffffffffffffffffffffffffffffffffffff1663dd62ed3e600160009054906101000a900473ffffffffffffffffffffffffffffffffffffffff1673ffffffffffffffffffffffffffffffffffffffff1663bdfe7d476040518163ffffffff1660e01b8152600401612c909061490c565b602060405180830381865afa158015612cad573d6000803e3d6000fd5b505050506040513d601f19601f82011682018060405250810190612cd19190614248565b600160009054906101000a900473ffffffffffffffffffffffffffffffffffffffff1673ffffffffffffffffffffffffffffffffffffffff1663bdfe7d476040518163ffffffff1660e01b8152600401612d2a9061453c565b602060405180830381865afa158015612d47573d6000803e3d6000fd5b505050506040513d601f19601f82011682018060405250810190612d6b9190614248565b6040518363ffffffff1660e01b8152600401612d8892919061498b565b602060405180830381865afa158015612da5573d6000803e3d6000fd5b505050506040513d601f19601f82011682018060405250810190612dc991906146a0565b9050600360009054906101000a900473ffffffffffffffffffffffffffffffffffffffff1673ffffffffffffffffffffffffffffffffffffffff1663095ea7b3600160009054906101000a900473ffffffffffffffffffffffffffffffffffffffff1673ffffffffffffffffffffffffffffffffffffffff1663bdfe7d476040518163ffffffff1660e01b8152600401612e629061453c565b602060405180830381865afa158015612e7f573d6000803e3d6000fd5b505050506040513d601f19601f82011682018060405250810190612ea39190614248565b8484612eaf91906149b4565b6040518363ffffffff1660e01b8152600401612ecc929190614a0a565b6020604051808303816000875af1158015612eeb573d6000803e3d6000fd5b505050506040513d601f19601f82011682018060405250810190612f0f9190614643565b612f4e576040517f08c379a0000000000000000000000000000000000000000000000000000000008152600401612f45906159f1565b60405180910390fd5b6001935050505090565b600160009054906101000a900473ffffffffffffffffffffffffffffffffffffffff1673ffffffffffffffffffffffffffffffffffffffff1663b9181611336040518263ffffffff1660e01b8152600401612fb39190614670565b602060405180830381865afa158015612fd0573d6000803e3d6000fd5b505050506040513d601f19601f82011682018060405250810190612ff49190614643565b613033576040517f08c379a000000000000000000000000000000000000000000000000000000000815260040161302a906151f0565b60405180910390fd5b81600360009054906101000a900473ffffffffffffffffffffffffffffffffffffffff1673ffffffffffffffffffffffffffffffffffffffff166370a08231306040518263ffffffff1660e01b815260040161308f9190614670565b602060405180830381865afa1580156130ac573d6000803e3d6000fd5b505050506040513d601f19601f820116820180604052508101906130d091906146a0565b111561317c57600360009054906101000a900473ffffffffffffffffffffffffffffffffffffffff1673ffffffffffffffffffffffffffffffffffffffff1663a9059cbb82846040518363ffffffff1660e01b81526004016131339291906145ee565b6020604051808303816000875af1158015613152573d6000803e3d6000fd5b505050506040513d601f19601f820116820180604052508101906131769190614643565b506134ae565b6000600360009054906101000a900473ffffffffffffffffffffffffffffffffffffffff1673ffffffffffffffffffffffffffffffffffffffff166370a08231306040518263ffffffff1660e01b81526004016131d99190614670565b602060405180830381865afa1580156131f6573d6000803e3d6000fd5b505050506040513d601f19601f8201168201806040525081019061321a91906146a0565b836132259190614768565b9050600360009054906101000a900473ffffffffffffffffffffffffffffffffffffffff1673ffffffffffffffffffffffffffffffffffffffff1663a9059cbb83600360009054906101000a900473ffffffffffffffffffffffffffffffffffffffff1673ffffffffffffffffffffffffffffffffffffffff166370a08231306040518263ffffffff1660e01b81526004016132c19190614670565b602060405180830381865afa1580156132de573d6000803e3d6000fd5b505050506040513d601f19601f8201168201806040525081019061330291906146a0565b6040518363ffffffff1660e01b815260040161331f9291906145ee565b6020604051808303816000875af115801561333e573d6000803e3d6000fd5b505050506040513d601f19601f820116820180604052508101906133629190614643565b50600360009054906101000a900473ffffffffffffffffffffffffffffffffffffffff1673ffffffffffffffffffffffffffffffffffffffff1663095ea7b383600360009054906101000a900473ffffffffffffffffffffffffffffffffffffffff1673ffffffffffffffffffffffffffffffffffffffff1663dd62ed3e30876040518363ffffffff1660e01b81526004016133ff929190615a11565b602060405180830381865afa15801561341c573d6000803e3d6000fd5b505050506040513d601f19601f8201168201806040525081019061344091906146a0565b8461344b91906149b4565b6040518363ffffffff1660e01b81526004016134689291906145ee565b6020604051808303816000875af1158015613487573d6000803e3d6000fd5b505050506040513d601f19601f820116820180604052508101906134ab9190614643565b50505b5050565b6000806007600084815260200190815260200160002090506134d383614130565b6134e08260020154611b0d565b6134ea9190614768565b915050919050565b60076020528060005260406000206000915090508060000160009054906101000a900473ffffffffffffffffffffffffffffffffffffffff16908060010154908060020154908060030154908060040154908060050154908060060154908060070154908060080160009054906101000a900460ff16908060080160019054906101000a900460ff1690806009015490508b565b6000600760008381526020019081526020016000209050600460009054906101000a900473ffffffffffffffffffffffffffffffffffffffff1673ffffffffffffffffffffffffffffffffffffffff16637343950a82600901546040518263ffffffff1660e01b81526004016135fc91906143db565b6020604051808303816000875af115801561361b573d6000803e3d6000fd5b505050506040513d601f19601f8201168201806040525081019061363f9190614643565b61367e576040517f08c379a000000000000000000000000000000000000000000000000000000000815260040161367590615a86565b60405180910390fd5b6000600460009054906101000a900473ffffffffffffffffffffffffffffffffffffffff1673ffffffffffffffffffffffffffffffffffffffff166365d089a883600901546040518263ffffffff1660e01b81526004016136df91906143db565b602060405180830381865afa1580156136fc573d6000803e3d6000fd5b505050506040513d601f19601f8201168201806040525081019061372091906146a0565b90506064600160009054906101000a900473ffffffffffffffffffffffffffffffffffffffff1673ffffffffffffffffffffffffffffffffffffffff1663145f822b6040518163ffffffff1660e01b815260040161377d90615af2565b602060405180830381865afa15801561379a573d6000803e3d6000fd5b505050506040513d601f19601f820116820180604052508101906137be91906146a0565b83600101546137cd91906150c4565b6137d7919061514d565b82600101546137e691906149b4565b811115613a2c5760006064600160009054906101000a900473ffffffffffffffffffffffffffffffffffffffff1673ffffffffffffffffffffffffffffffffffffffff1663145f822b6040518163ffffffff1660e01b815260040161384a90615af2565b602060405180830381865afa158015613867573d6000803e3d6000fd5b505050506040513d601f19601f8201168201806040525081019061388b91906146a0565b846001015461389a91906150c4565b6138a4919061514d565b8360010154836138b49190614768565b6138be9190614768565b9050600360009054906101000a900473ffffffffffffffffffffffffffffffffffffffff1673ffffffffffffffffffffffffffffffffffffffff1663a9059cbb8460000160009054906101000a900473ffffffffffffffffffffffffffffffffffffffff16836040518363ffffffff1660e01b81526004016139419291906145ee565b6020604051808303816000875af1158015613960573d6000803e3d6000fd5b505050506040513d601f19601f820116820180604052508101906139849190614643565b50600360009054906101000a900473ffffffffffffffffffffffffffffffffffffffff1673ffffffffffffffffffffffffffffffffffffffff16639dc29fac3085600101546040518363ffffffff1660e01b81526004016139e69291906145ee565b6020604051808303816000875af1158015613a05573d6000803e3d6000fd5b505050506040513d601f19601f82011682018060405250810190613a299190614643565b50505b81600101548111613cd8578160010154600360009054906101000a900473ffffffffffffffffffffffffffffffffffffffff1673ffffffffffffffffffffffffffffffffffffffff166370a08231306040518263ffffffff1660e01b8152600401613a979190614670565b602060405180830381865afa158015613ab4573d6000803e3d6000fd5b505050506040513d601f19601f82011682018060405250810190613ad891906146a0565b10613b8757600360009054906101000a900473ffffffffffffffffffffffffffffffffffffffff1673ffffffffffffffffffffffffffffffffffffffff16639dc29fac3084600101546040518363ffffffff1660e01b8152600401613b3e9291906145ee565b6020604051808303816000875af1158015613b5d573d6000803e3d6000fd5b505050506040513d601f19601f82011682018060405250810190613b819190614643565b50613cd7565b6000600360009054906101000a900473ffffffffffffffffffffffffffffffffffffffff1673ffffffffffffffffffffffffffffffffffffffff166370a08231306040518263ffffffff1660e01b8152600401613be49190614670565b602060405180830381865afa158015613c01573d6000803e3d6000fd5b505050506040513d601f19601f82011682018060405250810190613c2591906146a0565b8360010154613c349190614768565b9050600460009054906101000a900473ffffffffffffffffffffffffffffffffffffffff1673ffffffffffffffffffffffffffffffffffffffff1663f85badde826040518263ffffffff1660e01b8152600401613c9191906143db565b6020604051808303816000875af1158015613cb0573d6000803e3d6000fd5b505050506040513d601f19601f82011682018060405250810190613cd491906146a0565b50505b5b505050565b6000806007600084815260200190815260200160002090508060080160009054906101000a900460ff1615613d47576040517f08c379a0000000000000000000000000000000000000000000000000000000008152600401613d3e90614b3a565b60405180910390fd5b6000613d528461191e565b8260030154613d6191906149b4565b9050600360009054906101000a900473ffffffffffffffffffffffffffffffffffffffff1673ffffffffffffffffffffffffffffffffffffffff166323b872dd8360000160009054906101000a900473ffffffffffffffffffffffffffffffffffffffff1630846040518463ffffffff1660e01b8152600401613de693929190614b5a565b6020604051808303816000875af1158015613e05573d6000803e3d6000fd5b505050506040513d601f19601f82011682018060405250810190613e299190614643565b613e68576040517f08c379a0000000000000000000000000000000000000000000000000000000008152600401613e5f90615baa565b60405180910390fd5b600192505050919050565b6000806007600084815260200190815260200160002090508060020154915050919050565b6000600760008381526020019081526020016000209050600460009054906101000a900473ffffffffffffffffffffffffffffffffffffffff1673ffffffffffffffffffffffffffffffffffffffff16635ff48900836040518263ffffffff1660e01b8152600401613f0a91906143db565b6020604051808303816000875af1158015613f29573d6000803e3d6000fd5b505050506040513d601f19601f82011682018060405250810190613f4d91906146a0565b81600901819055505050565b600060076000838152602001908152602001600020905060008160070154118015613f9357508060080160009054906101000a900460ff16155b8015613fae57508060080160019054906101000a900460ff16155b613fed576040517f08c379a0000000000000000000000000000000000000000000000000000000008152600401613fe490615c3c565b60405180910390fd5b6000613ff883614130565b6140058360020154611b0d565b61400f9190614768565b9050816001015481111561402857600082600701819055505b505050565b6000806007600084815260200190815260200160002090506000816007015414801561406857508060080160009054906101000a900460ff16155b6140a7576040517f08c379a000000000000000000000000000000000000000000000000000000000815260040161409e90615cce565b60405180910390fd5b60006140b284614130565b6140bf8360020154611b0d565b6140c99190614768565b90508160010154811015614124574282600701819055507fc7fcb1762039617a9125455c34980d3770676da1c4e1b42c55bc47fa7ebc970f8442604051614111929190614ac5565b60405180910390a160019250505061412b565b6000925050505b919050565b6000806007600084815260200190815260200160002090506141518361191e565b816003015461416091906149b4565b915050919050565b600082825260208201905092915050565b7f6f7261636c650000000000000000000000000000000000000000000000000000600082015250565b60006141af600683614168565b91506141ba82614179565b602082019050919050565b600060208201905081810360008301526141de816141a2565b9050919050565b600080fd5b600073ffffffffffffffffffffffffffffffffffffffff82169050919050565b6000614215826141ea565b9050919050565b6142258161420a565b811461423057600080fd5b50565b6000815190506142428161421c565b92915050565b60006020828403121561425e5761425d6141e5565b5b600061426c84828501614233565b91505092915050565b6000614280826141ea565b9050919050565b61429081614275565b811461429b57600080fd5b50565b6000813590506142ad81614287565b92915050565b6000819050919050565b6142c6816142b3565b81146142d157600080fd5b50565b6000813590506142e3816142bd565b92915050565b60008060408385031215614300576142ff6141e5565b5b600061430e8582860161429e565b925050602061431f858286016142d4565b9150509250929050565b60008115159050919050565b61433e81614329565b82525050565b60006020820190506143596000830184614335565b92915050565b600060208284031215614375576143746141e5565b5b6000614383848285016142d4565b91505092915050565b600080604083850312156143a3576143a26141e5565b5b60006143b1858286016142d4565b92505060206143c2858286016142d4565b9150509250929050565b6143d5816142b3565b82525050565b60006020820190506143f060008301846143cc565b92915050565b6000806040838503121561440d5761440c6141e5565b5b600061441b858286016142d4565b925050602061442c8582860161429e565b9150509250929050565b61443f81614275565b82525050565b60006101608201905061445b600083018e614436565b614468602083018d6143cc565b614475604083018c6143cc565b614482606083018b6143cc565b61448f608083018a6143cc565b61449c60a08301896143cc565b6144a960c08301886143cc565b6144b660e08301876143cc565b6144c4610100830186614335565b6144d2610120830185614335565b6144e06101408301846143cc565b9c9b505050505050505050505050565b7f61756374696f6e00000000000000000000000000000000000000000000000000600082015250565b6000614526600783614168565b9150614531826144f0565b602082019050919050565b6000602082019050818103600083015261455581614519565b9050919050565b7f4f6e6c792061756374696f6e20697320616c6c6f77656420746f20636c61696d60008201527f206d696e74000000000000000000000000000000000000000000000000000000602082015250565b60006145b8602583614168565b91506145c38261455c565b604082019050919050565b600060208201905081810360008301526145e7816145ab565b9050919050565b60006040820190506146036000830185614436565b61461060208301846143cc565b9392505050565b61462081614329565b811461462b57600080fd5b50565b60008151905061463d81614617565b92915050565b600060208284031215614659576146586141e5565b5b60006146678482850161462e565b91505092915050565b60006020820190506146856000830184614436565b92915050565b60008151905061469a816142bd565b92915050565b6000602082840312156146b6576146b56141e5565b5b60006146c48482850161468b565b91505092915050565b7f6d617267696e43616c6c54696d654c696d697400000000000000000000000000600082015250565b6000614703601383614168565b915061470e826146cd565b602082019050919050565b60006020820190508181036000830152614732816146f6565b9050919050565b7f4e487b7100000000000000000000000000000000000000000000000000000000600052601160045260246000fd5b6000614773826142b3565b915061477e836142b3565b92508282101561479157614790614739565b5b828203905092915050565b7f506f736974696f6e206973206e6f74206d61726b656420746f206265206f706560008201527f6e6564206f72206f776e6572207374696c6c206861732074696d650000000000602082015250565b60006147f8603b83614168565b91506148038261479c565b604082019050919050565b60006020820190508181036000830152614827816147eb565b9050919050565b7f506f736974696f6e20697320616c7265616479206f6e206c697175696461746960008201527f6f6e000000000000000000000000000000000000000000000000000000000000602082015250565b600061488a602283614168565b91506148958261482e565b604082019050919050565b600060208201905081810360008301526148b98161487d565b9050919050565b7f6364700000000000000000000000000000000000000000000000000000000000600082015250565b60006148f6600383614168565b9150614901826148c0565b602082019050919050565b60006020820190508181036000830152614925816148e9565b9050919050565b6000819050919050565b600061495161494c614947846141ea565b61492c565b6141ea565b9050919050565b600061496382614936565b9050919050565b600061497582614958565b9050919050565b6149858161496a565b82525050565b60006040820190506149a0600083018561497c565b6149ad602083018461497c565b9392505050565b60006149bf826142b3565b91506149ca836142b3565b9250827fffffffffffffffffffffffffffffffffffffffffffffffffffffffffffffffff038211156149ff576149fe614739565b5b828201905092915050565b6000604082019050614a1f600083018561497c565b614a2c60208301846143cc565b9392505050565b7f636f756c64206e6f7420617070726f7665207765746820666f7220736f6d652060008201527f726561736f6e0000000000000000000000000000000000000000000000000000602082015250565b6000614a8f602683614168565b9150614a9a82614a33565b604082019050919050565b60006020820190508181036000830152614abe81614a82565b9050919050565b6000604082019050614ada60008301856143cc565b614ae760208301846143cc565b9392505050565b7f5468697320706f736974696f6e206973206f6e206c69717569646174696f6e00600082015250565b6000614b24601f83614168565b9150614b2f82614aee565b602082019050919050565b60006020820190508181036000830152614b5381614b17565b9050919050565b6000606082019050614b6f6000830186614436565b614b7c6020830185614436565b614b8960408301846143cc565b949350505050565b7f436f756c64206e6f74207472616e7366657220636f696e7320666f7220736f6d60008201527f6520726561736f6e2e20596f75206861766520746f20616c6c6f7720636f696e60208201527f7320666972737400000000000000000000000000000000000000000000000000604082015250565b6000614c13604783614168565b9150614c1e82614b91565b606082019050919050565b60006020820190508181036000830152614c4281614c06565b9050919050565b7f436f756c64206e6f74207472616e7366657220636f6c6c61746572616c20666f60008201527f7220736f6d6520726561736f6e00000000000000000000000000000000000000602082015250565b6000614ca5602d83614168565b9150614cb082614c49565b604082019050919050565b60006020820190508181036000830152614cd481614c98565b9050919050565b7f436f756c64206e6f74206275726e20636f696e7320666f7220736f6d6520726560008201527f61736f6e00000000000000000000000000000000000000000000000000000000602082015250565b6000614d37602483614168565b9150614d4282614cdb565b604082019050919050565b60006020820190508181036000830152614d6681614d2a565b9050919050565b7f737461626c65436f696e00000000000000000000000000000000000000000000600082015250565b6000614da3600a83614168565b9150614dae82614d6d565b602082019050919050565b60006020820190508181036000830152614dd281614d96565b9050919050565b7f6361727400000000000000000000000000000000000000000000000000000000600082015250565b6000614e0f600483614168565b9150614e1a82614dd9565b602082019050919050565b60006020820190508181036000830152614e3e81614e02565b9050919050565b7f7765746800000000000000000000000000000000000000000000000000000000600082015250565b6000614e7b600483614168565b9150614e8682614e45565b602082019050919050565b60006020820190508181036000830152614eaa81614e6e565b9050919050565b7f4f6e6c79206f776e6572206d6179207570646174652074686520706f7369746960008201527f6f6e000000000000000000000000000000000000000000000000000000000000602082015250565b6000614f0d602283614168565b9150614f1882614eb1565b604082019050919050565b60006020820190508181036000830152614f3c81614f00565b9050919050565b7f596f7520646f6e74206861766520656e6f7567682077657468206c6f636b656460008201527f206f6e207468697320706f730000000000000000000000000000000000000000602082015250565b6000614f9f602c83614168565b9150614faa82614f43565b604082019050919050565b60006020820190508181036000830152614fce81614f92565b9050919050565b7f796f752077616e7420746f206b656570206e6f7420656e6f756768207765746860008201527f20746f20636f76657220656d697373696f6e20616e642063757272656e74206660208201527f6565000000000000000000000000000000000000000000000000000000000000604082015250565b6000615057604283614168565b915061506282614fd5565b606082019050919050565b600060208201905081810360008301526150868161504a565b9050919050565b60006060820190506150a260008301866143cc565b6150af60208301856143cc565b6150bc60408301846143cc565b949350505050565b60006150cf826142b3565b91506150da836142b3565b9250817fffffffffffffffffffffffffffffffffffffffffffffffffffffffffffffffff048311821515161561511357615112614739565b5b828202905092915050565b7f4e487b7100000000000000000000000000000000000000000000000000000000600052601260045260246000fd5b6000615158826142b3565b9150615163836142b3565b9250826151735761517261511e565b5b828204905092915050565b7f6f6e6c7920617574686f72697a65642061646472657373206d617920646f207460008201527f6869730000000000000000000000000000000000000000000000000000000000602082015250565b60006151da602383614168565b91506151e58261517e565b604082019050919050565b60006020820190508181036000830152615209816151cd565b9050919050565b7f7374620000000000000000000000000000000000000000000000000000000000600082015250565b6000615246600383614168565b915061525182615210565b602082019050919050565b6000602082019050818103600083015261527581615239565b9050919050565b7f6574680000000000000000000000000000000000000000000000000000000000600082015250565b60006152b2600383614168565b91506152bd8261527c565b602082019050919050565b600060208201905081810360008301526152e1816152a5565b9050919050565b60008160011c9050919050565b6000808291508390505b600185111561533f5780860481111561531b5761531a614739565b5b600185161561532a5780820291505b8081029050615338856152e8565b94506152ff565b94509492505050565b6000826153585760019050615414565b816153665760009050615414565b816001811461537c5760028114615386576153b5565b6001915050615414565b60ff84111561539857615397614739565b5b8360020a9150848211156153af576153ae614739565b5b50615414565b5060208310610133831016604e8410600b84101617156153ea5782820a9050838111156153e5576153e4614739565b5b615414565b6153f784848460016152f5565b9250905081840481111561540e5761540d614739565b5b81810290505b9392505050565b6000615426826142b3565b9150615431836142b3565b925061545e7fffffffffffffffffffffffffffffffffffffffffffffffffffffffffffffffff8484615348565b905092915050565b7f636f6c6c61746572616c446973636f756e740000000000000000000000000000600082015250565b600061549c601283614168565b91506154a782615466565b602082019050919050565b600060208201905081810360008301526154cb8161548f565b9050919050565b7f796f752063616e206e6f74206d696e7420737563682061206c6974746c65206160008201527f6d6f756e74000000000000000000000000000000000000000000000000000000602082015250565b600061552e602583614168565b9150615539826154d2565b604082019050919050565b6000602082019050818103600083015261555d81615521565b9050919050565b600061556f826142b3565b91507fffffffffffffffffffffffffffffffffffffffffffffffffffffffffffffffff8214156155a2576155a1614739565b5b600182019050919050565b600081905092915050565b50565b60006155c86000836155ad565b91506155d3826155b8565b600082019050919050565b60006155e9826155bb565b9150819050919050565b7f436f756c64206e6f7420706173732066756e647320746f207765746820636f6e60008201527f747261637420666f7220736f6d6520726561736f6e0000000000000000000000602082015250565b600061564f603583614168565b915061565a826155f3565b604082019050919050565b6000602082019050818103600083015261567e81615642565b9050919050565b7f696e746572657374526174650000000000000000000000000000000000000000600082015250565b60006156bb600c83614168565b91506156c682615685565b602082019050919050565b600060208201905081810360008301526156ea816156ae565b9050919050565b7f6e6f7420656e6f75676820636f6c6c61746572616c20746f206d696e7420616d60008201527f6f756e7400000000000000000000000000000000000000000000000000000000602082015250565b600061574d602483614168565b9150615758826156f1565b604082019050919050565b6000602082019050818103600083015261577c81615740565b9050919050565b7f73746162696c697a6174696f6e46756e6450657263656e740000000000000000600082015250565b60006157b9601883614168565b91506157c482615783565b602082019050919050565b600060208201905081810360008301526157e8816157ac565b9050919050565b7f696e73756666696369656e742066756e6473206f6e2043445020636f6e74726160008201527f6374000000000000000000000000000000000000000000000000000000000000602082015250565b600061584b602283614168565b9150615856826157ef565b604082019050919050565b6000602082019050818103600083015261587a8161583e565b9050919050565b7f6d696e41756374696f6e42616c616e6365546f496e69744275794f7574000000600082015250565b60006158b7601d83614168565b91506158c282615881565b602082019050919050565b600060208201905081810360008301526158e6816158aa565b9050919050565b7f6e6f7420656e6f75676820737572706c757320746f207374617274206275794f60008201527f7574000000000000000000000000000000000000000000000000000000000000602082015250565b6000615949602283614168565b9150615954826158ed565b604082019050919050565b600060208201905081810360008301526159788161593c565b9050919050565b7f636f756c64206e6f7420617070726f766520636f696e7320666f7220736f6d6560008201527f20726561736f6e00000000000000000000000000000000000000000000000000602082015250565b60006159db602783614168565b91506159e68261597f565b604082019050919050565b60006020820190508181036000830152615a0a816159ce565b9050919050565b6000604082019050615a266000830185614436565b615a336020830184614436565b9392505050565b7f636f756c64206e6f742066696e616c697a652061756374696f6e000000000000600082015250565b6000615a70601a83614168565b9150615a7b82615a3a565b602082019050919050565b60006020820190508181036000830152615a9f81615a63565b9050919050565b7f6c69717569646174696f6e466565000000000000000000000000000000000000600082015250565b6000615adc600e83614168565b9150615ae782615aa6565b602082019050919050565b60006020820190508181036000830152615b0b81615acf565b9050919050565b7f576173206e6f742061626c6520746f207472616e73666572206665652e20496e60008201527f73756666696369656e742062616c616e6365206f7220616c6c6f77616e63652e60208201527f2054727920746f20616c6c6f77207370656e64696e6720666972737400000000604082015250565b6000615b94605c83614168565b9150615b9f82615b12565b606082019050919050565b60006020820190508181036000830152615bc381615b87565b9050919050565b7f5468697320706f736974696f6e206973206e6f74206d61726b6564206f72206c60008201527f6f636b65642f6c69717569646174656400000000000000000000000000000000602082015250565b6000615c26603083614168565b9150615c3182615bca565b604082019050919050565b60006020820190508181036000830152615c5581615c19565b9050919050565b7f5468697320706f736974696f6e206973206f6e206c69717569646174696f6e2060008201527f6f7220616c7265616479206d61726b6564000000000000000000000000000000602082015250565b6000615cb8603183614168565b9150615cc382615c5c565b604082019050919050565b60006020820190508181036000830152615ce781615cab565b905091905056fea2646970667358221220b7757cd45eb6c98f02bcbb6b2339921be5bb82ba45397e19b9777fcfddc1930264736f6c634300080a0033",
  "immutableReferences": {},
  "source": "// SPDX-License-Identifier: UNLICENSED\r\npragma solidity >=0.4.22 <0.9.0;\r\nimport \"./INTDAO.sol\";\r\nimport \"./exchangeRateContract.sol\";\r\nimport \"./Rule.sol\";\r\nimport \"./stableCoin.sol\";\r\nimport \"./Auction.sol\";\r\nimport \"./weth.sol\";\r\n\r\n    struct Position {\r\n        address owner;\r\n        uint256 coinsMinted;\r\n        uint256 wethAmountLocked;\r\n        uint256 feeGeneratedRecorded;\r\n        uint256 timeOpened;\r\n        uint256 lastTimeUpdated;\r\n        uint256 feeRate;\r\n        uint256 markedOnLiquidation;\r\n        bool onLiquidation;\r\n        bool liquidated;\r\n        uint256 liquidationAuctionID;\r\n    }\r\n\r\ncontract CDP {\r\n    uint256 public numPositions;\r\n    INTDAO dao;\r\n    exchangeRateContract oracle;\r\n    stableCoin coin;\r\n    Auction auction;\r\n    Rule rule;\r\n    ERC20 weth;\r\n\r\n    mapping(uint256 => Position) public positions;\r\n    event PositionOpened (address owner, uint256 posId);\r\n    event PositionUpdated (uint256 posID, uint256 newStableCoinsAmount, uint256 wethLocked);\r\n    event markedOnLiquidation (uint256 posID, uint256 timestamp);\r\n    event OnLiquidation (uint256 posID, uint256 timestamp);\r\n\r\n    constructor(address payable INTDAOaddress) {\r\n        dao = INTDAO(INTDAOaddress);\r\n        dao.setAddressOnce('cdp',payable(address(this)));\r\n        dao.setAddressOnce('inflationSpender',payable(address(this)));\r\n        coin = stableCoin(payable(dao.addresses('stableCoin')));\r\n        oracle = exchangeRateContract(dao.addresses('cart'));\r\n        auction = Auction(dao.addresses('auction'));\r\n        rule = Rule(dao.addresses('rule'));\r\n        weth = ERC20(dao.addresses('weth'));\r\n    }\r\n\r\n    function renewContracts() public {\r\n        coin = stableCoin(payable(dao.addresses('stableCoin')));\r\n        oracle = exchangeRateContract(dao.addresses('cart'));\r\n        auction = Auction(dao.addresses('auction'));\r\n        weth = ERC20(dao.addresses('weth'));\r\n    }\r\n\r\n    function openCDP (uint StableCoinsToMint) external payable returns (uint256 posID){\r\n        uint256 coinsToMint = getMaxStableCoinsToMint(msg.value);\r\n\r\n        if (StableCoinsToMint <= coinsToMint)\r\n            coinsToMint = StableCoinsToMint;\r\n\r\n        require (coinsToMint>1*10**coin.decimals(), \"you can not mint such a little amount\");\r\n\r\n        posID = numPositions++;\r\n        Position storage p = positions[posID];\r\n\r\n        p.coinsMinted = coinsToMint;\r\n        p.wethAmountLocked = msg.value;\r\n        (bool successTransfer, ) = dao.addresses('weth').call{value: msg.value}(\"\");\r\n        require(successTransfer, 'Could not pass funds to weth contract for some reason');\r\n        p.owner = msg.sender;\r\n        p.timeOpened = block.timestamp;\r\n        p.lastTimeUpdated = block.timestamp;\r\n        p.feeGeneratedRecorded = 0;\r\n        p.feeRate = dao.params('interestRate');\r\n        p.onLiquidation = false;\r\n\r\n        coin.mint(msg.sender, coinsToMint);\r\n\r\n        emit PositionOpened(p.owner, posID);\r\n\r\n        return posID;\r\n    }\r\n\r\n    function generatedFeeUnrecorded(uint256 posID) public view returns (uint256 fee) {\r\n        Position storage p = positions[posID];\r\n        return p.coinsMinted * (block.timestamp - p.lastTimeUpdated) * p.feeRate / 31536000 / 100;\r\n    }\r\n\r\n    function totalCurrentFee(uint256 posID) public view returns (uint256 fee){\r\n        Position storage p = positions[posID];\r\n        return p.feeGeneratedRecorded + generatedFeeUnrecorded(posID);\r\n    }\r\n\r\n    function getMaxStableCoinsToMint(uint256 ethValue) public view returns (uint256 amount) {\r\n        uint256 price = oracle.getPrice('stb');\r\n        uint256 decimals = oracle.getDecimals('eth');\r\n        return ethValue * price * (100 - dao.params('collateralDiscount'))/(10**decimals)/100;\r\n    }\r\n\r\n    function getMaxStableCoinsToMintForPos(uint256 posID) public view returns (uint256 maxAmount){\r\n        Position storage p = positions[posID];\r\n        return getMaxStableCoinsToMint(p.wethAmountLocked) - totalCurrentFee(posID);\r\n    }\r\n\r\n    function claimInterest(uint256 amount, address beneficiary) public{\r\n        require(dao.authorized(msg.sender), \"only authorized address may do this\");\r\n        if (coin.balanceOf(address(this))>amount)\r\n            coin.transfer(beneficiary, amount);\r\n        else {\r\n            uint256 difference = amount - coin.balanceOf(address(this));\r\n            coin.transfer(beneficiary, coin.balanceOf(address(this)));\r\n            coin.approve(beneficiary, difference+coin.allowance(address(this), beneficiary));\r\n        }\r\n    }\r\n\r\n    function claimEmission(uint256 amount, address beneficiary) public{\r\n        require(dao.authorized(msg.sender), \"only authorized address may do this\");\r\n        coin.mint(beneficiary,amount);\r\n    }\r\n\r\n    function closeCDP(uint posID) public{\r\n        Position storage p = positions[posID];\r\n        require(!p.onLiquidation, \"This position is on liquidation\");\r\n        uint256 overallDebt = totalCurrentFee(posID)+p.coinsMinted;\r\n        require(coin.transferFrom(p.owner, address(this), overallDebt), \"Could not transfer coins for some reason. You have to allow coins first\");\r\n        require (weth.transfer(p.owner, p.wethAmountLocked), \"Could not transfer collateral for some reason\");\r\n        p.wethAmountLocked = 0;\r\n        require (coin.burn(address(this), p.coinsMinted), \"Could not burn coins for some reason\");\r\n        p.coinsMinted = 0;\r\n        p.lastTimeUpdated = block.timestamp;\r\n        p.liquidated = true;\r\n    }\r\n\r\n    function transferFee(uint posID) public returns (bool success){\r\n        Position storage p = positions[posID];\r\n        require(!p.onLiquidation, \"This position is on liquidation\");\r\n        uint256 fee = p.feeGeneratedRecorded + generatedFeeUnrecorded(posID);\r\n        require(coin.transferFrom(p.owner, address(this), fee), 'Was not able to transfer fee. Insufficient balance or allowance. Try to allow spending first');\r\n        return true;\r\n    }\r\n\r\n    function allowSurplusToAuction() public returns (bool success) {\r\n        uint256 stabilizationFundAmount = dao.params('stabilizationFundPercent')*coin.totalSupply()/100;\r\n        require (coin.balanceOf(address(this)) >= stabilizationFundAmount, \"insufficient funds on CDP contract\");\r\n        uint256 surplus = coin.balanceOf(address(this)) - stabilizationFundAmount;\r\n        require (surplus >= dao.params('minAuctionBalanceToInitBuyOut'), \"not enough surplus to start buyOut\");\r\n        uint256 currentAllowance = coin.allowance(dao.addresses('cdp'), dao.addresses('auction'));\r\n        require (coin.approve(dao.addresses('auction'), currentAllowance+surplus), \"could not approve coins for some reason\");\r\n        return true;\r\n    }\r\n\r\n    function claimMarginCall(uint posID) public returns (bool success) {\r\n        Position storage p = positions[posID];\r\n        require (p.markedOnLiquidation>0 && block.timestamp - p.markedOnLiquidation > dao.params('marginCallTimeLimit'), \"Position is not marked to be opened or owner still has time\");\r\n        require(!p.onLiquidation, \"Position is already on liquidation\");\r\n        uint256 maxCoinsForPos = getMaxStableCoinsToMint(p.wethAmountLocked) - totalCurrentFee(posID);\r\n        if (maxCoinsForPos < p.coinsMinted) {\r\n            p.onLiquidation = true;\r\n            uint256 currentAllowance = weth.allowance(dao.addresses('cdp'), dao.addresses('auction'));\r\n            require(weth.approve(dao.addresses('auction'), currentAllowance+p.wethAmountLocked), \"could not approve weth for some reason\");\r\n            emit OnLiquidation (posID, block.timestamp);\r\n            return true;\r\n        }\r\n        else {\r\n            p.markedOnLiquidation = 0;\r\n            return false;\r\n        }\r\n    }\r\n\r\n    function startCoinsBuyOut(uint256 posID) public{\r\n        Position storage p = positions[posID];\r\n        p.liquidationAuctionID = auction.initCoinsBuyOut(posID);\r\n    }\r\n\r\n    function finishMarginCall(uint256 posID) public {\r\n        Position storage p = positions[posID];\r\n        require(auction.claimToFinalizeAuction(p.liquidationAuctionID), \"could not finalize auction\");\r\n        uint256 bidAmount = auction.getBestBidAmount(p.liquidationAuctionID);\r\n\r\n        if (bidAmount>p.coinsMinted + p.coinsMinted * dao.params('liquidationFee') / 100){\r\n            uint256 difference = bidAmount - p.coinsMinted - p.coinsMinted * dao.params('liquidationFee') / 100;\r\n            coin.transfer(p.owner, difference);\r\n            coin.burn(address(this), p.coinsMinted);\r\n        }\r\n\r\n        if (bidAmount<=p.coinsMinted){\r\n            if (coin.balanceOf(address(this)) >= p.coinsMinted)\r\n                coin.burn(address(this), p.coinsMinted);\r\n            else {\r\n                uint256 difference = p.coinsMinted - coin.balanceOf(address(this));\r\n                auction.initCoinsBuyOutForStabilization(difference);\r\n            }\r\n        }\r\n    }\r\n\r\n    function markToLiquidate(uint posID) public returns (bool success){\r\n        Position storage p = positions[posID];\r\n        require (p.markedOnLiquidation==0 && !p.onLiquidation, \"This position is on liquidation or already marked\");\r\n        uint256 maxCoinsForPos = getMaxStableCoinsToMint(p.wethAmountLocked) - totalCurrentFee(posID);\r\n        if (maxCoinsForPos < p.coinsMinted) {\r\n            p.markedOnLiquidation = block.timestamp;\r\n            emit markedOnLiquidation (posID, block.timestamp);\r\n            return true;\r\n        }\r\n        return false;\r\n    }\r\n\r\n    function eraseMarkToLiquidate(uint posID) public{\r\n        Position storage p = positions[posID];\r\n        require (p.markedOnLiquidation>0 && !p.onLiquidation && !p.liquidated, \"This position is not marked or locked/liquidated\");\r\n        uint256 maxCoinsForPos = getMaxStableCoinsToMint(p.wethAmountLocked) - totalCurrentFee(posID);\r\n        if (maxCoinsForPos > p.coinsMinted) {\r\n            p.markedOnLiquidation = 0;\r\n        }\r\n    }\r\n\r\n    function updateCDP(uint posID, uint newStableCoinsAmount) public payable returns (bool success){\r\n        Position storage p = positions[posID];\r\n        require(!p.onLiquidation, \"This position is on liquidation\");\r\n        require(p.owner == msg.sender, 'Only owner may update the position');\r\n        uint256 maxCoinsToMint;\r\n\r\n        p.feeGeneratedRecorded = generatedFeeUnrecorded(posID);\r\n        p.lastTimeUpdated = block.timestamp;\r\n\r\n        if (msg.value>0) {\r\n            p.wethAmountLocked += msg.value;\r\n            (bool successTransfer, ) = dao.addresses('weth').call{value: msg.value}(\"\");\r\n            require(successTransfer, 'Could not pass funds to weth contract for some reason');\r\n        }\r\n\r\n        maxCoinsToMint = getMaxStableCoinsToMint(p.wethAmountLocked) - totalCurrentFee(posID);\r\n        require(maxCoinsToMint>0 && maxCoinsToMint >= newStableCoinsAmount, 'not enough collateral to mint amount');\r\n\r\n        if (newStableCoinsAmount > p.coinsMinted) {\r\n            uint256 difference = newStableCoinsAmount - p.coinsMinted;\r\n            coin.mint(p.owner, difference);\r\n            p.coinsMinted = newStableCoinsAmount;\r\n            emit PositionUpdated(posID, newStableCoinsAmount, p.wethAmountLocked);\r\n            return true;\r\n        }\r\n\r\n        if (newStableCoinsAmount < p.coinsMinted) {\r\n            uint256 difference = p.coinsMinted - newStableCoinsAmount;\r\n            require(coin.balanceOf(p.owner)>=difference);\r\n            coin.burn(p.owner, difference);\r\n            p.coinsMinted = newStableCoinsAmount;\r\n            emit PositionUpdated(posID, newStableCoinsAmount, p.wethAmountLocked);\r\n            return true;\r\n        }\r\n    }\r\n\r\n    function withdrawEther (uint256 posID, uint256 etherToWithdraw) public{\r\n        Position storage p = positions[posID];\r\n        require(!p.onLiquidation, \"This position is on liquidation\");\r\n        require(p.owner == msg.sender, 'Only owner may update the position');\r\n        require (etherToWithdraw<p.wethAmountLocked, \"You dont have enough weth locked on this pos\");\r\n        uint256 wethToLeave = p.wethAmountLocked - etherToWithdraw;\r\n        uint256 maxCoins = getMaxStableCoinsToMint(wethToLeave) - totalCurrentFee(posID);\r\n        require (maxCoins>p.coinsMinted, \"you want to keep not enough weth to cover emission and current fee\");\r\n        p.wethAmountLocked -= etherToWithdraw;\r\n        weth.transfer(msg.sender, etherToWithdraw);\r\n        emit PositionUpdated (posID, p.coinsMinted, p.wethAmountLocked);\r\n    }\r\n\r\n    function wethLocked(uint256 posID) public view returns (uint256 amount) {\r\n        Position storage p = positions[posID];\r\n        return p.wethAmountLocked;\r\n    }\r\n\r\n    function isOnLiquidation(uint256 posID) public view returns (bool result){\r\n        Position storage p = positions[posID];\r\n        return p.onLiquidation;\r\n    }\r\n\r\n    function burnRule() public{\r\n        rule.burn(address(this), rule.balanceOf(address(this)));\r\n    }\r\n\r\n    function mintRule(address to, uint256 amount) public returns (bool success){\r\n        require (msg.sender == dao.addresses('auction'), \"Only auction is allowed to claim mint\");\r\n        rule.mint(to, amount);\r\n        return true;\r\n    }\r\n\r\n    receive() external payable {\r\n        dao.addresses('oracle').transfer(address(this).balance);\r\n    }\r\n}\r\n",
  "sourcePath": "C:\\Users\\d.nagornykh\\YandexDisk\\\\ICO\\CryptoFiat\\repo\\contracts\\CDP.sol",
  "compiler": {
    "name": "solc",
    "version": "0.8.10+commit.fc410830.Emscripten.clang"
  },
  "schemaVersion": "3.4.11",
  "updatedAt": "2023-03-14T06:05:35.179Z",
  "networkType": "ethereum",
  "devdoc": {
    "kind": "dev",
    "methods": {},
    "version": 1
  },
  "userdoc": {
    "kind": "user",
    "methods": {},
    "version": 1
  }
}