{
  "contractName": "CDP",
  "abi": [
    {
      "inputs": [
        {
          "internalType": "address",
          "name": "_INTDAOaddress",
          "type": "address"
        }
      ],
      "stateMutability": "nonpayable",
      "type": "constructor"
    },
    {
      "anonymous": false,
      "inputs": [
        {
          "indexed": false,
          "internalType": "address",
          "name": "owner",
          "type": "address"
        },
        {
          "indexed": false,
          "internalType": "uint256",
          "name": "posId",
          "type": "uint256"
        }
      ],
      "name": "PositionOpened",
      "type": "event"
    },
    {
      "anonymous": false,
      "inputs": [
        {
          "indexed": false,
          "internalType": "address",
          "name": "owner",
          "type": "address"
        },
        {
          "indexed": false,
          "internalType": "uint256",
          "name": "newStableCoinsAmount",
          "type": "uint256"
        }
      ],
      "name": "PositionUpdated",
      "type": "event"
    },
    {
      "inputs": [
        {
          "internalType": "address",
          "name": "",
          "type": "address"
        }
      ],
      "name": "allowedToMint",
      "outputs": [
        {
          "internalType": "uint256",
          "name": "",
          "type": "uint256"
        }
      ],
      "stateMutability": "view",
      "type": "function",
      "constant": true
    },
    {
      "inputs": [],
      "name": "numPositions",
      "outputs": [
        {
          "internalType": "uint256",
          "name": "",
          "type": "uint256"
        }
      ],
      "stateMutability": "view",
      "type": "function",
      "constant": true
    },
    {
      "inputs": [
        {
          "internalType": "uint256",
          "name": "",
          "type": "uint256"
        }
      ],
      "name": "positions",
      "outputs": [
        {
          "internalType": "bool",
          "name": "onLiquidation",
          "type": "bool"
        },
        {
          "internalType": "bool",
          "name": "liquidated",
          "type": "bool"
        },
        {
          "internalType": "address",
          "name": "owner",
          "type": "address"
        },
        {
          "internalType": "uint256",
          "name": "stableCoins_minted",
          "type": "uint256"
        },
        {
          "internalType": "uint256",
          "name": "ethAmountLocked",
          "type": "uint256"
        },
        {
          "internalType": "uint256",
          "name": "feeGenerated",
          "type": "uint256"
        },
        {
          "internalType": "uint256",
          "name": "timeOpened",
          "type": "uint256"
        },
        {
          "internalType": "uint256",
          "name": "lastTimeUpdated",
          "type": "uint256"
        },
        {
          "internalType": "uint256",
          "name": "feeRate",
          "type": "uint256"
        }
      ],
      "stateMutability": "view",
      "type": "function",
      "constant": true
    },
    {
      "inputs": [
        {
          "internalType": "address",
          "name": "to",
          "type": "address"
        }
      ],
      "name": "allowed",
      "outputs": [
        {
          "internalType": "uint256",
          "name": "amount",
          "type": "uint256"
        }
      ],
      "stateMutability": "view",
      "type": "function",
      "constant": true
    },
    {
      "inputs": [],
      "name": "decreaseAllowed",
      "outputs": [
        {
          "internalType": "bool",
          "name": "success",
          "type": "bool"
        }
      ],
      "stateMutability": "nonpayable",
      "type": "function"
    },
    {
      "inputs": [
        {
          "internalType": "uint256",
          "name": "StableCoinsToMint",
          "type": "uint256"
        }
      ],
      "name": "openCDP",
      "outputs": [
        {
          "internalType": "uint256",
          "name": "posId",
          "type": "uint256"
        }
      ],
      "stateMutability": "payable",
      "type": "function",
      "payable": true
    },
    {
      "inputs": [
        {
          "internalType": "uint256",
          "name": "posId",
          "type": "uint256"
        }
      ],
      "name": "generatedFee",
      "outputs": [
        {
          "internalType": "uint256",
          "name": "fee",
          "type": "uint256"
        }
      ],
      "stateMutability": "view",
      "type": "function",
      "constant": true
    },
    {
      "inputs": [
        {
          "internalType": "uint256",
          "name": "StableCoinsToMint",
          "type": "uint256"
        },
        {
          "internalType": "uint256",
          "name": "ethValue",
          "type": "uint256"
        }
      ],
      "name": "getMaxStableCoinsToMint",
      "outputs": [
        {
          "internalType": "uint256",
          "name": "amount",
          "type": "uint256"
        }
      ],
      "stateMutability": "view",
      "type": "function",
      "constant": true
    },
    {
      "inputs": [
        {
          "internalType": "uint256",
          "name": "posID",
          "type": "uint256"
        }
      ],
      "name": "closeCDP",
      "outputs": [],
      "stateMutability": "nonpayable",
      "type": "function"
    },
    {
      "inputs": [
        {
          "internalType": "uint256",
          "name": "posID",
          "type": "uint256"
        },
        {
          "internalType": "uint256",
          "name": "newStableCoinsAmount",
          "type": "uint256"
        }
      ],
      "name": "updateCDP",
      "outputs": [
        {
          "internalType": "bool",
          "name": "success",
          "type": "bool"
        }
      ],
      "stateMutability": "payable",
      "type": "function",
      "payable": true
    },
    {
      "inputs": [],
      "name": "mintAllowed",
      "outputs": [],
      "stateMutability": "nonpayable",
      "type": "function"
    },
    {
      "inputs": [
        {
          "internalType": "uint256",
          "name": "posID",
          "type": "uint256"
        },
        {
          "internalType": "uint256",
          "name": "etherToWithdraw",
          "type": "uint256"
        }
      ],
      "name": "withdrawEther",
      "outputs": [],
      "stateMutability": "nonpayable",
      "type": "function"
    },
    {
      "inputs": [],
      "name": "recieveInterestAfterAuction",
      "outputs": [],
      "stateMutability": "nonpayable",
      "type": "function"
    }
  ],
  "bytecode": "0x60806040526000600160006101000a81548173ffffffffffffffffffffffffffffffffffffffff021916908373ffffffffffffffffffffffffffffffffffffffff1602179055503480156200005357600080fd5b506040516200191c3803806200191c83398181016040528101906200007991906200034c565b80600160006101000a81548173ffffffffffffffffffffffffffffffffffffffff021916908373ffffffffffffffffffffffffffffffffffffffff160217905550600160009054906101000a900473ffffffffffffffffffffffffffffffffffffffff16600260006101000a81548173ffffffffffffffffffffffffffffffffffffffff021916908373ffffffffffffffffffffffffffffffffffffffff160217905550600260009054906101000a900473ffffffffffffffffffffffffffffffffffffffff1673ffffffffffffffffffffffffffffffffffffffff1663bdfe7d476040518163ffffffff1660e01b81526004016200017890620003df565b602060405180830381865afa15801562000196573d6000803e3d6000fd5b505050506040513d601f19601f82011682018060405250810190620001bc91906200034c565b600360006101000a81548173ffffffffffffffffffffffffffffffffffffffff021916908373ffffffffffffffffffffffffffffffffffffffff160217905550600260009054906101000a900473ffffffffffffffffffffffffffffffffffffffff1673ffffffffffffffffffffffffffffffffffffffff1663bdfe7d476040518163ffffffff1660e01b8152600401620002579062000451565b602060405180830381865afa15801562000275573d6000803e3d6000fd5b505050506040513d601f19601f820116820180604052508101906200029b91906200034c565b600460006101000a81548173ffffffffffffffffffffffffffffffffffffffff021916908373ffffffffffffffffffffffffffffffffffffffff1602179055505062000473565b600080fd5b600073ffffffffffffffffffffffffffffffffffffffff82169050919050565b60006200031482620002e7565b9050919050565b620003268162000307565b81146200033257600080fd5b50565b60008151905062000346816200031b565b92915050565b600060208284031215620003655762000364620002e2565b5b6000620003758482850162000335565b91505092915050565b600082825260208201905092915050565b7f6f7261636c654164647265737300000000000000000000000000000000000000600082015250565b6000620003c7600d836200037e565b9150620003d4826200038f565b602082019050919050565b60006020820190508181036000830152620003fa81620003b8565b9050919050565b7f737461626c65436f696e41646472657373000000000000000000000000000000600082015250565b6000620004396011836200037e565b9150620004468262000401565b602082019050919050565b600060208201905081810360008301526200046c816200042a565b9050919050565b61149980620004836000396000f3fe6080604052600436106100c25760003560e01c80637ec698d31161007f578063c467201e11610059578063c467201e1461027a578063cacda7f314610291578063d63a8e11146102ce578063e14716021461030b576100c2565b80637ec698d3146101bb57806399fbab88146101f8578063a89da3731461023d576100c2565b806319b1718d146100c75780631e4b5ede146100de5780632650a47c146101075780635e71823b146101305780636bb224c31461015b5780636e2796611461018b575b600080fd5b3480156100d357600080fd5b506100dc610336565b005b3480156100ea57600080fd5b5061010560048036038101906101009190610e22565b610338565b005b34801561011357600080fd5b5061012e60048036038101906101299190610e4f565b61033b565b005b34801561013c57600080fd5b5061014561033f565b6040516101529190610e9e565b60405180910390f35b61017560048036038101906101709190610e22565b610345565b6040516101829190610e9e565b60405180910390f35b6101a560048036038101906101a09190610e4f565b6105de565b6040516101b29190610ed4565b60405180910390f35b3480156101c757600080fd5b506101e260048036038101906101dd9190610e4f565b610a32565b6040516101ef9190610e9e565b60405180910390f35b34801561020457600080fd5b5061021f600480360381019061021a9190610e22565b610bb2565b60405161023499989796959493929190610f30565b60405180910390f35b34801561024957600080fd5b50610264600480360381019061025f9190610fe9565b610c3a565b6040516102719190610e9e565b60405180910390f35b34801561028657600080fd5b5061028f610c52565b005b34801561029d57600080fd5b506102b860048036038101906102b39190610e22565b610ce8565b6040516102c59190610e9e565b60405180910390f35b3480156102da57600080fd5b506102f560048036038101906102f09190610fe9565b610d51565b6040516103029190610e9e565b60405180910390f35b34801561031757600080fd5b50610320610d9a565b60405161032d9190610ed4565b60405180910390f35b565b50565b5050565b60005481565b600080600081548092919061035990611045565b919050559050600060066000838152602001908152602001600020905060006103828434610a32565b905080841161038f578390505b80600760003373ffffffffffffffffffffffffffffffffffffffff1673ffffffffffffffffffffffffffffffffffffffff16815260200190815260200160002081905550808260010181905550348260020181905550338260000160026101000a81548173ffffffffffffffffffffffffffffffffffffffff021916908373ffffffffffffffffffffffffffffffffffffffff16021790555042826004018190555042826005018190555060008260030181905550600260009054906101000a900473ffffffffffffffffffffffffffffffffffffffff1673ffffffffffffffffffffffffffffffffffffffff1663145f822b6040518163ffffffff1660e01b815260040161049d906110eb565b602060405180830381865afa1580156104ba573d6000803e3d6000fd5b505050506040513d601f19601f820116820180604052508101906104de9190611120565b8260060181905550600460009054906101000a900473ffffffffffffffffffffffffffffffffffffffff1673ffffffffffffffffffffffffffffffffffffffff16631249c58b6040518163ffffffff1660e01b81526004016020604051808303816000875af1158015610555573d6000803e3d6000fd5b505050506040513d601f19601f820116820180604052508101906105799190611179565b507f7033b91d43234ea7f0b72ec01052e5285ce842c91dcf6ab963fa44a5487417208260000160029054906101000a900473ffffffffffffffffffffffffffffffffffffffff16846040516105cf9291906111a6565b60405180910390a15050919050565b6000806006600085815260200190815260200160002090503373ffffffffffffffffffffffffffffffffffffffff168160000160029054906101000a900473ffffffffffffffffffffffffffffffffffffffff1673ffffffffffffffffffffffffffffffffffffffff1614610688576040517f08c379a000000000000000000000000000000000000000000000000000000000815260040161067f90611241565b60405180910390fd5b600042826005018190555061069c85610ce8565b8260030181905550600260009054906101000a900473ffffffffffffffffffffffffffffffffffffffff1673ffffffffffffffffffffffffffffffffffffffff1663145f822b6040518163ffffffff1660e01b81526004016106fd906110eb565b602060405180830381865afa15801561071a573d6000803e3d6000fd5b505050506040513d601f19601f8201168201806040525081019061073e9190611120565b8260060181905550600034111561076b57348260020160008282546107639190611261565b925050819055505b610779848360020154610a32565b90508381101561078857600080fd5b81600101548411156108555760008260010154856107a691906112b7565b905080600760003373ffffffffffffffffffffffffffffffffffffffff1673ffffffffffffffffffffffffffffffffffffffff168152602001908152602001600020819055507f814d2340073b1f05a68bb3f6aab82bfc4eea78f35f7c2332caddf0c35865331e8360000160029054906101000a900473ffffffffffffffffffffffffffffffffffffffff16866040516108419291906111a6565b60405180910390a160019350505050610a2c565b8160010154841015610a2957600084836001015461087391906112b7565b905080600460009054906101000a900473ffffffffffffffffffffffffffffffffffffffff1673ffffffffffffffffffffffffffffffffffffffff1663dd62ed3e33306040518363ffffffff1660e01b81526004016108d39291906112eb565b602060405180830381865afa1580156108f0573d6000803e3d6000fd5b505050506040513d601f19601f820116820180604052508101906109149190611120565b101561091f57600080fd5b600460009054906101000a900473ffffffffffffffffffffffffffffffffffffffff1673ffffffffffffffffffffffffffffffffffffffff1663fcd3533c82306040518363ffffffff1660e01b815260040161097c929190611314565b6020604051808303816000875af115801561099b573d6000803e3d6000fd5b505050506040513d601f19601f820116820180604052508101906109bf9190611179565b507f814d2340073b1f05a68bb3f6aab82bfc4eea78f35f7c2332caddf0c35865331e8360000160029054906101000a900473ffffffffffffffffffffffffffffffffffffffff1686604051610a159291906111a6565b60405180910390a160019350505050610a2c565b50505b92915050565b600080600360009054906101000a900473ffffffffffffffffffffffffffffffffffffffff1673ffffffffffffffffffffffffffffffffffffffff1663aa309fef6040518163ffffffff1660e01b8152600401602060405180830381865afa158015610aa2573d6000803e3d6000fd5b505050506040513d601f19601f82011682018060405250810190610ac69190611120565b905060006064600260009054906101000a900473ffffffffffffffffffffffffffffffffffffffff1673ffffffffffffffffffffffffffffffffffffffff1663145f822b6040518163ffffffff1660e01b8152600401610b2590611389565b602060405180830381865afa158015610b42573d6000803e3d6000fd5b505050506040513d601f19601f82011682018060405250810190610b669190611120565b6064610b7291906112b7565b8386610b7e91906113a9565b610b8891906113a9565b610b929190611432565b905080851015610ba6578492505050610bac565b80925050505b92915050565b60066020528060005260406000206000915090508060000160009054906101000a900460ff16908060000160019054906101000a900460ff16908060000160029054906101000a900473ffffffffffffffffffffffffffffffffffffffff16908060010154908060020154908060030154908060040154908060050154908060060154905089565b60076020528060005260406000206000915090505481565b600460009054906101000a900473ffffffffffffffffffffffffffffffffffffffff1673ffffffffffffffffffffffffffffffffffffffff16631249c58b6040518163ffffffff1660e01b81526004016020604051808303816000875af1158015610cc1573d6000803e3d6000fd5b505050506040513d601f19601f82011682018060405250810190610ce59190611179565b50565b60008060066000848152602001908152602001600020905060646301e133808260060154836005015442610d1c91906112b7565b8460010154610d2b91906113a9565b610d3591906113a9565b610d3f9190611432565b610d499190611432565b915050919050565b6000600760008373ffffffffffffffffffffffffffffffffffffffff1673ffffffffffffffffffffffffffffffffffffffff168152602001908152602001600020549050919050565b600080600760003373ffffffffffffffffffffffffffffffffffffffff1673ffffffffffffffffffffffffffffffffffffffff168152602001908152602001600020819055506001905090565b600080fd5b6000819050919050565b610dff81610dec565b8114610e0a57600080fd5b50565b600081359050610e1c81610df6565b92915050565b600060208284031215610e3857610e37610de7565b5b6000610e4684828501610e0d565b91505092915050565b60008060408385031215610e6657610e65610de7565b5b6000610e7485828601610e0d565b9250506020610e8585828601610e0d565b9150509250929050565b610e9881610dec565b82525050565b6000602082019050610eb36000830184610e8f565b92915050565b60008115159050919050565b610ece81610eb9565b82525050565b6000602082019050610ee96000830184610ec5565b92915050565b600073ffffffffffffffffffffffffffffffffffffffff82169050919050565b6000610f1a82610eef565b9050919050565b610f2a81610f0f565b82525050565b600061012082019050610f46600083018c610ec5565b610f53602083018b610ec5565b610f60604083018a610f21565b610f6d6060830189610e8f565b610f7a6080830188610e8f565b610f8760a0830187610e8f565b610f9460c0830186610e8f565b610fa160e0830185610e8f565b610faf610100830184610e8f565b9a9950505050505050505050565b610fc681610f0f565b8114610fd157600080fd5b50565b600081359050610fe381610fbd565b92915050565b600060208284031215610fff57610ffe610de7565b5b600061100d84828501610fd4565b91505092915050565b7f4e487b7100000000000000000000000000000000000000000000000000000000600052601160045260246000fd5b600061105082610dec565b91507fffffffffffffffffffffffffffffffffffffffffffffffffffffffffffffffff82141561108357611082611016565b5b600182019050919050565b600082825260208201905092915050565b7f696e746572657374526174650000000000000000000000000000000000000000600082015250565b60006110d5600c8361108e565b91506110e08261109f565b602082019050919050565b60006020820190508181036000830152611104816110c8565b9050919050565b60008151905061111a81610df6565b92915050565b60006020828403121561113657611135610de7565b5b60006111448482850161110b565b91505092915050565b61115681610eb9565b811461116157600080fd5b50565b6000815190506111738161114d565b92915050565b60006020828403121561118f5761118e610de7565b5b600061119d84828501611164565b91505092915050565b60006040820190506111bb6000830185610f21565b6111c86020830184610e8f565b9392505050565b7f4f6e6c79206f776e6572206d6179207570646174652074686520706f7369746960008201527f6f6e000000000000000000000000000000000000000000000000000000000000602082015250565b600061122b60228361108e565b9150611236826111cf565b604082019050919050565b6000602082019050818103600083015261125a8161121e565b9050919050565b600061126c82610dec565b915061127783610dec565b9250827fffffffffffffffffffffffffffffffffffffffffffffffffffffffffffffffff038211156112ac576112ab611016565b5b828201905092915050565b60006112c282610dec565b91506112cd83610dec565b9250828210156112e0576112df611016565b5b828203905092915050565b60006040820190506113006000830185610f21565b61130d6020830184610f21565b9392505050565b60006040820190506113296000830185610e8f565b6113366020830184610f21565b9392505050565b7f636f6c6c61746572616c446973636f756e740000000000000000000000000000600082015250565b600061137360128361108e565b915061137e8261133d565b602082019050919050565b600060208201905081810360008301526113a281611366565b9050919050565b60006113b482610dec565b91506113bf83610dec565b9250817fffffffffffffffffffffffffffffffffffffffffffffffffffffffffffffffff04831182151516156113f8576113f7611016565b5b828202905092915050565b7f4e487b7100000000000000000000000000000000000000000000000000000000600052601260045260246000fd5b600061143d82610dec565b915061144883610dec565b92508261145857611457611403565b5b82820490509291505056fea2646970667358221220d168165ba8e9c3bf638553704ff4776e4826c98583abde15932931a1ee5c05c964736f6c634300080a0033",
  "immutableReferences": {},
  "source": "// SPDX-License-Identifier: UNLICENSED\r\npragma solidity >=0.4.22 <0.9.0;\r\nimport \"./INTDAO.sol\";\r\nimport \"./Oracle.sol\";\r\nimport \"./Rule.sol\";\r\nimport \"./stableCoin.sol\";\r\n\r\n\r\n//previous Interest price is saved during INT auction - no need or make auction longer in time\r\n//started at 11.30 25/05/2020\r\n\r\ncontract CDP {\r\n    uint256 public numPositions;\r\n\r\n    address INTDAOaddress = address(0);\r\n    INTDAO dao;\r\n    Oracle oracle;\r\n    stableCoin coin;\r\n\r\n    address auctionAddress;\r\n\r\n    mapping(uint => Position) public positions;\r\n    mapping (address => uint) public allowedToMint; //???\r\n    event PositionOpened (address owner, uint256 posId);\r\n    event PositionUpdated (address owner, uint256 newStableCoinsAmount);\r\n\r\n    struct Position {\r\n        bool onLiquidation;\r\n        bool liquidated;\r\n        address owner;\r\n        uint stableCoins_minted;\r\n        uint ethAmountLocked;\r\n        uint feeGenerated;\r\n        uint timeOpened;\r\n        uint lastTimeUpdated;\r\n        uint feeRate;\r\n    }\r\n\r\n    constructor(address _INTDAOaddress) {\r\n        INTDAOaddress = _INTDAOaddress;\r\n        dao = INTDAO(INTDAOaddress);\r\n        oracle = Oracle(dao.addresses('oracleAddress'));\r\n        coin = stableCoin(payable(dao.addresses('stableCoinAddress')));\r\n    }\r\n\r\n    function allowed (address to) public view returns (uint256 amount) {\r\n        return allowedToMint[to];\r\n    }\r\n\r\n    function decreaseAllowed() public returns (bool success) {\r\n        allowedToMint[msg.sender] = 0;\r\n        return true;\r\n    }\r\n\r\n    function openCDP (uint StableCoinsToMint) external payable returns (uint256 posId){\r\n        posId = numPositions++;\r\n        Position storage p = positions[posId];\r\n\r\n        uint coinsToMint = getMaxStableCoinsToMint(StableCoinsToMint, msg.value);\r\n        if (StableCoinsToMint <= coinsToMint)\r\n            coinsToMint = StableCoinsToMint;\r\n\r\n        allowedToMint[msg.sender] = coinsToMint;\r\n\r\n        p.stableCoins_minted = coinsToMint;\r\n        p.ethAmountLocked = msg.value;\r\n        p.owner = msg.sender;\r\n        p.timeOpened = block.timestamp;\r\n        p.lastTimeUpdated = block.timestamp;\r\n        p.feeGenerated = 0;\r\n        p.feeRate = dao.params('interestRate');\r\n\r\n        coin.mint();\r\n\r\n        emit PositionOpened(p.owner, posId);\r\n\r\n        return posId;\r\n    }\r\n\r\n    function generatedFee(uint posId) public view returns (uint256 fee) {\r\n        Position storage p = positions[posId];\r\n        fee = p.stableCoins_minted * (block.timestamp - p.lastTimeUpdated) * p.feeRate / 31536000 / 100;\r\n        return fee;\r\n    }\r\n\r\n    function getMaxStableCoinsToMint(uint256 StableCoinsToMint, uint256 ethValue) public view returns (uint256 amount) {\r\n        uint256 etherPrice = oracle.getEtherPriceUSD();\r\n        uint256 maxCoinsToMint = ethValue * etherPrice * (100 - dao.params('collateralDiscount'))/(100);\r\n\r\n        if (StableCoinsToMint < maxCoinsToMint)\r\n            return StableCoinsToMint;\r\n        else\r\n            return maxCoinsToMint;\r\n    }\r\n\r\n    function closeCDP (uint posID) public{ //shows minimum amount of INT you have to own\r\n        // Rule allowed to which address? )\r\n        //burnFromCollateral from wich addressAllowed?\r\n        //sendEtherToOwner\r\n        //checkAllowance of RuleTokens\r\n        //if allowed, transfer on balance, then burn\r\n    }\r\n\r\n\r\n    function updateCDP(uint posID, uint newStableCoinsAmount) public payable returns (bool success){\r\n        Position storage p = positions[posID];\r\n        require(p.owner == msg.sender, 'Only owner may update the position');\r\n        uint256 maxCoinsToMint;\r\n\r\n        p.lastTimeUpdated = block.timestamp;\r\n        p.feeGenerated = generatedFee(posID);\r\n        p.feeRate = dao.params('interestRate'); //do we need to renew percent? I guess yes, but it is controversial\r\n\r\n        if (msg.value>0)\r\n            p.ethAmountLocked += msg.value;\r\n\r\n        maxCoinsToMint = getMaxStableCoinsToMint(newStableCoinsAmount, p.ethAmountLocked);\r\n        require(maxCoinsToMint >= newStableCoinsAmount);\r\n\r\n        if (newStableCoinsAmount > p.stableCoins_minted) {\r\n            uint256 difference = newStableCoinsAmount - p.stableCoins_minted;\r\n            allowedToMint[msg.sender] = difference;\r\n            emit PositionUpdated(p.owner, newStableCoinsAmount);\r\n            return true;\r\n        }\r\n\r\n        if (newStableCoinsAmount < p.stableCoins_minted) {\r\n            uint256 difference = p.stableCoins_minted - newStableCoinsAmount;\r\n            require(coin.allowance(msg.sender, address(this)) >= difference);\r\n            coin.burn(difference, address(this));\r\n            emit PositionUpdated(p.owner, newStableCoinsAmount);\r\n            return true;\r\n        }\r\n    }\r\n\r\n    function mintAllowed () public{\r\n        coin.mint();\r\n    }\r\n\r\n    function withdrawEther (uint posID, uint etherToWithdraw) public{\r\n        //open Auction in the same contract\r\n    }\r\n\r\n\r\n    function recieveInterestAfterAuction() public {\r\n        //INT.mintForCDP();\r\n    }\r\n\r\n}\r\n",
  "sourcePath": "C:\\Users\\d.nagornykh\\YandexDisk\\\\ICO\\CryptoFiat\\repo\\contracts\\CDP.sol",
  "compiler": {
    "name": "solc",
    "version": "0.8.10+commit.fc410830.Emscripten.clang"
  },
  "schemaVersion": "3.4.4",
  "updatedAt": "2022-12-12T03:20:06.897Z",
  "networkType": "ethereum",
  "devdoc": {
    "kind": "dev",
    "methods": {},
    "version": 1
  },
  "userdoc": {
    "kind": "user",
    "methods": {},
    "version": 1
  }
}