{
  "contractName": "CDP",
  "abi": [
    {
      "inputs": [
        {
          "internalType": "address",
          "name": "INTDAOaddress",
          "type": "address"
        }
      ],
      "stateMutability": "nonpayable",
      "type": "constructor"
    },
    {
      "anonymous": false,
      "inputs": [
        {
          "indexed": false,
          "internalType": "address",
          "name": "owner",
          "type": "address"
        },
        {
          "indexed": false,
          "internalType": "uint256",
          "name": "posID",
          "type": "uint256"
        }
      ],
      "name": "PositionOpened",
      "type": "event"
    },
    {
      "anonymous": false,
      "inputs": [
        {
          "indexed": false,
          "internalType": "uint32",
          "name": "posID",
          "type": "uint32"
        },
        {
          "indexed": false,
          "internalType": "uint256",
          "name": "newStableCoinsAmount",
          "type": "uint256"
        },
        {
          "indexed": false,
          "internalType": "uint256",
          "name": "wethLocked",
          "type": "uint256"
        }
      ],
      "name": "PositionUpdated",
      "type": "event"
    },
    {
      "anonymous": false,
      "inputs": [
        {
          "indexed": false,
          "internalType": "uint32",
          "name": "posID",
          "type": "uint32"
        },
        {
          "indexed": false,
          "internalType": "uint24",
          "name": "liquidationStatus",
          "type": "uint24"
        }
      ],
      "name": "liquidationStatusChanged",
      "type": "event"
    },
    {
      "inputs": [],
      "name": "numPositions",
      "outputs": [
        {
          "internalType": "uint32",
          "name": "",
          "type": "uint32"
        }
      ],
      "stateMutability": "view",
      "type": "function"
    },
    {
      "inputs": [
        {
          "internalType": "uint32",
          "name": "",
          "type": "uint32"
        }
      ],
      "name": "positions",
      "outputs": [
        {
          "internalType": "uint128",
          "name": "coinsMinted",
          "type": "uint128"
        },
        {
          "internalType": "uint128",
          "name": "wethAmountLocked",
          "type": "uint128"
        },
        {
          "internalType": "uint128",
          "name": "interestAmountRecorded",
          "type": "uint128"
        },
        {
          "internalType": "uint32",
          "name": "timeOpened",
          "type": "uint32"
        },
        {
          "internalType": "uint32",
          "name": "lastTimeUpdated",
          "type": "uint32"
        },
        {
          "internalType": "uint24",
          "name": "interestRate",
          "type": "uint24"
        },
        {
          "internalType": "uint32",
          "name": "markedOnLiquidationTimestamp",
          "type": "uint32"
        },
        {
          "internalType": "uint24",
          "name": "liquidationStatus",
          "type": "uint24"
        },
        {
          "internalType": "uint32",
          "name": "liquidationAuctionID",
          "type": "uint32"
        },
        {
          "internalType": "uint24",
          "name": "restrictInterestWithdrawal",
          "type": "uint24"
        },
        {
          "internalType": "address",
          "name": "owner",
          "type": "address"
        }
      ],
      "stateMutability": "view",
      "type": "function"
    },
    {
      "inputs": [],
      "name": "renewContracts",
      "outputs": [],
      "stateMutability": "nonpayable",
      "type": "function"
    },
    {
      "inputs": [
        {
          "internalType": "uint256",
          "name": "stableCoinsToMint",
          "type": "uint256"
        }
      ],
      "name": "openCDP",
      "outputs": [
        {
          "internalType": "uint256",
          "name": "",
          "type": "uint256"
        }
      ],
      "stateMutability": "payable",
      "type": "function"
    },
    {
      "inputs": [
        {
          "internalType": "uint32",
          "name": "posID",
          "type": "uint32"
        }
      ],
      "name": "interestAmountUnrecorded",
      "outputs": [
        {
          "internalType": "uint256",
          "name": "interestAmount",
          "type": "uint256"
        }
      ],
      "stateMutability": "view",
      "type": "function"
    },
    {
      "inputs": [
        {
          "internalType": "uint32",
          "name": "posID",
          "type": "uint32"
        }
      ],
      "name": "totalCurrentFee",
      "outputs": [
        {
          "internalType": "uint256",
          "name": "fee",
          "type": "uint256"
        }
      ],
      "stateMutability": "view",
      "type": "function"
    },
    {
      "inputs": [
        {
          "internalType": "uint256",
          "name": "ethValue",
          "type": "uint256"
        }
      ],
      "name": "getMaxStableCoinsToMint",
      "outputs": [
        {
          "internalType": "uint256",
          "name": "amount",
          "type": "uint256"
        }
      ],
      "stateMutability": "view",
      "type": "function"
    },
    {
      "inputs": [
        {
          "internalType": "uint32",
          "name": "posID",
          "type": "uint32"
        }
      ],
      "name": "getMaxStableCoinsToMintForPos",
      "outputs": [
        {
          "internalType": "uint256",
          "name": "maxAmount",
          "type": "uint256"
        }
      ],
      "stateMutability": "view",
      "type": "function"
    },
    {
      "inputs": [
        {
          "internalType": "uint256",
          "name": "amount",
          "type": "uint256"
        },
        {
          "internalType": "address",
          "name": "beneficiary",
          "type": "address"
        }
      ],
      "name": "claimInterest",
      "outputs": [],
      "stateMutability": "nonpayable",
      "type": "function"
    },
    {
      "inputs": [
        {
          "internalType": "uint256",
          "name": "amount",
          "type": "uint256"
        },
        {
          "internalType": "address",
          "name": "beneficiary",
          "type": "address"
        }
      ],
      "name": "claimEmission",
      "outputs": [],
      "stateMutability": "nonpayable",
      "type": "function"
    },
    {
      "inputs": [
        {
          "internalType": "uint32",
          "name": "posID",
          "type": "uint32"
        }
      ],
      "name": "closeCDP",
      "outputs": [],
      "stateMutability": "nonpayable",
      "type": "function"
    },
    {
      "inputs": [
        {
          "internalType": "uint32",
          "name": "posID",
          "type": "uint32"
        }
      ],
      "name": "transferInterest",
      "outputs": [],
      "stateMutability": "nonpayable",
      "type": "function"
    },
    {
      "inputs": [
        {
          "internalType": "uint32",
          "name": "posID",
          "type": "uint32"
        }
      ],
      "name": "switchRestrictInterestWithdrawal",
      "outputs": [],
      "stateMutability": "nonpayable",
      "type": "function"
    },
    {
      "inputs": [],
      "name": "allowSurplusToAuction",
      "outputs": [],
      "stateMutability": "nonpayable",
      "type": "function"
    },
    {
      "inputs": [
        {
          "internalType": "uint32",
          "name": "posID",
          "type": "uint32"
        }
      ],
      "name": "claimMarginCall",
      "outputs": [],
      "stateMutability": "nonpayable",
      "type": "function"
    },
    {
      "inputs": [
        {
          "internalType": "uint32",
          "name": "posID",
          "type": "uint32"
        }
      ],
      "name": "startCoinsBuyOut",
      "outputs": [],
      "stateMutability": "nonpayable",
      "type": "function"
    },
    {
      "inputs": [
        {
          "internalType": "uint32",
          "name": "posID",
          "type": "uint32"
        }
      ],
      "name": "finishMarginCall",
      "outputs": [],
      "stateMutability": "nonpayable",
      "type": "function"
    },
    {
      "inputs": [
        {
          "internalType": "uint32",
          "name": "posID",
          "type": "uint32"
        }
      ],
      "name": "markToLiquidate",
      "outputs": [],
      "stateMutability": "nonpayable",
      "type": "function"
    },
    {
      "inputs": [
        {
          "internalType": "uint32",
          "name": "posID",
          "type": "uint32"
        }
      ],
      "name": "eraseMarkToLiquidate",
      "outputs": [],
      "stateMutability": "nonpayable",
      "type": "function"
    },
    {
      "inputs": [
        {
          "internalType": "uint32",
          "name": "posID",
          "type": "uint32"
        },
        {
          "internalType": "uint256",
          "name": "newStableCoinsAmount",
          "type": "uint256"
        }
      ],
      "name": "updateCDP",
      "outputs": [
        {
          "internalType": "bool",
          "name": "success",
          "type": "bool"
        }
      ],
      "stateMutability": "payable",
      "type": "function"
    },
    {
      "inputs": [
        {
          "internalType": "uint32",
          "name": "posID",
          "type": "uint32"
        },
        {
          "internalType": "uint128",
          "name": "etherToWithdraw",
          "type": "uint128"
        }
      ],
      "name": "withdrawEther",
      "outputs": [],
      "stateMutability": "nonpayable",
      "type": "function"
    },
    {
      "inputs": [],
      "name": "burnRule",
      "outputs": [],
      "stateMutability": "nonpayable",
      "type": "function"
    },
    {
      "inputs": [
        {
          "internalType": "address",
          "name": "to",
          "type": "address"
        },
        {
          "internalType": "uint256",
          "name": "amount",
          "type": "uint256"
        }
      ],
      "name": "mintRule",
      "outputs": [
        {
          "internalType": "bool",
          "name": "success",
          "type": "bool"
        }
      ],
      "stateMutability": "nonpayable",
      "type": "function"
    }
  ],
  "bytecode": "0x60a06040523480156200001157600080fd5b506040516200433e3803806200433e83398101604081905262000034916200004b565b60016000556001600160a01b03166080526200007d565b6000602082840312156200005e57600080fd5b81516001600160a01b03811681146200007657600080fd5b9392505050565b6080516142126200012c6000396000818161050b0152818161086501528181610a7901528181610afb01528181610bf401528181610dc201528181610e7d01528181610f3001528181610fd101528181611072015281816113f101528181611c7a01528181611dc901528181612474015281816126d5015281816127c5015281816128b301528181612a2a01528181612df101528181613009015281816130fa015261325a01526142126000f3fe6080604052600436106101105760003560e01c80630403dc0914610115578063085c63a31461014a5780630beebd391461016c5780631b4796511461018157806320363781146101a157806323d86a65146101cf5780632d5e3d5b146101e45780633502a65e146102045780634b9d9b751461022457806355378f48146102375780635c412bb2146102575780635e71823b146102775780636530218d146102a15780636bb224c3146102c15780636e3682f1146102d45780637a7c0e01146102f45780637f660be1146103095780639b49eac014610329578063b83b402214610349578063caed013514610369578063ddde609014610389578063deebe410146103a9578063f6738f21146104d1575b600080fd5b34801561012157600080fd5b50610135610130366004613bc8565b6104f1565b60405190151581526020015b60405180910390f35b34801561015657600080fd5b5061016a610165366004613c06565b610660565b005b34801561017857600080fd5b5061016a61072a565b34801561018d57600080fd5b5061016a61019c366004613c06565b6107f5565b3480156101ad57600080fd5b506101c16101bc366004613c06565b610d4e565b604051908152602001610141565b3480156101db57600080fd5b5061016a610d92565b3480156101f057600080fd5b5061016a6101ff366004613c06565b61110a565b34801561021057600080fd5b5061016a61021f366004613c06565b611855565b610135610232366004613c23565b611be9565b34801561024357600080fd5b5061016a610252366004613c41565b61217e565b34801561026357600080fd5b5061016a610272366004613c86565b612455565b34801561028357600080fd5b506001546102949063ffffffff1681565b6040516101419190613cab565b3480156102ad57600080fd5b506101c16102bc366004613cbc565b612574565b6101c16102cf366004613cbc565b612783565b3480156102e057600080fd5b5061016a6102ef366004613c06565b612bc2565b34801561030057600080fd5b5061016a612d30565b34801561031557600080fd5b5061016a610324366004613c86565b61323b565b34801561033557600080fd5b5061016a610344366004613c06565b61362b565b34801561035557600080fd5b5061016a610364366004613c06565b613871565b34801561037557600080fd5b506101c1610384366004613c06565b613952565b34801561039557600080fd5b506101c16103a4366004613c06565b6139d3565b3480156103b557600080fd5b506104546103c4366004613c06565b6006602052600090815260409020805460018201546002909201546001600160801b0380831693600160801b938490048216939181169291810463ffffffff90811692600160a01b8304821692600160c01b810462ffffff90811693600160d81b90920482169281811692630100000082041691600160381b82041690600160501b90046001600160a01b03168b565b604080516001600160801b039c8d1681529a8c1660208c015298909a169789019790975263ffffffff9586166060890152938516608088015262ffffff92831660a088015290841660c0870152811660e08601529116610100840152166101208201526001600160a01b0390911661014082015261016001610141565b3480156104dd57600080fd5b5061016a6104ec366004613c06565b613a0a565b60405163bdfe7d4760e01b81526000906001600160a01b037f0000000000000000000000000000000000000000000000000000000000000000169063bdfe7d479061053e90600401613cd5565b602060405180830381865afa15801561055b573d6000803e3d6000fd5b505050506040513d601f19601f8201168201806040525081019061057f9190613cf6565b6001600160a01b0316336001600160a01b0316146105f25760405162461bcd60e51b815260206004820152602560248201527f4f6e6c792061756374696f6e20697320616c6c6f77656420746f20636c61696d604482015264081b5a5b9d60da1b60648201526084015b60405180910390fd5b600480546040516340c10f1960e01b81526001600160a01b03909116916340c10f1991610623918791879101613d13565b600060405180830381600087803b15801561063d57600080fd5b505af1158015610651573d6000803e3d6000fd5b50505050600190505b92915050565b63ffffffff808216600090815260066020526040902060018101549091600160d81b9091041615801561069a5750600281015462ffffff16155b6106e05760405162461bcd60e51b815260206004820152601760248201527677726f6e67206c69717569646174696f6e53746174757360481b60448201526064016105e9565b80546001600160801b03166106f483610d4e565b1015610726576001818101805463ffffffff60d81b1916600160d81b4263ffffffff1602179055610726908390613ac8565b5050565b600480546040516370a0823160e01b81526001600160a01b0390911691639dc29fac91309184916370a082319161076391859101613d2c565b602060405180830381865afa158015610780573d6000803e3d6000fd5b505050506040513d601f19601f820116820180604052508101906107a49190613d40565b6040518363ffffffff1660e01b81526004016107c1929190613d13565b600060405180830381600087803b1580156107db57600080fd5b505af11580156107ef573d6000803e3d6000fd5b50505050565b6107fd613b5a565b63ffffffff808216600090815260066020526040902060018101549091600160d81b90910416158015906108f6575060405163145f822b60e01b81526020600482015260136024820152721b585c99da5b90d85b1b151a5b59531a5b5a5d606a1b60448201527f00000000000000000000000000000000000000000000000000000000000000006001600160a01b03169063145f822b90606401602060405180830381865afa1580156108b4573d6000803e3d6000fd5b505050506040513d601f19601f820116820180604052508101906108d89190613d40565b60018201546108f490600160d81b900463ffffffff1642613d6f565b115b6109685760405162461bcd60e51b815260206004820152603d60248201527f506f736974696f6e206973206e6f74206d61726b6564206f6e206c697175696460448201527f6174696f6e206f72206f776e6572207374696c6c206861732074696d6500000060648201526084016105e9565b600281015462ffffff166001146109bc5760405162461bcd60e51b815260206004820152601860248201527757726f6e67206c69717569646174696f6e2073746174757360401b60448201526064016105e9565b80546001600160801b03166109d083610d4e565b10610a2d5760405162461bcd60e51b815260206004820152602760248201527f436f6c6c61746572616c20697320656e6f7567682c2073686f756c64206572616044820152667365206d61726b60c81b60648201526084016105e9565b610a38826002613ac8565b60055460405163bdfe7d4760e01b815260206004820152600360248201526206364760ec1b60448201526000916001600160a01b039081169163dd62ed3e917f0000000000000000000000000000000000000000000000000000000000000000169063bdfe7d4790606401602060405180830381865afa158015610ac0573d6000803e3d6000fd5b505050506040513d601f19601f82011682018060405250810190610ae49190613cf6565b60405163bdfe7d4760e01b81526001600160a01b037f0000000000000000000000000000000000000000000000000000000000000000169063bdfe7d4790610b2e90600401613cd5565b602060405180830381865afa158015610b4b573d6000803e3d6000fd5b505050506040513d601f19601f82011682018060405250810190610b6f9190613cf6565b6040518363ffffffff1660e01b8152600401610b8c929190613d82565b602060405180830381865afa158015610ba9573d6000803e3d6000fd5b505050506040513d601f19601f82011682018060405250810190610bcd9190613d40565b60055460405163bdfe7d4760e01b81529192506001600160a01b039081169163095ea7b3917f0000000000000000000000000000000000000000000000000000000000000000169063bdfe7d4790610c2790600401613cd5565b602060405180830381865afa158015610c44573d6000803e3d6000fd5b505050506040513d601f19601f82011682018060405250810190610c689190613cf6565b8454610c8490600160801b90046001600160801b031685613d9c565b6040518363ffffffff1660e01b8152600401610ca1929190613d13565b6020604051808303816000875af1158015610cc0573d6000803e3d6000fd5b505050506040513d601f19601f82011682018060405250810190610ce49190613daf565b610d3f5760405162461bcd60e51b815260206004820152602660248201527f636f756c64206e6f7420617070726f7665207765746820666f7220736f6d65206044820152653932b0b9b7b760d11b60648201526084016105e9565b5050610d4b6001600055565b50565b6000610d59826139d3565b63ffffffff8316600090815260066020526040902054610d8890600160801b90046001600160801b0316612574565b61065a9190613d6f565b60405163bdfe7d4760e01b815260206004820152600a60248201526939ba30b13632a1b7b4b760b11b60448201527f00000000000000000000000000000000000000000000000000000000000000006001600160a01b03169063bdfe7d4790606401602060405180830381865afa158015610e11573d6000803e3d6000fd5b505050506040513d601f19601f82011682018060405250810190610e359190613cf6565b600280546001600160a01b0319166001600160a01b0392831617905560405163bdfe7d4760e01b8152602060048083019190915260248201526372756c6560e01b60448201527f00000000000000000000000000000000000000000000000000000000000000009091169063bdfe7d4790606401602060405180830381865afa158015610ec6573d6000803e3d6000fd5b505050506040513d601f19601f82011682018060405250810190610eea9190613cf6565b600480546001600160a01b0319166001600160a01b0392831617815560405163bdfe7d4760e01b815260208183015260248101919091526318d85c9d60e21b60448201527f00000000000000000000000000000000000000000000000000000000000000009091169063bdfe7d4790606401602060405180830381865afa158015610f79573d6000803e3d6000fd5b505050506040513d601f19601f82011682018060405250810190610f9d9190613cf6565b60018054600160201b600160c01b031916600160201b6001600160a01b039384160217905560405163bdfe7d4760e01b81527f00000000000000000000000000000000000000000000000000000000000000009091169063bdfe7d479061100690600401613cd5565b602060405180830381865afa158015611023573d6000803e3d6000fd5b505050506040513d601f19601f820116820180604052508101906110479190613cf6565b600380546001600160a01b0319166001600160a01b0392831617905560405163bdfe7d4760e01b81527f00000000000000000000000000000000000000000000000000000000000000009091169063bdfe7d47906110a790600401613dd1565b602060405180830381865afa1580156110c4573d6000803e3d6000fd5b505050506040513d601f19601f820116820180604052508101906110e89190613cf6565b600580546001600160a01b0319166001600160a01b0392909216919091179055565b63ffffffff8116600090815260066020526040902060028082015462ffffff16148015611147575060028101546301000000900463ffffffff1615155b6111c35760405162461bcd60e51b8152602060048201526053602482015260008051602061419d83398151915260448201527f722077617320616c7265616479206c697175696461746564206f7220617563746064820152721a5bdb881dd85cc81b9bdd081cdd185c9d1959606a1b608482015260a4016105e9565b60035460028201546040516333727c4d60e01b81526001600160a01b03909216916333727c4d9161120591630100000090910463ffffffff1690600401613cab565b602060405180830381865afa158015611222573d6000803e3d6000fd5b505050506040513d601f19601f820116820180604052508101906112469190613daf565b611318576003546002820154604051635e924d5b60e11b81526001600160a01b039092169163bd249ab69161128c91630100000090910463ffffffff1690600401613cab565b6020604051808303816000875af11580156112ab573d6000803e3d6000fd5b505050506040513d601f19601f820116820180604052508101906112cf9190613daf565b6113185760405162461bcd60e51b815260206004820152601a60248201527931b7bab632103737ba103334b730b634bd329030bab1ba34b7b760311b60448201526064016105e9565b6003546002820154604051634175720160e11b81526000926001600160a01b0316916382eae4029161135a916301000000900463ffffffff1690600401613cab565b602060405180830381865afa158015611377573d6000803e3d6000fd5b505050506040513d601f19601f8201168201806040525081019061139b9190613d40565b82549091506001600160801b031681106115b35760405163145f822b60e01b815260206004820152600e60248201526d6c69717569646174696f6e46656560901b60448201526000906064906001600160a01b037f0000000000000000000000000000000000000000000000000000000000000000169063145f822b908301602060405180830381865afa158015611437573d6000803e3d6000fd5b505050506040513d601f19601f8201168201806040525081019061145b9190613d40565b845461147091906001600160801b0316613def565b61147a9190613e06565b611483856139d3565b845461149891906001600160801b0316613d9c565b6114a29190613d9c565b90508082111561153a5760028054908401546001600160a01b039182169163a9059cbb91600160501b9004166114d88486613d6f565b6040518363ffffffff1660e01b81526004016114f5929190613d13565b6020604051808303816000875af1158015611514573d6000803e3d6000fd5b505050506040513d601f19601f820116820180604052508101906115389190613daf565b505b6002548354604051632770a7eb60e21b81526001600160a01b0390921691639dc29fac916115769130916001600160801b031690600401613e28565b600060405180830381600087803b15801561159057600080fd5b505af11580156115a4573d6000803e3d6000fd5b505050506107ef846003613ac8565b81546002546040516370a0823160e01b81526001600160801b03909216916001600160a01b03909116906370a08231906115f1903090600401613d2c565b602060405180830381865afa15801561160e573d6000803e3d6000fd5b505050506040513d601f19601f820116820180604052508101906116329190613d40565b106116b5576002548254604051632770a7eb60e21b81526001600160a01b0390921691639dc29fac916116739130916001600160801b031690600401613e28565b600060405180830381600087803b15801561168d57600080fd5b505af11580156116a1573d6000803e3d6000fd5b505050506116b0836003613ac8565b505050565b6002546040516370a0823160e01b81526000916001600160a01b0316906370a08231906116e6903090600401613d2c565b602060405180830381865afa158015611703573d6000803e3d6000fd5b505050506040513d601f19601f820116820180604052508101906117279190613d40565b600254604051632770a7eb60e21b81529192506001600160a01b031690639dc29fac9061175a9030908590600401613d13565b600060405180830381600087803b15801561177457600080fd5b505af1158015611788573d6000803e3d6000fd5b505084548392508591506000906117a99084906001600160801b0316613e4a565b82546101009290920a6001600160801b0381810219909316918316021790915560035485546001600160a01b03909116925063f85badde916117ed91869116613d6f565b6040518263ffffffff1660e01b815260040161180b91815260200190565b6020604051808303816000875af115801561182a573d6000803e3d6000fd5b505050506040513d601f19601f8201168201806040525081019061184e9190613d40565b5050505050565b61185d613b5a565b63ffffffff811660009081526006602052604090206002810154600160501b90046001600160a01b031633146118df5760405162461bcd60e51b815260206004820152602160248201527f4f6e6c79206f776e6572206d617920636c6f73652068697320706f736974696f6044820152603760f91b60648201526084016105e9565b60028181015462ffffff16106119435760405162461bcd60e51b815260206004820152603560248201526000805160206141bd8339815191526044820152746f72206c69717569646174656420616c726561647960581b60648201526084016105e9565b61194e826004613ac8565b80546000906001600160801b0316611965846139d3565b61196f9190613d9c565b60028054908401546040516323b872dd60e01b81529293506001600160a01b03918216926323b872dd926119b292600160501b9004169030908690600401613e71565b6020604051808303816000875af11580156119d1573d6000803e3d6000fd5b505050506040513d601f19601f820116820180604052508101906119f59190613daf565b611a775760405162461bcd60e51b815260206004820152604760248201527f436f756c64206e6f74207472616e7366657220636f696e7320666f7220736f6d60448201527f6520726561736f6e2e20596f75206861766520746f20616c6c6f7720636f696e6064820152661cc8199a5c9cdd60ca1b608482015260a4016105e9565b6005546002830154835460405163a9059cbb60e01b81526001600160a01b039384169363a9059cbb93611aca93600160501b90910490911691600160801b9091046001600160801b031690600401613e28565b6020604051808303816000875af1158015611ae9573d6000803e3d6000fd5b505050506040513d601f19601f82011682018060405250810190611b0d9190613daf565b611b6f5760405162461bcd60e51b815260206004820152602d60248201527f436f756c64206e6f74207472616e7366657220636f6c6c61746572616c20666f60448201526c391039b7b6b2903932b0b9b7b760991b60648201526084016105e9565b6002548254604051632770a7eb60e21b81526001600160a01b0390921691639dc29fac91611bab9130916001600160801b031690600401613e28565b600060405180830381600087803b158015611bc557600080fd5b505af1158015611bd9573d6000803e3d6000fd5b505050505050610d4b6001600055565b6000611bf3613b5a565b63ffffffff8316600090815260066020526040902060028082015462ffffff1610611c305760405162461bcd60e51b81526004016105e990613e95565b6002810154600160501b90046001600160a01b03163314611c635760405162461bcd60e51b81526004016105e990613ec6565b60405163145f822b60e01b81526001600160a01b037f0000000000000000000000000000000000000000000000000000000000000000169063145f822b90611cad90600401613f08565b602060405180830381865afa158015611cca573d6000803e3d6000fd5b505050506040513d601f19601f82011682018060405250810190611cee9190613d40565b831015611d0d5760405162461bcd60e51b81526004016105e990613f30565b611d1684613952565b600182018054600090611d339084906001600160801b0316613f71565b82546101009290920a6001600160801b038181021990931691909216919091021790555060018101805463ffffffff60a01b1916600160a01b4263ffffffff16021790553415611ec457805434908290601090611da1908490600160801b90046001600160801b0316613f71565b92506101000a8154816001600160801b0302191690836001600160801b0316021790555060007f00000000000000000000000000000000000000000000000000000000000000006001600160a01b031663bdfe7d476040518163ffffffff1660e01b8152600401611e1190613dd1565b602060405180830381865afa158015611e2e573d6000803e3d6000fd5b505050506040513d601f19601f82011682018060405250810190611e529190613cf6565b6001600160a01b03163460405160006040518083038185875af1925050503d8060008114611e9c576040519150601f19603f3d011682016040523d82523d6000602084013e611ea1565b606091505b5050905080611ec25760405162461bcd60e51b81526004016105e990613f91565b505b82611ece85610d4e565b1015611f285760405162461bcd60e51b8152602060048201526024808201527f6e6f7420656e6f75676820636f6c6c61746572616c20746f206d696e7420616d6044820152631bdd5b9d60e21b60648201526084016105e9565b80546001600160801b0316831115611fe0578054600090611f52906001600160801b031685613d6f565b60028054908401546040516340c10f1960e01b81529293506001600160a01b03918216926340c10f1992611f9392600160501b900416908590600401613d13565b600060405180830381600087803b158015611fad57600080fd5b505af1158015611fc1573d6000803e3d6000fd5b505083546001600160801b0319166001600160801b0387161784555050505b80546001600160801b031683101561212957805460009061200b9085906001600160801b0316613d6f565b60028054908401546040516370a0823160e01b815292935083926001600160a01b03928316926370a082319261204f92600160501b90910490911690600401613d2c565b602060405180830381865afa15801561206c573d6000803e3d6000fd5b505050506040513d601f19601f820116820180604052508101906120909190613d40565b101561209b57600080fd5b6002805490830154604051632770a7eb60e21b81526001600160a01b0392831692639dc29fac926120dc92600160501b909104909116908590600401613d13565b600060405180830381600087803b1580156120f657600080fd5b505af115801561210a573d6000803e3d6000fd5b505083546001600160801b0319166001600160801b0387161784555050505b80546040805163ffffffff8716815260208101869052600160801b9092046001600160801b03169082015260008051602061417d8339815191529060600160405180910390a1600191505061065a6001600055565b612186613b5a565b63ffffffff82166000908152600660205260409020600281015462ffffff16156121c25760405162461bcd60e51b81526004016105e990613e95565b6002810154600160501b90046001600160a01b031633146121f55760405162461bcd60e51b81526004016105e990613ec6565b80546001600160801b03600160801b90910481169083161061226e5760405162461bcd60e51b815260206004820152602c60248201527f596f7520646f6e74206861766520656e6f7567682077657468206c6f636b656460448201526b206f6e207468697320706f7360a01b60648201526084016105e9565b805460009061228e908490600160801b90046001600160801b0316613e4a565b6001600160801b0316905060006122a4856139d3565b6122ad83612574565b6122b79190613d6f565b83549091506001600160801b031681116123445760405162461bcd60e51b815260206004820152604260248201527f796f752077616e7420746f206b656570206e6f7420656e6f756768207765746860448201527f20746f20636f76657220656d697373696f6e20616e642063757272656e742066606482015261656560f01b608482015260a4016105e9565b825484908490601090612368908490600160801b90046001600160801b0316613e4a565b82546001600160801b039182166101009390930a92830291909202199091161790555060055460405163a9059cbb60e01b81526001600160a01b039091169063a9059cbb906123bd9033908890600401613e28565b6020604051808303816000875af11580156123dc573d6000803e3d6000fd5b505050506040513d601f19601f820116820180604052508101906124009190613daf565b5082546040805163ffffffff881681526001600160801b038084166020830152600160801b909304909216828201525160008051602061417d8339815191529181900360600190a15050506107266001600055565b61245d613b5a565b6040516301fd3f7760e71b81526001600160a01b037f0000000000000000000000000000000000000000000000000000000000000000169063fe9fbb80906124a9903390600401613d2c565b602060405180830381865afa1580156124c6573d6000803e3d6000fd5b505050506040513d601f19601f820116820180604052508101906124ea9190613daf565b6125065760405162461bcd60e51b81526004016105e990613fe6565b6002546040516340c10f1960e01b81526001600160a01b03909116906340c10f19906125389084908690600401613d13565b600060405180830381600087803b15801561255257600080fd5b505af1158015612566573d6000803e3d6000fd5b505050506107266001600055565b60015460405163524f388960e01b815260206004820152600360248201526239ba3160e91b60448201526000918291600160201b9091046001600160a01b03169063524f388990606401602060405180830381865afa1580156125db573d6000803e3d6000fd5b505050506040513d601f19601f820116820180604052508101906125ff9190613d40565b60015460405163afd0fd1d60e01b815260206004820152600360248201526265746360e81b6044820152919250600091600160201b9091046001600160a01b03169063afd0fd1d90606401602060405180830381865afa158015612667573d6000803e3d6000fd5b505050506040513d601f19601f8201168201806040525081019061268b9190614029565b60ff169050606461269d82600a614130565b60405163145f822b60e01b815260206004820152601260248201527118dbdb1b185d195c985b111a5cd8dbdd5b9d60721b60448201527f00000000000000000000000000000000000000000000000000000000000000006001600160a01b03169063145f822b90606401602060405180830381865afa158015612724573d6000803e3d6000fd5b505050506040513d601f19601f820116820180604052508101906127489190613d40565b612753906064613d6f565b61275d8588613def565b6127679190613def565b6127719190613e06565b61277b9190613e06565b949350505050565b600061278d613b5a565b61279634612574565b82116127a257816127ab565b6127ab34612574565b60405163145f822b60e01b81529092506001600160a01b037f0000000000000000000000000000000000000000000000000000000000000000169063145f822b906127f890600401613f08565b602060405180830381865afa158015612815573d6000803e3d6000fd5b505050506040513d601f19601f820116820180604052508101906128399190613d40565b61284b90670de0b6b3a7640000613def565b82101561286a5760405162461bcd60e51b81526004016105e990613f30565b60015463ffffffff16600090815260066020526040808220346001600160801b03908116600160801b02908616178155905163bdfe7d4760e01b81529091906001600160a01b037f0000000000000000000000000000000000000000000000000000000000000000169063bdfe7d47906128e690600401613dd1565b602060405180830381865afa158015612903573d6000803e3d6000fd5b505050506040513d601f19601f820116820180604052508101906129279190613cf6565b6001600160a01b03163460405160006040518083038185875af1925050503d8060008114612971576040519150601f19603f3d011682016040523d82523d6000602084013e612976565b606091505b50509050806129975760405162461bcd60e51b81526004016105e990613f91565b600282018054600160501b600160f01b03191633600160501b02179055600182018054600160801b600160c01b031916600160801b4263ffffffff1690810263ffffffff60a01b191691909117600160a01b9190910217905560405163145f822b60e01b815260206004820152600c60248201526b696e7465726573745261746560a01b60448201526001600160a01b037f0000000000000000000000000000000000000000000000000000000000000000169063145f822b90606401602060405180830381865afa158015612a71573d6000803e3d6000fd5b505050506040513d601f19601f82011682018060405250810190612a959190613d40565b60018301805462ffffff92909216600160c01b0262ffffff60c01b199092169190911790556002546040516340c10f1960e01b81526001600160a01b03909116906340c10f1990612aec9033908890600401613d13565b600060405180830381600087803b158015612b0657600080fd5b505af1158015612b1a573d6000803e3d6000fd5b50505050600282015460015460408051600160501b9093046001600160a01b0316835263ffffffff90911660208301527f7033b91d43234ea7f0b72ec01052e5285ce842c91dcf6ab963fa44a548741720910160405180910390a16001805463ffffffff16906000612b8b8361413c565b91906101000a81548163ffffffff021916908363ffffffff16021790555063ffffffff1692505050612bbd6001600055565b919050565b612bca613b5a565b63ffffffff8116600090815260066020526040902060028082015462ffffff16148015612c06575060028101546301000000900463ffffffff16155b612c665760405162461bcd60e51b815260206004820152603d602482015260008051602061419d83398151915260448201527f722061756374696f6e2077617320616c7265616479207374617274656400000060648201526084016105e9565b600354815460405163735dbd7760e01b815263ffffffff85166004820152600160801b9091046001600160801b031660248201526001600160a01b039091169063735dbd77906044016020604051808303816000875af1158015612cce573d6000803e3d6000fd5b505050506040513d601f19601f82011682018060405250810190612cf2919061415f565b60028201805463ffffffff9290921663010000000266ffffffff0000001990921691909117905580546001600160801b03169055610d4b6001600055565b612d38613b5a565b60006064600260009054906101000a90046001600160a01b03166001600160a01b03166318160ddd6040518163ffffffff1660e01b8152600401602060405180830381865afa158015612d8f573d6000803e3d6000fd5b505050506040513d601f19601f82011682018060405250810190612db39190613d40565b60405163145f822b60e01b81526020600482015260186024820152771cdd18589a5b1a5e985d1a5bdb919d5b9914195c98d95b9d60421b60448201527f00000000000000000000000000000000000000000000000000000000000000006001600160a01b03169063145f822b90606401602060405180830381865afa158015612e40573d6000803e3d6000fd5b505050506040513d601f19601f82011682018060405250810190612e649190613d40565b612e6e9190613def565b612e789190613e06565b6002546040516370a0823160e01b815291925082916001600160a01b03909116906370a0823190612ead903090600401613d2c565b602060405180830381865afa158015612eca573d6000803e3d6000fd5b505050506040513d601f19601f82011682018060405250810190612eee9190613d40565b1015612f475760405162461bcd60e51b815260206004820152602260248201527f696e73756666696369656e742066756e6473206f6e2043445020636f6e74726160448201526118dd60f21b60648201526084016105e9565b6002546040516370a0823160e01b815260009183916001600160a01b03909116906370a0823190612f7c903090600401613d2c565b602060405180830381865afa158015612f99573d6000803e3d6000fd5b505050506040513d601f19601f82011682018060405250810190612fbd9190613d40565b612fc79190613d6f565b60405163145f822b60e01b81526020600482015260196024820152781b5a5b90d11410985b185b98d9551bd25b9a5d109d5e53dd5d603a1b60448201529091507f00000000000000000000000000000000000000000000000000000000000000006001600160a01b03169063145f822b90606401602060405180830381865afa158015613058573d6000803e3d6000fd5b505050506040513d601f19601f8201168201806040525081019061307c9190613d40565b8110156130d65760405162461bcd60e51b815260206004820152602260248201527f6e6f7420656e6f75676820737572706c757320746f207374617274206275794f6044820152611d5d60f21b60648201526084016105e9565b60025460405163bdfe7d4760e01b81526001600160a01b039182169163095ea7b3917f00000000000000000000000000000000000000000000000000000000000000009091169063bdfe7d479061312f90600401613cd5565b602060405180830381865afa15801561314c573d6000803e3d6000fd5b505050506040513d601f19601f820116820180604052508101906131709190613cf6565b836040518363ffffffff1660e01b815260040161318e929190613d13565b6020604051808303816000875af11580156131ad573d6000803e3d6000fd5b505050506040513d601f19601f820116820180604052508101906131d19190613daf565b61322d5760405162461bcd60e51b815260206004820152602760248201527f636f756c64206e6f7420617070726f766520636f696e7320666f7220736f6d65604482015266103932b0b9b7b760c91b60648201526084016105e9565b50506132396001600055565b565b613243613b5a565b6040516301fd3f7760e71b81526001600160a01b037f0000000000000000000000000000000000000000000000000000000000000000169063fe9fbb809061328f903390600401613d2c565b602060405180830381865afa1580156132ac573d6000803e3d6000fd5b505050506040513d601f19601f820116820180604052508101906132d09190613daf565b6132ec5760405162461bcd60e51b81526004016105e990613fe6565b6002546040516370a0823160e01b815283916001600160a01b0316906370a082319061331c903090600401613d2c565b602060405180830381865afa158015613339573d6000803e3d6000fd5b505050506040513d601f19601f8201168201806040525081019061335d9190613d40565b11156133de5760025460405163a9059cbb60e01b81526001600160a01b039091169063a9059cbb906133959084908690600401613d13565b6020604051808303816000875af11580156133b4573d6000803e3d6000fd5b505050506040513d601f19601f820116820180604052508101906133d89190613daf565b50613621565b6002546040516370a0823160e01b81526000916001600160a01b0316906370a082319061340f903090600401613d2c565b602060405180830381865afa15801561342c573d6000803e3d6000fd5b505050506040513d601f19601f820116820180604052508101906134509190613d40565b61345a9084613d6f565b6002546040516370a0823160e01b81529192506001600160a01b03169063a9059cbb90849083906370a0823190613495903090600401613d2c565b602060405180830381865afa1580156134b2573d6000803e3d6000fd5b505050506040513d601f19601f820116820180604052508101906134d69190613d40565b6040518363ffffffff1660e01b81526004016134f3929190613d13565b6020604051808303816000875af1158015613512573d6000803e3d6000fd5b505050506040513d601f19601f820116820180604052508101906135369190613daf565b50600254604051636eb1769f60e11b81526001600160a01b039091169063095ea7b3908490839063dd62ed3e906135739030908590600401613d82565b602060405180830381865afa158015613590573d6000803e3d6000fd5b505050506040513d601f19601f820116820180604052508101906135b49190613d40565b6135be9085613d9c565b6040518363ffffffff1660e01b81526004016135db929190613d13565b6020604051808303816000875af11580156135fa573d6000803e3d6000fd5b505050506040513d601f19601f8201168201806040525081019061361e9190613daf565b50505b6107266001600055565b613633613b5a565b63ffffffff811660009081526006602052604090206002810154600160381b900462ffffff166001036136c3576002810154600160501b90046001600160a01b031633146136c35760405162461bcd60e51b815260206004820181905260248201527f4f6e6c79206f776e6572206d6179207472616e7366657220696e74657265737460448201526064016105e9565b60028181015462ffffff161061371f5760405162461bcd60e51b815260206004820152602d60248201526000805160206141bd83398151915260448201526c1bdc881b1a5c5d5a59185d1959609a1b60648201526084016105e9565b60028054908201546001600160a01b03918216916323b872dd91600160501b9004163061374b866139d3565b6040518463ffffffff1660e01b815260040161376993929190613e71565b6020604051808303816000875af1158015613788573d6000803e3d6000fd5b505050506040513d601f19601f820116820180604052508101906137ac9190613daf565b6138435760405162461bcd60e51b815260206004820152605c60248201527f576173206e6f742061626c6520746f207472616e73666572206665652e20496e60448201527f73756666696369656e742062616c616e6365206f7220616c6c6f77616e63652e60648201527b08151c9e481d1bc8185b1b1bddc81cdc195b991a5b99c8199a5c9cdd60221b608482015260a4016105e9565b60019081018054600167ffffffff0000000160801b031916600160a01b4263ffffffff160217905560005550565b63ffffffff808216600090815260066020526040902060018101549091600160d81b90910416158015906138ae5750600281015462ffffff166001145b61391b5760405162461bcd60e51b815260206004820152603860248201527f5468697320706f736974696f6e206973206e6f74206d61726b6564206f72206f6044820152771b881b1a5c5d5a59185d1a5bdb8bdb1a5c5d5a59185d195960421b60648201526084016105e9565b80546001600160801b031661392f83610d4e565b11156107265760018101805463ffffffff60d81b19169055610726826000613ac8565b63ffffffff80821660009081526006602052604081206001810154919290916064916301e133809162ffffff600160c01b8204169161399991600160a01b90041642613d6f565b84546139ae91906001600160801b0316613def565b6139b89190613def565b6139c29190613e06565b6139cc9190613e06565b9392505050565b60006139de82613952565b63ffffffff831660009081526006602052604090206001015461065a91906001600160801b0316613d9c565b63ffffffff811660009081526006602052604090206002810154600160501b90046001600160a01b03163314613a825760405162461bcd60e51b815260206004820181905260248201527f4f6e6c79206f776e6572206d61792073657420746869732070726f706572747960448201526064016105e9565b6002810154600160381b900462ffffff16600003613ab55760028101805462ffffff60381b1916600160381b1790555050565b600201805462ffffff60381b1916905550565b63ffffffff82811660008181526006602090815260409182902060028101805462ffffff191662ffffff881690811790915560018201805463ffffffff60a01b1916600160a01b4290981697909702969096179095558251938452908301939093527fb178ef024f193469eaf1f07de14c7fdb010da53f3c6a5b82c968d0e12138192c910160405180910390a1505050565b600260005403613bac5760405162461bcd60e51b815260206004820152601f60248201527f5265656e7472616e637947756172643a207265656e7472616e742063616c6c0060448201526064016105e9565b6002600055565b6001600160a01b0381168114610d4b57600080fd5b60008060408385031215613bdb57600080fd5b8235613be681613bb3565b946020939093013593505050565b63ffffffff81168114610d4b57600080fd5b600060208284031215613c1857600080fd5b81356139cc81613bf4565b60008060408385031215613c3657600080fd5b8235613be681613bf4565b60008060408385031215613c5457600080fd5b8235613c5f81613bf4565b915060208301356001600160801b0381168114613c7b57600080fd5b809150509250929050565b60008060408385031215613c9957600080fd5b823591506020830135613c7b81613bb3565b63ffffffff91909116815260200190565b600060208284031215613cce57600080fd5b5035919050565b60208082526007908201526630bab1ba34b7b760c91b604082015260600190565b600060208284031215613d0857600080fd5b81516139cc81613bb3565b6001600160a01b03929092168252602082015260400190565b6001600160a01b0391909116815260200190565b600060208284031215613d5257600080fd5b5051919050565b634e487b7160e01b600052601160045260246000fd5b8181038181111561065a5761065a613d59565b6001600160a01b0392831681529116602082015260400190565b8082018082111561065a5761065a613d59565b600060208284031215613dc157600080fd5b815180151581146139cc57600080fd5b6020808252600490820152630eecae8d60e31b604082015260600190565b808202811582820484141761065a5761065a613d59565b600082613e2357634e487b7160e01b600052601260045260246000fd5b500490565b6001600160a01b039290921682526001600160801b0316602082015260400190565b6001600160801b03828116828216039080821115613e6a57613e6a613d59565b5092915050565b6001600160a01b039384168152919092166020820152604081019190915260600190565b60208082526017908201527657726f6e67206c69717569646174696f6e53746174757360481b604082015260600190565b60208082526022908201527f4f6e6c79206f776e6572206d6179207570646174652074686520706f7369746960408201526137b760f11b606082015260800190565b6020808252600e908201526d1b5a5b90dbda5b9cd51bd35a5b9d60921b604082015260600190565b60208082526021908201527f796f752063616e206e6f74206d696e74206c657373207468616e203120636f696040820152603760f91b606082015260800190565b6001600160801b03818116838216019080821115613e6a57613e6a613d59565b60208082526035908201527f436f756c64206e6f7420706173732066756e647320746f207765746820636f6e6040820152743a3930b1ba103337b91039b7b6b2903932b0b9b7b760591b606082015260800190565b60208082526023908201527f6f6e6c7920617574686f72697a65642061646472657373206d617920646f207460408201526268697360e81b606082015260800190565b60006020828403121561403b57600080fd5b815160ff811681146139cc57600080fd5b600181815b8085111561408757816000190482111561406d5761406d613d59565b8085161561407a57918102915b93841c9390800290614051565b509250929050565b60008261409e5750600161065a565b816140ab5750600061065a565b81600181146140c157600281146140cb576140e7565b600191505061065a565b60ff8411156140dc576140dc613d59565b50506001821b61065a565b5060208310610133831016604e8410600b841016171561410a575081810a61065a565b614114838361404c565b806000190482111561412857614128613d59565b029392505050565b60006139cc838361408f565b600063ffffffff80831681810361415557614155613d59565b6001019392505050565b60006020828403121561417157600080fd5b81516139cc81613bf456fe08f4653388d1722dda80df5371a929c2646144ba37dca412b134cc286eaa3cb5506f736974696f6e206973206e6f74206f6e206c69717569646174696f6e206f5468697320706f736974696f6e206973206f6e206c69717569646174696f6e20a2646970667358221220a911c93ded70c5e860e385ad3b30401f27dd07277382970427853834c7a4d47864736f6c63430008120033",
  "immutableReferences": {
    "2235": [
      {
        "length": 32,
        "start": 1291
      },
      {
        "length": 32,
        "start": 2149
      },
      {
        "length": 32,
        "start": 2681
      },
      {
        "length": 32,
        "start": 2811
      },
      {
        "length": 32,
        "start": 3060
      },
      {
        "length": 32,
        "start": 3522
      },
      {
        "length": 32,
        "start": 3709
      },
      {
        "length": 32,
        "start": 3888
      },
      {
        "length": 32,
        "start": 4049
      },
      {
        "length": 32,
        "start": 4210
      },
      {
        "length": 32,
        "start": 5105
      },
      {
        "length": 32,
        "start": 7290
      },
      {
        "length": 32,
        "start": 7625
      },
      {
        "length": 32,
        "start": 9332
      },
      {
        "length": 32,
        "start": 9941
      },
      {
        "length": 32,
        "start": 10181
      },
      {
        "length": 32,
        "start": 10419
      },
      {
        "length": 32,
        "start": 10794
      },
      {
        "length": 32,
        "start": 11761
      },
      {
        "length": 32,
        "start": 12297
      },
      {
        "length": 32,
        "start": 12538
      },
      {
        "length": 32,
        "start": 12890
      }
    ]
  },
  "source": "// SPDX-License-Identifier: UNLICENSED\r\npragma solidity 0.8.18;\r\nimport \"@openzeppelin/contracts/token/ERC20/IERC20.sol\";\r\nimport \"@openzeppelin/contracts/security/ReentrancyGuard.sol\";\r\nimport \"./IDAO.sol\";\r\n\r\ninterface IERC20MintableAndBurnable is IERC20{\r\n    function mint(address to, uint256 amount) external;\r\n    function burn(address from, uint256 amount) external;\r\n}\r\n\r\ninterface IAuction{\r\n    function initCoinsBuyOut(uint32 posID, uint128 collateral) external returns (uint32 auctionID);\r\n    function isFinalized(uint256 auctionId) external view returns (bool finalized);\r\n    function claimToFinalizeAuction(uint32 auctionID) external returns (bool success);\r\n    function getPaymentAmount(uint32 auctionID) external view returns (uint256);\r\n    function initCoinsBuyOutForStabilization(uint256 coinsAmountNeeded) external returns (uint256 auctionID);\r\n}\r\n\r\ninterface ICart{\r\n    function getPrice(string memory symbol) external view returns (uint256);\r\n    function getDecimals(string memory symbol) external view returns (uint8);\r\n}\r\n\r\n    struct Position {\r\n        uint128 coinsMinted;\r\n        uint128 wethAmountLocked;\r\n        uint128 interestAmountRecorded;\r\n        uint32 timeOpened;\r\n        uint32 lastTimeUpdated;\r\n        uint24 interestRate;\r\n        uint32 markedOnLiquidationTimestamp;\r\n        uint24 liquidationStatus; //0 - ok, 1- markedOnLiquidation, 2 - onLiquidation, 3 - liquidated, 4 - closed;\r\n        uint32 liquidationAuctionID;\r\n        uint24 restrictInterestWithdrawal;\r\n        address owner;\r\n    }\r\n\r\ncontract CDP is ReentrancyGuard{\r\n    uint32 public numPositions;\r\n    IDAO immutable dao;\r\n    ICart oracleCart;\r\n    IERC20MintableAndBurnable coin;\r\n    IAuction auction;\r\n    IERC20MintableAndBurnable rule;\r\n    IERC20 weth;\r\n\r\n    mapping(uint32 => Position) public positions;\r\n    event PositionOpened (address owner, uint256 posID);\r\n    event PositionUpdated (uint32 posID, uint256 newStableCoinsAmount, uint256 wethLocked);\r\n    event liquidationStatusChanged (uint32 posID, uint24 liquidationStatus);\r\n\r\n    constructor(address INTDAOaddress){\r\n        dao = IDAO(INTDAOaddress);\r\n    }\r\n\r\n    function renewContracts() external{\r\n        coin = IERC20MintableAndBurnable(dao.addresses(\"stableCoin\"));\r\n        rule = IERC20MintableAndBurnable(dao.addresses(\"rule\"));\r\n        oracleCart = ICart(dao.addresses(\"cart\"));\r\n        auction = IAuction(dao.addresses(\"auction\"));\r\n        weth = IERC20(dao.addresses(\"weth\"));\r\n    }\r\n\r\n    function openCDP(uint256 stableCoinsToMint) nonReentrant external payable returns (uint256){\r\n        stableCoinsToMint = (stableCoinsToMint > getMaxStableCoinsToMint(msg.value))\r\n            ?getMaxStableCoinsToMint(msg.value)\r\n            :stableCoinsToMint;\r\n\r\n        require (stableCoinsToMint >= dao.params(\"minCoinsToMint\")*10**18, \"you can not mint less than 1 coin\");\r\n\r\n        Position storage p = positions[numPositions];\r\n\r\n        p.coinsMinted = uint128(stableCoinsToMint);\r\n        p.wethAmountLocked = uint128(msg.value);\r\n        (bool successTransfer, ) = dao.addresses(\"weth\").call{value: msg.value}(\"\");\r\n        require(successTransfer, \"Could not pass funds to weth contract for some reason\");\r\n        p.owner = msg.sender;\r\n        p.timeOpened = uint32(block.timestamp);\r\n        p.lastTimeUpdated = uint32(block.timestamp);\r\n        p.interestRate = uint24(dao.params(\"interestRate\"));\r\n        coin.mint(msg.sender, stableCoinsToMint);\r\n\r\n        emit PositionOpened(p.owner, numPositions);\r\n        return numPositions++;\r\n    }\r\n\r\n    function interestAmountUnrecorded(uint32 posID) public view returns (uint256 interestAmount) {\r\n        Position storage p = positions[posID];\r\n        return p.coinsMinted * (block.timestamp - p.lastTimeUpdated) * p.interestRate / 31536000 / 100;\r\n    }\r\n\r\n    function totalCurrentFee(uint32 posID) public view returns (uint256 fee){\r\n        return positions[posID].interestAmountRecorded + interestAmountUnrecorded(posID);\r\n    }\r\n\r\n    function getMaxStableCoinsToMint(uint256 ethValue) public view returns (uint256 amount) {\r\n        uint256 price = oracleCart.getPrice(\"stb\");\r\n        uint256 decimals = oracleCart.getDecimals(\"etc\");\r\n        return ethValue * price * (100 - dao.params(\"collateralDiscount\"))/(10**decimals)/100;\r\n    }\r\n\r\n    function getMaxStableCoinsToMintForPos(uint32 posID) public view returns (uint256 maxAmount){\r\n        return getMaxStableCoinsToMint(positions[posID].wethAmountLocked) - totalCurrentFee(posID);\r\n    }\r\n\r\n    function claimInterest(uint256 amount, address beneficiary) nonReentrant external{\r\n        require(dao.isAuthorized(msg.sender), \"only authorized address may do this\");\r\n        if (coin.balanceOf(address(this))>amount)\r\n            coin.transfer(beneficiary, amount);\r\n        else {\r\n            uint256 difference = amount - coin.balanceOf(address(this));\r\n            coin.transfer(beneficiary, coin.balanceOf(address(this)));\r\n            coin.approve(beneficiary, difference+coin.allowance(address(this), beneficiary));\r\n        }\r\n    }\r\n\r\n    function claimEmission(uint256 amount, address beneficiary) nonReentrant external{\r\n        require(dao.isAuthorized(msg.sender), \"only authorized address may do this\");\r\n        coin.mint(beneficiary,amount);\r\n    }\r\n\r\n    function closeCDP(uint32 posID) nonReentrant external{\r\n        Position storage p = positions[posID];\r\n        require(p.owner == msg.sender, \"Only owner may close his position\");\r\n        require(p.liquidationStatus < 2, \"This position is on liquidation or liquidated already\");\r\n        changeStatus(posID, 4);\r\n        uint256 overallDebt = totalCurrentFee(posID)+p.coinsMinted;\r\n        require(coin.transferFrom(p.owner, address(this), overallDebt), \"Could not transfer coins for some reason. You have to allow coins first\");\r\n        require (weth.transfer(p.owner, p.wethAmountLocked), \"Could not transfer collateral for some reason\");\r\n        coin.burn(address(this), p.coinsMinted);\r\n    }\r\n\r\n    function transferInterest(uint32 posID) nonReentrant external{\r\n        Position storage p = positions[posID];\r\n        if (p.restrictInterestWithdrawal==1){\r\n            require(p.owner == msg.sender, \"Only owner may transfer interest\");\r\n        }\r\n        require(p.liquidationStatus < 2, \"This position is on liquidation or liquidated\");\r\n        require(coin.transferFrom(p.owner, address(this), totalCurrentFee(posID)), \"Was not able to transfer fee. Insufficient balance or allowance. Try to allow spending first\");\r\n        p.interestAmountRecorded = 0;\r\n        p.lastTimeUpdated = uint32(block.timestamp);\r\n    }\r\n\r\n    function switchRestrictInterestWithdrawal(uint32 posID) external{\r\n        Position storage p = positions[posID];\r\n        require (p.owner == msg.sender, \"Only owner may set this property\");\r\n            if (p.restrictInterestWithdrawal == 0)\r\n                p.restrictInterestWithdrawal = 1;\r\n            else\r\n                p.restrictInterestWithdrawal = 0;\r\n    }\r\n\r\n    function allowSurplusToAuction() nonReentrant external{\r\n        uint256 stabilizationFundAmount = dao.params(\"stabilizationFundPercent\")*coin.totalSupply()/100;\r\n        require (coin.balanceOf(address(this)) >= stabilizationFundAmount, \"insufficient funds on CDP contract\");\r\n        uint256 surplus = coin.balanceOf(address(this)) - stabilizationFundAmount;\r\n        require (surplus >= dao.params(\"minCDPBalanceToInitBuyOut\"), \"not enough surplus to start buyOut\");\r\n        require (coin.approve(dao.addresses(\"auction\"), surplus), \"could not approve coins for some reason\");\r\n    }\r\n\r\n    function claimMarginCall(uint32 posID) nonReentrant external{\r\n        Position storage p = positions[posID];\r\n        require (p.markedOnLiquidationTimestamp >0 && block.timestamp - p.markedOnLiquidationTimestamp > dao.params(\"marginCallTimeLimit\"), \"Position is not marked on liquidation or owner still has time\");\r\n        require(p.liquidationStatus == 1, \"Wrong liquidation status\");\r\n        require(getMaxStableCoinsToMintForPos(posID) < p.coinsMinted, \"Collateral is enough, should erase mark\");\r\n        changeStatus(posID, 2);\r\n        uint256 currentAllowance = weth.allowance(dao.addresses(\"cdp\"), dao.addresses(\"auction\"));\r\n        require(weth.approve(dao.addresses(\"auction\"), currentAllowance+p.wethAmountLocked), \"could not approve weth for some reason\");\r\n    }\r\n\r\n    function startCoinsBuyOut(uint32 posID) nonReentrant external{\r\n        Position storage p = positions[posID];\r\n        require (p.liquidationStatus == 2 && p.liquidationAuctionID == 0, \"Position is not on liquidation or auction was already started\");\r\n        p.liquidationAuctionID = auction.initCoinsBuyOut(posID, p.wethAmountLocked);\r\n        p.wethAmountLocked = 0;\r\n    }\r\n\r\n    //(tut oshibka paymentAmount)\r\n    function finishMarginCall(uint32 posID) external{\r\n        Position storage p = positions[posID];\r\n        require(p.liquidationStatus == 2 && p.liquidationAuctionID !=0, \"Position is not on liquidation or was already liquidated or auction was not started\");\r\n        if (!auction.isFinalized(p.liquidationAuctionID))\r\n            require(auction.claimToFinalizeAuction(p.liquidationAuctionID), \"could not finalize auction\");\r\n\r\n        uint256 paymentAmount = auction.getPaymentAmount(p.liquidationAuctionID);\r\n\r\n        if (paymentAmount >=p.coinsMinted){\r\n            uint256 overallDebt = p.coinsMinted + totalCurrentFee(posID) + p.coinsMinted * dao.params(\"liquidationFee\") / 100;\r\n            if (paymentAmount > overallDebt)\r\n                coin.transfer(p.owner, paymentAmount - overallDebt);\r\n            coin.burn(address(this), p.coinsMinted);\r\n            changeStatus(posID, 3);\r\n            return;\r\n        }\r\n        else { //TODO: after auction somthing passed here\r\n            if (coin.balanceOf(address(this)) >= p.coinsMinted){\r\n                coin.burn(address(this), p.coinsMinted);\r\n                changeStatus(posID, 3);\r\n                return;\r\n            }\r\n            else {\r\n                uint256 toBurn = coin.balanceOf(address(this));\r\n                coin.burn(address(this), toBurn);\r\n                p.coinsMinted -= uint128(toBurn);\r\n                auction.initCoinsBuyOutForStabilization(p.coinsMinted - paymentAmount);\r\n            }\r\n        }\r\n    }\r\n\r\n    function changeStatus(uint32 posID, uint24 currentStatus) internal{\r\n        Position storage p = positions[posID];\r\n        p.liquidationStatus = currentStatus;\r\n        p.lastTimeUpdated = uint32(block.timestamp);\r\n        emit liquidationStatusChanged(posID, currentStatus);\r\n    }\r\n\r\n    function markToLiquidate(uint32 posID) external{\r\n        Position storage p = positions[posID];\r\n        require (p.markedOnLiquidationTimestamp == 0 && p.liquidationStatus == 0, \"wrong liquidationStatus\");\r\n        if (getMaxStableCoinsToMintForPos(posID) < p.coinsMinted) {\r\n            p.markedOnLiquidationTimestamp = uint32(block.timestamp);\r\n            changeStatus(posID, 1);\r\n        }\r\n    }\r\n\r\n    function eraseMarkToLiquidate(uint32 posID) public{\r\n        Position storage p = positions[posID];\r\n        require (p.markedOnLiquidationTimestamp >0 && p.liquidationStatus == 1, \"This position is not marked or on liquidation/liquidated\");\r\n        if (getMaxStableCoinsToMintForPos(posID) > p.coinsMinted) {\r\n            p.markedOnLiquidationTimestamp = 0;\r\n            changeStatus(posID, 0);\r\n        }\r\n    }\r\n\r\n    function updateCDP(uint32 posID, uint newStableCoinsAmount) nonReentrant external payable returns (bool success){\r\n        Position storage p = positions[posID];\r\n        require(p.liquidationStatus<2, \"Wrong liquidationStatus\");\r\n        require(p.owner == msg.sender, \"Only owner may update the position\");\r\n        require (newStableCoinsAmount >= dao.params(\"minCoinsToMint\"), \"you can not mint less than 1 coin\");\r\n\r\n        p.interestAmountRecorded += uint128(interestAmountUnrecorded(posID));\r\n        p.lastTimeUpdated = uint32(block.timestamp);\r\n\r\n        if (msg.value>0) {\r\n            p.wethAmountLocked += uint128(msg.value);\r\n            (bool successTransfer, ) = dao.addresses(\"weth\").call{value: msg.value}(\"\");\r\n            require(successTransfer, \"Could not pass funds to weth contract for some reason\");\r\n        }\r\n\r\n        require(getMaxStableCoinsToMintForPos(posID) >= newStableCoinsAmount, \"not enough collateral to mint amount\");\r\n\r\n        if (newStableCoinsAmount > p.coinsMinted) {\r\n            uint256 difference = newStableCoinsAmount - p.coinsMinted;\r\n            coin.mint(p.owner, difference);\r\n            p.coinsMinted = uint128(newStableCoinsAmount);\r\n        }\r\n        if (newStableCoinsAmount < p.coinsMinted) {\r\n            uint256 difference = p.coinsMinted - newStableCoinsAmount;\r\n            require(coin.balanceOf(p.owner)>=difference);\r\n            coin.burn(p.owner, difference);\r\n            p.coinsMinted = uint128(newStableCoinsAmount);\r\n        }\r\n        emit PositionUpdated(posID, newStableCoinsAmount, p.wethAmountLocked);\r\n        return true;\r\n    }\r\n\r\n    function withdrawEther (uint32 posID, uint128 etherToWithdraw) nonReentrant external{\r\n        Position storage p = positions[posID];\r\n        require(p.liquidationStatus == 0, \"Wrong liquidationStatus\");\r\n        require(p.owner == msg.sender, \"Only owner may update the position\");\r\n        require (etherToWithdraw<p.wethAmountLocked, \"You dont have enough weth locked on this pos\");\r\n        uint256 wethToLeave = p.wethAmountLocked - etherToWithdraw;\r\n        uint256 maxCoins = getMaxStableCoinsToMint(wethToLeave) - totalCurrentFee(posID);\r\n        require (maxCoins>p.coinsMinted, \"you want to keep not enough weth to cover emission and current fee\");\r\n        p.wethAmountLocked -= etherToWithdraw;\r\n        weth.transfer(msg.sender, etherToWithdraw);\r\n        emit PositionUpdated (posID, p.coinsMinted, p.wethAmountLocked);\r\n    }\r\n\r\n    function burnRule() external{\r\n        rule.burn(address(this), rule.balanceOf(address(this)));\r\n    }\r\n\r\n    function mintRule(address to, uint256 amount) external returns (bool success){\r\n        require (msg.sender == dao.addresses(\"auction\"), \"Only auction is allowed to claim mint\");\r\n        rule.mint(to, amount);\r\n        return true;\r\n    }\r\n}\r\n",
  "sourcePath": "C:\\Users\\d.nagornykh\\YandexDisk\\\\ICO\\CryptoFiat\\repo\\contracts\\CDP.sol",
  "compiler": {
    "name": "solc",
    "version": "0.8.18+commit.87f61d96.Emscripten.clang"
  },
  "schemaVersion": "3.4.14",
  "updatedAt": "2023-09-29T08:17:48.045Z",
  "devdoc": {
    "kind": "dev",
    "methods": {},
    "version": 1
  },
  "userdoc": {
    "kind": "user",
    "methods": {},
    "version": 1
  }
}