{
  "contractName": "CDP",
  "abi": [
    {
      "inputs": [
        {
          "internalType": "address",
          "name": "_INTDAOaddress",
          "type": "address"
        }
      ],
      "stateMutability": "nonpayable",
      "type": "constructor"
    },
    {
      "inputs": [
        {
          "internalType": "address",
          "name": "",
          "type": "address"
        }
      ],
      "name": "allowedToMint",
      "outputs": [
        {
          "internalType": "uint256",
          "name": "",
          "type": "uint256"
        }
      ],
      "stateMutability": "view",
      "type": "function"
    },
    {
      "inputs": [],
      "name": "numPositions",
      "outputs": [
        {
          "internalType": "uint256",
          "name": "",
          "type": "uint256"
        }
      ],
      "stateMutability": "view",
      "type": "function"
    },
    {
      "inputs": [
        {
          "internalType": "uint256",
          "name": "",
          "type": "uint256"
        }
      ],
      "name": "positions",
      "outputs": [
        {
          "internalType": "bool",
          "name": "onLiquidation",
          "type": "bool"
        },
        {
          "internalType": "bool",
          "name": "liquidated",
          "type": "bool"
        },
        {
          "internalType": "address",
          "name": "owner",
          "type": "address"
        },
        {
          "internalType": "uint256",
          "name": "stableCoins_minted",
          "type": "uint256"
        },
        {
          "internalType": "uint256",
          "name": "ethAmountLocked",
          "type": "uint256"
        },
        {
          "internalType": "uint256",
          "name": "feeGenerated",
          "type": "uint256"
        },
        {
          "internalType": "uint256",
          "name": "timeOpened",
          "type": "uint256"
        },
        {
          "internalType": "uint256",
          "name": "lastTimeUpdated",
          "type": "uint256"
        },
        {
          "internalType": "uint256",
          "name": "feeRate",
          "type": "uint256"
        }
      ],
      "stateMutability": "view",
      "type": "function"
    },
    {
      "inputs": [
        {
          "internalType": "address",
          "name": "to",
          "type": "address"
        }
      ],
      "name": "allowed",
      "outputs": [
        {
          "internalType": "uint256",
          "name": "amount",
          "type": "uint256"
        }
      ],
      "stateMutability": "view",
      "type": "function"
    },
    {
      "inputs": [],
      "name": "decreaseAllowed",
      "outputs": [
        {
          "internalType": "bool",
          "name": "success",
          "type": "bool"
        }
      ],
      "stateMutability": "nonpayable",
      "type": "function"
    },
    {
      "inputs": [
        {
          "internalType": "uint256",
          "name": "StableCoinsToMint",
          "type": "uint256"
        }
      ],
      "name": "openCDP",
      "outputs": [
        {
          "internalType": "uint256",
          "name": "posId",
          "type": "uint256"
        }
      ],
      "stateMutability": "payable",
      "type": "function"
    },
    {
      "inputs": [
        {
          "internalType": "uint256",
          "name": "posId",
          "type": "uint256"
        }
      ],
      "name": "generatedFee",
      "outputs": [
        {
          "internalType": "uint256",
          "name": "fee",
          "type": "uint256"
        }
      ],
      "stateMutability": "view",
      "type": "function"
    },
    {
      "inputs": [
        {
          "internalType": "uint256",
          "name": "StableCoinsToMint",
          "type": "uint256"
        },
        {
          "internalType": "uint256",
          "name": "ethValue",
          "type": "uint256"
        }
      ],
      "name": "getMaxStableCoinsToMint",
      "outputs": [
        {
          "internalType": "uint256",
          "name": "amount",
          "type": "uint256"
        }
      ],
      "stateMutability": "view",
      "type": "function"
    },
    {
      "inputs": [
        {
          "internalType": "uint256",
          "name": "posID",
          "type": "uint256"
        }
      ],
      "name": "closeCDP",
      "outputs": [],
      "stateMutability": "nonpayable",
      "type": "function"
    },
    {
      "inputs": [
        {
          "internalType": "uint256",
          "name": "posID",
          "type": "uint256"
        },
        {
          "internalType": "uint256",
          "name": "newStableCoinsAmount",
          "type": "uint256"
        }
      ],
      "name": "updateCDP",
      "outputs": [
        {
          "internalType": "bool",
          "name": "success",
          "type": "bool"
        }
      ],
      "stateMutability": "payable",
      "type": "function"
    },
    {
      "inputs": [],
      "name": "mintAllowed",
      "outputs": [],
      "stateMutability": "nonpayable",
      "type": "function"
    },
    {
      "inputs": [
        {
          "internalType": "uint256",
          "name": "posID",
          "type": "uint256"
        },
        {
          "internalType": "uint256",
          "name": "etherToWithdraw",
          "type": "uint256"
        }
      ],
      "name": "withdrawEther",
      "outputs": [],
      "stateMutability": "nonpayable",
      "type": "function"
    },
    {
      "inputs": [],
      "name": "recieveInterestAfterAuction",
      "outputs": [],
      "stateMutability": "nonpayable",
      "type": "function"
    }
  ],
  "bytecode": "0x60806040526000600160006101000a81548173ffffffffffffffffffffffffffffffffffffffff021916908373ffffffffffffffffffffffffffffffffffffffff1602179055503480156200005357600080fd5b506040516200173e3803806200173e83398181016040528101906200007991906200034c565b80600160006101000a81548173ffffffffffffffffffffffffffffffffffffffff021916908373ffffffffffffffffffffffffffffffffffffffff160217905550600160009054906101000a900473ffffffffffffffffffffffffffffffffffffffff16600260006101000a81548173ffffffffffffffffffffffffffffffffffffffff021916908373ffffffffffffffffffffffffffffffffffffffff160217905550600260009054906101000a900473ffffffffffffffffffffffffffffffffffffffff1673ffffffffffffffffffffffffffffffffffffffff1663bdfe7d476040518163ffffffff1660e01b81526004016200017890620003df565b602060405180830381865afa15801562000196573d6000803e3d6000fd5b505050506040513d601f19601f82011682018060405250810190620001bc91906200034c565b600360006101000a81548173ffffffffffffffffffffffffffffffffffffffff021916908373ffffffffffffffffffffffffffffffffffffffff160217905550600260009054906101000a900473ffffffffffffffffffffffffffffffffffffffff1673ffffffffffffffffffffffffffffffffffffffff1663bdfe7d476040518163ffffffff1660e01b8152600401620002579062000451565b602060405180830381865afa15801562000275573d6000803e3d6000fd5b505050506040513d601f19601f820116820180604052508101906200029b91906200034c565b600460006101000a81548173ffffffffffffffffffffffffffffffffffffffff021916908373ffffffffffffffffffffffffffffffffffffffff1602179055505062000473565b600080fd5b600073ffffffffffffffffffffffffffffffffffffffff82169050919050565b60006200031482620002e7565b9050919050565b620003268162000307565b81146200033257600080fd5b50565b60008151905062000346816200031b565b92915050565b600060208284031215620003655762000364620002e2565b5b6000620003758482850162000335565b91505092915050565b600082825260208201905092915050565b7f6f7261636c654164647265737300000000000000000000000000000000000000600082015250565b6000620003c7600d836200037e565b9150620003d4826200038f565b602082019050919050565b60006020820190508181036000830152620003fa81620003b8565b9050919050565b7f737461626c65436f696e41646472657373000000000000000000000000000000600082015250565b6000620004396011836200037e565b9150620004468262000401565b602082019050919050565b600060208201905081810360008301526200046c816200042a565b9050919050565b6112bb80620004836000396000f3fe6080604052600436106100c25760003560e01c80637ec698d31161007f578063c467201e11610059578063c467201e1461027a578063cacda7f314610291578063d63a8e11146102ce578063e14716021461030b576100c2565b80637ec698d3146101bb57806399fbab88146101f8578063a89da3731461023d576100c2565b806319b1718d146100c75780631e4b5ede146100de5780632650a47c146101075780635e71823b146101305780636bb224c31461015b5780636e2796611461018b575b600080fd5b3480156100d357600080fd5b506100dc610336565b005b3480156100ea57600080fd5b5061010560048036038101906101009190610c6d565b610338565b005b34801561011357600080fd5b5061012e60048036038101906101299190610c9a565b61033b565b005b34801561013c57600080fd5b5061014561033f565b6040516101529190610ce9565b60405180910390f35b61017560048036038101906101709190610c6d565b610345565b6040516101829190610ce9565b60405180910390f35b6101a560048036038101906101a09190610c9a565b6104ed565b6040516101b29190610d1f565b60405180910390f35b3480156101c757600080fd5b506101e260048036038101906101dd9190610c9a565b61087d565b6040516101ef9190610ce9565b60405180910390f35b34801561020457600080fd5b5061021f600480360381019061021a9190610c6d565b6109fd565b60405161023499989796959493929190610d7b565b60405180910390f35b34801561024957600080fd5b50610264600480360381019061025f9190610e34565b610a85565b6040516102719190610ce9565b60405180910390f35b34801561028657600080fd5b5061028f610a9d565b005b34801561029d57600080fd5b506102b860048036038101906102b39190610c6d565b610b33565b6040516102c59190610ce9565b60405180910390f35b3480156102da57600080fd5b506102f560048036038101906102f09190610e34565b610b9c565b6040516103029190610ce9565b60405180910390f35b34801561031757600080fd5b50610320610be5565b60405161032d9190610d1f565b60405180910390f35b565b50565b5050565b60005481565b600080600081548092919061035990610e90565b91905055905060006006600083815260200190815260200160002090506000610382843461087d565b905080841161038f578390505b80600760003373ffffffffffffffffffffffffffffffffffffffff1673ffffffffffffffffffffffffffffffffffffffff16815260200190815260200160002081905550808260010181905550348260020181905550338260000160026101000a81548173ffffffffffffffffffffffffffffffffffffffff021916908373ffffffffffffffffffffffffffffffffffffffff16021790555042826004018190555042826005018190555060008260030181905550600260009054906101000a900473ffffffffffffffffffffffffffffffffffffffff1673ffffffffffffffffffffffffffffffffffffffff1663145f822b6040518163ffffffff1660e01b815260040161049d90610f36565b602060405180830381865afa1580156104ba573d6000803e3d6000fd5b505050506040513d601f19601f820116820180604052508101906104de9190610f6b565b82600601819055505050919050565b6000806006600085815260200190815260200160002090503373ffffffffffffffffffffffffffffffffffffffff168160000160029054906101000a900473ffffffffffffffffffffffffffffffffffffffff1673ffffffffffffffffffffffffffffffffffffffff1614610597576040517f08c379a000000000000000000000000000000000000000000000000000000000815260040161058e9061100a565b60405180910390fd5b60004282600501819055506105ab85610b33565b8260030181905550600260009054906101000a900473ffffffffffffffffffffffffffffffffffffffff1673ffffffffffffffffffffffffffffffffffffffff1663145f822b6040518163ffffffff1660e01b815260040161060c90610f36565b602060405180830381865afa158015610629573d6000803e3d6000fd5b505050506040513d601f19601f8201168201806040525081019061064d9190610f6b565b8260060181905550600034111561067a5734826002016000828254610672919061102a565b925050819055505b61068884836002015461087d565b90508381101561069757600080fd5b81600101548411156107075760008260010154856106b59190611080565b905080600760003373ffffffffffffffffffffffffffffffffffffffff1673ffffffffffffffffffffffffffffffffffffffff1681526020019081526020016000208190555060019350505050610877565b81600101548410156108745760008483600101546107259190611080565b905080600460009054906101000a900473ffffffffffffffffffffffffffffffffffffffff1673ffffffffffffffffffffffffffffffffffffffff1663dd62ed3e33306040518363ffffffff1660e01b81526004016107859291906110b4565b602060405180830381865afa1580156107a2573d6000803e3d6000fd5b505050506040513d601f19601f820116820180604052508101906107c69190610f6b565b10156107d157600080fd5b600460009054906101000a900473ffffffffffffffffffffffffffffffffffffffff1673ffffffffffffffffffffffffffffffffffffffff1663fcd3533c82306040518363ffffffff1660e01b815260040161082e9291906110dd565b6020604051808303816000875af115801561084d573d6000803e3d6000fd5b505050506040513d601f19601f820116820180604052508101906108719190611132565b50505b50505b92915050565b600080600360009054906101000a900473ffffffffffffffffffffffffffffffffffffffff1673ffffffffffffffffffffffffffffffffffffffff1663aa309fef6040518163ffffffff1660e01b8152600401602060405180830381865afa1580156108ed573d6000803e3d6000fd5b505050506040513d601f19601f820116820180604052508101906109119190610f6b565b905060006064600260009054906101000a900473ffffffffffffffffffffffffffffffffffffffff1673ffffffffffffffffffffffffffffffffffffffff1663145f822b6040518163ffffffff1660e01b8152600401610970906111ab565b602060405180830381865afa15801561098d573d6000803e3d6000fd5b505050506040513d601f19601f820116820180604052508101906109b19190610f6b565b60646109bd9190611080565b83866109c991906111cb565b6109d391906111cb565b6109dd9190611254565b9050808510156109f15784925050506109f7565b80925050505b92915050565b60066020528060005260406000206000915090508060000160009054906101000a900460ff16908060000160019054906101000a900460ff16908060000160029054906101000a900473ffffffffffffffffffffffffffffffffffffffff16908060010154908060020154908060030154908060040154908060050154908060060154905089565b60076020528060005260406000206000915090505481565b600460009054906101000a900473ffffffffffffffffffffffffffffffffffffffff1673ffffffffffffffffffffffffffffffffffffffff16631249c58b6040518163ffffffff1660e01b81526004016020604051808303816000875af1158015610b0c573d6000803e3d6000fd5b505050506040513d601f19601f82011682018060405250810190610b309190611132565b50565b60008060066000848152602001908152602001600020905060646301e133808260060154836005015442610b679190611080565b8460010154610b7691906111cb565b610b8091906111cb565b610b8a9190611254565b610b949190611254565b915050919050565b6000600760008373ffffffffffffffffffffffffffffffffffffffff1673ffffffffffffffffffffffffffffffffffffffff168152602001908152602001600020549050919050565b600080600760003373ffffffffffffffffffffffffffffffffffffffff1673ffffffffffffffffffffffffffffffffffffffff168152602001908152602001600020819055506001905090565b600080fd5b6000819050919050565b610c4a81610c37565b8114610c5557600080fd5b50565b600081359050610c6781610c41565b92915050565b600060208284031215610c8357610c82610c32565b5b6000610c9184828501610c58565b91505092915050565b60008060408385031215610cb157610cb0610c32565b5b6000610cbf85828601610c58565b9250506020610cd085828601610c58565b9150509250929050565b610ce381610c37565b82525050565b6000602082019050610cfe6000830184610cda565b92915050565b60008115159050919050565b610d1981610d04565b82525050565b6000602082019050610d346000830184610d10565b92915050565b600073ffffffffffffffffffffffffffffffffffffffff82169050919050565b6000610d6582610d3a565b9050919050565b610d7581610d5a565b82525050565b600061012082019050610d91600083018c610d10565b610d9e602083018b610d10565b610dab604083018a610d6c565b610db86060830189610cda565b610dc56080830188610cda565b610dd260a0830187610cda565b610ddf60c0830186610cda565b610dec60e0830185610cda565b610dfa610100830184610cda565b9a9950505050505050505050565b610e1181610d5a565b8114610e1c57600080fd5b50565b600081359050610e2e81610e08565b92915050565b600060208284031215610e4a57610e49610c32565b5b6000610e5884828501610e1f565b91505092915050565b7f4e487b7100000000000000000000000000000000000000000000000000000000600052601160045260246000fd5b6000610e9b82610c37565b91507fffffffffffffffffffffffffffffffffffffffffffffffffffffffffffffffff821415610ece57610ecd610e61565b5b600182019050919050565b600082825260208201905092915050565b7f696e746572657374526174650000000000000000000000000000000000000000600082015250565b6000610f20600c83610ed9565b9150610f2b82610eea565b602082019050919050565b60006020820190508181036000830152610f4f81610f13565b9050919050565b600081519050610f6581610c41565b92915050565b600060208284031215610f8157610f80610c32565b5b6000610f8f84828501610f56565b91505092915050565b7f4f6e6c79206f776e6572206d6179207570646174652074686520706f7369746960008201527f6f6e000000000000000000000000000000000000000000000000000000000000602082015250565b6000610ff4602283610ed9565b9150610fff82610f98565b604082019050919050565b6000602082019050818103600083015261102381610fe7565b9050919050565b600061103582610c37565b915061104083610c37565b9250827fffffffffffffffffffffffffffffffffffffffffffffffffffffffffffffffff0382111561107557611074610e61565b5b828201905092915050565b600061108b82610c37565b915061109683610c37565b9250828210156110a9576110a8610e61565b5b828203905092915050565b60006040820190506110c96000830185610d6c565b6110d66020830184610d6c565b9392505050565b60006040820190506110f26000830185610cda565b6110ff6020830184610d6c565b9392505050565b61110f81610d04565b811461111a57600080fd5b50565b60008151905061112c81611106565b92915050565b60006020828403121561114857611147610c32565b5b60006111568482850161111d565b91505092915050565b7f636f6c6c61746572616c446973636f756e740000000000000000000000000000600082015250565b6000611195601283610ed9565b91506111a08261115f565b602082019050919050565b600060208201905081810360008301526111c481611188565b9050919050565b60006111d682610c37565b91506111e183610c37565b9250817fffffffffffffffffffffffffffffffffffffffffffffffffffffffffffffffff048311821515161561121a57611219610e61565b5b828202905092915050565b7f4e487b7100000000000000000000000000000000000000000000000000000000600052601260045260246000fd5b600061125f82610c37565b915061126a83610c37565b92508261127a57611279611225565b5b82820490509291505056fea26469706673582212203e8cdb2bbcfba940b23cc93108cc91c96e99ec4fca8c53b40ca73225e3dc69d964736f6c634300080a0033",
  "immutableReferences": {},
  "source": "// SPDX-License-Identifier: UNLICENSED\r\npragma solidity >=0.4.22 <0.9.0;\r\nimport \"./INTDAO.sol\";\r\nimport \"./Oracle.sol\";\r\nimport \"./Rule.sol\";\r\nimport \"./stableCoin.sol\";\r\n\r\n\r\n//previous Interest price is saved during INT auction - no need or make auction longer in time\r\n//started at 11.30 25/05/2020\r\n\r\ncontract CDP {\r\n    uint256 public numPositions;\r\n\r\n    address INTDAOaddress = address(0);\r\n    INTDAO dao;\r\n    Oracle oracle;\r\n    stableCoin coin;\r\n\r\n    address auctionAddress;\r\n\r\n    mapping(uint => Position) public positions;\r\n    mapping (address => uint) public allowedToMint; //???\r\n\r\n    struct Position {\r\n        bool onLiquidation;\r\n        bool liquidated;\r\n        address owner;\r\n        uint stableCoins_minted;\r\n        uint ethAmountLocked;\r\n        uint feeGenerated;\r\n        uint timeOpened;\r\n        uint lastTimeUpdated;\r\n        uint feeRate;\r\n    }\r\n\r\n    constructor(address _INTDAOaddress) {\r\n        INTDAOaddress = _INTDAOaddress;\r\n        dao = INTDAO(INTDAOaddress);\r\n        oracle = Oracle(dao.addresses('oracleAddress'));\r\n        coin = stableCoin(dao.addresses('stableCoinAddress'));\r\n    }\r\n\r\n    function allowed (address to) public view returns (uint256 amount) {\r\n        return allowedToMint[to];\r\n    }\r\n\r\n    function decreaseAllowed() public returns (bool success) {\r\n        allowedToMint[msg.sender] = 0;\r\n        return true;\r\n    }\r\n\r\n    function openCDP (uint StableCoinsToMint) external payable returns (uint256 posId){\r\n        posId = numPositions++;\r\n        Position storage p = positions[posId];\r\n\r\n        uint coinsToMint = getMaxStableCoinsToMint(StableCoinsToMint, msg.value);\r\n        if (StableCoinsToMint <= coinsToMint)\r\n            coinsToMint = StableCoinsToMint;\r\n\r\n        allowedToMint[msg.sender] = coinsToMint;\r\n\r\n        p.stableCoins_minted = coinsToMint;\r\n        p.ethAmountLocked = msg.value;\r\n        p.owner = msg.sender;\r\n        p.timeOpened = block.timestamp;\r\n        p.lastTimeUpdated = block.timestamp;\r\n        p.feeGenerated = 0;\r\n        p.feeRate = dao.params('interestRate');\r\n\r\n        return posId;\r\n    }\r\n\r\n    function generatedFee(uint posId) public view returns (uint256 fee) {\r\n        Position storage p = positions[posId];\r\n        fee = p.stableCoins_minted * (block.timestamp - p.lastTimeUpdated) * p.feeRate / 31536000 / 100;\r\n        return fee;\r\n    }\r\n\r\n    function getMaxStableCoinsToMint(uint256 StableCoinsToMint, uint256 ethValue) public view returns (uint256 amount) {\r\n        uint256 etherPrice = oracle.getEtherPriceUSD();\r\n        uint256 maxCoinsToMint = ethValue * etherPrice * (100 - dao.params('collateralDiscount'))/(100);\r\n\r\n        if (StableCoinsToMint < maxCoinsToMint)\r\n            return StableCoinsToMint;\r\n        else\r\n            return maxCoinsToMint;\r\n    }\r\n\r\n    function closeCDP (uint posID) public{ //shows minimum amount of INT you have to own\r\n        // Rule allowed to which address? )\r\n        //burnFromCollateral from wich addressAllowed?\r\n        //sendEtherToOwner\r\n        //checkAllowance of RuleTokens\r\n        //if allowed, transfer on balance, then burn\r\n    }\r\n\r\n\r\n    function updateCDP(uint posID, uint newStableCoinsAmount) public payable returns (bool success){\r\n        Position storage p = positions[posID];\r\n        require(p.owner == msg.sender, 'Only owner may update the position');\r\n        uint256 maxCoinsToMint;\r\n\r\n        p.lastTimeUpdated = block.timestamp;\r\n        p.feeGenerated = generatedFee(posID);\r\n        p.feeRate = dao.params('interestRate');\r\n\r\n        if (msg.value>0)\r\n            p.ethAmountLocked += msg.value;\r\n\r\n        maxCoinsToMint = getMaxStableCoinsToMint(newStableCoinsAmount, p.ethAmountLocked);\r\n        require(maxCoinsToMint >= newStableCoinsAmount);\r\n\r\n        if (newStableCoinsAmount > p.stableCoins_minted) {\r\n\r\n            uint256 difference = newStableCoinsAmount - p.stableCoins_minted;\r\n            allowedToMint[msg.sender] = difference;\r\n            return true;\r\n        }\r\n\r\n        if (newStableCoinsAmount < p.stableCoins_minted) {\r\n            uint256 difference = p.stableCoins_minted - newStableCoinsAmount;\r\n\r\n            require(coin.allowance(msg.sender, address(this)) >= difference);\r\n\r\n            coin.burn(difference, address(this));\r\n            //mint(difference);\r\n            //return true;\r\n        }\r\n    }\r\n\r\n    function mintAllowed () public{\r\n        coin.mint();\r\n    }\r\n\r\n    function withdrawEther (uint posID, uint etherToWithdraw) public{\r\n        //open Auction in the same contract\r\n    }\r\n\r\n\r\n    function recieveInterestAfterAuction() public {\r\n        //INT.mintForCDP();\r\n    }\r\n\r\n}\r\n",
  "sourcePath": "D:\\.\\\\ICO\\CryptoFiat\\repo\\contracts\\CDP.sol",
  "compiler": {
    "name": "solc",
    "version": "0.8.10+commit.fc410830.Emscripten.clang"
  },
  "schemaVersion": "3.4.4",
  "updatedAt": "2022-02-13T11:20:54.262Z",
  "devdoc": {
    "kind": "dev",
    "methods": {},
    "version": 1
  },
  "userdoc": {
    "kind": "user",
    "methods": {},
    "version": 1
  }
}