{
  "contractName": "CDP",
  "abi": [
    {
      "inputs": [
        {
          "internalType": "address payable",
          "name": "INTDAOaddress",
          "type": "address"
        }
      ],
      "stateMutability": "nonpayable",
      "type": "constructor"
    },
    {
      "anonymous": false,
      "inputs": [
        {
          "indexed": false,
          "internalType": "uint256",
          "name": "posID",
          "type": "uint256"
        },
        {
          "indexed": false,
          "internalType": "uint256",
          "name": "timestamp",
          "type": "uint256"
        }
      ],
      "name": "OnLiquidation",
      "type": "event"
    },
    {
      "anonymous": false,
      "inputs": [
        {
          "indexed": false,
          "internalType": "address",
          "name": "owner",
          "type": "address"
        },
        {
          "indexed": false,
          "internalType": "uint256",
          "name": "posID",
          "type": "uint256"
        }
      ],
      "name": "PositionOpened",
      "type": "event"
    },
    {
      "anonymous": false,
      "inputs": [
        {
          "indexed": false,
          "internalType": "uint256",
          "name": "posID",
          "type": "uint256"
        },
        {
          "indexed": false,
          "internalType": "uint256",
          "name": "newStableCoinsAmount",
          "type": "uint256"
        },
        {
          "indexed": false,
          "internalType": "uint256",
          "name": "wethLocked",
          "type": "uint256"
        }
      ],
      "name": "PositionUpdated",
      "type": "event"
    },
    {
      "anonymous": false,
      "inputs": [
        {
          "indexed": false,
          "internalType": "uint256",
          "name": "posID",
          "type": "uint256"
        },
        {
          "indexed": false,
          "internalType": "uint256",
          "name": "timestamp",
          "type": "uint256"
        }
      ],
      "name": "markOnLiquidationErased",
      "type": "event"
    },
    {
      "anonymous": false,
      "inputs": [
        {
          "indexed": false,
          "internalType": "uint256",
          "name": "posID",
          "type": "uint256"
        },
        {
          "indexed": false,
          "internalType": "uint256",
          "name": "timestamp",
          "type": "uint256"
        }
      ],
      "name": "markedOnLiquidation",
      "type": "event"
    },
    {
      "inputs": [],
      "name": "numPositions",
      "outputs": [
        {
          "internalType": "uint256",
          "name": "",
          "type": "uint256"
        }
      ],
      "stateMutability": "view",
      "type": "function"
    },
    {
      "inputs": [
        {
          "internalType": "uint256",
          "name": "",
          "type": "uint256"
        }
      ],
      "name": "positions",
      "outputs": [
        {
          "internalType": "address",
          "name": "owner",
          "type": "address"
        },
        {
          "internalType": "uint256",
          "name": "coinsMinted",
          "type": "uint256"
        },
        {
          "internalType": "uint256",
          "name": "wethAmountLocked",
          "type": "uint256"
        },
        {
          "internalType": "uint256",
          "name": "interestAmountRecorded",
          "type": "uint256"
        },
        {
          "internalType": "uint256",
          "name": "timeOpened",
          "type": "uint256"
        },
        {
          "internalType": "uint256",
          "name": "lastTimeUpdated",
          "type": "uint256"
        },
        {
          "internalType": "uint256",
          "name": "interestRate",
          "type": "uint256"
        },
        {
          "internalType": "uint256",
          "name": "markedOnLiquidationTimestamp",
          "type": "uint256"
        },
        {
          "internalType": "bool",
          "name": "onLiquidation",
          "type": "bool"
        },
        {
          "internalType": "bool",
          "name": "liquidated",
          "type": "bool"
        },
        {
          "internalType": "uint256",
          "name": "liquidationAuctionID",
          "type": "uint256"
        },
        {
          "internalType": "bool",
          "name": "restrictInterestWithdrawal",
          "type": "bool"
        }
      ],
      "stateMutability": "view",
      "type": "function"
    },
    {
      "stateMutability": "payable",
      "type": "receive"
    },
    {
      "inputs": [],
      "name": "renewContracts",
      "outputs": [],
      "stateMutability": "nonpayable",
      "type": "function"
    },
    {
      "inputs": [
        {
          "internalType": "uint256",
          "name": "stableCoinsToMint",
          "type": "uint256"
        }
      ],
      "name": "openCDP",
      "outputs": [
        {
          "internalType": "uint256",
          "name": "posID",
          "type": "uint256"
        }
      ],
      "stateMutability": "payable",
      "type": "function"
    },
    {
      "inputs": [
        {
          "internalType": "uint256",
          "name": "posID",
          "type": "uint256"
        }
      ],
      "name": "interestAmountUnrecorded",
      "outputs": [
        {
          "internalType": "uint256",
          "name": "interestAmount",
          "type": "uint256"
        }
      ],
      "stateMutability": "view",
      "type": "function"
    },
    {
      "inputs": [
        {
          "internalType": "uint256",
          "name": "posID",
          "type": "uint256"
        }
      ],
      "name": "totalCurrentFee",
      "outputs": [
        {
          "internalType": "uint256",
          "name": "fee",
          "type": "uint256"
        }
      ],
      "stateMutability": "view",
      "type": "function"
    },
    {
      "inputs": [
        {
          "internalType": "uint256",
          "name": "ethValue",
          "type": "uint256"
        }
      ],
      "name": "getMaxStableCoinsToMint",
      "outputs": [
        {
          "internalType": "uint256",
          "name": "amount",
          "type": "uint256"
        }
      ],
      "stateMutability": "view",
      "type": "function"
    },
    {
      "inputs": [
        {
          "internalType": "uint256",
          "name": "posID",
          "type": "uint256"
        }
      ],
      "name": "getMaxStableCoinsToMintForPos",
      "outputs": [
        {
          "internalType": "uint256",
          "name": "maxAmount",
          "type": "uint256"
        }
      ],
      "stateMutability": "view",
      "type": "function"
    },
    {
      "inputs": [
        {
          "internalType": "uint256",
          "name": "amount",
          "type": "uint256"
        },
        {
          "internalType": "address",
          "name": "beneficiary",
          "type": "address"
        }
      ],
      "name": "claimInterest",
      "outputs": [],
      "stateMutability": "nonpayable",
      "type": "function"
    },
    {
      "inputs": [
        {
          "internalType": "uint256",
          "name": "amount",
          "type": "uint256"
        },
        {
          "internalType": "address",
          "name": "beneficiary",
          "type": "address"
        }
      ],
      "name": "claimEmission",
      "outputs": [],
      "stateMutability": "nonpayable",
      "type": "function"
    },
    {
      "inputs": [
        {
          "internalType": "uint256",
          "name": "posID",
          "type": "uint256"
        }
      ],
      "name": "closeCDP",
      "outputs": [],
      "stateMutability": "nonpayable",
      "type": "function"
    },
    {
      "inputs": [
        {
          "internalType": "uint256",
          "name": "posID",
          "type": "uint256"
        }
      ],
      "name": "transferInterest",
      "outputs": [],
      "stateMutability": "nonpayable",
      "type": "function"
    },
    {
      "inputs": [
        {
          "internalType": "uint256",
          "name": "posID",
          "type": "uint256"
        }
      ],
      "name": "switchRestrictInterestWithdrawal",
      "outputs": [],
      "stateMutability": "nonpayable",
      "type": "function"
    },
    {
      "inputs": [],
      "name": "allowSurplusToAuction",
      "outputs": [],
      "stateMutability": "nonpayable",
      "type": "function"
    },
    {
      "inputs": [
        {
          "internalType": "uint256",
          "name": "posID",
          "type": "uint256"
        }
      ],
      "name": "claimMarginCall",
      "outputs": [
        {
          "internalType": "bool",
          "name": "success",
          "type": "bool"
        }
      ],
      "stateMutability": "nonpayable",
      "type": "function"
    },
    {
      "inputs": [
        {
          "internalType": "uint256",
          "name": "posID",
          "type": "uint256"
        }
      ],
      "name": "startCoinsBuyOut",
      "outputs": [],
      "stateMutability": "nonpayable",
      "type": "function"
    },
    {
      "inputs": [
        {
          "internalType": "uint256",
          "name": "posID",
          "type": "uint256"
        }
      ],
      "name": "finishMarginCall",
      "outputs": [],
      "stateMutability": "nonpayable",
      "type": "function"
    },
    {
      "inputs": [
        {
          "internalType": "uint256",
          "name": "posID",
          "type": "uint256"
        }
      ],
      "name": "markToLiquidate",
      "outputs": [],
      "stateMutability": "nonpayable",
      "type": "function"
    },
    {
      "inputs": [
        {
          "internalType": "uint256",
          "name": "posID",
          "type": "uint256"
        }
      ],
      "name": "eraseMarkToLiquidate",
      "outputs": [],
      "stateMutability": "nonpayable",
      "type": "function"
    },
    {
      "inputs": [
        {
          "internalType": "uint256",
          "name": "posID",
          "type": "uint256"
        },
        {
          "internalType": "uint256",
          "name": "newStableCoinsAmount",
          "type": "uint256"
        }
      ],
      "name": "updateCDP",
      "outputs": [
        {
          "internalType": "bool",
          "name": "success",
          "type": "bool"
        }
      ],
      "stateMutability": "payable",
      "type": "function"
    },
    {
      "inputs": [
        {
          "internalType": "uint256",
          "name": "posID",
          "type": "uint256"
        },
        {
          "internalType": "uint256",
          "name": "etherToWithdraw",
          "type": "uint256"
        }
      ],
      "name": "withdrawEther",
      "outputs": [],
      "stateMutability": "nonpayable",
      "type": "function"
    },
    {
      "inputs": [],
      "name": "burnRule",
      "outputs": [],
      "stateMutability": "nonpayable",
      "type": "function"
    },
    {
      "inputs": [
        {
          "internalType": "address",
          "name": "to",
          "type": "address"
        },
        {
          "internalType": "uint256",
          "name": "amount",
          "type": "uint256"
        }
      ],
      "name": "mintRule",
      "outputs": [
        {
          "internalType": "bool",
          "name": "success",
          "type": "bool"
        }
      ],
      "stateMutability": "nonpayable",
      "type": "function"
    },
    {
      "inputs": [],
      "name": "withdraw",
      "outputs": [],
      "stateMutability": "nonpayable",
      "type": "function"
    }
  ],
  "bytecode": "0x60806040523480156200001157600080fd5b5060405162003dff38038062003dff83398101604081905262000034916200045b565b600180546001600160a01b0319166001600160a01b0383169081179091556040805163155ef82760e11b81526004810191909152600360448201526206364760ec1b6064820152306024820152632abdf04e90608401600060405180830381600087803b158015620000a557600080fd5b505af1158015620000ba573d6000803e3d6000fd5b50506001546040805163155ef82760e11b81526004810191909152601060448201526f34b7333630ba34b7b729b832b73232b960811b60648201523060248201526001600160a01b039091169250632abdf04e9150608401600060405180830381600087803b1580156200012d57600080fd5b505af115801562000142573d6000803e3d6000fd5b505060015460405163bdfe7d4760e01b815260206004820152600a60248201526939ba30b13632a1b7b4b760b11b60448201526001600160a01b03909116925063bdfe7d479150606401602060405180830381865afa158015620001aa573d6000803e3d6000fd5b505050506040513d601f19601f82011682018060405250810190620001d091906200045b565b600380546001600160a01b0319166001600160a01b0392831617905560015460405163bdfe7d4760e01b8152602060048083019190915260248201526318d85c9d60e21b604482015291169063bdfe7d4790606401602060405180830381865afa15801562000243573d6000803e3d6000fd5b505050506040513d601f19601f820116820180604052508101906200026991906200045b565b600280546001600160a01b0319166001600160a01b0392831617905560015460405163bdfe7d4760e01b815260206004820152600760248201526630bab1ba34b7b760c91b604482015291169063bdfe7d4790606401602060405180830381865afa158015620002dd573d6000803e3d6000fd5b505050506040513d601f19601f820116820180604052508101906200030391906200045b565b600480546001600160a01b0319166001600160a01b0392831617815560015460405163bdfe7d4760e01b815260208184015260248101929092526372756c6560e01b60448301529091169063bdfe7d4790606401602060405180830381865afa15801562000375573d6000803e3d6000fd5b505050506040513d601f19601f820116820180604052508101906200039b91906200045b565b600580546001600160a01b0319166001600160a01b0392831617905560015460405163bdfe7d4760e01b815260206004808301919091526024820152630eecae8d60e31b604482015291169063bdfe7d4790606401602060405180830381865afa1580156200040e573d6000803e3d6000fd5b505050506040513d601f19601f820116820180604052508101906200043491906200045b565b600680546001600160a01b0319166001600160a01b0392909216919091179055506200048d565b6000602082840312156200046e57600080fd5b81516001600160a01b03811681146200048657600080fd5b9392505050565b613962806200049d6000396000f3fe60806040526004361061011f5760003560e01c80630403dc091461012b5780630beebd39146101605780631db398ef146101775780631e4b5ede146101975780631ebbd577146101b757806323d86a65146101d75780632650a47c146101ec5780633ccfd60b1461020c5780635c412bb2146102215780635e71823b146102415780636050c746146102655780636530218d146102855780636bb224c3146102a55780636e279661146102b85780637380518f146102cb5780637a7c0e01146102eb5780637f660be11461030057806391078b481461032057806399fbab8814610340578063b514307a14610434578063dda0019614610454578063edfc171314610474578063f34792c214610494578063f98b3fb5146104b457600080fd5b3661012657005b600080fd5b34801561013757600080fd5b5061014b610146366004613437565b6104d4565b60405190151581526020015b60405180910390f35b34801561016c57600080fd5b50610175610626565b005b34801561018357600080fd5b5061014b610192366004613463565b6106f2565b3480156101a357600080fd5b506101756101b2366004613463565b610bcb565b3480156101c357600080fd5b506101756101d2366004613463565b610ee6565b3480156101e357600080fd5b50610175610f63565b3480156101f857600080fd5b5061017561020736600461347c565b61123a565b34801561021857600080fd5b5061017561147c565b34801561022d57600080fd5b5061017561023c36600461349e565b61153a565b34801561024d57600080fd5b5061025760005481565b604051908152602001610157565b34801561027157600080fd5b50610257610280366004613463565b61162f565b34801561029157600080fd5b506102576102a0366004613463565b61168e565b6102576102b3366004613463565b611872565b61014b6102c636600461347c565b611b9e565b3480156102d757600080fd5b506101756102e6366004613463565b611ffa565b3480156102f757600080fd5b506101756121be565b34801561030c57600080fd5b5061017561031b36600461349e565b61265d565b34801561032c57600080fd5b5061025761033b366004613463565b612a1b565b34801561034c57600080fd5b506103cb61035b366004613463565b600760208190526000918252604090912080546001820154600283015460038401546004850154600586015460068701549787015460088801546009890154600a909901546001600160a01b039098169996989597949693959294919260ff80831693610100909304811692168c565b604080516001600160a01b03909d168d5260208d019b909b52998b019890985260608a0196909652608089019490945260a088019290925260c087015260e086015215156101008501521515610120840152610140830152151561016082015261018001610157565b34801561044057600080fd5b5061017561044f366004613463565b612a4b565b34801561046057600080fd5b5061017561046f366004613463565b6130e5565b34801561048057600080fd5b5061017561048f366004613463565b613225565b3480156104a057600080fd5b506101756104af366004613463565b613321565b3480156104c057600080fd5b506102576104cf366004613463565b6133fb565b60015460405163bdfe7d4760e01b81526000916001600160a01b03169063bdfe7d4790610503906004016134ce565b602060405180830381865afa158015610520573d6000803e3d6000fd5b505050506040513d601f19601f8201168201806040525081019061054491906134ef565b6001600160a01b0316336001600160a01b0316146105b75760405162461bcd60e51b815260206004820152602560248201527f4f6e6c792061756374696f6e20697320616c6c6f77656420746f20636c61696d604482015264081b5a5b9d60da1b60648201526084015b60405180910390fd5b6005546040516340c10f1960e01b81526001600160a01b03909116906340c10f19906105e9908690869060040161350c565b600060405180830381600087803b15801561060357600080fd5b505af1158015610617573d6000803e3d6000fd5b50505050600190505b92915050565b6005546040516370a0823160e01b81526001600160a01b0390911690639dc29fac90309083906370a0823190610660908490600401613525565b602060405180830381865afa15801561067d573d6000803e3d6000fd5b505050506040513d601f19601f820116820180604052508101906106a19190613539565b6040518363ffffffff1660e01b81526004016106be92919061350c565b600060405180830381600087803b1580156106d857600080fd5b505af11580156106ec573d6000803e3d6000fd5b50505050565b6000818152600760208190526040822090810154158015906107b0575060015460405163145f822b60e01b81526020600482015260136024820152721b585c99da5b90d85b1b151a5b59531a5b5a5d606a1b60448201526001600160a01b039091169063145f822b90606401602060405180830381865afa15801561077b573d6000803e3d6000fd5b505050506040513d601f19601f8201168201806040525081019061079f9190613539565b60078201546107ae9042613568565b115b6108225760405162461bcd60e51b815260206004820152603d60248201527f506f736974696f6e206973206e6f74206d61726b6564206f6e206c697175696460448201527f6174696f6e206f72206f776e6572207374696c6c206861732074696d6500000060648201526084016105ae565b600881015460ff1615801561084157506008810154610100900460ff16155b6108ae5760405162461bcd60e51b815260206004820152603860248201527f506f736974696f6e20697320616c7265616479206f6e206c69717569646174696044820152771bdb881bdc88185b1c9958591e481b1a5c5d5a59185d195960421b60648201526084016105ae565b80600101546108bc84612a1b565b1015610bbb5760088101805460ff19166001908117909155600654905460405163bdfe7d4760e01b815260206004820152600360248201526206364760ec1b60448201526000926001600160a01b039081169263dd62ed3e9291169063bdfe7d4790606401602060405180830381865afa15801561093e573d6000803e3d6000fd5b505050506040513d601f19601f8201168201806040525081019061096291906134ef565b60015460405163bdfe7d4760e01b81526001600160a01b039091169063bdfe7d4790610990906004016134ce565b602060405180830381865afa1580156109ad573d6000803e3d6000fd5b505050506040513d601f19601f820116820180604052508101906109d191906134ef565b6040518363ffffffff1660e01b81526004016109ee92919061357b565b602060405180830381865afa158015610a0b573d6000803e3d6000fd5b505050506040513d601f19601f82011682018060405250810190610a2f9190613539565b60065460015460405163bdfe7d4760e01b81529293506001600160a01b039182169263095ea7b3929091169063bdfe7d4790610a6d906004016134ce565b602060405180830381865afa158015610a8a573d6000803e3d6000fd5b505050506040513d601f19601f82011682018060405250810190610aae91906134ef565b6002850154610abd9085613595565b6040518363ffffffff1660e01b8152600401610ada92919061350c565b6020604051808303816000875af1158015610af9573d6000803e3d6000fd5b505050506040513d601f19601f82011682018060405250810190610b1d91906135a8565b610b785760405162461bcd60e51b815260206004820152602660248201527f636f756c64206e6f7420617070726f7665207765746820666f7220736f6d65206044820152653932b0b9b7b760d11b60648201526084016105ae565b7f31673ddfc0eb6966d1a8d85477c249f90d6d896936c3b1d93bfcaf9b29eb6fc98442604051610ba99291906135ca565b60405180910390a15060019392505050565b6000600790910181905592915050565b600081815260076020526040902080546001600160a01b03163314610c3c5760405162461bcd60e51b815260206004820152602160248201527f4f6e6c79206f776e6572206d617920636c6f73652068697320706f736974696f6044820152603760f91b60648201526084016105ae565b600881015460ff1615610c615760405162461bcd60e51b81526004016105ae906135d8565b60008160010154610c71846133fb565b610c7b9190613595565b60035483546040516323b872dd60e01b81529293506001600160a01b03918216926323b872dd92610cb49216903090869060040161360f565b6020604051808303816000875af1158015610cd3573d6000803e3d6000fd5b505050506040513d601f19601f82011682018060405250810190610cf791906135a8565b610d795760405162461bcd60e51b815260206004820152604760248201527f436f756c64206e6f74207472616e7366657220636f696e7320666f7220736f6d60448201527f6520726561736f6e2e20596f75206861766520746f20616c6c6f7720636f696e6064820152661cc8199a5c9cdd60ca1b608482015260a4016105ae565b6006548254600284015460405163a9059cbb60e01b81526001600160a01b039384169363a9059cbb93610db19391169160040161350c565b6020604051808303816000875af1158015610dd0573d6000803e3d6000fd5b505050506040513d601f19601f82011682018060405250810190610df491906135a8565b610e565760405162461bcd60e51b815260206004820152602d60248201527f436f756c64206e6f74207472616e7366657220636f6c6c61746572616c20666f60448201526c391039b7b6b2903932b0b9b7b760991b60648201526084016105ae565b600060028301556003546001830154604051632770a7eb60e21b81526001600160a01b0390921691639dc29fac91610e939130919060040161350c565b600060405180830381600087803b158015610ead57600080fd5b505af1158015610ec1573d6000803e3d6000fd5b505060006001850155505042600583015550600801805461ff00191661010017905550565b600081815260076020526040902080546001600160a01b03163314610f4d5760405162461bcd60e51b815260206004820181905260248201527f4f6e6c79206f776e6572206d61792073657420746869732070726f706572747960448201526064016105ae565b600a01805460ff19811660ff9091161517905550565b60015460405163bdfe7d4760e01b815260206004820152600a60248201526939ba30b13632a1b7b4b760b11b60448201526001600160a01b039091169063bdfe7d4790606401602060405180830381865afa158015610fc6573d6000803e3d6000fd5b505050506040513d601f19601f82011682018060405250810190610fea91906134ef565b600380546001600160a01b0319166001600160a01b0392831617905560015460405163bdfe7d4760e01b8152602060048083019190915260248201526372756c6560e01b604482015291169063bdfe7d4790606401602060405180830381865afa15801561105c573d6000803e3d6000fd5b505050506040513d601f19601f8201168201806040525081019061108091906134ef565b600580546001600160a01b0319166001600160a01b0392831617905560015460405163bdfe7d4760e01b8152602060048083019190915260248201526318d85c9d60e21b604482015291169063bdfe7d4790606401602060405180830381865afa1580156110f2573d6000803e3d6000fd5b505050506040513d601f19601f8201168201806040525081019061111691906134ef565b600280546001600160a01b0319166001600160a01b0392831617905560015460405163bdfe7d4760e01b815291169063bdfe7d4790611157906004016134ce565b602060405180830381865afa158015611174573d6000803e3d6000fd5b505050506040513d601f19601f8201168201806040525081019061119891906134ef565b600480546001600160a01b0319166001600160a01b0392831617815560015460405163bdfe7d4760e01b815292169163bdfe7d47916111d79101613633565b602060405180830381865afa1580156111f4573d6000803e3d6000fd5b505050506040513d601f19601f8201168201806040525081019061121891906134ef565b600680546001600160a01b0319166001600160a01b0392909216919091179055565b6000828152600760205260409020600881015460ff161561126d5760405162461bcd60e51b81526004016105ae906135d8565b80546001600160a01b031633146112965760405162461bcd60e51b81526004016105ae90613651565b806002015482106112fe5760405162461bcd60e51b815260206004820152602c60248201527f596f7520646f6e74206861766520656e6f7567682077657468206c6f636b656460448201526b206f6e207468697320706f7360a01b60648201526084016105ae565b60008282600201546113109190613568565b9050600061131d856133fb565b6113268361168e565b6113309190613568565b9050826001015481116113b65760405162461bcd60e51b815260206004820152604260248201527f796f752077616e7420746f206b656570206e6f7420656e6f756768207765746860448201527f20746f20636f76657220656d697373696f6e20616e642063757272656e742066606482015261656560f01b608482015260a4016105ae565b838360020160008282546113ca9190613568565b909155505060065460405163a9059cbb60e01b81526001600160a01b039091169063a9059cbb90611401903390889060040161350c565b6020604051808303816000875af1158015611420573d6000803e3d6000fd5b505050506040513d601f19601f8201168201806040525081019061144491906135a8565b50600183015460028401546040516000805160206138ed8339815191529261146d928992613693565b60405180910390a15050505050565b60015460405163bdfe7d4760e01b81526020600482015260066024820152656f7261636c6560d01b60448201526001600160a01b039091169063bdfe7d4790606401602060405180830381865afa1580156114db573d6000803e3d6000fd5b505050506040513d601f19601f820116820180604052508101906114ff91906134ef565b6001600160a01b03166108fc479081150290604051600060405180830381858888f19350505050158015611537573d6000803e3d6000fd5b50565b60015460405163b918161160e01b81526001600160a01b039091169063b91816119061156a903390600401613525565b602060405180830381865afa158015611587573d6000803e3d6000fd5b505050506040513d601f19601f820116820180604052508101906115ab91906135a8565b6115c75760405162461bcd60e51b81526004016105ae906136a9565b6003546040516340c10f1960e01b81526001600160a01b03909116906340c10f19906115f9908490869060040161350c565b600060405180830381600087803b15801561161357600080fd5b505af1158015611627573d6000803e3d6000fd5b505050505050565b6000818152600760205260408120600681015460058201546064916301e133809161165a9042613568565b846001015461166991906136ec565b61167391906136ec565b61167d9190613703565b6116879190613703565b9392505050565b60025460405163524f388960e01b815260206004820152600360248201526239ba3160e91b604482015260009182916001600160a01b039091169063524f388990606401602060405180830381865afa1580156116ef573d6000803e3d6000fd5b505050506040513d601f19601f820116820180604052508101906117139190613539565b60025460405163afd0fd1d60e01b815260206004820152600360248201526265746360e81b60448201529192506000916001600160a01b039091169063afd0fd1d90606401602060405180830381865afa158015611775573d6000803e3d6000fd5b505050506040513d601f19601f820116820180604052508101906117999190613539565b905060646117a882600a613809565b60015460405163145f822b60e01b815260206004820152601260248201527118dbdb1b185d195c985b111a5cd8dbdd5b9d60721b60448201526001600160a01b039091169063145f822b90606401602060405180830381865afa158015611813573d6000803e3d6000fd5b505050506040513d601f19601f820116820180604052508101906118379190613539565b611842906064613568565b61184c85886136ec565b61185691906136ec565b6118609190613703565b61186a9190613703565b949350505050565b600061187d3461168e565b82116118895781611892565b6118923461168e565b60015460405163145f822b60e01b81529193506001600160a01b03169063145f822b906118c190600401613815565b602060405180830381865afa1580156118de573d6000803e3d6000fd5b505050506040513d601f19601f820116820180604052508101906119029190613539565b8210156119215760405162461bcd60e51b81526004016105ae9061383d565b6000805490806119308361387e565b90915550600081815260076020526040808220600180820187905534600283015554915163bdfe7d4760e01b8152939450926001600160a01b039091169063bdfe7d479061198090600401613633565b602060405180830381865afa15801561199d573d6000803e3d6000fd5b505050506040513d601f19601f820116820180604052508101906119c191906134ef565b6001600160a01b03163460405160006040518083038185875af1925050503d8060008114611a0b576040519150601f19603f3d011682016040523d82523d6000602084013e611a10565b606091505b5050905080611a315760405162461bcd60e51b81526004016105ae90613897565b81546001600160a01b0319163317825542600480840182905560058401919091556000600384015560015460405163145f822b60e01b81526001600160a01b03919091169163145f822b91611aa791016020808252600c908201526b696e7465726573745261746560a01b604082015260600190565b602060405180830381865afa158015611ac4573d6000803e3d6000fd5b505050506040513d601f19601f82011682018060405250810190611ae89190613539565b60068301556003546040516340c10f1960e01b81526001600160a01b03909116906340c10f1990611b1f903390889060040161350c565b600060405180830381600087803b158015611b3957600080fd5b505af1158015611b4d573d6000803e3d6000fd5b505083546040517f7033b91d43234ea7f0b72ec01052e5285ce842c91dcf6ab963fa44a5487417209350611b8f92506001600160a01b0390911690869061350c565b60405180910390a15050919050565b6000828152600760205260408120600881015460ff1615611bd15760405162461bcd60e51b81526004016105ae906135d8565b80546001600160a01b03163314611bfa5760405162461bcd60e51b81526004016105ae90613651565b60015460405163145f822b60e01b81526001600160a01b039091169063145f822b90611c2890600401613815565b602060405180830381865afa158015611c45573d6000803e3d6000fd5b505050506040513d601f19601f82011682018060405250810190611c699190613539565b831015611c885760405162461bcd60e51b81526004016105ae9061383d565b611c918461162f565b816003016000828254611ca49190613595565b90915550504260058201553415611db05734816002016000828254611cc99190613595565b909155505060015460405163bdfe7d4760e01b81526000916001600160a01b03169063bdfe7d4790611cfd90600401613633565b602060405180830381865afa158015611d1a573d6000803e3d6000fd5b505050506040513d601f19601f82011682018060405250810190611d3e91906134ef565b6001600160a01b03163460405160006040518083038185875af1925050503d8060008114611d88576040519150601f19603f3d011682016040523d82523d6000602084013e611d8d565b606091505b5050905080611dae5760405162461bcd60e51b81526004016105ae90613897565b505b82611dba85612a1b565b1015611e145760405162461bcd60e51b8152602060048201526024808201527f6e6f7420656e6f75676820636f6c6c61746572616c20746f206d696e7420616d6044820152631bdd5b9d60e21b60648201526084016105ae565b8060010154831115611eda576000816001015484611e329190613568565b60035483546040516340c10f1960e01b81529293506001600160a01b03918216926340c10f1992611e69921690859060040161350c565b600060405180830381600087803b158015611e8357600080fd5b505af1158015611e97573d6000803e3d6000fd5b505050506001820184905560028201546040516000805160206138ed83398151915291611ec79188918891613693565b60405180910390a1600192505050610620565b8060010154831015611fb1576000838260010154611ef89190613568565b60035483546040516370a0823160e01b815292935083926001600160a01b03928316926370a0823192611f3092911690600401613525565b602060405180830381865afa158015611f4d573d6000803e3d6000fd5b505050506040513d601f19601f82011682018060405250810190611f719190613539565b1015611f7c57600080fd5b6003548254604051632770a7eb60e21b81526001600160a01b0392831692639dc29fac92611e6992911690859060040161350c565b80600101548303611ff3576000805160206138ed83398151915284848360020154604051611fe193929190613693565b60405180910390a16001915050610620565b5092915050565b6000818152600760205260409020600a81015460ff161561206e5780546001600160a01b0316331461206e5760405162461bcd60e51b815260206004820181905260248201527f4f6e6c79206f776e6572206d6179207472616e7366657220696e74657265737460448201526064016105ae565b600881015460ff16156120935760405162461bcd60e51b81526004016105ae906135d8565b60035481546001600160a01b03918216916323b872dd9116306120b5866133fb565b6040518463ffffffff1660e01b81526004016120d39392919061360f565b6020604051808303816000875af11580156120f2573d6000803e3d6000fd5b505050506040513d601f19601f8201168201806040525081019061211691906135a8565b6121ad5760405162461bcd60e51b815260206004820152605c60248201527f576173206e6f742061626c6520746f207472616e73666572206665652e20496e60448201527f73756666696369656e742062616c616e6365206f7220616c6c6f77616e63652e60648201527b08151c9e481d1bc8185b1b1bddc81cdc195b991a5b99c8199a5c9cdd60221b608482015260a4016105ae565b600060038201554260059091015550565b60006064600360009054906101000a90046001600160a01b03166001600160a01b03166318160ddd6040518163ffffffff1660e01b8152600401602060405180830381865afa158015612215573d6000803e3d6000fd5b505050506040513d601f19601f820116820180604052508101906122399190613539565b60015460405163145f822b60e01b81526020600482015260186024820152771cdd18589a5b1a5e985d1a5bdb919d5b9914195c98d95b9d60421b60448201526001600160a01b039091169063145f822b90606401602060405180830381865afa1580156122aa573d6000803e3d6000fd5b505050506040513d601f19601f820116820180604052508101906122ce9190613539565b6122d891906136ec565b6122e29190613703565b6003546040516370a0823160e01b815291925082916001600160a01b03909116906370a0823190612317903090600401613525565b602060405180830381865afa158015612334573d6000803e3d6000fd5b505050506040513d601f19601f820116820180604052508101906123589190613539565b10156123b15760405162461bcd60e51b815260206004820152602260248201527f696e73756666696369656e742066756e6473206f6e2043445020636f6e74726160448201526118dd60f21b60648201526084016105ae565b6003546040516370a0823160e01b815260009183916001600160a01b03909116906370a08231906123e6903090600401613525565b602060405180830381865afa158015612403573d6000803e3d6000fd5b505050506040513d601f19601f820116820180604052508101906124279190613539565b6124319190613568565b60015460405163145f822b60e01b81526020600482015260196024820152781b5a5b90d11410985b185b98d9551bd25b9a5d109d5e53dd5d603a1b60448201529192506001600160a01b03169063145f822b90606401602060405180830381865afa1580156124a4573d6000803e3d6000fd5b505050506040513d601f19601f820116820180604052508101906124c89190613539565b8110156125225760405162461bcd60e51b815260206004820152602260248201527f6e6f7420656e6f75676820737572706c757320746f207374617274206275794f6044820152611d5d60f21b60648201526084016105ae565b60035460015460405163bdfe7d4760e01b81526001600160a01b039283169263095ea7b392169063bdfe7d479061255b906004016134ce565b602060405180830381865afa158015612578573d6000803e3d6000fd5b505050506040513d601f19601f8201168201806040525081019061259c91906134ef565b836040518363ffffffff1660e01b81526004016125ba92919061350c565b6020604051808303816000875af11580156125d9573d6000803e3d6000fd5b505050506040513d601f19601f820116820180604052508101906125fd91906135a8565b6126595760405162461bcd60e51b815260206004820152602760248201527f636f756c64206e6f7420617070726f766520636f696e7320666f7220736f6d65604482015266103932b0b9b7b760c91b60648201526084016105ae565b5050565b60015460405163b918161160e01b81526001600160a01b039091169063b91816119061268d903390600401613525565b602060405180830381865afa1580156126aa573d6000803e3d6000fd5b505050506040513d601f19601f820116820180604052508101906126ce91906135a8565b6126ea5760405162461bcd60e51b81526004016105ae906136a9565b6003546040516370a0823160e01b815283916001600160a01b0316906370a082319061271a903090600401613525565b602060405180830381865afa158015612737573d6000803e3d6000fd5b505050506040513d601f19601f8201168201806040525081019061275b9190613539565b11156127db5760035460405163a9059cbb60e01b81526001600160a01b039091169063a9059cbb90612793908490869060040161350c565b6020604051808303816000875af11580156127b2573d6000803e3d6000fd5b505050506040513d601f19601f820116820180604052508101906127d691906135a8565b505050565b6003546040516370a0823160e01b81526000916001600160a01b0316906370a082319061280c903090600401613525565b602060405180830381865afa158015612829573d6000803e3d6000fd5b505050506040513d601f19601f8201168201806040525081019061284d9190613539565b6128579084613568565b6003546040516370a0823160e01b81529192506001600160a01b03169063a9059cbb90849083906370a0823190612892903090600401613525565b602060405180830381865afa1580156128af573d6000803e3d6000fd5b505050506040513d601f19601f820116820180604052508101906128d39190613539565b6040518363ffffffff1660e01b81526004016128f092919061350c565b6020604051808303816000875af115801561290f573d6000803e3d6000fd5b505050506040513d601f19601f8201168201806040525081019061293391906135a8565b50600354604051636eb1769f60e11b81526001600160a01b039091169063095ea7b3908490839063dd62ed3e90612970903090859060040161357b565b602060405180830381865afa15801561298d573d6000803e3d6000fd5b505050506040513d601f19601f820116820180604052508101906129b19190613539565b6129bb9085613595565b6040518363ffffffff1660e01b81526004016129d892919061350c565b6020604051808303816000875af11580156129f7573d6000803e3d6000fd5b505050506040513d601f19601f820116820180604052508101906106ec91906135a8565b6000612a26826133fb565b600083815260076020526040902060020154612a419061168e565b6106209190613568565b6000818152600760205260409020600881015460ff168015612a7757506008810154610100900460ff16155b8015612a865750600981015415155b612b025760405162461bcd60e51b8152602060048201526053602482015260008051602061390d83398151915260448201527f722077617320616c7265616479206c697175696461746564206f7220617563746064820152721a5bdb881dd85cc81b9bdd081cdd185c9d1959606a1b608482015260a4016105ae565b6004805460098301546040516333727c4d60e01b8152928301526001600160a01b0316906333727c4d90602401602060405180830381865afa158015612b4c573d6000803e3d6000fd5b505050506040513d601f19601f82011682018060405250810190612b7091906135a8565b612c2d576004805460098301546040516339a1ca8560e11b8152928301526001600160a01b031690637343950a906024016020604051808303816000875af1158015612bc0573d6000803e3d6000fd5b505050506040513d601f19601f82011682018060405250810190612be491906135a8565b612c2d5760405162461bcd60e51b815260206004820152601a60248201527931b7bab632103737ba103334b730b634bd329030bab1ba34b7b760311b60448201526064016105ae565b600480546009830154604051630d14e41760e31b8152928301526000916001600160a01b03909116906368a720b890602401602060405180830381865afa158015612c7c573d6000803e3d6000fd5b505050506040513d601f19601f82011682018060405250810190612ca09190613539565b905081600101548110612e855760015460405163145f822b60e01b815260206004820152600e60248201526d6c69717569646174696f6e46656560901b60448201526000916064916001600160a01b039091169063145f822b908301602060405180830381865afa158015612d19573d6000803e3d6000fd5b505050506040513d601f19601f82011682018060405250810190612d3d9190613539565b8460010154612d4c91906136ec565b612d569190613703565b612d5f856133fb565b8460010154612d6e9190613595565b612d789190613595565b905080821115612e065760035483546001600160a01b039182169163a9059cbb9116612da48486613568565b6040518363ffffffff1660e01b8152600401612dc192919061350c565b6020604051808303816000875af1158015612de0573d6000803e3d6000fd5b505050506040513d601f19601f82011682018060405250810190612e0491906135a8565b505b6003546001840154604051632770a7eb60e21b81526001600160a01b0390921691639dc29fac91612e3c9130919060040161350c565b600060405180830381600087803b158015612e5657600080fd5b505af1158015612e6a573d6000803e3d6000fd5b5050506008909301805461ff00191661010017905550505050565b60018201546003546040516370a0823160e01b81526001600160a01b03909116906370a0823190612eba903090600401613525565b602060405180830381865afa158015612ed7573d6000803e3d6000fd5b505050506040513d601f19601f82011682018060405250810190612efb9190613539565b10612f7e576003546001830154604051632770a7eb60e21b81526001600160a01b0390921691639dc29fac91612f369130919060040161350c565b600060405180830381600087803b158015612f5057600080fd5b505af1158015612f64573d6000803e3d6000fd5b5050506008909201805461ff001916610100179055505050565b6003546040516370a0823160e01b81526000916001600160a01b0316906370a0823190612faf903090600401613525565b602060405180830381865afa158015612fcc573d6000803e3d6000fd5b505050506040513d601f19601f82011682018060405250810190612ff09190613539565b600354604051632770a7eb60e21b81529192506001600160a01b031690639dc29fac90613023903090859060040161350c565b600060405180830381600087803b15801561303d57600080fd5b505af1158015613051573d6000803e3d6000fd5b50505050808360010160008282546130699190613568565b9091555050600480546001850154604051637c2dd6ef60e11b8152928301526001600160a01b03169063f85badde906024016020604051808303816000875af11580156130ba573d6000803e3d6000fd5b505050506040513d601f19601f820116820180604052508101906130de9190613539565b5050505050565b6000818152600760205260409020600881015460ff16801561311157506008810154610100900460ff16155b801561311f57506009810154155b61319c5760405162461bcd60e51b8152602060048201526054602482015260008051602061390d83398151915260448201527f7220616c7265616479206c6971756964617465642c206f722061756374696f6e606482015273081dd85cc8185b1c9958591e481cdd185c9d195960621b608482015260a4016105ae565b60048054600283015460405163c0219ad960e01b81526001600160a01b039092169263c0219ad9926131d29287929091016135ca565b6020604051808303816000875af11580156131f1573d6000803e3d6000fd5b505050506040513d601f19601f820116820180604052508101906132159190613539565b6009820155600060029091015550565b6000818152600760208190526040909120908101541580159061324d5750600881015460ff16155b801561326357506008810154610100900460ff16155b6132c85760405162461bcd60e51b815260206004820152603060248201527f5468697320706f736974696f6e206973206e6f74206d61726b6564206f72206c60448201526f1bd8dad9590bdb1a5c5d5a59185d195960821b60648201526084016105ae565b80600101546132d683612a1b565b111561265957600060078201556040517f7bb2fe2f24d265750abd1f17821c6d5a97b2e2302e000a2d1b78fa5d48c5d3319061331590849042906135ca565b60405180910390a15050565b6000818152600760208190526040909120908101541580156133485750600881015460ff16155b6133ae5760405162461bcd60e51b815260206004820152603160248201527f5468697320706f736974696f6e206973206f6e206c69717569646174696f6e206044820152701bdc88185b1c9958591e481b585c9ad959607a1b60648201526084016105ae565b80600101546133bc83612a1b565b10156126595742600782018190556040517fc7fcb1762039617a9125455c34980d3770676da1c4e1b42c55bc47fa7ebc970f91613315918591906135ca565b60006134068261162f565b6000838152600760205260409020600301546106209190613595565b6001600160a01b038116811461153757600080fd5b6000806040838503121561344a57600080fd5b823561345581613422565b946020939093013593505050565b60006020828403121561347557600080fd5b5035919050565b6000806040838503121561348f57600080fd5b50508035926020909101359150565b600080604083850312156134b157600080fd5b8235915060208301356134c381613422565b809150509250929050565b60208082526007908201526630bab1ba34b7b760c91b604082015260600190565b60006020828403121561350157600080fd5b815161168781613422565b6001600160a01b03929092168252602082015260400190565b6001600160a01b0391909116815260200190565b60006020828403121561354b57600080fd5b5051919050565b634e487b7160e01b600052601160045260246000fd5b8181038181111561062057610620613552565b6001600160a01b0392831681529116602082015260400190565b8082018082111561062057610620613552565b6000602082840312156135ba57600080fd5b8151801515811461168757600080fd5b918252602082015260400190565b6020808252601f908201527f5468697320706f736974696f6e206973206f6e206c69717569646174696f6e00604082015260600190565b6001600160a01b039384168152919092166020820152604081019190915260600190565b6020808252600490820152630eecae8d60e31b604082015260600190565b60208082526022908201527f4f6e6c79206f776e6572206d6179207570646174652074686520706f7369746960408201526137b760f11b606082015260800190565b9283526020830191909152604082015260600190565b60208082526023908201527f6f6e6c7920617574686f72697a65642061646472657373206d617920646f207460408201526268697360e81b606082015260800190565b808202811582820484141761062057610620613552565b60008261372057634e487b7160e01b600052601260045260246000fd5b500490565b600181815b8085111561376057816000190482111561374657613746613552565b8085161561375357918102915b93841c939080029061372a565b509250929050565b60008261377757506001610620565b8161378457506000610620565b816001811461379a57600281146137a4576137c0565b6001915050610620565b60ff8411156137b5576137b5613552565b50506001821b610620565b5060208310610133831016604e8410600b84101617156137e3575081810a610620565b6137ed8383613725565b806000190482111561380157613801613552565b029392505050565b60006116878383613768565b6020808252600e908201526d1b5a5b90dbda5b9cd51bd35a5b9d60921b604082015260600190565b60208082526021908201527f796f752063616e206e6f74206d696e74206c657373207468616e203120636f696040820152603760f91b606082015260800190565b60006001820161389057613890613552565b5060010190565b60208082526035908201527f436f756c64206e6f7420706173732066756e647320746f207765746820636f6e6040820152743a3930b1ba103337b91039b7b6b2903932b0b9b7b760591b60608201526080019056fef89185fe8013045e431c4a2d209bdc8367e67b3aee3359fde091b6ce08e60550506f736974696f6e206973206e6f74206f6e206c69717569646174696f6e206fa26469706673582212200d55696877f356658de4812270eb351e18ac29720801f09e20ba8b72e17ebc4664736f6c63430008130033",
  "immutableReferences": {},
  "source": "// SPDX-License-Identifier: UNLICENSED\r\npragma solidity 0.8.19;\r\nimport \"@openzeppelin/contracts/token/ERC20/ERC20.sol\";\r\n\r\ninterface IERC20MintableAndBurnable is IERC20{\r\n    function mint(address to, uint256 amount) external;\r\n    function burn(address from, uint256 amount) external;\r\n}\r\n\r\nimport \"./INTDAO.sol\";\r\nimport \"./cart.sol\";\r\nimport \"./Auction.sol\";\r\nimport \"./weth.sol\";\r\n\r\n    struct Position {\r\n        address owner;\r\n        uint256 coinsMinted;\r\n        uint256 wethAmountLocked;\r\n        uint256 interestAmountRecorded;\r\n        uint256 timeOpened;\r\n        uint256 lastTimeUpdated;\r\n        uint256 interestRate;\r\n        uint256 markedOnLiquidationTimestamp;\r\n        bool onLiquidation;\r\n        bool liquidated;\r\n        uint256 liquidationAuctionID;\r\n        bool restrictInterestWithdrawal;\r\n    }\r\n\r\ncontract CDP {\r\n    uint256 public numPositions;\r\n    INTDAO dao;\r\n    cartContract oracleCart;\r\n    IERC20MintableAndBurnable coin;\r\n    Auction auction;\r\n    IERC20MintableAndBurnable rule;\r\n    ERC20 weth;\r\n\r\n    mapping(uint256 => Position) public positions;\r\n    event PositionOpened (address owner, uint256 posID);\r\n    event PositionUpdated (uint256 posID, uint256 newStableCoinsAmount, uint256 wethLocked);\r\n    event markedOnLiquidation (uint256 posID, uint256 timestamp);\r\n    event markOnLiquidationErased (uint256 posID, uint256 timestamp);\r\n    event OnLiquidation (uint256 posID, uint256 timestamp);\r\n\r\n    constructor(address payable INTDAOaddress) {\r\n        dao = INTDAO(INTDAOaddress);\r\n        dao.setAddressOnce('cdp',payable(address(this)));\r\n        dao.setAddressOnce('inflationSpender',payable(address(this)));\r\n        coin = IERC20MintableAndBurnable(dao.addresses('stableCoin'));\r\n        oracleCart = cartContract(dao.addresses('cart'));\r\n        auction = Auction(dao.addresses('auction'));\r\n        rule = IERC20MintableAndBurnable(dao.addresses('rule'));\r\n        weth = ERC20(dao.addresses('weth'));\r\n    }\r\n\r\n    function renewContracts() public {\r\n        coin = IERC20MintableAndBurnable(dao.addresses('stableCoin'));\r\n        rule = IERC20MintableAndBurnable(dao.addresses('rule'));\r\n        oracleCart = cartContract(dao.addresses('cart'));\r\n        auction = Auction(dao.addresses('auction'));\r\n        weth = ERC20(dao.addresses('weth'));\r\n    }\r\n\r\n    function openCDP(uint256 stableCoinsToMint) external payable returns (uint256 posID){\r\n        stableCoinsToMint = (stableCoinsToMint > getMaxStableCoinsToMint(msg.value))\r\n                            ?getMaxStableCoinsToMint(msg.value):stableCoinsToMint;\r\n\r\n        require (stableCoinsToMint >= dao.params('minCoinsToMint'), \"you can not mint less than 1 coin\");\r\n\r\n        posID = numPositions++;\r\n        Position storage p = positions[posID];\r\n\r\n        p.coinsMinted = stableCoinsToMint;\r\n        p.wethAmountLocked = msg.value;\r\n        (bool successTransfer, ) = dao.addresses('weth').call{value: msg.value}(\"\");\r\n        require(successTransfer, 'Could not pass funds to weth contract for some reason');\r\n        p.owner = msg.sender;\r\n        p.timeOpened = block.timestamp;\r\n        p.lastTimeUpdated = block.timestamp;\r\n        p.interestAmountRecorded = 0;\r\n        p.interestRate = dao.params('interestRate');\r\n\r\n        coin.mint(msg.sender, stableCoinsToMint);\r\n\r\n        emit PositionOpened(p.owner, posID);\r\n\r\n        return posID;\r\n    }\r\n\r\n    function interestAmountUnrecorded(uint256 posID) public view returns (uint256 interestAmount) {\r\n        Position storage p = positions[posID];\r\n        return p.coinsMinted * (block.timestamp - p.lastTimeUpdated) * p.interestRate / 31536000 / 100;\r\n    }\r\n\r\n    function totalCurrentFee(uint256 posID) public view returns (uint256 fee){\r\n        return positions[posID].interestAmountRecorded + interestAmountUnrecorded(posID);\r\n    }\r\n\r\n    function getMaxStableCoinsToMint(uint256 ethValue) public view returns (uint256 amount) {\r\n        uint256 price = oracleCart.getPrice('stb');\r\n        uint256 decimals = oracleCart.getDecimals('etc');\r\n        return ethValue * price * (100 - dao.params('collateralDiscount'))/(10**decimals)/100;\r\n    }\r\n\r\n    function getMaxStableCoinsToMintForPos(uint256 posID) public view returns (uint256 maxAmount){\r\n        return getMaxStableCoinsToMint(positions[posID].wethAmountLocked) - totalCurrentFee(posID);\r\n    }\r\n\r\n    function claimInterest(uint256 amount, address beneficiary) external{\r\n        require(dao.authorized(msg.sender), \"only authorized address may do this\");\r\n        if (coin.balanceOf(address(this))>amount)\r\n            coin.transfer(beneficiary, amount);\r\n        else {\r\n            uint256 difference = amount - coin.balanceOf(address(this));\r\n            coin.transfer(beneficiary, coin.balanceOf(address(this)));\r\n            coin.approve(beneficiary, difference+coin.allowance(address(this), beneficiary));\r\n        }\r\n    }\r\n\r\n    function claimEmission(uint256 amount, address beneficiary) external{\r\n        require(dao.authorized(msg.sender), \"only authorized address may do this\");\r\n        coin.mint(beneficiary,amount);\r\n    }\r\n\r\n    function closeCDP(uint256 posID) external{\r\n        Position storage p = positions[posID];\r\n        require(p.owner == msg.sender, \"Only owner may close his position\");\r\n        require(!p.onLiquidation, \"This position is on liquidation\");\r\n        uint256 overallDebt = totalCurrentFee(posID)+p.coinsMinted;\r\n        require(coin.transferFrom(p.owner, address(this), overallDebt), \"Could not transfer coins for some reason. You have to allow coins first\");\r\n        require (weth.transfer(p.owner, p.wethAmountLocked), \"Could not transfer collateral for some reason\");\r\n        p.wethAmountLocked = 0;\r\n        coin.burn(address(this), p.coinsMinted);\r\n        p.coinsMinted = 0;\r\n        p.lastTimeUpdated = block.timestamp;\r\n        p.liquidated = true;\r\n    }\r\n\r\n    function transferInterest(uint256 posID) external{\r\n        Position storage p = positions[posID];\r\n        if (p.restrictInterestWithdrawal)\r\n            require(p.owner == msg.sender, \"Only owner may transfer interest\");\r\n        require(!p.onLiquidation, \"This position is on liquidation\");\r\n        require(coin.transferFrom(p.owner, address(this), totalCurrentFee(posID)), 'Was not able to transfer fee. Insufficient balance or allowance. Try to allow spending first');\r\n        p.interestAmountRecorded = 0;\r\n        p.lastTimeUpdated = block.timestamp;\r\n    }\r\n\r\n    function switchRestrictInterestWithdrawal(uint256 posID) external {\r\n        Position storage p = positions[posID];\r\n        require (p.owner == msg.sender, \"Only owner may set this property\");\r\n        p.restrictInterestWithdrawal = !p.restrictInterestWithdrawal;\r\n    }\r\n\r\n    function allowSurplusToAuction() external{\r\n        uint256 stabilizationFundAmount = dao.params('stabilizationFundPercent')*coin.totalSupply()/100;\r\n        require (coin.balanceOf(address(this)) >= stabilizationFundAmount, \"insufficient funds on CDP contract\");\r\n        uint256 surplus = coin.balanceOf(address(this)) - stabilizationFundAmount;\r\n        require (surplus >= dao.params('minCDPBalanceToInitBuyOut'), \"not enough surplus to start buyOut\");\r\n        require (coin.approve(dao.addresses('auction'), surplus), \"could not approve coins for some reason\");\r\n    }\r\n\r\n    function claimMarginCall(uint256 posID) external returns (bool success) {\r\n        Position storage p = positions[posID];\r\n            require (p.markedOnLiquidationTimestamp >0 && block.timestamp - p.markedOnLiquidationTimestamp > dao.params('marginCallTimeLimit'), \"Position is not marked on liquidation or owner still has time\");\r\n        require(!p.onLiquidation && !p.liquidated, \"Position is already on liquidation or already liquidated\");\r\n        if (getMaxStableCoinsToMintForPos(posID) < p.coinsMinted) {\r\n            p.onLiquidation = true;\r\n            uint256 currentAllowance = weth.allowance(dao.addresses('cdp'), dao.addresses('auction'));\r\n            require(weth.approve(dao.addresses('auction'), currentAllowance+p.wethAmountLocked), \"could not approve weth for some reason\");\r\n            emit OnLiquidation(posID, block.timestamp);\r\n            return true;\r\n        }\r\n        else {\r\n            p.markedOnLiquidationTimestamp = 0;\r\n            return false;\r\n        }\r\n    }\r\n\r\n    function startCoinsBuyOut(uint256 posID) external{\r\n        Position storage p = positions[posID];\r\n        require (p.onLiquidation && !p.liquidated && p.liquidationAuctionID == 0, \"Position is not on liquidation or already liquidated, or auction was already started\");\r\n        p.liquidationAuctionID = auction.initCoinsBuyOut(posID, p.wethAmountLocked);\r\n        p.wethAmountLocked = 0;\r\n    }\r\n\r\n    function finishMarginCall(uint256 posID) external {\r\n        Position storage p = positions[posID];\r\n        require(p.onLiquidation && !p.liquidated && p.liquidationAuctionID !=0, \"Position is not on liquidation or was already liquidated or auction was not started\");\r\n        if (!auction.isFinalized(p.liquidationAuctionID))\r\n            require(auction.claimToFinalizeAuction(p.liquidationAuctionID), \"could not finalize auction\");\r\n\r\n        uint256 paymentAmount = auction.getPaymentAmount(p.liquidationAuctionID);\r\n\r\n        if (paymentAmount >=p.coinsMinted){\r\n            uint256 overallDebt = p.coinsMinted + totalCurrentFee(posID) + p.coinsMinted * dao.params('liquidationFee') / 100;\r\n            if (paymentAmount > overallDebt)\r\n                coin.transfer(p.owner, paymentAmount - overallDebt);\r\n            coin.burn(address(this), p.coinsMinted);\r\n            p.liquidated = true;\r\n            return;\r\n        }\r\n        else {\r\n            if (coin.balanceOf(address(this)) >= p.coinsMinted){\r\n                coin.burn(address(this), p.coinsMinted);\r\n                p.liquidated = true;\r\n                return;\r\n            }\r\n            else {\r\n                uint256 toBurn = coin.balanceOf(address(this));\r\n                coin.burn(address(this), toBurn);\r\n                p.coinsMinted -= toBurn;\r\n                auction.initCoinsBuyOutForStabilization(p.coinsMinted);\r\n            }\r\n        }\r\n    }\r\n\r\n    function markToLiquidate(uint256 posID) external {\r\n        Position storage p = positions[posID];\r\n        require (p.markedOnLiquidationTimestamp == 0 && !p.onLiquidation, \"This position is on liquidation or already marked\");\r\n        if (getMaxStableCoinsToMintForPos(posID) < p.coinsMinted) {\r\n            p.markedOnLiquidationTimestamp = block.timestamp;\r\n            emit markedOnLiquidation (posID, block.timestamp);\r\n        }\r\n    }\r\n\r\n    function eraseMarkToLiquidate(uint posID) external{\r\n        Position storage p = positions[posID];\r\n        require (p.markedOnLiquidationTimestamp >0 && !p.onLiquidation && !p.liquidated, \"This position is not marked or locked/liquidated\");\r\n        if (getMaxStableCoinsToMintForPos(posID) > p.coinsMinted) {\r\n            p.markedOnLiquidationTimestamp = 0;\r\n            emit markOnLiquidationErased (posID, block.timestamp);\r\n        }\r\n    }\r\n\r\n    function updateCDP(uint posID, uint newStableCoinsAmount) external payable returns (bool success){\r\n        Position storage p = positions[posID];\r\n        require(!p.onLiquidation, \"This position is on liquidation\");\r\n        require(p.owner == msg.sender, \"Only owner may update the position\");\r\n        require (newStableCoinsAmount >= dao.params('minCoinsToMint'), \"you can not mint less than 1 coin\");\r\n\r\n        p.interestAmountRecorded += interestAmountUnrecorded(posID);\r\n        p.lastTimeUpdated = block.timestamp;\r\n\r\n        if (msg.value>0) {\r\n            p.wethAmountLocked += msg.value;\r\n            (bool successTransfer, ) = dao.addresses('weth').call{value: msg.value}(\"\");\r\n            require(successTransfer, 'Could not pass funds to weth contract for some reason');\r\n        }\r\n\r\n        require(getMaxStableCoinsToMintForPos(posID) >= newStableCoinsAmount, 'not enough collateral to mint amount');\r\n\r\n        if (newStableCoinsAmount > p.coinsMinted) {\r\n            uint256 difference = newStableCoinsAmount - p.coinsMinted;\r\n            coin.mint(p.owner, difference);\r\n            p.coinsMinted = newStableCoinsAmount;\r\n            emit PositionUpdated(posID, newStableCoinsAmount, p.wethAmountLocked);\r\n            return true;\r\n        }\r\n\r\n        if (newStableCoinsAmount < p.coinsMinted) {\r\n            uint256 difference = p.coinsMinted - newStableCoinsAmount;\r\n            require(coin.balanceOf(p.owner)>=difference);\r\n            coin.burn(p.owner, difference);\r\n            p.coinsMinted = newStableCoinsAmount;\r\n            emit PositionUpdated(posID, newStableCoinsAmount, p.wethAmountLocked);\r\n            return true;\r\n        }\r\n\r\n        if (newStableCoinsAmount == p.coinsMinted) {\r\n            emit PositionUpdated(posID, newStableCoinsAmount, p.wethAmountLocked);\r\n            return true;\r\n        }\r\n    }\r\n\r\n    function withdrawEther (uint256 posID, uint256 etherToWithdraw) external{\r\n        Position storage p = positions[posID];\r\n        require(!p.onLiquidation, \"This position is on liquidation\");\r\n        require(p.owner == msg.sender, 'Only owner may update the position');\r\n        require (etherToWithdraw<p.wethAmountLocked, \"You dont have enough weth locked on this pos\");\r\n        uint256 wethToLeave = p.wethAmountLocked - etherToWithdraw;\r\n        uint256 maxCoins = getMaxStableCoinsToMint(wethToLeave) - totalCurrentFee(posID);\r\n        require (maxCoins>p.coinsMinted, \"you want to keep not enough weth to cover emission and current fee\");\r\n        p.wethAmountLocked -= etherToWithdraw;\r\n        weth.transfer(msg.sender, etherToWithdraw);\r\n        emit PositionUpdated (posID, p.coinsMinted, p.wethAmountLocked);\r\n    }\r\n\r\n    function burnRule() external{\r\n        rule.burn(address(this), rule.balanceOf(address(this)));\r\n    }\r\n\r\n    function mintRule(address to, uint256 amount) external returns (bool success){\r\n        require (msg.sender == dao.addresses('auction'), \"Only auction is allowed to claim mint\");\r\n        rule.mint(to, amount);\r\n        return true;\r\n    }\r\n\r\n    receive() external payable {}\r\n\r\n    function withdraw() external {\r\n        dao.addresses('oracle').transfer(address(this).balance);\r\n    }\r\n}\r\n",
  "sourcePath": "C:\\Users\\d.nagornykh\\YandexDisk\\\\ICO\\CryptoFiat\\repo\\contracts\\CDP.sol",
  "compiler": {
    "name": "solc",
    "version": "0.8.19+commit.7dd6d404.Emscripten.clang"
  },
  "schemaVersion": "3.4.14",
  "updatedAt": "2023-08-11T06:20:07.202Z",
  "devdoc": {
    "kind": "dev",
    "methods": {},
    "version": 1
  },
  "userdoc": {
    "kind": "user",
    "methods": {},
    "version": 1
  }
}