{
  "contractName": "DepositContract",
  "abi": [
    {
      "inputs": [
        {
          "internalType": "address payable",
          "name": "INTDAOaddress",
          "type": "address"
        }
      ],
      "stateMutability": "nonpayable",
      "type": "constructor"
    },
    {
      "anonymous": false,
      "inputs": [
        {
          "indexed": false,
          "internalType": "uint256",
          "name": "id",
          "type": "uint256"
        },
        {
          "indexed": false,
          "internalType": "uint256",
          "name": "amount",
          "type": "uint256"
        },
        {
          "indexed": false,
          "internalType": "uint256",
          "name": "rate",
          "type": "uint256"
        },
        {
          "indexed": false,
          "internalType": "address",
          "name": "owner",
          "type": "address"
        }
      ],
      "name": "DepositOpened",
      "type": "event"
    },
    {
      "inputs": [],
      "name": "counter",
      "outputs": [
        {
          "internalType": "uint256",
          "name": "",
          "type": "uint256"
        }
      ],
      "stateMutability": "view",
      "type": "function"
    },
    {
      "inputs": [
        {
          "internalType": "uint256",
          "name": "",
          "type": "uint256"
        }
      ],
      "name": "deposits",
      "outputs": [
        {
          "internalType": "address",
          "name": "owner",
          "type": "address"
        },
        {
          "internalType": "uint256",
          "name": "coinsDeposited",
          "type": "uint256"
        },
        {
          "internalType": "uint256",
          "name": "timeOpened",
          "type": "uint256"
        },
        {
          "internalType": "uint256",
          "name": "period",
          "type": "uint256"
        },
        {
          "internalType": "uint256",
          "name": "currentInterestRate",
          "type": "uint256"
        },
        {
          "internalType": "uint256",
          "name": "lastTimeUpdated",
          "type": "uint256"
        },
        {
          "internalType": "uint256",
          "name": "accumulatedInterest",
          "type": "uint256"
        },
        {
          "internalType": "bool",
          "name": "closed",
          "type": "bool"
        }
      ],
      "stateMutability": "view",
      "type": "function"
    },
    {
      "inputs": [],
      "name": "renewContracts",
      "outputs": [],
      "stateMutability": "nonpayable",
      "type": "function"
    },
    {
      "inputs": [],
      "name": "deposit",
      "outputs": [],
      "stateMutability": "nonpayable",
      "type": "function"
    },
    {
      "inputs": [
        {
          "internalType": "uint256",
          "name": "id",
          "type": "uint256"
        },
        {
          "internalType": "uint256",
          "name": "amount",
          "type": "uint256"
        }
      ],
      "name": "withdraw",
      "outputs": [],
      "stateMutability": "nonpayable",
      "type": "function"
    },
    {
      "inputs": [
        {
          "internalType": "uint256",
          "name": "id",
          "type": "uint256"
        }
      ],
      "name": "topUp",
      "outputs": [],
      "stateMutability": "nonpayable",
      "type": "function"
    },
    {
      "inputs": [
        {
          "internalType": "uint256",
          "name": "id",
          "type": "uint256"
        }
      ],
      "name": "overallInterest",
      "outputs": [
        {
          "internalType": "uint256",
          "name": "interest",
          "type": "uint256"
        }
      ],
      "stateMutability": "view",
      "type": "function"
    },
    {
      "inputs": [
        {
          "internalType": "uint256",
          "name": "id",
          "type": "uint256"
        }
      ],
      "name": "updateInterest",
      "outputs": [
        {
          "internalType": "uint256",
          "name": "accumulated",
          "type": "uint256"
        }
      ],
      "stateMutability": "nonpayable",
      "type": "function"
    },
    {
      "inputs": [
        {
          "internalType": "uint256",
          "name": "id",
          "type": "uint256"
        }
      ],
      "name": "claimInterest",
      "outputs": [],
      "stateMutability": "nonpayable",
      "type": "function"
    }
  ],
  "bytecode": "0x608060405234801561001057600080fd5b50604051620010d9380380620010d983398101604081905261003191610215565b600080546001600160a01b0319166001600160a01b0383169081179091556040805163155ef82760e11b81526004810191909152600760448201526619195c1bdcda5d60ca1b6064820152306024820152632abdf04e90608401600060405180830381600087803b1580156100a557600080fd5b505af11580156100b9573d6000803e3d6000fd5b505060005460405163bdfe7d4760e01b815260206004820152600a60248201526939ba30b13632a1b7b4b760b11b60448201526001600160a01b03909116925063bdfe7d479150606401602060405180830381865afa158015610120573d6000803e3d6000fd5b505050506040513d601f19601f820116820180604052508101906101449190610215565b600180546001600160a01b0319166001600160a01b0392831617905560005460405163bdfe7d4760e01b815260206004820152600360248201526206364760ec1b604482015291169063bdfe7d4790606401602060405180830381865afa1580156101b3573d6000803e3d6000fd5b505050506040513d601f19601f820116820180604052508101906101d79190610215565b600280546001600160a01b0319166001600160a01b039290921691909117905550610239565b6001600160a01b038116811461021257600080fd5b50565b60006020828403121561022757600080fd5b8151610232816101fd565b9392505050565b610e9080620002496000396000f3fe608060405234801561001057600080fd5b50600436106100835760003560e01c806323d86a65146100885780632eb375ea14610092578063441a3e70146100a55780634a1a0539146100b857806350017f3e146100de57806361bc221a146100f1578063b02c43d0146100fa578063d0e30db01461019f578063fb092bba146101a7575b600080fd5b6100906101ba565b005b6100906100a0366004610cc4565b6102f6565b6100906100b3366004610cdd565b61039e565b6100cb6100c6366004610cc4565b6105e3565b6040519081526020015b60405180910390f35b6100906100ec366004610cc4565b610656565b6100cb60035481565b610158610108366004610cc4565b6004602081905260009182526040909120805460018201546002830154600384015494840154600585015460068601546007909601546001600160a01b0390951696939592949192909160ff1688565b604080516001600160a01b0390991689526020890197909752958701949094526060860192909252608085015260a084015260c0830152151560e0820152610100016100d5565b6100906108ad565b6100cb6101b5366004610cc4565b610c16565b60005460405163bdfe7d4760e01b815260206004820152600a60248201526939ba30b13632a1b7b4b760b11b60448201526001600160a01b039091169063bdfe7d4790606401602060405180830381865afa15801561021d573d6000803e3d6000fd5b505050506040513d601f19601f820116820180604052508101906102419190610cff565b600180546001600160a01b0319166001600160a01b0392831617905560005460405163bdfe7d4760e01b815260206004820152600360248201526206364760ec1b604482015291169063bdfe7d4790606401602060405180830381865afa1580156102b0573d6000803e3d6000fd5b505050506040513d601f19601f820116820180604052508101906102d49190610cff565b600280546001600160a01b0319166001600160a01b0392909216919091179055565b6102ff81610c16565b506002546001600160a01b0316637f660be161031a836105e3565b60008481526004602081905260409182902054915160e085901b6001600160e01b0319168152908101929092526001600160a01b03166024820152604401600060405180830381600087803b15801561037257600080fd5b505af1158015610386573d6000803e3d6000fd5b50505060009182525060046020526040812060060155565b6103a782610c16565b50600082815260046020526040902080546001600160a01b031633146104145760405162461bcd60e51b815260206004820152601e60248201527f6f6e6c79206f776e6572206d617920696e6974207769746864726177616c000060448201526064015b60405180910390fd5b600781015460ff161561045d5760405162461bcd60e51b815260206004820152601160248201527019195c1bdcda5d081a5cc818db1bdcd959607a1b604482015260640161040b565b80600101548211156104af5760405162461bcd60e51b815260206004820152601b60248201527a1b9bdd08195b9bdd59da0818dbda5b9cc81bdb8819195c1bdcda5d602a1b604482015260640161040b565b600154815460405163a9059cbb60e01b81526001600160a01b0391821660048201526024810185905291169063a9059cbb906044016020604051808303816000875af1158015610503573d6000803e3d6000fd5b505050506040513d601f19601f820116820180604052508101906105279190610d28565b508181600101600082825461053c9190610d60565b9091555050600181015460000361055d5760078101805460ff191660011790555b80600301544211156105de5760005460405163145f822b60e01b81526001600160a01b039091169063145f822b9061059790600401610d79565b602060405180830381865afa1580156105b4573d6000803e3d6000fd5b505050506040513d601f19601f820116820180604052508101906105d89190610d9e565b60048201555b505050565b600081815260046020819052604082206006810154918101546005820154919291618e94919062015180906106189042610d60565b85600101546106279190610db7565b6106319190610dce565b61063b9190610db7565b6106459190610dce565b61064f9190610df0565b9392505050565b61065f81610c16565b506000818152600460205260409020600781015460ff16156106d55760405162461bcd60e51b815260206004820152602960248201527f6465706f73697420697320636c6f7365642c206f70656e2061206e6577206f6e604482015268652c20706c6561736560b81b606482015260840161040b565b600154604051636eb1769f60e11b81526000916001600160a01b03169063dd62ed3e906107089033903090600401610e03565b602060405180830381865afa158015610725573d6000803e3d6000fd5b505050506040513d601f19601f820116820180604052508101906107499190610d9e565b9050600081116107965760405162461bcd60e51b8152602060048201526018602482015277165bdd481cda1bdd5b1908185c1c1c9bdd9948199a5c9cdd60421b604482015260640161040b565b6001546040516323b872dd60e01b81526001600160a01b03909116906323b872dd906107ca90339030908690600401610e1d565b6020604051808303816000875af11580156107e9573d6000803e3d6000fd5b505050506040513d601f19601f8201168201806040525081019061080d9190610d28565b50816003015442111561088f5760005460405163145f822b60e01b81526001600160a01b039091169063145f822b9061084890600401610d79565b602060405180830381865afa158015610865573d6000803e3d6000fd5b505050506040513d601f19601f820116820180604052508101906108899190610d9e565b60048301555b808260010160008282546108a39190610df0565b9091555050505050565b600154604051636eb1769f60e11b81526000916001600160a01b03169063dd62ed3e906108e09033903090600401610e03565b602060405180830381865afa1580156108fd573d6000803e3d6000fd5b505050506040513d601f19601f820116820180604052508101906109219190610d9e565b9050600081116109735760405162461bcd60e51b815260206004820152601f60248201527f796f75206861766520746f20617070726f766520636f696e7320666972737400604482015260640161040b565b6001546040516323b872dd60e01b81526001600160a01b03909116906323b872dd906109a790339030908690600401610e1d565b6020604051808303816000875af11580156109c6573d6000803e3d6000fd5b505050506040513d601f19601f820116820180604052508101906109ea9190610d28565b610a475760405162461bcd60e51b815260206004820152602860248201527f436f756c64206e6f74207472616e7366657220636f696e7320666f7220736f6d60448201526732903932b0b9b7b760c11b606482015260840161040b565b600060046000600360008154610a5c90610e41565b9182905550815260208101919091526040908101600090812080546001600160a01b0319163317815542600582018190556002820155600181018590559054915163145f822b60e01b81529092506001600160a01b03919091169063145f822b90610ac990600401610d79565b602060405180830381865afa158015610ae6573d6000803e3d6000fd5b505050506040513d601f19601f82011682018060405250810190610b0a9190610d9e565b60048281019190915560005460405163145f822b60e01b81526020928101929092526014602483015273191959985d5b1d11195c1bdcda5d14195c9a5bd960621b60448301526001600160a01b03169063145f822b90606401602060405180830381865afa158015610b80573d6000803e3d6000fd5b505050506040513d601f19601f82011682018060405250810190610ba49190610d9e565b610bae9042610df0565b60038281019190915554600182015460048301548354604080519485526020850193909352918301526001600160a01b031660608201527fb02613ba27262cf35ecde50f7ec0058e664ad0562b03a4c1b910a8c1c5f5c8139060800160405180910390a15050565b6000818152600460205260408120610c2d836105e3565b6006820155426005820181905560038201541015610cba5760005460405163145f822b60e01b81526001600160a01b039091169063145f822b90610c7390600401610d79565b602060405180830381865afa158015610c90573d6000803e3d6000fd5b505050506040513d601f19601f82011682018060405250810190610cb49190610d9e565b60048201555b6006015492915050565b600060208284031215610cd657600080fd5b5035919050565b60008060408385031215610cf057600080fd5b50508035926020909101359150565b600060208284031215610d1157600080fd5b81516001600160a01b038116811461064f57600080fd5b600060208284031215610d3a57600080fd5b8151801515811461064f57600080fd5b634e487b7160e01b600052601160045260246000fd5b81810381811115610d7357610d73610d4a565b92915050565b6020808252600b908201526a6465706f7369745261746560a81b604082015260600190565b600060208284031215610db057600080fd5b5051919050565b8082028115828204841417610d7357610d73610d4a565b600082610deb57634e487b7160e01b600052601260045260246000fd5b500490565b80820180821115610d7357610d73610d4a565b6001600160a01b0392831681529116602082015260400190565b6001600160a01b039384168152919092166020820152604081019190915260600190565b600060018201610e5357610e53610d4a565b506001019056fea2646970667358221220a285c6b2d701d75cf58667343dddc707ca39a6c7809e1cab15c90ef8157e770b64736f6c63430008130033",
  "immutableReferences": {},
  "source": "// SPDX-License-Identifier: UNLICENSED\r\npragma solidity 0.8.19;\r\nimport \"@openzeppelin/contracts/token/ERC20/IERC20.sol\";\r\n\r\ninterface ICDP{\r\n    function claimInterest(uint256 amount, address beneficiary) external;\r\n}\r\n\r\ninterface IDAO{\r\n    function addresses(string memory) external view returns (address);\r\n    function params(string memory) external view returns (uint256);\r\n    function setAddressOnce(string memory, address) external;\r\n}\r\n\r\n    struct Deposit {\r\n        address owner;\r\n        uint256 coinsDeposited;\r\n        uint256 timeOpened;\r\n        uint256 period;\r\n        uint256 currentInterestRate;\r\n        uint256 lastTimeUpdated;\r\n        uint256 accumulatedInterest;\r\n        bool closed;\r\n    }\r\n\r\ncontract DepositContract {\r\n    IDAO dao;\r\n    IERC20 coin;\r\n    ICDP cdp;\r\n    uint256 public counter;\r\n    mapping(uint256 => Deposit) public deposits;\r\n    event DepositOpened(uint256 id, uint256 amount, uint256 rate, address owner);\r\n\r\n    constructor(address payable INTDAOaddress){\r\n        dao = IDAO(INTDAOaddress);\r\n        dao.setAddressOnce('deposit',payable(address(this)));\r\n        coin = IERC20(dao.addresses('stableCoin'));\r\n        cdp = ICDP(dao.addresses('cdp'));\r\n    }\r\n\r\n    function renewContracts() public {\r\n        coin = IERC20(payable(dao.addresses('stableCoin')));\r\n        cdp = ICDP(payable(dao.addresses('cdp')));\r\n    }\r\n\r\n    function deposit() public{\r\n        uint256 amount = coin.allowance(msg.sender, address(this));\r\n        require (amount>0, \"you have to approve coins first\");\r\n        require (coin.transferFrom(msg.sender, address(this), amount), \"Could not transfer coins for some reason\");\r\n        Deposit storage d = deposits[++counter];\r\n        d.owner = msg.sender;\r\n        d.lastTimeUpdated = block.timestamp;\r\n        d.timeOpened = block.timestamp;\r\n        d.coinsDeposited = amount;\r\n        d.currentInterestRate = dao.params(\"depositRate\");\r\n        d.period = block.timestamp + dao.params(\"defaultDepositPeriod\");\r\n        emit DepositOpened(counter, d.coinsDeposited, d.currentInterestRate, d.owner);\r\n    }\r\n\r\n    function withdraw(uint256 id, uint256 amount) public{\r\n        updateInterest(id);\r\n        Deposit storage d = deposits[id];\r\n        require(msg.sender == d.owner, \"only owner may init withdrawal\");\r\n        require (!d.closed, \"deposit is closed\");\r\n        require (amount<=d.coinsDeposited, \"not enough coins on deposit\");\r\n        coin.transfer(d.owner, amount);\r\n        d.coinsDeposited -= amount;\r\n        if (d.coinsDeposited==0)\r\n            d.closed = true;\r\n        if (block.timestamp>d.period)\r\n            d.currentInterestRate = dao.params(\"depositRate\");\r\n    }\r\n\r\n    function topUp(uint256 id) public{\r\n        updateInterest(id);\r\n        Deposit storage d = deposits[id];\r\n        require (!d.closed, \"deposit is closed, open a new one, please\");\r\n        uint256 amount = coin.allowance(msg.sender, address(this));\r\n        require (amount>0, \"You should approve first\");\r\n        coin.transferFrom(msg.sender, address(this), amount);\r\n        if (block.timestamp>d.period)\r\n            d.currentInterestRate = dao.params(\"depositRate\");\r\n        d.coinsDeposited += amount;\r\n    }\r\n\r\n    function overallInterest(uint256 id) public view returns (uint256 interest){\r\n        Deposit storage d = deposits[id];\r\n        return d.coinsDeposited*(block.timestamp - d.lastTimeUpdated)/1 days*d.currentInterestRate/36500 + d.accumulatedInterest;\r\n    }\r\n\r\n    function updateInterest(uint256 id) public returns (uint256 accumulated){\r\n        Deposit storage d = deposits[id];\r\n        d.accumulatedInterest = overallInterest(id);\r\n        d.lastTimeUpdated = block.timestamp;\r\n        if (block.timestamp>d.period)\r\n            d.currentInterestRate = dao.params(\"depositRate\");\r\n        return d.accumulatedInterest;\r\n    }\r\n\r\n    function claimInterest(uint256 id) public {\r\n        updateInterest(id);\r\n        cdp.claimInterest(overallInterest(id), deposits[id].owner);\r\n        deposits[id].accumulatedInterest = 0;\r\n    }\r\n}\r\n",
  "sourcePath": "C:\\Users\\d.nagornykh\\YandexDisk\\\\ICO\\CryptoFiat\\repo\\contracts\\Deposit.sol",
  "compiler": {
    "name": "solc",
    "version": "0.8.19+commit.7dd6d404.Emscripten.clang"
  },
  "schemaVersion": "3.4.14",
  "updatedAt": "2023-08-14T08:42:01.764Z",
  "devdoc": {
    "kind": "dev",
    "methods": {},
    "version": 1
  },
  "userdoc": {
    "kind": "user",
    "methods": {},
    "version": 1
  }
}