{
  "contractName": "exchangeRateContract",
  "abi": [
    {
      "inputs": [
        {
          "internalType": "address",
          "name": "_INTDAOaddress",
          "type": "address"
        }
      ],
      "stateMutability": "payable",
      "type": "constructor",
      "payable": true
    },
    {
      "anonymous": false,
      "inputs": [
        {
          "indexed": false,
          "internalType": "uint16",
          "name": "id",
          "type": "uint16"
        }
      ],
      "name": "highVolatility",
      "type": "event"
    },
    {
      "anonymous": false,
      "inputs": [
        {
          "indexed": false,
          "internalType": "uint16",
          "name": "id",
          "type": "uint16"
        }
      ],
      "name": "priceUpdateRequest",
      "type": "event"
    },
    {
      "anonymous": false,
      "inputs": [
        {
          "indexed": false,
          "internalType": "uint16",
          "name": "id",
          "type": "uint16"
        }
      ],
      "name": "priceUpdated",
      "type": "event"
    },
    {
      "anonymous": false,
      "inputs": [
        {
          "indexed": false,
          "internalType": "uint256",
          "name": "profit",
          "type": "uint256"
        }
      ],
      "name": "profit",
      "type": "event"
    },
    {
      "anonymous": false,
      "inputs": [
        {
          "indexed": false,
          "internalType": "uint16[]",
          "name": "ids",
          "type": "uint16[]"
        }
      ],
      "name": "severalPricesUpdateRequest",
      "type": "event"
    },
    {
      "inputs": [],
      "name": "author",
      "outputs": [
        {
          "internalType": "address",
          "name": "",
          "type": "address"
        }
      ],
      "stateMutability": "view",
      "type": "function",
      "constant": true
    },
    {
      "inputs": [],
      "name": "beneficiary",
      "outputs": [
        {
          "internalType": "address",
          "name": "",
          "type": "address"
        }
      ],
      "stateMutability": "view",
      "type": "function",
      "constant": true
    },
    {
      "inputs": [
        {
          "internalType": "string",
          "name": "",
          "type": "string"
        }
      ],
      "name": "dictionary",
      "outputs": [
        {
          "internalType": "uint16",
          "name": "id",
          "type": "uint16"
        },
        {
          "internalType": "string",
          "name": "name",
          "type": "string"
        },
        {
          "internalType": "uint8",
          "name": "decimals",
          "type": "uint8"
        }
      ],
      "stateMutability": "view",
      "type": "function",
      "constant": true
    },
    {
      "inputs": [],
      "name": "finalized",
      "outputs": [
        {
          "internalType": "bool",
          "name": "",
          "type": "bool"
        }
      ],
      "stateMutability": "view",
      "type": "function",
      "constant": true
    },
    {
      "inputs": [
        {
          "internalType": "uint16",
          "name": "",
          "type": "uint16"
        }
      ],
      "name": "instruments",
      "outputs": [
        {
          "internalType": "uint128",
          "name": "price",
          "type": "uint128"
        },
        {
          "internalType": "uint128",
          "name": "timeStamp",
          "type": "uint128"
        }
      ],
      "stateMutability": "view",
      "type": "function",
      "constant": true
    },
    {
      "inputs": [],
      "name": "instrumentsCount",
      "outputs": [
        {
          "internalType": "uint16",
          "name": "",
          "type": "uint16"
        }
      ],
      "stateMutability": "view",
      "type": "function",
      "constant": true
    },
    {
      "inputs": [],
      "name": "updAdditionalPrice",
      "outputs": [
        {
          "internalType": "uint256",
          "name": "",
          "type": "uint256"
        }
      ],
      "stateMutability": "view",
      "type": "function",
      "constant": true
    },
    {
      "inputs": [],
      "name": "updOnePriceGasCost",
      "outputs": [
        {
          "internalType": "uint256",
          "name": "",
          "type": "uint256"
        }
      ],
      "stateMutability": "view",
      "type": "function",
      "constant": true
    },
    {
      "inputs": [],
      "name": "updSeveralPricesCost",
      "outputs": [
        {
          "internalType": "uint256",
          "name": "",
          "type": "uint256"
        }
      ],
      "stateMutability": "view",
      "type": "function",
      "constant": true
    },
    {
      "inputs": [],
      "name": "updater",
      "outputs": [
        {
          "internalType": "address",
          "name": "",
          "type": "address"
        }
      ],
      "stateMutability": "view",
      "type": "function",
      "constant": true
    },
    {
      "inputs": [
        {
          "internalType": "address payable",
          "name": "newAddress",
          "type": "address"
        }
      ],
      "name": "changeBeneficiaryAddress",
      "outputs": [],
      "stateMutability": "nonpayable",
      "type": "function"
    },
    {
      "inputs": [],
      "name": "finalize",
      "outputs": [],
      "stateMutability": "nonpayable",
      "type": "function"
    },
    {
      "inputs": [
        {
          "internalType": "address payable",
          "name": "newAddress",
          "type": "address"
        }
      ],
      "name": "changeUpdaterAddress",
      "outputs": [],
      "stateMutability": "nonpayable",
      "type": "function"
    },
    {
      "inputs": [
        {
          "internalType": "uint16",
          "name": "id",
          "type": "uint16"
        }
      ],
      "name": "requestPriceUpdate",
      "outputs": [],
      "stateMutability": "payable",
      "type": "function",
      "payable": true
    },
    {
      "inputs": [
        {
          "internalType": "uint16[]",
          "name": "ids",
          "type": "uint16[]"
        }
      ],
      "name": "requestMultiplePricesUpdate",
      "outputs": [],
      "stateMutability": "payable",
      "type": "function",
      "payable": true
    },
    {
      "inputs": [
        {
          "internalType": "uint16[]",
          "name": "ids",
          "type": "uint16[]"
        },
        {
          "internalType": "uint128[]",
          "name": "prices",
          "type": "uint128[]"
        }
      ],
      "name": "updateSeveralPrices",
      "outputs": [],
      "stateMutability": "nonpayable",
      "type": "function"
    },
    {
      "inputs": [],
      "name": "transferProfit",
      "outputs": [],
      "stateMutability": "nonpayable",
      "type": "function"
    },
    {
      "inputs": [
        {
          "internalType": "uint16",
          "name": "id",
          "type": "uint16"
        },
        {
          "internalType": "uint128",
          "name": "newPrice",
          "type": "uint128"
        }
      ],
      "name": "updateSinglePrice",
      "outputs": [],
      "stateMutability": "nonpayable",
      "type": "function"
    },
    {
      "inputs": [
        {
          "internalType": "string",
          "name": "symbol",
          "type": "string"
        },
        {
          "internalType": "string",
          "name": "name",
          "type": "string"
        },
        {
          "internalType": "uint8",
          "name": "decimals",
          "type": "uint8"
        }
      ],
      "name": "addInstrument",
      "outputs": [
        {
          "internalType": "uint16",
          "name": "id",
          "type": "uint16"
        }
      ],
      "stateMutability": "nonpayable",
      "type": "function"
    },
    {
      "inputs": [
        {
          "internalType": "string",
          "name": "symbol",
          "type": "string"
        },
        {
          "internalType": "string",
          "name": "name",
          "type": "string"
        },
        {
          "internalType": "uint8",
          "name": "decimals",
          "type": "uint8"
        }
      ],
      "name": "updateInstrument",
      "outputs": [],
      "stateMutability": "nonpayable",
      "type": "function"
    },
    {
      "inputs": [
        {
          "internalType": "string",
          "name": "symbol",
          "type": "string"
        }
      ],
      "name": "getPrice",
      "outputs": [
        {
          "internalType": "uint128",
          "name": "",
          "type": "uint128"
        }
      ],
      "stateMutability": "view",
      "type": "function",
      "constant": true
    },
    {
      "inputs": [
        {
          "internalType": "string",
          "name": "symbol",
          "type": "string"
        }
      ],
      "name": "timeStamp",
      "outputs": [
        {
          "internalType": "uint128",
          "name": "",
          "type": "uint128"
        }
      ],
      "stateMutability": "view",
      "type": "function",
      "constant": true
    },
    {
      "inputs": [
        {
          "internalType": "string",
          "name": "symbol",
          "type": "string"
        }
      ],
      "name": "getDecimals",
      "outputs": [
        {
          "internalType": "uint8",
          "name": "",
          "type": "uint8"
        }
      ],
      "stateMutability": "view",
      "type": "function",
      "constant": true
    }
  ],
  "bytecode": "0x60806040526040516116fd3803806116fd833981016040819052610022916100e0565b600080546001600160a01b0319166001600160a01b0383169081179091556040805163155ef82760e11b8152600481019190915260066044820152656f7261636c6560d01b6064820152306024820152632abdf04e90608401600060405180830381600087803b15801561009557600080fd5b505af11580156100a9573d6000803e3d6000fd5b505060018054336001600160a01b031991821681179092556003805482168317905560028054909116909117905550610110915050565b6000602082840312156100f257600080fd5b81516001600160a01b038116811461010957600080fd5b9392505050565b6115de8061011f6000396000f3fe6080604052600436106101105760003560e01c806312d0e65a14610115578063132308b3146101375780631a83c4691461014a5780631ac5498a1461016a57806338af3eed1461018a5780633ef439ff146101c757806345c9c1d1146101f65780634bb278f31461020b578063506e4d9a14610220578063524f3889146102585780637a7a320614610278578063a1e381ef1461029d578063a6c3e6b9146102bd578063aa9fa0c0146102dd578063ab16ef44146102fd578063ab808dbe1461032c578063ad7a978414610343578063afd0fd1d14610356578063b3f05b9714610388578063b5c105f3146103b9578063b6245535146103cf578063bc8a86d5146103ef578063df034cd014610450575b600080fd5b34801561012157600080fd5b50610135610130366004610dd6565b610470565b005b610135610145366004610ef8565b6104ef565b34801561015657600080fd5b50610135610165366004610dd6565b61057b565b34801561017657600080fd5b50610135610185366004610fa3565b6105c7565b34801561019657600080fd5b506002546101aa906001600160a01b031681565b6040516001600160a01b0390911681526020015b60405180910390f35b3480156101d357600080fd5b506000546101e990600160a01b900461ffff1681565b6040516101be9190611020565b34801561020257600080fd5b506101356106ab565b34801561021757600080fd5b50610135610744565b34801561022c57600080fd5b5061024061023b36600461102f565b6107ad565b6040516001600160801b0390911681526020016101be565b34801561026457600080fd5b5061024061027336600461102f565b6107fd565b34801561028457600080fd5b5061028f62014bc081565b6040519081526020016101be565b3480156102a957600080fd5b506101e96102b8366004610fa3565b610846565b3480156102c957600080fd5b506001546101aa906001600160a01b031681565b3480156102e957600080fd5b506101356102f836600461107a565b6109a4565b34801561030957600080fd5b5061031d61031836600461102f565b610a71565b6040516101be9392919061115f565b34801561033857600080fd5b5061028f620156be81565b6101356103513660046111a8565b610b2f565b34801561036257600080fd5b5061037661037136600461102f565b610b96565b60405160ff90911681526020016101be565b34801561039457600080fd5b506003546103a990600160a01b900460ff1681565b60405190151581526020016101be565b3480156103c557600080fd5b5061028f6158ac81565b3480156103db57600080fd5b506101356103ea3660046111c3565b610bc4565b3480156103fb57600080fd5b5061043061040a3660046111a8565b6004602052600090815260409020546001600160801b0380821691600160801b90041682565b604080516001600160801b039384168152929091166020830152016101be565b34801561045c57600080fd5b506003546101aa906001600160a01b031681565b6001546001600160a01b031633146104a35760405162461bcd60e51b815260040161049a906111f6565b60405180910390fd5b600354600160a01b900460ff16156104cd5760405162461bcd60e51b815260040161049a9061122b565b600280546001600160a01b0319166001600160a01b0392909216919091179055565b3a620156be6158ac83516105039190611264565b61050d9190611281565b610518906002611264565b6105229190611264565b3410156105415760405162461bcd60e51b815260040161049a90611294565b7f92e8536a39685bc7378a90e3c92685e764f6ef9816f1110c7c4f30d0c97d43fb8160405161057091906112e5565b60405180910390a150565b6001546001600160a01b031633146105a55760405162461bcd60e51b815260040161049a906111f6565b600380546001600160a01b0319166001600160a01b0392909216919091179055565b6003546001600160a01b031633146105f15760405162461bcd60e51b815260040161049a9061132d565b6000600584604051610603919061136e565b908152602001604051809103902090508060010180546106229061138a565b90506000036106835760405162461bcd60e51b815260206004820152602760248201527f53796d626f6c20646f65736e27742065786973742c2075736520616464496e736044820152661d1c9d5b595b9d60ca1b606482015260840161049a565b600181016106918482611413565b50600201805460ff191660ff929092169190911790555050565b6001546001600160a01b031633146106d55760405162461bcd60e51b815260040161049a906111f6565b6002546040516001600160a01b03909116904780156108fc02916000818181858888f1935050505015801561070e573d6000803e3d6000fd5b506040514781527f1241ee7de620e23a422383ea2edb030a4d229d4e462e064085c36e5066b4bee19060200160405180910390a1565b6001546001600160a01b0316331461076e5760405162461bcd60e51b815260040161049a906111f6565b600354600160a01b900460ff16156107985760405162461bcd60e51b815260040161049a9061122b565b6003805460ff60a01b1916600160a01b179055565b6000600460006005846040516107c3919061136e565b90815260408051602092819003830190205461ffff168352908201929092520160002054600160801b90046001600160801b031692915050565b600060046000600584604051610813919061136e565b90815260408051602092819003830190205461ffff1683529082019290925201600020546001600160801b031692915050565b6003546000906001600160a01b031633146108735760405162461bcd60e51b815260040161049a9061132d565b6000600585604051610885919061136e565b908152602001604051809103902090508060010180546108a49061138a565b1590506109065760405162461bcd60e51b815260206004820152602a60248201527f53796d626f6c20616c72656164792065786973742c2075736520757064617465604482015269125b9cdd1c9d5b595b9d60b21b606482015260840161049a565b60008054600160a01b900461ffff16906014610921836114d2565b82546101009290920a61ffff818102199093169183160217909155825461ffff19169116178155600181016109568582611413565b5060028101805460ff851660ff19909116179055805461ffff908116600090815260046020526040902080546001600160801b03428116600160801b02911617905590541690509392505050565b6003546001600160a01b031633146109ce5760405162461bcd60e51b815260040161049a9061132d565b815181518114610a105760405162461bcd60e51b815260206004820152600d60248201526c0c2e4e4c2f2e640d8cadccee8d609b1b604482015260640161049a565b60005b818161ffff161015610a6b57610a63848261ffff1681518110610a3857610a386114f3565b6020026020010151848361ffff1681518110610a5657610a566114f3565b6020026020010151610bfc565b600101610a13565b50505050565b80516020818301810180516005825292820191909301209152805460018201805461ffff9092169291610aa39061138a565b80601f0160208091040260200160405190810160405280929190818152602001828054610acf9061138a565b8015610b1c5780601f10610af157610100808354040283529160200191610b1c565b820191906000526020600020905b815481529060010190602001808311610aff57829003601f168201915b5050506002909301549192505060ff1683565b3a610b3e62014bc06002611264565b610b489190611264565b341015610b675760405162461bcd60e51b815260040161049a90611294565b7f01117e6b66ea540aaff99988c0d1a792003641983f3e71c26d8cd82372a8aa00816040516105709190611020565b6000600582604051610ba8919061136e565b9081526040519081900360200190206002015460ff1692915050565b6003546001600160a01b03163314610bee5760405162461bcd60e51b815260040161049a9061132d565b610bf88282610bfc565b5050565b61ffff8216600090815260046020526040812080546001600160801b03428116600160801b029181168281179093551617908115610d6c57826001600160801b0316826001600160801b031610610c5e57610c578383611509565b9050610c6b565b610c688284611509565b90505b60005460405163145f822b60e01b815260206004820152602160248201527f68696768566f6c6174696c6974794576656e744261727269657250657263656e6044820152601d60fa1b60648201526001600160a01b039091169063145f822b90608401602060405180830381865afa158015610ceb573d6000803e3d6000fd5b505050506040513d601f19601f82011682018060405250810190610d0f9190611530565b82610d1b836064611549565b610d259190611574565b6001600160801b03161115610d6c577f412637e8aa46ce4827b3aafc26c8c83022c58ea58524995da6a578168e57312584604051610d639190611020565b60405180910390a15b61ffff84166000908152600460205260409081902080546001600160801b0319166001600160801b038616179055517fb224e441908b4f23387312014c3971437a09bf702e76a0dfe3907fb68d5d148990610dc8908690611020565b60405180910390a150505050565b600060208284031215610de857600080fd5b81356001600160a01b0381168114610dff57600080fd5b9392505050565b634e487b7160e01b600052604160045260246000fd5b604051601f8201601f191681016001600160401b0381118282101715610e4457610e44610e06565b604052919050565b60006001600160401b03821115610e6557610e65610e06565b5060051b60200190565b803561ffff81168114610e8157600080fd5b919050565b600082601f830112610e9757600080fd5b81356020610eac610ea783610e4c565b610e1c565b82815260059290921b84018101918181019086841115610ecb57600080fd5b8286015b84811015610eed57610ee081610e6f565b8352918301918301610ecf565b509695505050505050565b600060208284031215610f0a57600080fd5b81356001600160401b03811115610f2057600080fd5b610f2c84828501610e86565b949350505050565b600082601f830112610f4557600080fd5b81356001600160401b03811115610f5e57610f5e610e06565b610f71601f8201601f1916602001610e1c565b818152846020838601011115610f8657600080fd5b816020850160208301376000918101602001919091529392505050565b600080600060608486031215610fb857600080fd5b83356001600160401b0380821115610fcf57600080fd5b610fdb87838801610f34565b94506020860135915080821115610ff157600080fd5b50610ffe86828701610f34565b925050604084013560ff8116811461101557600080fd5b809150509250925092565b61ffff91909116815260200190565b60006020828403121561104157600080fd5b81356001600160401b0381111561105757600080fd5b610f2c84828501610f34565b80356001600160801b0381168114610e8157600080fd5b6000806040838503121561108d57600080fd5b82356001600160401b03808211156110a457600080fd5b6110b086838701610e86565b93506020915081850135818111156110c757600080fd5b85019050601f810186136110da57600080fd5b80356110e8610ea782610e4c565b81815260059190911b8201830190838101908883111561110757600080fd5b928401925b8284101561112c5761111d84611063565b8252928401929084019061110c565b80955050505050509250929050565b60005b8381101561115657818101518382015260200161113e565b50506000910152565b61ffff84168152606060208201526000835180606084015261118881608085016020880161113b565b60ff93909316604083015250601f91909101601f19160160800192915050565b6000602082840312156111ba57600080fd5b610dff82610e6f565b600080604083850312156111d657600080fd5b6111df83610e6f565b91506111ed60208401611063565b90509250929050565b6020808252818101527f546869732066756e6374696f6e20697320666f7220617574686f72206f6e6c79604082015260600190565b602080825260099082015268199a5b985b1a5e995960ba1b604082015260600190565b634e487b7160e01b600052601160045260246000fd5b808202811582820484141761127b5761127b61124e565b92915050565b8082018082111561127b5761127b61124e565b60208082526031908201527f596f75206e65656420746f2070617373206d6f726520657468657220746f207260408201527032b8bab2b9ba103732bb90383934b1b29760791b606082015260800190565b6020808252825182820181905260009190848201906040850190845b8181101561132157835161ffff1683529284019291840191600101611301565b50909695505050505050565b60208082526021908201527f546869732066756e6374696f6e20697320666f722075706461746572206f6e6c6040820152607960f81b606082015260800190565b6000825161138081846020870161113b565b9190910192915050565b600181811c9082168061139e57607f821691505b6020821081036113be57634e487b7160e01b600052602260045260246000fd5b50919050565b601f82111561140e57600081815260208120601f850160051c810160208610156113eb5750805b601f850160051c820191505b8181101561140a578281556001016113f7565b5050505b505050565b81516001600160401b0381111561142c5761142c610e06565b6114408161143a845461138a565b846113c4565b602080601f831160018114611475576000841561145d5750858301515b600019600386901b1c1916600185901b17855561140a565b600085815260208120601f198616915b828110156114a457888601518255948401946001909101908401611485565b50858210156114c25787850151600019600388901b60f8161c191681555b5050505050600190811b01905550565b600061ffff8083168181036114e9576114e961124e565b6001019392505050565b634e487b7160e01b600052603260045260246000fd5b6001600160801b038281168282160390808211156115295761152961124e565b5092915050565b60006020828403121561154257600080fd5b5051919050565b6001600160801b0381811683821602808216919082811461156c5761156c61124e565b505092915050565b60006001600160801b038381168061159c57634e487b7160e01b600052601260045260246000fd5b9216919091049291505056fea2646970667358221220017779ee93e7b2a9b661abcb6c93a746dc8fe25662af54d9eb8d2814b19327c164736f6c63430008120033",
  "immutableReferences": {},
  "source": "// SPDX-License-Identifier: UNLICENSED\r\npragma solidity 0.8.18;\r\nimport \"./IDAO.sol\";\r\n\r\ncontract exchangeRateContract {\r\n    IDAO dao;\r\n\r\n    uint16 public instrumentsCount;\r\n\r\n    uint256 constant public updOnePriceGasCost = 84928;\r\n    uint256 constant public updSeveralPricesCost = 87742;\r\n    uint256 constant public updAdditionalPrice = 22700;\r\n\r\n    address public author;\r\n    address public beneficiary;\r\n    address public updater;\r\n\r\n    bool public finalized;\r\n\r\n    struct Instrument {\r\n        uint128 price;\r\n        uint128 timeStamp;\r\n    }\r\n\r\n    struct InstrumentDescription {\r\n        uint16 id;\r\n        string name;\r\n        uint8 decimals;\r\n    }\r\n\r\n    mapping(uint16 => Instrument) public instruments;\r\n    mapping(string => InstrumentDescription) public dictionary;\r\n\r\n    constructor(address _INTDAOaddress) payable{\r\n        dao = IDAO(_INTDAOaddress);\r\n        dao.setAddressOnce(\"oracle\", address(this));\r\n        author = msg.sender;\r\n        updater = msg.sender;\r\n        beneficiary = msg.sender;\r\n    }\r\n\r\n    modifier onlyAuthor{\r\n        require(msg.sender == author, \"This function is for author only\");\r\n        _;\r\n    }\r\n\r\n    modifier onlyUpdater{\r\n        require(msg.sender == updater, \"This function is for updater only\");\r\n        _;\r\n    }\r\n\r\n    event priceUpdateRequest (uint16 id);\r\n    event severalPricesUpdateRequest (uint16[] ids);\r\n    event priceUpdated (uint16 id);\r\n    event profit (uint256 profit);\r\n    event highVolatility(uint16 id);\r\n\r\n    function changeBeneficiaryAddress(address payable newAddress) external onlyAuthor{\r\n        require(!finalized, \"finalized\");\r\n        beneficiary = newAddress;\r\n    }\r\n\r\n    function finalize() external  onlyAuthor{\r\n        require(!finalized, \"finalized\");\r\n        finalized = true;\r\n    }\r\n\r\n    function changeUpdaterAddress (address payable newAddress) external onlyAuthor{\r\n        updater = newAddress;\r\n    }\r\n\r\n    function requestPriceUpdate(uint16 id) external payable {\r\n        require (msg.value>=2*updOnePriceGasCost*tx.gasprice, \"You need to pass more ether to request new price.\");\r\n        emit priceUpdateRequest(id);\r\n    }\r\n\r\n    function requestMultiplePricesUpdate(uint16[] memory ids) external payable {\r\n        require (msg.value>= 2 * (ids.length * updAdditionalPrice + updSeveralPricesCost) * tx.gasprice, \"You need to pass more ether to request new price.\");\r\n        emit severalPricesUpdateRequest(ids);\r\n    }\r\n\r\n    function updateSeveralPrices(uint16[] memory ids, uint128[] memory prices) external onlyUpdater{\r\n        uint length = ids.length;\r\n        require(length==prices.length, \"arrays length\");\r\n        for (uint16 i = 0; i < length;) {\r\n            updPrice(ids[i], prices[i]);\r\n            unchecked {\r\n                ++i;\r\n            }\r\n        }\r\n    }\r\n\r\n    function transferProfit() external onlyAuthor{\r\n        payable(beneficiary).transfer(address(this).balance);\r\n        emit profit(address(this).balance);\r\n    }\r\n\r\n    function updateSinglePrice(uint16 id, uint128 newPrice) external onlyUpdater{\r\n        updPrice (id, newPrice);\r\n    }\r\n\r\n    function updPrice(uint16 id, uint128 newPrice) internal {\r\n        instruments[id].timeStamp = uint128(block.timestamp);\r\n        uint128 prevPrice = instruments[id].price;\r\n        uint128 move;\r\n        if (prevPrice!=0){\r\n            if (prevPrice >= newPrice)\r\n                move = prevPrice - newPrice;\r\n            else\r\n                move = newPrice - prevPrice;\r\n            if ((move * 100) / prevPrice > dao.params(\"highVolatilityEventBarrierPercent\"))\r\n                emit highVolatility(id);\r\n        }\r\n        instruments[id].price = newPrice;\r\n        emit priceUpdated (id);\r\n    }\r\n\r\n    function addInstrument(string memory symbol, string memory name, uint8 decimals) external onlyUpdater returns (uint16 id){\r\n        InstrumentDescription storage newInstrumentDescription = dictionary[symbol];\r\n        require (bytes(newInstrumentDescription.name).length == 0, \"Symbol already exist, use updateInstrument\");\r\n        newInstrumentDescription.id = instrumentsCount++;\r\n        newInstrumentDescription.name = name;\r\n        newInstrumentDescription.decimals = decimals;\r\n        instruments[newInstrumentDescription.id].timeStamp = uint128(block.timestamp);\r\n        return newInstrumentDescription.id;\r\n    }\r\n\r\n    function updateInstrument(string memory symbol, string memory name, uint8 decimals) external onlyUpdater{\r\n        InstrumentDescription storage newInstrumentDescription = dictionary[symbol];\r\n        require(bytes(newInstrumentDescription.name).length != 0,\r\n            \"Symbol doesn't exist, use addInstrument\");\r\n        newInstrumentDescription.name = name;\r\n        newInstrumentDescription.decimals = decimals;\r\n    }\r\n\r\n    function getPrice(string memory symbol) external view returns (uint128) {\r\n        return instruments[dictionary[symbol].id].price;\r\n    }\r\n\r\n    function timeStamp(string memory symbol) external view returns (uint128) {\r\n        return instruments[dictionary[symbol].id].timeStamp;\r\n    }\r\n\r\n    function getDecimals(string memory symbol) external view returns (uint8) {\r\n        return dictionary[symbol].decimals;\r\n    }\r\n}\r\n",
  "sourcePath": "C:\\Users\\d.nagornykh\\YandexDisk\\\\ICO\\CryptoFiat\\repo\\contracts\\exchangeRateContract.sol",
  "compiler": {
    "name": "solc",
    "version": "0.8.18+commit.87f61d96.Emscripten.clang"
  },
  "schemaVersion": "3.4.14",
  "updatedAt": "2023-09-25T07:49:49.418Z",
  "networkType": "ethereum",
  "devdoc": {
    "kind": "dev",
    "methods": {},
    "version": 1
  },
  "userdoc": {
    "kind": "user",
    "methods": {},
    "version": 1
  }
}