{
  "contractName": "exchangeRateContract",
  "abi": [
    {
      "inputs": [
        {
          "internalType": "address payable",
          "name": "_INTDAOaddress",
          "type": "address"
        }
      ],
      "stateMutability": "payable",
      "type": "constructor",
      "payable": true
    },
    {
      "anonymous": false,
      "inputs": [
        {
          "indexed": false,
          "internalType": "uint256",
          "name": "id",
          "type": "uint256"
        }
      ],
      "name": "highVolatility",
      "type": "event"
    },
    {
      "anonymous": false,
      "inputs": [
        {
          "indexed": false,
          "internalType": "uint256",
          "name": "id",
          "type": "uint256"
        }
      ],
      "name": "priceUpdateRequest",
      "type": "event"
    },
    {
      "anonymous": false,
      "inputs": [
        {
          "indexed": false,
          "internalType": "uint256",
          "name": "id",
          "type": "uint256"
        }
      ],
      "name": "priceUpdated",
      "type": "event"
    },
    {
      "anonymous": false,
      "inputs": [
        {
          "indexed": false,
          "internalType": "uint256",
          "name": "profit",
          "type": "uint256"
        }
      ],
      "name": "profit",
      "type": "event"
    },
    {
      "anonymous": false,
      "inputs": [
        {
          "indexed": false,
          "internalType": "uint256[]",
          "name": "ids",
          "type": "uint256[]"
        }
      ],
      "name": "severalPricesUpdateRequest",
      "type": "event"
    },
    {
      "inputs": [],
      "name": "author",
      "outputs": [
        {
          "internalType": "address payable",
          "name": "",
          "type": "address"
        }
      ],
      "stateMutability": "view",
      "type": "function",
      "constant": true
    },
    {
      "inputs": [],
      "name": "beneficiary",
      "outputs": [
        {
          "internalType": "address payable",
          "name": "",
          "type": "address"
        }
      ],
      "stateMutability": "view",
      "type": "function",
      "constant": true
    },
    {
      "inputs": [
        {
          "internalType": "string",
          "name": "",
          "type": "string"
        }
      ],
      "name": "dictionary",
      "outputs": [
        {
          "internalType": "uint256",
          "name": "id",
          "type": "uint256"
        },
        {
          "internalType": "string",
          "name": "name",
          "type": "string"
        },
        {
          "internalType": "uint256",
          "name": "decimals",
          "type": "uint256"
        }
      ],
      "stateMutability": "view",
      "type": "function",
      "constant": true
    },
    {
      "inputs": [],
      "name": "finalized",
      "outputs": [
        {
          "internalType": "bool",
          "name": "",
          "type": "bool"
        }
      ],
      "stateMutability": "view",
      "type": "function",
      "constant": true
    },
    {
      "inputs": [
        {
          "internalType": "uint256",
          "name": "",
          "type": "uint256"
        }
      ],
      "name": "instruments",
      "outputs": [
        {
          "internalType": "uint256",
          "name": "price",
          "type": "uint256"
        },
        {
          "internalType": "uint256",
          "name": "timeStamp",
          "type": "uint256"
        }
      ],
      "stateMutability": "view",
      "type": "function",
      "constant": true
    },
    {
      "inputs": [],
      "name": "instrumentsCount",
      "outputs": [
        {
          "internalType": "uint256",
          "name": "",
          "type": "uint256"
        }
      ],
      "stateMutability": "view",
      "type": "function",
      "constant": true
    },
    {
      "inputs": [],
      "name": "subscriptionsCount",
      "outputs": [
        {
          "internalType": "uint256",
          "name": "",
          "type": "uint256"
        }
      ],
      "stateMutability": "view",
      "type": "function",
      "constant": true
    },
    {
      "inputs": [],
      "name": "updAdditionalPrice",
      "outputs": [
        {
          "internalType": "uint256",
          "name": "",
          "type": "uint256"
        }
      ],
      "stateMutability": "view",
      "type": "function",
      "constant": true
    },
    {
      "inputs": [],
      "name": "updOnePriceGasCost",
      "outputs": [
        {
          "internalType": "uint256",
          "name": "",
          "type": "uint256"
        }
      ],
      "stateMutability": "view",
      "type": "function",
      "constant": true
    },
    {
      "inputs": [],
      "name": "updSeveralPricesCost",
      "outputs": [
        {
          "internalType": "uint256",
          "name": "",
          "type": "uint256"
        }
      ],
      "stateMutability": "view",
      "type": "function",
      "constant": true
    },
    {
      "inputs": [],
      "name": "updater",
      "outputs": [
        {
          "internalType": "address payable",
          "name": "",
          "type": "address"
        }
      ],
      "stateMutability": "view",
      "type": "function",
      "constant": true
    },
    {
      "inputs": [
        {
          "internalType": "address payable",
          "name": "newAddress",
          "type": "address"
        }
      ],
      "name": "changeBeneficiaryAddress",
      "outputs": [],
      "stateMutability": "nonpayable",
      "type": "function"
    },
    {
      "inputs": [],
      "name": "finalize",
      "outputs": [],
      "stateMutability": "nonpayable",
      "type": "function"
    },
    {
      "inputs": [
        {
          "internalType": "address payable",
          "name": "newAddress",
          "type": "address"
        }
      ],
      "name": "changeUpdaterAddress",
      "outputs": [],
      "stateMutability": "nonpayable",
      "type": "function"
    },
    {
      "inputs": [
        {
          "internalType": "uint256",
          "name": "id",
          "type": "uint256"
        }
      ],
      "name": "requestPriceUpdate",
      "outputs": [],
      "stateMutability": "payable",
      "type": "function",
      "payable": true
    },
    {
      "inputs": [
        {
          "internalType": "uint256[]",
          "name": "ids",
          "type": "uint256[]"
        }
      ],
      "name": "requestMultiplePricesUpdate",
      "outputs": [],
      "stateMutability": "payable",
      "type": "function",
      "payable": true
    },
    {
      "inputs": [
        {
          "internalType": "uint256[]",
          "name": "ids",
          "type": "uint256[]"
        },
        {
          "internalType": "uint256[]",
          "name": "prices",
          "type": "uint256[]"
        }
      ],
      "name": "updateSeveralPrices",
      "outputs": [],
      "stateMutability": "nonpayable",
      "type": "function"
    },
    {
      "inputs": [],
      "name": "transferProfit",
      "outputs": [],
      "stateMutability": "nonpayable",
      "type": "function"
    },
    {
      "inputs": [
        {
          "internalType": "uint256",
          "name": "id",
          "type": "uint256"
        },
        {
          "internalType": "uint256",
          "name": "newPrice",
          "type": "uint256"
        }
      ],
      "name": "updateSinglePrice",
      "outputs": [],
      "stateMutability": "nonpayable",
      "type": "function"
    },
    {
      "inputs": [
        {
          "internalType": "string",
          "name": "symbol",
          "type": "string"
        },
        {
          "internalType": "string",
          "name": "name",
          "type": "string"
        },
        {
          "internalType": "uint256",
          "name": "decimals",
          "type": "uint256"
        }
      ],
      "name": "addInstrument",
      "outputs": [
        {
          "internalType": "uint256",
          "name": "id",
          "type": "uint256"
        }
      ],
      "stateMutability": "nonpayable",
      "type": "function"
    },
    {
      "inputs": [
        {
          "internalType": "string",
          "name": "symbol",
          "type": "string"
        },
        {
          "internalType": "string",
          "name": "name",
          "type": "string"
        },
        {
          "internalType": "uint256",
          "name": "decimals",
          "type": "uint256"
        }
      ],
      "name": "updateInstrument",
      "outputs": [],
      "stateMutability": "nonpayable",
      "type": "function"
    },
    {
      "inputs": [
        {
          "internalType": "string",
          "name": "symbol",
          "type": "string"
        }
      ],
      "name": "getPrice",
      "outputs": [
        {
          "internalType": "uint256",
          "name": "",
          "type": "uint256"
        }
      ],
      "stateMutability": "view",
      "type": "function",
      "constant": true
    },
    {
      "inputs": [
        {
          "internalType": "string",
          "name": "symbol",
          "type": "string"
        }
      ],
      "name": "timeStamp",
      "outputs": [
        {
          "internalType": "uint256",
          "name": "",
          "type": "uint256"
        }
      ],
      "stateMutability": "view",
      "type": "function",
      "constant": true
    },
    {
      "inputs": [
        {
          "internalType": "string",
          "name": "symbol",
          "type": "string"
        }
      ],
      "name": "getDecimals",
      "outputs": [
        {
          "internalType": "uint256",
          "name": "",
          "type": "uint256"
        }
      ],
      "stateMutability": "view",
      "type": "function",
      "constant": true
    }
  ],
  "bytecode": "0x60806040526040516200235e3803806200235e83398181016040528101906200002991906200022c565b806000806101000a81548173ffffffffffffffffffffffffffffffffffffffff021916908373ffffffffffffffffffffffffffffffffffffffff16021790555060008054906101000a900473ffffffffffffffffffffffffffffffffffffffff1673ffffffffffffffffffffffffffffffffffffffff16632abdf04e306040518263ffffffff1660e01b8152600401620000c49190620002d0565b600060405180830381600087803b158015620000df57600080fd5b505af1158015620000f4573d6000803e3d6000fd5b5050505033600360006101000a81548173ffffffffffffffffffffffffffffffffffffffff021916908373ffffffffffffffffffffffffffffffffffffffff16021790555033600560006101000a81548173ffffffffffffffffffffffffffffffffffffffff021916908373ffffffffffffffffffffffffffffffffffffffff16021790555033600460006101000a81548173ffffffffffffffffffffffffffffffffffffffff021916908373ffffffffffffffffffffffffffffffffffffffff1602179055505062000302565b600080fd5b600073ffffffffffffffffffffffffffffffffffffffff82169050919050565b6000620001f482620001c7565b9050919050565b6200020681620001e7565b81146200021257600080fd5b50565b6000815190506200022681620001fb565b92915050565b600060208284031215620002455762000244620001c2565b5b6000620002558482850162000215565b91505092915050565b600082825260208201905092915050565b7f6f7261636c650000000000000000000000000000000000000000000000000000600082015250565b6000620002a76006836200025e565b9150620002b4826200026f565b602082019050919050565b620002ca81620001e7565b82525050565b60006040820190508181036000830152620002eb8162000298565b9050620002fc6020830184620002bf565b92915050565b61204c80620003126000396000f3fe60806040526004361061014b5760003560e01c80639f923923116100b6578063afd0fd1d1161006f578063afd0fd1d14610474578063b3f05b97146104b1578063b5c105f3146104dc578063df034cd014610507578063e25a9ed114610532578063ee53e6a31461055b5761014b565b80639f92392314610350578063a00b54b414610379578063a6c3e6b9146103a2578063ab16ef44146103cd578063ab808dbe1461040c578063ac05cf8d146104375761014b565b80634bb278f3116101085780634bb278f31461024d578063506e4d9a14610264578063524f3889146102a1578063746d4b47146102de5780637a7a3206146102fa57806388112fcb146103255761014b565b806312d0e65a146101505780631a83c4691461017957806322bbad0b146101a257806338af3eed146101e05780633ef439ff1461020b57806345c9c1d114610236575b600080fd5b34801561015c57600080fd5b50610177600480360381019061017291906113b5565b610577565b005b34801561018557600080fd5b506101a0600480360381019061019b91906113b5565b610660565b005b3480156101ae57600080fd5b506101c960048036038101906101c49190611418565b610734565b6040516101d7929190611454565b60405180910390f35b3480156101ec57600080fd5b506101f5610758565b604051610202919061148c565b60405180910390f35b34801561021757600080fd5b5061022061077e565b60405161022d91906114a7565b60405180910390f35b34801561024257600080fd5b5061024b610784565b005b34801561025957600080fd5b506102626108b6565b005b34801561027057600080fd5b5061028b60048036038101906102869190611608565b610978565b60405161029891906114a7565b60405180910390f35b3480156102ad57600080fd5b506102c860048036038101906102c39190611608565b6109b9565b6040516102d591906114a7565b60405180910390f35b6102f860048036038101906102f39190611719565b6109fa565b005b34801561030657600080fd5b5061030f610aaa565b60405161031c91906114a7565b60405180910390f35b34801561033157600080fd5b5061033a610ab1565b60405161034791906114a7565b60405180910390f35b34801561035c57600080fd5b5061037760048036038101906103729190611762565b610ab7565b005b34801561038557600080fd5b506103a0600480360381019061039b91906117da565b610ba9565b005b3480156103ae57600080fd5b506103b7610c47565b6040516103c4919061148c565b60405180910390f35b3480156103d957600080fd5b506103f460048036038101906103ef9190611608565b610c6d565b604051610403939291906118a2565b60405180910390f35b34801561041857600080fd5b50610421610d35565b60405161042e91906114a7565b60405180910390f35b34801561044357600080fd5b5061045e600480360381019061045991906118e0565b610d3c565b60405161046b91906114a7565b60405180910390f35b34801561048057600080fd5b5061049b60048036038101906104969190611608565b610eff565b6040516104a891906114a7565b60405180910390f35b3480156104bd57600080fd5b506104c6610f2a565b6040516104d39190611986565b60405180910390f35b3480156104e857600080fd5b506104f1610f3d565b6040516104fe91906114a7565b60405180910390f35b34801561051357600080fd5b5061051c610f43565b604051610529919061148c565b60405180910390f35b34801561053e57600080fd5b50610559600480360381019061055491906118e0565b610f69565b005b61057560048036038101906105709190611418565b61105a565b005b600360009054906101000a900473ffffffffffffffffffffffffffffffffffffffff1673ffffffffffffffffffffffffffffffffffffffff163373ffffffffffffffffffffffffffffffffffffffff1614610607576040517f08c379a00000000000000000000000000000000000000000000000000000000081526004016105fe906119ed565b60405180910390fd5b600560149054906101000a900460ff1661065d5780600460006101000a81548173ffffffffffffffffffffffffffffffffffffffff021916908373ffffffffffffffffffffffffffffffffffffffff1602179055505b50565b600360009054906101000a900473ffffffffffffffffffffffffffffffffffffffff1673ffffffffffffffffffffffffffffffffffffffff163373ffffffffffffffffffffffffffffffffffffffff16146106f0576040517f08c379a00000000000000000000000000000000000000000000000000000000081526004016106e7906119ed565b60405180910390fd5b80600560006101000a81548173ffffffffffffffffffffffffffffffffffffffff021916908373ffffffffffffffffffffffffffffffffffffffff16021790555050565b60066020528060005260406000206000915090508060000154908060010154905082565b600460009054906101000a900473ffffffffffffffffffffffffffffffffffffffff1681565b60025481565b600360009054906101000a900473ffffffffffffffffffffffffffffffffffffffff1673ffffffffffffffffffffffffffffffffffffffff163373ffffffffffffffffffffffffffffffffffffffff1614610814576040517f08c379a000000000000000000000000000000000000000000000000000000000815260040161080b906119ed565b60405180910390fd5b600460009054906101000a900473ffffffffffffffffffffffffffffffffffffffff1673ffffffffffffffffffffffffffffffffffffffff166108fc479081150290604051600060405180830381858888f1935050505015801561087c573d6000803e3d6000fd5b507f1241ee7de620e23a422383ea2edb030a4d229d4e462e064085c36e5066b4bee1476040516108ac91906114a7565b60405180910390a1565b600360009054906101000a900473ffffffffffffffffffffffffffffffffffffffff1673ffffffffffffffffffffffffffffffffffffffff163373ffffffffffffffffffffffffffffffffffffffff1614610946576040517f08c379a000000000000000000000000000000000000000000000000000000000815260040161093d906119ed565b60405180910390fd5b600560149054906101000a900460ff16610976576001600560146101000a81548160ff0219169083151502179055505b565b60006006600060078460405161098e9190611a49565b9081526020016040518091039020600001548152602001908152602001600020600101549050919050565b6000600660006007846040516109cf9190611a49565b9081526020016040518091039020600001548152602001908152602001600020600001549050919050565b3a620156be6158ac8351610a0e9190611a8f565b610a189190611ae9565b6002610a249190611a8f565b610a2e9190611a8f565b341015610a70576040517f08c379a0000000000000000000000000000000000000000000000000000000008152600401610a6790611bb1565b60405180910390fd5b7f58af8d856ac490ff1114cbaf134ef670a4d9b423035b40ff141ec7c18162025b81604051610a9f9190611c8f565b60405180910390a150565b62014bc081565b60015481565b600560009054906101000a900473ffffffffffffffffffffffffffffffffffffffff1673ffffffffffffffffffffffffffffffffffffffff163373ffffffffffffffffffffffffffffffffffffffff1614610b47576040517f08c379a0000000000000000000000000000000000000000000000000000000008152600401610b3e90611d23565b60405180910390fd5b60005b8251811015610ba457610b91838281518110610b6957610b68611d43565b5b6020026020010151838381518110610b8457610b83611d43565b5b60200260200101516110f1565b8080610b9c90611d72565b915050610b4a565b505050565b600560009054906101000a900473ffffffffffffffffffffffffffffffffffffffff1673ffffffffffffffffffffffffffffffffffffffff163373ffffffffffffffffffffffffffffffffffffffff1614610c39576040517f08c379a0000000000000000000000000000000000000000000000000000000008152600401610c3090611d23565b60405180910390fd5b610c4382826110f1565b5050565b600360009054906101000a900473ffffffffffffffffffffffffffffffffffffffff1681565b600781805160208101820180518482526020830160208501208183528095505050505050600091509050806000015490806001018054610cac90611dea565b80601f0160208091040260200160405190810160405280929190818152602001828054610cd890611dea565b8015610d255780601f10610cfa57610100808354040283529160200191610d25565b820191906000526020600020905b815481529060010190602001808311610d0857829003601f168201915b5050505050908060020154905083565b620156be81565b6000600560009054906101000a900473ffffffffffffffffffffffffffffffffffffffff1673ffffffffffffffffffffffffffffffffffffffff163373ffffffffffffffffffffffffffffffffffffffff1614610dce576040517f08c379a0000000000000000000000000000000000000000000000000000000008152600401610dc590611d23565b60405180910390fd5b6000600785604051610de09190611a49565b90815260200160405180910390206001018054610dfc90611dea565b905014610e3e576040517f08c379a0000000000000000000000000000000000000000000000000000000008152600401610e3590611e8e565b60405180910390fd5b600254905080600785604051610e549190611a49565b90815260200160405180910390206000018190555082600785604051610e7a9190611a49565b90815260200160405180910390206001019080519060200190610e9e9291906112a0565b5081600785604051610eb09190611a49565b90815260200160405180910390206002018190555042600660008381526020019081526020016000206001018190555060026000815480929190610ef390611d72565b91905055509392505050565b6000600782604051610f119190611a49565b9081526020016040518091039020600201549050919050565b600560149054906101000a900460ff1681565b6158ac81565b600560009054906101000a900473ffffffffffffffffffffffffffffffffffffffff1681565b600560009054906101000a900473ffffffffffffffffffffffffffffffffffffffff1673ffffffffffffffffffffffffffffffffffffffff163373ffffffffffffffffffffffffffffffffffffffff1614610ff9576040517f08c379a0000000000000000000000000000000000000000000000000000000008152600401610ff090611d23565b60405180910390fd5b8160078460405161100a9190611a49565b9081526020016040518091039020600101908051906020019061102e9291906112a0565b50806007846040516110409190611a49565b908152602001604051809103902060020181905550505050565b3a62014bc0600261106b9190611a8f565b6110759190611a8f565b3410156110b7576040517f08c379a00000000000000000000000000000000000000000000000000000000081526004016110ae90611bb1565b60405180910390fd5b7f4cde581ee30e43ea6bf5e51258bea0607e593191ae8c9952433596e7c40893ed816040516110e691906114a7565b60405180910390a150565b42600660008481526020019081526020016000206001018190555060006006600084815260200190815260200160002060000154905060008082146112485782821061114a5782826111439190611eae565b9050611159565b81836111569190611eae565b90505b60008054906101000a900473ffffffffffffffffffffffffffffffffffffffff1673ffffffffffffffffffffffffffffffffffffffff1663145f822b6040518163ffffffff1660e01b81526004016111b090611f54565b602060405180830381865afa1580156111cd573d6000803e3d6000fd5b505050506040513d601f19601f820116820180604052508101906111f19190611f89565b826064836111ff9190611a8f565b6112099190611fe5565b1115611247577f3898de23057e5cd1413babdd70a2fc05e71c59a5e788d210641acf74b39637dd8460405161123e91906114a7565b60405180910390a15b5b8260066000868152602001908152602001600020600001819055507fba183368bdfb67a6c0e60b2a8666381c33610509a956ac629eaae3874e0063e58460405161129291906114a7565b60405180910390a150505050565b8280546112ac90611dea565b90600052602060002090601f0160209004810192826112ce5760008555611315565b82601f106112e757805160ff1916838001178555611315565b82800160010185558215611315579182015b828111156113145782518255916020019190600101906112f9565b5b5090506113229190611326565b5090565b5b8082111561133f576000816000905550600101611327565b5090565b6000604051905090565b600080fd5b600080fd5b600073ffffffffffffffffffffffffffffffffffffffff82169050919050565b600061138282611357565b9050919050565b61139281611377565b811461139d57600080fd5b50565b6000813590506113af81611389565b92915050565b6000602082840312156113cb576113ca61134d565b5b60006113d9848285016113a0565b91505092915050565b6000819050919050565b6113f5816113e2565b811461140057600080fd5b50565b600081359050611412816113ec565b92915050565b60006020828403121561142e5761142d61134d565b5b600061143c84828501611403565b91505092915050565b61144e816113e2565b82525050565b60006040820190506114696000830185611445565b6114766020830184611445565b9392505050565b61148681611377565b82525050565b60006020820190506114a1600083018461147d565b92915050565b60006020820190506114bc6000830184611445565b92915050565b600080fd5b600080fd5b6000601f19601f8301169050919050565b7f4e487b7100000000000000000000000000000000000000000000000000000000600052604160045260246000fd5b611515826114cc565b810181811067ffffffffffffffff82111715611534576115336114dd565b5b80604052505050565b6000611547611343565b9050611553828261150c565b919050565b600067ffffffffffffffff821115611573576115726114dd565b5b61157c826114cc565b9050602081019050919050565b82818337600083830152505050565b60006115ab6115a684611558565b61153d565b9050828152602081018484840111156115c7576115c66114c7565b5b6115d2848285611589565b509392505050565b600082601f8301126115ef576115ee6114c2565b5b81356115ff848260208601611598565b91505092915050565b60006020828403121561161e5761161d61134d565b5b600082013567ffffffffffffffff81111561163c5761163b611352565b5b611648848285016115da565b91505092915050565b600067ffffffffffffffff82111561166c5761166b6114dd565b5b602082029050602081019050919050565b600080fd5b600061169561169084611651565b61153d565b905080838252602082019050602084028301858111156116b8576116b761167d565b5b835b818110156116e157806116cd8882611403565b8452602084019350506020810190506116ba565b5050509392505050565b600082601f830112611700576116ff6114c2565b5b8135611710848260208601611682565b91505092915050565b60006020828403121561172f5761172e61134d565b5b600082013567ffffffffffffffff81111561174d5761174c611352565b5b611759848285016116eb565b91505092915050565b600080604083850312156117795761177861134d565b5b600083013567ffffffffffffffff81111561179757611796611352565b5b6117a3858286016116eb565b925050602083013567ffffffffffffffff8111156117c4576117c3611352565b5b6117d0858286016116eb565b9150509250929050565b600080604083850312156117f1576117f061134d565b5b60006117ff85828601611403565b925050602061181085828601611403565b9150509250929050565b600081519050919050565b600082825260208201905092915050565b60005b83811015611854578082015181840152602081019050611839565b83811115611863576000848401525b50505050565b60006118748261181a565b61187e8185611825565b935061188e818560208601611836565b611897816114cc565b840191505092915050565b60006060820190506118b76000830186611445565b81810360208301526118c98185611869565b90506118d86040830184611445565b949350505050565b6000806000606084860312156118f9576118f861134d565b5b600084013567ffffffffffffffff81111561191757611916611352565b5b611923868287016115da565b935050602084013567ffffffffffffffff81111561194457611943611352565b5b611950868287016115da565b925050604061196186828701611403565b9150509250925092565b60008115159050919050565b6119808161196b565b82525050565b600060208201905061199b6000830184611977565b92915050565b7f546869732066756e6374696f6e20697320666f7220617574686f72206f6e6c79600082015250565b60006119d7602083611825565b91506119e2826119a1565b602082019050919050565b60006020820190508181036000830152611a06816119ca565b9050919050565b600081905092915050565b6000611a238261181a565b611a2d8185611a0d565b9350611a3d818560208601611836565b80840191505092915050565b6000611a558284611a18565b915081905092915050565b7f4e487b7100000000000000000000000000000000000000000000000000000000600052601160045260246000fd5b6000611a9a826113e2565b9150611aa5836113e2565b9250817fffffffffffffffffffffffffffffffffffffffffffffffffffffffffffffffff0483118215151615611ade57611add611a60565b5b828202905092915050565b6000611af4826113e2565b9150611aff836113e2565b9250827fffffffffffffffffffffffffffffffffffffffffffffffffffffffffffffffff03821115611b3457611b33611a60565b5b828201905092915050565b7f596f75206e65656420746f2070617373206d6f726520657468657220746f207260008201527f657175657374206e65772070726963652e000000000000000000000000000000602082015250565b6000611b9b603183611825565b9150611ba682611b3f565b604082019050919050565b60006020820190508181036000830152611bca81611b8e565b9050919050565b600081519050919050565b600082825260208201905092915050565b6000819050602082019050919050565b611c06816113e2565b82525050565b6000611c188383611bfd565b60208301905092915050565b6000602082019050919050565b6000611c3c82611bd1565b611c468185611bdc565b9350611c5183611bed565b8060005b83811015611c82578151611c698882611c0c565b9750611c7483611c24565b925050600181019050611c55565b5085935050505092915050565b60006020820190508181036000830152611ca98184611c31565b905092915050565b7f546869732066756e6374696f6e20697320666f722075706461746572206f6e6c60008201527f7900000000000000000000000000000000000000000000000000000000000000602082015250565b6000611d0d602183611825565b9150611d1882611cb1565b604082019050919050565b60006020820190508181036000830152611d3c81611d00565b9050919050565b7f4e487b7100000000000000000000000000000000000000000000000000000000600052603260045260246000fd5b6000611d7d826113e2565b91507fffffffffffffffffffffffffffffffffffffffffffffffffffffffffffffffff821415611db057611daf611a60565b5b600182019050919050565b7f4e487b7100000000000000000000000000000000000000000000000000000000600052602260045260246000fd5b60006002820490506001821680611e0257607f821691505b60208210811415611e1657611e15611dbb565b5b50919050565b7f53796d626f6c20616c72656164792065786973742c207573652075706461746560008201527f496e737472756d656e7400000000000000000000000000000000000000000000602082015250565b6000611e78602a83611825565b9150611e8382611e1c565b604082019050919050565b60006020820190508181036000830152611ea781611e6b565b9050919050565b6000611eb9826113e2565b9150611ec4836113e2565b925082821015611ed757611ed6611a60565b5b828203905092915050565b7f68696768566f6c6174696c6974794576656e744261727269657250657263656e60008201527f7400000000000000000000000000000000000000000000000000000000000000602082015250565b6000611f3e602183611825565b9150611f4982611ee2565b604082019050919050565b60006020820190508181036000830152611f6d81611f31565b9050919050565b600081519050611f83816113ec565b92915050565b600060208284031215611f9f57611f9e61134d565b5b6000611fad84828501611f74565b91505092915050565b7f4e487b7100000000000000000000000000000000000000000000000000000000600052601260045260246000fd5b6000611ff0826113e2565b9150611ffb836113e2565b92508261200b5761200a611fb6565b5b82820490509291505056fea2646970667358221220fd521d03c57dcdb7d50cbc2ed1957104e8690aa09101e7455f27cf1eb0aff8af64736f6c634300080a0033",
  "immutableReferences": {},
  "source": "// SPDX-License-Identifier: UNLICENSED\r\npragma solidity >=0.4.22 <0.9.0;\r\n\r\n    struct Instrument {\r\n        uint256 price;\r\n        uint256 timeStamp;\r\n    }\r\n\r\n    struct instrumentDescription {\r\n        uint256 id;\r\n        string name;\r\n        uint256 decimals;\r\n    }\r\nimport \"./INTDAO.sol\";\r\n\r\ncontract exchangeRateContract {\r\n    INTDAO dao;\r\n\r\n    constructor(address payable _INTDAOaddress) payable{\r\n        dao = INTDAO(_INTDAOaddress);\r\n        dao.setAddressOnce(\"oracle\", payable(address(this)));\r\n        author = payable(msg.sender);\r\n        updater = payable(msg.sender);\r\n        beneficiary = payable(msg.sender);\r\n    }\r\n\r\n    uint256 public subscriptionsCount;\r\n    uint256 public instrumentsCount;\r\n\r\n    uint256 constant public updOnePriceGasCost = 84928;\r\n    uint256 constant public updSeveralPricesCost = 87742;\r\n    uint256 constant public updAdditionalPrice = 22700;\r\n\r\n    address payable public author;\r\n    address payable public beneficiary;\r\n    address payable public updater;\r\n\r\n    bool public finalized;\r\n\r\n    mapping(uint256 => Instrument) public instruments;\r\n    mapping(string => instrumentDescription) public dictionary;\r\n\r\n    modifier onlyAuthor{\r\n        require(msg.sender == author, \"This function is for author only\");\r\n        _;\r\n    }\r\n\r\n    modifier onlyUpdater{\r\n        require(msg.sender == updater, \"This function is for updater only\");\r\n        _;\r\n    }\r\n\r\n    event priceUpdateRequest (uint256 id);\r\n    event severalPricesUpdateRequest (uint256[] ids);\r\n    event priceUpdated (uint256 id);\r\n    event profit (uint256 profit);\r\n    event highVolatility(uint256 id);\r\n\r\n    function changeBeneficiaryAddress(address payable newAddress) public onlyAuthor{\r\n        if (!finalized)\r\n            beneficiary = newAddress;\r\n    }\r\n\r\n    function finalize() public onlyAuthor{\r\n        if (!finalized)\r\n            finalized = true;\r\n    }\r\n\r\n    function changeUpdaterAddress (address payable newAddress) public onlyAuthor{\r\n        updater = newAddress;\r\n    }\r\n\r\n    function requestPriceUpdate(uint256 id) public payable {\r\n        require (msg.value>=2*updOnePriceGasCost*tx.gasprice, \"You need to pass more ether to request new price.\");\r\n        emit priceUpdateRequest(id);\r\n    }\r\n\r\n    function requestMultiplePricesUpdate(uint256[] memory ids) public payable {\r\n        require (msg.value>= 2 * (ids.length * updAdditionalPrice + updSeveralPricesCost) * tx.gasprice, \"You need to pass more ether to request new price.\");\r\n        emit severalPricesUpdateRequest(ids);\r\n    }\r\n\r\n    function updateSeveralPrices(uint256[] memory ids, uint256[] memory prices) public onlyUpdater{\r\n        for (uint i=0; i<ids.length; i++)\r\n            updPrice (ids[i], prices[i]);\r\n    }\r\n\r\n    function transferProfit() public onlyAuthor{\r\n        beneficiary.transfer(address(this).balance);\r\n        emit profit(address(this).balance);\r\n    }\r\n\r\n    function updateSinglePrice(uint256 id, uint256 newPrice) public onlyUpdater{\r\n        updPrice (id, newPrice);\r\n    }\r\n\r\n    function updPrice(uint256 id, uint256 newPrice) internal {\r\n        instruments[id].timeStamp = block.timestamp;\r\n        uint256 prevPrice = instruments[id].price;\r\n        uint256 move = 0;\r\n        if (prevPrice!=0){\r\n            if (prevPrice >= newPrice)\r\n                move = prevPrice - newPrice;\r\n            else\r\n                move = newPrice - prevPrice;\r\n            if (move * 100 / prevPrice > dao.params('highVolatilityEventBarrierPercent'))\r\n                emit highVolatility(id);\r\n        }\r\n        instruments[id].price = newPrice;\r\n        emit priceUpdated (id);\r\n    }\r\n\r\n    function addInstrument(string memory symbol, string memory name, uint256 decimals) public onlyUpdater returns (uint256 id){\r\n        require (bytes (dictionary[symbol].name).length == 0, \"Symbol already exist, use updateInstrument\");\r\n        id = instrumentsCount;\r\n        dictionary[symbol].id = id;\r\n        dictionary[symbol].name = name;\r\n        dictionary[symbol].decimals = decimals;\r\n        instruments[id].timeStamp = block.timestamp;\r\n        instrumentsCount++;\r\n        return id;\r\n    }\r\n\r\n    function updateInstrument(string memory symbol, string memory name, uint decimals) public onlyUpdater{\r\n        dictionary[symbol].name = name;\r\n        dictionary[symbol].decimals = decimals;\r\n    }\r\n\r\n    function getPrice(string memory symbol) public view returns (uint256) {\r\n        return instruments[dictionary[symbol].id].price;\r\n    }\r\n\r\n    function timeStamp(string memory symbol) public view returns (uint256) {\r\n        return instruments[dictionary[symbol].id].timeStamp;\r\n    }\r\n\r\n    function getDecimals(string memory symbol) public view returns (uint256) {\r\n        return dictionary[symbol].decimals;\r\n    }\r\n}\r\n",
  "sourcePath": "C:\\Users\\d.nagornykh\\YandexDisk\\\\ICO\\CryptoFiat\\repo\\contracts\\exchangeRateContract.sol",
  "compiler": {
    "name": "solc",
    "version": "0.8.10+commit.fc410830.Emscripten.clang"
  },
  "schemaVersion": "3.4.11",
  "updatedAt": "2023-06-08T05:39:23.685Z",
  "networkType": "ethereum",
  "devdoc": {
    "kind": "dev",
    "methods": {},
    "version": 1
  },
  "userdoc": {
    "kind": "user",
    "methods": {},
    "version": 1
  }
}