{
  "contractName": "exchangeRateContract",
  "abi": [
    {
      "inputs": [
        {
          "internalType": "address payable",
          "name": "_INTDAOaddress",
          "type": "address"
        }
      ],
      "stateMutability": "payable",
      "type": "constructor"
    },
    {
      "anonymous": false,
      "inputs": [
        {
          "indexed": false,
          "internalType": "uint256",
          "name": "id",
          "type": "uint256"
        }
      ],
      "name": "highVolatility",
      "type": "event"
    },
    {
      "anonymous": false,
      "inputs": [
        {
          "indexed": false,
          "internalType": "uint256",
          "name": "id",
          "type": "uint256"
        }
      ],
      "name": "priceUpdateRequest",
      "type": "event"
    },
    {
      "anonymous": false,
      "inputs": [
        {
          "indexed": false,
          "internalType": "uint256",
          "name": "id",
          "type": "uint256"
        }
      ],
      "name": "priceUpdated",
      "type": "event"
    },
    {
      "anonymous": false,
      "inputs": [
        {
          "indexed": false,
          "internalType": "uint256",
          "name": "profit",
          "type": "uint256"
        }
      ],
      "name": "profit",
      "type": "event"
    },
    {
      "anonymous": false,
      "inputs": [
        {
          "indexed": false,
          "internalType": "uint256[]",
          "name": "ids",
          "type": "uint256[]"
        }
      ],
      "name": "severalPricesUpdateRequest",
      "type": "event"
    },
    {
      "inputs": [],
      "name": "author",
      "outputs": [
        {
          "internalType": "address payable",
          "name": "",
          "type": "address"
        }
      ],
      "stateMutability": "view",
      "type": "function"
    },
    {
      "inputs": [],
      "name": "beneficiary",
      "outputs": [
        {
          "internalType": "address payable",
          "name": "",
          "type": "address"
        }
      ],
      "stateMutability": "view",
      "type": "function"
    },
    {
      "inputs": [
        {
          "internalType": "string",
          "name": "",
          "type": "string"
        }
      ],
      "name": "dictionary",
      "outputs": [
        {
          "internalType": "uint256",
          "name": "id",
          "type": "uint256"
        },
        {
          "internalType": "string",
          "name": "name",
          "type": "string"
        },
        {
          "internalType": "uint8",
          "name": "decimals",
          "type": "uint8"
        }
      ],
      "stateMutability": "view",
      "type": "function"
    },
    {
      "inputs": [],
      "name": "finalized",
      "outputs": [
        {
          "internalType": "bool",
          "name": "",
          "type": "bool"
        }
      ],
      "stateMutability": "view",
      "type": "function"
    },
    {
      "inputs": [
        {
          "internalType": "uint256",
          "name": "",
          "type": "uint256"
        }
      ],
      "name": "instruments",
      "outputs": [
        {
          "internalType": "uint256",
          "name": "price",
          "type": "uint256"
        },
        {
          "internalType": "uint256",
          "name": "timeStamp",
          "type": "uint256"
        }
      ],
      "stateMutability": "view",
      "type": "function"
    },
    {
      "inputs": [],
      "name": "instrumentsCount",
      "outputs": [
        {
          "internalType": "uint256",
          "name": "",
          "type": "uint256"
        }
      ],
      "stateMutability": "view",
      "type": "function"
    },
    {
      "inputs": [],
      "name": "subscriptionsCount",
      "outputs": [
        {
          "internalType": "uint256",
          "name": "",
          "type": "uint256"
        }
      ],
      "stateMutability": "view",
      "type": "function"
    },
    {
      "inputs": [],
      "name": "updAdditionalPrice",
      "outputs": [
        {
          "internalType": "uint256",
          "name": "",
          "type": "uint256"
        }
      ],
      "stateMutability": "view",
      "type": "function"
    },
    {
      "inputs": [],
      "name": "updOnePriceGasCost",
      "outputs": [
        {
          "internalType": "uint256",
          "name": "",
          "type": "uint256"
        }
      ],
      "stateMutability": "view",
      "type": "function"
    },
    {
      "inputs": [],
      "name": "updSeveralPricesCost",
      "outputs": [
        {
          "internalType": "uint256",
          "name": "",
          "type": "uint256"
        }
      ],
      "stateMutability": "view",
      "type": "function"
    },
    {
      "inputs": [],
      "name": "updater",
      "outputs": [
        {
          "internalType": "address payable",
          "name": "",
          "type": "address"
        }
      ],
      "stateMutability": "view",
      "type": "function"
    },
    {
      "inputs": [
        {
          "internalType": "address payable",
          "name": "newAddress",
          "type": "address"
        }
      ],
      "name": "changeBeneficiaryAddress",
      "outputs": [],
      "stateMutability": "nonpayable",
      "type": "function"
    },
    {
      "inputs": [],
      "name": "finalize",
      "outputs": [],
      "stateMutability": "nonpayable",
      "type": "function"
    },
    {
      "inputs": [
        {
          "internalType": "address payable",
          "name": "newAddress",
          "type": "address"
        }
      ],
      "name": "changeUpdaterAddress",
      "outputs": [],
      "stateMutability": "nonpayable",
      "type": "function"
    },
    {
      "inputs": [
        {
          "internalType": "uint256",
          "name": "id",
          "type": "uint256"
        }
      ],
      "name": "requestPriceUpdate",
      "outputs": [],
      "stateMutability": "payable",
      "type": "function"
    },
    {
      "inputs": [
        {
          "internalType": "uint256[]",
          "name": "ids",
          "type": "uint256[]"
        }
      ],
      "name": "requestMultiplePricesUpdate",
      "outputs": [],
      "stateMutability": "payable",
      "type": "function"
    },
    {
      "inputs": [
        {
          "internalType": "uint256[]",
          "name": "ids",
          "type": "uint256[]"
        },
        {
          "internalType": "uint256[]",
          "name": "prices",
          "type": "uint256[]"
        }
      ],
      "name": "updateSeveralPrices",
      "outputs": [],
      "stateMutability": "nonpayable",
      "type": "function"
    },
    {
      "inputs": [],
      "name": "transferProfit",
      "outputs": [],
      "stateMutability": "nonpayable",
      "type": "function"
    },
    {
      "inputs": [
        {
          "internalType": "uint256",
          "name": "id",
          "type": "uint256"
        },
        {
          "internalType": "uint256",
          "name": "newPrice",
          "type": "uint256"
        }
      ],
      "name": "updateSinglePrice",
      "outputs": [],
      "stateMutability": "nonpayable",
      "type": "function"
    },
    {
      "inputs": [
        {
          "internalType": "string",
          "name": "symbol",
          "type": "string"
        },
        {
          "internalType": "string",
          "name": "name",
          "type": "string"
        },
        {
          "internalType": "uint8",
          "name": "decimals",
          "type": "uint8"
        }
      ],
      "name": "addInstrument",
      "outputs": [
        {
          "internalType": "uint256",
          "name": "id",
          "type": "uint256"
        }
      ],
      "stateMutability": "nonpayable",
      "type": "function"
    },
    {
      "inputs": [
        {
          "internalType": "string",
          "name": "symbol",
          "type": "string"
        },
        {
          "internalType": "string",
          "name": "name",
          "type": "string"
        },
        {
          "internalType": "uint8",
          "name": "decimals",
          "type": "uint8"
        }
      ],
      "name": "updateInstrument",
      "outputs": [],
      "stateMutability": "nonpayable",
      "type": "function"
    },
    {
      "inputs": [
        {
          "internalType": "string",
          "name": "symbol",
          "type": "string"
        }
      ],
      "name": "getPrice",
      "outputs": [
        {
          "internalType": "uint256",
          "name": "",
          "type": "uint256"
        }
      ],
      "stateMutability": "view",
      "type": "function"
    },
    {
      "inputs": [
        {
          "internalType": "string",
          "name": "symbol",
          "type": "string"
        }
      ],
      "name": "timeStamp",
      "outputs": [
        {
          "internalType": "uint256",
          "name": "",
          "type": "uint256"
        }
      ],
      "stateMutability": "view",
      "type": "function"
    },
    {
      "inputs": [
        {
          "internalType": "string",
          "name": "symbol",
          "type": "string"
        }
      ],
      "name": "getDecimals",
      "outputs": [
        {
          "internalType": "uint8",
          "name": "",
          "type": "uint8"
        }
      ],
      "stateMutability": "view",
      "type": "function"
    }
  ],
  "bytecode": "0x6080604052604051611471380380611471833981016040819052610022916100e0565b600080546001600160a01b0319166001600160a01b0383169081179091556040805163155ef82760e11b8152600481019190915260066044820152656f7261636c6560d01b6064820152306024820152632abdf04e90608401600060405180830381600087803b15801561009557600080fd5b505af11580156100a9573d6000803e3d6000fd5b505060038054336001600160a01b031991821681179092556005805482168317905560048054909116909117905550610110915050565b6000602082840312156100f257600080fd5b81516001600160a01b038116811461010957600080fd5b9392505050565b6113528061011f6000396000f3fe60806040526004361061011b5760003560e01c806312d0e65a146101205780631a83c469146101425780631ac5498a1461016257806322bbad0b1461018257806338af3eed146101d05780633ef439ff1461020857806345c9c1d11461022c5780634bb278f314610241578063506e4d9a14610256578063524f388914610276578063746d4b47146102965780637a7a3206146102a957806388112fcb146102c05780639f923923146102d6578063a00b54b4146102f6578063a1e381ef14610316578063a6c3e6b914610336578063ab16ef4414610356578063ab808dbe14610385578063afd0fd1d1461039c578063b3f05b97146103ce578063b5c105f3146103ff578063df034cd014610415578063ee53e6a314610435575b600080fd5b34801561012c57600080fd5b5061014061013b366004610c93565b610448565b005b34801561014e57600080fd5b5061014061015d366004610c93565b6104ab565b34801561016e57600080fd5b5061014061017d366004610d78565b6104f7565b34801561018e57600080fd5b506101b661019d366004610df5565b6006602052600090815260409020805460019091015482565b604080519283526020830191909152015b60405180910390f35b3480156101dc57600080fd5b506004546101f0906001600160a01b031681565b6040516001600160a01b0390911681526020016101c7565b34801561021457600080fd5b5061021e60025481565b6040519081526020016101c7565b34801561023857600080fd5b5061014061058c565b34801561024d57600080fd5b50610140610625565b34801561026257600080fd5b5061021e610271366004610e0e565b610676565b34801561028257600080fd5b5061021e610291366004610e0e565b6106b7565b6101406102a4366004610ec9565b6106f8565b3480156102b557600080fd5b5061021e62014bc081565b3480156102cc57600080fd5b5061021e60015481565b3480156102e257600080fd5b506101406102f1366004610efd565b610784565b34801561030257600080fd5b50610140610311366004610f60565b61080d565b34801561032257600080fd5b5061021e610331366004610d78565b610845565b34801561034257600080fd5b506003546101f0906001600160a01b031681565b34801561036257600080fd5b50610376610371366004610e0e565b6109be565b6040516101c793929190610fa6565b34801561039157600080fd5b5061021e620156be81565b3480156103a857600080fd5b506103bc6103b7366004610e0e565b610a77565b60405160ff90911681526020016101c7565b3480156103da57600080fd5b506005546103ef90600160a01b900460ff1681565b60405190151581526020016101c7565b34801561040b57600080fd5b5061021e6158ac81565b34801561042157600080fd5b506005546101f0906001600160a01b031681565b610140610443366004610df5565b610aa5565b6003546001600160a01b0316331461047b5760405162461bcd60e51b815260040161047290610feb565b60405180910390fd5b600554600160a01b900460ff166104a857600480546001600160a01b0319166001600160a01b0383161790555b50565b6003546001600160a01b031633146104d55760405162461bcd60e51b815260040161047290610feb565b600580546001600160a01b0319166001600160a01b0392909216919091179055565b6005546001600160a01b031633146105215760405162461bcd60e51b815260040161047290611020565b816007846040516105329190611061565b9081526020016040518091039020600101908161054f9190611105565b50806007846040516105619190611061565b908152604051908190036020019020600201805460ff9290921660ff19909216919091179055505050565b6003546001600160a01b031633146105b65760405162461bcd60e51b815260040161047290610feb565b6004546040516001600160a01b03909116904780156108fc02916000818181858888f193505050501580156105ef573d6000803e3d6000fd5b506040514781527f1241ee7de620e23a422383ea2edb030a4d229d4e462e064085c36e5066b4bee19060200160405180910390a1565b6003546001600160a01b0316331461064f5760405162461bcd60e51b815260040161047290610feb565b600554600160a01b900460ff16610674576005805460ff60a01b1916600160a01b1790555b565b60006006600060078460405161068c9190611061565b9081526020016040518091039020600001548152602001908152602001600020600101549050919050565b6000600660006007846040516106cd9190611061565b9081526020016040518091039020600001548152602001908152602001600020600001549050919050565b3a620156be6158ac835161070c91906111da565b61071691906111f7565b6107219060026111da565b61072b91906111da565b34101561074a5760405162461bcd60e51b81526004016104729061120a565b7f58af8d856ac490ff1114cbaf134ef670a4d9b423035b40ff141ec7c18162025b81604051610779919061125b565b60405180910390a150565b6005546001600160a01b031633146107ae5760405162461bcd60e51b815260040161047290611020565b60005b8251811015610808576107f68382815181106107cf576107cf61129f565b60200260200101518383815181106107e9576107e961129f565b6020026020010151610b0d565b80610800816112b5565b9150506107b1565b505050565b6005546001600160a01b031633146108375760405162461bcd60e51b815260040161047290611020565b6108418282610b0d565b5050565b6005546000906001600160a01b031633146108725760405162461bcd60e51b815260040161047290611020565b6007846040516108829190611061565b9081526020016040518091039020600101805461089e9061107d565b1590506109005760405162461bcd60e51b815260206004820152602a60248201527f53796d626f6c20616c72656164792065786973742c2075736520757064617465604482015269125b9cdd1c9d5b595b9d60b21b6064820152608401610472565b6002549050806007856040516109169190611061565b908152604051908190036020018120919091558390600790610939908790611061565b908152602001604051809103902060010190816109569190611105565b50816007856040516109689190611061565b90815260408051602092819003830190206002908101805460ff191660ff95909516949094179093556000848152600690925281204260019190910155815491906109b2836112b5565b91905055509392505050565b8051602081830181018051600782529282019190930120915280546001820180549192916109eb9061107d565b80601f0160208091040260200160405190810160405280929190818152602001828054610a179061107d565b8015610a645780601f10610a3957610100808354040283529160200191610a64565b820191906000526020600020905b815481529060010190602001808311610a4757829003601f168201915b5050506002909301549192505060ff1683565b6000600782604051610a899190611061565b9081526040519081900360200190206002015460ff1692915050565b3a610ab462014bc060026111da565b610abe91906111da565b341015610add5760405162461bcd60e51b81526004016104729061120a565b6040518181527f4cde581ee30e43ea6bf5e51258bea0607e593191ae8c9952433596e7c40893ed90602001610779565b600082815260066020526040812042600182015554908115610c4257828210610b4157610b3a83836112ce565b9050610b4e565b610b4b82846112ce565b90505b60005460405163145f822b60e01b815260206004820152602160248201527f68696768566f6c6174696c6974794576656e744261727269657250657263656e6044820152601d60fa1b60648201526001600160a01b039091169063145f822b90608401602060405180830381865afa158015610bce573d6000803e3d6000fd5b505050506040513d601f19601f82011682018060405250810190610bf291906112e1565b82610bfe8360646111da565b610c0891906112fa565b1115610c42576040518481527f3898de23057e5cd1413babdd70a2fc05e71c59a5e788d210641acf74b39637dd9060200160405180910390a15b60008481526006602052604090819020849055517fba183368bdfb67a6c0e60b2a8666381c33610509a956ac629eaae3874e0063e590610c859086815260200190565b60405180910390a150505050565b600060208284031215610ca557600080fd5b81356001600160a01b0381168114610cbc57600080fd5b9392505050565b634e487b7160e01b600052604160045260246000fd5b604051601f8201601f191681016001600160401b0381118282101715610d0157610d01610cc3565b604052919050565b600082601f830112610d1a57600080fd5b81356001600160401b03811115610d3357610d33610cc3565b610d46601f8201601f1916602001610cd9565b818152846020838601011115610d5b57600080fd5b816020850160208301376000918101602001919091529392505050565b600080600060608486031215610d8d57600080fd5b83356001600160401b0380821115610da457600080fd5b610db087838801610d09565b94506020860135915080821115610dc657600080fd5b50610dd386828701610d09565b925050604084013560ff81168114610dea57600080fd5b809150509250925092565b600060208284031215610e0757600080fd5b5035919050565b600060208284031215610e2057600080fd5b81356001600160401b03811115610e3657600080fd5b610e4284828501610d09565b949350505050565b600082601f830112610e5b57600080fd5b813560206001600160401b03821115610e7657610e76610cc3565b8160051b610e85828201610cd9565b9283528481018201928281019087851115610e9f57600080fd5b83870192505b84831015610ebe57823582529183019190830190610ea5565b979650505050505050565b600060208284031215610edb57600080fd5b81356001600160401b03811115610ef157600080fd5b610e4284828501610e4a565b60008060408385031215610f1057600080fd5b82356001600160401b0380821115610f2757600080fd5b610f3386838701610e4a565b93506020850135915080821115610f4957600080fd5b50610f5685828601610e4a565b9150509250929050565b60008060408385031215610f7357600080fd5b50508035926020909101359150565b60005b83811015610f9d578181015183820152602001610f85565b50506000910152565b8381526060602082015260008351806060840152610fcb816080850160208801610f82565b60ff93909316604083015250601f91909101601f19160160800192915050565b6020808252818101527f546869732066756e6374696f6e20697320666f7220617574686f72206f6e6c79604082015260600190565b60208082526021908201527f546869732066756e6374696f6e20697320666f722075706461746572206f6e6c6040820152607960f81b606082015260800190565b60008251611073818460208701610f82565b9190910192915050565b600181811c9082168061109157607f821691505b6020821081036110b157634e487b7160e01b600052602260045260246000fd5b50919050565b601f82111561080857600081815260208120601f850160051c810160208610156110de5750805b601f850160051c820191505b818110156110fd578281556001016110ea565b505050505050565b81516001600160401b0381111561111e5761111e610cc3565b6111328161112c845461107d565b846110b7565b602080601f831160018114611167576000841561114f5750858301515b600019600386901b1c1916600185901b1785556110fd565b600085815260208120601f198616915b8281101561119657888601518255948401946001909101908401611177565b50858210156111b45787850151600019600388901b60f8161c191681555b5050505050600190811b01905550565b634e487b7160e01b600052601160045260246000fd5b80820281158282048414176111f1576111f16111c4565b92915050565b808201808211156111f1576111f16111c4565b60208082526031908201527f596f75206e65656420746f2070617373206d6f726520657468657220746f207260408201527032b8bab2b9ba103732bb90383934b1b29760791b606082015260800190565b6020808252825182820181905260009190848201906040850190845b8181101561129357835183529284019291840191600101611277565b50909695505050505050565b634e487b7160e01b600052603260045260246000fd5b6000600182016112c7576112c76111c4565b5060010190565b818103818111156111f1576111f16111c4565b6000602082840312156112f357600080fd5b5051919050565b60008261131757634e487b7160e01b600052601260045260246000fd5b50049056fea26469706673582212200c7e70316eb6539b5fa21999789365d6390fc2420e99bcc168367f756584c60464736f6c63430008130033",
  "immutableReferences": {},
  "source": "// SPDX-License-Identifier: UNLICENSED\r\npragma solidity 0.8.19;\r\n\r\n    struct Instrument {\r\n        uint256 price;\r\n        uint256 timeStamp;\r\n    }\r\n\r\n    struct instrumentDescription {\r\n        uint256 id;\r\n        string name;\r\n        uint8 decimals;\r\n    }\r\n\r\ninterface IDAO{\r\n    function params(string memory) external view returns (uint256);\r\n    function setAddressOnce(string memory, address) external;\r\n}\r\n\r\ncontract exchangeRateContract {\r\n    IDAO dao;\r\n\r\n    constructor(address payable _INTDAOaddress) payable{\r\n        dao = IDAO(_INTDAOaddress);\r\n        dao.setAddressOnce(\"oracle\", address(this));\r\n        author = payable(msg.sender);\r\n        updater = payable(msg.sender);\r\n        beneficiary = payable(msg.sender);\r\n    }\r\n\r\n    uint256 public subscriptionsCount;\r\n    uint256 public instrumentsCount;\r\n\r\n    uint256 constant public updOnePriceGasCost = 84928;\r\n    uint256 constant public updSeveralPricesCost = 87742;\r\n    uint256 constant public updAdditionalPrice = 22700;\r\n\r\n    address payable public author;\r\n    address payable public beneficiary;\r\n    address payable public updater;\r\n\r\n    bool public finalized;\r\n\r\n    mapping(uint256 => Instrument) public instruments;\r\n    mapping(string => instrumentDescription) public dictionary;\r\n\r\n    modifier onlyAuthor{\r\n        require(msg.sender == author, \"This function is for author only\");\r\n        _;\r\n    }\r\n\r\n    modifier onlyUpdater{\r\n        require(msg.sender == updater, \"This function is for updater only\");\r\n        _;\r\n    }\r\n\r\n    event priceUpdateRequest (uint256 id);\r\n    event severalPricesUpdateRequest (uint256[] ids);\r\n    event priceUpdated (uint256 id);\r\n    event profit (uint256 profit);\r\n    event highVolatility(uint256 id);\r\n\r\n    function changeBeneficiaryAddress(address payable newAddress) public onlyAuthor{\r\n        if (!finalized)\r\n            beneficiary = newAddress;\r\n    }\r\n\r\n    function finalize() public onlyAuthor{\r\n        if (!finalized)\r\n            finalized = true;\r\n    }\r\n\r\n    function changeUpdaterAddress (address payable newAddress) public onlyAuthor{\r\n        updater = newAddress;\r\n    }\r\n\r\n    function requestPriceUpdate(uint256 id) public payable {\r\n        require (msg.value>=2*updOnePriceGasCost*tx.gasprice, \"You need to pass more ether to request new price.\");\r\n        emit priceUpdateRequest(id);\r\n    }\r\n\r\n    function requestMultiplePricesUpdate(uint256[] memory ids) public payable {\r\n        require (msg.value>= 2 * (ids.length * updAdditionalPrice + updSeveralPricesCost) * tx.gasprice, \"You need to pass more ether to request new price.\");\r\n        emit severalPricesUpdateRequest(ids);\r\n    }\r\n\r\n    function updateSeveralPrices(uint256[] memory ids, uint256[] memory prices) public onlyUpdater{\r\n        for (uint i=0; i<ids.length; i++)\r\n            updPrice (ids[i], prices[i]);\r\n    }\r\n\r\n    function transferProfit() public onlyAuthor{\r\n        beneficiary.transfer(address(this).balance);\r\n        emit profit(address(this).balance);\r\n    }\r\n\r\n    function updateSinglePrice(uint256 id, uint256 newPrice) public onlyUpdater{\r\n        updPrice (id, newPrice);\r\n    }\r\n\r\n    function updPrice(uint256 id, uint256 newPrice) internal {\r\n        instruments[id].timeStamp = block.timestamp;\r\n        uint256 prevPrice = instruments[id].price;\r\n        uint256 move = 0;\r\n        if (prevPrice!=0){\r\n            if (prevPrice >= newPrice)\r\n                move = prevPrice - newPrice;\r\n            else\r\n                move = newPrice - prevPrice;\r\n            if (move * 100 / prevPrice > dao.params('highVolatilityEventBarrierPercent'))\r\n                emit highVolatility(id);\r\n        }\r\n        instruments[id].price = newPrice;\r\n        emit priceUpdated (id);\r\n    }\r\n\r\n    function addInstrument(string memory symbol, string memory name, uint8 decimals) public onlyUpdater returns (uint256 id){\r\n        require (bytes (dictionary[symbol].name).length == 0, \"Symbol already exist, use updateInstrument\");\r\n        id = instrumentsCount;\r\n        dictionary[symbol].id = id;\r\n        dictionary[symbol].name = name;\r\n        dictionary[symbol].decimals = decimals;\r\n        instruments[id].timeStamp = block.timestamp;\r\n        instrumentsCount++;\r\n        return id;\r\n    }\r\n\r\n    function updateInstrument(string memory symbol, string memory name, uint8 decimals) public onlyUpdater{\r\n        dictionary[symbol].name = name;\r\n        dictionary[symbol].decimals = decimals;\r\n    }\r\n\r\n    function getPrice(string memory symbol) public view returns (uint256) {\r\n        return instruments[dictionary[symbol].id].price;\r\n    }\r\n\r\n    function timeStamp(string memory symbol) public view returns (uint256) {\r\n        return instruments[dictionary[symbol].id].timeStamp;\r\n    }\r\n\r\n    function getDecimals(string memory symbol) public view returns (uint8) {\r\n        return dictionary[symbol].decimals;\r\n    }\r\n}\r\n",
  "sourcePath": "C:\\Users\\d.nagornykh\\YandexDisk\\\\ICO\\CryptoFiat\\repo\\contracts\\exchangeRateContract.sol",
  "compiler": {
    "name": "solc",
    "version": "0.8.19+commit.7dd6d404.Emscripten.clang"
  },
  "schemaVersion": "3.4.14",
  "updatedAt": "2023-08-14T08:16:10.323Z",
  "devdoc": {
    "kind": "dev",
    "methods": {},
    "version": 1
  },
  "userdoc": {
    "kind": "user",
    "methods": {},
    "version": 1
  }
}