{
  "contractName": "exchangeRateContract",
  "abi": [
    {
      "inputs": [
        {
          "internalType": "address",
          "name": "_INTDAOaddress",
          "type": "address"
        }
      ],
      "stateMutability": "payable",
      "type": "constructor"
    },
    {
      "anonymous": false,
      "inputs": [
        {
          "indexed": false,
          "internalType": "uint16",
          "name": "id",
          "type": "uint16"
        }
      ],
      "name": "highVolatility",
      "type": "event"
    },
    {
      "anonymous": false,
      "inputs": [
        {
          "indexed": false,
          "internalType": "uint16",
          "name": "id",
          "type": "uint16"
        }
      ],
      "name": "priceUpdateRequest",
      "type": "event"
    },
    {
      "anonymous": false,
      "inputs": [
        {
          "indexed": false,
          "internalType": "uint16",
          "name": "id",
          "type": "uint16"
        }
      ],
      "name": "priceUpdated",
      "type": "event"
    },
    {
      "anonymous": false,
      "inputs": [
        {
          "indexed": false,
          "internalType": "uint256",
          "name": "profit",
          "type": "uint256"
        }
      ],
      "name": "profit",
      "type": "event"
    },
    {
      "anonymous": false,
      "inputs": [
        {
          "indexed": false,
          "internalType": "uint16[]",
          "name": "ids",
          "type": "uint16[]"
        }
      ],
      "name": "severalPricesUpdateRequest",
      "type": "event"
    },
    {
      "inputs": [],
      "name": "author",
      "outputs": [
        {
          "internalType": "address",
          "name": "",
          "type": "address"
        }
      ],
      "stateMutability": "view",
      "type": "function"
    },
    {
      "inputs": [],
      "name": "beneficiary",
      "outputs": [
        {
          "internalType": "address",
          "name": "",
          "type": "address"
        }
      ],
      "stateMutability": "view",
      "type": "function"
    },
    {
      "inputs": [
        {
          "internalType": "string",
          "name": "",
          "type": "string"
        }
      ],
      "name": "dictionary",
      "outputs": [
        {
          "internalType": "uint16",
          "name": "id",
          "type": "uint16"
        },
        {
          "internalType": "string",
          "name": "name",
          "type": "string"
        },
        {
          "internalType": "uint8",
          "name": "decimals",
          "type": "uint8"
        }
      ],
      "stateMutability": "view",
      "type": "function"
    },
    {
      "inputs": [],
      "name": "finalized",
      "outputs": [
        {
          "internalType": "bool",
          "name": "",
          "type": "bool"
        }
      ],
      "stateMutability": "view",
      "type": "function"
    },
    {
      "inputs": [
        {
          "internalType": "uint16",
          "name": "",
          "type": "uint16"
        }
      ],
      "name": "instruments",
      "outputs": [
        {
          "internalType": "uint256",
          "name": "price",
          "type": "uint256"
        },
        {
          "internalType": "uint128",
          "name": "timeStamp",
          "type": "uint128"
        }
      ],
      "stateMutability": "view",
      "type": "function"
    },
    {
      "inputs": [],
      "name": "instrumentsCount",
      "outputs": [
        {
          "internalType": "uint16",
          "name": "",
          "type": "uint16"
        }
      ],
      "stateMutability": "view",
      "type": "function"
    },
    {
      "inputs": [],
      "name": "updAdditionalPrice",
      "outputs": [
        {
          "internalType": "uint256",
          "name": "",
          "type": "uint256"
        }
      ],
      "stateMutability": "view",
      "type": "function"
    },
    {
      "inputs": [],
      "name": "updOnePriceGasCost",
      "outputs": [
        {
          "internalType": "uint256",
          "name": "",
          "type": "uint256"
        }
      ],
      "stateMutability": "view",
      "type": "function"
    },
    {
      "inputs": [],
      "name": "updSeveralPricesCost",
      "outputs": [
        {
          "internalType": "uint256",
          "name": "",
          "type": "uint256"
        }
      ],
      "stateMutability": "view",
      "type": "function"
    },
    {
      "inputs": [],
      "name": "updater",
      "outputs": [
        {
          "internalType": "address",
          "name": "",
          "type": "address"
        }
      ],
      "stateMutability": "view",
      "type": "function"
    },
    {
      "inputs": [
        {
          "internalType": "address payable",
          "name": "newAddress",
          "type": "address"
        }
      ],
      "name": "changeBeneficiaryAddress",
      "outputs": [],
      "stateMutability": "nonpayable",
      "type": "function"
    },
    {
      "inputs": [],
      "name": "finalize",
      "outputs": [],
      "stateMutability": "nonpayable",
      "type": "function"
    },
    {
      "inputs": [
        {
          "internalType": "address payable",
          "name": "newAddress",
          "type": "address"
        }
      ],
      "name": "changeUpdaterAddress",
      "outputs": [],
      "stateMutability": "nonpayable",
      "type": "function"
    },
    {
      "inputs": [
        {
          "internalType": "uint16",
          "name": "id",
          "type": "uint16"
        }
      ],
      "name": "requestPriceUpdate",
      "outputs": [],
      "stateMutability": "payable",
      "type": "function"
    },
    {
      "inputs": [
        {
          "internalType": "uint16[]",
          "name": "ids",
          "type": "uint16[]"
        }
      ],
      "name": "requestMultiplePricesUpdate",
      "outputs": [],
      "stateMutability": "payable",
      "type": "function"
    },
    {
      "inputs": [
        {
          "internalType": "uint16[]",
          "name": "ids",
          "type": "uint16[]"
        },
        {
          "internalType": "uint256[]",
          "name": "prices",
          "type": "uint256[]"
        }
      ],
      "name": "updateSeveralPrices",
      "outputs": [],
      "stateMutability": "nonpayable",
      "type": "function"
    },
    {
      "inputs": [],
      "name": "transferProfit",
      "outputs": [],
      "stateMutability": "nonpayable",
      "type": "function"
    },
    {
      "inputs": [
        {
          "internalType": "uint16",
          "name": "id",
          "type": "uint16"
        },
        {
          "internalType": "uint256",
          "name": "newPrice",
          "type": "uint256"
        }
      ],
      "name": "updateSinglePrice",
      "outputs": [],
      "stateMutability": "nonpayable",
      "type": "function"
    },
    {
      "inputs": [
        {
          "internalType": "string",
          "name": "symbol",
          "type": "string"
        },
        {
          "internalType": "string",
          "name": "name",
          "type": "string"
        },
        {
          "internalType": "uint8",
          "name": "decimals",
          "type": "uint8"
        }
      ],
      "name": "addInstrument",
      "outputs": [
        {
          "internalType": "uint16",
          "name": "id",
          "type": "uint16"
        }
      ],
      "stateMutability": "nonpayable",
      "type": "function"
    },
    {
      "inputs": [
        {
          "internalType": "string",
          "name": "symbol",
          "type": "string"
        },
        {
          "internalType": "string",
          "name": "name",
          "type": "string"
        },
        {
          "internalType": "uint8",
          "name": "decimals",
          "type": "uint8"
        }
      ],
      "name": "updateInstrument",
      "outputs": [],
      "stateMutability": "nonpayable",
      "type": "function"
    },
    {
      "inputs": [
        {
          "internalType": "string",
          "name": "symbol",
          "type": "string"
        }
      ],
      "name": "getPrice",
      "outputs": [
        {
          "internalType": "uint256",
          "name": "",
          "type": "uint256"
        }
      ],
      "stateMutability": "view",
      "type": "function"
    },
    {
      "inputs": [
        {
          "internalType": "string",
          "name": "symbol",
          "type": "string"
        }
      ],
      "name": "timeStamp",
      "outputs": [
        {
          "internalType": "uint256",
          "name": "",
          "type": "uint256"
        }
      ],
      "stateMutability": "view",
      "type": "function"
    },
    {
      "inputs": [
        {
          "internalType": "string",
          "name": "symbol",
          "type": "string"
        }
      ],
      "name": "getDecimals",
      "outputs": [
        {
          "internalType": "uint8",
          "name": "",
          "type": "uint8"
        }
      ],
      "stateMutability": "view",
      "type": "function"
    }
  ],
  "bytecode": "0x60a06040526040516115f43803806115f483398101604081905261002291610072565b6001600160a01b03166080526000805462010000600160b01b0319163362010000810291909117909155600280546001600160a01b031990811683179091556001805490911690911790556100a2565b60006020828403121561008457600080fd5b81516001600160a01b038116811461009b57600080fd5b9392505050565b6080516115376100bd6000396000610c8c01526115376000f3fe6080604052600436106101105760003560e01c806312d0e65a14610115578063132308b3146101375780631a83c4691461014a5780631ac5498a1461016a57806338af3eed1461018a5780633ef439ff146101c757806345c9c1d1146101ef5780634bb278f314610204578063506e4d9a14610219578063524f38891461024757806364eff0d1146102675780637a7a320614610287578063a1e381ef1461029e578063a6c3e6b9146102be578063ab16ef44146102e4578063ab808dbe14610313578063ad7a97841461032a578063afd0fd1d1461033d578063b3f05b971461036f578063b5c105f3146103a0578063bc8a86d5146103b6578063df034cd014610410578063ebe828df14610430575b600080fd5b34801561012157600080fd5b50610135610130366004610da7565b610450565b005b610135610145366004610ec9565b6104d5565b34801561015657600080fd5b50610135610165366004610da7565b610561565b34801561017657600080fd5b50610135610185366004610f74565b6105b3565b34801561019657600080fd5b506001546101aa906001600160a01b031681565b6040516001600160a01b0390911681526020015b60405180910390f35b3480156101d357600080fd5b506000546101e29061ffff1681565b6040516101be9190610ff1565b3480156101fb57600080fd5b50610135610697565b34801561021057600080fd5b50610135610736565b34801561022557600080fd5b50610239610234366004611000565b6107a5565b6040519081526020016101be565b34801561025357600080fd5b50610239610262366004611000565b6107f1565b34801561027357600080fd5b50610135610282366004611034565b610831565b34801561029357600080fd5b5061023962014bc081565b3480156102aa57600080fd5b506101e26102b9366004610f74565b6108fe565b3480156102ca57600080fd5b506000546101aa906201000090046001600160a01b031681565b3480156102f057600080fd5b506103046102ff366004611000565b610a57565b6040516101be93929190611112565b34801561031f57600080fd5b50610239620156be81565b61013561033836600461115b565b610b15565b34801561034957600080fd5b5061035d610358366004611000565b610b7c565b60405160ff90911681526020016101be565b34801561037b57600080fd5b5060025461039090600160a01b900460ff1681565b60405190151581526020016101be565b3480156103ac57600080fd5b506102396158ac81565b3480156103c257600080fd5b506103f36103d136600461115b565b600360205260009081526040902080546001909101546001600160801b031682565b604080519283526001600160801b039091166020830152016101be565b34801561041c57600080fd5b506002546101aa906001600160a01b031681565b34801561043c57600080fd5b5061013561044b366004611176565b610baa565b6000546201000090046001600160a01b031633146104895760405162461bcd60e51b8152600401610480906111a0565b60405180910390fd5b600254600160a01b900460ff16156104b35760405162461bcd60e51b8152600401610480906111d5565b600180546001600160a01b0319166001600160a01b0392909216919091179055565b3a620156be6158ac83516104e9919061120e565b6104f3919061122b565b6104fe90600261120e565b610508919061120e565b3410156105275760405162461bcd60e51b81526004016104809061123e565b7f92e8536a39685bc7378a90e3c92685e764f6ef9816f1110c7c4f30d0c97d43fb81604051610556919061128f565b60405180910390a150565b6000546201000090046001600160a01b031633146105915760405162461bcd60e51b8152600401610480906111a0565b600280546001600160a01b0319166001600160a01b0392909216919091179055565b6002546001600160a01b031633146105dd5760405162461bcd60e51b8152600401610480906112d7565b60006004846040516105ef9190611318565b9081526020016040518091039020905080600101805461060e90611334565b905060000361066f5760405162461bcd60e51b815260206004820152602760248201527f53796d626f6c20646f65736e27742065786973742c2075736520616464496e736044820152661d1c9d5b595b9d60ca1b6064820152608401610480565b6001810161067d84826113bd565b50600201805460ff191660ff929092169190911790555050565b6000546201000090046001600160a01b031633146106c75760405162461bcd60e51b8152600401610480906111a0565b6001546040516001600160a01b03909116904780156108fc02916000818181858888f19350505050158015610700573d6000803e3d6000fd5b506040514781527f1241ee7de620e23a422383ea2edb030a4d229d4e462e064085c36e5066b4bee19060200160405180910390a1565b6000546201000090046001600160a01b031633146107665760405162461bcd60e51b8152600401610480906111a0565b600254600160a01b900460ff16156107905760405162461bcd60e51b8152600401610480906111d5565b6002805460ff60a01b1916600160a01b179055565b6000600360006004846040516107bb9190611318565b90815260408051602092819003830190205461ffff1683529082019290925201600020600101546001600160801b031692915050565b6000600360006004846040516108079190611318565b90815260408051602092819003830190205461ffff16835290820192909252016000205492915050565b6002546001600160a01b0316331461085b5760405162461bcd60e51b8152600401610480906112d7565b81518151811461089d5760405162461bcd60e51b815260206004820152600d60248201526c0c2e4e4c2f2e640d8cadccee8d609b1b6044820152606401610480565b60005b818161ffff1610156108f8576108f0848261ffff16815181106108c5576108c561147c565b6020026020010151848361ffff16815181106108e3576108e361147c565b6020026020010151610be2565b6001016108a0565b50505050565b6002546000906001600160a01b0316331461092b5760405162461bcd60e51b8152600401610480906112d7565b600060048560405161093d9190611318565b9081526020016040518091039020905080600101805461095c90611334565b1590506109be5760405162461bcd60e51b815260206004820152602a60248201527f53796d626f6c20616c72656164792065786973742c2075736520757064617465604482015269125b9cdd1c9d5b595b9d60b21b6064820152608401610480565b6000805481906109d19061ffff16611492565b825461ffff9182166101009390930a8381029202191617909155815461ffff191617815560018101610a0385826113bd565b5060028101805460ff851660ff19909116179055805461ffff908116600090815260036020526040902060010180546001600160801b0342166001600160801b031990911617905590541690509392505050565b80516020818301810180516004825292820191909301209152805460018201805461ffff9092169291610a8990611334565b80601f0160208091040260200160405190810160405280929190818152602001828054610ab590611334565b8015610b025780601f10610ad757610100808354040283529160200191610b02565b820191906000526020600020905b815481529060010190602001808311610ae557829003601f168201915b5050506002909301549192505060ff1683565b3a610b2462014bc0600261120e565b610b2e919061120e565b341015610b4d5760405162461bcd60e51b81526004016104809061123e565b7f01117e6b66ea540aaff99988c0d1a792003641983f3e71c26d8cd82372a8aa00816040516105569190610ff1565b6000600482604051610b8e9190611318565b9081526040519081900360200190206002015460ff1692915050565b6002546001600160a01b03163314610bd45760405162461bcd60e51b8152600401610480906112d7565b610bde8282610be2565b5050565b61ffff821660009081526003602052604081206001810180546001600160801b031916426001600160801b031617905554908115610d5357828210610c3257610c2b83836114b3565b9050610c3f565b610c3c82846114b3565b90505b60405163145f822b60e01b815260206004820152602160248201527f68696768566f6c6174696c6974794576656e744261727269657250657263656e6044820152601d60fa1b60648201527f00000000000000000000000000000000000000000000000000000000000000006001600160a01b03169063145f822b90608401602060405180830381865afa158015610cdb573d6000803e3d6000fd5b505050506040513d601f19601f82011682018060405250810190610cff91906114c6565b82610d0b83606461120e565b610d1591906114df565b1115610d53577f412637e8aa46ce4827b3aafc26c8c83022c58ea58524995da6a578168e57312584604051610d4a9190610ff1565b60405180910390a15b61ffff841660009081526003602052604090819020849055517fb224e441908b4f23387312014c3971437a09bf702e76a0dfe3907fb68d5d148990610d99908690610ff1565b60405180910390a150505050565b600060208284031215610db957600080fd5b81356001600160a01b0381168114610dd057600080fd5b9392505050565b634e487b7160e01b600052604160045260246000fd5b604051601f8201601f191681016001600160401b0381118282101715610e1557610e15610dd7565b604052919050565b60006001600160401b03821115610e3657610e36610dd7565b5060051b60200190565b803561ffff81168114610e5257600080fd5b919050565b600082601f830112610e6857600080fd5b81356020610e7d610e7883610e1d565b610ded565b82815260059290921b84018101918181019086841115610e9c57600080fd5b8286015b84811015610ebe57610eb181610e40565b8352918301918301610ea0565b509695505050505050565b600060208284031215610edb57600080fd5b81356001600160401b03811115610ef157600080fd5b610efd84828501610e57565b949350505050565b600082601f830112610f1657600080fd5b81356001600160401b03811115610f2f57610f2f610dd7565b610f42601f8201601f1916602001610ded565b818152846020838601011115610f5757600080fd5b816020850160208301376000918101602001919091529392505050565b600080600060608486031215610f8957600080fd5b83356001600160401b0380821115610fa057600080fd5b610fac87838801610f05565b94506020860135915080821115610fc257600080fd5b50610fcf86828701610f05565b925050604084013560ff81168114610fe657600080fd5b809150509250925092565b61ffff91909116815260200190565b60006020828403121561101257600080fd5b81356001600160401b0381111561102857600080fd5b610efd84828501610f05565b6000806040838503121561104757600080fd5b82356001600160401b038082111561105e57600080fd5b61106a86838701610e57565b935060209150818501358181111561108157600080fd5b85019050601f8101861361109457600080fd5b80356110a2610e7882610e1d565b81815260059190911b820183019083810190888311156110c157600080fd5b928401925b828410156110df578335825292840192908401906110c6565b80955050505050509250929050565b60005b838110156111095781810151838201526020016110f1565b50506000910152565b61ffff84168152606060208201526000835180606084015261113b8160808501602088016110ee565b60ff93909316604083015250601f91909101601f19160160800192915050565b60006020828403121561116d57600080fd5b610dd082610e40565b6000806040838503121561118957600080fd5b61119283610e40565b946020939093013593505050565b6020808252818101527f546869732066756e6374696f6e20697320666f7220617574686f72206f6e6c79604082015260600190565b602080825260099082015268199a5b985b1a5e995960ba1b604082015260600190565b634e487b7160e01b600052601160045260246000fd5b8082028115828204841417611225576112256111f8565b92915050565b80820180821115611225576112256111f8565b60208082526031908201527f596f75206e65656420746f2070617373206d6f726520657468657220746f207260408201527032b8bab2b9ba103732bb90383934b1b29760791b606082015260800190565b6020808252825182820181905260009190848201906040850190845b818110156112cb57835161ffff16835292840192918401916001016112ab565b50909695505050505050565b60208082526021908201527f546869732066756e6374696f6e20697320666f722075706461746572206f6e6c6040820152607960f81b606082015260800190565b6000825161132a8184602087016110ee565b9190910192915050565b600181811c9082168061134857607f821691505b60208210810361136857634e487b7160e01b600052602260045260246000fd5b50919050565b601f8211156113b857600081815260208120601f850160051c810160208610156113955750805b601f850160051c820191505b818110156113b4578281556001016113a1565b5050505b505050565b81516001600160401b038111156113d6576113d6610dd7565b6113ea816113e48454611334565b8461136e565b602080601f83116001811461141f57600084156114075750858301515b600019600386901b1c1916600185901b1785556113b4565b600085815260208120601f198616915b8281101561144e5788860151825594840194600190910190840161142f565b508582101561146c5787850151600019600388901b60f8161c191681555b5050505050600190811b01905550565b634e487b7160e01b600052603260045260246000fd5b600061ffff8083168181036114a9576114a96111f8565b6001019392505050565b81810381811115611225576112256111f8565b6000602082840312156114d857600080fd5b5051919050565b6000826114fc57634e487b7160e01b600052601260045260246000fd5b50049056fea26469706673582212209357649449d9a1268d55a548d8d0c674c74d9991199c39d5ae28095167fc460164736f6c63430008120033",
  "immutableReferences": {
    "5512": [
      {
        "length": 32,
        "start": 3212
      }
    ]
  },
  "source": "// SPDX-License-Identifier: UNLICENSED\r\npragma solidity 0.8.18;\r\nimport \"./IDAO.sol\";\r\n\r\ncontract exchangeRateContract {\r\n    IDAO immutable dao;\r\n\r\n    uint16 public instrumentsCount;\r\n\r\n    uint256 constant public updOnePriceGasCost = 84928;\r\n    uint256 constant public updSeveralPricesCost = 87742;\r\n    uint256 constant public updAdditionalPrice = 22700;\r\n\r\n    address public author;\r\n    address public beneficiary;\r\n    address public updater;\r\n\r\n    bool public finalized;\r\n\r\n    struct Instrument {\r\n        uint256 price;\r\n        uint128 timeStamp;\r\n    }\r\n\r\n    struct InstrumentDescription {\r\n        uint16 id;\r\n        string name;\r\n        uint8 decimals;\r\n    }\r\n\r\n    mapping(uint16 => Instrument) public instruments;\r\n    mapping(string => InstrumentDescription) public dictionary;\r\n\r\n    constructor(address _INTDAOaddress) payable{\r\n        dao = IDAO(_INTDAOaddress);\r\n        author = msg.sender;\r\n        updater = msg.sender;\r\n        beneficiary = msg.sender;\r\n    }\r\n\r\n    modifier onlyAuthor{\r\n        require(msg.sender == author, \"This function is for author only\");\r\n        _;\r\n    }\r\n\r\n    modifier onlyUpdater{\r\n        require(msg.sender == updater, \"This function is for updater only\");\r\n        _;\r\n    }\r\n\r\n    event priceUpdateRequest (uint16 id);\r\n    event severalPricesUpdateRequest (uint16[] ids);\r\n    event priceUpdated (uint16 id);\r\n    event profit (uint256 profit);\r\n    event highVolatility(uint16 id);\r\n\r\n    function changeBeneficiaryAddress(address payable newAddress) external onlyAuthor{\r\n        require(!finalized, \"finalized\");\r\n        beneficiary = newAddress;\r\n    }\r\n\r\n    function finalize() external  onlyAuthor{\r\n        require(!finalized, \"finalized\");\r\n        finalized = true;\r\n    }\r\n\r\n    function changeUpdaterAddress (address payable newAddress) external onlyAuthor{\r\n        updater = newAddress;\r\n    }\r\n\r\n    function requestPriceUpdate(uint16 id) external payable {\r\n        require (msg.value>=2*updOnePriceGasCost*tx.gasprice, \"You need to pass more ether to request new price.\");\r\n        emit priceUpdateRequest(id);\r\n    }\r\n\r\n    function requestMultiplePricesUpdate(uint16[] memory ids) external payable {\r\n        require (msg.value>= 2 * (ids.length * updAdditionalPrice + updSeveralPricesCost) * tx.gasprice, \"You need to pass more ether to request new price.\");\r\n        emit severalPricesUpdateRequest(ids);\r\n    }\r\n\r\n    function updateSeveralPrices(uint16[] memory ids, uint256[] memory prices) external onlyUpdater{\r\n        uint length = ids.length;\r\n        require(length==prices.length, \"arrays length\");\r\n        for (uint16 i = 0; i < length;) {\r\n            updPrice(ids[i], prices[i]);\r\n            unchecked {\r\n                ++i;\r\n            }\r\n        }\r\n    }\r\n\r\n    function transferProfit() external onlyAuthor{\r\n        payable(beneficiary).transfer(address(this).balance);\r\n        emit profit(address(this).balance);\r\n    }\r\n\r\n    function updateSinglePrice(uint16 id, uint256 newPrice) external onlyUpdater{\r\n        updPrice (id, newPrice);\r\n    }\r\n\r\n    function updPrice(uint16 id, uint256 newPrice) internal {\r\n        instruments[id].timeStamp = uint128(block.timestamp);\r\n        uint256 prevPrice = instruments[id].price;\r\n        uint256 move;\r\n        if (prevPrice!=0){\r\n            if (prevPrice >= newPrice)\r\n                move = prevPrice - newPrice;\r\n            else\r\n                move = newPrice - prevPrice;\r\n            if ((move * 100) / prevPrice > dao.params(\"highVolatilityEventBarrierPercent\"))\r\n                emit highVolatility(id);\r\n        }\r\n        instruments[id].price = newPrice;\r\n        emit priceUpdated(id);\r\n    }\r\n\r\n    function addInstrument(string memory symbol, string memory name, uint8 decimals) external onlyUpdater returns (uint16 id){\r\n        InstrumentDescription storage newInstrumentDescription = dictionary[symbol];\r\n        require (bytes(newInstrumentDescription.name).length == 0, \"Symbol already exist, use updateInstrument\");\r\n        newInstrumentDescription.id = ++instrumentsCount;\r\n        newInstrumentDescription.name = name;\r\n        newInstrumentDescription.decimals = decimals;\r\n        instruments[newInstrumentDescription.id].timeStamp = uint128(block.timestamp);\r\n        return newInstrumentDescription.id;\r\n    }\r\n\r\n    function updateInstrument(string memory symbol, string memory name, uint8 decimals) external onlyUpdater{\r\n        InstrumentDescription storage newInstrumentDescription = dictionary[symbol];\r\n        require(bytes(newInstrumentDescription.name).length != 0,\r\n            \"Symbol doesn't exist, use addInstrument\");\r\n        newInstrumentDescription.name = name;\r\n        newInstrumentDescription.decimals = decimals;\r\n    }\r\n\r\n    function getPrice(string memory symbol) external view returns (uint256) {\r\n        return instruments[dictionary[symbol].id].price;\r\n    }\r\n\r\n    function timeStamp(string memory symbol) external view returns (uint256) {\r\n        return instruments[dictionary[symbol].id].timeStamp;\r\n    }\r\n\r\n    function getDecimals(string memory symbol) external view returns (uint8) {\r\n        return dictionary[symbol].decimals;\r\n    }\r\n}\r\n",
  "sourcePath": "D:\\YandexDisk\\\\ICO\\CryptoFiat\\repo\\contracts\\exchangeRateContract.sol",
  "compiler": {
    "name": "solc",
    "version": "0.8.18+commit.87f61d96.Emscripten.clang"
  },
  "schemaVersion": "3.4.14",
  "updatedAt": "2023-10-01T08:25:02.732Z",
  "devdoc": {
    "kind": "dev",
    "methods": {},
    "version": 1
  },
  "userdoc": {
    "kind": "user",
    "methods": {},
    "version": 1
  }
}