{
  "contractName": "exchangeRateContract",
  "abi": [
    {
      "inputs": [
        {
          "internalType": "address",
          "name": "_INTDAOaddress",
          "type": "address"
        }
      ],
      "stateMutability": "payable",
      "type": "constructor"
    },
    {
      "anonymous": false,
      "inputs": [
        {
          "indexed": false,
          "internalType": "uint16",
          "name": "id",
          "type": "uint16"
        }
      ],
      "name": "highVolatility",
      "type": "event"
    },
    {
      "anonymous": false,
      "inputs": [
        {
          "indexed": false,
          "internalType": "uint16",
          "name": "id",
          "type": "uint16"
        }
      ],
      "name": "priceUpdateRequest",
      "type": "event"
    },
    {
      "anonymous": false,
      "inputs": [
        {
          "indexed": false,
          "internalType": "uint16",
          "name": "id",
          "type": "uint16"
        }
      ],
      "name": "priceUpdated",
      "type": "event"
    },
    {
      "anonymous": false,
      "inputs": [
        {
          "indexed": false,
          "internalType": "uint256",
          "name": "profit",
          "type": "uint256"
        }
      ],
      "name": "profit",
      "type": "event"
    },
    {
      "anonymous": false,
      "inputs": [
        {
          "indexed": false,
          "internalType": "uint16[]",
          "name": "ids",
          "type": "uint16[]"
        }
      ],
      "name": "severalPricesUpdateRequest",
      "type": "event"
    },
    {
      "inputs": [],
      "name": "author",
      "outputs": [
        {
          "internalType": "address",
          "name": "",
          "type": "address"
        }
      ],
      "stateMutability": "view",
      "type": "function"
    },
    {
      "inputs": [],
      "name": "beneficiary",
      "outputs": [
        {
          "internalType": "address",
          "name": "",
          "type": "address"
        }
      ],
      "stateMutability": "view",
      "type": "function"
    },
    {
      "inputs": [
        {
          "internalType": "string",
          "name": "",
          "type": "string"
        }
      ],
      "name": "dictionary",
      "outputs": [
        {
          "internalType": "uint16",
          "name": "id",
          "type": "uint16"
        },
        {
          "internalType": "string",
          "name": "name",
          "type": "string"
        },
        {
          "internalType": "uint8",
          "name": "decimals",
          "type": "uint8"
        }
      ],
      "stateMutability": "view",
      "type": "function"
    },
    {
      "inputs": [],
      "name": "finalized",
      "outputs": [
        {
          "internalType": "bool",
          "name": "",
          "type": "bool"
        }
      ],
      "stateMutability": "view",
      "type": "function"
    },
    {
      "inputs": [
        {
          "internalType": "uint16",
          "name": "",
          "type": "uint16"
        }
      ],
      "name": "instruments",
      "outputs": [
        {
          "internalType": "uint128",
          "name": "price",
          "type": "uint128"
        },
        {
          "internalType": "uint128",
          "name": "timeStamp",
          "type": "uint128"
        }
      ],
      "stateMutability": "view",
      "type": "function"
    },
    {
      "inputs": [],
      "name": "instrumentsCount",
      "outputs": [
        {
          "internalType": "uint16",
          "name": "",
          "type": "uint16"
        }
      ],
      "stateMutability": "view",
      "type": "function"
    },
    {
      "inputs": [],
      "name": "updAdditionalPrice",
      "outputs": [
        {
          "internalType": "uint256",
          "name": "",
          "type": "uint256"
        }
      ],
      "stateMutability": "view",
      "type": "function"
    },
    {
      "inputs": [],
      "name": "updOnePriceGasCost",
      "outputs": [
        {
          "internalType": "uint256",
          "name": "",
          "type": "uint256"
        }
      ],
      "stateMutability": "view",
      "type": "function"
    },
    {
      "inputs": [],
      "name": "updSeveralPricesCost",
      "outputs": [
        {
          "internalType": "uint256",
          "name": "",
          "type": "uint256"
        }
      ],
      "stateMutability": "view",
      "type": "function"
    },
    {
      "inputs": [],
      "name": "updater",
      "outputs": [
        {
          "internalType": "address",
          "name": "",
          "type": "address"
        }
      ],
      "stateMutability": "view",
      "type": "function"
    },
    {
      "inputs": [
        {
          "internalType": "address payable",
          "name": "newAddress",
          "type": "address"
        }
      ],
      "name": "changeBeneficiaryAddress",
      "outputs": [],
      "stateMutability": "nonpayable",
      "type": "function"
    },
    {
      "inputs": [],
      "name": "finalize",
      "outputs": [],
      "stateMutability": "nonpayable",
      "type": "function"
    },
    {
      "inputs": [
        {
          "internalType": "address payable",
          "name": "newAddress",
          "type": "address"
        }
      ],
      "name": "changeUpdaterAddress",
      "outputs": [],
      "stateMutability": "nonpayable",
      "type": "function"
    },
    {
      "inputs": [
        {
          "internalType": "uint16",
          "name": "id",
          "type": "uint16"
        }
      ],
      "name": "requestPriceUpdate",
      "outputs": [],
      "stateMutability": "payable",
      "type": "function"
    },
    {
      "inputs": [
        {
          "internalType": "uint16[]",
          "name": "ids",
          "type": "uint16[]"
        }
      ],
      "name": "requestMultiplePricesUpdate",
      "outputs": [],
      "stateMutability": "payable",
      "type": "function"
    },
    {
      "inputs": [
        {
          "internalType": "uint16[]",
          "name": "ids",
          "type": "uint16[]"
        },
        {
          "internalType": "uint128[]",
          "name": "prices",
          "type": "uint128[]"
        }
      ],
      "name": "updateSeveralPrices",
      "outputs": [],
      "stateMutability": "nonpayable",
      "type": "function"
    },
    {
      "inputs": [],
      "name": "transferProfit",
      "outputs": [],
      "stateMutability": "nonpayable",
      "type": "function"
    },
    {
      "inputs": [
        {
          "internalType": "uint16",
          "name": "id",
          "type": "uint16"
        },
        {
          "internalType": "uint128",
          "name": "newPrice",
          "type": "uint128"
        }
      ],
      "name": "updateSinglePrice",
      "outputs": [],
      "stateMutability": "nonpayable",
      "type": "function"
    },
    {
      "inputs": [
        {
          "internalType": "string",
          "name": "symbol",
          "type": "string"
        },
        {
          "internalType": "string",
          "name": "name",
          "type": "string"
        },
        {
          "internalType": "uint8",
          "name": "decimals",
          "type": "uint8"
        }
      ],
      "name": "addInstrument",
      "outputs": [
        {
          "internalType": "uint16",
          "name": "id",
          "type": "uint16"
        }
      ],
      "stateMutability": "nonpayable",
      "type": "function"
    },
    {
      "inputs": [
        {
          "internalType": "string",
          "name": "symbol",
          "type": "string"
        },
        {
          "internalType": "string",
          "name": "name",
          "type": "string"
        },
        {
          "internalType": "uint8",
          "name": "decimals",
          "type": "uint8"
        }
      ],
      "name": "updateInstrument",
      "outputs": [],
      "stateMutability": "nonpayable",
      "type": "function"
    },
    {
      "inputs": [
        {
          "internalType": "string",
          "name": "symbol",
          "type": "string"
        }
      ],
      "name": "getPrice",
      "outputs": [
        {
          "internalType": "uint128",
          "name": "",
          "type": "uint128"
        }
      ],
      "stateMutability": "view",
      "type": "function"
    },
    {
      "inputs": [
        {
          "internalType": "string",
          "name": "symbol",
          "type": "string"
        }
      ],
      "name": "timeStamp",
      "outputs": [
        {
          "internalType": "uint128",
          "name": "",
          "type": "uint128"
        }
      ],
      "stateMutability": "view",
      "type": "function"
    },
    {
      "inputs": [
        {
          "internalType": "string",
          "name": "symbol",
          "type": "string"
        }
      ],
      "name": "getDecimals",
      "outputs": [
        {
          "internalType": "uint8",
          "name": "",
          "type": "uint8"
        }
      ],
      "stateMutability": "view",
      "type": "function"
    }
  ],
  "bytecode": "0x60a06040526040516116c63803806116c683398101604081905261002291610072565b6001600160a01b03166080526000805462010000600160b01b0319163362010000810291909117909155600280546001600160a01b031990811683179091556001805490911690911790556100a2565b60006020828403121561008457600080fd5b81516001600160a01b038116811461009b57600080fd5b9392505050565b6080516116096100bd6000396000610cc701526116096000f3fe6080604052600436106101105760003560e01c806312d0e65a14610115578063132308b3146101375780631a83c4691461014a5780631ac5498a1461016a57806338af3eed1461018a5780633ef439ff146101c757806345c9c1d1146101ef5780634bb278f314610204578063506e4d9a14610219578063524f3889146102515780637a7a320614610271578063a1e381ef14610296578063a6c3e6b9146102b6578063aa9fa0c0146102dc578063ab16ef44146102fc578063ab808dbe1461032b578063ad7a978414610342578063afd0fd1d14610355578063b3f05b9714610387578063b5c105f3146103b8578063b6245535146103ce578063bc8a86d5146103ee578063df034cd01461044f575b600080fd5b34801561012157600080fd5b50610135610130366004610e01565b61046f565b005b610135610145366004610f23565b6104f4565b34801561015657600080fd5b50610135610165366004610e01565b610580565b34801561017657600080fd5b50610135610185366004610fce565b6105d2565b34801561019657600080fd5b506001546101aa906001600160a01b031681565b6040516001600160a01b0390911681526020015b60405180910390f35b3480156101d357600080fd5b506000546101e29061ffff1681565b6040516101be919061104b565b3480156101fb57600080fd5b506101356106b6565b34801561021057600080fd5b50610135610755565b34801561022557600080fd5b5061023961023436600461105a565b6107c4565b6040516001600160801b0390911681526020016101be565b34801561025d57600080fd5b5061023961026c36600461105a565b610814565b34801561027d57600080fd5b5061028862014bc081565b6040519081526020016101be565b3480156102a257600080fd5b506101e26102b1366004610fce565b61085d565b3480156102c257600080fd5b506000546101aa906201000090046001600160a01b031681565b3480156102e857600080fd5b506101356102f73660046110a5565b6109b3565b34801561030857600080fd5b5061031c61031736600461105a565b610a80565b6040516101be9392919061118a565b34801561033757600080fd5b50610288620156be81565b6101356103503660046111d3565b610b3e565b34801561036157600080fd5b5061037561037036600461105a565b610ba5565b60405160ff90911681526020016101be565b34801561039357600080fd5b506002546103a890600160a01b900460ff1681565b60405190151581526020016101be565b3480156103c457600080fd5b506102886158ac81565b3480156103da57600080fd5b506101356103e93660046111ee565b610bd3565b3480156103fa57600080fd5b5061042f6104093660046111d3565b6003602052600090815260409020546001600160801b0380821691600160801b90041682565b604080516001600160801b039384168152929091166020830152016101be565b34801561045b57600080fd5b506002546101aa906001600160a01b031681565b6000546201000090046001600160a01b031633146104a85760405162461bcd60e51b815260040161049f90611221565b60405180910390fd5b600254600160a01b900460ff16156104d25760405162461bcd60e51b815260040161049f90611256565b600180546001600160a01b0319166001600160a01b0392909216919091179055565b3a620156be6158ac8351610508919061128f565b61051291906112ac565b61051d90600261128f565b610527919061128f565b3410156105465760405162461bcd60e51b815260040161049f906112bf565b7f92e8536a39685bc7378a90e3c92685e764f6ef9816f1110c7c4f30d0c97d43fb816040516105759190611310565b60405180910390a150565b6000546201000090046001600160a01b031633146105b05760405162461bcd60e51b815260040161049f90611221565b600280546001600160a01b0319166001600160a01b0392909216919091179055565b6002546001600160a01b031633146105fc5760405162461bcd60e51b815260040161049f90611358565b600060048460405161060e9190611399565b9081526020016040518091039020905080600101805461062d906113b5565b905060000361068e5760405162461bcd60e51b815260206004820152602760248201527f53796d626f6c20646f65736e27742065786973742c2075736520616464496e736044820152661d1c9d5b595b9d60ca1b606482015260840161049f565b6001810161069c848261143e565b50600201805460ff191660ff929092169190911790555050565b6000546201000090046001600160a01b031633146106e65760405162461bcd60e51b815260040161049f90611221565b6001546040516001600160a01b03909116904780156108fc02916000818181858888f1935050505015801561071f573d6000803e3d6000fd5b506040514781527f1241ee7de620e23a422383ea2edb030a4d229d4e462e064085c36e5066b4bee19060200160405180910390a1565b6000546201000090046001600160a01b031633146107855760405162461bcd60e51b815260040161049f90611221565b600254600160a01b900460ff16156107af5760405162461bcd60e51b815260040161049f90611256565b6002805460ff60a01b1916600160a01b179055565b6000600360006004846040516107da9190611399565b90815260408051602092819003830190205461ffff168352908201929092520160002054600160801b90046001600160801b031692915050565b60006003600060048460405161082a9190611399565b90815260408051602092819003830190205461ffff1683529082019290925201600020546001600160801b031692915050565b6002546000906001600160a01b0316331461088a5760405162461bcd60e51b815260040161049f90611358565b600060048560405161089c9190611399565b908152602001604051809103902090508060010180546108bb906113b5565b15905061091d5760405162461bcd60e51b815260206004820152602a60248201527f53796d626f6c20616c72656164792065786973742c2075736520757064617465604482015269125b9cdd1c9d5b595b9d60b21b606482015260840161049f565b6000805461ffff169080610930836114fd565b82546101009290920a61ffff818102199093169183160217909155825461ffff1916911617815560018101610965858261143e565b5060028101805460ff851660ff19909116179055805461ffff908116600090815260036020526040902080546001600160801b03428116600160801b02911617905590541690509392505050565b6002546001600160a01b031633146109dd5760405162461bcd60e51b815260040161049f90611358565b815181518114610a1f5760405162461bcd60e51b815260206004820152600d60248201526c0c2e4e4c2f2e640d8cadccee8d609b1b604482015260640161049f565b60005b818161ffff161015610a7a57610a72848261ffff1681518110610a4757610a4761151e565b6020026020010151848361ffff1681518110610a6557610a6561151e565b6020026020010151610c0b565b600101610a22565b50505050565b80516020818301810180516004825292820191909301209152805460018201805461ffff9092169291610ab2906113b5565b80601f0160208091040260200160405190810160405280929190818152602001828054610ade906113b5565b8015610b2b5780601f10610b0057610100808354040283529160200191610b2b565b820191906000526020600020905b815481529060010190602001808311610b0e57829003601f168201915b5050506002909301549192505060ff1683565b3a610b4d62014bc0600261128f565b610b57919061128f565b341015610b765760405162461bcd60e51b815260040161049f906112bf565b7f01117e6b66ea540aaff99988c0d1a792003641983f3e71c26d8cd82372a8aa0081604051610575919061104b565b6000600482604051610bb79190611399565b9081526040519081900360200190206002015460ff1692915050565b6002546001600160a01b03163314610bfd5760405162461bcd60e51b815260040161049f90611358565b610c078282610c0b565b5050565b61ffff8216600090815260036020526040812080546001600160801b03428116600160801b029181168281179093551617908115610d9757826001600160801b0316826001600160801b031610610c6d57610c668383611534565b9050610c7a565b610c778284611534565b90505b60405163145f822b60e01b815260206004820152602160248201527f68696768566f6c6174696c6974794576656e744261727269657250657263656e6044820152601d60fa1b60648201527f00000000000000000000000000000000000000000000000000000000000000006001600160a01b03169063145f822b90608401602060405180830381865afa158015610d16573d6000803e3d6000fd5b505050506040513d601f19601f82011682018060405250810190610d3a919061155b565b82610d46836064611574565b610d50919061159f565b6001600160801b03161115610d97577f412637e8aa46ce4827b3aafc26c8c83022c58ea58524995da6a578168e57312584604051610d8e919061104b565b60405180910390a15b61ffff84166000908152600360205260409081902080546001600160801b0319166001600160801b038616179055517fb224e441908b4f23387312014c3971437a09bf702e76a0dfe3907fb68d5d148990610df390869061104b565b60405180910390a150505050565b600060208284031215610e1357600080fd5b81356001600160a01b0381168114610e2a57600080fd5b9392505050565b634e487b7160e01b600052604160045260246000fd5b604051601f8201601f191681016001600160401b0381118282101715610e6f57610e6f610e31565b604052919050565b60006001600160401b03821115610e9057610e90610e31565b5060051b60200190565b803561ffff81168114610eac57600080fd5b919050565b600082601f830112610ec257600080fd5b81356020610ed7610ed283610e77565b610e47565b82815260059290921b84018101918181019086841115610ef657600080fd5b8286015b84811015610f1857610f0b81610e9a565b8352918301918301610efa565b509695505050505050565b600060208284031215610f3557600080fd5b81356001600160401b03811115610f4b57600080fd5b610f5784828501610eb1565b949350505050565b600082601f830112610f7057600080fd5b81356001600160401b03811115610f8957610f89610e31565b610f9c601f8201601f1916602001610e47565b818152846020838601011115610fb157600080fd5b816020850160208301376000918101602001919091529392505050565b600080600060608486031215610fe357600080fd5b83356001600160401b0380821115610ffa57600080fd5b61100687838801610f5f565b9450602086013591508082111561101c57600080fd5b5061102986828701610f5f565b925050604084013560ff8116811461104057600080fd5b809150509250925092565b61ffff91909116815260200190565b60006020828403121561106c57600080fd5b81356001600160401b0381111561108257600080fd5b610f5784828501610f5f565b80356001600160801b0381168114610eac57600080fd5b600080604083850312156110b857600080fd5b82356001600160401b03808211156110cf57600080fd5b6110db86838701610eb1565b93506020915081850135818111156110f257600080fd5b85019050601f8101861361110557600080fd5b8035611113610ed282610e77565b81815260059190911b8201830190838101908883111561113257600080fd5b928401925b82841015611157576111488461108e565b82529284019290840190611137565b80955050505050509250929050565b60005b83811015611181578181015183820152602001611169565b50506000910152565b61ffff8416815260606020820152600083518060608401526111b3816080850160208801611166565b60ff93909316604083015250601f91909101601f19160160800192915050565b6000602082840312156111e557600080fd5b610e2a82610e9a565b6000806040838503121561120157600080fd5b61120a83610e9a565b91506112186020840161108e565b90509250929050565b6020808252818101527f546869732066756e6374696f6e20697320666f7220617574686f72206f6e6c79604082015260600190565b602080825260099082015268199a5b985b1a5e995960ba1b604082015260600190565b634e487b7160e01b600052601160045260246000fd5b80820281158282048414176112a6576112a6611279565b92915050565b808201808211156112a6576112a6611279565b60208082526031908201527f596f75206e65656420746f2070617373206d6f726520657468657220746f207260408201527032b8bab2b9ba103732bb90383934b1b29760791b606082015260800190565b6020808252825182820181905260009190848201906040850190845b8181101561134c57835161ffff168352928401929184019160010161132c565b50909695505050505050565b60208082526021908201527f546869732066756e6374696f6e20697320666f722075706461746572206f6e6c6040820152607960f81b606082015260800190565b600082516113ab818460208701611166565b9190910192915050565b600181811c908216806113c957607f821691505b6020821081036113e957634e487b7160e01b600052602260045260246000fd5b50919050565b601f82111561143957600081815260208120601f850160051c810160208610156114165750805b601f850160051c820191505b8181101561143557828155600101611422565b5050505b505050565b81516001600160401b0381111561145757611457610e31565b61146b8161146584546113b5565b846113ef565b602080601f8311600181146114a057600084156114885750858301515b600019600386901b1c1916600185901b178555611435565b600085815260208120601f198616915b828110156114cf578886015182559484019460019091019084016114b0565b50858210156114ed5787850151600019600388901b60f8161c191681555b5050505050600190811b01905550565b600061ffff80831681810361151457611514611279565b6001019392505050565b634e487b7160e01b600052603260045260246000fd5b6001600160801b0382811682821603908082111561155457611554611279565b5092915050565b60006020828403121561156d57600080fd5b5051919050565b6001600160801b0381811683821602808216919082811461159757611597611279565b505092915050565b60006001600160801b03838116806115c757634e487b7160e01b600052601260045260246000fd5b9216919091049291505056fea2646970667358221220e6974a6766803a1564e4bda425f624406a98b68f94f20407c95118c5e34cd2bb64736f6c63430008120033",
  "immutableReferences": {
    "5533": [
      {
        "length": 32,
        "start": 3271
      }
    ]
  },
  "source": "// SPDX-License-Identifier: UNLICENSED\r\npragma solidity 0.8.18;\r\nimport \"./IDAO.sol\";\r\n\r\ncontract exchangeRateContract {\r\n    IDAO immutable dao;\r\n\r\n    uint16 public instrumentsCount;\r\n\r\n    uint256 constant public updOnePriceGasCost = 84928;\r\n    uint256 constant public updSeveralPricesCost = 87742;\r\n    uint256 constant public updAdditionalPrice = 22700;\r\n\r\n    address public author;\r\n    address public beneficiary;\r\n    address public updater;\r\n\r\n    bool public finalized;\r\n\r\n    struct Instrument {\r\n        uint128 price;\r\n        uint128 timeStamp;\r\n    }\r\n\r\n    struct InstrumentDescription {\r\n        uint16 id;\r\n        string name;\r\n        uint8 decimals;\r\n    }\r\n\r\n    mapping(uint16 => Instrument) public instruments;\r\n    mapping(string => InstrumentDescription) public dictionary;\r\n\r\n    constructor(address _INTDAOaddress) payable{\r\n        dao = IDAO(_INTDAOaddress);\r\n        author = msg.sender;\r\n        updater = msg.sender;\r\n        beneficiary = msg.sender;\r\n    }\r\n\r\n    modifier onlyAuthor{\r\n        require(msg.sender == author, \"This function is for author only\");\r\n        _;\r\n    }\r\n\r\n    modifier onlyUpdater{\r\n        require(msg.sender == updater, \"This function is for updater only\");\r\n        _;\r\n    }\r\n\r\n    event priceUpdateRequest (uint16 id);\r\n    event severalPricesUpdateRequest (uint16[] ids);\r\n    event priceUpdated (uint16 id);\r\n    event profit (uint256 profit);\r\n    event highVolatility(uint16 id);\r\n\r\n    function changeBeneficiaryAddress(address payable newAddress) external onlyAuthor{\r\n        require(!finalized, \"finalized\");\r\n        beneficiary = newAddress;\r\n    }\r\n\r\n    function finalize() external  onlyAuthor{\r\n        require(!finalized, \"finalized\");\r\n        finalized = true;\r\n    }\r\n\r\n    function changeUpdaterAddress (address payable newAddress) external onlyAuthor{\r\n        updater = newAddress;\r\n    }\r\n\r\n    function requestPriceUpdate(uint16 id) external payable {\r\n        require (msg.value>=2*updOnePriceGasCost*tx.gasprice, \"You need to pass more ether to request new price.\");\r\n        emit priceUpdateRequest(id);\r\n    }\r\n\r\n    function requestMultiplePricesUpdate(uint16[] memory ids) external payable {\r\n        require (msg.value>= 2 * (ids.length * updAdditionalPrice + updSeveralPricesCost) * tx.gasprice, \"You need to pass more ether to request new price.\");\r\n        emit severalPricesUpdateRequest(ids);\r\n    }\r\n\r\n    function updateSeveralPrices(uint16[] memory ids, uint128[] memory prices) external onlyUpdater{\r\n        uint length = ids.length;\r\n        require(length==prices.length, \"arrays length\");\r\n        for (uint16 i = 0; i < length;) {\r\n            updPrice(ids[i], prices[i]);\r\n            unchecked {\r\n                ++i;\r\n            }\r\n        }\r\n    }\r\n\r\n    function transferProfit() external onlyAuthor{\r\n        payable(beneficiary).transfer(address(this).balance);\r\n        emit profit(address(this).balance);\r\n    }\r\n\r\n    function updateSinglePrice(uint16 id, uint128 newPrice) external onlyUpdater{\r\n        updPrice (id, newPrice);\r\n    }\r\n\r\n    function updPrice(uint16 id, uint128 newPrice) internal {\r\n        instruments[id].timeStamp = uint128(block.timestamp);\r\n        uint128 prevPrice = instruments[id].price;\r\n        uint128 move;\r\n        if (prevPrice!=0){\r\n            if (prevPrice >= newPrice)\r\n                move = prevPrice - newPrice;\r\n            else\r\n                move = newPrice - prevPrice;\r\n            if ((move * 100) / prevPrice > dao.params(\"highVolatilityEventBarrierPercent\"))\r\n                emit highVolatility(id);\r\n        }\r\n        instruments[id].price = newPrice;\r\n        emit priceUpdated (id);\r\n    }\r\n\r\n    function addInstrument(string memory symbol, string memory name, uint8 decimals) external onlyUpdater returns (uint16 id){\r\n        InstrumentDescription storage newInstrumentDescription = dictionary[symbol];\r\n        require (bytes(newInstrumentDescription.name).length == 0, \"Symbol already exist, use updateInstrument\");\r\n        newInstrumentDescription.id = instrumentsCount++;\r\n        newInstrumentDescription.name = name;\r\n        newInstrumentDescription.decimals = decimals;\r\n        instruments[newInstrumentDescription.id].timeStamp = uint128(block.timestamp);\r\n        return newInstrumentDescription.id;\r\n    }\r\n\r\n    function updateInstrument(string memory symbol, string memory name, uint8 decimals) external onlyUpdater{\r\n        InstrumentDescription storage newInstrumentDescription = dictionary[symbol];\r\n        require(bytes(newInstrumentDescription.name).length != 0,\r\n            \"Symbol doesn't exist, use addInstrument\");\r\n        newInstrumentDescription.name = name;\r\n        newInstrumentDescription.decimals = decimals;\r\n    }\r\n\r\n    function getPrice(string memory symbol) external view returns (uint128) {\r\n        return instruments[dictionary[symbol].id].price;\r\n    }\r\n\r\n    function timeStamp(string memory symbol) external view returns (uint128) {\r\n        return instruments[dictionary[symbol].id].timeStamp;\r\n    }\r\n\r\n    function getDecimals(string memory symbol) external view returns (uint8) {\r\n        return dictionary[symbol].decimals;\r\n    }\r\n}\r\n",
  "sourcePath": "C:\\Users\\d.nagornykh\\YandexDisk\\\\ICO\\CryptoFiat\\repo\\contracts\\exchangeRateContract.sol",
  "compiler": {
    "name": "solc",
    "version": "0.8.18+commit.87f61d96.Emscripten.clang"
  },
  "schemaVersion": "3.4.14",
  "updatedAt": "2023-09-29T08:17:48.149Z",
  "devdoc": {
    "kind": "dev",
    "methods": {},
    "version": 1
  },
  "userdoc": {
    "kind": "user",
    "methods": {},
    "version": 1
  }
}