{
  "contractName": "exchangeRateContract",
  "abi": [
    {
      "inputs": [
        {
          "internalType": "address payable",
          "name": "_INTDAOaddress",
          "type": "address"
        }
      ],
      "stateMutability": "payable",
      "type": "constructor",
      "payable": true
    },
    {
      "anonymous": false,
      "inputs": [
        {
          "indexed": false,
          "internalType": "uint256",
          "name": "id",
          "type": "uint256"
        }
      ],
      "name": "priceUpdateRequest",
      "type": "event"
    },
    {
      "anonymous": false,
      "inputs": [
        {
          "indexed": false,
          "internalType": "uint256",
          "name": "id",
          "type": "uint256"
        }
      ],
      "name": "priceUpdated",
      "type": "event"
    },
    {
      "anonymous": false,
      "inputs": [
        {
          "indexed": false,
          "internalType": "uint256",
          "name": "profit",
          "type": "uint256"
        }
      ],
      "name": "profit",
      "type": "event"
    },
    {
      "anonymous": false,
      "inputs": [
        {
          "indexed": false,
          "internalType": "uint256[]",
          "name": "ids",
          "type": "uint256[]"
        }
      ],
      "name": "severalPricesUpdateRequest",
      "type": "event"
    },
    {
      "inputs": [],
      "name": "author",
      "outputs": [
        {
          "internalType": "address payable",
          "name": "",
          "type": "address"
        }
      ],
      "stateMutability": "view",
      "type": "function",
      "constant": true
    },
    {
      "inputs": [],
      "name": "beneficiary",
      "outputs": [
        {
          "internalType": "address payable",
          "name": "",
          "type": "address"
        }
      ],
      "stateMutability": "view",
      "type": "function",
      "constant": true
    },
    {
      "inputs": [
        {
          "internalType": "string",
          "name": "",
          "type": "string"
        }
      ],
      "name": "dictionary",
      "outputs": [
        {
          "internalType": "uint256",
          "name": "id",
          "type": "uint256"
        },
        {
          "internalType": "string",
          "name": "name",
          "type": "string"
        },
        {
          "internalType": "uint256",
          "name": "decimals",
          "type": "uint256"
        }
      ],
      "stateMutability": "view",
      "type": "function",
      "constant": true
    },
    {
      "inputs": [],
      "name": "finalized",
      "outputs": [
        {
          "internalType": "bool",
          "name": "",
          "type": "bool"
        }
      ],
      "stateMutability": "view",
      "type": "function",
      "constant": true
    },
    {
      "inputs": [
        {
          "internalType": "uint256",
          "name": "",
          "type": "uint256"
        }
      ],
      "name": "instruments",
      "outputs": [
        {
          "internalType": "uint256",
          "name": "price",
          "type": "uint256"
        },
        {
          "internalType": "uint256",
          "name": "timeStamp",
          "type": "uint256"
        }
      ],
      "stateMutability": "view",
      "type": "function",
      "constant": true
    },
    {
      "inputs": [],
      "name": "instrumentsCount",
      "outputs": [
        {
          "internalType": "uint256",
          "name": "",
          "type": "uint256"
        }
      ],
      "stateMutability": "view",
      "type": "function",
      "constant": true
    },
    {
      "inputs": [],
      "name": "subscriptionsCount",
      "outputs": [
        {
          "internalType": "uint256",
          "name": "",
          "type": "uint256"
        }
      ],
      "stateMutability": "view",
      "type": "function",
      "constant": true
    },
    {
      "inputs": [],
      "name": "updAdditionalPrice",
      "outputs": [
        {
          "internalType": "uint256",
          "name": "",
          "type": "uint256"
        }
      ],
      "stateMutability": "view",
      "type": "function",
      "constant": true
    },
    {
      "inputs": [],
      "name": "updOnePriceGasCost",
      "outputs": [
        {
          "internalType": "uint256",
          "name": "",
          "type": "uint256"
        }
      ],
      "stateMutability": "view",
      "type": "function",
      "constant": true
    },
    {
      "inputs": [],
      "name": "updSeveralPricesCost",
      "outputs": [
        {
          "internalType": "uint256",
          "name": "",
          "type": "uint256"
        }
      ],
      "stateMutability": "view",
      "type": "function",
      "constant": true
    },
    {
      "inputs": [],
      "name": "updater",
      "outputs": [
        {
          "internalType": "address payable",
          "name": "",
          "type": "address"
        }
      ],
      "stateMutability": "view",
      "type": "function",
      "constant": true
    },
    {
      "inputs": [
        {
          "internalType": "address payable",
          "name": "newAddress",
          "type": "address"
        }
      ],
      "name": "changeBeneficiaryAddress",
      "outputs": [],
      "stateMutability": "nonpayable",
      "type": "function"
    },
    {
      "inputs": [],
      "name": "finalize",
      "outputs": [],
      "stateMutability": "nonpayable",
      "type": "function"
    },
    {
      "inputs": [
        {
          "internalType": "address payable",
          "name": "newAddress",
          "type": "address"
        }
      ],
      "name": "changeUpdaterAddress",
      "outputs": [],
      "stateMutability": "nonpayable",
      "type": "function"
    },
    {
      "inputs": [
        {
          "internalType": "uint256",
          "name": "id",
          "type": "uint256"
        }
      ],
      "name": "requestPriceUpdate",
      "outputs": [],
      "stateMutability": "payable",
      "type": "function",
      "payable": true
    },
    {
      "inputs": [
        {
          "internalType": "uint256[]",
          "name": "ids",
          "type": "uint256[]"
        }
      ],
      "name": "requestMultiplePricesUpdate",
      "outputs": [],
      "stateMutability": "payable",
      "type": "function",
      "payable": true
    },
    {
      "inputs": [
        {
          "internalType": "uint256[]",
          "name": "ids",
          "type": "uint256[]"
        },
        {
          "internalType": "uint256[]",
          "name": "prices",
          "type": "uint256[]"
        }
      ],
      "name": "updateSeveralPrices",
      "outputs": [],
      "stateMutability": "nonpayable",
      "type": "function"
    },
    {
      "inputs": [],
      "name": "transferProfit",
      "outputs": [],
      "stateMutability": "nonpayable",
      "type": "function"
    },
    {
      "inputs": [
        {
          "internalType": "uint256",
          "name": "id",
          "type": "uint256"
        },
        {
          "internalType": "uint256",
          "name": "newPrice",
          "type": "uint256"
        }
      ],
      "name": "updateSinglePrice",
      "outputs": [],
      "stateMutability": "nonpayable",
      "type": "function"
    },
    {
      "inputs": [
        {
          "internalType": "string",
          "name": "symbol",
          "type": "string"
        },
        {
          "internalType": "string",
          "name": "name",
          "type": "string"
        },
        {
          "internalType": "uint256",
          "name": "decimals",
          "type": "uint256"
        }
      ],
      "name": "addInstrument",
      "outputs": [
        {
          "internalType": "uint256",
          "name": "id",
          "type": "uint256"
        }
      ],
      "stateMutability": "nonpayable",
      "type": "function"
    },
    {
      "inputs": [
        {
          "internalType": "string",
          "name": "symbol",
          "type": "string"
        },
        {
          "internalType": "string",
          "name": "name",
          "type": "string"
        },
        {
          "internalType": "uint256",
          "name": "decimals",
          "type": "uint256"
        }
      ],
      "name": "updateInstrument",
      "outputs": [],
      "stateMutability": "nonpayable",
      "type": "function"
    },
    {
      "inputs": [
        {
          "internalType": "string",
          "name": "symbol",
          "type": "string"
        }
      ],
      "name": "getPrice",
      "outputs": [
        {
          "internalType": "uint256",
          "name": "",
          "type": "uint256"
        }
      ],
      "stateMutability": "view",
      "type": "function",
      "constant": true
    },
    {
      "inputs": [
        {
          "internalType": "string",
          "name": "symbol",
          "type": "string"
        }
      ],
      "name": "timeStamp",
      "outputs": [
        {
          "internalType": "uint256",
          "name": "",
          "type": "uint256"
        }
      ],
      "stateMutability": "view",
      "type": "function",
      "constant": true
    },
    {
      "inputs": [
        {
          "internalType": "string",
          "name": "symbol",
          "type": "string"
        }
      ],
      "name": "getDecimals",
      "outputs": [
        {
          "internalType": "uint256",
          "name": "",
          "type": "uint256"
        }
      ],
      "stateMutability": "view",
      "type": "function",
      "constant": true
    }
  ],
  "bytecode": "0x60806040526040516200201d3803806200201d833981810160405281019062000029919062000191565b60008190508073ffffffffffffffffffffffffffffffffffffffff16632abdf04e306040518263ffffffff1660e01b815260040162000069919062000235565b600060405180830381600087803b1580156200008457600080fd5b505af115801562000099573d6000803e3d6000fd5b5050505033600260006101000a81548173ffffffffffffffffffffffffffffffffffffffff021916908373ffffffffffffffffffffffffffffffffffffffff16021790555033600460006101000a81548173ffffffffffffffffffffffffffffffffffffffff021916908373ffffffffffffffffffffffffffffffffffffffff160217905550505062000267565b600080fd5b600073ffffffffffffffffffffffffffffffffffffffff82169050919050565b600062000159826200012c565b9050919050565b6200016b816200014c565b81146200017757600080fd5b50565b6000815190506200018b8162000160565b92915050565b600060208284031215620001aa57620001a962000127565b5b6000620001ba848285016200017a565b91505092915050565b600082825260208201905092915050565b7f6f7261636c650000000000000000000000000000000000000000000000000000600082015250565b60006200020c600683620001c3565b91506200021982620001d4565b602082019050919050565b6200022f816200014c565b82525050565b600060408201905081810360008301526200025081620001fd565b905062000261602083018462000224565b92915050565b611da680620002776000396000f3fe60806040526004361061014b5760003560e01c80639f923923116100b6578063afd0fd1d1161006f578063afd0fd1d14610474578063b3f05b97146104b1578063b5c105f3146104dc578063df034cd014610507578063e25a9ed114610532578063ee53e6a31461055b5761014b565b80639f92392314610350578063a00b54b414610379578063a6c3e6b9146103a2578063ab16ef44146103cd578063ab808dbe1461040c578063ac05cf8d146104375761014b565b80634bb278f3116101085780634bb278f31461024d578063506e4d9a14610264578063524f3889146102a1578063746d4b47146102de5780637a7a3206146102fa57806388112fcb146103255761014b565b806312d0e65a146101505780631a83c4691461017957806322bbad0b146101a257806338af3eed146101e05780633ef439ff1461020b57806345c9c1d114610236575b600080fd5b34801561015c57600080fd5b5061017760048036038101906101729190611277565b610577565b005b34801561018557600080fd5b506101a0600480360381019061019b9190611277565b610660565b005b3480156101ae57600080fd5b506101c960048036038101906101c491906112da565b610734565b6040516101d7929190611316565b60405180910390f35b3480156101ec57600080fd5b506101f5610758565b604051610202919061134e565b60405180910390f35b34801561021757600080fd5b5061022061077e565b60405161022d9190611369565b60405180910390f35b34801561024257600080fd5b5061024b610784565b005b34801561025957600080fd5b506102626108b6565b005b34801561027057600080fd5b5061028b600480360381019061028691906114ca565b610978565b6040516102989190611369565b60405180910390f35b3480156102ad57600080fd5b506102c860048036038101906102c391906114ca565b6109b9565b6040516102d59190611369565b60405180910390f35b6102f860048036038101906102f391906115db565b6109fa565b005b34801561030657600080fd5b5061030f610aaa565b60405161031c9190611369565b60405180910390f35b34801561033157600080fd5b5061033a610ab1565b6040516103479190611369565b60405180910390f35b34801561035c57600080fd5b5061037760048036038101906103729190611624565b610ab7565b005b34801561038557600080fd5b506103a0600480360381019061039b919061169c565b610ba9565b005b3480156103ae57600080fd5b506103b7610c47565b6040516103c4919061134e565b60405180910390f35b3480156103d957600080fd5b506103f460048036038101906103ef91906114ca565b610c6d565b60405161040393929190611764565b60405180910390f35b34801561041857600080fd5b50610421610d35565b60405161042e9190611369565b60405180910390f35b34801561044357600080fd5b5061045e600480360381019061045991906117a2565b610d3c565b60405161046b9190611369565b60405180910390f35b34801561048057600080fd5b5061049b600480360381019061049691906114ca565b610eff565b6040516104a89190611369565b60405180910390f35b3480156104bd57600080fd5b506104c6610f2a565b6040516104d39190611848565b60405180910390f35b3480156104e857600080fd5b506104f1610f3d565b6040516104fe9190611369565b60405180910390f35b34801561051357600080fd5b5061051c610f43565b604051610529919061134e565b60405180910390f35b34801561053e57600080fd5b50610559600480360381019061055491906117a2565b610f69565b005b610575600480360381019061057091906112da565b61105a565b005b600260009054906101000a900473ffffffffffffffffffffffffffffffffffffffff1673ffffffffffffffffffffffffffffffffffffffff163373ffffffffffffffffffffffffffffffffffffffff1614610607576040517f08c379a00000000000000000000000000000000000000000000000000000000081526004016105fe906118af565b60405180910390fd5b600460149054906101000a900460ff1661065d5780600360006101000a81548173ffffffffffffffffffffffffffffffffffffffff021916908373ffffffffffffffffffffffffffffffffffffffff1602179055505b50565b600260009054906101000a900473ffffffffffffffffffffffffffffffffffffffff1673ffffffffffffffffffffffffffffffffffffffff163373ffffffffffffffffffffffffffffffffffffffff16146106f0576040517f08c379a00000000000000000000000000000000000000000000000000000000081526004016106e7906118af565b60405180910390fd5b80600460006101000a81548173ffffffffffffffffffffffffffffffffffffffff021916908373ffffffffffffffffffffffffffffffffffffffff16021790555050565b60056020528060005260406000206000915090508060000154908060010154905082565b600360009054906101000a900473ffffffffffffffffffffffffffffffffffffffff1681565b60015481565b600260009054906101000a900473ffffffffffffffffffffffffffffffffffffffff1673ffffffffffffffffffffffffffffffffffffffff163373ffffffffffffffffffffffffffffffffffffffff1614610814576040517f08c379a000000000000000000000000000000000000000000000000000000000815260040161080b906118af565b60405180910390fd5b600360009054906101000a900473ffffffffffffffffffffffffffffffffffffffff1673ffffffffffffffffffffffffffffffffffffffff166108fc479081150290604051600060405180830381858888f1935050505015801561087c573d6000803e3d6000fd5b507f1241ee7de620e23a422383ea2edb030a4d229d4e462e064085c36e5066b4bee1476040516108ac9190611369565b60405180910390a1565b600260009054906101000a900473ffffffffffffffffffffffffffffffffffffffff1673ffffffffffffffffffffffffffffffffffffffff163373ffffffffffffffffffffffffffffffffffffffff1614610946576040517f08c379a000000000000000000000000000000000000000000000000000000000815260040161093d906118af565b60405180910390fd5b600460149054906101000a900460ff16610976576001600460146101000a81548160ff0219169083151502179055505b565b60006005600060068460405161098e919061190b565b9081526020016040518091039020600001548152602001908152602001600020600101549050919050565b6000600560006006846040516109cf919061190b565b9081526020016040518091039020600001548152602001908152602001600020600001549050919050565b3a620156be6158ac8351610a0e9190611951565b610a1891906119ab565b6002610a249190611951565b610a2e9190611951565b341015610a70576040517f08c379a0000000000000000000000000000000000000000000000000000000008152600401610a6790611a73565b60405180910390fd5b7f58af8d856ac490ff1114cbaf134ef670a4d9b423035b40ff141ec7c18162025b81604051610a9f9190611b51565b60405180910390a150565b62014bc081565b60005481565b600460009054906101000a900473ffffffffffffffffffffffffffffffffffffffff1673ffffffffffffffffffffffffffffffffffffffff163373ffffffffffffffffffffffffffffffffffffffff1614610b47576040517f08c379a0000000000000000000000000000000000000000000000000000000008152600401610b3e90611be5565b60405180910390fd5b60005b8251811015610ba457610b91838281518110610b6957610b68611c05565b5b6020026020010151838381518110610b8457610b83611c05565b5b60200260200101516110f1565b8080610b9c90611c34565b915050610b4a565b505050565b600460009054906101000a900473ffffffffffffffffffffffffffffffffffffffff1673ffffffffffffffffffffffffffffffffffffffff163373ffffffffffffffffffffffffffffffffffffffff1614610c39576040517f08c379a0000000000000000000000000000000000000000000000000000000008152600401610c3090611be5565b60405180910390fd5b610c4382826110f1565b5050565b600260009054906101000a900473ffffffffffffffffffffffffffffffffffffffff1681565b600681805160208101820180518482526020830160208501208183528095505050505050600091509050806000015490806001018054610cac90611cac565b80601f0160208091040260200160405190810160405280929190818152602001828054610cd890611cac565b8015610d255780601f10610cfa57610100808354040283529160200191610d25565b820191906000526020600020905b815481529060010190602001808311610d0857829003601f168201915b5050505050908060020154905083565b620156be81565b6000600460009054906101000a900473ffffffffffffffffffffffffffffffffffffffff1673ffffffffffffffffffffffffffffffffffffffff163373ffffffffffffffffffffffffffffffffffffffff1614610dce576040517f08c379a0000000000000000000000000000000000000000000000000000000008152600401610dc590611be5565b60405180910390fd5b6000600685604051610de0919061190b565b90815260200160405180910390206001018054610dfc90611cac565b905014610e3e576040517f08c379a0000000000000000000000000000000000000000000000000000000008152600401610e3590611d50565b60405180910390fd5b600154905080600685604051610e54919061190b565b90815260200160405180910390206000018190555082600685604051610e7a919061190b565b90815260200160405180910390206001019080519060200190610e9e929190611162565b5081600685604051610eb0919061190b565b90815260200160405180910390206002018190555042600560008381526020019081526020016000206001018190555060016000815480929190610ef390611c34565b91905055509392505050565b6000600682604051610f11919061190b565b9081526020016040518091039020600201549050919050565b600460149054906101000a900460ff1681565b6158ac81565b600460009054906101000a900473ffffffffffffffffffffffffffffffffffffffff1681565b600460009054906101000a900473ffffffffffffffffffffffffffffffffffffffff1673ffffffffffffffffffffffffffffffffffffffff163373ffffffffffffffffffffffffffffffffffffffff1614610ff9576040517f08c379a0000000000000000000000000000000000000000000000000000000008152600401610ff090611be5565b60405180910390fd5b8160068460405161100a919061190b565b9081526020016040518091039020600101908051906020019061102e929190611162565b5080600684604051611040919061190b565b908152602001604051809103902060020181905550505050565b3a62014bc0600261106b9190611951565b6110759190611951565b3410156110b7576040517f08c379a00000000000000000000000000000000000000000000000000000000081526004016110ae90611a73565b60405180910390fd5b7f4cde581ee30e43ea6bf5e51258bea0607e593191ae8c9952433596e7c40893ed816040516110e69190611369565b60405180910390a150565b4260056000848152602001908152602001600020600101819055508060056000848152602001908152602001600020600001819055507fba183368bdfb67a6c0e60b2a8666381c33610509a956ac629eaae3874e0063e5826040516111569190611369565b60405180910390a15050565b82805461116e90611cac565b90600052602060002090601f01602090048101928261119057600085556111d7565b82601f106111a957805160ff19168380011785556111d7565b828001600101855582156111d7579182015b828111156111d65782518255916020019190600101906111bb565b5b5090506111e491906111e8565b5090565b5b808211156112015760008160009055506001016111e9565b5090565b6000604051905090565b600080fd5b600080fd5b600073ffffffffffffffffffffffffffffffffffffffff82169050919050565b600061124482611219565b9050919050565b61125481611239565b811461125f57600080fd5b50565b6000813590506112718161124b565b92915050565b60006020828403121561128d5761128c61120f565b5b600061129b84828501611262565b91505092915050565b6000819050919050565b6112b7816112a4565b81146112c257600080fd5b50565b6000813590506112d4816112ae565b92915050565b6000602082840312156112f0576112ef61120f565b5b60006112fe848285016112c5565b91505092915050565b611310816112a4565b82525050565b600060408201905061132b6000830185611307565b6113386020830184611307565b9392505050565b61134881611239565b82525050565b6000602082019050611363600083018461133f565b92915050565b600060208201905061137e6000830184611307565b92915050565b600080fd5b600080fd5b6000601f19601f8301169050919050565b7f4e487b7100000000000000000000000000000000000000000000000000000000600052604160045260246000fd5b6113d78261138e565b810181811067ffffffffffffffff821117156113f6576113f561139f565b5b80604052505050565b6000611409611205565b905061141582826113ce565b919050565b600067ffffffffffffffff8211156114355761143461139f565b5b61143e8261138e565b9050602081019050919050565b82818337600083830152505050565b600061146d6114688461141a565b6113ff565b90508281526020810184848401111561148957611488611389565b5b61149484828561144b565b509392505050565b600082601f8301126114b1576114b0611384565b5b81356114c184826020860161145a565b91505092915050565b6000602082840312156114e0576114df61120f565b5b600082013567ffffffffffffffff8111156114fe576114fd611214565b5b61150a8482850161149c565b91505092915050565b600067ffffffffffffffff82111561152e5761152d61139f565b5b602082029050602081019050919050565b600080fd5b600061155761155284611513565b6113ff565b9050808382526020820190506020840283018581111561157a5761157961153f565b5b835b818110156115a3578061158f88826112c5565b84526020840193505060208101905061157c565b5050509392505050565b600082601f8301126115c2576115c1611384565b5b81356115d2848260208601611544565b91505092915050565b6000602082840312156115f1576115f061120f565b5b600082013567ffffffffffffffff81111561160f5761160e611214565b5b61161b848285016115ad565b91505092915050565b6000806040838503121561163b5761163a61120f565b5b600083013567ffffffffffffffff81111561165957611658611214565b5b611665858286016115ad565b925050602083013567ffffffffffffffff81111561168657611685611214565b5b611692858286016115ad565b9150509250929050565b600080604083850312156116b3576116b261120f565b5b60006116c1858286016112c5565b92505060206116d2858286016112c5565b9150509250929050565b600081519050919050565b600082825260208201905092915050565b60005b838110156117165780820151818401526020810190506116fb565b83811115611725576000848401525b50505050565b6000611736826116dc565b61174081856116e7565b93506117508185602086016116f8565b6117598161138e565b840191505092915050565b60006060820190506117796000830186611307565b818103602083015261178b818561172b565b905061179a6040830184611307565b949350505050565b6000806000606084860312156117bb576117ba61120f565b5b600084013567ffffffffffffffff8111156117d9576117d8611214565b5b6117e58682870161149c565b935050602084013567ffffffffffffffff81111561180657611805611214565b5b6118128682870161149c565b9250506040611823868287016112c5565b9150509250925092565b60008115159050919050565b6118428161182d565b82525050565b600060208201905061185d6000830184611839565b92915050565b7f546869732066756e6374696f6e20697320666f7220617574686f72206f6e6c79600082015250565b60006118996020836116e7565b91506118a482611863565b602082019050919050565b600060208201905081810360008301526118c88161188c565b9050919050565b600081905092915050565b60006118e5826116dc565b6118ef81856118cf565b93506118ff8185602086016116f8565b80840191505092915050565b600061191782846118da565b915081905092915050565b7f4e487b7100000000000000000000000000000000000000000000000000000000600052601160045260246000fd5b600061195c826112a4565b9150611967836112a4565b9250817fffffffffffffffffffffffffffffffffffffffffffffffffffffffffffffffff04831182151516156119a05761199f611922565b5b828202905092915050565b60006119b6826112a4565b91506119c1836112a4565b9250827fffffffffffffffffffffffffffffffffffffffffffffffffffffffffffffffff038211156119f6576119f5611922565b5b828201905092915050565b7f596f75206e65656420746f2070617373206d6f726520657468657220746f207260008201527f657175657374206e65772070726963652e000000000000000000000000000000602082015250565b6000611a5d6031836116e7565b9150611a6882611a01565b604082019050919050565b60006020820190508181036000830152611a8c81611a50565b9050919050565b600081519050919050565b600082825260208201905092915050565b6000819050602082019050919050565b611ac8816112a4565b82525050565b6000611ada8383611abf565b60208301905092915050565b6000602082019050919050565b6000611afe82611a93565b611b088185611a9e565b9350611b1383611aaf565b8060005b83811015611b44578151611b2b8882611ace565b9750611b3683611ae6565b925050600181019050611b17565b5085935050505092915050565b60006020820190508181036000830152611b6b8184611af3565b905092915050565b7f546869732066756e6374696f6e20697320666f722075706461746572206f6e6c60008201527f7900000000000000000000000000000000000000000000000000000000000000602082015250565b6000611bcf6021836116e7565b9150611bda82611b73565b604082019050919050565b60006020820190508181036000830152611bfe81611bc2565b9050919050565b7f4e487b7100000000000000000000000000000000000000000000000000000000600052603260045260246000fd5b6000611c3f826112a4565b91507fffffffffffffffffffffffffffffffffffffffffffffffffffffffffffffffff821415611c7257611c71611922565b5b600182019050919050565b7f4e487b7100000000000000000000000000000000000000000000000000000000600052602260045260246000fd5b60006002820490506001821680611cc457607f821691505b60208210811415611cd857611cd7611c7d565b5b50919050565b7f53796d626f6c20616c72656164792065786973742c207573652075706461746560008201527f496e737472756d656e7400000000000000000000000000000000000000000000602082015250565b6000611d3a602a836116e7565b9150611d4582611cde565b604082019050919050565b60006020820190508181036000830152611d6981611d2d565b905091905056fea26469706673582212205d131e89dcb980742738a65b9696ddb6c4d3741e3efecd20bbcb66ea3073ade064736f6c634300080a0033",
  "immutableReferences": {},
  "source": "// SPDX-License-Identifier: UNLICENSED\r\npragma solidity >=0.4.22 <0.9.0;\r\n\r\n    struct Instrument {\r\n        uint256 price;\r\n        uint256 timeStamp;\r\n    }\r\n\r\n    struct instrumentDescription {\r\n        uint256 id;\r\n        string name;\r\n        uint256 decimals;\r\n    }\r\nimport \"./INTDAO.sol\";\r\n\r\ncontract exchangeRateContract {\r\n\r\n    constructor(address payable _INTDAOaddress) payable{\r\n        INTDAO dao = INTDAO(_INTDAOaddress);\r\n        dao.setAddressOnce(\"oracle\", payable(address(this)));\r\n        author = payable(msg.sender);\r\n        updater = payable(msg.sender);\r\n    }\r\n\r\n    uint256 public subscriptionsCount;\r\n    uint256 public instrumentsCount;\r\n\r\n    //TODO: check this prices\r\n    uint256 constant public updOnePriceGasCost = 84928;\r\n    uint256 constant public updSeveralPricesCost = 87742;\r\n    uint256 constant public updAdditionalPrice = 22700;\r\n\r\n    address payable public author;\r\n    address payable public beneficiary;\r\n    address payable public updater;\r\n\r\n    bool public finalized;\r\n\r\n    mapping(uint256 => Instrument) public instruments;\r\n    mapping(string => instrumentDescription) public dictionary;\r\n\r\n    modifier onlyAuthor{\r\n        require(msg.sender == author, \"This function is for author only\");\r\n        _;\r\n    }\r\n\r\n    modifier onlyUpdater{\r\n        require(msg.sender == updater, \"This function is for updater only\");\r\n        _;\r\n    }\r\n\r\n    event priceUpdateRequest (uint256 id);\r\n    event severalPricesUpdateRequest (uint256[] ids);\r\n    event priceUpdated (uint256 id);\r\n    event profit (uint256 profit);\r\n\r\n    function changeBeneficiaryAddress(address payable newAddress) public onlyAuthor{\r\n        if (!finalized)\r\n            beneficiary = newAddress;\r\n    }\r\n\r\n    function finalize() public onlyAuthor{\r\n        if (!finalized)\r\n            finalized = true;\r\n    }\r\n\r\n    function changeUpdaterAddress (address payable newAddress) public onlyAuthor{\r\n        updater = newAddress;\r\n    }\r\n\r\n    function requestPriceUpdate(uint256 id) public payable {\r\n        require (msg.value>=2*updOnePriceGasCost*tx.gasprice, \"You need to pass more ether to request new price.\");\r\n        emit priceUpdateRequest(id);\r\n    }\r\n\r\n    function requestMultiplePricesUpdate(uint256[] memory ids) public payable {\r\n        require (msg.value>= 2 * (ids.length * updAdditionalPrice + updSeveralPricesCost) * tx.gasprice, \"You need to pass more ether to request new price.\");\r\n        emit severalPricesUpdateRequest (ids);\r\n    }\r\n\r\n    function updateSeveralPrices(uint256[] memory ids, uint256[] memory prices) public onlyUpdater{\r\n        for (uint i=0; i<ids.length; i++)\r\n            updPrice (ids[i], prices[i]);\r\n    }\r\n\r\n    function transferProfit() public onlyAuthor{\r\n        beneficiary.transfer(address(this).balance);\r\n        emit profit(address(this).balance);\r\n    }\r\n\r\n    function updateSinglePrice(uint256 id, uint256 newPrice) public onlyUpdater{\r\n        updPrice (id, newPrice);\r\n    }\r\n\r\n    function updPrice(uint256 id, uint256 newPrice) internal {\r\n        instruments[id].timeStamp = block.timestamp;\r\n        instruments[id].price = newPrice;\r\n        emit priceUpdated (id);\r\n    }\r\n\r\n    function addInstrument(string memory symbol, string memory name, uint256 decimals) public onlyUpdater returns (uint256 id){\r\n        require (bytes (dictionary[symbol].name).length == 0, \"Symbol already exist, use updateInstrument\");\r\n        id = instrumentsCount;\r\n        dictionary[symbol].id = id;\r\n        dictionary[symbol].name = name;\r\n        dictionary[symbol].decimals = decimals;\r\n        instruments[id].timeStamp = block.timestamp;\r\n        instrumentsCount++;\r\n        return id;\r\n    }\r\n\r\n    function updateInstrument(string memory symbol, string memory name, uint decimals) public onlyUpdater{\r\n        dictionary[symbol].name = name;\r\n        dictionary[symbol].decimals = decimals;\r\n    }\r\n\r\n    function getPrice(string memory symbol) public view returns (uint256) {\r\n        return instruments[dictionary[symbol].id].price;\r\n    }\r\n\r\n    function timeStamp(string memory symbol) public view returns (uint256) {\r\n        return instruments[dictionary[symbol].id].timeStamp;\r\n    }\r\n\r\n    function getDecimals(string memory symbol) public view returns (uint256) {\r\n        return dictionary[symbol].decimals;\r\n    }\r\n}\r\n",
  "sourcePath": "C:\\Users\\d.nagornykh\\YandexDisk\\\\ICO\\CryptoFiat\\repo\\contracts\\exchangeRateContract.sol",
  "compiler": {
    "name": "solc",
    "version": "0.8.10+commit.fc410830.Emscripten.clang"
  },
  "schemaVersion": "3.4.11",
  "updatedAt": "2023-03-14T08:57:34.399Z",
  "networkType": "ethereum",
  "devdoc": {
    "kind": "dev",
    "methods": {},
    "version": 1
  },
  "userdoc": {
    "kind": "user",
    "methods": {},
    "version": 1
  }
}