{
  "contractName": "InflationFund",
  "abi": [
    {
      "inputs": [
        {
          "internalType": "address",
          "name": "_INTDAOaddress",
          "type": "address"
        }
      ],
      "stateMutability": "nonpayable",
      "type": "constructor"
    },
    {
      "anonymous": false,
      "inputs": [
        {
          "indexed": false,
          "internalType": "uint256",
          "name": "amount",
          "type": "uint256"
        },
        {
          "indexed": false,
          "internalType": "address",
          "name": "spender",
          "type": "address"
        }
      ],
      "name": "inflationEmission",
      "type": "event"
    },
    {
      "inputs": [],
      "name": "lastEmission",
      "outputs": [
        {
          "internalType": "uint256",
          "name": "",
          "type": "uint256"
        }
      ],
      "stateMutability": "view",
      "type": "function"
    },
    {
      "inputs": [],
      "name": "renewContracts",
      "outputs": [],
      "stateMutability": "nonpayable",
      "type": "function"
    },
    {
      "inputs": [],
      "name": "claimEmission",
      "outputs": [],
      "stateMutability": "nonpayable",
      "type": "function"
    }
  ],
  "bytecode": "0x60a060405234801561001057600080fd5b5060405161075b38038061075b83398101604081905261002f91610044565b6001600160a01b031660805242600255610074565b60006020828403121561005657600080fd5b81516001600160a01b038116811461006d57600080fd5b9392505050565b6080516106b16100aa6000396000818160a30152818161015b015281816102f5015281816103ff01526104e601526106b16000f3fe608060405234801561001057600080fd5b50600436106100415760003560e01c806323d86a6514610046578063313310ad146100505780638dfdc0ca14610058575b600080fd5b61004e610073565b005b61004e6101ea565b61006160025481565b60405190815260200160405180910390f35b60405163bdfe7d4760e01b815260206004820152600a60248201526939ba30b13632a1b7b4b760b11b60448201527f00000000000000000000000000000000000000000000000000000000000000006001600160a01b03169063bdfe7d4790606401602060405180830381865afa1580156100f2573d6000803e3d6000fd5b505050506040513d601f19601f820116820180604052508101906101169190610589565b600080546001600160a01b0319166001600160a01b0392831617905560405163bdfe7d4760e01b815260206004820152600360248201526206364760ec1b60448201527f00000000000000000000000000000000000000000000000000000000000000009091169063bdfe7d4790606401602060405180830381865afa1580156101a4573d6000803e3d6000fd5b505050506040513d601f19601f820116820180604052508101906101c89190610589565b600180546001600160a01b0319166001600160a01b0392909216919091179055565b6000600254426101fa91906105cf565b90506301e1338081101561024a5760405162461bcd60e51b8152602060048201526012602482015271746f6f206561726c7920746f20636c61696d60701b60448201526064015b60405180910390fd5b60008054604080516318160ddd60e01b815290516064926001600160a01b0316916318160ddd9160048083019260209291908290030181865afa158015610295573d6000803e3d6000fd5b505050506040513d601f19601f820116820180604052508101906102b991906105e8565b60405163145f822b60e01b8152602060048201526016602482015275185b9b9d585b125b999b185d1a5bdb94195c98d95b9d60521b60448201527f00000000000000000000000000000000000000000000000000000000000000006001600160a01b03169063145f822b90606401602060405180830381865afa158015610344573d6000803e3d6000fd5b505050506040513d601f19601f8201168201806040525081019061036891906105e8565b6103766301e1338086610601565b6103809190610623565b61038a9190610623565b6103949190610601565b426002559050806103d95760405162461bcd60e51b815260206004820152600f60248201526e1b9bdd1a1a5b99c81d1bc8195b5a5d608a1b6044820152606401610241565b60015460405163bdfe7d4760e01b81526001600160a01b0391821691635c412bb29184917f0000000000000000000000000000000000000000000000000000000000000000169063bdfe7d47906104329060040161063a565b602060405180830381865afa15801561044f573d6000803e3d6000fd5b505050506040513d601f19601f820116820180604052508101906104739190610589565b6040518363ffffffff1660e01b8152600401610490929190610664565b600060405180830381600087803b1580156104aa57600080fd5b505af11580156104be573d6000803e3d6000fd5b505050507f863ed4e99eb44ef4e047733d4055c3f50b3e649e29fe07a455908d2f55d576c6817f00000000000000000000000000000000000000000000000000000000000000006001600160a01b031663bdfe7d476040518163ffffffff1660e01b815260040161052e9061063a565b602060405180830381865afa15801561054b573d6000803e3d6000fd5b505050506040513d601f19601f8201168201806040525081019061056f9190610589565b60405161057d929190610664565b60405180910390a15050565b60006020828403121561059b57600080fd5b81516001600160a01b03811681146105b257600080fd5b9392505050565b634e487b7160e01b600052601160045260246000fd5b818103818111156105e2576105e26105b9565b92915050565b6000602082840312156105fa57600080fd5b5051919050565b60008261061e57634e487b7160e01b600052601260045260246000fd5b500490565b80820281158282048414176105e2576105e26105b9565b60208082526010908201526f34b7333630ba34b7b729b832b73232b960811b604082015260600190565b9182526001600160a01b031660208201526040019056fea26469706673582212208ad1f4ab0e68ca16eab2c0f1ae64c59ef4404939d471bf6e903818a26238cabd64736f6c63430008120033",
  "immutableReferences": {
    "6053": [
      {
        "length": 32,
        "start": 163
      },
      {
        "length": 32,
        "start": 347
      },
      {
        "length": 32,
        "start": 757
      },
      {
        "length": 32,
        "start": 1023
      },
      {
        "length": 32,
        "start": 1254
      }
    ]
  },
  "source": "// SPDX-License-Identifier: UNLICENSED\r\npragma solidity 0.8.18;\r\nimport \"@openzeppelin/contracts/token/ERC20/IERC20.sol\";\r\nimport \"./IDAO.sol\";\r\nimport \"./ICDP.sol\";\r\n\r\ncontract InflationFund {\r\n    IDAO immutable dao;\r\n    IERC20 coin;\r\n    ICDP cdp;\r\n\r\n    uint256 public lastEmission;\r\n    event inflationEmission(uint256 amount, address spender);\r\n\r\n    constructor(address _INTDAOaddress){\r\n        dao = IDAO(_INTDAOaddress);\r\n        lastEmission = block.timestamp;\r\n    }\r\n\r\n    function renewContracts() public{\r\n        coin = IERC20(dao.addresses(\"stableCoin\"));\r\n        cdp = ICDP(dao.addresses(\"cdp\"));\r\n    }\r\n\r\n    function claimEmission() external{\r\n        uint256 period = block.timestamp - lastEmission;\r\n        require (period>=365 days, \"too early to claim\");\r\n        uint256 amount = period/365 days*dao.params(\"annualInflationPercent\")*coin.totalSupply()/100;\r\n        lastEmission = block.timestamp;\r\n        require (amount>0, \"nothing to emit\");\r\n        cdp.claimEmission(amount, dao.addresses(\"inflationSpender\"));\r\n        emit inflationEmission(amount, dao.addresses(\"inflationSpender\"));\r\n    }\r\n}\r\n",
  "sourcePath": "D:\\YandexDisk\\\\ICO\\CryptoFiat\\repo\\contracts\\inflationFund.sol",
  "compiler": {
    "name": "solc",
    "version": "0.8.18+commit.87f61d96.Emscripten.clang"
  },
  "schemaVersion": "3.4.14",
  "updatedAt": "2023-10-01T08:25:02.740Z",
  "devdoc": {
    "kind": "dev",
    "methods": {},
    "version": 1
  },
  "userdoc": {
    "kind": "user",
    "methods": {},
    "version": 1
  }
}