{
  "contractName": "InflationFund",
  "abi": [
    {
      "inputs": [
        {
          "internalType": "address payable",
          "name": "INTDAOaddress",
          "type": "address"
        }
      ],
      "stateMutability": "nonpayable",
      "type": "constructor"
    },
    {
      "anonymous": false,
      "inputs": [
        {
          "indexed": false,
          "internalType": "uint256",
          "name": "amount",
          "type": "uint256"
        }
      ],
      "name": "inflationEmission",
      "type": "event"
    },
    {
      "inputs": [],
      "name": "lastEmission",
      "outputs": [
        {
          "internalType": "uint256",
          "name": "",
          "type": "uint256"
        }
      ],
      "stateMutability": "view",
      "type": "function"
    },
    {
      "inputs": [],
      "name": "renewContracts",
      "outputs": [],
      "stateMutability": "nonpayable",
      "type": "function"
    },
    {
      "inputs": [],
      "name": "claimEmission",
      "outputs": [],
      "stateMutability": "nonpayable",
      "type": "function"
    },
    {
      "inputs": [],
      "name": "claimTransfer",
      "outputs": [],
      "stateMutability": "nonpayable",
      "type": "function"
    }
  ],
  "bytecode": "0x608060405234801561001057600080fd5b5060405161091138038061091183398101604081905261002f9161021d565b600080546001600160a01b0319166001600160a01b0383169081179091556040805163155ef82760e11b81526004810191909152600d60448201526c1a5b999b185d1a5bdb919d5b99609a1b6064820152306024820152632abdf04e90608401600060405180830381600087803b1580156100a957600080fd5b505af11580156100bd573d6000803e3d6000fd5b505060005460405163bdfe7d4760e01b815260206004820152600a60248201526939ba30b13632a1b7b4b760b11b60448201526001600160a01b03909116925063bdfe7d479150606401602060405180830381865afa158015610124573d6000803e3d6000fd5b505050506040513d601f19601f82011682018060405250810190610148919061021d565b600180546001600160a01b0319166001600160a01b0392831617905560005460405163bdfe7d4760e01b815260206004820152600360248201526206364760ec1b604482015291169063bdfe7d4790606401602060405180830381865afa1580156101b7573d6000803e3d6000fd5b505050506040513d601f19601f820116820180604052508101906101db919061021d565b600280546001600160a01b0319166001600160a01b03929092169190911790555042600355610241565b6001600160a01b038116811461021a57600080fd5b50565b60006020828403121561022f57600080fd5b815161023a81610205565b9392505050565b6106c1806102506000396000f3fe608060405234801561001057600080fd5b506004361061004c5760003560e01c80630d8b7fc51461005157806323d86a651461005b578063313310ad146100635780638dfdc0ca1461006b575b600080fd5b610059610086565b005b6100596101fc565b610059610338565b61007460035481565b60405190815260200160405180910390f35b60015460005460405163bdfe7d4760e01b815260206004820152601060248201526f34b7333630ba34b7b729b832b73232b960811b60448201526001600160a01b039283169263a9059cbb92169063bdfe7d4790606401602060405180830381865afa1580156100fa573d6000803e3d6000fd5b505050506040513d601f19601f8201168201806040525081019061011e91906105b8565b6001546040516370a0823160e01b81523060048201526001600160a01b03909116906370a0823190602401602060405180830381865afa158015610166573d6000803e3d6000fd5b505050506040513d601f19601f8201168201806040525081019061018a91906105e8565b6040516001600160e01b031960e085901b1681526001600160a01b03909216600483015260248201526044016020604051808303816000875af11580156101d5573d6000803e3d6000fd5b505050506040513d601f19601f820116820180604052508101906101f99190610601565b50565b60005460405163bdfe7d4760e01b815260206004820152600a60248201526939ba30b13632a1b7b4b760b11b60448201526001600160a01b039091169063bdfe7d4790606401602060405180830381865afa15801561025f573d6000803e3d6000fd5b505050506040513d601f19601f8201168201806040525081019061028391906105b8565b600180546001600160a01b0319166001600160a01b0392831617905560005460405163bdfe7d4760e01b815260206004820152600360248201526206364760ec1b604482015291169063bdfe7d4790606401602060405180830381865afa1580156102f2573d6000803e3d6000fd5b505050506040513d601f19601f8201168201806040525081019061031691906105b8565b600280546001600160a01b0319166001600160a01b0392909216919091179055565b6000600354426103489190610639565b90506301de90808110156103985760405162461bcd60e51b8152602060048201526012602482015271746f6f206561726c7920746f20636c61696d60701b60448201526064015b60405180910390fd5b60006064600160009054906101000a90046001600160a01b03166001600160a01b03166318160ddd6040518163ffffffff1660e01b8152600401602060405180830381865afa1580156103ef573d6000803e3d6000fd5b505050506040513d601f19601f8201168201806040525081019061041391906105e8565b60005460405163145f822b60e01b8152602060048201526016602482015275185b9b9d585b125b999b185d1a5bdb94195c98d95b9d60521b60448201526001600160a01b039091169063145f822b90606401602060405180830381865afa158015610482573d6000803e3d6000fd5b505050506040513d601f19601f820116820180604052508101906104a691906105e8565b6104b46301e1338086610652565b6104be9190610674565b6104c89190610674565b6104d29190610652565b426003559050806105175760405162461bcd60e51b815260206004820152600f60248201526e1b9bdd1a1a5b99c81d1bc8195b5a5d608a1b604482015260640161038f565b600254604051632e2095d960e11b8152600481018390523060248201526001600160a01b0390911690635c412bb290604401600060405180830381600087803b15801561056357600080fd5b505af1158015610577573d6000803e3d6000fd5b505050507f7d88f5cb4321ce50f7ac2436bf8b17cc49bfa3681cb284aadc9641d46d938325816040516105ac91815260200190565b60405180910390a15050565b6000602082840312156105ca57600080fd5b81516001600160a01b03811681146105e157600080fd5b9392505050565b6000602082840312156105fa57600080fd5b5051919050565b60006020828403121561061357600080fd5b815180151581146105e157600080fd5b634e487b7160e01b600052601160045260246000fd5b8181038181111561064c5761064c610623565b92915050565b60008261066f57634e487b7160e01b600052601260045260246000fd5b500490565b808202811582820484141761064c5761064c61062356fea264697066735822122030f89fc228b1c18ca92608e1626c900f6e8b83e43f59b90dd5a6865a6479f17564736f6c63430008130033",
  "immutableReferences": {},
  "source": "// SPDX-License-Identifier: UNLICENSED\r\npragma solidity 0.8.19;\r\nimport \"@openzeppelin/contracts/token/ERC20/IERC20.sol\";\r\n\r\ninterface IDAO{\r\n    function addresses(string memory) external view returns (address);\r\n    function params(string memory) external view returns (uint256);\r\n    function setAddressOnce(string memory, address) external;\r\n}\r\n\r\ninterface ICDP{\r\n    function claimEmission(uint256 amount, address beneficiary) external;\r\n}\r\n\r\ncontract InflationFund {\r\n    IDAO dao;\r\n    IERC20 coin;\r\n    ICDP cdp;\r\n\r\n    uint256 public lastEmission;\r\n    event inflationEmission(uint256 amount);\r\n\r\n    constructor(address payable INTDAOaddress){\r\n        dao = IDAO(INTDAOaddress);\r\n        dao.setAddressOnce('inflationFund',address(this));\r\n        coin = IERC20(dao.addresses('stableCoin'));\r\n        cdp = ICDP(payable(dao.addresses('cdp')));\r\n        lastEmission = block.timestamp;\r\n    }\r\n\r\n    function renewContracts() public {\r\n        coin = IERC20(payable(dao.addresses('stableCoin')));\r\n        cdp = ICDP(payable(dao.addresses('cdp')));\r\n    }\r\n\r\n    function claimEmission() public{\r\n        uint256 period = block.timestamp - lastEmission;\r\n        require (period>=363 days, \"too early to claim\");\r\n        uint256 amount = period/365 days*dao.params(\"annualInflationPercent\")*coin.totalSupply()/100;\r\n        lastEmission = block.timestamp;\r\n        require (amount>0, \"nothing to emit\");\r\n        cdp.claimEmission(amount,address(this));\r\n        emit inflationEmission(amount);\r\n    }\r\n\r\n    function claimTransfer() public{\r\n        coin.transfer(dao.addresses(\"inflationSpender\"), coin.balanceOf(address(this)));\r\n    }\r\n}\r\n",
  "sourcePath": "C:\\Users\\d.nagornykh\\YandexDisk\\\\ICO\\CryptoFiat\\repo\\contracts\\inflationFund.sol",
  "compiler": {
    "name": "solc",
    "version": "0.8.19+commit.7dd6d404.Emscripten.clang"
  },
  "schemaVersion": "3.4.14",
  "updatedAt": "2023-08-14T08:16:10.331Z",
  "devdoc": {
    "kind": "dev",
    "methods": {},
    "version": 1
  },
  "userdoc": {
    "kind": "user",
    "methods": {},
    "version": 1
  }
}