{
  "contractName": "INTDAO",
  "abi": [
    {
      "inputs": [
        {
          "internalType": "address[]",
          "name": "_addresses",
          "type": "address[]"
        }
      ],
      "stateMutability": "nonpayable",
      "type": "constructor"
    },
    {
      "anonymous": false,
      "inputs": [
        {
          "indexed": false,
          "internalType": "uint256",
          "name": "id",
          "type": "uint256"
        },
        {
          "indexed": false,
          "internalType": "string",
          "name": "name",
          "type": "string"
        }
      ],
      "name": "NewVoting",
      "type": "event"
    },
    {
      "anonymous": false,
      "inputs": [
        {
          "indexed": false,
          "internalType": "uint256",
          "name": "id",
          "type": "uint256"
        }
      ],
      "name": "VotingFailed",
      "type": "event"
    },
    {
      "anonymous": false,
      "inputs": [
        {
          "indexed": false,
          "internalType": "uint256",
          "name": "id",
          "type": "uint256"
        }
      ],
      "name": "VotingSucceed",
      "type": "event"
    },
    {
      "inputs": [],
      "name": "activeVoting",
      "outputs": [
        {
          "internalType": "bool",
          "name": "",
          "type": "bool"
        }
      ],
      "stateMutability": "view",
      "type": "function"
    },
    {
      "inputs": [
        {
          "internalType": "string",
          "name": "",
          "type": "string"
        }
      ],
      "name": "addresses",
      "outputs": [
        {
          "internalType": "address",
          "name": "",
          "type": "address"
        }
      ],
      "stateMutability": "view",
      "type": "function"
    },
    {
      "inputs": [
        {
          "internalType": "address",
          "name": "",
          "type": "address"
        }
      ],
      "name": "isAuthorized",
      "outputs": [
        {
          "internalType": "bool",
          "name": "",
          "type": "bool"
        }
      ],
      "stateMutability": "view",
      "type": "function"
    },
    {
      "inputs": [
        {
          "internalType": "string",
          "name": "",
          "type": "string"
        }
      ],
      "name": "params",
      "outputs": [
        {
          "internalType": "uint256",
          "name": "",
          "type": "uint256"
        }
      ],
      "stateMutability": "view",
      "type": "function"
    },
    {
      "inputs": [
        {
          "internalType": "address",
          "name": "",
          "type": "address"
        }
      ],
      "name": "paused",
      "outputs": [
        {
          "internalType": "bool",
          "name": "",
          "type": "bool"
        }
      ],
      "stateMutability": "view",
      "type": "function"
    },
    {
      "inputs": [
        {
          "internalType": "address",
          "name": "",
          "type": "address"
        }
      ],
      "name": "pooled",
      "outputs": [
        {
          "internalType": "uint256",
          "name": "",
          "type": "uint256"
        }
      ],
      "stateMutability": "view",
      "type": "function"
    },
    {
      "inputs": [],
      "name": "totalPooled",
      "outputs": [
        {
          "internalType": "uint256",
          "name": "",
          "type": "uint256"
        }
      ],
      "stateMutability": "view",
      "type": "function"
    },
    {
      "inputs": [],
      "name": "votingID",
      "outputs": [
        {
          "internalType": "uint256",
          "name": "",
          "type": "uint256"
        }
      ],
      "stateMutability": "view",
      "type": "function"
    },
    {
      "inputs": [
        {
          "internalType": "uint256",
          "name": "",
          "type": "uint256"
        }
      ],
      "name": "votings",
      "outputs": [
        {
          "internalType": "uint256",
          "name": "totalPositive",
          "type": "uint256"
        },
        {
          "internalType": "uint256",
          "name": "votingType",
          "type": "uint256"
        },
        {
          "internalType": "string",
          "name": "name",
          "type": "string"
        },
        {
          "internalType": "uint256",
          "name": "value",
          "type": "uint256"
        },
        {
          "internalType": "address",
          "name": "addr",
          "type": "address"
        },
        {
          "internalType": "uint256",
          "name": "startTime",
          "type": "uint256"
        },
        {
          "internalType": "bool",
          "name": "decision",
          "type": "bool"
        }
      ],
      "stateMutability": "view",
      "type": "function"
    },
    {
      "inputs": [],
      "name": "renewContracts",
      "outputs": [],
      "stateMutability": "nonpayable",
      "type": "function"
    },
    {
      "inputs": [
        {
          "internalType": "uint256",
          "name": "votingType",
          "type": "uint256"
        },
        {
          "internalType": "string",
          "name": "name",
          "type": "string"
        },
        {
          "internalType": "uint256",
          "name": "value",
          "type": "uint256"
        },
        {
          "internalType": "address",
          "name": "addr",
          "type": "address"
        },
        {
          "internalType": "bool",
          "name": "decision",
          "type": "bool"
        }
      ],
      "name": "addVoting",
      "outputs": [],
      "stateMutability": "nonpayable",
      "type": "function"
    },
    {
      "inputs": [],
      "name": "poolTokens",
      "outputs": [
        {
          "internalType": "bool",
          "name": "success",
          "type": "bool"
        }
      ],
      "stateMutability": "nonpayable",
      "type": "function"
    },
    {
      "inputs": [],
      "name": "returnTokens",
      "outputs": [
        {
          "internalType": "bool",
          "name": "",
          "type": "bool"
        }
      ],
      "stateMutability": "nonpayable",
      "type": "function"
    },
    {
      "inputs": [
        {
          "internalType": "bool",
          "name": "_vote",
          "type": "bool"
        }
      ],
      "name": "vote",
      "outputs": [],
      "stateMutability": "nonpayable",
      "type": "function"
    },
    {
      "inputs": [],
      "name": "claimToFinalizeCurrentVoting",
      "outputs": [],
      "stateMutability": "nonpayable",
      "type": "function"
    }
  ],
  "bytecode": "0x60806040523480156200001157600080fd5b50604051620021ff380380620021ff833981016040819052620000349162000a3e565b60016000819055604080516b696e7465726573745261746560a01b81526006600c8201819052825191829003602c018220600990556a6465706f7369745261746560a81b8252600b8201819052825191829003602b0182206008908190556d6c69717569646174696f6e46656560901b8352600e8301829052835192839003602e018320600d90557118dbdb1b185d195c985b111a5cd8dbdd5b9d60721b83526012830182905283519283900360329081018420601e90557f73746162696c697a6174696f6e46756e6450657263656e7400000000000000008452601884018390528451938490036038018420600590556571756f72756d60d01b84528383018390528451938490036026018420603c9055676d616a6f7269747960c01b84529083018290528351928390036028018320557f6d696e43445042616c616e6365546f496e69744275794f7574000000000000008252601982018190528251918290036039018220678ac7230489e8000090556f6162736f6c7574654d616a6f7269747960801b8252601082018190529151603091819003919091018120605090557f6d696e52756c65546f6b656e73546f496e6974566f74696e6750657263656e748152602001908152604080519182900360209081018320939093556d3b37ba34b733a23ab930ba34b7b760911b82526006600e8301819052815192839003602e01832062015180908190557f61756374696f6e5475726e4475726174696f6e00000000000000000000000000845260138085018390528351948590036033908101862061038490557f6d696e41756374696f6e50726963654d6f7665000000000000000000000000008652858201849052845195869003810186206005908190556c1b5a5b90dbdb1b195d195c985b609a1b8752600d8701859052855196879003602d018720601a90557f6d617267696e43616c6c54696d654c696d6974000000000000000000000000008752918601849052845195869003018520919091557f616e6e75616c496e666c6174696f6e50657263656e740000000000000000000084526016808501839052835194859003603690810186206001908190557f64656661756c744465706f736974506572696f6400000000000000000000000087526014870185905285519687900360340187206277f88090557f6d6178436f696e73466f7253746162696c697a6174696f6e000000000000000087526018870185905285519687900360380187206802b5e3af16b188000090557f6d617852756c65456d697373696f6e50657263656e740000000000000000000087529186018490529351948590039093018420929092557f68696768566f6c6174696c6974794576656e744261727269657250657263656e8352601d60fa1b938301939093529190602101908152604051908190036020018120919091556d1b5a5b90dbda5b9cd51bd35a5b9d60921b8152600190600690600e019081526020016040518091039020819055508060008151811062000494576200049462000b10565b60200260200101516007604051620004b690630eecae8d60e31b815260040190565b908152602001604051809103902060006101000a8154816001600160a01b0302191690836001600160a01b0316021790555080600181518110620004fe57620004fe62000b10565b602002602001015160076040516200051f906206364760ec1b815260030190565b908152602001604051809103902060006101000a8154816001600160a01b0302191690836001600160a01b031602179055508060028151811062000567576200056762000b10565b602002602001015160076040516200058c906630bab1ba34b7b760c91b815260070190565b908152602001604051809103902060006101000a8154816001600160a01b0302191690836001600160a01b0316021790555080600381518110620005d457620005d462000b10565b60200260200101516007604051620005f9906619195c1bdcda5d60ca1b815260070190565b908152602001604051809103902060006101000a8154816001600160a01b0302191690836001600160a01b031602179055508060048151811062000641576200064162000b10565b602002602001015160076040516200066590656f7261636c6560d01b815260060190565b908152602001604051809103902060006101000a8154816001600160a01b0302191690836001600160a01b0316021790555080600581518110620006ad57620006ad62000b10565b60200260200101516007604051620006d8906c1a5b999b185d1a5bdb919d5b99609a1b8152600d0190565b908152602001604051809103902060006101000a8154816001600160a01b0302191690836001600160a01b031602179055508060068151811062000720576200072062000b10565b60200260200101516007604051620007389062000b26565b908152602001604051809103902060006101000a8154816001600160a01b0302191690836001600160a01b031602179055508060078151811062000780576200078062000b10565b60200260200101516007604051620007a8906939ba30b13632a1b7b4b760b11b8152600a0190565b908152602001604051809103902060006101000a8154816001600160a01b0302191690836001600160a01b0316021790555080600881518110620007f057620007f062000b10565b6020026020010151600760405162000812906318d85c9d60e21b815260040190565b908152602001604051809103902060006101000a8154816001600160a01b0302191690836001600160a01b03160217905550806001815181106200085a576200085a62000b10565b6020026020010151600760405162000888906f34b7333630ba34b7b729b832b73232b960811b815260100190565b908152602001604051809103902060006101000a8154816001600160a01b0302191690836001600160a01b0316021790555060016009600083600381518110620008d657620008d662000b10565b60200260200101516001600160a01b03166001600160a01b0316815260200190815260200160002060006101000a81548160ff0219169083151502179055506001600960008360058151811062000931576200093162000b10565b60200260200101516001600160a01b03166001600160a01b0316815260200190815260200160002060006101000a81548160ff0219169083151502179055503060076040516200098a906264616f60e81b815260030190565b90815260405190819003602001902080546001600160a01b03929092166001600160a01b0319909216919091179055620009c3620009ca565b5062000b36565b6007604051620009da9062000b26565b90815260405190819003602001902054600180546001600160a01b0319166001600160a01b03909216919091179055565b634e487b7160e01b600052604160045260246000fd5b80516001600160a01b038116811462000a3957600080fd5b919050565b6000602080838503121562000a5257600080fd5b82516001600160401b038082111562000a6a57600080fd5b818501915085601f83011262000a7f57600080fd5b81518181111562000a945762000a9462000a0b565b8060051b604051601f19603f8301168101818110858211171562000abc5762000abc62000a0b565b60405291825284820192508381018501918883111562000adb57600080fd5b938501935b8285101562000b045762000af48562000a21565b8452938501939285019262000ae0565b98975050505050505050565b634e487b7160e01b600052603260045260246000fd5b6372756c6560e01b815260040190565b6116b98062000b466000396000f3fe608060405234801561001057600080fd5b50600436106100c55760003560e01c8063145f822b146100ca57806323d86a65146101085780632e48152c146101515780634b9f5c981461018457806355b2636d146101975780636d3e313e146101a45780636ec21cc8146101ac57806381b41e1c146101b5578063a598d03c146101bd578063bdfe7d47146101e3578063c85c98bf1461022f578063d32b0c1014610242578063f007cafd14610262578063f9718fc81461026b578063fe9fbb8014610273575b600080fd5b6100f56100d83660046111ff565b805160208183018101805160068252928201919093012091525481565b6040519081526020015b60405180910390f35b61014f6040516372756c6560e01b815260079060040190815260405190819003602001902054600180546001600160a01b0319166001600160a01b03909216919091179055565b005b61017461015f366004611257565b60086020526000908152604090205460ff1681565b60405190151581526020016100ff565b61014f610192366004611287565b610296565b6005546101749060ff1681565b6101746104f6565b6100f5600b5481565b61014f6106de565b6101d06101cb3660046112a4565b61099d565b6040516100ff9796959493929190611303565b6102176101f13660046111ff565b80516020818301810180516007825292820191909301209152546001600160a01b031681565b6040516001600160a01b0390911681526020016100ff565b61014f61023d366004611353565b610a6e565b6100f5610250366004611257565b600a6020526000908152604090205481565b6100f560045481565b610174610c90565b610174610281366004611257565b60096020526000908152604090205460ff1681565b61029e610e2f565b60055460ff166102ee5760405162461bcd60e51b8152602060048201526016602482015275139bc81858dd1a5d99481d9bdd1a5b99c8199bdd5b9960521b60448201526064015b60405180910390fd5b4260066040516102fd906113c8565b9081526020016040518091039020546003600060045481526020019081526020016000206005015461032f91906113f8565b101561037a5760405162461bcd60e51b815260206004820152601a602482015279566f74696e6720697320616c726561647920696e61637469766560301b60448201526064016102e5565b336000908152600a60205260409020546103e25760405162461bcd60e51b815260206004820152602360248201527f596f7520646f6e74206861766520706f6f6c656420746f6b656e7320746f20766044820152626f746560e81b60648201526084016102e5565b801561046d576004546000908152600260209081526040808320338452825280832054600a9092528220546104179190611411565b336000818152600a602090815260408083205460048054855260028452828520958552948352818420559254825260039052908120805492935083929091906104619084906113f8565b909155506104e9915050565b6004546000908152600260209081526040808320338452909152902054156104e95760045460008181526002602090815260408083203384528252808320549383526003909152812080549091906104c6908490611411565b909155505060045460009081526002602090815260408083203384529091528120555b6104f36001600055565b50565b6000610500610e2f565b600154604051636eb1769f60e11b81523360048201523060248201526000916001600160a01b03169063dd62ed3e90604401602060405180830381865afa15801561054f573d6000803e3d6000fd5b505050506040513d601f19601f820116820180604052508101906105739190611424565b9050600081116105ba5760405162461bcd60e51b8152602060048201526012602482015271185b1b1bddc81d1bdad95b9cc8199a5c9cdd60721b60448201526064016102e5565b6001546040516323b872dd60e01b8152336004820152306024820152604481018390526001600160a01b03909116906323b872dd906064016020604051808303816000875af1158015610611573d6000803e3d6000fd5b505050506040513d601f19601f82011682018060405250810190610635919061143d565b61068f5760405162461bcd60e51b815260206004820152602560248201527f436f756c64206e6f7420706f6f6c20746f6b656e7320666f7220736f6d65207260448201526432b0b9b7b760d91b60648201526084016102e5565b336000908152600a6020526040812080548392906106ae9084906113f8565b9250508190555080600b60008282546106c791906113f8565b909155506001925050506106db6001600055565b90565b6106e6610e2f565b60055460ff166107345760405162461bcd60e51b81526020600482015260196024820152785468657265206973206e6f2061637469766520766f74696e6760381b60448201526064016102e5565b6064600660405161075b906f6162736f6c7574654d616a6f7269747960801b815260100190565b908152602001604051809103902054600160009054906101000a90046001600160a01b03166001600160a01b03166318160ddd6040518163ffffffff1660e01b8152600401602060405180830381865afa1580156107bd573d6000803e3d6000fd5b505050506040513d601f19601f820116820180604052508101906107e19190611424565b6107eb919061145a565b6107f59190611471565b6004546000908152600360205260409020541061081957610814610e88565b610991565b426006604051610828906113c8565b9081526020016040518091039020546003600060045481526020019081526020016000206005015461085a91906113f8565b1161099157600154604080516318160ddd60e01b815290516064926001600160a01b0316916318160ddd9160048083019260209291908290030181865afa1580156108a9573d6000803e3d6000fd5b505050506040513d601f19601f820116820180604052508101906108cd9190611424565b6040516571756f72756d60d01b815260069081019081526020016040518091039020546108fa919061145a565b6109049190611471565b600b54101580156109435750600454600090815260036020526040902054600b5461092f9190611411565b600454600090815260036020526040902054115b1561095057610814610e88565b6005805460ff191690556004546040519081527f57834a5970ce5c2cc4aa67b63acab911850a2c8154142f285308a321a2e7b51a9060200160405180910390a15b61099b6001600055565b565b600360205260009081526040902080546001820154600283018054929391926109c590611493565b80601f01602080910402602001604051908101604052809291908181526020018280546109f190611493565b8015610a3e5780601f10610a1357610100808354040283529160200191610a3e565b820191906000526020600020905b815481529060010190602001808311610a2157829003601f168201915b50505050600383015460048401546005850154600690950154939491936001600160a01b03909116925060ff1687565b60055460ff1615610abd5760405162461bcd60e51b8152602060048201526019602482015278546865726520697320616e2061637469766520766f74696e6760381b60448201526064016102e5565b600085118015610acd5750600585105b610b125760405162461bcd60e51b8152602060048201526016602482015275496e636f727265637420766f7465696e67207479706560501b60448201526064016102e5565b610b1b33611069565b610b675760405162461bcd60e51b815260206004820181905260248201527f546f6f206c6974746c6520746f6b656e7320746f20696e697420766f74696e6760448201526064016102e5565b60048054906000610b77836114cd565b90915550506040805160e08101825260008082526020808301898152838501898152606085018990526001600160a01b03881660808601524260a086015286151560c086015260045484526003909252939091208251815592516001840155519091906002820190610be99082611535565b50606082015160038201556080820151600480830180546001600160a01b039093166001600160a01b03199093169290921790915560a083015160058084019190915560c0909301516006909201805492151560ff199384161790558254909116600117909155546040517f075da53496b68eb2230c8f9ea0bba204eecbbd21aee4989c20fc3df419b71f7b91610c819187906115f4565b60405180910390a15050505050565b6000610c9a610e2f565b336000908152600a6020526040902054610cf45760405162461bcd60e51b815260206004820152601b60248201527a596f75206d757374206861766520706f6f6c656420746f6b656e7360281b60448201526064016102e5565b60055460ff168015610d215750600454600090815260026020908152604080832033845290915290205415155b15610d63576004546000818152600260209081526040808320338452825280832054938352600390915281208054909190610d5d908490611411565b90915550505b600154336000818152600a60205260409081902054905163a9059cbb60e01b8152600481019290925260248201526001600160a01b039091169063a9059cbb906044016020604051808303816000875af1158015610dc5573d6000803e3d6000fd5b505050506040513d601f19601f82011682018060405250810190610de9919061143d565b50336000908152600a6020526040812054600b805491929091610e0d908490611411565b9091555050336000908152600a60205260408120555060016106db6001600055565b600260005403610e815760405162461bcd60e51b815260206004820152601f60248201527f5265656e7472616e637947756172643a207265656e7472616e742063616c6c0060448201526064016102e5565b6002600055565b60045460009081526003602052604090206001908101549003610ee357600454600090815260036020819052604091829020908101549151600691610ed29160029091019061160d565b908152604051908190036020019020555b600454600090815260036020526040902060010154600203610f655760048054600090815260036020526040908190209182015490516001600160a01b0390911691600791610f35916002019061160d565b90815260405190819003602001902080546001600160a01b03929092166001600160a01b03199092169190911790555b60036000600454815260200190815260200160002060010154600303610fc85760048054600090815260036020908152604080832060068101549401546001600160a01b0316835260089091529020805460ff191660ff90921615159190911790555b6004805460009081526003602052604090206001015490036110275760048054600090815260036020908152604080832060068101549401546001600160a01b0316835260099091529020805460ff191660ff90921615159190911790555b6005805460ff191690556004546040519081527f8758853873295e83b84920827f3c083da36d58db370b7ae1fab04646e4314a129060200160405180910390a1565b60006064600660405161109f907f6d696e52756c65546f6b656e73546f496e6974566f74696e6750657263656e74815260200190565b908152602001604051809103902054600160009054906101000a90046001600160a01b03166001600160a01b03166318160ddd6040518163ffffffff1660e01b8152600401602060405180830381865afa158015611101573d6000803e3d6000fd5b505050506040513d601f19601f820116820180604052508101906111259190611424565b61112f919061145a565b6111399190611471565b6001600160a01b039092166000908152600a60205260409020549190911015919050565b634e487b7160e01b600052604160045260246000fd5b600082601f83011261118457600080fd5b81356001600160401b038082111561119e5761119e61115d565b604051601f8301601f19908116603f011681019082821181831017156111c6576111c661115d565b816040528381528660208588010111156111df57600080fd5b836020870160208301376000602085830101528094505050505092915050565b60006020828403121561121157600080fd5b81356001600160401b0381111561122757600080fd5b61123384828501611173565b949350505050565b80356001600160a01b038116811461125257600080fd5b919050565b60006020828403121561126957600080fd5b6112728261123b565b9392505050565b80151581146104f357600080fd5b60006020828403121561129957600080fd5b813561127281611279565b6000602082840312156112b657600080fd5b5035919050565b6000815180845260005b818110156112e3576020818501810151868301820152016112c7565b506000602082860101526020601f19601f83011685010191505092915050565b87815286602082015260e06040820152600061132260e08301886112bd565b6060830196909652506001600160a01b0393909316608084015260a0830191909152151560c0909101529392505050565b600080600080600060a0868803121561136b57600080fd5b8535945060208601356001600160401b0381111561138857600080fd5b61139488828901611173565b945050604086013592506113aa6060870161123b565b915060808601356113ba81611279565b809150509295509295909350565b6d3b37ba34b733a23ab930ba34b7b760911b8152600e0190565b634e487b7160e01b600052601160045260246000fd5b8082018082111561140b5761140b6113e2565b92915050565b8181038181111561140b5761140b6113e2565b60006020828403121561143657600080fd5b5051919050565b60006020828403121561144f57600080fd5b815161127281611279565b808202811582820484141761140b5761140b6113e2565b60008261148e57634e487b7160e01b600052601260045260246000fd5b500490565b600181811c908216806114a757607f821691505b6020821081036114c757634e487b7160e01b600052602260045260246000fd5b50919050565b6000600182016114df576114df6113e2565b5060010190565b601f82111561153057600081815260208120601f850160051c8101602086101561150d5750805b601f850160051c820191505b8181101561152c57828155600101611519565b5050505b505050565b81516001600160401b0381111561154e5761154e61115d565b6115628161155c8454611493565b846114e6565b602080601f831160018114611597576000841561157f5750858301515b600019600386901b1c1916600185901b17855561152c565b600085815260208120601f198616915b828110156115c6578886015182559484019460019091019084016115a7565b50858210156115e45787850151600019600388901b60f8161c191681555b5050505050600190811b01905550565b82815260406020820152600061123360408301846112bd565b600080835461161b81611493565b60018281168015611633576001811461164857611677565b60ff1984168752821515830287019450611677565b8760005260208060002060005b8581101561166e5781548a820152908401908201611655565b50505082870194505b5092969550505050505056fea26469706673582212203272781ae441599570a46930453799996e0d7b4f32d974cd644b5337b7669f5064736f6c63430008120033",
  "immutableReferences": {},
  "source": "// SPDX-License-Identifier: UNLICENSED\r\npragma solidity 0.8.18;\r\nimport \"@openzeppelin/contracts/token/ERC20/IERC20.sol\";\r\nimport \"@openzeppelin/contracts/security/ReentrancyGuard.sol\";\r\n\r\ncontract INTDAO is ReentrancyGuard{\r\n    IERC20 ruleToken;\r\n    mapping (uint256 => mapping(address => uint256)) votes;\r\n\r\n    mapping (uint256=>Voting) public votings;\r\n    uint256 public votingID;\r\n\r\n    struct Voting {\r\n        uint256 totalPositive;\r\n        uint256 votingType;\r\n        string name;\r\n        uint256 value;\r\n        address addr;\r\n        uint256 startTime;\r\n        bool decision;\r\n    }\r\n\r\n    bool public activeVoting;\r\n\r\n    mapping (string => uint256) public params;\r\n    mapping (string => address) public addresses;\r\n    mapping (address => bool) public paused;\r\n    mapping (address => bool) public isAuthorized;\r\n\r\n    mapping (address => uint256) public pooled;\r\n    uint256 public totalPooled;\r\n\r\n    event NewVoting (uint256 id, string name);\r\n    event VotingSucceed (uint256 id);\r\n    event VotingFailed (uint256 id);\r\n\r\n    constructor (address[] memory _addresses) {\r\n        params[\"interestRate\"] = 9;\r\n        params[\"depositRate\"]=8;\r\n        params[\"liquidationFee\"] = 13;\r\n        params[\"collateralDiscount\"] = 30;\r\n        params[\"stabilizationFundPercent\"] = 5;\r\n        params[\"quorum\"] = 60;\r\n        params[\"majority\"] = 50;\r\n        params[\"minCDPBalanceToInitBuyOut\"] = 10**19;\r\n        params[\"absoluteMajority\"] = 80;\r\n        params[\"minRuleTokensToInitVotingPercent\"] = 1;\r\n        params[\"votingDuration\"] = 1 days;\r\n        params[\"auctionTurnDuration\"] = 15 minutes;\r\n        params[\"minAuctionPriceMove\"] = 5;\r\n        params[\"minColleteral\"] = 1*10^16; // minColleteral is 0.01 ETH\r\n        params[\"marginCallTimeLimit\"] = 1 days;\r\n        params[\"annualInflationPercent\"] = 1;\r\n        params[\"defaultDepositPeriod\"] = 91 days;\r\n        params[\"maxCoinsForStabilization\"] = 50*10**18;\r\n        params[\"maxRuleEmissionPercent\"] = 1;\r\n        params[\"highVolatilityEventBarrierPercent\"] = 5;\r\n        params[\"minCoinsToMint\"] = 1;\r\n\r\n        addresses[\"weth\"] = _addresses[0];\r\n        addresses[\"cdp\"] = _addresses[1];\r\n        addresses[\"auction\"] = _addresses[2];\r\n        addresses[\"deposit\"] = _addresses[3];\r\n        addresses[\"oracle\"] = _addresses[4];\r\n        addresses[\"inflationFund\"] = _addresses[5];\r\n        addresses[\"rule\"] = _addresses[6];\r\n        addresses[\"stableCoin\"] = _addresses[7];\r\n        addresses[\"cart\"] = _addresses[8];\r\n\r\n        addresses[\"inflationSpender\"] = _addresses[1];\r\n        isAuthorized[_addresses[3]]=true;\r\n        isAuthorized[_addresses[5]]=true;\r\n\r\n        addresses[\"dao\"] = address(this);\r\n        renewContracts();\r\n    }\r\n\r\n    function renewContracts() public {\r\n        ruleToken = IERC20(addresses[\"rule\"]);\r\n    }\r\n\r\n    function addVoting(uint256 votingType, string memory name, uint value, address addr, bool decision) external{\r\n        require(!activeVoting, \"There is an active voting\");\r\n        require(votingType>0&&votingType<5, \"Incorrect voteing type\");\r\n        require(isEnoughTokensPooledToInitVoting(msg.sender), \"Too little tokens to init voting\");\r\n        votingID++;\r\n        votings[votingID] = Voting(0, votingType, name, value, addr, block.timestamp, decision);\r\n        activeVoting = true;\r\n        emit NewVoting(votingID, name);\r\n    }\r\n\r\n    function poolTokens() nonReentrant external returns (bool success) {\r\n        uint256 amount = ruleToken.allowance(msg.sender, address(this));\r\n        require (amount>0, \"allow tokens first\");\r\n        require(ruleToken.transferFrom(msg.sender, address(this), amount), \"Could not pool tokens for some reason\");\r\n        pooled[msg.sender] += amount;\r\n        totalPooled += amount;\r\n        return true;\r\n    }\r\n\r\n    function returnTokens() nonReentrant external returns (bool) {\r\n        require(pooled[msg.sender] > 0, \"You must have pooled tokens\");\r\n        if (activeVoting && votes[votingID][msg.sender]>0){\r\n            votings[votingID].totalPositive -= votes[votingID][msg.sender];\r\n        }\r\n        ruleToken.transfer(msg.sender, pooled[msg.sender]);\r\n        totalPooled -= pooled[msg.sender];\r\n        pooled[msg.sender] = 0;\r\n        return true;\r\n    }\r\n\r\n    function vote(bool _vote) nonReentrant external{\r\n        require(activeVoting, \"No active voting found\");\r\n        require(votings[votingID].startTime + params[\"votingDuration\"] >= block.timestamp, \"Voting is already inactive\");\r\n        require(pooled[msg.sender]>0, \"You dont have pooled tokens to vote\");\r\n\r\n        if (_vote) {\r\n            uint256 _votesToAdd = pooled[msg.sender] - votes[votingID][msg.sender];\r\n            votes[votingID][msg.sender] = pooled[msg.sender];\r\n            votings[votingID].totalPositive += _votesToAdd;\r\n        }\r\n        else {\r\n            if (votes[votingID][msg.sender] > 0){\r\n                votings[votingID].totalPositive -= votes[votingID][msg.sender];\r\n                votes[votingID][msg.sender] = 0;\r\n            }\r\n        }\r\n    }\r\n\r\n    function claimToFinalizeCurrentVoting() nonReentrant external{\r\n        require (activeVoting, \"There is no active voting\");\r\n        if (votings[votingID].totalPositive >= ruleToken.totalSupply() * params[\"absoluteMajority\"] / 100) {\r\n            finalizeCurrentVoting();\r\n            return;\r\n        }\r\n        else if (votings[votingID].startTime + params[\"votingDuration\"] <= block.timestamp) {\r\n            if (totalPooled >= params[\"quorum\"] * ruleToken.totalSupply() / 100 && votings[votingID].totalPositive > (totalPooled - votings[votingID].totalPositive)) {\r\n                finalizeCurrentVoting();\r\n                return;\r\n            }\r\n            activeVoting = false;\r\n            emit VotingFailed(votingID);\r\n            return;\r\n        }\r\n    }\r\n\r\n    function finalizeCurrentVoting() internal{\r\n        if (votings[votingID].votingType == 1)\r\n            params[votings[votingID].name] = votings[votingID].value;\r\n        if (votings[votingID].votingType == 2)\r\n            addresses[votings[votingID].name] = votings[votingID].addr;\r\n        if (votings[votingID].votingType == 3)\r\n            paused[votings[votingID].addr] = votings[votingID].decision;\r\n        if (votings[votingID].votingType == 4)\r\n            isAuthorized[votings[votingID].addr] = votings[votingID].decision;\r\n        activeVoting = false;\r\n        emit VotingSucceed(votingID);\r\n    }\r\n\r\n    function isEnoughTokensPooledToInitVoting(address initiator) internal view returns (bool enough){\r\n        return pooled[initiator]>=ruleToken.totalSupply()*params[\"minRuleTokensToInitVotingPercent\"]/100;\r\n    }\r\n}\r\n",
  "sourcePath": "D:\\YandexDisk\\\\ICO\\CryptoFiat\\repo\\contracts\\INTDAO.sol",
  "compiler": {
    "name": "solc",
    "version": "0.8.18+commit.87f61d96.Emscripten.clang"
  },
  "schemaVersion": "3.4.14",
  "updatedAt": "2023-10-01T08:25:02.703Z",
  "devdoc": {
    "kind": "dev",
    "methods": {},
    "version": 1
  },
  "userdoc": {
    "kind": "user",
    "methods": {},
    "version": 1
  }
}