{
  "contractName": "INTDAO",
  "abi": [
    {
      "inputs": [
        {
          "internalType": "address",
          "name": "initalRuleTokenAddress",
          "type": "address"
        }
      ],
      "stateMutability": "nonpayable",
      "type": "constructor"
    },
    {
      "anonymous": false,
      "inputs": [
        {
          "indexed": false,
          "internalType": "string",
          "name": "name",
          "type": "string"
        }
      ],
      "name": "NewAddressVoteing",
      "type": "event"
    },
    {
      "anonymous": false,
      "inputs": [
        {
          "indexed": false,
          "internalType": "string",
          "name": "name",
          "type": "string"
        }
      ],
      "name": "NewParamVoteing",
      "type": "event"
    },
    {
      "inputs": [],
      "name": "activeVoting",
      "outputs": [
        {
          "internalType": "bool",
          "name": "",
          "type": "bool"
        }
      ],
      "stateMutability": "view",
      "type": "function",
      "constant": true
    },
    {
      "inputs": [
        {
          "internalType": "string",
          "name": "",
          "type": "string"
        }
      ],
      "name": "addresses",
      "outputs": [
        {
          "internalType": "address",
          "name": "",
          "type": "address"
        }
      ],
      "stateMutability": "view",
      "type": "function",
      "constant": true
    },
    {
      "inputs": [
        {
          "internalType": "string",
          "name": "",
          "type": "string"
        }
      ],
      "name": "params",
      "outputs": [
        {
          "internalType": "uint256",
          "name": "",
          "type": "uint256"
        }
      ],
      "stateMutability": "view",
      "type": "function",
      "constant": true
    },
    {
      "inputs": [],
      "name": "ruleTokenAddress",
      "outputs": [
        {
          "internalType": "address",
          "name": "",
          "type": "address"
        }
      ],
      "stateMutability": "view",
      "type": "function",
      "constant": true
    },
    {
      "inputs": [],
      "name": "totalPooled",
      "outputs": [
        {
          "internalType": "uint256",
          "name": "",
          "type": "uint256"
        }
      ],
      "stateMutability": "view",
      "type": "function",
      "constant": true
    },
    {
      "inputs": [
        {
          "internalType": "bool",
          "name": "paramOrAddress",
          "type": "bool"
        },
        {
          "internalType": "string",
          "name": "name",
          "type": "string"
        },
        {
          "internalType": "uint256",
          "name": "value",
          "type": "uint256"
        },
        {
          "internalType": "address",
          "name": "addr",
          "type": "address"
        }
      ],
      "name": "addVoting",
      "outputs": [],
      "stateMutability": "nonpayable",
      "type": "function"
    },
    {
      "inputs": [
        {
          "internalType": "address",
          "name": "destination",
          "type": "address"
        },
        {
          "internalType": "uint256",
          "name": "value",
          "type": "uint256"
        }
      ],
      "name": "transfered",
      "outputs": [
        {
          "internalType": "bool",
          "name": "",
          "type": "bool"
        }
      ],
      "stateMutability": "nonpayable",
      "type": "function"
    },
    {
      "inputs": [
        {
          "internalType": "uint256",
          "name": "votingId",
          "type": "uint256"
        },
        {
          "internalType": "bool",
          "name": "_vote",
          "type": "bool"
        }
      ],
      "name": "vote",
      "outputs": [],
      "stateMutability": "nonpayable",
      "type": "function"
    },
    {
      "inputs": [
        {
          "internalType": "uint256",
          "name": "votingId",
          "type": "uint256"
        }
      ],
      "name": "claimToFinalizeVoting",
      "outputs": [],
      "stateMutability": "nonpayable",
      "type": "function"
    },
    {
      "inputs": [
        {
          "internalType": "string",
          "name": "paramName",
          "type": "string"
        }
      ],
      "name": "getParam",
      "outputs": [
        {
          "internalType": "uint256",
          "name": "",
          "type": "uint256"
        }
      ],
      "stateMutability": "view",
      "type": "function",
      "constant": true
    },
    {
      "inputs": [
        {
          "internalType": "string",
          "name": "addressName",
          "type": "string"
        }
      ],
      "name": "getAddress",
      "outputs": [
        {
          "internalType": "address",
          "name": "",
          "type": "address"
        }
      ],
      "stateMutability": "view",
      "type": "function",
      "constant": true
    },
    {
      "inputs": [
        {
          "internalType": "address",
          "name": "to",
          "type": "address"
        }
      ],
      "name": "allowed",
      "outputs": [
        {
          "internalType": "uint256",
          "name": "_allowedValue",
          "type": "uint256"
        }
      ],
      "stateMutability": "view",
      "type": "function",
      "constant": true
    }
  ],
  "bytecode": "0x60806040523480156200001157600080fd5b50604051620025a2380380620025a283398181016040528101906200003791906200042b565b80600960006101000a81548173ffffffffffffffffffffffffffffffffffffffff021916908373ffffffffffffffffffffffffffffffffffffffff160217905550600960009054906101000a900473ffffffffffffffffffffffffffffffffffffffff166000806101000a81548173ffffffffffffffffffffffffffffffffffffffff021916908373ffffffffffffffffffffffffffffffffffffffff16021790555060096005604051620000ec90620004b8565b9081526020016040518091039020819055506008600560405162000110906200051f565b908152602001604051809103902081905550600d6005604051620001349062000586565b9081526020016040518091039020819055506005806040516200015790620005ed565b908152602001604051809103902081905550603c60056040516200017b9062000654565b908152602001604051809103902081905550603260056040516200019f90620006bb565b90815260200160405180910390208190555060506005604051620001c39062000722565b908152602001604051809103902081905550600a6005604051620001e79062000789565b90815260200160405180910390208190555062093a8060056040516200020d90620007f0565b908152602001604051809103902081905550601a6005604051620002319062000857565b908152602001604051809103902081905550600060066040516200025590620008be565b908152602001604051809103902060006101000a81548173ffffffffffffffffffffffffffffffffffffffff021916908373ffffffffffffffffffffffffffffffffffffffff16021790555060006006604051620002b39062000925565b908152602001604051809103902060006101000a81548173ffffffffffffffffffffffffffffffffffffffff021916908373ffffffffffffffffffffffffffffffffffffffff16021790555030600660405162000310906200098c565b908152602001604051809103902060006101000a81548173ffffffffffffffffffffffffffffffffffffffff021916908373ffffffffffffffffffffffffffffffffffffffff160217905550600060066040516200036e90620009f3565b908152602001604051809103902060006101000a81548173ffffffffffffffffffffffffffffffffffffffff021916908373ffffffffffffffffffffffffffffffffffffffff1602179055505062000a0a565b600080fd5b600073ffffffffffffffffffffffffffffffffffffffff82169050919050565b6000620003f382620003c6565b9050919050565b6200040581620003e6565b81146200041157600080fd5b50565b6000815190506200042581620003fa565b92915050565b600060208284031215620004445762000443620003c1565b5b6000620004548482850162000414565b91505092915050565b600081905092915050565b7f696e746572657374526174650000000000000000000000000000000000000000600082015250565b6000620004a0600c836200045d565b9150620004ad8262000468565b600c82019050919050565b6000620004c58262000491565b9150819050919050565b7f6465706f73697452617465000000000000000000000000000000000000000000600082015250565b600062000507600b836200045d565b91506200051482620004cf565b600b82019050919050565b60006200052c82620004f8565b9150819050919050565b7f6c69717569646174696f6e466565000000000000000000000000000000000000600082015250565b60006200056e600e836200045d565b91506200057b8262000536565b600e82019050919050565b600062000593826200055f565b9150819050919050565b7f73746162696c697a6174696f6e46756e6450657263656e740000000000000000600082015250565b6000620005d56018836200045d565b9150620005e2826200059d565b601882019050919050565b6000620005fa82620005c6565b9150819050919050565b7f71756f72756d0000000000000000000000000000000000000000000000000000600082015250565b60006200063c6006836200045d565b9150620006498262000604565b600682019050919050565b600062000661826200062d565b9150819050919050565b7f6d616a6f72697479000000000000000000000000000000000000000000000000600082015250565b6000620006a36008836200045d565b9150620006b0826200066b565b600882019050919050565b6000620006c88262000694565b9150819050919050565b7f6162736f6c7574654d616a6f7269747900000000000000000000000000000000600082015250565b60006200070a6010836200045d565b91506200071782620006d2565b601082019050919050565b60006200072f82620006fb565b9150819050919050565b7f6d696e52756c65546f6b656e73546f496e6974566f74696e6700000000000000600082015250565b6000620007716019836200045d565b91506200077e8262000739565b601982019050919050565b6000620007968262000762565b9150819050919050565b7f566f74696e674475726174696f6e000000000000000000000000000000000000600082015250565b6000620007d8600e836200045d565b9150620007e582620007a0565b600e82019050919050565b6000620007fd82620007c9565b9150819050919050565b7f6d696e436f6c6c65746572616c00000000000000000000000000000000000000600082015250565b60006200083f600d836200045d565b91506200084c8262000807565b600d82019050919050565b6000620008648262000830565b9150819050919050565b7f636f6c6c65746572616c436f6e74726163744164647265737300000000000000600082015250565b6000620008a66019836200045d565b9150620008b3826200086e565b601982019050919050565b6000620008cb8262000897565b9150819050919050565b7f61756374696f6e436f6e74726163744164647265737300000000000000000000600082015250565b60006200090d6016836200045d565b91506200091a82620008d5565b601682019050919050565b60006200093282620008fe565b9150819050919050565b7f64616f4164647265737300000000000000000000000000000000000000000000600082015250565b600062000974600a836200045d565b915062000981826200093c565b600a82019050919050565b6000620009998262000965565b9150819050919050565b7f6f7261636c654164647265737300000000000000000000000000000000000000600082015250565b6000620009db600d836200045d565b9150620009e882620009a3565b600d82019050919050565b600062000a0082620009cc565b9150819050919050565b611b888062000a1a6000396000f3fe608060405234801561001057600080fd5b50600436106100b45760003560e01c8063bdfe7d4711610071578063bdfe7d47146101a1578063bf40fac1146101d1578063c9d27afe14610201578063d63a8e111461021d578063e4d345a31461024d578063f9ed6d5c14610269576100b4565b8063143d69bf146100b9578063145f822b146100e957806355b2636d146101195780635d4f71d4146101375780635dd5e327146101675780636ec21cc814610183575b600080fd5b6100d360048036038101906100ce9190611127565b610287565b6040516100e09190611182565b60405180910390f35b61010360048036038101906100fe91906112e3565b6104e7565b604051610110919061133b565b60405180910390f35b610121610515565b60405161012e9190611182565b60405180910390f35b610151600480360381019061014c91906112e3565b610528565b60405161015e919061133b565b60405180910390f35b610181600480360381019061017c9190611382565b610550565b005b61018b61080e565b604051610198919061133b565b60405180910390f35b6101bb60048036038101906101b691906112e3565b610814565b6040516101c89190611414565b60405180910390f35b6101eb60048036038101906101e691906112e3565b61085d565b6040516101f89190611414565b60405180910390f35b61021b6004803603810190610216919061142f565b6108a5565b005b6102376004803603810190610232919061146f565b610bf5565b604051610244919061133b565b60405180910390f35b6102676004803603810190610262919061149c565b610c3e565b005b610271610e8e565b60405161027e9190611414565b60405180910390f35b60003373ffffffffffffffffffffffffffffffffffffffff168373ffffffffffffffffffffffffffffffffffffffff16146102f7576040517f08c379a00000000000000000000000000000000000000000000000000000000081526004016102ee9061154c565b60405180910390fd5b6000600760003373ffffffffffffffffffffffffffffffffffffffff1673ffffffffffffffffffffffffffffffffffffffff1681526020019081526020016000205411610379576040517f08c379a0000000000000000000000000000000000000000000000000000000008152600401610370906115b8565b60405180910390fd5b600460009054906101000a900460ff1680156103e75750600060016000600354815260200190815260200160002060003373ffffffffffffffffffffffffffffffffffffffff1673ffffffffffffffffffffffffffffffffffffffff16815260200190815260200160002054115b1561046e5760016000600354815260200190815260200160002060003373ffffffffffffffffffffffffffffffffffffffff1673ffffffffffffffffffffffffffffffffffffffff1681526020019081526020016000205460026000600354815260200190815260200160002060000160008282546104669190611607565b925050819055505b81600760003373ffffffffffffffffffffffffffffffffffffffff1673ffffffffffffffffffffffffffffffffffffffff16815260200190815260200160002060008282546104bd9190611607565b9250508190555081600860008282546104d69190611607565b925050819055506001905092915050565b6005818051602081018201805184825260208301602085012081835280955050505050506000915090505481565b600460009054906101000a900460ff1681565b600060058260405161053a91906116b5565b9081526020016040518091039020549050919050565b600460009054906101000a900460ff161561056a57600080fd5b6064600560405161057a90611718565b90815260200160405180910390205460008054906101000a900473ffffffffffffffffffffffffffffffffffffffff1673ffffffffffffffffffffffffffffffffffffffff166318160ddd6040518163ffffffff1660e01b8152600401602060405180830381865afa1580156105f4573d6000803e3d6000fd5b505050506040513d601f19601f820116820180604052508101906106189190611742565b610622919061176f565b61062c91906117f8565b600760003373ffffffffffffffffffffffffffffffffffffffff1673ffffffffffffffffffffffffffffffffffffffff168152602001908152602001600020541161067657600080fd5b6003600081548092919061068990611829565b91905055506040518060c001604052806000815260200185151581526020018481526020018381526020018273ffffffffffffffffffffffffffffffffffffffff168152602001428152506002600060035481526020019081526020016000206000820151816000015560208201518160010160006101000a81548160ff021916908315150217905550604082015181600201908051906020019061072f929190610fdc565b506060820151816003015560808201518160040160006101000a81548173ffffffffffffffffffffffffffffffffffffffff021916908373ffffffffffffffffffffffffffffffffffffffff16021790555060a0820151816005015590505083156107d0577f3634eb058d99bb76fbc826277f27ca814af9ddeb9ec19fe59d70af0823ecd879836040516107c391906118ab565b60405180910390a1610808565b7fc0d86d7c74e180e631681e0d9aa0722f7eb329800ac3a95a92684b647441f760836040516107ff91906118ab565b60405180910390a15b50505050565b60085481565b6006818051602081018201805184825260208301602085012081835280955050505050506000915054906101000a900473ffffffffffffffffffffffffffffffffffffffff1681565b600060068260405161086f91906116b5565b908152602001604051809103902060009054906101000a900473ffffffffffffffffffffffffffffffffffffffff169050919050565b600460009054906101000a900460ff166108be57600080fd5b4260056040516108cd90611919565b908152602001604051809103902054600260006003548152602001908152602001600020600501546108ff919061192e565b1061090957600080fd5b6000600760003373ffffffffffffffffffffffffffffffffffffffff1673ffffffffffffffffffffffffffffffffffffffff168152602001908152602001600020541161095557600080fd5b8015610ac15760006001600084815260200190815260200160002060003373ffffffffffffffffffffffffffffffffffffffff1673ffffffffffffffffffffffffffffffffffffffff16815260200190815260200160002054600760003373ffffffffffffffffffffffffffffffffffffffff1673ffffffffffffffffffffffffffffffffffffffff168152602001908152602001600020546109f89190611607565b9050600760003373ffffffffffffffffffffffffffffffffffffffff1673ffffffffffffffffffffffffffffffffffffffff168152602001908152602001600020546001600085815260200190815260200160002060003373ffffffffffffffffffffffffffffffffffffffff1673ffffffffffffffffffffffffffffffffffffffff1681526020019081526020016000208190555080600260008581526020019081526020016000206000016000828254610ab4919061192e565b9250508190555050610bf1565b60006001600084815260200190815260200160002060003373ffffffffffffffffffffffffffffffffffffffff1673ffffffffffffffffffffffffffffffffffffffff168152602001908152602001600020541115610bf0576001600083815260200190815260200160002060003373ffffffffffffffffffffffffffffffffffffffff1673ffffffffffffffffffffffffffffffffffffffff168152602001908152602001600020546002600060035481526020019081526020016000206000016000828254610b929190611607565b9250508190555060006001600084815260200190815260200160002060003373ffffffffffffffffffffffffffffffffffffffff1673ffffffffffffffffffffffffffffffffffffffff168152602001908152602001600020819055505b5b5050565b6000600760008373ffffffffffffffffffffffffffffffffffffffff1673ffffffffffffffffffffffffffffffffffffffff168152602001908152602001600020549050919050565b60646005604051610c4e906119d0565b90815260200160405180910390205460008054906101000a900473ffffffffffffffffffffffffffffffffffffffff1673ffffffffffffffffffffffffffffffffffffffff166318160ddd6040518163ffffffff1660e01b8152600401602060405180830381865afa158015610cc8573d6000803e3d6000fd5b505050506040513d601f19601f82011682018060405250810190610cec9190611742565b610cf6919061176f565b610d0091906117f8565b60026000838152602001908152602001600020600001541115610d2b57610d2681610eb4565b610e8b565b426005604051610d3a90611919565b9081526020016040518091039020546002600084815260200190815260200160002060050154610d6a919061192e565b1015610e8a57606460008054906101000a900473ffffffffffffffffffffffffffffffffffffffff1673ffffffffffffffffffffffffffffffffffffffff166318160ddd6040518163ffffffff1660e01b8152600401602060405180830381865afa158015610ddd573d6000803e3d6000fd5b505050506040513d601f19601f82011682018060405250810190610e019190611742565b6005604051610e0f90611a31565b908152602001604051809103902054610e28919061176f565b610e3291906117f8565b600854118015610e7a57506002600082815260200190815260200160002060000154600854610e619190611607565b6002600083815260200190815260200160002060000154115b15610e8957610e8881610eb4565b5b5b5b50565b600960009054906101000a900473ffffffffffffffffffffffffffffffffffffffff1681565b6002600082815260200190815260200160002060010160009054906101000a900460ff1615610f30576002600082815260200190815260200160002060030154600560026000848152602001908152602001600020600201604051610f199190611b3b565b908152602001604051809103902081905550610fd9565b6002600082815260200190815260200160002060040160009054906101000a900473ffffffffffffffffffffffffffffffffffffffff16600660026000848152602001908152602001600020600201604051610f8c9190611b3b565b908152602001604051809103902060006101000a81548173ffffffffffffffffffffffffffffffffffffffff021916908373ffffffffffffffffffffffffffffffffffffffff1602179055505b50565b828054610fe890611a75565b90600052602060002090601f01602090048101928261100a5760008555611051565b82601f1061102357805160ff1916838001178555611051565b82800160010185558215611051579182015b82811115611050578251825591602001919060010190611035565b5b50905061105e9190611062565b5090565b5b8082111561107b576000816000905550600101611063565b5090565b6000604051905090565b600080fd5b600080fd5b600073ffffffffffffffffffffffffffffffffffffffff82169050919050565b60006110be82611093565b9050919050565b6110ce816110b3565b81146110d957600080fd5b50565b6000813590506110eb816110c5565b92915050565b6000819050919050565b611104816110f1565b811461110f57600080fd5b50565b600081359050611121816110fb565b92915050565b6000806040838503121561113e5761113d611089565b5b600061114c858286016110dc565b925050602061115d85828601611112565b9150509250929050565b60008115159050919050565b61117c81611167565b82525050565b60006020820190506111976000830184611173565b92915050565b600080fd5b600080fd5b6000601f19601f8301169050919050565b7f4e487b7100000000000000000000000000000000000000000000000000000000600052604160045260246000fd5b6111f0826111a7565b810181811067ffffffffffffffff8211171561120f5761120e6111b8565b5b80604052505050565b600061122261107f565b905061122e82826111e7565b919050565b600067ffffffffffffffff82111561124e5761124d6111b8565b5b611257826111a7565b9050602081019050919050565b82818337600083830152505050565b600061128661128184611233565b611218565b9050828152602081018484840111156112a2576112a16111a2565b5b6112ad848285611264565b509392505050565b600082601f8301126112ca576112c961119d565b5b81356112da848260208601611273565b91505092915050565b6000602082840312156112f9576112f8611089565b5b600082013567ffffffffffffffff8111156113175761131661108e565b5b611323848285016112b5565b91505092915050565b611335816110f1565b82525050565b6000602082019050611350600083018461132c565b92915050565b61135f81611167565b811461136a57600080fd5b50565b60008135905061137c81611356565b92915050565b6000806000806080858703121561139c5761139b611089565b5b60006113aa8782880161136d565b945050602085013567ffffffffffffffff8111156113cb576113ca61108e565b5b6113d7878288016112b5565b93505060406113e887828801611112565b92505060606113f9878288016110dc565b91505092959194509250565b61140e816110b3565b82525050565b60006020820190506114296000830184611405565b92915050565b6000806040838503121561144657611445611089565b5b600061145485828601611112565b92505060206114658582860161136d565b9150509250929050565b60006020828403121561148557611484611089565b5b6000611493848285016110dc565b91505092915050565b6000602082840312156114b2576114b1611089565b5b60006114c084828501611112565b91505092915050565b600082825260208201905092915050565b7f596f752063616e2074616b65206261636b206f6e6c7920796f7572207065727360008201527f6f6e616c20746f6b656e73000000000000000000000000000000000000000000602082015250565b6000611536602b836114c9565b9150611541826114da565b604082019050919050565b6000602082019050818103600083015261156581611529565b9050919050565b7f596f75206d757374206861766520706f6f6c656420746f6b656e730000000000600082015250565b60006115a2601b836114c9565b91506115ad8261156c565b602082019050919050565b600060208201905081810360008301526115d181611595565b9050919050565b7f4e487b7100000000000000000000000000000000000000000000000000000000600052601160045260246000fd5b6000611612826110f1565b915061161d836110f1565b9250828210156116305761162f6115d8565b5b828203905092915050565b600081519050919050565b600081905092915050565b60005b8381101561166f578082015181840152602081019050611654565b8381111561167e576000848401525b50505050565b600061168f8261163b565b6116998185611646565b93506116a9818560208601611651565b80840191505092915050565b60006116c18284611684565b915081905092915050565b7f6d696e536861726573546f496e6974566f74696e670000000000000000000000600082015250565b6000611702601583611646565b915061170d826116cc565b601582019050919050565b6000611723826116f5565b9150819050919050565b60008151905061173c816110fb565b92915050565b60006020828403121561175857611757611089565b5b60006117668482850161172d565b91505092915050565b600061177a826110f1565b9150611785836110f1565b9250817fffffffffffffffffffffffffffffffffffffffffffffffffffffffffffffffff04831182151516156117be576117bd6115d8565b5b828202905092915050565b7f4e487b7100000000000000000000000000000000000000000000000000000000600052601260045260246000fd5b6000611803826110f1565b915061180e836110f1565b92508261181e5761181d6117c9565b5b828204905092915050565b6000611834826110f1565b91507fffffffffffffffffffffffffffffffffffffffffffffffffffffffffffffffff821415611867576118666115d8565b5b600182019050919050565b600061187d8261163b565b61188781856114c9565b9350611897818560208601611651565b6118a0816111a7565b840191505092915050565b600060208201905081810360008301526118c58184611872565b905092915050565b7f566f74696e674475726174696f6e000000000000000000000000000000000000600082015250565b6000611903600e83611646565b915061190e826118cd565b600e82019050919050565b6000611924826118f6565b9150819050919050565b6000611939826110f1565b9150611944836110f1565b9250827fffffffffffffffffffffffffffffffffffffffffffffffffffffffffffffffff03821115611979576119786115d8565b5b828201905092915050565b7f6162736f6c7574654d616a6f7269747900000000000000000000000000000000600082015250565b60006119ba601083611646565b91506119c582611984565b601082019050919050565b60006119db826119ad565b9150819050919050565b7f71756f72756d0000000000000000000000000000000000000000000000000000600082015250565b6000611a1b600683611646565b9150611a26826119e5565b600682019050919050565b6000611a3c82611a0e565b9150819050919050565b7f4e487b7100000000000000000000000000000000000000000000000000000000600052602260045260246000fd5b60006002820490506001821680611a8d57607f821691505b60208210811415611aa157611aa0611a46565b5b50919050565b60008190508160005260206000209050919050565b60008154611ac981611a75565b611ad38186611646565b94506001821660008114611aee5760018114611aff57611b32565b60ff19831686528186019350611b32565b611b0885611aa7565b60005b83811015611b2a57815481890152600182019150602081019050611b0b565b838801955050505b50505092915050565b6000611b478284611abc565b91508190509291505056fea2646970667358221220fa94c15669c2151aadc46afe49a647b00d9e7c3beec49201ab5b8340b3bb726a64736f6c634300080a0033",
  "immutableReferences": {},
  "source": "// SPDX-License-Identifier: UNLICENSED\r\npragma solidity >=0.4.22 <0.9.0;\r\nimport \"./Rule.sol\";\r\n\r\n/*\r\n\r\nPolls for parameters and important contract addresses for INTDAO\r\n\r\n*/\r\n\r\ncontract INTDAO {\r\n    Rule ruleToken;\r\n    mapping (uint => mapping(address => uint)) votes;\r\n\r\n    mapping (uint=>Voting) votings;\r\n    uint votingID;\r\n\r\n    struct Voting {\r\n        uint totalPositive;\r\n        bool paramOrAddress;\r\n        string name;\r\n        uint value;\r\n        address addr;\r\n        uint startTime;\r\n    }\r\n\r\n    bool public activeVoting;\r\n\r\n    mapping (string => uint) public params;\r\n    mapping (string => address) public addresses;\r\n\r\n    mapping (address => uint) pooled;\r\n    uint public totalPooled;\r\n\r\n    event NewParamVoteing (string name);\r\n    event NewAddressVoteing (string name);\r\n\r\n    address public ruleTokenAddress; //The only unchangable address\r\n\r\n    constructor (address initalRuleTokenAddress) { //\r\n        ruleTokenAddress = initalRuleTokenAddress;\r\n        ruleToken = Rule(ruleTokenAddress);\r\n\r\n        params['interestRate'] = 9;\r\n        params['depositRate']=8;\r\n        params['liquidationFee'] = 13;\r\n        params['stabilizationFundPercent'] = 5;\r\n        params['quorum'] = 60;\r\n        params['majority'] = 50;\r\n        params['absoluteMajority'] = 80;\r\n        params['minRuleTokensToInitVoting'] = 10;\r\n        params['VotingDuration'] = 1 weeks;\r\n\r\n        params['minColleteral'] = 1*10^16; // minColleteral is 0.01 ETH\r\n\r\n        addresses['colleteralContractAddress'] = address(0x0);\r\n        addresses['auctionContractAddress'] = address(0x0);\r\n        addresses['daoAddress'] = address(this);\r\n        addresses['oracleAddress'] = address(0x0);\r\n    }\r\n\r\n    function addVoting(bool paramOrAddress, string memory name, uint value, address addr) public {\r\n        require(!activeVoting);\r\n        require (pooled[msg.sender]>ruleToken.totalSupply()*params['minSharesToInitVoting']/100);\r\n        votingID ++;\r\n        votings[votingID] = Voting(0, paramOrAddress, name, value, addr, block.timestamp);\r\n\r\n        if (paramOrAddress)\r\n            emit NewParamVoteing(name);\r\n        else\r\n            emit NewAddressVoteing(name);\r\n    }\r\n\r\n    /*\r\n    function poolControlTokens() public {\r\n        uint256 controlTokensAllowed = controlToken.allowance(msg.sender, address(this));\r\n        require(controlToken.transferFrom(msg.sender, address(this),controlTokensAllowed));\r\n        pooled[msg.sender] += controlTokensAllowed;\r\n        totalPooled += controlTokensAllowed;\r\n    }*/\r\n\r\n    function transfered(address destination, uint value) public returns (bool) {\r\n        require(destination == msg.sender, 'You can take back only your personal tokens');\r\n        require(pooled[msg.sender] > 0, 'You must have pooled tokens');\r\n        if (activeVoting && votes[votingID][msg.sender]>0){\r\n            votings[votingID].totalPositive -= votes[votingID][msg.sender];\r\n        }\r\n        pooled[msg.sender] -= value;\r\n        totalPooled -= value;\r\n        return true;\r\n    }\r\n/*\r\n    function takeAllFromThePool() public { //This function calls transfered, which lows positive votes\r\n        require(pooled[msg.sender] > 0, 'You must have pooled tokens');\r\n        controlToken.authorizedContractTransfer(address(this), msg.sender, pooled[msg.sender]);\r\n    }\r\n*/\r\n    function vote(uint votingId, bool _vote) public{\r\n        require(activeVoting);\r\n        require(votings[votingID].startTime + params['VotingDuration'] < block.timestamp);\r\n        require(pooled[msg.sender]>0);\r\n\r\n        if (_vote) {\r\n            uint _votesToAdd = pooled[msg.sender] - votes[votingId][msg.sender];\r\n            votes[votingId][msg.sender] = pooled[msg.sender];\r\n            votings[votingId].totalPositive += _votesToAdd;\r\n        }\r\n        else {\r\n            if (votes[votingId][msg.sender] > 0){\r\n                votings[votingID].totalPositive -= votes[votingId][msg.sender];\r\n                votes[votingId][msg.sender] = 0;\r\n            }\r\n        }\r\n    }\r\n\r\n    function finalizeVoting(uint votingId) internal {\r\n        if (votings[votingId].paramOrAddress)\r\n            params[votings[votingId].name] = votings[votingId].value;\r\n        else\r\n            addresses[votings[votingId].name] = votings[votingId].addr;\r\n    }\r\n\r\n    function claimToFinalizeVoting(uint votingId) public {\r\n        if (votings[votingId].totalPositive > ruleToken.totalSupply() * params['absoluteMajority'] / 100)\r\n            finalizeVoting(votingId);\r\n        else if (votings[votingId].startTime + params['VotingDuration'] < block.timestamp) {\r\n            if (totalPooled > params['quorum'] * ruleToken.totalSupply() / 100 && votings[votingId].totalPositive > (totalPooled - votings[votingId].totalPositive))\r\n                finalizeVoting(votingId);\r\n        }\r\n    }\r\n\r\n    function getParam(string memory paramName) public view returns (uint) {\r\n        return params[paramName];\r\n    }\r\n\r\n    function getAddress(string memory addressName) public view returns (address) {\r\n        return addresses[addressName];\r\n    }\r\n\r\n    function allowed(address to) public view returns (uint _allowedValue) {\r\n        return pooled[to];\r\n    }\r\n}\r\n",
  "sourcePath": "C:\\Users\\d.nagornykh\\YandexDisk\\\\ICO\\CryptoFiat\\repo\\contracts\\INTDAO.sol",
  "compiler": {
    "name": "solc",
    "version": "0.8.10+commit.fc410830.Emscripten.clang"
  },
  "schemaVersion": "3.4.4",
  "updatedAt": "2022-01-19T07:50:28.058Z",
  "networkType": "ethereum",
  "devdoc": {
    "kind": "dev",
    "methods": {},
    "version": 1
  },
  "userdoc": {
    "kind": "user",
    "methods": {},
    "version": 1
  }
}