{
  "contractName": "INTDAO",
  "abi": [
    {
      "inputs": [
        {
          "internalType": "address",
          "name": "initalRuleTokenAddress",
          "type": "address"
        },
        {
          "internalType": "address",
          "name": "oracleAddress",
          "type": "address"
        },
        {
          "internalType": "address",
          "name": "stableCoinAddress",
          "type": "address"
        }
      ],
      "stateMutability": "nonpayable",
      "type": "constructor"
    },
    {
      "anonymous": false,
      "inputs": [
        {
          "indexed": false,
          "internalType": "string",
          "name": "name",
          "type": "string"
        }
      ],
      "name": "NewAddressVoteing",
      "type": "event"
    },
    {
      "anonymous": false,
      "inputs": [
        {
          "indexed": false,
          "internalType": "string",
          "name": "name",
          "type": "string"
        }
      ],
      "name": "NewParamVoteing",
      "type": "event"
    },
    {
      "inputs": [],
      "name": "activeVoting",
      "outputs": [
        {
          "internalType": "bool",
          "name": "",
          "type": "bool"
        }
      ],
      "stateMutability": "view",
      "type": "function",
      "constant": true
    },
    {
      "inputs": [
        {
          "internalType": "string",
          "name": "",
          "type": "string"
        }
      ],
      "name": "addresses",
      "outputs": [
        {
          "internalType": "address",
          "name": "",
          "type": "address"
        }
      ],
      "stateMutability": "view",
      "type": "function",
      "constant": true
    },
    {
      "inputs": [
        {
          "internalType": "string",
          "name": "",
          "type": "string"
        }
      ],
      "name": "params",
      "outputs": [
        {
          "internalType": "uint256",
          "name": "",
          "type": "uint256"
        }
      ],
      "stateMutability": "view",
      "type": "function",
      "constant": true
    },
    {
      "inputs": [],
      "name": "ruleTokenAddress",
      "outputs": [
        {
          "internalType": "address",
          "name": "",
          "type": "address"
        }
      ],
      "stateMutability": "view",
      "type": "function",
      "constant": true
    },
    {
      "inputs": [],
      "name": "totalPooled",
      "outputs": [
        {
          "internalType": "uint256",
          "name": "",
          "type": "uint256"
        }
      ],
      "stateMutability": "view",
      "type": "function",
      "constant": true
    },
    {
      "inputs": [
        {
          "internalType": "bool",
          "name": "paramOrAddress",
          "type": "bool"
        },
        {
          "internalType": "string",
          "name": "name",
          "type": "string"
        },
        {
          "internalType": "uint256",
          "name": "value",
          "type": "uint256"
        },
        {
          "internalType": "address",
          "name": "addr",
          "type": "address"
        }
      ],
      "name": "addVoting",
      "outputs": [],
      "stateMutability": "nonpayable",
      "type": "function"
    },
    {
      "inputs": [
        {
          "internalType": "address",
          "name": "destination",
          "type": "address"
        },
        {
          "internalType": "uint256",
          "name": "value",
          "type": "uint256"
        }
      ],
      "name": "transfered",
      "outputs": [
        {
          "internalType": "bool",
          "name": "",
          "type": "bool"
        }
      ],
      "stateMutability": "nonpayable",
      "type": "function"
    },
    {
      "inputs": [
        {
          "internalType": "uint256",
          "name": "votingId",
          "type": "uint256"
        },
        {
          "internalType": "bool",
          "name": "_vote",
          "type": "bool"
        }
      ],
      "name": "vote",
      "outputs": [],
      "stateMutability": "nonpayable",
      "type": "function"
    },
    {
      "inputs": [
        {
          "internalType": "uint256",
          "name": "votingId",
          "type": "uint256"
        }
      ],
      "name": "claimToFinalizeVoting",
      "outputs": [],
      "stateMutability": "nonpayable",
      "type": "function"
    },
    {
      "inputs": [
        {
          "internalType": "address",
          "name": "to",
          "type": "address"
        }
      ],
      "name": "allowed",
      "outputs": [
        {
          "internalType": "uint256",
          "name": "_allowedValue",
          "type": "uint256"
        }
      ],
      "stateMutability": "view",
      "type": "function",
      "constant": true
    },
    {
      "inputs": [
        {
          "internalType": "bool",
          "name": "paramOrAddress",
          "type": "bool"
        },
        {
          "internalType": "string",
          "name": "name",
          "type": "string"
        },
        {
          "internalType": "uint256",
          "name": "value",
          "type": "uint256"
        },
        {
          "internalType": "address",
          "name": "addr",
          "type": "address"
        }
      ],
      "name": "init",
      "outputs": [],
      "stateMutability": "nonpayable",
      "type": "function"
    }
  ],
  "bytecode": "0x60806040523480156200001157600080fd5b5060405162002797380380620027978339818101604052810190620000379190620004ad565b82600960006101000a81548173ffffffffffffffffffffffffffffffffffffffff021916908373ffffffffffffffffffffffffffffffffffffffff160217905550600960009054906101000a900473ffffffffffffffffffffffffffffffffffffffff166000806101000a81548173ffffffffffffffffffffffffffffffffffffffff021916908373ffffffffffffffffffffffffffffffffffffffff16021790555060096005604051620000ec9062000564565b908152602001604051809103902081905550600860056040516200011090620005cb565b908152602001604051809103902081905550600d6005604051620001349062000632565b908152602001604051809103902081905550601e6005604051620001589062000699565b9081526020016040518091039020819055506005806040516200017b9062000700565b908152602001604051809103902081905550603c60056040516200019f9062000767565b90815260200160405180910390208190555060326005604051620001c390620007ce565b90815260200160405180910390208190555060506005604051620001e79062000835565b908152602001604051809103902081905550600a60056040516200020b906200089c565b90815260200160405180910390208190555062093a806005604051620002319062000903565b908152602001604051809103902081905550601a600560405162000255906200096a565b908152602001604051809103902081905550600060066040516200027990620009d1565b908152602001604051809103902060006101000a81548173ffffffffffffffffffffffffffffffffffffffff021916908373ffffffffffffffffffffffffffffffffffffffff16021790555060006006604051620002d79062000a38565b908152602001604051809103902060006101000a81548173ffffffffffffffffffffffffffffffffffffffff021916908373ffffffffffffffffffffffffffffffffffffffff160217905550806006604051620003349062000a9f565b908152602001604051809103902060006101000a81548173ffffffffffffffffffffffffffffffffffffffff021916908373ffffffffffffffffffffffffffffffffffffffff160217905550306006604051620003919062000b06565b908152602001604051809103902060006101000a81548173ffffffffffffffffffffffffffffffffffffffff021916908373ffffffffffffffffffffffffffffffffffffffff160217905550816006604051620003ee9062000b6d565b908152602001604051809103902060006101000a81548173ffffffffffffffffffffffffffffffffffffffff021916908373ffffffffffffffffffffffffffffffffffffffff16021790555050505062000b84565b600080fd5b600073ffffffffffffffffffffffffffffffffffffffff82169050919050565b6000620004758262000448565b9050919050565b620004878162000468565b81146200049357600080fd5b50565b600081519050620004a7816200047c565b92915050565b600080600060608486031215620004c957620004c862000443565b5b6000620004d98682870162000496565b9350506020620004ec8682870162000496565b9250506040620004ff8682870162000496565b9150509250925092565b600081905092915050565b7f696e746572657374526174650000000000000000000000000000000000000000600082015250565b60006200054c600c8362000509565b9150620005598262000514565b600c82019050919050565b600062000571826200053d565b9150819050919050565b7f6465706f73697452617465000000000000000000000000000000000000000000600082015250565b6000620005b3600b8362000509565b9150620005c0826200057b565b600b82019050919050565b6000620005d882620005a4565b9150819050919050565b7f6c69717569646174696f6e466565000000000000000000000000000000000000600082015250565b60006200061a600e8362000509565b91506200062782620005e2565b600e82019050919050565b60006200063f826200060b565b9150819050919050565b7f636f6c6c61746572616c446973636f756e740000000000000000000000000000600082015250565b60006200068160128362000509565b91506200068e8262000649565b601282019050919050565b6000620006a68262000672565b9150819050919050565b7f73746162696c697a6174696f6e46756e6450657263656e740000000000000000600082015250565b6000620006e860188362000509565b9150620006f582620006b0565b601882019050919050565b60006200070d82620006d9565b9150819050919050565b7f71756f72756d0000000000000000000000000000000000000000000000000000600082015250565b60006200074f60068362000509565b91506200075c8262000717565b600682019050919050565b6000620007748262000740565b9150819050919050565b7f6d616a6f72697479000000000000000000000000000000000000000000000000600082015250565b6000620007b660088362000509565b9150620007c3826200077e565b600882019050919050565b6000620007db82620007a7565b9150819050919050565b7f6162736f6c7574654d616a6f7269747900000000000000000000000000000000600082015250565b60006200081d60108362000509565b91506200082a82620007e5565b601082019050919050565b600062000842826200080e565b9150819050919050565b7f6d696e52756c65546f6b656e73546f496e6974566f74696e6700000000000000600082015250565b60006200088460198362000509565b915062000891826200084c565b601982019050919050565b6000620008a98262000875565b9150819050919050565b7f566f74696e674475726174696f6e000000000000000000000000000000000000600082015250565b6000620008eb600e8362000509565b9150620008f882620008b3565b600e82019050919050565b60006200091082620008dc565b9150819050919050565b7f6d696e436f6c6c65746572616c00000000000000000000000000000000000000600082015250565b600062000952600d8362000509565b91506200095f826200091a565b600d82019050919050565b6000620009778262000943565b9150819050919050565b7f636f6c6c65746572616c436f6e74726163744164647265737300000000000000600082015250565b6000620009b960198362000509565b9150620009c68262000981565b601982019050919050565b6000620009de82620009aa565b9150819050919050565b7f61756374696f6e436f6e74726163744164647265737300000000000000000000600082015250565b600062000a2060168362000509565b915062000a2d82620009e8565b601682019050919050565b600062000a458262000a11565b9150819050919050565b7f737461626c65436f696e41646472657373000000000000000000000000000000600082015250565b600062000a8760118362000509565b915062000a948262000a4f565b601182019050919050565b600062000aac8262000a78565b9150819050919050565b7f64616f4164647265737300000000000000000000000000000000000000000000600082015250565b600062000aee600a8362000509565b915062000afb8262000ab6565b600a82019050919050565b600062000b138262000adf565b9150819050919050565b7f6f7261636c654164647265737300000000000000000000000000000000000000600082015250565b600062000b55600d8362000509565b915062000b628262000b1d565b600d82019050919050565b600062000b7a8262000b46565b9150819050919050565b611c038062000b946000396000f3fe608060405234801561001057600080fd5b50600436106100a95760003560e01c80636ec21cc8116100715780636ec21cc814610164578063bdfe7d4714610182578063c9d27afe146101b2578063d63a8e11146101ce578063e4d345a3146101fe578063f9ed6d5c1461021a576100a9565b8063143d69bf146100ae578063145f822b146100de57806333c6a5671461010e57806355b2636d1461012a5780635dd5e32714610148575b600080fd5b6100c860048036038101906100c391906111a2565b610238565b6040516100d591906111fd565b60405180910390f35b6100f860048036038101906100f3919061135e565b610498565b60405161010591906113b6565b60405180910390f35b610128600480360381019061012391906113fd565b6104c6565b005b610132610600565b60405161013f91906111fd565b60405180910390f35b610162600480360381019061015d91906113fd565b610613565b005b61016c6108d1565b60405161017991906113b6565b60405180910390f35b61019c6004803603810190610197919061135e565b6108d7565b6040516101a9919061148f565b60405180910390f35b6101cc60048036038101906101c791906114aa565b610920565b005b6101e860048036038101906101e391906114ea565b610c70565b6040516101f591906113b6565b60405180910390f35b61021860048036038101906102139190611517565b610cb9565b005b610222610f09565b60405161022f919061148f565b60405180910390f35b60003373ffffffffffffffffffffffffffffffffffffffff168373ffffffffffffffffffffffffffffffffffffffff16146102a8576040517f08c379a000000000000000000000000000000000000000000000000000000000815260040161029f906115c7565b60405180910390fd5b6000600760003373ffffffffffffffffffffffffffffffffffffffff1673ffffffffffffffffffffffffffffffffffffffff168152602001908152602001600020541161032a576040517f08c379a000000000000000000000000000000000000000000000000000000000815260040161032190611633565b60405180910390fd5b600460009054906101000a900460ff1680156103985750600060016000600354815260200190815260200160002060003373ffffffffffffffffffffffffffffffffffffffff1673ffffffffffffffffffffffffffffffffffffffff16815260200190815260200160002054115b1561041f5760016000600354815260200190815260200160002060003373ffffffffffffffffffffffffffffffffffffffff1673ffffffffffffffffffffffffffffffffffffffff1681526020019081526020016000205460026000600354815260200190815260200160002060000160008282546104179190611682565b925050819055505b81600760003373ffffffffffffffffffffffffffffffffffffffff1673ffffffffffffffffffffffffffffffffffffffff168152602001908152602001600020600082825461046e9190611682565b9250508190555081600860008282546104879190611682565b925050819055506001905092915050565b6005818051602081018201805184825260208301602085012081835280955050505050506000915090505481565b8380156104f1575060006005846040516104e09190611730565b908152602001604051809103902054145b1561051e57816005846040516105079190611730565b9081526020016040518091039020819055506105fa565b831580156105965750600073ffffffffffffffffffffffffffffffffffffffff1660068460405161054f9190611730565b908152602001604051809103902060009054906101000a900473ffffffffffffffffffffffffffffffffffffffff1673ffffffffffffffffffffffffffffffffffffffff16145b156105f957806006846040516105ac9190611730565b908152602001604051809103902060006101000a81548173ffffffffffffffffffffffffffffffffffffffff021916908373ffffffffffffffffffffffffffffffffffffffff1602179055505b5b50505050565b600460009054906101000a900460ff1681565b600460009054906101000a900460ff161561062d57600080fd5b6064600560405161063d90611793565b90815260200160405180910390205460008054906101000a900473ffffffffffffffffffffffffffffffffffffffff1673ffffffffffffffffffffffffffffffffffffffff166318160ddd6040518163ffffffff1660e01b8152600401602060405180830381865afa1580156106b7573d6000803e3d6000fd5b505050506040513d601f19601f820116820180604052508101906106db91906117bd565b6106e591906117ea565b6106ef9190611873565b600760003373ffffffffffffffffffffffffffffffffffffffff1673ffffffffffffffffffffffffffffffffffffffff168152602001908152602001600020541161073957600080fd5b6003600081548092919061074c906118a4565b91905055506040518060c001604052806000815260200185151581526020018481526020018381526020018273ffffffffffffffffffffffffffffffffffffffff168152602001428152506002600060035481526020019081526020016000206000820151816000015560208201518160010160006101000a81548160ff02191690831515021790555060408201518160020190805190602001906107f2929190611057565b506060820151816003015560808201518160040160006101000a81548173ffffffffffffffffffffffffffffffffffffffff021916908373ffffffffffffffffffffffffffffffffffffffff16021790555060a082015181600501559050508315610893577f3634eb058d99bb76fbc826277f27ca814af9ddeb9ec19fe59d70af0823ecd879836040516108869190611926565b60405180910390a16108cb565b7fc0d86d7c74e180e631681e0d9aa0722f7eb329800ac3a95a92684b647441f760836040516108c29190611926565b60405180910390a15b50505050565b60085481565b6006818051602081018201805184825260208301602085012081835280955050505050506000915054906101000a900473ffffffffffffffffffffffffffffffffffffffff1681565b600460009054906101000a900460ff1661093957600080fd5b42600560405161094890611994565b9081526020016040518091039020546002600060035481526020019081526020016000206005015461097a91906119a9565b1061098457600080fd5b6000600760003373ffffffffffffffffffffffffffffffffffffffff1673ffffffffffffffffffffffffffffffffffffffff16815260200190815260200160002054116109d057600080fd5b8015610b3c5760006001600084815260200190815260200160002060003373ffffffffffffffffffffffffffffffffffffffff1673ffffffffffffffffffffffffffffffffffffffff16815260200190815260200160002054600760003373ffffffffffffffffffffffffffffffffffffffff1673ffffffffffffffffffffffffffffffffffffffff16815260200190815260200160002054610a739190611682565b9050600760003373ffffffffffffffffffffffffffffffffffffffff1673ffffffffffffffffffffffffffffffffffffffff168152602001908152602001600020546001600085815260200190815260200160002060003373ffffffffffffffffffffffffffffffffffffffff1673ffffffffffffffffffffffffffffffffffffffff1681526020019081526020016000208190555080600260008581526020019081526020016000206000016000828254610b2f91906119a9565b9250508190555050610c6c565b60006001600084815260200190815260200160002060003373ffffffffffffffffffffffffffffffffffffffff1673ffffffffffffffffffffffffffffffffffffffff168152602001908152602001600020541115610c6b576001600083815260200190815260200160002060003373ffffffffffffffffffffffffffffffffffffffff1673ffffffffffffffffffffffffffffffffffffffff168152602001908152602001600020546002600060035481526020019081526020016000206000016000828254610c0d9190611682565b9250508190555060006001600084815260200190815260200160002060003373ffffffffffffffffffffffffffffffffffffffff1673ffffffffffffffffffffffffffffffffffffffff168152602001908152602001600020819055505b5b5050565b6000600760008373ffffffffffffffffffffffffffffffffffffffff1673ffffffffffffffffffffffffffffffffffffffff168152602001908152602001600020549050919050565b60646005604051610cc990611a4b565b90815260200160405180910390205460008054906101000a900473ffffffffffffffffffffffffffffffffffffffff1673ffffffffffffffffffffffffffffffffffffffff166318160ddd6040518163ffffffff1660e01b8152600401602060405180830381865afa158015610d43573d6000803e3d6000fd5b505050506040513d601f19601f82011682018060405250810190610d6791906117bd565b610d7191906117ea565b610d7b9190611873565b60026000838152602001908152602001600020600001541115610da657610da181610f2f565b610f06565b426005604051610db590611994565b9081526020016040518091039020546002600084815260200190815260200160002060050154610de591906119a9565b1015610f0557606460008054906101000a900473ffffffffffffffffffffffffffffffffffffffff1673ffffffffffffffffffffffffffffffffffffffff166318160ddd6040518163ffffffff1660e01b8152600401602060405180830381865afa158015610e58573d6000803e3d6000fd5b505050506040513d601f19601f82011682018060405250810190610e7c91906117bd565b6005604051610e8a90611aac565b908152602001604051809103902054610ea391906117ea565b610ead9190611873565b600854118015610ef557506002600082815260200190815260200160002060000154600854610edc9190611682565b6002600083815260200190815260200160002060000154115b15610f0457610f0381610f2f565b5b5b5b50565b600960009054906101000a900473ffffffffffffffffffffffffffffffffffffffff1681565b6002600082815260200190815260200160002060010160009054906101000a900460ff1615610fab576002600082815260200190815260200160002060030154600560026000848152602001908152602001600020600201604051610f949190611bb6565b908152602001604051809103902081905550611054565b6002600082815260200190815260200160002060040160009054906101000a900473ffffffffffffffffffffffffffffffffffffffff166006600260008481526020019081526020016000206002016040516110079190611bb6565b908152602001604051809103902060006101000a81548173ffffffffffffffffffffffffffffffffffffffff021916908373ffffffffffffffffffffffffffffffffffffffff1602179055505b50565b82805461106390611af0565b90600052602060002090601f01602090048101928261108557600085556110cc565b82601f1061109e57805160ff19168380011785556110cc565b828001600101855582156110cc579182015b828111156110cb5782518255916020019190600101906110b0565b5b5090506110d991906110dd565b5090565b5b808211156110f65760008160009055506001016110de565b5090565b6000604051905090565b600080fd5b600080fd5b600073ffffffffffffffffffffffffffffffffffffffff82169050919050565b60006111398261110e565b9050919050565b6111498161112e565b811461115457600080fd5b50565b60008135905061116681611140565b92915050565b6000819050919050565b61117f8161116c565b811461118a57600080fd5b50565b60008135905061119c81611176565b92915050565b600080604083850312156111b9576111b8611104565b5b60006111c785828601611157565b92505060206111d88582860161118d565b9150509250929050565b60008115159050919050565b6111f7816111e2565b82525050565b600060208201905061121260008301846111ee565b92915050565b600080fd5b600080fd5b6000601f19601f8301169050919050565b7f4e487b7100000000000000000000000000000000000000000000000000000000600052604160045260246000fd5b61126b82611222565b810181811067ffffffffffffffff8211171561128a57611289611233565b5b80604052505050565b600061129d6110fa565b90506112a98282611262565b919050565b600067ffffffffffffffff8211156112c9576112c8611233565b5b6112d282611222565b9050602081019050919050565b82818337600083830152505050565b60006113016112fc846112ae565b611293565b90508281526020810184848401111561131d5761131c61121d565b5b6113288482856112df565b509392505050565b600082601f83011261134557611344611218565b5b81356113558482602086016112ee565b91505092915050565b60006020828403121561137457611373611104565b5b600082013567ffffffffffffffff81111561139257611391611109565b5b61139e84828501611330565b91505092915050565b6113b08161116c565b82525050565b60006020820190506113cb60008301846113a7565b92915050565b6113da816111e2565b81146113e557600080fd5b50565b6000813590506113f7816113d1565b92915050565b6000806000806080858703121561141757611416611104565b5b6000611425878288016113e8565b945050602085013567ffffffffffffffff81111561144657611445611109565b5b61145287828801611330565b93505060406114638782880161118d565b925050606061147487828801611157565b91505092959194509250565b6114898161112e565b82525050565b60006020820190506114a46000830184611480565b92915050565b600080604083850312156114c1576114c0611104565b5b60006114cf8582860161118d565b92505060206114e0858286016113e8565b9150509250929050565b600060208284031215611500576114ff611104565b5b600061150e84828501611157565b91505092915050565b60006020828403121561152d5761152c611104565b5b600061153b8482850161118d565b91505092915050565b600082825260208201905092915050565b7f596f752063616e2074616b65206261636b206f6e6c7920796f7572207065727360008201527f6f6e616c20746f6b656e73000000000000000000000000000000000000000000602082015250565b60006115b1602b83611544565b91506115bc82611555565b604082019050919050565b600060208201905081810360008301526115e0816115a4565b9050919050565b7f596f75206d757374206861766520706f6f6c656420746f6b656e730000000000600082015250565b600061161d601b83611544565b9150611628826115e7565b602082019050919050565b6000602082019050818103600083015261164c81611610565b9050919050565b7f4e487b7100000000000000000000000000000000000000000000000000000000600052601160045260246000fd5b600061168d8261116c565b91506116988361116c565b9250828210156116ab576116aa611653565b5b828203905092915050565b600081519050919050565b600081905092915050565b60005b838110156116ea5780820151818401526020810190506116cf565b838111156116f9576000848401525b50505050565b600061170a826116b6565b61171481856116c1565b93506117248185602086016116cc565b80840191505092915050565b600061173c82846116ff565b915081905092915050565b7f6d696e536861726573546f496e6974566f74696e670000000000000000000000600082015250565b600061177d6015836116c1565b915061178882611747565b601582019050919050565b600061179e82611770565b9150819050919050565b6000815190506117b781611176565b92915050565b6000602082840312156117d3576117d2611104565b5b60006117e1848285016117a8565b91505092915050565b60006117f58261116c565b91506118008361116c565b9250817fffffffffffffffffffffffffffffffffffffffffffffffffffffffffffffffff048311821515161561183957611838611653565b5b828202905092915050565b7f4e487b7100000000000000000000000000000000000000000000000000000000600052601260045260246000fd5b600061187e8261116c565b91506118898361116c565b92508261189957611898611844565b5b828204905092915050565b60006118af8261116c565b91507fffffffffffffffffffffffffffffffffffffffffffffffffffffffffffffffff8214156118e2576118e1611653565b5b600182019050919050565b60006118f8826116b6565b6119028185611544565b93506119128185602086016116cc565b61191b81611222565b840191505092915050565b6000602082019050818103600083015261194081846118ed565b905092915050565b7f566f74696e674475726174696f6e000000000000000000000000000000000000600082015250565b600061197e600e836116c1565b915061198982611948565b600e82019050919050565b600061199f82611971565b9150819050919050565b60006119b48261116c565b91506119bf8361116c565b9250827fffffffffffffffffffffffffffffffffffffffffffffffffffffffffffffffff038211156119f4576119f3611653565b5b828201905092915050565b7f6162736f6c7574654d616a6f7269747900000000000000000000000000000000600082015250565b6000611a356010836116c1565b9150611a40826119ff565b601082019050919050565b6000611a5682611a28565b9150819050919050565b7f71756f72756d0000000000000000000000000000000000000000000000000000600082015250565b6000611a966006836116c1565b9150611aa182611a60565b600682019050919050565b6000611ab782611a89565b9150819050919050565b7f4e487b7100000000000000000000000000000000000000000000000000000000600052602260045260246000fd5b60006002820490506001821680611b0857607f821691505b60208210811415611b1c57611b1b611ac1565b5b50919050565b60008190508160005260206000209050919050565b60008154611b4481611af0565b611b4e81866116c1565b94506001821660008114611b695760018114611b7a57611bad565b60ff19831686528186019350611bad565b611b8385611b22565b60005b83811015611ba557815481890152600182019150602081019050611b86565b838801955050505b50505092915050565b6000611bc28284611b37565b91508190509291505056fea26469706673582212200502db9ec51b07f3a28f0b7e2652e3ff03f411b258b1ab22b1ee8ce7e01e2cff64736f6c634300080a0033",
  "immutableReferences": {},
  "source": "// SPDX-License-Identifier: UNLICENSED\r\npragma solidity >=0.4.22 <0.9.0;\r\nimport \"./Rule.sol\";\r\n\r\n/*\r\n\r\nPolls for parameters and important contract addresses for INTDAO\r\n\r\n*/\r\n\r\ncontract INTDAO {\r\n    Rule ruleToken;\r\n    mapping (uint => mapping(address => uint)) votes;\r\n\r\n    mapping (uint=>Voting) votings;\r\n    uint votingID;\r\n\r\n    struct Voting {\r\n        uint totalPositive;\r\n        bool paramOrAddress;\r\n        string name;\r\n        uint value;\r\n        address addr;\r\n        uint startTime;\r\n    }\r\n\r\n    bool public activeVoting;\r\n\r\n    mapping (string => uint) public params;\r\n    mapping (string => address) public addresses;\r\n\r\n    mapping (address => uint) pooled;\r\n    uint public totalPooled;\r\n\r\n    event NewParamVoteing (string name);\r\n    event NewAddressVoteing (string name);\r\n\r\n    address public ruleTokenAddress; //The only unchangable address\r\n\r\n    constructor (address initalRuleTokenAddress, address oracleAddress, address stableCoinAddress) { //\r\n        ruleTokenAddress = initalRuleTokenAddress;\r\n        ruleToken = Rule(ruleTokenAddress);\r\n\r\n        params['interestRate'] = 9;\r\n        params['depositRate']=8;\r\n        params['liquidationFee'] = 13;\r\n        params['collateralDiscount'] = 30;\r\n        params['stabilizationFundPercent'] = 5;\r\n        params['quorum'] = 60;\r\n        params['majority'] = 50;\r\n        params['absoluteMajority'] = 80;\r\n        params['minRuleTokensToInitVoting'] = 10;\r\n        params['VotingDuration'] = 1 weeks;\r\n\r\n        params['minColleteral'] = 1*10^16; // minColleteral is 0.01 ETH\r\n\r\n        addresses['colleteralContractAddress'] = address(0x0);\r\n        addresses['auctionContractAddress'] = address(0x0);\r\n        addresses['stableCoinAddress'] = stableCoinAddress;\r\n        addresses['daoAddress'] = address(this);\r\n        addresses['oracleAddress'] = oracleAddress;\r\n    }\r\n\r\n    function addVoting(bool paramOrAddress, string memory name, uint value, address addr) public {\r\n        require(!activeVoting);\r\n        require (pooled[msg.sender]>ruleToken.totalSupply()*params['minSharesToInitVoting']/100);\r\n        votingID ++;\r\n        votings[votingID] = Voting(0, paramOrAddress, name, value, addr, block.timestamp);\r\n\r\n        if (paramOrAddress)\r\n            emit NewParamVoteing(name);\r\n        else\r\n            emit NewAddressVoteing(name);\r\n    }\r\n\r\n    function transfered(address destination, uint value) public returns (bool) {\r\n        require(destination == msg.sender, 'You can take back only your personal tokens');\r\n        require(pooled[msg.sender] > 0, 'You must have pooled tokens');\r\n        if (activeVoting && votes[votingID][msg.sender]>0){\r\n            votings[votingID].totalPositive -= votes[votingID][msg.sender];\r\n        }\r\n        pooled[msg.sender] -= value;\r\n        totalPooled -= value;\r\n        return true;\r\n    }\r\n\r\n    function vote(uint votingId, bool _vote) public{\r\n        require(activeVoting);\r\n        require(votings[votingID].startTime + params['VotingDuration'] < block.timestamp);\r\n        require(pooled[msg.sender]>0);\r\n\r\n        if (_vote) {\r\n            uint _votesToAdd = pooled[msg.sender] - votes[votingId][msg.sender];\r\n            votes[votingId][msg.sender] = pooled[msg.sender];\r\n            votings[votingId].totalPositive += _votesToAdd;\r\n        }\r\n        else {\r\n            if (votes[votingId][msg.sender] > 0){\r\n                votings[votingID].totalPositive -= votes[votingId][msg.sender];\r\n                votes[votingId][msg.sender] = 0;\r\n            }\r\n        }\r\n    }\r\n\r\n    function finalizeVoting(uint votingId) internal {\r\n        if (votings[votingId].paramOrAddress)\r\n            params[votings[votingId].name] = votings[votingId].value;\r\n        else\r\n            addresses[votings[votingId].name] = votings[votingId].addr;\r\n    }\r\n\r\n    function claimToFinalizeVoting(uint votingId) public {\r\n        if (votings[votingId].totalPositive > ruleToken.totalSupply() * params['absoluteMajority'] / 100)\r\n            finalizeVoting(votingId);\r\n        else if (votings[votingId].startTime + params['VotingDuration'] < block.timestamp) {\r\n            if (totalPooled > params['quorum'] * ruleToken.totalSupply() / 100 && votings[votingId].totalPositive > (totalPooled - votings[votingId].totalPositive))\r\n                finalizeVoting(votingId);\r\n        }\r\n    }\r\n\r\n    function allowed(address to) public view returns (uint _allowedValue) {\r\n        return pooled[to];\r\n    }\r\n\r\n    function init (bool paramOrAddress, string memory name, uint value, address addr) public {\r\n        if (paramOrAddress && params[name]==0)\r\n            params[name] = value;\r\n        else if (!paramOrAddress && addresses[name]==address(0x0))\r\n            addresses[name] = addr;\r\n    }\r\n\r\n}\r\n",
  "sourcePath": "C:\\Users\\d.nagornykh\\YandexDisk\\\\ICO\\CryptoFiat\\repo\\contracts\\INTDAO.sol",
  "compiler": {
    "name": "solc",
    "version": "0.8.10+commit.fc410830.Emscripten.clang"
  },
  "schemaVersion": "3.4.4",
  "updatedAt": "2022-12-12T03:20:06.879Z",
  "networkType": "ethereum",
  "devdoc": {
    "kind": "dev",
    "methods": {},
    "version": 1
  },
  "userdoc": {
    "kind": "user",
    "methods": {},
    "version": 1
  }
}