{
  "contractName": "INTDAO",
  "abi": [
    {
      "inputs": [],
      "stateMutability": "nonpayable",
      "type": "constructor"
    },
    {
      "anonymous": false,
      "inputs": [
        {
          "indexed": false,
          "internalType": "string",
          "name": "name",
          "type": "string"
        }
      ],
      "name": "NewAddressVoteing",
      "type": "event"
    },
    {
      "anonymous": false,
      "inputs": [
        {
          "indexed": false,
          "internalType": "string",
          "name": "name",
          "type": "string"
        }
      ],
      "name": "NewParamVoteing",
      "type": "event"
    },
    {
      "inputs": [],
      "name": "activeVoting",
      "outputs": [
        {
          "internalType": "bool",
          "name": "",
          "type": "bool"
        }
      ],
      "stateMutability": "view",
      "type": "function"
    },
    {
      "inputs": [
        {
          "internalType": "string",
          "name": "",
          "type": "string"
        }
      ],
      "name": "addresses",
      "outputs": [
        {
          "internalType": "address",
          "name": "",
          "type": "address"
        }
      ],
      "stateMutability": "view",
      "type": "function"
    },
    {
      "inputs": [
        {
          "internalType": "string",
          "name": "",
          "type": "string"
        }
      ],
      "name": "params",
      "outputs": [
        {
          "internalType": "uint256",
          "name": "",
          "type": "uint256"
        }
      ],
      "stateMutability": "view",
      "type": "function"
    },
    {
      "inputs": [],
      "name": "totalPooled",
      "outputs": [
        {
          "internalType": "uint256",
          "name": "",
          "type": "uint256"
        }
      ],
      "stateMutability": "view",
      "type": "function"
    },
    {
      "inputs": [
        {
          "internalType": "string",
          "name": "addressName",
          "type": "string"
        },
        {
          "internalType": "address",
          "name": "addr",
          "type": "address"
        }
      ],
      "name": "setAddressOnce",
      "outputs": [],
      "stateMutability": "nonpayable",
      "type": "function"
    },
    {
      "inputs": [
        {
          "internalType": "bool",
          "name": "paramOrAddress",
          "type": "bool"
        },
        {
          "internalType": "string",
          "name": "name",
          "type": "string"
        },
        {
          "internalType": "uint256",
          "name": "value",
          "type": "uint256"
        },
        {
          "internalType": "address",
          "name": "addr",
          "type": "address"
        }
      ],
      "name": "addVoting",
      "outputs": [],
      "stateMutability": "nonpayable",
      "type": "function"
    },
    {
      "inputs": [
        {
          "internalType": "address",
          "name": "destination",
          "type": "address"
        },
        {
          "internalType": "uint256",
          "name": "value",
          "type": "uint256"
        }
      ],
      "name": "transfered",
      "outputs": [
        {
          "internalType": "bool",
          "name": "",
          "type": "bool"
        }
      ],
      "stateMutability": "nonpayable",
      "type": "function"
    },
    {
      "inputs": [
        {
          "internalType": "uint256",
          "name": "votingId",
          "type": "uint256"
        },
        {
          "internalType": "bool",
          "name": "_vote",
          "type": "bool"
        }
      ],
      "name": "vote",
      "outputs": [],
      "stateMutability": "nonpayable",
      "type": "function"
    },
    {
      "inputs": [
        {
          "internalType": "uint256",
          "name": "votingId",
          "type": "uint256"
        }
      ],
      "name": "claimToFinalizeVoting",
      "outputs": [],
      "stateMutability": "nonpayable",
      "type": "function"
    },
    {
      "inputs": [
        {
          "internalType": "address",
          "name": "to",
          "type": "address"
        }
      ],
      "name": "allowed",
      "outputs": [
        {
          "internalType": "uint256",
          "name": "_allowedValue",
          "type": "uint256"
        }
      ],
      "stateMutability": "view",
      "type": "function"
    },
    {
      "inputs": [
        {
          "internalType": "bool",
          "name": "paramOrAddress",
          "type": "bool"
        },
        {
          "internalType": "string",
          "name": "name",
          "type": "string"
        },
        {
          "internalType": "uint256",
          "name": "value",
          "type": "uint256"
        },
        {
          "internalType": "address",
          "name": "addr",
          "type": "address"
        }
      ],
      "name": "init",
      "outputs": [],
      "stateMutability": "nonpayable",
      "type": "function"
    }
  ],
  "bytecode": "0x60806040523480156200001157600080fd5b5060096005604051620000249062000433565b9081526020016040518091039020819055506008600560405162000048906200049a565b908152602001604051809103902081905550600d60056040516200006c9062000501565b908152602001604051809103902081905550601e6005604051620000909062000568565b908152602001604051809103902081905550600580604051620000b390620005cf565b908152602001604051809103902081905550603c6005604051620000d79062000636565b90815260200160405180910390208190555060326005604051620000fb906200069d565b908152602001604051809103902081905550605060056040516200011f9062000704565b908152602001604051809103902081905550600a600560405162000143906200076b565b90815260200160405180910390208190555062093a8060056040516200016990620007d2565b908152602001604051809103902081905550601a60056040516200018d9062000839565b90815260200160405180910390208190555060006006604051620001b190620008a0565b908152602001604051809103902060006101000a81548173ffffffffffffffffffffffffffffffffffffffff021916908373ffffffffffffffffffffffffffffffffffffffff160217905550600060066040516200020f9062000907565b908152602001604051809103902060006101000a81548173ffffffffffffffffffffffffffffffffffffffff021916908373ffffffffffffffffffffffffffffffffffffffff160217905550600060066040516200026d906200096e565b908152602001604051809103902060006101000a81548173ffffffffffffffffffffffffffffffffffffffff021916908373ffffffffffffffffffffffffffffffffffffffff160217905550306006604051620002ca90620009d5565b908152602001604051809103902060006101000a81548173ffffffffffffffffffffffffffffffffffffffff021916908373ffffffffffffffffffffffffffffffffffffffff16021790555060006006604051620003289062000a3c565b908152602001604051809103902060006101000a81548173ffffffffffffffffffffffffffffffffffffffff021916908373ffffffffffffffffffffffffffffffffffffffff16021790555060006006604051620003869062000aa3565b908152602001604051809103902060006101000a81548173ffffffffffffffffffffffffffffffffffffffff021916908373ffffffffffffffffffffffffffffffffffffffff16021790555062000aba565b600081905092915050565b7f696e746572657374526174650000000000000000000000000000000000000000600082015250565b60006200041b600c83620003d8565b91506200042882620003e3565b600c82019050919050565b600062000440826200040c565b9150819050919050565b7f6465706f73697452617465000000000000000000000000000000000000000000600082015250565b600062000482600b83620003d8565b91506200048f826200044a565b600b82019050919050565b6000620004a78262000473565b9150819050919050565b7f6c69717569646174696f6e466565000000000000000000000000000000000000600082015250565b6000620004e9600e83620003d8565b9150620004f682620004b1565b600e82019050919050565b60006200050e82620004da565b9150819050919050565b7f636f6c6c61746572616c446973636f756e740000000000000000000000000000600082015250565b600062000550601283620003d8565b91506200055d8262000518565b601282019050919050565b6000620005758262000541565b9150819050919050565b7f73746162696c697a6174696f6e46756e6450657263656e740000000000000000600082015250565b6000620005b7601883620003d8565b9150620005c4826200057f565b601882019050919050565b6000620005dc82620005a8565b9150819050919050565b7f71756f72756d0000000000000000000000000000000000000000000000000000600082015250565b60006200061e600683620003d8565b91506200062b82620005e6565b600682019050919050565b600062000643826200060f565b9150819050919050565b7f6d616a6f72697479000000000000000000000000000000000000000000000000600082015250565b600062000685600883620003d8565b915062000692826200064d565b600882019050919050565b6000620006aa8262000676565b9150819050919050565b7f6162736f6c7574654d616a6f7269747900000000000000000000000000000000600082015250565b6000620006ec601083620003d8565b9150620006f982620006b4565b601082019050919050565b60006200071182620006dd565b9150819050919050565b7f6d696e52756c65546f6b656e73546f496e6974566f74696e6700000000000000600082015250565b600062000753601983620003d8565b915062000760826200071b565b601982019050919050565b6000620007788262000744565b9150819050919050565b7f566f74696e674475726174696f6e000000000000000000000000000000000000600082015250565b6000620007ba600e83620003d8565b9150620007c78262000782565b600e82019050919050565b6000620007df82620007ab565b9150819050919050565b7f6d696e436f6c6c65746572616c00000000000000000000000000000000000000600082015250565b600062000821600d83620003d8565b91506200082e82620007e9565b600d82019050919050565b6000620008468262000812565b9150819050919050565b7f6364700000000000000000000000000000000000000000000000000000000000600082015250565b600062000888600383620003d8565b9150620008958262000850565b600382019050919050565b6000620008ad8262000879565b9150819050919050565b7f61756374696f6e00000000000000000000000000000000000000000000000000600082015250565b6000620008ef600783620003d8565b9150620008fc82620008b7565b600782019050919050565b60006200091482620008e0565b9150819050919050565b7f737461626c65436f696e00000000000000000000000000000000000000000000600082015250565b600062000956600a83620003d8565b915062000963826200091e565b600a82019050919050565b60006200097b8262000947565b9150819050919050565b7f64616f0000000000000000000000000000000000000000000000000000000000600082015250565b6000620009bd600383620003d8565b9150620009ca8262000985565b600382019050919050565b6000620009e282620009ae565b9150819050919050565b7f6f7261636c650000000000000000000000000000000000000000000000000000600082015250565b600062000a24600683620003d8565b915062000a3182620009ec565b600682019050919050565b600062000a498262000a15565b9150819050919050565b7f72756c6500000000000000000000000000000000000000000000000000000000600082015250565b600062000a8b600483620003d8565b915062000a988262000a53565b600482019050919050565b600062000ab08262000a7c565b9150819050919050565b611e8e8062000aca6000396000f3fe608060405234801561001057600080fd5b50600436106100a95760003560e01c80635dd5e327116100715780635dd5e327146101645780636ec21cc814610180578063bdfe7d471461019e578063c9d27afe146101ce578063d63a8e11146101ea578063e4d345a31461021a576100a9565b8063143d69bf146100ae578063145f822b146100de5780632abdf04e1461010e57806333c6a5671461012a57806355b2636d14610146575b600080fd5b6100c860048036038101906100c39190611304565b610236565b6040516100d5919061135f565b60405180910390f35b6100f860048036038101906100f391906114c0565b610496565b6040516101059190611518565b60405180910390f35b61012860048036038101906101239190611533565b6104c4565b005b610144600480360381019061013f91906115bb565b6105d2565b005b61014e61070c565b60405161015b919061135f565b60405180910390f35b61017e600480360381019061017991906115bb565b61071f565b005b610188610a59565b6040516101959190611518565b60405180910390f35b6101b860048036038101906101b391906114c0565b610a5f565b6040516101c5919061164d565b60405180910390f35b6101e860048036038101906101e39190611668565b610aa8565b005b61020460048036038101906101ff91906116a8565b610df8565b6040516102119190611518565b60405180910390f35b610234600480360381019061022f91906116d5565b610e41565b005b60003373ffffffffffffffffffffffffffffffffffffffff168373ffffffffffffffffffffffffffffffffffffffff16146102a6576040517f08c379a000000000000000000000000000000000000000000000000000000000815260040161029d90611785565b60405180910390fd5b6000600760003373ffffffffffffffffffffffffffffffffffffffff1673ffffffffffffffffffffffffffffffffffffffff1681526020019081526020016000205411610328576040517f08c379a000000000000000000000000000000000000000000000000000000000815260040161031f906117f1565b60405180910390fd5b600460009054906101000a900460ff1680156103965750600060016000600354815260200190815260200160002060003373ffffffffffffffffffffffffffffffffffffffff1673ffffffffffffffffffffffffffffffffffffffff16815260200190815260200160002054115b1561041d5760016000600354815260200190815260200160002060003373ffffffffffffffffffffffffffffffffffffffff1673ffffffffffffffffffffffffffffffffffffffff1681526020019081526020016000205460026000600354815260200190815260200160002060000160008282546104159190611840565b925050819055505b81600760003373ffffffffffffffffffffffffffffffffffffffff1673ffffffffffffffffffffffffffffffffffffffff168152602001908152602001600020600082825461046c9190611840565b9250508190555081600860008282546104859190611840565b925050819055506001905092915050565b6005818051602081018201805184825260208301602085012081835280955050505050506000915090505481565b600073ffffffffffffffffffffffffffffffffffffffff166006836040516104ec91906118ee565b908152602001604051809103902060009054906101000a900473ffffffffffffffffffffffffffffffffffffffff1673ffffffffffffffffffffffffffffffffffffffff1614610571576040517f08c379a000000000000000000000000000000000000000000000000000000000815260040161056890611951565b60405180910390fd5b8060068360405161058291906118ee565b908152602001604051809103902060006101000a81548173ffffffffffffffffffffffffffffffffffffffff021916908373ffffffffffffffffffffffffffffffffffffffff1602179055505050565b8380156105fd575060006005846040516105ec91906118ee565b908152602001604051809103902054145b1561062a578160058460405161061391906118ee565b908152602001604051809103902081905550610706565b831580156106a25750600073ffffffffffffffffffffffffffffffffffffffff1660068460405161065b91906118ee565b908152602001604051809103902060009054906101000a900473ffffffffffffffffffffffffffffffffffffffff1673ffffffffffffffffffffffffffffffffffffffff16145b1561070557806006846040516106b891906118ee565b908152602001604051809103902060006101000a81548173ffffffffffffffffffffffffffffffffffffffff021916908373ffffffffffffffffffffffffffffffffffffffff1602179055505b5b50505050565b600460009054906101000a900460ff1681565b600460009054906101000a900460ff161561073957600080fd5b6006604051610747906119bd565b908152602001604051809103902060009054906101000a900473ffffffffffffffffffffffffffffffffffffffff166000806101000a81548173ffffffffffffffffffffffffffffffffffffffff021916908373ffffffffffffffffffffffffffffffffffffffff160217905550606460056040516107c590611a1e565b90815260200160405180910390205460008054906101000a900473ffffffffffffffffffffffffffffffffffffffff1673ffffffffffffffffffffffffffffffffffffffff166318160ddd6040518163ffffffff1660e01b8152600401602060405180830381865afa15801561083f573d6000803e3d6000fd5b505050506040513d601f19601f820116820180604052508101906108639190611a48565b61086d9190611a75565b6108779190611afe565b600760003373ffffffffffffffffffffffffffffffffffffffff1673ffffffffffffffffffffffffffffffffffffffff16815260200190815260200160002054116108c157600080fd5b600360008154809291906108d490611b2f565b91905055506040518060c001604052806000815260200185151581526020018481526020018381526020018273ffffffffffffffffffffffffffffffffffffffff168152602001428152506002600060035481526020019081526020016000206000820151816000015560208201518160010160006101000a81548160ff021916908315150217905550604082015181600201908051906020019061097a9291906111b9565b506060820151816003015560808201518160040160006101000a81548173ffffffffffffffffffffffffffffffffffffffff021916908373ffffffffffffffffffffffffffffffffffffffff16021790555060a082015181600501559050508315610a1b577f3634eb058d99bb76fbc826277f27ca814af9ddeb9ec19fe59d70af0823ecd87983604051610a0e9190611bb1565b60405180910390a1610a53565b7fc0d86d7c74e180e631681e0d9aa0722f7eb329800ac3a95a92684b647441f76083604051610a4a9190611bb1565b60405180910390a15b50505050565b60085481565b6006818051602081018201805184825260208301602085012081835280955050505050506000915054906101000a900473ffffffffffffffffffffffffffffffffffffffff1681565b600460009054906101000a900460ff16610ac157600080fd5b426005604051610ad090611c1f565b90815260200160405180910390205460026000600354815260200190815260200160002060050154610b029190611c34565b10610b0c57600080fd5b6000600760003373ffffffffffffffffffffffffffffffffffffffff1673ffffffffffffffffffffffffffffffffffffffff1681526020019081526020016000205411610b5857600080fd5b8015610cc45760006001600084815260200190815260200160002060003373ffffffffffffffffffffffffffffffffffffffff1673ffffffffffffffffffffffffffffffffffffffff16815260200190815260200160002054600760003373ffffffffffffffffffffffffffffffffffffffff1673ffffffffffffffffffffffffffffffffffffffff16815260200190815260200160002054610bfb9190611840565b9050600760003373ffffffffffffffffffffffffffffffffffffffff1673ffffffffffffffffffffffffffffffffffffffff168152602001908152602001600020546001600085815260200190815260200160002060003373ffffffffffffffffffffffffffffffffffffffff1673ffffffffffffffffffffffffffffffffffffffff1681526020019081526020016000208190555080600260008581526020019081526020016000206000016000828254610cb79190611c34565b9250508190555050610df4565b60006001600084815260200190815260200160002060003373ffffffffffffffffffffffffffffffffffffffff1673ffffffffffffffffffffffffffffffffffffffff168152602001908152602001600020541115610df3576001600083815260200190815260200160002060003373ffffffffffffffffffffffffffffffffffffffff1673ffffffffffffffffffffffffffffffffffffffff168152602001908152602001600020546002600060035481526020019081526020016000206000016000828254610d959190611840565b9250508190555060006001600084815260200190815260200160002060003373ffffffffffffffffffffffffffffffffffffffff1673ffffffffffffffffffffffffffffffffffffffff168152602001908152602001600020819055505b5b5050565b6000600760008373ffffffffffffffffffffffffffffffffffffffff1673ffffffffffffffffffffffffffffffffffffffff168152602001908152602001600020549050919050565b60646005604051610e5190611cd6565b90815260200160405180910390205460008054906101000a900473ffffffffffffffffffffffffffffffffffffffff1673ffffffffffffffffffffffffffffffffffffffff166318160ddd6040518163ffffffff1660e01b8152600401602060405180830381865afa158015610ecb573d6000803e3d6000fd5b505050506040513d601f19601f82011682018060405250810190610eef9190611a48565b610ef99190611a75565b610f039190611afe565b60026000838152602001908152602001600020600001541115610f2e57610f2981611091565b61108e565b426005604051610f3d90611c1f565b9081526020016040518091039020546002600084815260200190815260200160002060050154610f6d9190611c34565b101561108d57606460008054906101000a900473ffffffffffffffffffffffffffffffffffffffff1673ffffffffffffffffffffffffffffffffffffffff166318160ddd6040518163ffffffff1660e01b8152600401602060405180830381865afa158015610fe0573d6000803e3d6000fd5b505050506040513d601f19601f820116820180604052508101906110049190611a48565b600560405161101290611d37565b90815260200160405180910390205461102b9190611a75565b6110359190611afe565b60085411801561107d575060026000828152602001908152602001600020600001546008546110649190611840565b6002600083815260200190815260200160002060000154115b1561108c5761108b81611091565b5b5b5b50565b6002600082815260200190815260200160002060010160009054906101000a900460ff161561110d5760026000828152602001908152602001600020600301546005600260008481526020019081526020016000206002016040516110f69190611e41565b9081526020016040518091039020819055506111b6565b6002600082815260200190815260200160002060040160009054906101000a900473ffffffffffffffffffffffffffffffffffffffff166006600260008481526020019081526020016000206002016040516111699190611e41565b908152602001604051809103902060006101000a81548173ffffffffffffffffffffffffffffffffffffffff021916908373ffffffffffffffffffffffffffffffffffffffff1602179055505b50565b8280546111c590611d7b565b90600052602060002090601f0160209004810192826111e7576000855561122e565b82601f1061120057805160ff191683800117855561122e565b8280016001018555821561122e579182015b8281111561122d578251825591602001919060010190611212565b5b50905061123b919061123f565b5090565b5b80821115611258576000816000905550600101611240565b5090565b6000604051905090565b600080fd5b600080fd5b600073ffffffffffffffffffffffffffffffffffffffff82169050919050565b600061129b82611270565b9050919050565b6112ab81611290565b81146112b657600080fd5b50565b6000813590506112c8816112a2565b92915050565b6000819050919050565b6112e1816112ce565b81146112ec57600080fd5b50565b6000813590506112fe816112d8565b92915050565b6000806040838503121561131b5761131a611266565b5b6000611329858286016112b9565b925050602061133a858286016112ef565b9150509250929050565b60008115159050919050565b61135981611344565b82525050565b60006020820190506113746000830184611350565b92915050565b600080fd5b600080fd5b6000601f19601f8301169050919050565b7f4e487b7100000000000000000000000000000000000000000000000000000000600052604160045260246000fd5b6113cd82611384565b810181811067ffffffffffffffff821117156113ec576113eb611395565b5b80604052505050565b60006113ff61125c565b905061140b82826113c4565b919050565b600067ffffffffffffffff82111561142b5761142a611395565b5b61143482611384565b9050602081019050919050565b82818337600083830152505050565b600061146361145e84611410565b6113f5565b90508281526020810184848401111561147f5761147e61137f565b5b61148a848285611441565b509392505050565b600082601f8301126114a7576114a661137a565b5b81356114b7848260208601611450565b91505092915050565b6000602082840312156114d6576114d5611266565b5b600082013567ffffffffffffffff8111156114f4576114f361126b565b5b61150084828501611492565b91505092915050565b611512816112ce565b82525050565b600060208201905061152d6000830184611509565b92915050565b6000806040838503121561154a57611549611266565b5b600083013567ffffffffffffffff8111156115685761156761126b565b5b61157485828601611492565b9250506020611585858286016112b9565b9150509250929050565b61159881611344565b81146115a357600080fd5b50565b6000813590506115b58161158f565b92915050565b600080600080608085870312156115d5576115d4611266565b5b60006115e3878288016115a6565b945050602085013567ffffffffffffffff8111156116045761160361126b565b5b61161087828801611492565b9350506040611621878288016112ef565b9250506060611632878288016112b9565b91505092959194509250565b61164781611290565b82525050565b6000602082019050611662600083018461163e565b92915050565b6000806040838503121561167f5761167e611266565b5b600061168d858286016112ef565b925050602061169e858286016115a6565b9150509250929050565b6000602082840312156116be576116bd611266565b5b60006116cc848285016112b9565b91505092915050565b6000602082840312156116eb576116ea611266565b5b60006116f9848285016112ef565b91505092915050565b600082825260208201905092915050565b7f596f752063616e2074616b65206261636b206f6e6c7920796f7572207065727360008201527f6f6e616c20746f6b656e73000000000000000000000000000000000000000000602082015250565b600061176f602b83611702565b915061177a82611713565b604082019050919050565b6000602082019050818103600083015261179e81611762565b9050919050565b7f596f75206d757374206861766520706f6f6c656420746f6b656e730000000000600082015250565b60006117db601b83611702565b91506117e6826117a5565b602082019050919050565b6000602082019050818103600083015261180a816117ce565b9050919050565b7f4e487b7100000000000000000000000000000000000000000000000000000000600052601160045260246000fd5b600061184b826112ce565b9150611856836112ce565b92508282101561186957611868611811565b5b828203905092915050565b600081519050919050565b600081905092915050565b60005b838110156118a857808201518184015260208101905061188d565b838111156118b7576000848401525b50505050565b60006118c882611874565b6118d2818561187f565b93506118e281856020860161188a565b80840191505092915050565b60006118fa82846118bd565b915081905092915050565b7f616464726573732063616e20626520736574206f6e6c79206f6e636500000000600082015250565b600061193b601c83611702565b915061194682611905565b602082019050919050565b6000602082019050818103600083015261196a8161192e565b9050919050565b7f72756c6500000000000000000000000000000000000000000000000000000000600082015250565b60006119a760048361187f565b91506119b282611971565b600482019050919050565b60006119c88261199a565b9150819050919050565b7f6d696e536861726573546f496e6974566f74696e670000000000000000000000600082015250565b6000611a0860158361187f565b9150611a13826119d2565b601582019050919050565b6000611a29826119fb565b9150819050919050565b600081519050611a42816112d8565b92915050565b600060208284031215611a5e57611a5d611266565b5b6000611a6c84828501611a33565b91505092915050565b6000611a80826112ce565b9150611a8b836112ce565b9250817fffffffffffffffffffffffffffffffffffffffffffffffffffffffffffffffff0483118215151615611ac457611ac3611811565b5b828202905092915050565b7f4e487b7100000000000000000000000000000000000000000000000000000000600052601260045260246000fd5b6000611b09826112ce565b9150611b14836112ce565b925082611b2457611b23611acf565b5b828204905092915050565b6000611b3a826112ce565b91507fffffffffffffffffffffffffffffffffffffffffffffffffffffffffffffffff821415611b6d57611b6c611811565b5b600182019050919050565b6000611b8382611874565b611b8d8185611702565b9350611b9d81856020860161188a565b611ba681611384565b840191505092915050565b60006020820190508181036000830152611bcb8184611b78565b905092915050565b7f566f74696e674475726174696f6e000000000000000000000000000000000000600082015250565b6000611c09600e8361187f565b9150611c1482611bd3565b600e82019050919050565b6000611c2a82611bfc565b9150819050919050565b6000611c3f826112ce565b9150611c4a836112ce565b9250827fffffffffffffffffffffffffffffffffffffffffffffffffffffffffffffffff03821115611c7f57611c7e611811565b5b828201905092915050565b7f6162736f6c7574654d616a6f7269747900000000000000000000000000000000600082015250565b6000611cc060108361187f565b9150611ccb82611c8a565b601082019050919050565b6000611ce182611cb3565b9150819050919050565b7f71756f72756d0000000000000000000000000000000000000000000000000000600082015250565b6000611d2160068361187f565b9150611d2c82611ceb565b600682019050919050565b6000611d4282611d14565b9150819050919050565b7f4e487b7100000000000000000000000000000000000000000000000000000000600052602260045260246000fd5b60006002820490506001821680611d9357607f821691505b60208210811415611da757611da6611d4c565b5b50919050565b60008190508160005260206000209050919050565b60008154611dcf81611d7b565b611dd9818661187f565b94506001821660008114611df45760018114611e0557611e38565b60ff19831686528186019350611e38565b611e0e85611dad565b60005b83811015611e3057815481890152600182019150602081019050611e11565b838801955050505b50505092915050565b6000611e4d8284611dc2565b91508190509291505056fea2646970667358221220462a1ef63efde0dab9a3ec979389ce60dd380abd39d5b1aebf2bde83ec2b316564736f6c634300080a0033",
  "immutableReferences": {},
  "source": "// SPDX-License-Identifier: UNLICENSED\r\npragma solidity >=0.4.22 <0.9.0;\r\nimport \"./Rule.sol\";\r\n\r\n/*\r\n\r\nPolls for parameters and important contract addresses for INTDAO\r\n\r\n*/\r\n\r\ncontract INTDAO {\r\n    Rule ruleToken;\r\n    mapping (uint => mapping(address => uint)) votes;\r\n\r\n    mapping (uint=>Voting) votings;\r\n    uint votingID;\r\n\r\n    struct Voting {\r\n        uint totalPositive;\r\n        bool paramOrAddress;\r\n        string name;\r\n        uint value;\r\n        address addr;\r\n        uint startTime;\r\n    }\r\n\r\n    bool public activeVoting;\r\n\r\n    mapping (string => uint) public params;\r\n    mapping (string => address) public addresses;\r\n\r\n    mapping (address => uint) pooled;\r\n    uint public totalPooled;\r\n\r\n    event NewParamVoteing (string name);\r\n    event NewAddressVoteing (string name);\r\n\r\n    constructor () {\r\n        params['interestRate'] = 9;\r\n        params['depositRate']=8;\r\n        params['liquidationFee'] = 13;\r\n        params['collateralDiscount'] = 30;\r\n        params['stabilizationFundPercent'] = 5;\r\n        params['quorum'] = 60;\r\n        params['majority'] = 50;\r\n        params['absoluteMajority'] = 80;\r\n        params['minRuleTokensToInitVoting'] = 10;\r\n        params['VotingDuration'] = 1 weeks;\r\n\r\n        params['minColleteral'] = 1*10^16; // minColleteral is 0.01 ETH\r\n\r\n        addresses['cdp'] = address(0x0);\r\n        addresses['auction'] = address(0x0);\r\n        addresses['stableCoin'] = address(0x0);\r\n        addresses['dao'] = address(this);\r\n        addresses['oracle'] = address(0x0);\r\n        addresses['rule'] = address(0x0);\r\n    }\r\n\r\n    function setAddressOnce(string memory addressName, address addr) public{ //a certain pool of names, check not to expand addresses\r\n        require(addresses[addressName] == address (0x0), 'address can be set only once');\r\n        addresses[addressName] = addr;\r\n    }\r\n\r\n    function addVoting(bool paramOrAddress, string memory name, uint value, address addr) public {\r\n        require(!activeVoting);\r\n        ruleToken = Rule(addresses['rule']);\r\n        require (pooled[msg.sender]>ruleToken.totalSupply()*params['minSharesToInitVoting']/100);\r\n        votingID ++;\r\n        votings[votingID] = Voting(0, paramOrAddress, name, value, addr, block.timestamp);\r\n\r\n        if (paramOrAddress)\r\n            emit NewParamVoteing(name);\r\n        else\r\n            emit NewAddressVoteing(name);\r\n    }\r\n\r\n    function transfered(address destination, uint value) public returns (bool) {\r\n        require(destination == msg.sender, 'You can take back only your personal tokens');\r\n        require(pooled[msg.sender] > 0, 'You must have pooled tokens');\r\n        if (activeVoting && votes[votingID][msg.sender]>0){\r\n            votings[votingID].totalPositive -= votes[votingID][msg.sender];\r\n        }\r\n        pooled[msg.sender] -= value;\r\n        totalPooled -= value;\r\n        return true;\r\n    }\r\n\r\n    function vote(uint votingId, bool _vote) public{\r\n        require(activeVoting);\r\n        require(votings[votingID].startTime + params['VotingDuration'] < block.timestamp);\r\n        require(pooled[msg.sender]>0);\r\n\r\n        if (_vote) {\r\n            uint _votesToAdd = pooled[msg.sender] - votes[votingId][msg.sender];\r\n            votes[votingId][msg.sender] = pooled[msg.sender];\r\n            votings[votingId].totalPositive += _votesToAdd;\r\n        }\r\n        else {\r\n            if (votes[votingId][msg.sender] > 0){\r\n                votings[votingID].totalPositive -= votes[votingId][msg.sender];\r\n                votes[votingId][msg.sender] = 0;\r\n            }\r\n        }\r\n    }\r\n\r\n    function finalizeVoting(uint votingId) internal {\r\n        if (votings[votingId].paramOrAddress)\r\n            params[votings[votingId].name] = votings[votingId].value;\r\n        else\r\n            addresses[votings[votingId].name] = votings[votingId].addr;\r\n    }\r\n\r\n    function claimToFinalizeVoting(uint votingId) public {\r\n        if (votings[votingId].totalPositive > ruleToken.totalSupply() * params['absoluteMajority'] / 100)\r\n            finalizeVoting(votingId);\r\n        else if (votings[votingId].startTime + params['VotingDuration'] < block.timestamp) {\r\n            if (totalPooled > params['quorum'] * ruleToken.totalSupply() / 100 && votings[votingId].totalPositive > (totalPooled - votings[votingId].totalPositive))\r\n                finalizeVoting(votingId);\r\n        }\r\n    }\r\n\r\n    function allowed(address to) public view returns (uint _allowedValue) {\r\n        return pooled[to];\r\n    }\r\n\r\n    function init (bool paramOrAddress, string memory name, uint value, address addr) public {\r\n        if (paramOrAddress && params[name]==0)\r\n            params[name] = value;\r\n        else if (!paramOrAddress && addresses[name]==address(0x0))\r\n            addresses[name] = addr;\r\n    }\r\n\r\n}\r\n",
  "sourcePath": "C:\\Users\\d.nagornykh\\YandexDisk\\\\ICO\\CryptoFiat\\repo\\contracts\\INTDAO.sol",
  "compiler": {
    "name": "solc",
    "version": "0.8.10+commit.fc410830.Emscripten.clang"
  },
  "schemaVersion": "3.4.4",
  "updatedAt": "2023-01-02T06:46:55.943Z",
  "devdoc": {
    "kind": "dev",
    "methods": {},
    "version": 1
  },
  "userdoc": {
    "kind": "user",
    "methods": {},
    "version": 1
  }
}