{
  "contractName": "INTDAO",
  "abi": [
    {
      "inputs": [
        {
          "internalType": "address",
          "name": "WETH",
          "type": "address"
        }
      ],
      "stateMutability": "nonpayable",
      "type": "constructor"
    },
    {
      "anonymous": false,
      "inputs": [
        {
          "indexed": false,
          "internalType": "uint256",
          "name": "id",
          "type": "uint256"
        },
        {
          "indexed": false,
          "internalType": "string",
          "name": "name",
          "type": "string"
        }
      ],
      "name": "NewVoting",
      "type": "event"
    },
    {
      "anonymous": false,
      "inputs": [
        {
          "indexed": false,
          "internalType": "uint256",
          "name": "id",
          "type": "uint256"
        }
      ],
      "name": "VotingFailed",
      "type": "event"
    },
    {
      "anonymous": false,
      "inputs": [
        {
          "indexed": false,
          "internalType": "uint256",
          "name": "id",
          "type": "uint256"
        }
      ],
      "name": "VotingSucceed",
      "type": "event"
    },
    {
      "inputs": [],
      "name": "activeVoting",
      "outputs": [
        {
          "internalType": "bool",
          "name": "",
          "type": "bool"
        }
      ],
      "stateMutability": "view",
      "type": "function"
    },
    {
      "inputs": [
        {
          "internalType": "string",
          "name": "",
          "type": "string"
        }
      ],
      "name": "addresses",
      "outputs": [
        {
          "internalType": "address payable",
          "name": "",
          "type": "address"
        }
      ],
      "stateMutability": "view",
      "type": "function"
    },
    {
      "inputs": [
        {
          "internalType": "address",
          "name": "",
          "type": "address"
        }
      ],
      "name": "authorized",
      "outputs": [
        {
          "internalType": "bool",
          "name": "",
          "type": "bool"
        }
      ],
      "stateMutability": "view",
      "type": "function"
    },
    {
      "inputs": [
        {
          "internalType": "string",
          "name": "",
          "type": "string"
        }
      ],
      "name": "params",
      "outputs": [
        {
          "internalType": "uint256",
          "name": "",
          "type": "uint256"
        }
      ],
      "stateMutability": "view",
      "type": "function"
    },
    {
      "inputs": [
        {
          "internalType": "address",
          "name": "",
          "type": "address"
        }
      ],
      "name": "paused",
      "outputs": [
        {
          "internalType": "bool",
          "name": "",
          "type": "bool"
        }
      ],
      "stateMutability": "view",
      "type": "function"
    },
    {
      "inputs": [
        {
          "internalType": "address",
          "name": "",
          "type": "address"
        }
      ],
      "name": "pooled",
      "outputs": [
        {
          "internalType": "uint256",
          "name": "",
          "type": "uint256"
        }
      ],
      "stateMutability": "view",
      "type": "function"
    },
    {
      "inputs": [],
      "name": "totalPooled",
      "outputs": [
        {
          "internalType": "uint256",
          "name": "",
          "type": "uint256"
        }
      ],
      "stateMutability": "view",
      "type": "function"
    },
    {
      "inputs": [],
      "name": "votingID",
      "outputs": [
        {
          "internalType": "uint256",
          "name": "",
          "type": "uint256"
        }
      ],
      "stateMutability": "view",
      "type": "function"
    },
    {
      "inputs": [
        {
          "internalType": "uint256",
          "name": "",
          "type": "uint256"
        }
      ],
      "name": "votings",
      "outputs": [
        {
          "internalType": "uint256",
          "name": "totalPositive",
          "type": "uint256"
        },
        {
          "internalType": "uint256",
          "name": "voteingType",
          "type": "uint256"
        },
        {
          "internalType": "string",
          "name": "name",
          "type": "string"
        },
        {
          "internalType": "uint256",
          "name": "value",
          "type": "uint256"
        },
        {
          "internalType": "address payable",
          "name": "addr",
          "type": "address"
        },
        {
          "internalType": "uint256",
          "name": "startTime",
          "type": "uint256"
        },
        {
          "internalType": "bool",
          "name": "decision",
          "type": "bool"
        }
      ],
      "stateMutability": "view",
      "type": "function"
    },
    {
      "stateMutability": "payable",
      "type": "receive"
    },
    {
      "inputs": [
        {
          "internalType": "string",
          "name": "addressName",
          "type": "string"
        },
        {
          "internalType": "address payable",
          "name": "addr",
          "type": "address"
        }
      ],
      "name": "setAddressOnce",
      "outputs": [],
      "stateMutability": "nonpayable",
      "type": "function"
    },
    {
      "inputs": [
        {
          "internalType": "uint256",
          "name": "votingType",
          "type": "uint256"
        },
        {
          "internalType": "string",
          "name": "name",
          "type": "string"
        },
        {
          "internalType": "uint256",
          "name": "value",
          "type": "uint256"
        },
        {
          "internalType": "address payable",
          "name": "addr",
          "type": "address"
        },
        {
          "internalType": "bool",
          "name": "_decision",
          "type": "bool"
        }
      ],
      "name": "addVoting",
      "outputs": [],
      "stateMutability": "nonpayable",
      "type": "function"
    },
    {
      "inputs": [],
      "name": "renewContracts",
      "outputs": [],
      "stateMutability": "nonpayable",
      "type": "function"
    },
    {
      "inputs": [],
      "name": "poolTokens",
      "outputs": [
        {
          "internalType": "bool",
          "name": "success",
          "type": "bool"
        }
      ],
      "stateMutability": "nonpayable",
      "type": "function"
    },
    {
      "inputs": [],
      "name": "returnTokens",
      "outputs": [
        {
          "internalType": "bool",
          "name": "",
          "type": "bool"
        }
      ],
      "stateMutability": "nonpayable",
      "type": "function"
    },
    {
      "inputs": [
        {
          "internalType": "bool",
          "name": "_vote",
          "type": "bool"
        }
      ],
      "name": "vote",
      "outputs": [],
      "stateMutability": "nonpayable",
      "type": "function"
    },
    {
      "inputs": [],
      "name": "claimToFinalizeCurrentVoting",
      "outputs": [],
      "stateMutability": "nonpayable",
      "type": "function"
    },
    {
      "inputs": [],
      "name": "withdraw",
      "outputs": [],
      "stateMutability": "nonpayable",
      "type": "function"
    }
  ],
  "bytecode": "0x608060405234801561001057600080fd5b50604051611f2d380380611f2d83398101604081905261002f916104dc565b60096005604051610052906b696e7465726573745261746560a01b8152600c0190565b908152604080519182900360209081018320939093556a6465706f7369745261746560a81b82526005600b8301819052815192839003602b0183206008908190556d6c69717569646174696f6e46656560901b8452600e8401829052825193849003602e018420600d90557118dbdb1b185d195c985b111a5cd8dbdd5b9d60721b84526012840182905282519384900360329081018520601e90557f73746162696c697a6174696f6e46756e6450657263656e74000000000000000085526018850183905283519485900360380185208390556571756f72756d60d01b8552600685018390528351948590036026018520603c9055676d616a6f7269747960c01b85529084018290528251938490036028018420557f6d696e43445042616c616e6365546f496e69744275794f7574000000000000008352601983018190528151928390036039018320678ac7230489e8000090556f6162736f6c7574654d616a6f7269747960801b8352601083018190529051603092819003929092018220605090557f6d696e52756c65546f6b656e73546f496e6974566f74696e6750657263656e748252600192909101908152604080519182900360209081018320939093556d3b37ba34b733a23ab930ba34b7b760911b82526005600e8301819052815192839003602e01832062015180908190557f61756374696f6e5475726e4475726174696f6e00000000000000000000000000845260138085018390528351948590036033908101862061038490557f6d696e41756374696f6e50726963654d6f7665000000000000000000000000008652858201849052845195869003810186208490556c1b5a5b90dbdb1b195d195c985b609a1b8652600d8601849052845195869003602d018620601a90557f6d617267696e43616c6c54696d654c696d6974000000000000000000000000008652908501839052835194859003018420557f616e6e75616c496e666c6174696f6e50657263656e740000000000000000000083526016808401829052825193849003603690810185206001908190557f64656661756c744465706f736974506572696f6400000000000000000000000086526014860184905284519586900360340186206277f88090557f6d6178436f696e73466f7253746162696c697a6174696f6e000000000000000086526018860184905284519586900360380186206802b5e3af16b188000090557f6d617852756c65456d697373696f6e50657263656e740000000000000000000086529185018390529251938490039092018320919091557f68696768566f6c6174696c6974794576656e744261727269657250657263656e8252601d60fa1b92820192909252819060210190815260408051918290036020018220929092556d1b5a5b90dbda5b9cd51bd35a5b9d60921b81526005600e820152815190819003602e01812060019055630eecae8d60e31b8152600660048201819052825191829003602401822080546001600160a01b03959095166001600160a01b03199586161790556264616f60e81b825260038201529051908190036023019020805430921691909117905561050c565b6000602082840312156104ee57600080fd5b81516001600160a01b038116811461050557600080fd5b9392505050565b611a128061051b6000396000f3fe6080604052600436106100d25760003560e01c8063145f822b146100de57806323d86a65146101295780632abdf04e1461017f5780632e48152c1461019f5780633ccfd60b146101df5780634b9f5c98146101f457806355b2636d146102145780636d3e313e1461022e5780636ec21cc81461024357806381b41e1c14610259578063a598d03c1461026e578063b9181611146102a1578063bdfe7d47146102d1578063c85c98bf1461032a578063d32b0c101461034a578063f007cafd14610377578063f9718fc81461038d57600080fd5b366100d957005b600080fd5b3480156100ea57600080fd5b506101166100f93660046114e4565b805160208183018101805160058252928201919093012091525481565b6040519081526020015b60405180910390f35b34801561013557600080fd5b5061017d6040516372756c6560e01b815260069060040190815260405190819003602001902054600080546001600160a01b0319166001600160a01b03909216919091179055565b005b34801561018b57600080fd5b5061017d61019a366004611535565b6103a2565b3480156101ab57600080fd5b506101cf6101ba366004611586565b60076020526000908152604090205460ff1681565b6040519015158152602001610120565b3480156101eb57600080fd5b5061017d6105ca565b34801561020057600080fd5b5061017d61020f3660046115b8565b610622565b34801561022057600080fd5b506004546101cf9060ff1681565b34801561023a57600080fd5b506101cf61086a565b34801561024f57600080fd5b50610116600a5481565b34801561026557600080fd5b5061017d610a3e565b34801561027a57600080fd5b5061028e6102893660046115d5565b610ce7565b604051610120979695949392919061163e565b3480156102ad57600080fd5b506101cf6102bc366004611586565b60086020526000908152604090205460ff1681565b3480156102dd57600080fd5b506103126102ec3660046114e4565b80516020818301810180516006825292820191909301209152546001600160a01b031681565b6040516001600160a01b039091168152602001610120565b34801561033657600080fd5b5061017d61034536600461168e565b610dba565b34801561035657600080fd5b50610116610365366004611586565b60096020526000908152604090205481565b34801561038357600080fd5b5061011660035481565b34801561039957600080fd5b506101cf610fde565b60006001600160a01b03166006836040516103bd9190611705565b908152604051908190036020019020546001600160a01b0316146104225760405162461bcd60e51b81526020600482015260176024820152761859191c995cdcc81dd85cc8185b1c9958591e481cd95d604a1b60448201526064015b60405180910390fd5b806006836040516104339190611705565b90815260408051918290036020908101832080546001600160a01b039586166001600160a01b03199091161790559284166000908152600780855290829020805460ff1916905582820190915281526619195c1bdcda5d60ca1b908201528251908301207fb738c097ee890384c0696c6790284eba7e172abfae61d8bff177478ec6cd41ff016104e1576001600160a01b0381166000908152600860205260409020805460ff191660011790555b60408051808201909152600d81526c1a5b999b185d1a5bdb919d5b99609a1b6020918201528251908301207f3cecf3cc869c17272b04780faf6854180b0118bdbf154faf68c1de9e274b04b801610556576001600160a01b0381166000908152600860205260409020805460ff191660011790555b604080518082019091526008815267706c6174666f726d60c01b6020918201528251908301207fc34fa79bd2c0e843b9f4229154bd3dea9b094add74154956fa5d14cd8d83b62f016105c6576001600160a01b0381166000908152600860205260409020805460ff191660011790555b5050565b604051656f7261636c6560d01b81526006908101908152604051908190036020018120546001600160a01b0316904780156108fc02916000818181858888f1935050505015801561061f573d6000803e3d6000fd5b50565b60045460ff1661066d5760405162461bcd60e51b8152602060048201526016602482015275139bc81858dd1a5d99481d9bdd1a5b99c8199bdd5b9960521b6044820152606401610419565b42600560405161067c90611721565b908152602001604051809103902054600260006003548152602001908152602001600020600501546106ae9190611751565b10156106f95760405162461bcd60e51b815260206004820152601a602482015279566f74696e6720697320616c726561647920696e61637469766560301b6044820152606401610419565b336000908152600960205260409020546107615760405162461bcd60e51b815260206004820152602360248201527f596f7520646f6e74206861766520706f6f6c656420746f6b656e7320746f20766044820152626f746560e81b6064820152608401610419565b80156107ec5760035460009081526001602090815260408083203384528252808320546009909252822054610796919061176a565b3360008181526009602090815260408083205460038054855260018452828520958552948352818420559254825260029052908120805492935083929091906107e0908490611751565b9091555061061f915050565b60035460009081526001602090815260408083203384529091529020541561061f57600354600081815260016020908152604080832033845282528083205493835260029091528120805490919061084590849061176a565b9091555050600354600090815260016020908152604080832033845290915281205550565b60008054604051636eb1769f60e11b815233600482015230602482015282916001600160a01b03169063dd62ed3e90604401602060405180830381865afa1580156108b9573d6000803e3d6000fd5b505050506040513d601f19601f820116820180604052508101906108dd919061177d565b9050600081116109245760405162461bcd60e51b8152602060048201526012602482015271185b1b1bddc81d1bdad95b9cc8199a5c9cdd60721b6044820152606401610419565b6000546040516323b872dd60e01b8152336004820152306024820152604481018390526001600160a01b03909116906323b872dd906064016020604051808303816000875af115801561097b573d6000803e3d6000fd5b505050506040513d601f19601f8201168201806040525081019061099f9190611796565b6109f95760405162461bcd60e51b815260206004820152602560248201527f436f756c64206e6f7420706f6f6c20746f6b656e7320666f7220736f6d65207260448201526432b0b9b7b760d91b6064820152608401610419565b3360009081526009602052604081208054839290610a18908490611751565b9250508190555080600a6000828254610a319190611751565b9091555060019392505050565b60045460ff16610a8c5760405162461bcd60e51b81526020600482015260196024820152785468657265206973206e6f2061637469766520766f74696e6760381b6044820152606401610419565b60646005604051610ab3906f6162736f6c7574654d616a6f7269747960801b815260100190565b90815260200160405180910390205460008054906101000a90046001600160a01b03166001600160a01b03166318160ddd6040518163ffffffff1660e01b8152600401602060405180830381865afa158015610b13573d6000803e3d6000fd5b505050506040513d601f19601f82011682018060405250810190610b37919061177d565b610b4191906117b3565b610b4b91906117ca565b60035460009081526002602052604090205410610b6c57610b6a61116c565b565b426005604051610b7b90611721565b90815260200160405180910390205460026000600354815260200190815260200160002060050154610bad9190611751565b11610b6a57600054604080516318160ddd60e01b815290516064926001600160a01b0316916318160ddd9160048083019260209291908290030181865afa158015610bfc573d6000803e3d6000fd5b505050506040513d601f19601f82011682018060405250810190610c20919061177d565b6040516571756f72756d60d01b8152600590600601908152602001604051809103902054610c4e91906117b3565b610c5891906117ca565b600a5410158015610c975750600354600090815260026020526040902054600a54610c83919061176a565b600354600090815260026020526040902054115b15610ca457610b6a61116c565b6004805460ff191690556003546040519081527f57834a5970ce5c2cc4aa67b63acab911850a2c8154142f285308a321a2e7b51a906020015b60405180910390a1565b600260208190526000918252604090912080546001820154928201805491939291610d11906117ec565b80601f0160208091040260200160405190810160405280929190818152602001828054610d3d906117ec565b8015610d8a5780601f10610d5f57610100808354040283529160200191610d8a565b820191906000526020600020905b815481529060010190602001808311610d6d57829003601f168201915b50505050600383015460048401546005850154600690950154939491936001600160a01b03909116925060ff1687565b60045460ff1615610e095760405162461bcd60e51b8152602060048201526019602482015278546865726520697320616e2061637469766520766f74696e6760381b6044820152606401610419565b600085118015610e195750600585105b610e5e5760405162461bcd60e51b8152602060048201526016602482015275496e636f727265637420766f7465696e67207479706560501b6044820152606401610419565b610e6733611350565b610eb35760405162461bcd60e51b815260206004820181905260248201527f546f6f206c6974746c6520746f6b656e7320746f20696e697420766f74696e676044820152606401610419565b60038054906000610ec383611826565b90915550506040805160e08101825260008082526020808301898152838501898152606085018990526001600160a01b03881660808601524260a086015286151560c0860152600354845260029283905294909220835181559151600183015592519192909190820190610f37908261188e565b5060608201516003808301919091556080830151600480840180546001600160a01b039093166001600160a01b03199093169290921790915560a0840151600584015560c0909301516006909201805492151560ff199384161790558254909116600117909155546040517f075da53496b68eb2230c8f9ea0bba204eecbbd21aee4989c20fc3df419b71f7b91610fcf91879061194d565b60405180910390a15050505050565b336000908152600960205260408120546110385760405162461bcd60e51b815260206004820152601b60248201527a596f75206d757374206861766520706f6f6c656420746f6b656e7360281b6044820152606401610419565b60045460ff1680156110655750600354600090815260016020908152604080832033845290915290205415155b156110a75760035460008181526001602090815260408083203384528252808320549383526002909152812080549091906110a190849061176a565b90915550505b6000805433808352600960205260409283902054925163a9059cbb60e01b8152600481019190915260248101929092526001600160a01b03169063a9059cbb906044016020604051808303816000875af1158015611109573d6000803e3d6000fd5b505050506040513d601f19601f8201168201806040525081019061112d9190611796565b5033600090815260096020526040812054600a80549192909161115190849061176a565b90915550503360009081526009602052604081205550600190565b600354600090815260026020526040902060019081015490036111c9576003805460009081526002602081905260409182902092830154915191926005926111b8929190910190611966565b908152604051908190036020019020555b6002600060035481526020019081526020016000206001015460020361124f57600354600090815260026020819052604091829020600481015492516001600160a01b039093169260069261121f920190611966565b90815260405190819003602001902080546001600160a01b03929092166001600160a01b03199092169190911790555b6003805460009081526002602052604090206001015490036112b157600354600090815260026020908152604080832060068101546004909101546001600160a01b031684526007909252909120805460ff191660ff90921615159190911790555b60035460009081526002602052604090206001015460040361131357600354600090815260026020908152604080832060068101546004909101546001600160a01b031684526008909252909120805460ff191660ff90921615159190911790555b6004805460ff191690556003546040519081527f8758853873295e83b84920827f3c083da36d58db370b7ae1fab04646e4314a1290602001610cdd565b600060646005604051611386907f6d696e52756c65546f6b656e73546f496e6974566f74696e6750657263656e74815260200190565b90815260200160405180910390205460008054906101000a90046001600160a01b03166001600160a01b03166318160ddd6040518163ffffffff1660e01b8152600401602060405180830381865afa1580156113e6573d6000803e3d6000fd5b505050506040513d601f19601f8201168201806040525081019061140a919061177d565b61141491906117b3565b61141e91906117ca565b6001600160a01b039092166000908152600960205260409020549190911015919050565b634e487b7160e01b600052604160045260246000fd5b600082601f83011261146957600080fd5b81356001600160401b038082111561148357611483611442565b604051601f8301601f19908116603f011681019082821181831017156114ab576114ab611442565b816040528381528660208588010111156114c457600080fd5b836020870160208301376000602085830101528094505050505092915050565b6000602082840312156114f657600080fd5b81356001600160401b0381111561150c57600080fd5b61151884828501611458565b949350505050565b6001600160a01b038116811461061f57600080fd5b6000806040838503121561154857600080fd5b82356001600160401b0381111561155e57600080fd5b61156a85828601611458565b925050602083013561157b81611520565b809150509250929050565b60006020828403121561159857600080fd5b81356115a381611520565b9392505050565b801515811461061f57600080fd5b6000602082840312156115ca57600080fd5b81356115a3816115aa565b6000602082840312156115e757600080fd5b5035919050565b60005b838110156116095781810151838201526020016115f1565b50506000910152565b6000815180845261162a8160208601602086016115ee565b601f01601f19169290920160200192915050565b87815286602082015260e06040820152600061165d60e0830188611612565b6060830196909652506001600160a01b0393909316608084015260a0830191909152151560c0909101529392505050565b600080600080600060a086880312156116a657600080fd5b8535945060208601356001600160401b038111156116c357600080fd5b6116cf88828901611458565b9450506040860135925060608601356116e781611520565b915060808601356116f7816115aa565b809150509295509295909350565b600082516117178184602087016115ee565b9190910192915050565b6d3b37ba34b733a23ab930ba34b7b760911b8152600e0190565b634e487b7160e01b600052601160045260246000fd5b808201808211156117645761176461173b565b92915050565b818103818111156117645761176461173b565b60006020828403121561178f57600080fd5b5051919050565b6000602082840312156117a857600080fd5b81516115a3816115aa565b80820281158282048414176117645761176461173b565b6000826117e757634e487b7160e01b600052601260045260246000fd5b500490565b600181811c9082168061180057607f821691505b60208210810361182057634e487b7160e01b600052602260045260246000fd5b50919050565b6000600182016118385761183861173b565b5060010190565b601f82111561188957600081815260208120601f850160051c810160208610156118665750805b601f850160051c820191505b8181101561188557828155600101611872565b5050505b505050565b81516001600160401b038111156118a7576118a7611442565b6118bb816118b584546117ec565b8461183f565b602080601f8311600181146118f057600084156118d85750858301515b600019600386901b1c1916600185901b178555611885565b600085815260208120601f198616915b8281101561191f57888601518255948401946001909101908401611900565b508582101561193d5787850151600019600388901b60f8161c191681555b5050505050600190811b01905550565b8281526040602082015260006115186040830184611612565b6000808354611974816117ec565b6001828116801561198c57600181146119a1576119d0565b60ff19841687528215158302870194506119d0565b8760005260208060002060005b858110156119c75781548a8201529084019082016119ae565b50505082870194505b5092969550505050505056fea26469706673582212208bd6907ac7892140ad06ad7e1cd483da6860509efd780b59314d1f9d1f15065064736f6c63430008130033",
  "immutableReferences": {},
  "source": "// SPDX-License-Identifier: UNLICENSED\r\npragma solidity 0.8.19;\r\nimport \"./Rule.sol\";\r\n\r\ncontract INTDAO {\r\n    Rule ruleToken;\r\n    mapping (uint256 => mapping(address => uint256)) votes;\r\n\r\n    mapping (uint256=>Voting) public votings;\r\n    uint256 public votingID;\r\n\r\n    struct Voting {\r\n        uint256 totalPositive;\r\n        uint256 voteingType;\r\n        string name;\r\n        uint256 value;\r\n        address payable addr;\r\n        uint256 startTime;\r\n        bool decision;\r\n    }\r\n\r\n    bool public activeVoting;\r\n\r\n    mapping (string => uint256) public params;\r\n    mapping (string => address payable) public addresses;\r\n    mapping (address => bool) public paused;\r\n    mapping (address => bool) public authorized;\r\n\r\n    mapping (address => uint256) public pooled;\r\n    uint256 public totalPooled;\r\n\r\n    event NewVoting (uint256 id, string name);\r\n    event VotingSucceed (uint256 id);\r\n    event VotingFailed (uint256 id);\r\n\r\n    constructor (address WETH) {\r\n        params['interestRate'] = 9;\r\n        params['depositRate']=8;\r\n        params['liquidationFee'] = 13;\r\n        params['collateralDiscount'] = 30;\r\n        params['stabilizationFundPercent'] = 5;\r\n        params['quorum'] = 60;\r\n        params['majority'] = 50;\r\n        params['minCDPBalanceToInitBuyOut'] = 10**19;\r\n        params['absoluteMajority'] = 80;\r\n        params['minRuleTokensToInitVotingPercent'] = 1;\r\n        params['votingDuration'] = 1 days;\r\n        params['auctionTurnDuration'] = 15 minutes;\r\n        params['minAuctionPriceMove'] = 5;\r\n        params['minColleteral'] = 1*10^16; // minColleteral is 0.01 ETH\r\n        params['marginCallTimeLimit'] = 1 days;\r\n        params['annualInflationPercent'] = 1;\r\n        params['defaultDepositPeriod'] = 91 days;\r\n        params['maxCoinsForStabilization'] = 50*10**18;\r\n        params['maxRuleEmissionPercent'] = 1;\r\n        params['highVolatilityEventBarrierPercent'] = 5;\r\n        params['minCoinsToMint'] = 1;\r\n\r\n        addresses['weth'] = payable(WETH);\r\n        addresses['dao'] = payable(address(this));\r\n    }\r\n\r\n    function setAddressOnce(string memory addressName, address payable addr) public{ //a certain pool of names, check not to expand addresses\r\n        require (addresses[addressName] == address (0x0), \"address was already set\");\r\n            addresses[addressName] = addr;\r\n            paused[addr] = false;\r\n            if (keccak256(bytes(addressName)) == keccak256(bytes(\"deposit\")))\r\n                authorized[addr] = true;\r\n            if (keccak256(bytes(addressName)) == keccak256(bytes(\"inflationFund\")))\r\n                authorized[addr] = true;\r\n            if (keccak256(bytes(addressName)) == keccak256(bytes(\"platform\")))\r\n                authorized[addr] = true;\r\n    }\r\n\r\n    function addVoting(uint256 votingType, string memory name, uint value, address payable addr, bool _decision) public {\r\n        require(!activeVoting, \"There is an active voting\");\r\n        require(votingType>0&&votingType<5, \"Incorrect voteing type\");\r\n        require (isEnoughTokensPooledToInitVoting(msg.sender), \"Too little tokens to init voting\");\r\n        votingID++;\r\n        votings[votingID] = Voting(0, votingType, name, value, addr, block.timestamp, _decision);\r\n        activeVoting = true;\r\n        emit NewVoting(votingID, name);\r\n    }\r\n\r\n    function isEnoughTokensPooledToInitVoting(address initiator) internal view returns (bool enough){\r\n        return pooled[initiator]>=ruleToken.totalSupply()*params['minRuleTokensToInitVotingPercent']/100;\r\n    }\r\n\r\n    function renewContracts() public {\r\n        ruleToken = Rule(addresses['rule']);\r\n    }\r\n\r\n    function poolTokens() public returns (bool success){\r\n        uint256 amount = ruleToken.allowance(msg.sender, address(this));\r\n        require (amount>0, \"allow tokens first\");\r\n        require(ruleToken.transferFrom(msg.sender, address(this), amount), \"Could not pool tokens for some reason\");\r\n        pooled[msg.sender] += amount;\r\n        totalPooled += amount;\r\n        return true;\r\n    }\r\n\r\n    function returnTokens() public returns (bool) {\r\n        require(pooled[msg.sender] > 0, 'You must have pooled tokens');\r\n        if (activeVoting && votes[votingID][msg.sender]>0){\r\n            votings[votingID].totalPositive -= votes[votingID][msg.sender];\r\n        }\r\n        ruleToken.transfer(msg.sender, pooled[msg.sender]);\r\n        totalPooled -= pooled[msg.sender];\r\n        pooled[msg.sender] = 0;\r\n        return true;\r\n    }\r\n\r\n    function vote(bool _vote) public{\r\n        require(activeVoting, \"No active voting found\");\r\n        require(votings[votingID].startTime + params['votingDuration'] >= block.timestamp, \"Voting is already inactive\");\r\n        require(pooled[msg.sender]>0, \"You dont have pooled tokens to vote\");\r\n\r\n        if (_vote) {\r\n            uint _votesToAdd = pooled[msg.sender] - votes[votingID][msg.sender];\r\n            votes[votingID][msg.sender] = pooled[msg.sender];\r\n            votings[votingID].totalPositive += _votesToAdd;\r\n        }\r\n        else {\r\n            if (votes[votingID][msg.sender] > 0){\r\n                votings[votingID].totalPositive -= votes[votingID][msg.sender];\r\n                votes[votingID][msg.sender] = 0;\r\n            }\r\n        }\r\n    }\r\n\r\n    function claimToFinalizeCurrentVoting() public {\r\n        require (activeVoting, \"There is no active voting\");\r\n        if (votings[votingID].totalPositive >= ruleToken.totalSupply() * params['absoluteMajority'] / 100) {\r\n            finalizeCurrentVoting();\r\n            return;\r\n        }\r\n        else if (votings[votingID].startTime + params['votingDuration'] <= block.timestamp) {\r\n            if (totalPooled >= params['quorum'] * ruleToken.totalSupply() / 100 && votings[votingID].totalPositive > (totalPooled - votings[votingID].totalPositive)) {\r\n                finalizeCurrentVoting();\r\n                return;\r\n            }\r\n            activeVoting = false;\r\n            emit VotingFailed(votingID);\r\n            return;\r\n        }\r\n    }\r\n\r\n    function finalizeCurrentVoting() internal {\r\n        if (votings[votingID].voteingType == 1)\r\n            params[votings[votingID].name] = votings[votingID].value;\r\n        if (votings[votingID].voteingType == 2)\r\n            addresses[votings[votingID].name] = votings[votingID].addr;\r\n        if (votings[votingID].voteingType == 3)\r\n            paused[votings[votingID].addr] = votings[votingID].decision;\r\n        if (votings[votingID].voteingType == 4)\r\n            authorized[votings[votingID].addr] = votings[votingID].decision;\r\n        activeVoting = false;\r\n        emit VotingSucceed(votingID);\r\n    }\r\n\r\n    receive() external payable {}\r\n\r\n    function withdraw() public {\r\n        addresses['oracle'].transfer(address(this).balance);\r\n    }\r\n}\r\n",
  "sourcePath": "C:\\Users\\d.nagornykh\\YandexDisk\\\\ICO\\CryptoFiat\\repo\\contracts\\INTDAO.sol",
  "compiler": {
    "name": "solc",
    "version": "0.8.19+commit.7dd6d404.Emscripten.clang"
  },
  "schemaVersion": "3.4.14",
  "updatedAt": "2023-08-11T06:20:07.266Z",
  "devdoc": {
    "kind": "dev",
    "methods": {},
    "version": 1
  },
  "userdoc": {
    "kind": "user",
    "methods": {},
    "version": 1
  }
}