{
  "contractName": "INTDAO",
  "abi": [
    {
      "inputs": [
        {
          "internalType": "address",
          "name": "WETH",
          "type": "address"
        }
      ],
      "stateMutability": "nonpayable",
      "type": "constructor"
    },
    {
      "anonymous": false,
      "inputs": [
        {
          "indexed": false,
          "internalType": "uint256",
          "name": "id",
          "type": "uint256"
        },
        {
          "indexed": false,
          "internalType": "string",
          "name": "name",
          "type": "string"
        }
      ],
      "name": "NewVoting",
      "type": "event"
    },
    {
      "anonymous": false,
      "inputs": [
        {
          "indexed": false,
          "internalType": "uint256",
          "name": "id",
          "type": "uint256"
        }
      ],
      "name": "VotingFailed",
      "type": "event"
    },
    {
      "anonymous": false,
      "inputs": [
        {
          "indexed": false,
          "internalType": "uint256",
          "name": "id",
          "type": "uint256"
        }
      ],
      "name": "VotingSucceed",
      "type": "event"
    },
    {
      "inputs": [],
      "name": "activeVoting",
      "outputs": [
        {
          "internalType": "bool",
          "name": "",
          "type": "bool"
        }
      ],
      "stateMutability": "view",
      "type": "function"
    },
    {
      "inputs": [
        {
          "internalType": "string",
          "name": "",
          "type": "string"
        }
      ],
      "name": "addresses",
      "outputs": [
        {
          "internalType": "address",
          "name": "",
          "type": "address"
        }
      ],
      "stateMutability": "view",
      "type": "function"
    },
    {
      "inputs": [
        {
          "internalType": "address",
          "name": "",
          "type": "address"
        }
      ],
      "name": "isAuthorized",
      "outputs": [
        {
          "internalType": "bool",
          "name": "",
          "type": "bool"
        }
      ],
      "stateMutability": "view",
      "type": "function"
    },
    {
      "inputs": [
        {
          "internalType": "string",
          "name": "",
          "type": "string"
        }
      ],
      "name": "params",
      "outputs": [
        {
          "internalType": "uint256",
          "name": "",
          "type": "uint256"
        }
      ],
      "stateMutability": "view",
      "type": "function"
    },
    {
      "inputs": [
        {
          "internalType": "address",
          "name": "",
          "type": "address"
        }
      ],
      "name": "paused",
      "outputs": [
        {
          "internalType": "bool",
          "name": "",
          "type": "bool"
        }
      ],
      "stateMutability": "view",
      "type": "function"
    },
    {
      "inputs": [
        {
          "internalType": "address",
          "name": "",
          "type": "address"
        }
      ],
      "name": "pooled",
      "outputs": [
        {
          "internalType": "uint256",
          "name": "",
          "type": "uint256"
        }
      ],
      "stateMutability": "view",
      "type": "function"
    },
    {
      "inputs": [],
      "name": "totalPooled",
      "outputs": [
        {
          "internalType": "uint256",
          "name": "",
          "type": "uint256"
        }
      ],
      "stateMutability": "view",
      "type": "function"
    },
    {
      "inputs": [],
      "name": "votingID",
      "outputs": [
        {
          "internalType": "uint256",
          "name": "",
          "type": "uint256"
        }
      ],
      "stateMutability": "view",
      "type": "function"
    },
    {
      "inputs": [
        {
          "internalType": "uint256",
          "name": "",
          "type": "uint256"
        }
      ],
      "name": "votings",
      "outputs": [
        {
          "internalType": "uint256",
          "name": "totalPositive",
          "type": "uint256"
        },
        {
          "internalType": "uint256",
          "name": "votingType",
          "type": "uint256"
        },
        {
          "internalType": "string",
          "name": "name",
          "type": "string"
        },
        {
          "internalType": "uint256",
          "name": "value",
          "type": "uint256"
        },
        {
          "internalType": "address",
          "name": "addr",
          "type": "address"
        },
        {
          "internalType": "uint256",
          "name": "startTime",
          "type": "uint256"
        },
        {
          "internalType": "bool",
          "name": "decision",
          "type": "bool"
        }
      ],
      "stateMutability": "view",
      "type": "function"
    },
    {
      "inputs": [],
      "name": "renewContracts",
      "outputs": [],
      "stateMutability": "nonpayable",
      "type": "function"
    },
    {
      "inputs": [
        {
          "internalType": "string",
          "name": "addressName",
          "type": "string"
        },
        {
          "internalType": "address",
          "name": "addr",
          "type": "address"
        }
      ],
      "name": "setAddressOnce",
      "outputs": [],
      "stateMutability": "nonpayable",
      "type": "function"
    },
    {
      "inputs": [
        {
          "internalType": "uint256",
          "name": "votingType",
          "type": "uint256"
        },
        {
          "internalType": "string",
          "name": "name",
          "type": "string"
        },
        {
          "internalType": "uint256",
          "name": "value",
          "type": "uint256"
        },
        {
          "internalType": "address",
          "name": "addr",
          "type": "address"
        },
        {
          "internalType": "bool",
          "name": "decision",
          "type": "bool"
        }
      ],
      "name": "addVoting",
      "outputs": [],
      "stateMutability": "nonpayable",
      "type": "function"
    },
    {
      "inputs": [],
      "name": "poolTokens",
      "outputs": [
        {
          "internalType": "bool",
          "name": "success",
          "type": "bool"
        }
      ],
      "stateMutability": "nonpayable",
      "type": "function"
    },
    {
      "inputs": [],
      "name": "returnTokens",
      "outputs": [
        {
          "internalType": "bool",
          "name": "",
          "type": "bool"
        }
      ],
      "stateMutability": "nonpayable",
      "type": "function"
    },
    {
      "inputs": [
        {
          "internalType": "bool",
          "name": "_vote",
          "type": "bool"
        }
      ],
      "name": "vote",
      "outputs": [],
      "stateMutability": "nonpayable",
      "type": "function"
    },
    {
      "inputs": [],
      "name": "claimToFinalizeCurrentVoting",
      "outputs": [],
      "stateMutability": "nonpayable",
      "type": "function"
    }
  ],
  "bytecode": "0x608060405234801561001057600080fd5b50604051611d3f380380611d3f83398101604081905261002f916104dc565b60096005604051610052906b696e7465726573745261746560a01b8152600c0190565b908152604080519182900360209081018320939093556a6465706f7369745261746560a81b82526005600b8301819052815192839003602b0183206008908190556d6c69717569646174696f6e46656560901b8452600e8401829052825193849003602e018420600d90557118dbdb1b185d195c985b111a5cd8dbdd5b9d60721b84526012840182905282519384900360329081018520601e90557f73746162696c697a6174696f6e46756e6450657263656e74000000000000000085526018850183905283519485900360380185208390556571756f72756d60d01b8552600685018390528351948590036026018520603c9055676d616a6f7269747960c01b85529084018290528251938490036028018420557f6d696e43445042616c616e6365546f496e69744275794f7574000000000000008352601983018190528151928390036039018320678ac7230489e8000090556f6162736f6c7574654d616a6f7269747960801b8352601083018190529051603092819003929092018220605090557f6d696e52756c65546f6b656e73546f496e6974566f74696e6750657263656e748252600192909101908152604080519182900360209081018320939093556d3b37ba34b733a23ab930ba34b7b760911b82526005600e8301819052815192839003602e01832062015180908190557f61756374696f6e5475726e4475726174696f6e00000000000000000000000000845260138085018390528351948590036033908101862061038490557f6d696e41756374696f6e50726963654d6f7665000000000000000000000000008652858201849052845195869003810186208490556c1b5a5b90dbdb1b195d195c985b609a1b8652600d8601849052845195869003602d018620601a90557f6d617267696e43616c6c54696d654c696d6974000000000000000000000000008652908501839052835194859003018420557f616e6e75616c496e666c6174696f6e50657263656e740000000000000000000083526016808401829052825193849003603690810185206001908190557f64656661756c744465706f736974506572696f6400000000000000000000000086526014860184905284519586900360340186206277f88090557f6d6178436f696e73466f7253746162696c697a6174696f6e000000000000000086526018860184905284519586900360380186206802b5e3af16b188000090557f6d617852756c65456d697373696f6e50657263656e740000000000000000000086529185018390529251938490039092018320919091557f68696768566f6c6174696c6974794576656e744261727269657250657263656e8252601d60fa1b92820192909252819060210190815260408051918290036020018220929092556d1b5a5b90dbda5b9cd51bd35a5b9d60921b81526005600e820152815190819003602e01812060019055630eecae8d60e31b8152600660048201819052825191829003602401822080546001600160a01b03959095166001600160a01b03199586161790556264616f60e81b825260038201529051908190036023019020805430921691909117905561050c565b6000602082840312156104ee57600080fd5b81516001600160a01b038116811461050557600080fd5b9392505050565b6118248061051b6000396000f3fe608060405234801561001057600080fd5b50600436106100d05760003560e01c8063145f822b146100d557806323d86a65146101135780632abdf04e1461015c5780632e48152c1461016f5780634b9f5c98146101a257806355b2636d146101b55780636d3e313e146101c25780636ec21cc8146101ca57806381b41e1c146101d3578063a598d03c146101db578063bdfe7d4714610201578063c85c98bf1461024d578063d32b0c1014610260578063f007cafd14610280578063f9718fc814610289578063fe9fbb8014610291575b600080fd5b6101006100e33660046112f8565b805160208183018101805160058252928201919093012091525481565b6040519081526020015b60405180910390f35b61015a6040516372756c6560e01b815260069060040190815260405190819003602001902054600080546001600160a01b0319166001600160a01b03909216919091179055565b005b61015a61016a366004611350565b6102b4565b61019261017d36600461139d565b60076020526000908152604090205460ff1681565b604051901515815260200161010a565b61015a6101b03660046113cd565b610435565b6004546101929060ff1681565b61019261067e565b610100600a5481565b61015a610852565b6101ee6101e93660046113ea565b610afb565b60405161010a9796959493929190611453565b61023561020f3660046112f8565b80516020818301810180516006825292820191909301209152546001600160a01b031681565b6040516001600160a01b03909116815260200161010a565b61015a61025b3660046114a3565b610bce565b61010061026e36600461139d565b60096020526000908152604090205481565b61010060035481565b610192610df2565b61019261029f36600461139d565b60086020526000908152604090205460ff1681565b60006001600160a01b03166006836040516102cf9190611518565b908152604051908190036020019020546001600160a01b0316146103345760405162461bcd60e51b81526020600482015260176024820152761859191c995cdcc81dd85cc8185b1c9958591e481cd95d604a1b60448201526064015b60405180910390fd5b806006836040516103459190611518565b908152604080516020928190038301812080546001600160a01b0319166001600160a01b039590951694909417909355845185830120838201909152600783526619195c1bdcda5d60ca1b91909201527f48c73f681176fc7b3f9693986fd7b14581e8d540519e27400e88b8713932be01811480610407575060408051808201909152600d81526c1a5b999b185d1a5bdb919d5b99609a1b6020909101527fc3130c337963e8d8d4fb87f05097abe7f4fee74240eab050973e2161d8b4fb4881145b15610430576001600160a01b0382166000908152600860205260409020805460ff191660011790555b505050565b60045460ff166104805760405162461bcd60e51b8152602060048201526016602482015275139bc81858dd1a5d99481d9bdd1a5b99c8199bdd5b9960521b604482015260640161032b565b42600560405161048f90611534565b908152602001604051809103902054600260006003548152602001908152602001600020600501546104c19190611564565b101561050c5760405162461bcd60e51b815260206004820152601a602482015279566f74696e6720697320616c726561647920696e61637469766560301b604482015260640161032b565b336000908152600960205260409020546105745760405162461bcd60e51b815260206004820152602360248201527f596f7520646f6e74206861766520706f6f6c656420746f6b656e7320746f20766044820152626f746560e81b606482015260840161032b565b80156105ff57600354600090815260016020908152604080832033845282528083205460099092528220546105a9919061157d565b3360008181526009602090815260408083205460038054855260018452828520958552948352818420559254825260029052908120805492935083929091906105f3908490611564565b9091555061067b915050565b60035460009081526001602090815260408083203384529091529020541561067b57600354600081815260016020908152604080832033845282528083205493835260029091528120805490919061065890849061157d565b909155505060035460009081526001602090815260408083203384529091528120555b50565b60008054604051636eb1769f60e11b815233600482015230602482015282916001600160a01b03169063dd62ed3e90604401602060405180830381865afa1580156106cd573d6000803e3d6000fd5b505050506040513d601f19601f820116820180604052508101906106f19190611590565b9050600081116107385760405162461bcd60e51b8152602060048201526012602482015271185b1b1bddc81d1bdad95b9cc8199a5c9cdd60721b604482015260640161032b565b6000546040516323b872dd60e01b8152336004820152306024820152604481018390526001600160a01b03909116906323b872dd906064016020604051808303816000875af115801561078f573d6000803e3d6000fd5b505050506040513d601f19601f820116820180604052508101906107b391906115a9565b61080d5760405162461bcd60e51b815260206004820152602560248201527f436f756c64206e6f7420706f6f6c20746f6b656e7320666f7220736f6d65207260448201526432b0b9b7b760d91b606482015260840161032b565b336000908152600960205260408120805483929061082c908490611564565b9250508190555080600a60008282546108459190611564565b9091555060019392505050565b60045460ff166108a05760405162461bcd60e51b81526020600482015260196024820152785468657265206973206e6f2061637469766520766f74696e6760381b604482015260640161032b565b606460056040516108c7906f6162736f6c7574654d616a6f7269747960801b815260100190565b90815260200160405180910390205460008054906101000a90046001600160a01b03166001600160a01b03166318160ddd6040518163ffffffff1660e01b8152600401602060405180830381865afa158015610927573d6000803e3d6000fd5b505050506040513d601f19601f8201168201806040525081019061094b9190611590565b61095591906115c6565b61095f91906115dd565b600354600090815260026020526040902054106109805761097e610f80565b565b42600560405161098f90611534565b908152602001604051809103902054600260006003548152602001908152602001600020600501546109c19190611564565b1161097e57600054604080516318160ddd60e01b815290516064926001600160a01b0316916318160ddd9160048083019260209291908290030181865afa158015610a10573d6000803e3d6000fd5b505050506040513d601f19601f82011682018060405250810190610a349190611590565b6040516571756f72756d60d01b8152600590600601908152602001604051809103902054610a6291906115c6565b610a6c91906115dd565b600a5410158015610aab5750600354600090815260026020526040902054600a54610a97919061157d565b600354600090815260026020526040902054115b15610ab85761097e610f80565b6004805460ff191690556003546040519081527f57834a5970ce5c2cc4aa67b63acab911850a2c8154142f285308a321a2e7b51a906020015b60405180910390a1565b600260208190526000918252604090912080546001820154928201805491939291610b25906115ff565b80601f0160208091040260200160405190810160405280929190818152602001828054610b51906115ff565b8015610b9e5780601f10610b7357610100808354040283529160200191610b9e565b820191906000526020600020905b815481529060010190602001808311610b8157829003601f168201915b50505050600383015460048401546005850154600690950154939491936001600160a01b03909116925060ff1687565b60045460ff1615610c1d5760405162461bcd60e51b8152602060048201526019602482015278546865726520697320616e2061637469766520766f74696e6760381b604482015260640161032b565b600085118015610c2d5750600585105b610c725760405162461bcd60e51b8152602060048201526016602482015275496e636f727265637420766f7465696e67207479706560501b604482015260640161032b565b610c7b33611164565b610cc75760405162461bcd60e51b815260206004820181905260248201527f546f6f206c6974746c6520746f6b656e7320746f20696e697420766f74696e67604482015260640161032b565b60038054906000610cd783611639565b90915550506040805160e08101825260008082526020808301898152838501898152606085018990526001600160a01b03881660808601524260a086015286151560c0860152600354845260029283905294909220835181559151600183015592519192909190820190610d4b90826116a0565b5060608201516003808301919091556080830151600480840180546001600160a01b039093166001600160a01b03199093169290921790915560a0840151600584015560c0909301516006909201805492151560ff199384161790558254909116600117909155546040517f075da53496b68eb2230c8f9ea0bba204eecbbd21aee4989c20fc3df419b71f7b91610de391879061175f565b60405180910390a15050505050565b33600090815260096020526040812054610e4c5760405162461bcd60e51b815260206004820152601b60248201527a596f75206d757374206861766520706f6f6c656420746f6b656e7360281b604482015260640161032b565b60045460ff168015610e795750600354600090815260016020908152604080832033845290915290205415155b15610ebb576003546000818152600160209081526040808320338452825280832054938352600290915281208054909190610eb590849061157d565b90915550505b6000805433808352600960205260409283902054925163a9059cbb60e01b8152600481019190915260248101929092526001600160a01b03169063a9059cbb906044016020604051808303816000875af1158015610f1d573d6000803e3d6000fd5b505050506040513d601f19601f82011682018060405250810190610f4191906115a9565b5033600090815260096020526040812054600a805491929091610f6590849061157d565b90915550503360009081526009602052604081205550600190565b60035460009081526002602052604090206001908101549003610fdd57600380546000908152600260208190526040918290209283015491519192600592610fcc929190910190611778565b908152604051908190036020019020555b6002600060035481526020019081526020016000206001015460020361106357600354600090815260026020819052604091829020600481015492516001600160a01b0390931692600692611033920190611778565b90815260405190819003602001902080546001600160a01b03929092166001600160a01b03199092169190911790555b6003805460009081526002602052604090206001015490036110c557600354600090815260026020908152604080832060068101546004909101546001600160a01b031684526007909252909120805460ff191660ff90921615159190911790555b60035460009081526002602052604090206001015460040361112757600354600090815260026020908152604080832060068101546004909101546001600160a01b031684526008909252909120805460ff191660ff90921615159190911790555b6004805460ff191690556003546040519081527f8758853873295e83b84920827f3c083da36d58db370b7ae1fab04646e4314a1290602001610af1565b60006064600560405161119a907f6d696e52756c65546f6b656e73546f496e6974566f74696e6750657263656e74815260200190565b90815260200160405180910390205460008054906101000a90046001600160a01b03166001600160a01b03166318160ddd6040518163ffffffff1660e01b8152600401602060405180830381865afa1580156111fa573d6000803e3d6000fd5b505050506040513d601f19601f8201168201806040525081019061121e9190611590565b61122891906115c6565b61123291906115dd565b6001600160a01b039092166000908152600960205260409020549190911015919050565b634e487b7160e01b600052604160045260246000fd5b600082601f83011261127d57600080fd5b81356001600160401b038082111561129757611297611256565b604051601f8301601f19908116603f011681019082821181831017156112bf576112bf611256565b816040528381528660208588010111156112d857600080fd5b836020870160208301376000602085830101528094505050505092915050565b60006020828403121561130a57600080fd5b81356001600160401b0381111561132057600080fd5b61132c8482850161126c565b949350505050565b80356001600160a01b038116811461134b57600080fd5b919050565b6000806040838503121561136357600080fd5b82356001600160401b0381111561137957600080fd5b6113858582860161126c565b92505061139460208401611334565b90509250929050565b6000602082840312156113af57600080fd5b6113b882611334565b9392505050565b801515811461067b57600080fd5b6000602082840312156113df57600080fd5b81356113b8816113bf565b6000602082840312156113fc57600080fd5b5035919050565b60005b8381101561141e578181015183820152602001611406565b50506000910152565b6000815180845261143f816020860160208601611403565b601f01601f19169290920160200192915050565b87815286602082015260e06040820152600061147260e0830188611427565b6060830196909652506001600160a01b0393909316608084015260a0830191909152151560c0909101529392505050565b600080600080600060a086880312156114bb57600080fd5b8535945060208601356001600160401b038111156114d857600080fd5b6114e48882890161126c565b945050604086013592506114fa60608701611334565b9150608086013561150a816113bf565b809150509295509295909350565b6000825161152a818460208701611403565b9190910192915050565b6d3b37ba34b733a23ab930ba34b7b760911b8152600e0190565b634e487b7160e01b600052601160045260246000fd5b808201808211156115775761157761154e565b92915050565b818103818111156115775761157761154e565b6000602082840312156115a257600080fd5b5051919050565b6000602082840312156115bb57600080fd5b81516113b8816113bf565b80820281158282048414176115775761157761154e565b6000826115fa57634e487b7160e01b600052601260045260246000fd5b500490565b600181811c9082168061161357607f821691505b60208210810361163357634e487b7160e01b600052602260045260246000fd5b50919050565b60006001820161164b5761164b61154e565b5060010190565b601f82111561043057600081815260208120601f850160051c810160208610156116795750805b601f850160051c820191505b8181101561169857828155600101611685565b505050505050565b81516001600160401b038111156116b9576116b9611256565b6116cd816116c784546115ff565b84611652565b602080601f83116001811461170257600084156116ea5750858301515b600019600386901b1c1916600185901b178555611698565b600085815260208120601f198616915b8281101561173157888601518255948401946001909101908401611712565b508582101561174f5787850151600019600388901b60f8161c191681555b5050505050600190811b01905550565b82815260406020820152600061132c6040830184611427565b6000808354611786816115ff565b6001828116801561179e57600181146117b3576117e2565b60ff19841687528215158302870194506117e2565b8760005260208060002060005b858110156117d95781548a8201529084019082016117c0565b50505082870194505b5092969550505050505056fea2646970667358221220ac35bf7a6b5fbcdd10eb2d303ecdd8b1cd9771d78df54c744d19e6646e24255764736f6c63430008120033",
  "immutableReferences": {},
  "source": "// SPDX-License-Identifier: UNLICENSED\r\npragma solidity 0.8.18;\r\nimport \"@openzeppelin/contracts/token/ERC20/IERC20.sol\";\r\n\r\ncontract INTDAO {\r\n    IERC20 ruleToken;\r\n    mapping (uint256 => mapping(address => uint256)) votes;\r\n\r\n    mapping (uint256=>Voting) public votings;\r\n    uint256 public votingID;\r\n\r\n    struct Voting {\r\n        uint256 totalPositive;\r\n        uint256 votingType;\r\n        string name;\r\n        uint256 value;\r\n        address addr;\r\n        uint256 startTime;\r\n        bool decision;\r\n    }\r\n\r\n    bool public activeVoting;\r\n\r\n    mapping (string => uint256) public params;\r\n    mapping (string => address) public addresses;\r\n    mapping (address => bool) public paused;\r\n    mapping (address => bool) public isAuthorized;\r\n\r\n    mapping (address => uint256) public pooled;\r\n    uint256 public totalPooled;\r\n\r\n    event NewVoting (uint256 id, string name);\r\n    event VotingSucceed (uint256 id);\r\n    event VotingFailed (uint256 id);\r\n\r\n    constructor (address WETH) {\r\n        params['interestRate'] = 9;\r\n        params['depositRate']=8;\r\n        params['liquidationFee'] = 13;\r\n        params['collateralDiscount'] = 30;\r\n        params['stabilizationFundPercent'] = 5;\r\n        params['quorum'] = 60;\r\n        params['majority'] = 50;\r\n        params['minCDPBalanceToInitBuyOut'] = 10**19;\r\n        params['absoluteMajority'] = 80;\r\n        params['minRuleTokensToInitVotingPercent'] = 1;\r\n        params['votingDuration'] = 1 days;\r\n        params['auctionTurnDuration'] = 15 minutes;\r\n        params['minAuctionPriceMove'] = 5;\r\n        params['minColleteral'] = 1*10^16; // minColleteral is 0.01 ETH\r\n        params['marginCallTimeLimit'] = 1 days;\r\n        params['annualInflationPercent'] = 1;\r\n        params['defaultDepositPeriod'] = 91 days;\r\n        params['maxCoinsForStabilization'] = 50*10**18;\r\n        params['maxRuleEmissionPercent'] = 1;\r\n        params['highVolatilityEventBarrierPercent'] = 5;\r\n        params['minCoinsToMint'] = 1;\r\n\r\n        addresses['weth'] = WETH;\r\n        addresses['dao'] = address(this);\r\n    }\r\n\r\n    function renewContracts() public {\r\n        ruleToken = IERC20(addresses['rule']);\r\n    }\r\n\r\n    function setAddressOnce(string memory addressName, address addr) external {\r\n        require (addresses[addressName] == address(0), \"address was already set\");\r\n        addresses[addressName] = addr;\r\n        //a certain pool of names, check not to expand addresses\r\n        bytes32 hash = keccak256(bytes(addressName));\r\n        if (hash == keccak256(bytes(\"deposit\")) ||\r\n            hash == keccak256(bytes(\"inflationFund\"))) {\r\n            isAuthorized[addr] = true;\r\n        }\r\n    }\r\n\r\n    function addVoting(uint256 votingType, string memory name, uint value, address addr, bool decision) external{\r\n        require(!activeVoting, \"There is an active voting\");\r\n        require(votingType>0&&votingType<5, \"Incorrect voteing type\");\r\n        require(isEnoughTokensPooledToInitVoting(msg.sender), \"Too little tokens to init voting\");\r\n        votingID++;\r\n        votings[votingID] = Voting(0, votingType, name, value, addr, block.timestamp, decision);\r\n        activeVoting = true;\r\n        emit NewVoting(votingID, name);\r\n    }\r\n\r\n    function poolTokens() external returns (bool success){\r\n        uint256 amount = ruleToken.allowance(msg.sender, address(this));\r\n        require (amount>0, \"allow tokens first\");\r\n        require(ruleToken.transferFrom(msg.sender, address(this), amount), \"Could not pool tokens for some reason\");\r\n        pooled[msg.sender] += amount;\r\n        totalPooled += amount;\r\n        return true;\r\n    }\r\n\r\n    function returnTokens() external returns (bool) {\r\n        require(pooled[msg.sender] > 0, 'You must have pooled tokens');\r\n        if (activeVoting && votes[votingID][msg.sender]>0){\r\n            votings[votingID].totalPositive -= votes[votingID][msg.sender];\r\n        }\r\n        ruleToken.transfer(msg.sender, pooled[msg.sender]);\r\n        totalPooled -= pooled[msg.sender];\r\n        pooled[msg.sender] = 0;\r\n        return true;\r\n    }\r\n\r\n    function vote(bool _vote) external{\r\n        require(activeVoting, \"No active voting found\");\r\n        require(votings[votingID].startTime + params['votingDuration'] >= block.timestamp, \"Voting is already inactive\");\r\n        require(pooled[msg.sender]>0, \"You dont have pooled tokens to vote\");\r\n\r\n        if (_vote) {\r\n            uint256 _votesToAdd = pooled[msg.sender] - votes[votingID][msg.sender];\r\n            votes[votingID][msg.sender] = pooled[msg.sender];\r\n            votings[votingID].totalPositive += _votesToAdd;\r\n        }\r\n        else {\r\n            if (votes[votingID][msg.sender] > 0){\r\n                votings[votingID].totalPositive -= votes[votingID][msg.sender];\r\n                votes[votingID][msg.sender] = 0;\r\n            }\r\n        }\r\n    }\r\n\r\n    function claimToFinalizeCurrentVoting() external{\r\n        require (activeVoting, \"There is no active voting\");\r\n        if (votings[votingID].totalPositive >= ruleToken.totalSupply() * params['absoluteMajority'] / 100) {\r\n            finalizeCurrentVoting();\r\n            return;\r\n        }\r\n        else if (votings[votingID].startTime + params['votingDuration'] <= block.timestamp) {\r\n            if (totalPooled >= params['quorum'] * ruleToken.totalSupply() / 100 && votings[votingID].totalPositive > (totalPooled - votings[votingID].totalPositive)) {\r\n                finalizeCurrentVoting();\r\n                return;\r\n            }\r\n            activeVoting = false;\r\n            emit VotingFailed(votingID);\r\n            return;\r\n        }\r\n    }\r\n\r\n    function finalizeCurrentVoting() internal{\r\n        if (votings[votingID].votingType == 1)\r\n            params[votings[votingID].name] = votings[votingID].value;\r\n        if (votings[votingID].votingType == 2)\r\n            addresses[votings[votingID].name] = votings[votingID].addr;\r\n        if (votings[votingID].votingType == 3)\r\n            paused[votings[votingID].addr] = votings[votingID].decision;\r\n        if (votings[votingID].votingType == 4)\r\n            isAuthorized[votings[votingID].addr] = votings[votingID].decision;\r\n        activeVoting = false;\r\n        emit VotingSucceed(votingID);\r\n    }\r\n\r\n    function isEnoughTokensPooledToInitVoting(address initiator) internal view returns (bool enough){\r\n        return pooled[initiator]>=ruleToken.totalSupply()*params['minRuleTokensToInitVotingPercent']/100;\r\n    }\r\n}\r\n",
  "sourcePath": "C:\\Users\\d.nagornykh\\YandexDisk\\\\ICO\\CryptoFiat\\repo\\contracts\\INTDAO.sol",
  "compiler": {
    "name": "solc",
    "version": "0.8.18+commit.87f61d96.Emscripten.clang"
  },
  "schemaVersion": "3.4.14",
  "updatedAt": "2023-09-22T07:52:07.154Z",
  "devdoc": {
    "kind": "dev",
    "methods": {},
    "version": 1
  },
  "userdoc": {
    "kind": "user",
    "methods": {},
    "version": 1
  }
}