{
  "contractName": "INTDAO",
  "abi": [
    {
      "inputs": [
        {
          "internalType": "address",
          "name": "WETH",
          "type": "address"
        }
      ],
      "stateMutability": "nonpayable",
      "type": "constructor"
    },
    {
      "anonymous": false,
      "inputs": [
        {
          "indexed": false,
          "internalType": "uint256",
          "name": "id",
          "type": "uint256"
        },
        {
          "indexed": false,
          "internalType": "string",
          "name": "name",
          "type": "string"
        }
      ],
      "name": "NewVoting",
      "type": "event"
    },
    {
      "anonymous": false,
      "inputs": [
        {
          "indexed": false,
          "internalType": "uint256",
          "name": "id",
          "type": "uint256"
        }
      ],
      "name": "VotingFailed",
      "type": "event"
    },
    {
      "anonymous": false,
      "inputs": [
        {
          "indexed": false,
          "internalType": "uint256",
          "name": "id",
          "type": "uint256"
        }
      ],
      "name": "VotingSucceed",
      "type": "event"
    },
    {
      "inputs": [],
      "name": "activeVoting",
      "outputs": [
        {
          "internalType": "bool",
          "name": "",
          "type": "bool"
        }
      ],
      "stateMutability": "view",
      "type": "function",
      "constant": true
    },
    {
      "inputs": [
        {
          "internalType": "string",
          "name": "",
          "type": "string"
        }
      ],
      "name": "addresses",
      "outputs": [
        {
          "internalType": "address",
          "name": "",
          "type": "address"
        }
      ],
      "stateMutability": "view",
      "type": "function",
      "constant": true
    },
    {
      "inputs": [
        {
          "internalType": "address",
          "name": "",
          "type": "address"
        }
      ],
      "name": "isAuthorized",
      "outputs": [
        {
          "internalType": "bool",
          "name": "",
          "type": "bool"
        }
      ],
      "stateMutability": "view",
      "type": "function",
      "constant": true
    },
    {
      "inputs": [
        {
          "internalType": "string",
          "name": "",
          "type": "string"
        }
      ],
      "name": "params",
      "outputs": [
        {
          "internalType": "uint256",
          "name": "",
          "type": "uint256"
        }
      ],
      "stateMutability": "view",
      "type": "function",
      "constant": true
    },
    {
      "inputs": [
        {
          "internalType": "address",
          "name": "",
          "type": "address"
        }
      ],
      "name": "paused",
      "outputs": [
        {
          "internalType": "bool",
          "name": "",
          "type": "bool"
        }
      ],
      "stateMutability": "view",
      "type": "function",
      "constant": true
    },
    {
      "inputs": [
        {
          "internalType": "address",
          "name": "",
          "type": "address"
        }
      ],
      "name": "pooled",
      "outputs": [
        {
          "internalType": "uint256",
          "name": "",
          "type": "uint256"
        }
      ],
      "stateMutability": "view",
      "type": "function",
      "constant": true
    },
    {
      "inputs": [],
      "name": "totalPooled",
      "outputs": [
        {
          "internalType": "uint256",
          "name": "",
          "type": "uint256"
        }
      ],
      "stateMutability": "view",
      "type": "function",
      "constant": true
    },
    {
      "inputs": [],
      "name": "votingID",
      "outputs": [
        {
          "internalType": "uint256",
          "name": "",
          "type": "uint256"
        }
      ],
      "stateMutability": "view",
      "type": "function",
      "constant": true
    },
    {
      "inputs": [
        {
          "internalType": "uint256",
          "name": "",
          "type": "uint256"
        }
      ],
      "name": "votings",
      "outputs": [
        {
          "internalType": "uint256",
          "name": "totalPositive",
          "type": "uint256"
        },
        {
          "internalType": "uint256",
          "name": "votingType",
          "type": "uint256"
        },
        {
          "internalType": "string",
          "name": "name",
          "type": "string"
        },
        {
          "internalType": "uint256",
          "name": "value",
          "type": "uint256"
        },
        {
          "internalType": "address",
          "name": "addr",
          "type": "address"
        },
        {
          "internalType": "uint256",
          "name": "startTime",
          "type": "uint256"
        },
        {
          "internalType": "bool",
          "name": "decision",
          "type": "bool"
        }
      ],
      "stateMutability": "view",
      "type": "function",
      "constant": true
    },
    {
      "inputs": [],
      "name": "renewContracts",
      "outputs": [],
      "stateMutability": "nonpayable",
      "type": "function"
    },
    {
      "inputs": [
        {
          "internalType": "string",
          "name": "addressName",
          "type": "string"
        },
        {
          "internalType": "address",
          "name": "addr",
          "type": "address"
        }
      ],
      "name": "setAddressOnce",
      "outputs": [],
      "stateMutability": "nonpayable",
      "type": "function"
    },
    {
      "inputs": [
        {
          "internalType": "uint256",
          "name": "votingType",
          "type": "uint256"
        },
        {
          "internalType": "string",
          "name": "name",
          "type": "string"
        },
        {
          "internalType": "uint256",
          "name": "value",
          "type": "uint256"
        },
        {
          "internalType": "address",
          "name": "addr",
          "type": "address"
        },
        {
          "internalType": "bool",
          "name": "decision",
          "type": "bool"
        }
      ],
      "name": "addVoting",
      "outputs": [],
      "stateMutability": "nonpayable",
      "type": "function"
    },
    {
      "inputs": [],
      "name": "poolTokens",
      "outputs": [
        {
          "internalType": "bool",
          "name": "success",
          "type": "bool"
        }
      ],
      "stateMutability": "nonpayable",
      "type": "function"
    },
    {
      "inputs": [],
      "name": "returnTokens",
      "outputs": [
        {
          "internalType": "bool",
          "name": "",
          "type": "bool"
        }
      ],
      "stateMutability": "nonpayable",
      "type": "function"
    },
    {
      "inputs": [
        {
          "internalType": "bool",
          "name": "_vote",
          "type": "bool"
        }
      ],
      "name": "vote",
      "outputs": [],
      "stateMutability": "nonpayable",
      "type": "function"
    },
    {
      "inputs": [],
      "name": "claimToFinalizeCurrentVoting",
      "outputs": [],
      "stateMutability": "nonpayable",
      "type": "function"
    }
  ],
  "bytecode": "0x608060405234801561001057600080fd5b50604051611ddd380380611ddd83398101604081905261002f916104d9565b60016000819055604080516b696e7465726573745261746560a01b81526006600c8201819052825191829003602c018220600990556a6465706f7369745261746560a81b8252600b8201819052825191829003602b0182206008908190556d6c69717569646174696f6e46656560901b8352600e8301829052835192839003602e018320600d90557118dbdb1b185d195c985b111a5cd8dbdd5b9d60721b83526012830182905283519283900360329081018420601e90557f73746162696c697a6174696f6e46756e6450657263656e7400000000000000008452601884018390528451938490036038018420600590556571756f72756d60d01b84528383018390528451938490036026018420603c9055676d616a6f7269747960c01b84529083018290528351928390036028018320557f6d696e43445042616c616e6365546f496e69744275794f7574000000000000008252601982018190528251918290036039018220678ac7230489e8000090556f6162736f6c7574654d616a6f7269747960801b8252601082018190529151603091819003919091018120605090557f6d696e52756c65546f6b656e73546f496e6974566f74696e6750657263656e748152602001908152604080519182900360209081018320939093556d3b37ba34b733a23ab930ba34b7b760911b82526006600e8301819052815192839003602e01832062015180908190557f61756374696f6e5475726e4475726174696f6e00000000000000000000000000845260138085018390528351948590036033908101862061038490557f6d696e41756374696f6e50726963654d6f7665000000000000000000000000008652858201849052845195869003810186206005908190556c1b5a5b90dbdb1b195d195c985b609a1b8752600d8701859052855196879003602d018720601a90557f6d617267696e43616c6c54696d654c696d6974000000000000000000000000008752918601849052845195869003018520919091557f616e6e75616c496e666c6174696f6e50657263656e740000000000000000000084526016808501839052835194859003603690810186206001908190557f64656661756c744465706f736974506572696f6400000000000000000000000087526014870185905285519687900360340187206277f88090557f6d6178436f696e73466f7253746162696c697a6174696f6e000000000000000087526018870185905285519687900360380187206802b5e3af16b188000090557f6d617852756c65456d697373696f6e50657263656e740000000000000000000087529186018490529351948590039093018420929092557f68696768566f6c6174696c6974794576656e744261727269657250657263656e8352601d60fa1b93830193909352919060210190815260408051918290036020018220929092556d1b5a5b90dbda5b9cd51bd35a5b9d60921b81526006600e820152815190819003602e01812060019055630eecae8d60e31b8152600760048201819052825191829003602401822080546001600160a01b03959095166001600160a01b03199586161790556264616f60e81b8252600382015290519081900360230190208054309216919091179055610509565b6000602082840312156104eb57600080fd5b81516001600160a01b038116811461050257600080fd5b9392505050565b6118c5806105186000396000f3fe608060405234801561001057600080fd5b50600436106100d05760003560e01c8063145f822b146100d557806323d86a65146101135780632abdf04e1461015c5780632e48152c1461016f5780634b9f5c98146101a257806355b2636d146101b55780636d3e313e146101c25780636ec21cc8146101ca57806381b41e1c146101d3578063a598d03c146101db578063bdfe7d4714610201578063c85c98bf1461024d578063d32b0c1014610260578063f007cafd14610280578063f9718fc814610289578063fe9fbb8014610291575b600080fd5b6101006100e3366004611399565b805160208183018101805160068252928201919093012091525481565b6040519081526020015b60405180910390f35b61015a6040516372756c6560e01b815260079060040190815260405190819003602001902054600180546001600160a01b0319166001600160a01b03909216919091179055565b005b61015a61016a3660046113f1565b6102b4565b61019261017d36600461143e565b60086020526000908152604090205460ff1681565b604051901515815260200161010a565b61015a6101b036600461146e565b610435565b6005546101929060ff1681565b610192610690565b610100600b5481565b61015a610878565b6101ee6101e936600461148b565b610b37565b60405161010a97969594939291906114f4565b61023561020f366004611399565b80516020818301810180516007825292820191909301209152546001600160a01b031681565b6040516001600160a01b03909116815260200161010a565b61015a61025b366004611544565b610c08565b61010061026e36600461143e565b600a6020526000908152604090205481565b61010060045481565b610192610e2a565b61019261029f36600461143e565b60096020526000908152604090205460ff1681565b60006001600160a01b03166007836040516102cf91906115b9565b908152604051908190036020019020546001600160a01b0316146103345760405162461bcd60e51b81526020600482015260176024820152761859191c995cdcc81dd85cc8185b1c9958591e481cd95d604a1b60448201526064015b60405180910390fd5b8060078360405161034591906115b9565b908152604080516020928190038301812080546001600160a01b0319166001600160a01b039590951694909417909355845185830120838201909152600783526619195c1bdcda5d60ca1b91909201527f48c73f681176fc7b3f9693986fd7b14581e8d540519e27400e88b8713932be01811480610407575060408051808201909152600d81526c1a5b999b185d1a5bdb919d5b99609a1b6020909101527fc3130c337963e8d8d4fb87f05097abe7f4fee74240eab050973e2161d8b4fb4881145b15610430576001600160a01b0382166000908152600960205260409020805460ff191660011790555b505050565b61043d610fc9565b60055460ff166104885760405162461bcd60e51b8152602060048201526016602482015275139bc81858dd1a5d99481d9bdd1a5b99c8199bdd5b9960521b604482015260640161032b565b426006604051610497906115d5565b908152602001604051809103902054600360006004548152602001908152602001600020600501546104c99190611605565b10156105145760405162461bcd60e51b815260206004820152601a602482015279566f74696e6720697320616c726561647920696e61637469766560301b604482015260640161032b565b336000908152600a602052604090205461057c5760405162461bcd60e51b815260206004820152602360248201527f596f7520646f6e74206861766520706f6f6c656420746f6b656e7320746f20766044820152626f746560e81b606482015260840161032b565b8015610607576004546000908152600260209081526040808320338452825280832054600a9092528220546105b1919061161e565b336000818152600a602090815260408083205460048054855260028452828520958552948352818420559254825260039052908120805492935083929091906105fb908490611605565b90915550610683915050565b60045460009081526002602090815260408083203384529091529020541561068357600454600081815260026020908152604080832033845282528083205493835260039091528120805490919061066090849061161e565b909155505060045460009081526002602090815260408083203384529091528120555b61068d6001600055565b50565b600061069a610fc9565b600154604051636eb1769f60e11b81523360048201523060248201526000916001600160a01b03169063dd62ed3e90604401602060405180830381865afa1580156106e9573d6000803e3d6000fd5b505050506040513d601f19601f8201168201806040525081019061070d9190611631565b9050600081116107545760405162461bcd60e51b8152602060048201526012602482015271185b1b1bddc81d1bdad95b9cc8199a5c9cdd60721b604482015260640161032b565b6001546040516323b872dd60e01b8152336004820152306024820152604481018390526001600160a01b03909116906323b872dd906064016020604051808303816000875af11580156107ab573d6000803e3d6000fd5b505050506040513d601f19601f820116820180604052508101906107cf919061164a565b6108295760405162461bcd60e51b815260206004820152602560248201527f436f756c64206e6f7420706f6f6c20746f6b656e7320666f7220736f6d65207260448201526432b0b9b7b760d91b606482015260840161032b565b336000908152600a602052604081208054839290610848908490611605565b9250508190555080600b60008282546108619190611605565b909155506001925050506108756001600055565b90565b610880610fc9565b60055460ff166108ce5760405162461bcd60e51b81526020600482015260196024820152785468657265206973206e6f2061637469766520766f74696e6760381b604482015260640161032b565b606460066040516108f5906f6162736f6c7574654d616a6f7269747960801b815260100190565b908152602001604051809103902054600160009054906101000a90046001600160a01b03166001600160a01b03166318160ddd6040518163ffffffff1660e01b8152600401602060405180830381865afa158015610957573d6000803e3d6000fd5b505050506040513d601f19601f8201168201806040525081019061097b9190611631565b6109859190611667565b61098f919061167e565b600454600090815260036020526040902054106109b3576109ae611022565b610b2b565b4260066040516109c2906115d5565b908152602001604051809103902054600360006004548152602001908152602001600020600501546109f49190611605565b11610b2b57600154604080516318160ddd60e01b815290516064926001600160a01b0316916318160ddd9160048083019260209291908290030181865afa158015610a43573d6000803e3d6000fd5b505050506040513d601f19601f82011682018060405250810190610a679190611631565b6040516571756f72756d60d01b81526006908101908152602001604051809103902054610a949190611667565b610a9e919061167e565b600b5410158015610add5750600454600090815260036020526040902054600b54610ac9919061161e565b600454600090815260036020526040902054115b15610aea576109ae611022565b6005805460ff191690556004546040519081527f57834a5970ce5c2cc4aa67b63acab911850a2c8154142f285308a321a2e7b51a9060200160405180910390a15b610b356001600055565b565b60036020526000908152604090208054600182015460028301805492939192610b5f906116a0565b80601f0160208091040260200160405190810160405280929190818152602001828054610b8b906116a0565b8015610bd85780601f10610bad57610100808354040283529160200191610bd8565b820191906000526020600020905b815481529060010190602001808311610bbb57829003601f168201915b50505050600383015460048401546005850154600690950154939491936001600160a01b03909116925060ff1687565b60055460ff1615610c575760405162461bcd60e51b8152602060048201526019602482015278546865726520697320616e2061637469766520766f74696e6760381b604482015260640161032b565b600085118015610c675750600585105b610cac5760405162461bcd60e51b8152602060048201526016602482015275496e636f727265637420766f7465696e67207479706560501b604482015260640161032b565b610cb533611203565b610d015760405162461bcd60e51b815260206004820181905260248201527f546f6f206c6974746c6520746f6b656e7320746f20696e697420766f74696e67604482015260640161032b565b60048054906000610d11836116da565b90915550506040805160e08101825260008082526020808301898152838501898152606085018990526001600160a01b03881660808601524260a086015286151560c086015260045484526003909252939091208251815592516001840155519091906002820190610d839082611741565b50606082015160038201556080820151600480830180546001600160a01b039093166001600160a01b03199093169290921790915560a083015160058084019190915560c0909301516006909201805492151560ff199384161790558254909116600117909155546040517f075da53496b68eb2230c8f9ea0bba204eecbbd21aee4989c20fc3df419b71f7b91610e1b918790611800565b60405180910390a15050505050565b6000610e34610fc9565b336000908152600a6020526040902054610e8e5760405162461bcd60e51b815260206004820152601b60248201527a596f75206d757374206861766520706f6f6c656420746f6b656e7360281b604482015260640161032b565b60055460ff168015610ebb5750600454600090815260026020908152604080832033845290915290205415155b15610efd576004546000818152600260209081526040808320338452825280832054938352600390915281208054909190610ef790849061161e565b90915550505b600154336000818152600a60205260409081902054905163a9059cbb60e01b8152600481019290925260248201526001600160a01b039091169063a9059cbb906044016020604051808303816000875af1158015610f5f573d6000803e3d6000fd5b505050506040513d601f19601f82011682018060405250810190610f83919061164a565b50336000908152600a6020526040812054600b805491929091610fa790849061161e565b9091555050336000908152600a60205260408120555060016108756001600055565b60026000540361101b5760405162461bcd60e51b815260206004820152601f60248201527f5265656e7472616e637947756172643a207265656e7472616e742063616c6c00604482015260640161032b565b6002600055565b6004546000908152600360205260409020600190810154900361107d5760045460009081526003602081905260409182902090810154915160069161106c91600290910190611819565b908152604051908190036020019020555b6004546000908152600360205260409020600101546002036110ff5760048054600090815260036020526040908190209182015490516001600160a01b03909116916007916110cf9160020190611819565b90815260405190819003602001902080546001600160a01b03929092166001600160a01b03199092169190911790555b600360006004548152602001908152602001600020600101546003036111625760048054600090815260036020908152604080832060068101549401546001600160a01b0316835260089091529020805460ff191660ff90921615159190911790555b6004805460009081526003602052604090206001015490036111c15760048054600090815260036020908152604080832060068101549401546001600160a01b0316835260099091529020805460ff191660ff90921615159190911790555b6005805460ff191690556004546040519081527f8758853873295e83b84920827f3c083da36d58db370b7ae1fab04646e4314a129060200160405180910390a1565b600060646006604051611239907f6d696e52756c65546f6b656e73546f496e6974566f74696e6750657263656e74815260200190565b908152602001604051809103902054600160009054906101000a90046001600160a01b03166001600160a01b03166318160ddd6040518163ffffffff1660e01b8152600401602060405180830381865afa15801561129b573d6000803e3d6000fd5b505050506040513d601f19601f820116820180604052508101906112bf9190611631565b6112c99190611667565b6112d3919061167e565b6001600160a01b039092166000908152600a60205260409020549190911015919050565b634e487b7160e01b600052604160045260246000fd5b600082601f83011261131e57600080fd5b81356001600160401b0380821115611338576113386112f7565b604051601f8301601f19908116603f01168101908282118183101715611360576113606112f7565b8160405283815286602085880101111561137957600080fd5b836020870160208301376000602085830101528094505050505092915050565b6000602082840312156113ab57600080fd5b81356001600160401b038111156113c157600080fd5b6113cd8482850161130d565b949350505050565b80356001600160a01b03811681146113ec57600080fd5b919050565b6000806040838503121561140457600080fd5b82356001600160401b0381111561141a57600080fd5b6114268582860161130d565b925050611435602084016113d5565b90509250929050565b60006020828403121561145057600080fd5b611459826113d5565b9392505050565b801515811461068d57600080fd5b60006020828403121561148057600080fd5b813561145981611460565b60006020828403121561149d57600080fd5b5035919050565b60005b838110156114bf5781810151838201526020016114a7565b50506000910152565b600081518084526114e08160208601602086016114a4565b601f01601f19169290920160200192915050565b87815286602082015260e06040820152600061151360e08301886114c8565b6060830196909652506001600160a01b0393909316608084015260a0830191909152151560c0909101529392505050565b600080600080600060a0868803121561155c57600080fd5b8535945060208601356001600160401b0381111561157957600080fd5b6115858882890161130d565b9450506040860135925061159b606087016113d5565b915060808601356115ab81611460565b809150509295509295909350565b600082516115cb8184602087016114a4565b9190910192915050565b6d3b37ba34b733a23ab930ba34b7b760911b8152600e0190565b634e487b7160e01b600052601160045260246000fd5b80820180821115611618576116186115ef565b92915050565b81810381811115611618576116186115ef565b60006020828403121561164357600080fd5b5051919050565b60006020828403121561165c57600080fd5b815161145981611460565b8082028115828204841417611618576116186115ef565b60008261169b57634e487b7160e01b600052601260045260246000fd5b500490565b600181811c908216806116b457607f821691505b6020821081036116d457634e487b7160e01b600052602260045260246000fd5b50919050565b6000600182016116ec576116ec6115ef565b5060010190565b601f82111561043057600081815260208120601f850160051c8101602086101561171a5750805b601f850160051c820191505b8181101561173957828155600101611726565b505050505050565b81516001600160401b0381111561175a5761175a6112f7565b61176e8161176884546116a0565b846116f3565b602080601f8311600181146117a3576000841561178b5750858301515b600019600386901b1c1916600185901b178555611739565b600085815260208120601f198616915b828110156117d2578886015182559484019460019091019084016117b3565b50858210156117f05787850151600019600388901b60f8161c191681555b5050505050600190811b01905550565b8281526040602082015260006113cd60408301846114c8565b6000808354611827816116a0565b6001828116801561183f576001811461185457611883565b60ff1984168752821515830287019450611883565b8760005260208060002060005b8581101561187a5781548a820152908401908201611861565b50505082870194505b5092969550505050505056fea2646970667358221220eef60c3ae5bb657378c882eabadc110bfe1dc5323a6a660c5c856b894e4fadcf64736f6c63430008120033",
  "immutableReferences": {},
  "source": "// SPDX-License-Identifier: UNLICENSED\r\npragma solidity 0.8.18;\r\nimport \"@openzeppelin/contracts/token/ERC20/IERC20.sol\";\r\nimport \"@openzeppelin/contracts/security/ReentrancyGuard.sol\";\r\n\r\ncontract INTDAO is ReentrancyGuard{\r\n    IERC20 ruleToken;\r\n    mapping (uint256 => mapping(address => uint256)) votes;\r\n\r\n    mapping (uint256=>Voting) public votings;\r\n    uint256 public votingID;\r\n\r\n    struct Voting {\r\n        uint256 totalPositive;\r\n        uint256 votingType;\r\n        string name;\r\n        uint256 value;\r\n        address addr;\r\n        uint256 startTime;\r\n        bool decision;\r\n    }\r\n\r\n    bool public activeVoting;\r\n\r\n    mapping (string => uint256) public params;\r\n    mapping (string => address) public addresses;\r\n    mapping (address => bool) public paused;\r\n    mapping (address => bool) public isAuthorized;\r\n\r\n    mapping (address => uint256) public pooled;\r\n    uint256 public totalPooled;\r\n\r\n    event NewVoting (uint256 id, string name);\r\n    event VotingSucceed (uint256 id);\r\n    event VotingFailed (uint256 id);\r\n\r\n    constructor (address WETH) {\r\n        params[\"interestRate\"] = 9;\r\n        params[\"depositRate\"]=8;\r\n        params[\"liquidationFee\"] = 13;\r\n        params[\"collateralDiscount\"] = 30;\r\n        params[\"stabilizationFundPercent\"] = 5;\r\n        params[\"quorum\"] = 60;\r\n        params[\"majority\"] = 50;\r\n        params[\"minCDPBalanceToInitBuyOut\"] = 10**19;\r\n        params[\"absoluteMajority\"] = 80;\r\n        params[\"minRuleTokensToInitVotingPercent\"] = 1;\r\n        params[\"votingDuration\"] = 1 days;\r\n        params[\"auctionTurnDuration\"] = 15 minutes;\r\n        params[\"minAuctionPriceMove\"] = 5;\r\n        params[\"minColleteral\"] = 1*10^16; // minColleteral is 0.01 ETH\r\n        params[\"marginCallTimeLimit\"] = 1 days;\r\n        params[\"annualInflationPercent\"] = 1;\r\n        params[\"defaultDepositPeriod\"] = 91 days;\r\n        params[\"maxCoinsForStabilization\"] = 50*10**18;\r\n        params[\"maxRuleEmissionPercent\"] = 1;\r\n        params[\"highVolatilityEventBarrierPercent\"] = 5;\r\n        params[\"minCoinsToMint\"] = 1;\r\n\r\n        addresses[\"weth\"] = WETH;\r\n        addresses[\"dao\"] = address(this);\r\n    }\r\n\r\n    function renewContracts() public {\r\n        ruleToken = IERC20(addresses[\"rule\"]);\r\n    }\r\n\r\n    function setAddressOnce(string memory addressName, address addr) external {\r\n        require (addresses[addressName] == address(0), \"address was already set\");\r\n        addresses[addressName] = addr;\r\n        //a certain pool of names, check not to expand addresses\r\n        bytes32 hash = keccak256(bytes(addressName));\r\n        if (hash == keccak256(bytes(\"deposit\")) ||\r\n            hash == keccak256(bytes(\"inflationFund\"))) {\r\n            isAuthorized[addr] = true;\r\n        }\r\n    }\r\n\r\n    function addVoting(uint256 votingType, string memory name, uint value, address addr, bool decision) external{\r\n        require(!activeVoting, \"There is an active voting\");\r\n        require(votingType>0&&votingType<5, \"Incorrect voteing type\");\r\n        require(isEnoughTokensPooledToInitVoting(msg.sender), \"Too little tokens to init voting\");\r\n        votingID++;\r\n        votings[votingID] = Voting(0, votingType, name, value, addr, block.timestamp, decision);\r\n        activeVoting = true;\r\n        emit NewVoting(votingID, name);\r\n    }\r\n\r\n    function poolTokens() nonReentrant external returns (bool success) {\r\n        uint256 amount = ruleToken.allowance(msg.sender, address(this));\r\n        require (amount>0, \"allow tokens first\");\r\n        require(ruleToken.transferFrom(msg.sender, address(this), amount), \"Could not pool tokens for some reason\");\r\n        pooled[msg.sender] += amount;\r\n        totalPooled += amount;\r\n        return true;\r\n    }\r\n\r\n    function returnTokens() nonReentrant external returns (bool) {\r\n        require(pooled[msg.sender] > 0, \"You must have pooled tokens\");\r\n        if (activeVoting && votes[votingID][msg.sender]>0){\r\n            votings[votingID].totalPositive -= votes[votingID][msg.sender];\r\n        }\r\n        ruleToken.transfer(msg.sender, pooled[msg.sender]);\r\n        totalPooled -= pooled[msg.sender];\r\n        pooled[msg.sender] = 0;\r\n        return true;\r\n    }\r\n\r\n    function vote(bool _vote) nonReentrant external{\r\n        require(activeVoting, \"No active voting found\");\r\n        require(votings[votingID].startTime + params[\"votingDuration\"] >= block.timestamp, \"Voting is already inactive\");\r\n        require(pooled[msg.sender]>0, \"You dont have pooled tokens to vote\");\r\n\r\n        if (_vote) {\r\n            uint256 _votesToAdd = pooled[msg.sender] - votes[votingID][msg.sender];\r\n            votes[votingID][msg.sender] = pooled[msg.sender];\r\n            votings[votingID].totalPositive += _votesToAdd;\r\n        }\r\n        else {\r\n            if (votes[votingID][msg.sender] > 0){\r\n                votings[votingID].totalPositive -= votes[votingID][msg.sender];\r\n                votes[votingID][msg.sender] = 0;\r\n            }\r\n        }\r\n    }\r\n\r\n    function claimToFinalizeCurrentVoting() nonReentrant external{\r\n        require (activeVoting, \"There is no active voting\");\r\n        if (votings[votingID].totalPositive >= ruleToken.totalSupply() * params[\"absoluteMajority\"] / 100) {\r\n            finalizeCurrentVoting();\r\n            return;\r\n        }\r\n        else if (votings[votingID].startTime + params[\"votingDuration\"] <= block.timestamp) {\r\n            if (totalPooled >= params[\"quorum\"] * ruleToken.totalSupply() / 100 && votings[votingID].totalPositive > (totalPooled - votings[votingID].totalPositive)) {\r\n                finalizeCurrentVoting();\r\n                return;\r\n            }\r\n            activeVoting = false;\r\n            emit VotingFailed(votingID);\r\n            return;\r\n        }\r\n    }\r\n\r\n    function finalizeCurrentVoting() internal{\r\n        if (votings[votingID].votingType == 1)\r\n            params[votings[votingID].name] = votings[votingID].value;\r\n        if (votings[votingID].votingType == 2)\r\n            addresses[votings[votingID].name] = votings[votingID].addr;\r\n        if (votings[votingID].votingType == 3)\r\n            paused[votings[votingID].addr] = votings[votingID].decision;\r\n        if (votings[votingID].votingType == 4)\r\n            isAuthorized[votings[votingID].addr] = votings[votingID].decision;\r\n        activeVoting = false;\r\n        emit VotingSucceed(votingID);\r\n    }\r\n\r\n    function isEnoughTokensPooledToInitVoting(address initiator) internal view returns (bool enough){\r\n        return pooled[initiator]>=ruleToken.totalSupply()*params[\"minRuleTokensToInitVotingPercent\"]/100;\r\n    }\r\n}\r\n",
  "sourcePath": "C:\\Users\\d.nagornykh\\YandexDisk\\\\ICO\\CryptoFiat\\repo\\contracts\\INTDAO.sol",
  "compiler": {
    "name": "solc",
    "version": "0.8.18+commit.87f61d96.Emscripten.clang"
  },
  "schemaVersion": "3.4.14",
  "updatedAt": "2023-09-25T07:49:49.446Z",
  "networkType": "ethereum",
  "devdoc": {
    "kind": "dev",
    "methods": {},
    "version": 1
  },
  "userdoc": {
    "kind": "user",
    "methods": {},
    "version": 1
  }
}