{
  "contractName": "INTDAO",
  "abi": [
    {
      "inputs": [
        {
          "internalType": "address",
          "name": "WETH",
          "type": "address"
        }
      ],
      "stateMutability": "nonpayable",
      "type": "constructor"
    },
    {
      "anonymous": false,
      "inputs": [
        {
          "indexed": false,
          "internalType": "uint256",
          "name": "id",
          "type": "uint256"
        },
        {
          "indexed": false,
          "internalType": "string",
          "name": "name",
          "type": "string"
        }
      ],
      "name": "NewVoting",
      "type": "event"
    },
    {
      "anonymous": false,
      "inputs": [
        {
          "indexed": false,
          "internalType": "uint256",
          "name": "id",
          "type": "uint256"
        }
      ],
      "name": "VotingFailed",
      "type": "event"
    },
    {
      "anonymous": false,
      "inputs": [
        {
          "indexed": false,
          "internalType": "uint256",
          "name": "id",
          "type": "uint256"
        }
      ],
      "name": "VotingSucceed",
      "type": "event"
    },
    {
      "inputs": [],
      "name": "activeVoting",
      "outputs": [
        {
          "internalType": "bool",
          "name": "",
          "type": "bool"
        }
      ],
      "stateMutability": "view",
      "type": "function",
      "constant": true
    },
    {
      "inputs": [
        {
          "internalType": "string",
          "name": "",
          "type": "string"
        }
      ],
      "name": "addresses",
      "outputs": [
        {
          "internalType": "address payable",
          "name": "",
          "type": "address"
        }
      ],
      "stateMutability": "view",
      "type": "function",
      "constant": true
    },
    {
      "inputs": [
        {
          "internalType": "address",
          "name": "",
          "type": "address"
        }
      ],
      "name": "authorized",
      "outputs": [
        {
          "internalType": "bool",
          "name": "",
          "type": "bool"
        }
      ],
      "stateMutability": "view",
      "type": "function",
      "constant": true
    },
    {
      "inputs": [
        {
          "internalType": "string",
          "name": "",
          "type": "string"
        }
      ],
      "name": "params",
      "outputs": [
        {
          "internalType": "uint256",
          "name": "",
          "type": "uint256"
        }
      ],
      "stateMutability": "view",
      "type": "function",
      "constant": true
    },
    {
      "inputs": [
        {
          "internalType": "address",
          "name": "",
          "type": "address"
        }
      ],
      "name": "paused",
      "outputs": [
        {
          "internalType": "bool",
          "name": "",
          "type": "bool"
        }
      ],
      "stateMutability": "view",
      "type": "function",
      "constant": true
    },
    {
      "inputs": [
        {
          "internalType": "address",
          "name": "",
          "type": "address"
        }
      ],
      "name": "pooled",
      "outputs": [
        {
          "internalType": "uint256",
          "name": "",
          "type": "uint256"
        }
      ],
      "stateMutability": "view",
      "type": "function",
      "constant": true
    },
    {
      "inputs": [],
      "name": "totalPooled",
      "outputs": [
        {
          "internalType": "uint256",
          "name": "",
          "type": "uint256"
        }
      ],
      "stateMutability": "view",
      "type": "function",
      "constant": true
    },
    {
      "inputs": [],
      "name": "votingID",
      "outputs": [
        {
          "internalType": "uint256",
          "name": "",
          "type": "uint256"
        }
      ],
      "stateMutability": "view",
      "type": "function",
      "constant": true
    },
    {
      "inputs": [
        {
          "internalType": "uint256",
          "name": "",
          "type": "uint256"
        }
      ],
      "name": "votings",
      "outputs": [
        {
          "internalType": "uint256",
          "name": "totalPositive",
          "type": "uint256"
        },
        {
          "internalType": "uint256",
          "name": "voteingType",
          "type": "uint256"
        },
        {
          "internalType": "string",
          "name": "name",
          "type": "string"
        },
        {
          "internalType": "uint256",
          "name": "value",
          "type": "uint256"
        },
        {
          "internalType": "address payable",
          "name": "addr",
          "type": "address"
        },
        {
          "internalType": "uint256",
          "name": "startTime",
          "type": "uint256"
        },
        {
          "internalType": "bool",
          "name": "decision",
          "type": "bool"
        }
      ],
      "stateMutability": "view",
      "type": "function",
      "constant": true
    },
    {
      "stateMutability": "payable",
      "type": "receive",
      "payable": true
    },
    {
      "inputs": [
        {
          "internalType": "string",
          "name": "addressName",
          "type": "string"
        },
        {
          "internalType": "address payable",
          "name": "addr",
          "type": "address"
        }
      ],
      "name": "setAddressOnce",
      "outputs": [],
      "stateMutability": "nonpayable",
      "type": "function"
    },
    {
      "inputs": [
        {
          "internalType": "uint256",
          "name": "votingType",
          "type": "uint256"
        },
        {
          "internalType": "string",
          "name": "name",
          "type": "string"
        },
        {
          "internalType": "uint256",
          "name": "value",
          "type": "uint256"
        },
        {
          "internalType": "address payable",
          "name": "addr",
          "type": "address"
        },
        {
          "internalType": "bool",
          "name": "_decision",
          "type": "bool"
        }
      ],
      "name": "addVoting",
      "outputs": [],
      "stateMutability": "nonpayable",
      "type": "function"
    },
    {
      "inputs": [],
      "name": "renewContracts",
      "outputs": [],
      "stateMutability": "nonpayable",
      "type": "function"
    },
    {
      "inputs": [],
      "name": "poolTokens",
      "outputs": [
        {
          "internalType": "bool",
          "name": "success",
          "type": "bool"
        }
      ],
      "stateMutability": "nonpayable",
      "type": "function"
    },
    {
      "inputs": [],
      "name": "returnTokens",
      "outputs": [
        {
          "internalType": "bool",
          "name": "",
          "type": "bool"
        }
      ],
      "stateMutability": "nonpayable",
      "type": "function"
    },
    {
      "inputs": [
        {
          "internalType": "uint256",
          "name": "votingId",
          "type": "uint256"
        },
        {
          "internalType": "bool",
          "name": "_vote",
          "type": "bool"
        }
      ],
      "name": "vote",
      "outputs": [],
      "stateMutability": "nonpayable",
      "type": "function"
    },
    {
      "inputs": [
        {
          "internalType": "uint256",
          "name": "votingId",
          "type": "uint256"
        }
      ],
      "name": "claimToFinalizeVoting",
      "outputs": [],
      "stateMutability": "nonpayable",
      "type": "function"
    }
  ],
  "bytecode": "0x60806040523480156200001157600080fd5b50604051620041ff380380620041ff833981810160405281019062000037919062000758565b600960056040516200004990620007e5565b908152602001604051809103902081905550600860056040516200006d906200084c565b908152602001604051809103902081905550600d60056040516200009190620008b3565b908152602001604051809103902081905550601e6005604051620000b5906200091a565b908152602001604051809103902081905550600580604051620000d89062000981565b908152602001604051809103902081905550603c6005604051620000fc90620009e8565b90815260200160405180910390208190555060326005604051620001209062000a4f565b908152602001604051809103902081905550678ac7230489e8000060056040516200014b9062000ab6565b908152602001604051809103902081905550605060056040516200016f9062000b1d565b90815260200160405180910390208190555060016005604051620001939062000b84565b908152602001604051809103902081905550620151806005604051620001b99062000beb565b908152602001604051809103902081905550603c6005604051620001dd9062000c52565b908152602001604051809103902081905550600580604051620002009062000cb9565b908152602001604051809103902081905550600d6005604051620002249062000d20565b908152602001604051809103902081905550601a6005604051620002489062000d87565b9081526020016040518091039020819055506201518060056040516200026e9062000dee565b90815260200160405180910390208190555060016005604051620002929062000e55565b9081526020016040518091039020819055506277f8806005604051620002b89062000ebc565b9081526020016040518091039020819055506802b5e3af16b18800006005604051620002e49062000f23565b90815260200160405180910390208190555060016005604051620003089062000f8a565b9081526020016040518091039020819055506005806040516200032b9062001017565b9081526020016040518091039020819055508060066040516200034e906200107e565b908152602001604051809103902060006101000a81548173ffffffffffffffffffffffffffffffffffffffff021916908373ffffffffffffffffffffffffffffffffffffffff16021790555060006006604051620003ac90620010e5565b908152602001604051809103902060006101000a81548173ffffffffffffffffffffffffffffffffffffffff021916908373ffffffffffffffffffffffffffffffffffffffff160217905550600060066040516200040a906200114c565b908152602001604051809103902060006101000a81548173ffffffffffffffffffffffffffffffffffffffff021916908373ffffffffffffffffffffffffffffffffffffffff160217905550600060066040516200046890620011b3565b908152602001604051809103902060006101000a81548173ffffffffffffffffffffffffffffffffffffffff021916908373ffffffffffffffffffffffffffffffffffffffff160217905550306006604051620004c5906200121a565b908152602001604051809103902060006101000a81548173ffffffffffffffffffffffffffffffffffffffff021916908373ffffffffffffffffffffffffffffffffffffffff16021790555060006006604051620005239062001281565b908152602001604051809103902060006101000a81548173ffffffffffffffffffffffffffffffffffffffff021916908373ffffffffffffffffffffffffffffffffffffffff160217905550600060066040516200058190620012e8565b908152602001604051809103902060006101000a81548173ffffffffffffffffffffffffffffffffffffffff021916908373ffffffffffffffffffffffffffffffffffffffff16021790555060006006604051620005df906200134f565b908152602001604051809103902060006101000a81548173ffffffffffffffffffffffffffffffffffffffff021916908373ffffffffffffffffffffffffffffffffffffffff160217905550600060066040516200063d90620013b6565b908152602001604051809103902060006101000a81548173ffffffffffffffffffffffffffffffffffffffff021916908373ffffffffffffffffffffffffffffffffffffffff160217905550600060066040516200069b906200141d565b908152602001604051809103902060006101000a81548173ffffffffffffffffffffffffffffffffffffffff021916908373ffffffffffffffffffffffffffffffffffffffff1602179055505062001434565b600080fd5b600073ffffffffffffffffffffffffffffffffffffffff82169050919050565b60006200072082620006f3565b9050919050565b620007328162000713565b81146200073e57600080fd5b50565b600081519050620007528162000727565b92915050565b600060208284031215620007715762000770620006ee565b5b6000620007818482850162000741565b91505092915050565b600081905092915050565b7f696e746572657374526174650000000000000000000000000000000000000000600082015250565b6000620007cd600c836200078a565b9150620007da8262000795565b600c82019050919050565b6000620007f282620007be565b9150819050919050565b7f6465706f73697452617465000000000000000000000000000000000000000000600082015250565b600062000834600b836200078a565b91506200084182620007fc565b600b82019050919050565b6000620008598262000825565b9150819050919050565b7f6c69717569646174696f6e466565000000000000000000000000000000000000600082015250565b60006200089b600e836200078a565b9150620008a88262000863565b600e82019050919050565b6000620008c0826200088c565b9150819050919050565b7f636f6c6c61746572616c446973636f756e740000000000000000000000000000600082015250565b6000620009026012836200078a565b91506200090f82620008ca565b601282019050919050565b60006200092782620008f3565b9150819050919050565b7f73746162696c697a6174696f6e46756e6450657263656e740000000000000000600082015250565b6000620009696018836200078a565b9150620009768262000931565b601882019050919050565b60006200098e826200095a565b9150819050919050565b7f71756f72756d0000000000000000000000000000000000000000000000000000600082015250565b6000620009d06006836200078a565b9150620009dd8262000998565b600682019050919050565b6000620009f582620009c1565b9150819050919050565b7f6d616a6f72697479000000000000000000000000000000000000000000000000600082015250565b600062000a376008836200078a565b915062000a4482620009ff565b600882019050919050565b600062000a5c8262000a28565b9150819050919050565b7f6d696e43445042616c616e6365546f496e69744275794f757400000000000000600082015250565b600062000a9e6019836200078a565b915062000aab8262000a66565b601982019050919050565b600062000ac38262000a8f565b9150819050919050565b7f6162736f6c7574654d616a6f7269747900000000000000000000000000000000600082015250565b600062000b056010836200078a565b915062000b128262000acd565b601082019050919050565b600062000b2a8262000af6565b9150819050919050565b7f6d696e52756c65546f6b656e73546f496e6974566f74696e6750657263656e74600082015250565b600062000b6c6020836200078a565b915062000b798262000b34565b602082019050919050565b600062000b918262000b5d565b9150819050919050565b7f766f74696e674475726174696f6e000000000000000000000000000000000000600082015250565b600062000bd3600e836200078a565b915062000be08262000b9b565b600e82019050919050565b600062000bf88262000bc4565b9150819050919050565b7f61756374696f6e5475726e4475726174696f6e00000000000000000000000000600082015250565b600062000c3a6013836200078a565b915062000c478262000c02565b601382019050919050565b600062000c5f8262000c2b565b9150819050919050565b7f6d696e41756374696f6e50726963654d6f766500000000000000000000000000600082015250565b600062000ca16013836200078a565b915062000cae8262000c69565b601382019050919050565b600062000cc68262000c92565b9150819050919050565b7f6d617267696e43616c6c46656500000000000000000000000000000000000000600082015250565b600062000d08600d836200078a565b915062000d158262000cd0565b600d82019050919050565b600062000d2d8262000cf9565b9150819050919050565b7f6d696e436f6c6c65746572616c00000000000000000000000000000000000000600082015250565b600062000d6f600d836200078a565b915062000d7c8262000d37565b600d82019050919050565b600062000d948262000d60565b9150819050919050565b7f6d617267696e43616c6c54696d654c696d697400000000000000000000000000600082015250565b600062000dd66013836200078a565b915062000de38262000d9e565b601382019050919050565b600062000dfb8262000dc7565b9150819050919050565b7f616e6e75616c496e666c6174696f6e50657263656e7400000000000000000000600082015250565b600062000e3d6016836200078a565b915062000e4a8262000e05565b601682019050919050565b600062000e628262000e2e565b9150819050919050565b7f64656661756c744465706f736974506572696f64000000000000000000000000600082015250565b600062000ea46014836200078a565b915062000eb18262000e6c565b601482019050919050565b600062000ec98262000e95565b9150819050919050565b7f6d6178436f696e73466f7253746162696c697a6174696f6e0000000000000000600082015250565b600062000f0b6018836200078a565b915062000f188262000ed3565b601882019050919050565b600062000f308262000efc565b9150819050919050565b7f6d617852756c65456d697373696f6e50657263656e7400000000000000000000600082015250565b600062000f726016836200078a565b915062000f7f8262000f3a565b601682019050919050565b600062000f978262000f63565b9150819050919050565b7f68696768566f6c6174696c6974794576656e744261727269657250657263656e60008201527f7400000000000000000000000000000000000000000000000000000000000000602082015250565b600062000fff6021836200078a565b91506200100c8262000fa1565b602182019050919050565b6000620010248262000ff0565b9150819050919050565b7f7765746800000000000000000000000000000000000000000000000000000000600082015250565b6000620010666004836200078a565b915062001073826200102e565b600482019050919050565b60006200108b8262001057565b9150819050919050565b7f6364700000000000000000000000000000000000000000000000000000000000600082015250565b6000620010cd6003836200078a565b9150620010da8262001095565b600382019050919050565b6000620010f282620010be565b9150819050919050565b7f61756374696f6e00000000000000000000000000000000000000000000000000600082015250565b6000620011346007836200078a565b91506200114182620010fc565b600782019050919050565b6000620011598262001125565b9150819050919050565b7f737461626c65436f696e00000000000000000000000000000000000000000000600082015250565b60006200119b600a836200078a565b9150620011a88262001163565b600a82019050919050565b6000620011c0826200118c565b9150819050919050565b7f64616f0000000000000000000000000000000000000000000000000000000000600082015250565b6000620012026003836200078a565b91506200120f82620011ca565b600382019050919050565b60006200122782620011f3565b9150819050919050565b7f6f7261636c650000000000000000000000000000000000000000000000000000600082015250565b6000620012696006836200078a565b9150620012768262001231565b600682019050919050565b60006200128e826200125a565b9150819050919050565b7f72756c6500000000000000000000000000000000000000000000000000000000600082015250565b6000620012d06004836200078a565b9150620012dd8262001298565b600482019050919050565b6000620012f582620012c1565b9150819050919050565b7f6465706f73697400000000000000000000000000000000000000000000000000600082015250565b6000620013376007836200078a565b91506200134482620012ff565b600782019050919050565b60006200135c8262001328565b9150819050919050565b7f696e666c6174696f6e46756e6400000000000000000000000000000000000000600082015250565b60006200139e600d836200078a565b9150620013ab8262001366565b600d82019050919050565b6000620013c3826200138f565b9150819050919050565b7f696e666c6174696f6e5370656e64657200000000000000000000000000000000600082015250565b6000620014056010836200078a565b91506200141282620013cd565b601082019050919050565b60006200142a82620013f6565b9150819050919050565b612dbb80620014446000396000f3fe6080604052600436106100f75760003560e01c8063b91816111161008a578063d32b0c1011610059578063d32b0c10146103d0578063e4d345a31461040d578063f007cafd14610436578063f9718fc81461046157610181565b8063b918161114610304578063bdfe7d4714610341578063c85c98bf1461037e578063c9d27afe146103a757610181565b806355b2636d116100c657806355b2636d146102405780636d3e313e1461026b5780636ec21cc814610296578063a598d03c146102c157610181565b8063145f822b1461018657806323d86a65146101c35780632abdf04e146101da5780632e48152c1461020357610181565b3661018157600660405161010a90611d61565b908152602001604051809103902060009054906101000a900473ffffffffffffffffffffffffffffffffffffffff1673ffffffffffffffffffffffffffffffffffffffff166108fc479081150290604051600060405180830381858888f1935050505015801561017e573d6000803e3d6000fd5b50005b600080fd5b34801561019257600080fd5b506101ad60048036038101906101a89190611ed0565b61048c565b6040516101ba9190611f32565b60405180910390f35b3480156101cf57600080fd5b506101d86104ba565b005b3480156101e657600080fd5b5061020160048036038101906101fc9190611fab565b610538565b005b34801561020f57600080fd5b5061022a60048036038101906102259190612045565b610851565b604051610237919061208d565b60405180910390f35b34801561024c57600080fd5b50610255610871565b604051610262919061208d565b60405180910390f35b34801561027757600080fd5b50610280610884565b60405161028d919061208d565b60405180910390f35b3480156102a257600080fd5b506102ab610abe565b6040516102b89190611f32565b60405180910390f35b3480156102cd57600080fd5b506102e860048036038101906102e391906120d4565b610ac4565b6040516102fb9796959493929190612198565b60405180910390f35b34801561031057600080fd5b5061032b60048036038101906103269190612045565b610bbb565b604051610338919061208d565b60405180910390f35b34801561034d57600080fd5b5061036860048036038101906103639190611ed0565b610bdb565b604051610375919061220e565b60405180910390f35b34801561038a57600080fd5b506103a560048036038101906103a09190612255565b610c24565b005b3480156103b357600080fd5b506103ce60048036038101906103c991906122ec565b610f8b565b005b3480156103dc57600080fd5b506103f760048036038101906103f29190612045565b61137c565b6040516104049190611f32565b60405180910390f35b34801561041957600080fd5b50610434600480360381019061042f91906120d4565b611394565b005b34801561044257600080fd5b5061044b61163d565b6040516104589190611f32565b60405180910390f35b34801561046d57600080fd5b50610476611643565b604051610483919061208d565b60405180910390f35b6005818051602081018201805184825260208301602085012081835280955050505050506000915090505481565b60066040516104c890612378565b908152602001604051809103902060009054906101000a900473ffffffffffffffffffffffffffffffffffffffff166000806101000a81548173ffffffffffffffffffffffffffffffffffffffff021916908373ffffffffffffffffffffffffffffffffffffffff160217905550565b600073ffffffffffffffffffffffffffffffffffffffff1660068360405161056091906123be565b908152602001604051809103902060009054906101000a900473ffffffffffffffffffffffffffffffffffffffff1673ffffffffffffffffffffffffffffffffffffffff16141561084d57806006836040516105bc91906123be565b908152602001604051809103902060006101000a81548173ffffffffffffffffffffffffffffffffffffffff021916908373ffffffffffffffffffffffffffffffffffffffff1602179055506000600760008373ffffffffffffffffffffffffffffffffffffffff1673ffffffffffffffffffffffffffffffffffffffff16815260200190815260200160002060006101000a81548160ff0219169083151502179055506040518060400160405280600781526020017f6465706f736974000000000000000000000000000000000000000000000000008152508051906020012082805190602001201415610704576001600860008373ffffffffffffffffffffffffffffffffffffffff1673ffffffffffffffffffffffffffffffffffffffff16815260200190815260200160002060006101000a81548160ff0219169083151502179055505b6040518060400160405280600d81526020017f696e666c6174696f6e46756e640000000000000000000000000000000000000081525080519060200120828051906020012014156107a8576001600860008373ffffffffffffffffffffffffffffffffffffffff1673ffffffffffffffffffffffffffffffffffffffff16815260200190815260200160002060006101000a81548160ff0219169083151502179055505b6040518060400160405280600881526020017f706c6174666f726d000000000000000000000000000000000000000000000000815250805190602001208280519060200120141561084c576001600860008373ffffffffffffffffffffffffffffffffffffffff1673ffffffffffffffffffffffffffffffffffffffff16815260200190815260200160002060006101000a81548160ff0219169083151502179055505b5b5050565b60076020528060005260406000206000915054906101000a900460ff1681565b600460009054906101000a900460ff1681565b60008060008054906101000a900473ffffffffffffffffffffffffffffffffffffffff1673ffffffffffffffffffffffffffffffffffffffff1663dd62ed3e33306040518363ffffffff1660e01b81526004016108e29291906123e4565b602060405180830381865afa1580156108ff573d6000803e3d6000fd5b505050506040513d601f19601f820116820180604052508101906109239190612422565b905060008111610968576040517f08c379a000000000000000000000000000000000000000000000000000000000815260040161095f9061249b565b60405180910390fd5b60008054906101000a900473ffffffffffffffffffffffffffffffffffffffff1673ffffffffffffffffffffffffffffffffffffffff166323b872dd3330846040518463ffffffff1660e01b81526004016109c5939291906124bb565b6020604051808303816000875af11580156109e4573d6000803e3d6000fd5b505050506040513d601f19601f82011682018060405250810190610a089190612507565b610a47576040517f08c379a0000000000000000000000000000000000000000000000000000000008152600401610a3e906125a6565b60405180910390fd5b80600960003373ffffffffffffffffffffffffffffffffffffffff1673ffffffffffffffffffffffffffffffffffffffff1681526020019081526020016000206000828254610a9691906125f5565b9250508190555080600a6000828254610aaf91906125f5565b92505081905550600191505090565b600a5481565b6002602052806000526040600020600091509050806000015490806001015490806002018054610af39061267a565b80601f0160208091040260200160405190810160405280929190818152602001828054610b1f9061267a565b8015610b6c5780601f10610b4157610100808354040283529160200191610b6c565b820191906000526020600020905b815481529060010190602001808311610b4f57829003601f168201915b5050505050908060030154908060040160009054906101000a900473ffffffffffffffffffffffffffffffffffffffff16908060050154908060060160009054906101000a900460ff16905087565b60086020528060005260406000206000915054906101000a900460ff1681565b6006818051602081018201805184825260208301602085012081835280955050505050506000915054906101000a900473ffffffffffffffffffffffffffffffffffffffff1681565b600460009054906101000a900460ff1615610c74576040517f08c379a0000000000000000000000000000000000000000000000000000000008152600401610c6b906126f8565b60405180910390fd5b600085118015610c845750600585105b610cc3576040517f08c379a0000000000000000000000000000000000000000000000000000000008152600401610cba90612764565b60405180910390fd5b60646005604051610cd3906127d0565b90815260200160405180910390205460008054906101000a900473ffffffffffffffffffffffffffffffffffffffff1673ffffffffffffffffffffffffffffffffffffffff166318160ddd6040518163ffffffff1660e01b8152600401602060405180830381865afa158015610d4d573d6000803e3d6000fd5b505050506040513d601f19601f82011682018060405250810190610d719190612422565b610d7b91906127e5565b610d85919061286e565b600960003373ffffffffffffffffffffffffffffffffffffffff1673ffffffffffffffffffffffffffffffffffffffff168152602001908152602001600020541015610e06576040517f08c379a0000000000000000000000000000000000000000000000000000000008152600401610dfd906128eb565b60405180910390fd5b60036000815480929190610e199061290b565b91905055506040518060e00160405280600081526020018681526020018581526020018481526020018373ffffffffffffffffffffffffffffffffffffffff16815260200142815260200182151581525060026000600354815260200190815260200160002060008201518160000155602082015181600101556040820151816002019080519060200190610eaf929190611c67565b506060820151816003015560808201518160040160006101000a81548173ffffffffffffffffffffffffffffffffffffffff021916908373ffffffffffffffffffffffffffffffffffffffff16021790555060a0820151816005015560c08201518160060160006101000a81548160ff0219169083151502179055509050507f075da53496b68eb2230c8f9ea0bba204eecbbd21aee4989c20fc3df419b71f7b60035485604051610f61929190612954565b60405180910390a16001600460006101000a81548160ff0219169083151502179055505050505050565b600460009054906101000a900460ff16610fda576040517f08c379a0000000000000000000000000000000000000000000000000000000008152600401610fd1906129d0565b60405180910390fd5b426005604051610fe990612a3c565b908152602001604051809103902054600260008581526020019081526020016000206005015461101991906125f5565b101561105a576040517f08c379a000000000000000000000000000000000000000000000000000000000815260040161105190612a9d565b60405180910390fd5b6000600960003373ffffffffffffffffffffffffffffffffffffffff1673ffffffffffffffffffffffffffffffffffffffff16815260200190815260200160002054116110dc576040517f08c379a00000000000000000000000000000000000000000000000000000000081526004016110d390612b2f565b60405180910390fd5b80156112485760006001600084815260200190815260200160002060003373ffffffffffffffffffffffffffffffffffffffff1673ffffffffffffffffffffffffffffffffffffffff16815260200190815260200160002054600960003373ffffffffffffffffffffffffffffffffffffffff1673ffffffffffffffffffffffffffffffffffffffff1681526020019081526020016000205461117f9190612b4f565b9050600960003373ffffffffffffffffffffffffffffffffffffffff1673ffffffffffffffffffffffffffffffffffffffff168152602001908152602001600020546001600085815260200190815260200160002060003373ffffffffffffffffffffffffffffffffffffffff1673ffffffffffffffffffffffffffffffffffffffff168152602001908152602001600020819055508060026000858152602001908152602001600020600001600082825461123b91906125f5565b9250508190555050611378565b60006001600084815260200190815260200160002060003373ffffffffffffffffffffffffffffffffffffffff1673ffffffffffffffffffffffffffffffffffffffff168152602001908152602001600020541115611377576001600083815260200190815260200160002060003373ffffffffffffffffffffffffffffffffffffffff1673ffffffffffffffffffffffffffffffffffffffff1681526020019081526020016000205460026000600354815260200190815260200160002060000160008282546113199190612b4f565b9250508190555060006001600084815260200190815260200160002060003373ffffffffffffffffffffffffffffffffffffffff1673ffffffffffffffffffffffffffffffffffffffff168152602001908152602001600020819055505b5b5050565b60096020528060005260406000206000915090505481565b606460056040516113a490612bcf565b90815260200160405180910390205460008054906101000a900473ffffffffffffffffffffffffffffffffffffffff1673ffffffffffffffffffffffffffffffffffffffff166318160ddd6040518163ffffffff1660e01b8152600401602060405180830381865afa15801561141e573d6000803e3d6000fd5b505050506040513d601f19601f820116820180604052508101906114429190612422565b61144c91906127e5565b611456919061286e565b6002600083815260200190815260200160002060000154106114805761147b8161193d565b61163a565b42600560405161148f90612a3c565b90815260200160405180910390205460026000848152602001908152602001600020600501546114bf91906125f5565b1161163957606460008054906101000a900473ffffffffffffffffffffffffffffffffffffffff1673ffffffffffffffffffffffffffffffffffffffff166318160ddd6040518163ffffffff1660e01b8152600401602060405180830381865afa158015611531573d6000803e3d6000fd5b505050506040513d601f19601f820116820180604052508101906115559190612422565b600560405161156390612c30565b90815260200160405180910390205461157c91906127e5565b611586919061286e565b600a54101580156115cf57506002600082815260200190815260200160002060000154600a546115b69190612b4f565b6002600083815260200190815260200160002060000154115b156115e2576115dd8161193d565b61163a565b7f57834a5970ce5c2cc4aa67b63acab911850a2c8154142f285308a321a2e7b51a816040516116119190611f32565b60405180910390a16000600460006101000a81548160ff02191690831515021790555061163a565b5b50565b60035481565b600080600960003373ffffffffffffffffffffffffffffffffffffffff1673ffffffffffffffffffffffffffffffffffffffff16815260200190815260200160002054116116c6576040517f08c379a00000000000000000000000000000000000000000000000000000000081526004016116bd90612c91565b60405180910390fd5b600460009054906101000a900460ff1680156117345750600060016000600354815260200190815260200160002060003373ffffffffffffffffffffffffffffffffffffffff1673ffffffffffffffffffffffffffffffffffffffff16815260200190815260200160002054115b156117bb5760016000600354815260200190815260200160002060003373ffffffffffffffffffffffffffffffffffffffff1673ffffffffffffffffffffffffffffffffffffffff1681526020019081526020016000205460026000600354815260200190815260200160002060000160008282546117b39190612b4f565b925050819055505b60008054906101000a900473ffffffffffffffffffffffffffffffffffffffff1673ffffffffffffffffffffffffffffffffffffffff1663a9059cbb33600960003373ffffffffffffffffffffffffffffffffffffffff1673ffffffffffffffffffffffffffffffffffffffff168152602001908152602001600020546040518363ffffffff1660e01b8152600401611855929190612cb1565b6020604051808303816000875af1158015611874573d6000803e3d6000fd5b505050506040513d601f19601f820116820180604052508101906118989190612507565b50600960003373ffffffffffffffffffffffffffffffffffffffff1673ffffffffffffffffffffffffffffffffffffffff16815260200190815260200160002054600a60008282546118ea9190612b4f565b925050819055506000600960003373ffffffffffffffffffffffffffffffffffffffff1673ffffffffffffffffffffffffffffffffffffffff168152602001908152602001600020819055506001905090565b6001600260008381526020019081526020016000206001015414156119ab5760026000828152602001908152602001600020600301546005600260008481526020019081526020016000206002016040516119989190612d6e565b9081526020016040518091039020819055505b6002806000838152602001908152602001600020600101541415611a72576002600082815260200190815260200160002060040160009054906101000a900473ffffffffffffffffffffffffffffffffffffffff16600660026000848152602001908152602001600020600201604051611a259190612d6e565b908152602001604051809103902060006101000a81548173ffffffffffffffffffffffffffffffffffffffff021916908373ffffffffffffffffffffffffffffffffffffffff1602179055505b600360026000838152602001908152602001600020600101541415611b42576002600082815260200190815260200160002060060160009054906101000a900460ff16600760006002600085815260200190815260200160002060040160009054906101000a900473ffffffffffffffffffffffffffffffffffffffff1673ffffffffffffffffffffffffffffffffffffffff1673ffffffffffffffffffffffffffffffffffffffff16815260200190815260200160002060006101000a81548160ff0219169083151502179055505b600460026000838152602001908152602001600020600101541415611c12576002600082815260200190815260200160002060060160009054906101000a900460ff16600860006002600085815260200190815260200160002060040160009054906101000a900473ffffffffffffffffffffffffffffffffffffffff1673ffffffffffffffffffffffffffffffffffffffff1673ffffffffffffffffffffffffffffffffffffffff16815260200190815260200160002060006101000a81548160ff0219169083151502179055505b7f8758853873295e83b84920827f3c083da36d58db370b7ae1fab04646e4314a1281604051611c419190611f32565b60405180910390a16000600460006101000a81548160ff02191690831515021790555050565b828054611c739061267a565b90600052602060002090601f016020900481019282611c955760008555611cdc565b82601f10611cae57805160ff1916838001178555611cdc565b82800160010185558215611cdc579182015b82811115611cdb578251825591602001919060010190611cc0565b5b509050611ce99190611ced565b5090565b5b80821115611d06576000816000905550600101611cee565b5090565b600081905092915050565b7f6f7261636c650000000000000000000000000000000000000000000000000000600082015250565b6000611d4b600683611d0a565b9150611d5682611d15565b600682019050919050565b6000611d6c82611d3e565b9150819050919050565b6000604051905090565b600080fd5b600080fd5b600080fd5b600080fd5b6000601f19601f8301169050919050565b7f4e487b7100000000000000000000000000000000000000000000000000000000600052604160045260246000fd5b611ddd82611d94565b810181811067ffffffffffffffff82111715611dfc57611dfb611da5565b5b80604052505050565b6000611e0f611d76565b9050611e1b8282611dd4565b919050565b600067ffffffffffffffff821115611e3b57611e3a611da5565b5b611e4482611d94565b9050602081019050919050565b82818337600083830152505050565b6000611e73611e6e84611e20565b611e05565b905082815260208101848484011115611e8f57611e8e611d8f565b5b611e9a848285611e51565b509392505050565b600082601f830112611eb757611eb6611d8a565b5b8135611ec7848260208601611e60565b91505092915050565b600060208284031215611ee657611ee5611d80565b5b600082013567ffffffffffffffff811115611f0457611f03611d85565b5b611f1084828501611ea2565b91505092915050565b6000819050919050565b611f2c81611f19565b82525050565b6000602082019050611f476000830184611f23565b92915050565b600073ffffffffffffffffffffffffffffffffffffffff82169050919050565b6000611f7882611f4d565b9050919050565b611f8881611f6d565b8114611f9357600080fd5b50565b600081359050611fa581611f7f565b92915050565b60008060408385031215611fc257611fc1611d80565b5b600083013567ffffffffffffffff811115611fe057611fdf611d85565b5b611fec85828601611ea2565b9250506020611ffd85828601611f96565b9150509250929050565b600061201282611f4d565b9050919050565b61202281612007565b811461202d57600080fd5b50565b60008135905061203f81612019565b92915050565b60006020828403121561205b5761205a611d80565b5b600061206984828501612030565b91505092915050565b60008115159050919050565b61208781612072565b82525050565b60006020820190506120a2600083018461207e565b92915050565b6120b181611f19565b81146120bc57600080fd5b50565b6000813590506120ce816120a8565b92915050565b6000602082840312156120ea576120e9611d80565b5b60006120f8848285016120bf565b91505092915050565b600081519050919050565b600082825260208201905092915050565b60005b8381101561213b578082015181840152602081019050612120565b8381111561214a576000848401525b50505050565b600061215b82612101565b612165818561210c565b935061217581856020860161211d565b61217e81611d94565b840191505092915050565b61219281611f6d565b82525050565b600060e0820190506121ad600083018a611f23565b6121ba6020830189611f23565b81810360408301526121cc8188612150565b90506121db6060830187611f23565b6121e86080830186612189565b6121f560a0830185611f23565b61220260c083018461207e565b98975050505050505050565b60006020820190506122236000830184612189565b92915050565b61223281612072565b811461223d57600080fd5b50565b60008135905061224f81612229565b92915050565b600080600080600060a0868803121561227157612270611d80565b5b600061227f888289016120bf565b955050602086013567ffffffffffffffff8111156122a05761229f611d85565b5b6122ac88828901611ea2565b94505060406122bd888289016120bf565b93505060606122ce88828901611f96565b92505060806122df88828901612240565b9150509295509295909350565b6000806040838503121561230357612302611d80565b5b6000612311858286016120bf565b925050602061232285828601612240565b9150509250929050565b7f72756c6500000000000000000000000000000000000000000000000000000000600082015250565b6000612362600483611d0a565b915061236d8261232c565b600482019050919050565b600061238382612355565b9150819050919050565b600061239882612101565b6123a28185611d0a565b93506123b281856020860161211d565b80840191505092915050565b60006123ca828461238d565b915081905092915050565b6123de81612007565b82525050565b60006040820190506123f960008301856123d5565b61240660208301846123d5565b9392505050565b60008151905061241c816120a8565b92915050565b60006020828403121561243857612437611d80565b5b60006124468482850161240d565b91505092915050565b7f616c6c6f7720746f6b656e732066697273740000000000000000000000000000600082015250565b600061248560128361210c565b91506124908261244f565b602082019050919050565b600060208201905081810360008301526124b481612478565b9050919050565b60006060820190506124d060008301866123d5565b6124dd60208301856123d5565b6124ea6040830184611f23565b949350505050565b60008151905061250181612229565b92915050565b60006020828403121561251d5761251c611d80565b5b600061252b848285016124f2565b91505092915050565b7f436f756c64206e6f7420706f6f6c20746f6b656e7320666f7220736f6d65207260008201527f6561736f6e000000000000000000000000000000000000000000000000000000602082015250565b600061259060258361210c565b915061259b82612534565b604082019050919050565b600060208201905081810360008301526125bf81612583565b9050919050565b7f4e487b7100000000000000000000000000000000000000000000000000000000600052601160045260246000fd5b600061260082611f19565b915061260b83611f19565b9250827fffffffffffffffffffffffffffffffffffffffffffffffffffffffffffffffff038211156126405761263f6125c6565b5b828201905092915050565b7f4e487b7100000000000000000000000000000000000000000000000000000000600052602260045260246000fd5b6000600282049050600182168061269257607f821691505b602082108114156126a6576126a561264b565b5b50919050565b7f546865726520697320616e2061637469766520766f74696e6700000000000000600082015250565b60006126e260198361210c565b91506126ed826126ac565b602082019050919050565b60006020820190508181036000830152612711816126d5565b9050919050565b7f496e636f727265637420766f7465696e67207479706500000000000000000000600082015250565b600061274e60168361210c565b915061275982612718565b602082019050919050565b6000602082019050818103600083015261277d81612741565b9050919050565b7f6d696e52756c65546f6b656e73546f496e6974566f74696e6750657263656e74600082015250565b60006127ba602083611d0a565b91506127c582612784565b602082019050919050565b60006127db826127ad565b9150819050919050565b60006127f082611f19565b91506127fb83611f19565b9250817fffffffffffffffffffffffffffffffffffffffffffffffffffffffffffffffff0483118215151615612834576128336125c6565b5b828202905092915050565b7f4e487b7100000000000000000000000000000000000000000000000000000000600052601260045260246000fd5b600061287982611f19565b915061288483611f19565b9250826128945761289361283f565b5b828204905092915050565b7f546f6f206c6974746c6520746f6b656e7320746f20696e697420766f74696e67600082015250565b60006128d560208361210c565b91506128e08261289f565b602082019050919050565b60006020820190508181036000830152612904816128c8565b9050919050565b600061291682611f19565b91507fffffffffffffffffffffffffffffffffffffffffffffffffffffffffffffffff821415612949576129486125c6565b5b600182019050919050565b60006040820190506129696000830185611f23565b818103602083015261297b8184612150565b90509392505050565b7f4e6f2061637469766520766f74696e6720666f756e6400000000000000000000600082015250565b60006129ba60168361210c565b91506129c582612984565b602082019050919050565b600060208201905081810360008301526129e9816129ad565b9050919050565b7f766f74696e674475726174696f6e000000000000000000000000000000000000600082015250565b6000612a26600e83611d0a565b9150612a31826129f0565b600e82019050919050565b6000612a4782612a19565b9150819050919050565b7f566f74696e6720697320616c726561647920696e616374697665000000000000600082015250565b6000612a87601a8361210c565b9150612a9282612a51565b602082019050919050565b60006020820190508181036000830152612ab681612a7a565b9050919050565b7f596f7520646f6e74206861766520706f6f6c656420746f6b656e7320746f207660008201527f6f74650000000000000000000000000000000000000000000000000000000000602082015250565b6000612b1960238361210c565b9150612b2482612abd565b604082019050919050565b60006020820190508181036000830152612b4881612b0c565b9050919050565b6000612b5a82611f19565b9150612b6583611f19565b925082821015612b7857612b776125c6565b5b828203905092915050565b7f6162736f6c7574654d616a6f7269747900000000000000000000000000000000600082015250565b6000612bb9601083611d0a565b9150612bc482612b83565b601082019050919050565b6000612bda82612bac565b9150819050919050565b7f71756f72756d0000000000000000000000000000000000000000000000000000600082015250565b6000612c1a600683611d0a565b9150612c2582612be4565b600682019050919050565b6000612c3b82612c0d565b9150819050919050565b7f596f75206d757374206861766520706f6f6c656420746f6b656e730000000000600082015250565b6000612c7b601b8361210c565b9150612c8682612c45565b602082019050919050565b60006020820190508181036000830152612caa81612c6e565b9050919050565b6000604082019050612cc660008301856123d5565b612cd36020830184611f23565b9392505050565b60008190508160005260206000209050919050565b60008154612cfc8161267a565b612d068186611d0a565b94506001821660008114612d215760018114612d3257612d65565b60ff19831686528186019350612d65565b612d3b85612cda565b60005b83811015612d5d57815481890152600182019150602081019050612d3e565b838801955050505b50505092915050565b6000612d7a8284612cef565b91508190509291505056fea264697066735822122085845ec1b8e438689edb4b523d0c95703b4ee7319c81d82193ca8073b983524964736f6c634300080a0033",
  "immutableReferences": {},
  "source": "// SPDX-License-Identifier: UNLICENSED\r\npragma solidity >=0.4.22 <0.9.0;\r\nimport \"./Rule.sol\";\r\n\r\ncontract INTDAO {\r\n    Rule ruleToken;\r\n    mapping (uint => mapping(address => uint)) votes;\r\n\r\n    mapping (uint=>Voting) public votings;\r\n    uint256 public votingID;\r\n\r\n    struct Voting {\r\n        uint totalPositive;\r\n        uint256 voteingType;\r\n        string name;\r\n        uint value;\r\n        address payable addr;\r\n        uint256 startTime;\r\n        bool decision;\r\n    }\r\n\r\n    bool public activeVoting;\r\n\r\n    mapping (string => uint) public params;\r\n    mapping (string => address payable) public addresses;\r\n    mapping (address => bool) public paused;\r\n    mapping (address => bool) public authorized;\r\n\r\n    mapping (address => uint) public pooled;\r\n    uint256 public totalPooled;\r\n\r\n    event NewVoting (uint256 id, string name);\r\n    event VotingSucceed (uint256 id);\r\n    event VotingFailed (uint256 id);\r\n\r\n    constructor (address WETH) {\r\n        params['interestRate'] = 9;\r\n        params['depositRate']=8;\r\n        params['liquidationFee'] = 13;\r\n        params['collateralDiscount'] = 30;\r\n        params['stabilizationFundPercent'] = 5;\r\n        params['quorum'] = 60;\r\n        params['majority'] = 50;\r\n        params['minCDPBalanceToInitBuyOut'] = 10**19;\r\n        params['absoluteMajority'] = 80;\r\n        params['minRuleTokensToInitVotingPercent'] = 1;\r\n        params['votingDuration'] = 1 days;\r\n        params['auctionTurnDuration'] = 1 minutes; //15 minutes;\r\n        params['minAuctionPriceMove'] = 5;\r\n        params['marginCallFee'] = 13;\r\n        params['minColleteral'] = 1*10^16; // minColleteral is 0.01 ETH\r\n        params['marginCallTimeLimit'] = 1 days;\r\n        params['annualInflationPercent'] = 1;\r\n        params['defaultDepositPeriod'] = 91 days;\r\n        params['maxCoinsForStabilization'] = 50*10**18;\r\n        params['maxRuleEmissionPercent'] = 1;\r\n        params['highVolatilityEventBarrierPercent'] = 5;\r\n\r\n\r\n        addresses['weth'] = payable(WETH);\r\n        addresses['cdp'] = payable(0x0);\r\n        addresses['auction'] = payable(0x0);\r\n        addresses['stableCoin'] = payable(0x0);\r\n        addresses['dao'] = payable(address(this));\r\n        addresses['oracle'] = payable(0x0);\r\n        addresses['rule'] = payable(0x0);\r\n        addresses['deposit'] = payable(0x0);\r\n        addresses['inflationFund'] = payable(0x0);\r\n        addresses['inflationSpender'] = payable(0x0);\r\n    }\r\n\r\n    function setAddressOnce(string memory addressName, address payable addr) public{ //a certain pool of names, check not to expand addresses\r\n        if (addresses[addressName] == address (0x0)) {\r\n            addresses[addressName] = addr;\r\n            paused[addr] = false;\r\n            if (keccak256(bytes(addressName)) == keccak256(bytes(\"deposit\")))\r\n                authorized[addr] = true;\r\n            if (keccak256(bytes(addressName)) == keccak256(bytes(\"inflationFund\")))\r\n                authorized[addr] = true;\r\n            if (keccak256(bytes(addressName)) == keccak256(bytes(\"platform\")))\r\n                authorized[addr] = true;\r\n        }\r\n    }\r\n\r\n    function addVoting(uint256 votingType, string memory name, uint value, address payable addr, bool _decision) public {\r\n        require(!activeVoting, \"There is an active voting\");\r\n        require(votingType>0&&votingType<5, \"Incorrect voteing type\");\r\n        require (pooled[msg.sender]>=ruleToken.totalSupply()*params['minRuleTokensToInitVotingPercent']/100, \"Too little tokens to init voting\");\r\n        votingID++;\r\n        votings[votingID] = Voting(0, votingType, name, value, addr, block.timestamp, _decision);\r\n        emit NewVoting(votingID, name);\r\n        activeVoting = true;\r\n    }\r\n\r\n    function renewContracts() public {\r\n        ruleToken = Rule(addresses['rule']);\r\n    }\r\n\r\n    function poolTokens() public returns (bool success){\r\n        uint256 amount = ruleToken.allowance(msg.sender, address(this));\r\n        require (amount>0, \"allow tokens first\");\r\n        require(ruleToken.transferFrom(msg.sender, address(this), amount), \"Could not pool tokens for some reason\");\r\n        pooled[msg.sender] += amount;\r\n        totalPooled += amount;\r\n        return true;\r\n    }\r\n\r\n    function returnTokens() public returns (bool) {\r\n        require(pooled[msg.sender] > 0, 'You must have pooled tokens');\r\n        if (activeVoting && votes[votingID][msg.sender]>0){\r\n            votings[votingID].totalPositive -= votes[votingID][msg.sender];\r\n        }\r\n        ruleToken.transfer(msg.sender, pooled[msg.sender]);\r\n        totalPooled -= pooled[msg.sender];\r\n        pooled[msg.sender] = 0;\r\n        return true;\r\n    }\r\n\r\n    function vote(uint256 votingId, bool _vote) public{\r\n        require(activeVoting, \"No active voting found\");\r\n        require(votings[votingId].startTime + params['votingDuration'] >= block.timestamp, \"Voting is already inactive\");\r\n        require(pooled[msg.sender]>0, \"You dont have pooled tokens to vote\");\r\n\r\n        if (_vote) {\r\n            uint _votesToAdd = pooled[msg.sender] - votes[votingId][msg.sender];\r\n            votes[votingId][msg.sender] = pooled[msg.sender];\r\n            votings[votingId].totalPositive += _votesToAdd;\r\n        }\r\n        else {\r\n            if (votes[votingId][msg.sender] > 0){\r\n                votings[votingID].totalPositive -= votes[votingId][msg.sender];\r\n                votes[votingId][msg.sender] = 0;\r\n            }\r\n        }\r\n    }\r\n\r\n    function claimToFinalizeVoting(uint votingId) public {\r\n        if (votings[votingId].totalPositive >= ruleToken.totalSupply() * params['absoluteMajority'] / 100) {\r\n            finalizeVoting(votingId);\r\n            return;\r\n        }\r\n        else if (votings[votingId].startTime + params['votingDuration'] <= block.timestamp) {\r\n            if (totalPooled >= params['quorum'] * ruleToken.totalSupply() / 100 && votings[votingId].totalPositive > (totalPooled - votings[votingId].totalPositive)) {\r\n                finalizeVoting(votingId);\r\n                return;\r\n            }\r\n            emit VotingFailed(votingId);\r\n            activeVoting = false;\r\n            return;\r\n        }\r\n    }\r\n\r\n    function finalizeVoting(uint votingId) internal {\r\n        if (votings[votingId].voteingType == 1)\r\n            params[votings[votingId].name] = votings[votingId].value;\r\n        if (votings[votingId].voteingType == 2)\r\n            addresses[votings[votingId].name] = votings[votingId].addr;\r\n        if (votings[votingId].voteingType == 3)\r\n            paused[votings[votingId].addr] = votings[votingId].decision;\r\n        if (votings[votingId].voteingType == 4)\r\n            authorized[votings[votingId].addr] = votings[votingId].decision;\r\n        emit VotingSucceed(votingId);\r\n        activeVoting = false;\r\n    }\r\n\r\n    receive() external payable {\r\n        addresses['oracle'].transfer(address(this).balance);\r\n    }\r\n}\r\n",
  "sourcePath": "B:\\YandexDisk\\\\ICO\\CryptoFiat\\repo\\contracts\\INTDAO.sol",
  "compiler": {
    "name": "solc",
    "version": "0.8.10+commit.fc410830.Emscripten.clang"
  },
  "schemaVersion": "3.4.5",
  "updatedAt": "2023-06-30T04:10:41.729Z",
  "networkType": "ethereum",
  "devdoc": {
    "kind": "dev",
    "methods": {},
    "version": 1
  },
  "userdoc": {
    "kind": "user",
    "methods": {},
    "version": 1
  }
}