{
  "contractName": "Oracle",
  "abi": [
    {
      "inputs": [],
      "stateMutability": "nonpayable",
      "type": "constructor"
    },
    {
      "inputs": [
        {
          "internalType": "string",
          "name": "symbol",
          "type": "string"
        }
      ],
      "name": "getPrice",
      "outputs": [
        {
          "internalType": "uint256",
          "name": "",
          "type": "uint256"
        }
      ],
      "stateMutability": "view",
      "type": "function"
    }
  ],
  "bytecode": "0x608060405234801561001057600080fd5b50610278806100206000396000f3fe608060405234801561001057600080fd5b506004361061002b5760003560e01c8063524f388914610030575b600080fd5b61004a600480360381019061004591906101c5565b610060565b6040516100579190610227565b60405180910390f35b6000604a9050919050565b6000604051905090565b600080fd5b600080fd5b600080fd5b600080fd5b6000601f19601f8301169050919050565b7f4e487b7100000000000000000000000000000000000000000000000000000000600052604160045260246000fd5b6100d282610089565b810181811067ffffffffffffffff821117156100f1576100f061009a565b5b80604052505050565b600061010461006b565b905061011082826100c9565b919050565b600067ffffffffffffffff8211156101305761012f61009a565b5b61013982610089565b9050602081019050919050565b82818337600083830152505050565b600061016861016384610115565b6100fa565b90508281526020810184848401111561018457610183610084565b5b61018f848285610146565b509392505050565b600082601f8301126101ac576101ab61007f565b5b81356101bc848260208601610155565b91505092915050565b6000602082840312156101db576101da610075565b5b600082013567ffffffffffffffff8111156101f9576101f861007a565b5b61020584828501610197565b91505092915050565b6000819050919050565b6102218161020e565b82525050565b600060208201905061023c6000830184610218565b9291505056fea2646970667358221220ad28144f1f0230dbaea17adffa14a8f1964f04fe92a3edeb18a6213f8050fcd564736f6c634300080a0033",
  "immutableReferences": {},
  "source": "// SPDX-License-Identifier: UNLICENSED\r\npragma solidity >=0.4.22 <0.9.0;\r\n\r\ncontract Oracle {\r\n\r\n    constructor(){\r\n\r\n    }\r\n\r\n    function getPrice(string memory symbol) external virtual view returns (uint256) {\r\n        return 74;\r\n    }\r\n\r\n}\r\n",
  "sourcePath": "C:\\Users\\d.nagornykh\\YandexDisk\\\\ICO\\CryptoFiat\\repo\\contracts\\Oracle.sol",
  "compiler": {
    "name": "solc",
    "version": "0.8.10+commit.fc410830.Emscripten.clang"
  },
  "schemaVersion": "3.4.4",
  "updatedAt": "2022-01-19T07:50:14.449Z",
  "devdoc": {
    "kind": "dev",
    "methods": {},
    "version": 1
  },
  "userdoc": {
    "kind": "user",
    "methods": {},
    "version": 1
  }
}