{
  "contractName": "Oracle",
  "abi": [
    {
      "inputs": [],
      "stateMutability": "nonpayable",
      "type": "constructor"
    },
    {
      "inputs": [
        {
          "internalType": "string",
          "name": "",
          "type": "string"
        }
      ],
      "name": "getPrice",
      "outputs": [
        {
          "internalType": "uint256",
          "name": "",
          "type": "uint256"
        }
      ],
      "stateMutability": "pure",
      "type": "function",
      "constant": true
    },
    {
      "inputs": [],
      "name": "getEtherPriceUSD",
      "outputs": [
        {
          "internalType": "uint256",
          "name": "",
          "type": "uint256"
        }
      ],
      "stateMutability": "pure",
      "type": "function",
      "constant": true
    }
  ],
  "bytecode": "0x608060405234801561001057600080fd5b506102ab806100206000396000f3fe608060405234801561001057600080fd5b50600436106100365760003560e01c8063524f38891461003b578063aa309fef1461006b575b600080fd5b610055600480360381019061005091906101f8565b610089565b604051610062919061025a565b60405180910390f35b610073610094565b604051610080919061025a565b60405180910390f35b6000604b9050919050565b6000610c1c905090565b6000604051905090565b600080fd5b600080fd5b600080fd5b600080fd5b6000601f19601f8301169050919050565b7f4e487b7100000000000000000000000000000000000000000000000000000000600052604160045260246000fd5b610105826100bc565b810181811067ffffffffffffffff82111715610124576101236100cd565b5b80604052505050565b600061013761009e565b905061014382826100fc565b919050565b600067ffffffffffffffff821115610163576101626100cd565b5b61016c826100bc565b9050602081019050919050565b82818337600083830152505050565b600061019b61019684610148565b61012d565b9050828152602081018484840111156101b7576101b66100b7565b5b6101c2848285610179565b509392505050565b600082601f8301126101df576101de6100b2565b5b81356101ef848260208601610188565b91505092915050565b60006020828403121561020e5761020d6100a8565b5b600082013567ffffffffffffffff81111561022c5761022b6100ad565b5b610238848285016101ca565b91505092915050565b6000819050919050565b61025481610241565b82525050565b600060208201905061026f600083018461024b565b9291505056fea2646970667358221220440be2e6dead98e8c8e16e42ca4febdc60f072bbd5aacb5b2cab89966d24d62d64736f6c634300080a0033",
  "immutableReferences": {},
  "source": "// SPDX-License-Identifier: UNLICENSED\r\npragma solidity >=0.4.22 <0.9.0;\r\n\r\ncontract Oracle {\r\n\r\n    constructor(){\r\n\r\n    }\r\n\r\n    function getPrice(string memory) external pure returns (uint256) {\r\n        return 75;\r\n    }\r\n\r\n    function getEtherPriceUSD() external pure returns (uint256){\r\n        return 3100;\r\n    }\r\n\r\n}\r\n",
  "sourcePath": "C:\\Users\\d.nagornykh\\YandexDisk\\\\ICO\\CryptoFiat\\repo\\contracts\\Oracle.sol",
  "compiler": {
    "name": "solc",
    "version": "0.8.10+commit.fc410830.Emscripten.clang"
  },
  "schemaVersion": "3.4.4",
  "updatedAt": "2022-12-12T03:20:06.868Z",
  "networkType": "ethereum",
  "devdoc": {
    "kind": "dev",
    "methods": {},
    "version": 1
  },
  "userdoc": {
    "kind": "user",
    "methods": {},
    "version": 1
  }
}