{
  "contractName": "Platform",
  "abi": [
    {
      "inputs": [
        {
          "internalType": "address payable",
          "name": "INTDAOaddress",
          "type": "address"
        }
      ],
      "stateMutability": "nonpayable",
      "type": "constructor"
    },
    {
      "anonymous": false,
      "inputs": [
        {
          "indexed": true,
          "internalType": "address",
          "name": "owner",
          "type": "address"
        },
        {
          "indexed": true,
          "internalType": "address",
          "name": "spender",
          "type": "address"
        },
        {
          "indexed": false,
          "internalType": "uint256",
          "name": "value",
          "type": "uint256"
        }
      ],
      "name": "Approval",
      "type": "event"
    },
    {
      "anonymous": false,
      "inputs": [
        {
          "indexed": true,
          "internalType": "address",
          "name": "from",
          "type": "address"
        },
        {
          "indexed": true,
          "internalType": "address",
          "name": "to",
          "type": "address"
        },
        {
          "indexed": false,
          "internalType": "uint256",
          "name": "value",
          "type": "uint256"
        }
      ],
      "name": "Transfer",
      "type": "event"
    },
    {
      "inputs": [],
      "name": "currentDividendsRound",
      "outputs": [
        {
          "internalType": "uint256",
          "name": "",
          "type": "uint256"
        }
      ],
      "stateMutability": "view",
      "type": "function"
    },
    {
      "inputs": [],
      "name": "decimals",
      "outputs": [
        {
          "internalType": "uint256",
          "name": "",
          "type": "uint256"
        }
      ],
      "stateMutability": "view",
      "type": "function"
    },
    {
      "inputs": [
        {
          "internalType": "uint256",
          "name": "",
          "type": "uint256"
        }
      ],
      "name": "dividendsPerRoundPerToken",
      "outputs": [
        {
          "internalType": "uint256",
          "name": "",
          "type": "uint256"
        }
      ],
      "stateMutability": "view",
      "type": "function"
    },
    {
      "inputs": [
        {
          "internalType": "uint256",
          "name": "",
          "type": "uint256"
        }
      ],
      "name": "dividendsRounds",
      "outputs": [
        {
          "internalType": "address",
          "name": "",
          "type": "address"
        }
      ],
      "stateMutability": "view",
      "type": "function"
    },
    {
      "inputs": [
        {
          "internalType": "address",
          "name": "",
          "type": "address"
        }
      ],
      "name": "lastPayedDividendsRound",
      "outputs": [
        {
          "internalType": "uint256",
          "name": "",
          "type": "uint256"
        }
      ],
      "stateMutability": "view",
      "type": "function"
    },
    {
      "inputs": [
        {
          "internalType": "address",
          "name": "",
          "type": "address"
        }
      ],
      "name": "mintedTokens",
      "outputs": [
        {
          "internalType": "bool",
          "name": "",
          "type": "bool"
        }
      ],
      "stateMutability": "view",
      "type": "function"
    },
    {
      "inputs": [],
      "name": "name",
      "outputs": [
        {
          "internalType": "string",
          "name": "",
          "type": "string"
        }
      ],
      "stateMutability": "view",
      "type": "function"
    },
    {
      "inputs": [],
      "name": "symbol",
      "outputs": [
        {
          "internalType": "string",
          "name": "",
          "type": "string"
        }
      ],
      "stateMutability": "view",
      "type": "function"
    },
    {
      "stateMutability": "payable",
      "type": "receive"
    },
    {
      "inputs": [],
      "name": "renewContracts",
      "outputs": [],
      "stateMutability": "nonpayable",
      "type": "function"
    },
    {
      "inputs": [
        {
          "internalType": "address",
          "name": "addr",
          "type": "address"
        }
      ],
      "name": "claimDividends",
      "outputs": [],
      "stateMutability": "nonpayable",
      "type": "function"
    },
    {
      "inputs": [
        {
          "internalType": "address",
          "name": "addr",
          "type": "address"
        }
      ],
      "name": "addMintedToken",
      "outputs": [],
      "stateMutability": "nonpayable",
      "type": "function"
    },
    {
      "inputs": [
        {
          "internalType": "address",
          "name": "rewardToken",
          "type": "address"
        },
        {
          "internalType": "uint256",
          "name": "amount",
          "type": "uint256"
        }
      ],
      "name": "addDividend",
      "outputs": [
        {
          "internalType": "bool",
          "name": "success",
          "type": "bool"
        }
      ],
      "stateMutability": "nonpayable",
      "type": "function"
    },
    {
      "inputs": [
        {
          "internalType": "uint256",
          "name": "amount",
          "type": "uint256"
        },
        {
          "internalType": "address",
          "name": "beneficiary",
          "type": "address"
        }
      ],
      "name": "claimInterestForMintedTokenHolder",
      "outputs": [],
      "stateMutability": "nonpayable",
      "type": "function"
    },
    {
      "inputs": [],
      "name": "getCurrentInterestRate",
      "outputs": [
        {
          "internalType": "uint256",
          "name": "interestRate",
          "type": "uint256"
        }
      ],
      "stateMutability": "view",
      "type": "function"
    },
    {
      "inputs": [],
      "name": "totalSupply",
      "outputs": [
        {
          "internalType": "uint256",
          "name": "",
          "type": "uint256"
        }
      ],
      "stateMutability": "view",
      "type": "function"
    },
    {
      "inputs": [
        {
          "internalType": "address",
          "name": "owner",
          "type": "address"
        }
      ],
      "name": "balanceOf",
      "outputs": [
        {
          "internalType": "uint256",
          "name": "balance",
          "type": "uint256"
        }
      ],
      "stateMutability": "view",
      "type": "function"
    },
    {
      "inputs": [
        {
          "internalType": "address",
          "name": "owner",
          "type": "address"
        },
        {
          "internalType": "address",
          "name": "spender",
          "type": "address"
        }
      ],
      "name": "allowance",
      "outputs": [
        {
          "internalType": "uint256",
          "name": "remaining",
          "type": "uint256"
        }
      ],
      "stateMutability": "view",
      "type": "function"
    },
    {
      "inputs": [
        {
          "internalType": "address",
          "name": "to",
          "type": "address"
        },
        {
          "internalType": "uint256",
          "name": "value",
          "type": "uint256"
        }
      ],
      "name": "transfer",
      "outputs": [
        {
          "internalType": "bool",
          "name": "success",
          "type": "bool"
        }
      ],
      "stateMutability": "nonpayable",
      "type": "function"
    },
    {
      "inputs": [
        {
          "internalType": "address",
          "name": "from",
          "type": "address"
        },
        {
          "internalType": "address",
          "name": "to",
          "type": "address"
        },
        {
          "internalType": "uint256",
          "name": "value",
          "type": "uint256"
        }
      ],
      "name": "transferFrom",
      "outputs": [
        {
          "internalType": "bool",
          "name": "success",
          "type": "bool"
        }
      ],
      "stateMutability": "nonpayable",
      "type": "function"
    },
    {
      "inputs": [
        {
          "internalType": "address",
          "name": "spender",
          "type": "address"
        },
        {
          "internalType": "uint256",
          "name": "value",
          "type": "uint256"
        }
      ],
      "name": "approve",
      "outputs": [
        {
          "internalType": "bool",
          "name": "success",
          "type": "bool"
        }
      ],
      "stateMutability": "nonpayable",
      "type": "function"
    }
  ],
  "bytecode": "0x6080604052620f42406000553480156200001857600080fd5b50604051620026f4380380620026f483398181016040528101906200003e9190620002ef565b80600460006101000a81548173ffffffffffffffffffffffffffffffffffffffff021916908373ffffffffffffffffffffffffffffffffffffffff160217905550600460009054906101000a900473ffffffffffffffffffffffffffffffffffffffff1673ffffffffffffffffffffffffffffffffffffffff1663bdfe7d476040518163ffffffff1660e01b8152600401620000da9062000382565b602060405180830381865afa158015620000f8573d6000803e3d6000fd5b505050506040513d601f19601f820116820180604052508101906200011e9190620002ef565b600660006101000a81548173ffffffffffffffffffffffffffffffffffffffff021916908373ffffffffffffffffffffffffffffffffffffffff160217905550600460009054906101000a900473ffffffffffffffffffffffffffffffffffffffff1673ffffffffffffffffffffffffffffffffffffffff1663bdfe7d476040518163ffffffff1660e01b8152600401620001b990620003f4565b602060405180830381865afa158015620001d7573d6000803e3d6000fd5b505050506040513d601f19601f82011682018060405250810190620001fd9190620002ef565b600560006101000a81548173ffffffffffffffffffffffffffffffffffffffff021916908373ffffffffffffffffffffffffffffffffffffffff16021790555033600160006101000a81548173ffffffffffffffffffffffffffffffffffffffff021916908373ffffffffffffffffffffffffffffffffffffffff1602179055505062000416565b600080fd5b600073ffffffffffffffffffffffffffffffffffffffff82169050919050565b6000620002b7826200028a565b9050919050565b620002c981620002aa565b8114620002d557600080fd5b50565b600081519050620002e981620002be565b92915050565b60006020828403121562000308576200030762000285565b5b60006200031884828501620002d8565b91505092915050565b600082825260208201905092915050565b7f737461626c65436f696e00000000000000000000000000000000000000000000600082015250565b60006200036a600a8362000321565b9150620003778262000332565b602082019050919050565b600060208201905081810360008301526200039d816200035b565b9050919050565b7f6364700000000000000000000000000000000000000000000000000000000000600082015250565b6000620003dc60038362000321565b9150620003e982620003a4565b602082019050919050565b600060208201905081810360008301526200040f81620003cd565b9050919050565b6122ce80620004266000396000f3fe6080604052600436106101235760003560e01c80636de9944d116100a0578063af86530d11610064578063af86530d1461050c578063c7e772ed14610549578063cb1c80f814610572578063dd62ed3e1461059d578063ff516c49146105da5761020a565b80636de9944d146103ed57806370a082311461042a5780637241dfa01461046757806395d89b41146104a4578063a9059cbb146104cf5761020a565b80631d960e6a116100e75780631d960e6a1461030857806323b872dd1461034557806323d86a65146103825780632c35087914610399578063313ce567146103c25761020a565b8063068c44391461020f57806306fdde0314610238578063095ea7b31461026357806312bc460d146102a057806318160ddd146102dd5761020a565b3661020a57600460009054906101000a900473ffffffffffffffffffffffffffffffffffffffff1673ffffffffffffffffffffffffffffffffffffffff1663bdfe7d476040518163ffffffff1660e01b8152600401610181906118ce565b602060405180830381865afa15801561019e573d6000803e3d6000fd5b505050506040513d601f19601f820116820180604052508101906101c29190611951565b73ffffffffffffffffffffffffffffffffffffffff166108fc479081150290604051600060405180830381858888f19350505050158015610207573d6000803e3d6000fd5b50005b600080fd5b34801561021b57600080fd5b50610236600480360381019061023191906119bc565b610605565b005b34801561024457600080fd5b5061024d61079c565b60405161025a9190611a71565b60405180910390f35b34801561026f57600080fd5b5061028a60048036038101906102859190611ac9565b6107d5565b6040516102979190611b24565b60405180910390f35b3480156102ac57600080fd5b506102c760048036038101906102c291906119bc565b6108c7565b6040516102d49190611b4e565b60405180910390f35b3480156102e957600080fd5b506102f26108df565b6040516102ff9190611b4e565b60405180910390f35b34801561031457600080fd5b5061032f600480360381019061032a9190611b69565b6108e8565b60405161033c9190611ba5565b60405180910390f35b34801561035157600080fd5b5061036c60048036038101906103679190611bc0565b61091b565b6040516103799190611b24565b60405180910390f35b34801561038e57600080fd5b50610397610bc4565b005b3480156103a557600080fd5b506103c060048036038101906103bb9190611c13565b610d7a565b005b3480156103ce57600080fd5b506103d7610e99565b6040516103e49190611b4e565b60405180910390f35b3480156103f957600080fd5b50610414600480360381019061040f9190611ac9565b610e9e565b6040516104219190611b24565b60405180910390f35b34801561043657600080fd5b50610451600480360381019061044c91906119bc565b611166565b60405161045e9190611b4e565b60405180910390f35b34801561047357600080fd5b5061048e600480360381019061048991906119bc565b6111af565b60405161049b9190611b24565b60405180910390f35b3480156104b057600080fd5b506104b96111cf565b6040516104c69190611a71565b60405180910390f35b3480156104db57600080fd5b506104f660048036038101906104f19190611ac9565b611208565b6040516105039190611b24565b60405180910390f35b34801561051857600080fd5b50610533600480360381019061052e9190611b69565b611395565b6040516105409190611b4e565b60405180910390f35b34801561055557600080fd5b50610570600480360381019061056b91906119bc565b6113ad565b005b34801561057e57600080fd5b50610587611730565b6040516105949190611b4e565b60405180910390f35b3480156105a957600080fd5b506105c460048036038101906105bf9190611c53565b611736565b6040516105d19190611b4e565b60405180910390f35b3480156105e657600080fd5b506105ef6117bd565b6040516105fc9190611b4e565b60405180910390f35b600160009054906101000a900473ffffffffffffffffffffffffffffffffffffffff1673ffffffffffffffffffffffffffffffffffffffff163373ffffffffffffffffffffffffffffffffffffffff1614610695576040517f08c379a000000000000000000000000000000000000000000000000000000000815260040161068c90611cdf565b60405180910390fd5b60008190503073ffffffffffffffffffffffffffffffffffffffff168173ffffffffffffffffffffffffffffffffffffffff1663946bb4f66040518163ffffffff1660e01b8152600401602060405180830381865afa1580156106fc573d6000803e3d6000fd5b505050506040513d601f19601f820116820180604052508101906107209190611d14565b73ffffffffffffffffffffffffffffffffffffffff161461074057600080fd5b6001600860008473ffffffffffffffffffffffffffffffffffffffff1673ffffffffffffffffffffffffffffffffffffffff16815260200190815260200160002060006101000a81548160ff0219169083151502179055505050565b6040518060400160405280601581526020017f43726f776466756e64696e6720706c6174666f726d000000000000000000000081525081565b600081600360003373ffffffffffffffffffffffffffffffffffffffff1673ffffffffffffffffffffffffffffffffffffffff16815260200190815260200160002060008573ffffffffffffffffffffffffffffffffffffffff1673ffffffffffffffffffffffffffffffffffffffff168152602001908152602001600020819055508273ffffffffffffffffffffffffffffffffffffffff163373ffffffffffffffffffffffffffffffffffffffff167f8c5be1e5ebec7d5bd14f71427d1e84f3dd0314c0f7b2291e5b200ac8c7c3b925846040516108b59190611b4e565b60405180910390a36001905092915050565b600b6020528060005260406000206000915090505481565b60008054905090565b60096020528060005260406000206000915054906101000a900473ffffffffffffffffffffffffffffffffffffffff1681565b6000610926846113ad565b61092f836113ad565b81600260008673ffffffffffffffffffffffffffffffffffffffff1673ffffffffffffffffffffffffffffffffffffffff16815260200190815260200160002054101580156109fa575081600360008673ffffffffffffffffffffffffffffffffffffffff1673ffffffffffffffffffffffffffffffffffffffff16815260200190815260200160002060003373ffffffffffffffffffffffffffffffffffffffff1673ffffffffffffffffffffffffffffffffffffffff1681526020019081526020016000205410155b8015610a065750600082115b15610bb85781600260008573ffffffffffffffffffffffffffffffffffffffff1673ffffffffffffffffffffffffffffffffffffffff1681526020019081526020016000206000828254610a5a9190611d70565b9250508190555081600260008673ffffffffffffffffffffffffffffffffffffffff1673ffffffffffffffffffffffffffffffffffffffff1681526020019081526020016000206000828254610ab09190611dc6565b9250508190555081600360008673ffffffffffffffffffffffffffffffffffffffff1673ffffffffffffffffffffffffffffffffffffffff16815260200190815260200160002060003373ffffffffffffffffffffffffffffffffffffffff1673ffffffffffffffffffffffffffffffffffffffff1681526020019081526020016000206000828254610b439190611dc6565b925050819055508273ffffffffffffffffffffffffffffffffffffffff168473ffffffffffffffffffffffffffffffffffffffff167fddf252ad1be2c89b69c2b068fc378daa952ba7f163c4a11628f55a4df523b3ef84604051610ba79190611b4e565b60405180910390a360019050610bbd565b600090505b9392505050565b600460009054906101000a900473ffffffffffffffffffffffffffffffffffffffff1673ffffffffffffffffffffffffffffffffffffffff1663bdfe7d476040518163ffffffff1660e01b8152600401610c1d90611e46565b602060405180830381865afa158015610c3a573d6000803e3d6000fd5b505050506040513d601f19601f82011682018060405250810190610c5e9190611951565b600660006101000a81548173ffffffffffffffffffffffffffffffffffffffff021916908373ffffffffffffffffffffffffffffffffffffffff160217905550600460009054906101000a900473ffffffffffffffffffffffffffffffffffffffff1673ffffffffffffffffffffffffffffffffffffffff1663bdfe7d476040518163ffffffff1660e01b8152600401610cf790611eb2565b602060405180830381865afa158015610d14573d6000803e3d6000fd5b505050506040513d601f19601f82011682018060405250810190610d389190611951565b600560006101000a81548173ffffffffffffffffffffffffffffffffffffffff021916908373ffffffffffffffffffffffffffffffffffffffff160217905550565b600860003373ffffffffffffffffffffffffffffffffffffffff1673ffffffffffffffffffffffffffffffffffffffff16815260200190815260200160002060009054906101000a900460ff16610e06576040517f08c379a0000000000000000000000000000000000000000000000000000000008152600401610dfd90611f44565b60405180910390fd5b600560009054906101000a900473ffffffffffffffffffffffffffffffffffffffff1673ffffffffffffffffffffffffffffffffffffffff16637f660be183836040518363ffffffff1660e01b8152600401610e63929190611f64565b600060405180830381600087803b158015610e7d57600080fd5b505af1158015610e91573d6000803e3d6000fd5b505050505050565b601281565b6000808211610ee2576040517f08c379a0000000000000000000000000000000000000000000000000000000008152600401610ed990611fd9565b60405180910390fd5b600460009054906101000a900473ffffffffffffffffffffffffffffffffffffffff1673ffffffffffffffffffffffffffffffffffffffff1663bdfe7d476040518163ffffffff1660e01b8152600401610f3b90611e46565b602060405180830381865afa158015610f58573d6000803e3d6000fd5b505050506040513d601f19601f82011682018060405250810190610f7c9190611951565b73ffffffffffffffffffffffffffffffffffffffff168373ffffffffffffffffffffffffffffffffffffffff161480610ffe5750600860008473ffffffffffffffffffffffffffffffffffffffff1673ffffffffffffffffffffffffffffffffffffffff16815260200190815260200160002060009054906101000a900460ff165b61103d576040517f08c379a000000000000000000000000000000000000000000000000000000000815260040161103490612045565b60405180910390fd5b600860003373ffffffffffffffffffffffffffffffffffffffff1673ffffffffffffffffffffffffffffffffffffffff16815260200190815260200160002060009054906101000a900460ff166110c9576040517f08c379a00000000000000000000000000000000000000000000000000000000081526004016110c090612045565b60405180910390fd5b8260096000600754815260200190815260200160002060006101000a81548173ffffffffffffffffffffffffffffffffffffffff021916908373ffffffffffffffffffffffffffffffffffffffff1602179055506000548261112b9190612094565b600a600060075481526020019081526020016000208190555060076000815480929190611157906120c5565b91905055506001905092915050565b6000600260008373ffffffffffffffffffffffffffffffffffffffff1673ffffffffffffffffffffffffffffffffffffffff168152602001908152602001600020549050919050565b60086020528060005260406000206000915054906101000a900460ff1681565b6040518060400160405280600381526020017f434650000000000000000000000000000000000000000000000000000000000081525081565b6000611213836113ad565b61121c336113ad565b81600260003373ffffffffffffffffffffffffffffffffffffffff1673ffffffffffffffffffffffffffffffffffffffff168152602001908152602001600020541015801561126b5750600082115b1561138a5781600260003373ffffffffffffffffffffffffffffffffffffffff1673ffffffffffffffffffffffffffffffffffffffff16815260200190815260200160002060008282546112bf9190611dc6565b9250508190555081600260008573ffffffffffffffffffffffffffffffffffffffff1673ffffffffffffffffffffffffffffffffffffffff16815260200190815260200160002060008282546113159190611d70565b925050819055508273ffffffffffffffffffffffffffffffffffffffff163373ffffffffffffffffffffffffffffffffffffffff167fddf252ad1be2c89b69c2b068fc378daa952ba7f163c4a11628f55a4df523b3ef846040516113799190611b4e565b60405180910390a36001905061138f565b600090505b92915050565b600a6020528060005260406000206000915090505481565b6000806113b98361185e565b156113e857600160009054906101000a900473ffffffffffffffffffffffffffffffffffffffff1690506113ec565b8290505b6000600b60008573ffffffffffffffffffffffffffffffffffffffff1673ffffffffffffffffffffffffffffffffffffffff1681526020019081526020016000205490505b6007548110156116e45760006009600083815260200190815260200160002060009054906101000a900473ffffffffffffffffffffffffffffffffffffffff169050600a600083815260200190815260200160002054600260008773ffffffffffffffffffffffffffffffffffffffff1673ffffffffffffffffffffffffffffffffffffffff168152602001908152602001600020546114d1919061210e565b9350838173ffffffffffffffffffffffffffffffffffffffff166370a08231306040518263ffffffff1660e01b815260040161150d9190611ba5565b602060405180830381865afa15801561152a573d6000803e3d6000fd5b505050506040513d601f19601f8201168201806040525081019061154e919061217d565b106115d7578073ffffffffffffffffffffffffffffffffffffffff1663a9059cbb84866040518363ffffffff1660e01b815260040161158e9291906121aa565b6020604051808303816000875af11580156115ad573d6000803e3d6000fd5b505050506040513d601f19601f820116820180604052508101906115d191906121ff565b506116d0565b8073ffffffffffffffffffffffffffffffffffffffff1663a9059cbb848373ffffffffffffffffffffffffffffffffffffffff166370a08231306040518263ffffffff1660e01b815260040161162d9190611ba5565b602060405180830381865afa15801561164a573d6000803e3d6000fd5b505050506040513d601f19601f8201168201806040525081019061166e919061217d565b6040518363ffffffff1660e01b815260040161168b9291906121aa565b6020604051808303816000875af11580156116aa573d6000803e3d6000fd5b505050506040513d601f19601f820116820180604052508101906116ce91906121ff565b505b5080806116dc906120c5565b915050611431565b50600754600b60008573ffffffffffffffffffffffffffffffffffffffff1673ffffffffffffffffffffffffffffffffffffffff16815260200190815260200160002081905550505050565b60075481565b6000600360008473ffffffffffffffffffffffffffffffffffffffff1673ffffffffffffffffffffffffffffffffffffffff16815260200190815260200160002060008373ffffffffffffffffffffffffffffffffffffffff1673ffffffffffffffffffffffffffffffffffffffff16815260200190815260200160002054905092915050565b6000600460009054906101000a900473ffffffffffffffffffffffffffffffffffffffff1673ffffffffffffffffffffffffffffffffffffffff1663145f822b6040518163ffffffff1660e01b815260040161181890612278565b602060405180830381865afa158015611835573d6000803e3d6000fd5b505050506040513d601f19601f82011682018060405250810190611859919061217d565b905090565b600080823b905060008111915050919050565b600082825260208201905092915050565b7f6f7261636c650000000000000000000000000000000000000000000000000000600082015250565b60006118b8600683611871565b91506118c382611882565b602082019050919050565b600060208201905081810360008301526118e7816118ab565b9050919050565b600080fd5b600073ffffffffffffffffffffffffffffffffffffffff82169050919050565b600061191e826118f3565b9050919050565b61192e81611913565b811461193957600080fd5b50565b60008151905061194b81611925565b92915050565b600060208284031215611967576119666118ee565b5b60006119758482850161193c565b91505092915050565b6000611989826118f3565b9050919050565b6119998161197e565b81146119a457600080fd5b50565b6000813590506119b681611990565b92915050565b6000602082840312156119d2576119d16118ee565b5b60006119e0848285016119a7565b91505092915050565b600081519050919050565b60005b83811015611a125780820151818401526020810190506119f7565b83811115611a21576000848401525b50505050565b6000601f19601f8301169050919050565b6000611a43826119e9565b611a4d8185611871565b9350611a5d8185602086016119f4565b611a6681611a27565b840191505092915050565b60006020820190508181036000830152611a8b8184611a38565b905092915050565b6000819050919050565b611aa681611a93565b8114611ab157600080fd5b50565b600081359050611ac381611a9d565b92915050565b60008060408385031215611ae057611adf6118ee565b5b6000611aee858286016119a7565b9250506020611aff85828601611ab4565b9150509250929050565b60008115159050919050565b611b1e81611b09565b82525050565b6000602082019050611b396000830184611b15565b92915050565b611b4881611a93565b82525050565b6000602082019050611b636000830184611b3f565b92915050565b600060208284031215611b7f57611b7e6118ee565b5b6000611b8d84828501611ab4565b91505092915050565b611b9f8161197e565b82525050565b6000602082019050611bba6000830184611b96565b92915050565b600080600060608486031215611bd957611bd86118ee565b5b6000611be7868287016119a7565b9350506020611bf8868287016119a7565b9250506040611c0986828701611ab4565b9150509250925092565b60008060408385031215611c2a57611c296118ee565b5b6000611c3885828601611ab4565b9250506020611c49858286016119a7565b9150509250929050565b60008060408385031215611c6a57611c696118ee565b5b6000611c78858286016119a7565b9250506020611c89858286016119a7565b9150509250929050565b7f546869732066756e6374696f6e20697320666f72206d696e746572206f6e6c79600082015250565b6000611cc9602083611871565b9150611cd482611c93565b602082019050919050565b60006020820190508181036000830152611cf881611cbc565b9050919050565b600081519050611d0e81611990565b92915050565b600060208284031215611d2a57611d296118ee565b5b6000611d3884828501611cff565b91505092915050565b7f4e487b7100000000000000000000000000000000000000000000000000000000600052601160045260246000fd5b6000611d7b82611a93565b9150611d8683611a93565b9250827fffffffffffffffffffffffffffffffffffffffffffffffffffffffffffffffff03821115611dbb57611dba611d41565b5b828201905092915050565b6000611dd182611a93565b9150611ddc83611a93565b925082821015611def57611dee611d41565b5b828203905092915050565b7f737461626c65436f696e00000000000000000000000000000000000000000000600082015250565b6000611e30600a83611871565b9150611e3b82611dfa565b602082019050919050565b60006020820190508181036000830152611e5f81611e23565b9050919050565b7f6364700000000000000000000000000000000000000000000000000000000000600082015250565b6000611e9c600383611871565b9150611ea782611e66565b602082019050919050565b60006020820190508181036000830152611ecb81611e8f565b9050919050565b7f6f6e6c7920746f6b656e732c206d696e7465642062792074686520706c61746660008201527f6f726d206d617920636c61696d20696e74657265737400000000000000000000602082015250565b6000611f2e603683611871565b9150611f3982611ed2565b604082019050919050565b60006020820190508181036000830152611f5d81611f21565b9050919050565b6000604082019050611f796000830185611b3f565b611f866020830184611b96565b9392505050565b7f646f6e7420626520677265656479000000000000000000000000000000000000600082015250565b6000611fc3600e83611871565b9150611fce82611f8d565b602082019050919050565b60006020820190508181036000830152611ff281611fb6565b9050919050565b7f6f6e6c7920666f7220617574686f72697a656420746f6b656e73000000000000600082015250565b600061202f601a83611871565b915061203a82611ff9565b602082019050919050565b6000602082019050818103600083015261205e81612022565b9050919050565b7f4e487b7100000000000000000000000000000000000000000000000000000000600052601260045260246000fd5b600061209f82611a93565b91506120aa83611a93565b9250826120ba576120b9612065565b5b828204905092915050565b60006120d082611a93565b91507fffffffffffffffffffffffffffffffffffffffffffffffffffffffffffffffff82141561210357612102611d41565b5b600182019050919050565b600061211982611a93565b915061212483611a93565b9250817fffffffffffffffffffffffffffffffffffffffffffffffffffffffffffffffff048311821515161561215d5761215c611d41565b5b828202905092915050565b60008151905061217781611a9d565b92915050565b600060208284031215612193576121926118ee565b5b60006121a184828501612168565b91505092915050565b60006040820190506121bf6000830185611b96565b6121cc6020830184611b3f565b9392505050565b6121dc81611b09565b81146121e757600080fd5b50565b6000815190506121f9816121d3565b92915050565b600060208284031215612215576122146118ee565b5b6000612223848285016121ea565b91505092915050565b7f6465706f73697452617465000000000000000000000000000000000000000000600082015250565b6000612262600b83611871565b915061226d8261222c565b602082019050919050565b6000602082019050818103600083015261229181612255565b905091905056fea2646970667358221220f1e93b20a3e33683627eb2a047ca3dc9b4f885c31e1710786c490a422ccd5f9d64736f6c634300080a0033",
  "immutableReferences": {},
  "source": "// SPDX-License-Identifier: UNLICENSED\r\nimport \"./INTDAO.sol\";\r\nimport \"./stableCoin.sol\";\r\nimport \"./CDP.sol\";\r\nimport \"./tokenTemplate.sol\";\r\n\r\npragma solidity >=0.4.22 <0.9.0;\r\n\r\ncontract Platform is ERC20{\r\n    uint256 public constant decimals = 18;\r\n    uint256 initialSupply = 10**6;\r\n    address tokenMinter;\r\n\r\n    string public constant name = \"Crowdfunding platform\";\r\n    string public constant symbol = \"CFP\";\r\n\r\n    mapping (address => uint256) balances;\r\n    mapping (address => mapping (address => uint256)) allowed;\r\n\r\n    INTDAO dao;\r\n    CDP cdp;\r\n    stableCoin coin;\r\n\r\n    uint256 public currentDividendsRound;\r\n    mapping (address => bool) public mintedTokens;\r\n    mapping (uint256 => address) public dividendsRounds;\r\n    mapping (uint256 => uint256) public dividendsPerRoundPerToken;\r\n    mapping (address => uint256) public lastPayedDividendsRound;\r\n\r\n    modifier onlyMinter{\r\n        require(msg.sender == tokenMinter, \"This function is for minter only\");\r\n        _;\r\n    }\r\n\r\n    constructor(address payable INTDAOaddress){\r\n        dao = INTDAO(INTDAOaddress);\r\n        coin = stableCoin(dao.addresses('stableCoin'));\r\n        cdp = CDP(dao.addresses('cdp'));\r\n        tokenMinter = msg.sender;\r\n    }\r\n\r\n    function renewContracts() public {\r\n        coin = stableCoin(dao.addresses('stableCoin'));\r\n        cdp = CDP(dao.addresses('cdp'));\r\n    }\r\n\r\n    function claimDividends(address addr) public{\r\n        uint256 divAmount;\r\n        address beneficiary;\r\n        if (isContract(addr)) {\r\n            beneficiary = tokenMinter;\r\n        }\r\n        else beneficiary = addr;\r\n        for (uint256 i=lastPayedDividendsRound[addr]; i<currentDividendsRound; i++){\r\n            ERC20 token = ERC20(dividendsRounds[i]);\r\n            divAmount = balances[addr]*dividendsPerRoundPerToken[i];\r\n            if (token.balanceOf(address(this))>=divAmount)\r\n                token.transfer(beneficiary, divAmount);\r\n            else\r\n                token.transfer(beneficiary, token.balanceOf(address(this)));\r\n        }\r\n        lastPayedDividendsRound[addr] = currentDividendsRound;\r\n    }\r\n\r\n    function isContract(address addr) internal view returns (bool) {\r\n        uint size;\r\n        assembly { size := extcodesize(addr) }\r\n        return size > 0;\r\n    }\r\n\r\n    function addMintedToken(address addr) public onlyMinter{\r\n        tokenTemplate token = tokenTemplate(addr);\r\n        require(token.platformContractAddress() == address(this));\r\n        mintedTokens[addr] = true;\r\n    }\r\n\r\n    function addDividend(address rewardToken, uint256 amount) public returns(bool success){\r\n        require(amount>0, \"dont be greedy\");\r\n        require(rewardToken == dao.addresses('stableCoin') || mintedTokens[rewardToken], \"only for authorized tokens\");\r\n        require(mintedTokens[msg.sender], \"only for authorized tokens\");\r\n        dividendsRounds[currentDividendsRound] = rewardToken;\r\n        dividendsPerRoundPerToken[currentDividendsRound] = amount/initialSupply;\r\n        currentDividendsRound++;\r\n        return true;\r\n    }\r\n\r\n    function claimInterestForMintedTokenHolder(uint256 amount, address beneficiary) public{\r\n        require(mintedTokens[msg.sender], \"only tokens, minted by the platform may claim interest\");\r\n        cdp.claimInterest(amount, beneficiary);\r\n    }\r\n\r\n    function getCurrentInterestRate() public view returns (uint256 interestRate){\r\n        return dao.params('depositRate');\r\n    }\r\n\r\n    function totalSupply() public view returns (uint256) {\r\n        return initialSupply;\r\n    }\r\n\r\n    function balanceOf(address owner) public view returns (uint256 balance) {\r\n        return balances[owner];\r\n    }\r\n\r\n    function allowance(address owner, address spender) public view returns (uint remaining) {\r\n        return allowed[owner][spender];\r\n    }\r\n\r\n    function transfer(address to, uint256 value) public returns (bool success) {\r\n        claimDividends(to);\r\n        claimDividends(msg.sender);\r\n        if (balances[msg.sender] >= value && value > 0) {\r\n            balances[msg.sender] -= value;\r\n            balances[to] += value;\r\n            emit Transfer(msg.sender, to, value);\r\n            return true;\r\n        } else {\r\n            return false;\r\n        }\r\n    }\r\n\r\n    function transferFrom(address from, address to, uint256 value) public returns (bool success) {\r\n        claimDividends(from);\r\n        claimDividends(to);\r\n        if (balances[from] >= value && allowed[from][msg.sender] >= value && value > 0) {\r\n            balances[to] += value;\r\n            balances[from] -= value;\r\n            allowed[from][msg.sender] -= value;\r\n            emit Transfer(from, to, value);\r\n            return true;\r\n        } else {\r\n            return false;\r\n        }\r\n    }\r\n\r\n    function approve(address spender, uint256 value) public returns (bool success) {\r\n        allowed[msg.sender][spender] = value;\r\n        emit Approval(msg.sender, spender, value);\r\n        return true;\r\n    }\r\n\r\n    receive() external payable {\r\n        dao.addresses('oracle').transfer(address(this).balance);\r\n    }\r\n}\r\n",
  "sourcePath": "B:\\YandexDisk\\\\ICO\\CryptoFiat\\repo\\contracts\\Platform.sol",
  "compiler": {
    "name": "solc",
    "version": "0.8.10+commit.fc410830.Emscripten.clang"
  },
  "schemaVersion": "3.4.5",
  "updatedAt": "2023-03-11T14:53:45.312Z",
  "devdoc": {
    "kind": "dev",
    "methods": {},
    "version": 1
  },
  "userdoc": {
    "kind": "user",
    "methods": {},
    "version": 1
  }
}