{
  "contractName": "Platform",
  "abi": [
    {
      "inputs": [
        {
          "internalType": "address payable",
          "name": "INTDAOaddress",
          "type": "address"
        }
      ],
      "stateMutability": "nonpayable",
      "type": "constructor"
    },
    {
      "anonymous": false,
      "inputs": [
        {
          "indexed": true,
          "internalType": "address",
          "name": "owner",
          "type": "address"
        },
        {
          "indexed": true,
          "internalType": "address",
          "name": "spender",
          "type": "address"
        },
        {
          "indexed": false,
          "internalType": "uint256",
          "name": "value",
          "type": "uint256"
        }
      ],
      "name": "Approval",
      "type": "event"
    },
    {
      "anonymous": false,
      "inputs": [
        {
          "indexed": true,
          "internalType": "address",
          "name": "from",
          "type": "address"
        },
        {
          "indexed": true,
          "internalType": "address",
          "name": "to",
          "type": "address"
        },
        {
          "indexed": false,
          "internalType": "uint256",
          "name": "value",
          "type": "uint256"
        }
      ],
      "name": "Transfer",
      "type": "event"
    },
    {
      "inputs": [],
      "name": "currentDividendsRound",
      "outputs": [
        {
          "internalType": "uint256",
          "name": "",
          "type": "uint256"
        }
      ],
      "stateMutability": "view",
      "type": "function"
    },
    {
      "inputs": [],
      "name": "decimals",
      "outputs": [
        {
          "internalType": "uint256",
          "name": "",
          "type": "uint256"
        }
      ],
      "stateMutability": "view",
      "type": "function"
    },
    {
      "inputs": [
        {
          "internalType": "uint256",
          "name": "",
          "type": "uint256"
        }
      ],
      "name": "dividendsPerRoundPerToken",
      "outputs": [
        {
          "internalType": "uint256",
          "name": "",
          "type": "uint256"
        }
      ],
      "stateMutability": "view",
      "type": "function"
    },
    {
      "inputs": [
        {
          "internalType": "uint256",
          "name": "",
          "type": "uint256"
        }
      ],
      "name": "dividendsRounds",
      "outputs": [
        {
          "internalType": "address",
          "name": "",
          "type": "address"
        }
      ],
      "stateMutability": "view",
      "type": "function"
    },
    {
      "inputs": [
        {
          "internalType": "address",
          "name": "",
          "type": "address"
        }
      ],
      "name": "lastPayedDividendsRound",
      "outputs": [
        {
          "internalType": "uint256",
          "name": "",
          "type": "uint256"
        }
      ],
      "stateMutability": "view",
      "type": "function"
    },
    {
      "inputs": [
        {
          "internalType": "address",
          "name": "",
          "type": "address"
        }
      ],
      "name": "mintedTokens",
      "outputs": [
        {
          "internalType": "bool",
          "name": "",
          "type": "bool"
        }
      ],
      "stateMutability": "view",
      "type": "function"
    },
    {
      "inputs": [],
      "name": "name",
      "outputs": [
        {
          "internalType": "string",
          "name": "",
          "type": "string"
        }
      ],
      "stateMutability": "view",
      "type": "function"
    },
    {
      "inputs": [],
      "name": "ownerAddress",
      "outputs": [
        {
          "internalType": "address",
          "name": "",
          "type": "address"
        }
      ],
      "stateMutability": "view",
      "type": "function"
    },
    {
      "inputs": [],
      "name": "symbol",
      "outputs": [
        {
          "internalType": "string",
          "name": "",
          "type": "string"
        }
      ],
      "stateMutability": "view",
      "type": "function"
    },
    {
      "inputs": [],
      "name": "tokenMinter",
      "outputs": [
        {
          "internalType": "address",
          "name": "",
          "type": "address"
        }
      ],
      "stateMutability": "view",
      "type": "function"
    },
    {
      "stateMutability": "payable",
      "type": "receive"
    },
    {
      "inputs": [
        {
          "internalType": "address",
          "name": "addr",
          "type": "address"
        }
      ],
      "name": "changeMinter",
      "outputs": [],
      "stateMutability": "nonpayable",
      "type": "function"
    },
    {
      "inputs": [],
      "name": "renewContracts",
      "outputs": [],
      "stateMutability": "nonpayable",
      "type": "function"
    },
    {
      "inputs": [
        {
          "internalType": "address",
          "name": "addr",
          "type": "address"
        }
      ],
      "name": "claimDividends",
      "outputs": [],
      "stateMutability": "nonpayable",
      "type": "function"
    },
    {
      "inputs": [
        {
          "internalType": "address",
          "name": "addr",
          "type": "address"
        }
      ],
      "name": "addMintedToken",
      "outputs": [],
      "stateMutability": "nonpayable",
      "type": "function"
    },
    {
      "inputs": [
        {
          "internalType": "address",
          "name": "rewardToken",
          "type": "address"
        },
        {
          "internalType": "uint256",
          "name": "amount",
          "type": "uint256"
        }
      ],
      "name": "addDividend",
      "outputs": [
        {
          "internalType": "bool",
          "name": "success",
          "type": "bool"
        }
      ],
      "stateMutability": "nonpayable",
      "type": "function"
    },
    {
      "inputs": [
        {
          "internalType": "uint256",
          "name": "amount",
          "type": "uint256"
        },
        {
          "internalType": "address",
          "name": "beneficiary",
          "type": "address"
        }
      ],
      "name": "claimInterestForMintedTokenHolder",
      "outputs": [],
      "stateMutability": "nonpayable",
      "type": "function"
    },
    {
      "inputs": [],
      "name": "getCurrentInterestRate",
      "outputs": [
        {
          "internalType": "uint256",
          "name": "interestRate",
          "type": "uint256"
        }
      ],
      "stateMutability": "view",
      "type": "function"
    },
    {
      "inputs": [],
      "name": "totalSupply",
      "outputs": [
        {
          "internalType": "uint256",
          "name": "",
          "type": "uint256"
        }
      ],
      "stateMutability": "view",
      "type": "function"
    },
    {
      "inputs": [
        {
          "internalType": "address",
          "name": "owner",
          "type": "address"
        }
      ],
      "name": "balanceOf",
      "outputs": [
        {
          "internalType": "uint256",
          "name": "balance",
          "type": "uint256"
        }
      ],
      "stateMutability": "view",
      "type": "function"
    },
    {
      "inputs": [
        {
          "internalType": "address",
          "name": "owner",
          "type": "address"
        },
        {
          "internalType": "address",
          "name": "spender",
          "type": "address"
        }
      ],
      "name": "allowance",
      "outputs": [
        {
          "internalType": "uint256",
          "name": "remaining",
          "type": "uint256"
        }
      ],
      "stateMutability": "view",
      "type": "function"
    },
    {
      "inputs": [
        {
          "internalType": "address",
          "name": "to",
          "type": "address"
        },
        {
          "internalType": "uint256",
          "name": "value",
          "type": "uint256"
        }
      ],
      "name": "transfer",
      "outputs": [
        {
          "internalType": "bool",
          "name": "success",
          "type": "bool"
        }
      ],
      "stateMutability": "nonpayable",
      "type": "function"
    },
    {
      "inputs": [
        {
          "internalType": "address",
          "name": "from",
          "type": "address"
        },
        {
          "internalType": "address",
          "name": "to",
          "type": "address"
        },
        {
          "internalType": "uint256",
          "name": "value",
          "type": "uint256"
        }
      ],
      "name": "transferFrom",
      "outputs": [
        {
          "internalType": "bool",
          "name": "success",
          "type": "bool"
        }
      ],
      "stateMutability": "nonpayable",
      "type": "function"
    },
    {
      "inputs": [
        {
          "internalType": "address",
          "name": "spender",
          "type": "address"
        },
        {
          "internalType": "uint256",
          "name": "value",
          "type": "uint256"
        }
      ],
      "name": "approve",
      "outputs": [
        {
          "internalType": "bool",
          "name": "success",
          "type": "bool"
        }
      ],
      "stateMutability": "nonpayable",
      "type": "function"
    }
  ],
  "bytecode": "0x6080604052620f42406000553480156200001857600080fd5b506040516200295d3803806200295d83398181016040528101906200003e919062000398565b80600560006101000a81548173ffffffffffffffffffffffffffffffffffffffff021916908373ffffffffffffffffffffffffffffffffffffffff160217905550600560009054906101000a900473ffffffffffffffffffffffffffffffffffffffff1673ffffffffffffffffffffffffffffffffffffffff1663bdfe7d476040518163ffffffff1660e01b8152600401620000da906200042b565b602060405180830381865afa158015620000f8573d6000803e3d6000fd5b505050506040513d601f19601f820116820180604052508101906200011e919062000398565b600760006101000a81548173ffffffffffffffffffffffffffffffffffffffff021916908373ffffffffffffffffffffffffffffffffffffffff160217905550600560009054906101000a900473ffffffffffffffffffffffffffffffffffffffff1673ffffffffffffffffffffffffffffffffffffffff1663bdfe7d476040518163ffffffff1660e01b8152600401620001b9906200049d565b602060405180830381865afa158015620001d7573d6000803e3d6000fd5b505050506040513d601f19601f82011682018060405250810190620001fd919062000398565b600660006101000a81548173ffffffffffffffffffffffffffffffffffffffff021916908373ffffffffffffffffffffffffffffffffffffffff16021790555033600160006101000a81548173ffffffffffffffffffffffffffffffffffffffff021916908373ffffffffffffffffffffffffffffffffffffffff16021790555033600260006101000a81548173ffffffffffffffffffffffffffffffffffffffff021916908373ffffffffffffffffffffffffffffffffffffffff16021790555060005460036000600260009054906101000a900473ffffffffffffffffffffffffffffffffffffffff1673ffffffffffffffffffffffffffffffffffffffff1673ffffffffffffffffffffffffffffffffffffffff1681526020019081526020016000208190555050620004bf565b600080fd5b600073ffffffffffffffffffffffffffffffffffffffff82169050919050565b6000620003608262000333565b9050919050565b620003728162000353565b81146200037e57600080fd5b50565b600081519050620003928162000367565b92915050565b600060208284031215620003b157620003b06200032e565b5b6000620003c18482850162000381565b91505092915050565b600082825260208201905092915050565b7f737461626c65436f696e00000000000000000000000000000000000000000000600082015250565b600062000413600a83620003ca565b91506200042082620003db565b602082019050919050565b60006020820190508181036000830152620004468162000404565b9050919050565b7f6364700000000000000000000000000000000000000000000000000000000000600082015250565b600062000485600383620003ca565b915062000492826200044d565b602082019050919050565b60006020820190508181036000830152620004b88162000476565b9050919050565b61248e80620004cf6000396000f3fe6080604052600436106101445760003560e01c80636de9944d116100b6578063af86530d1161006f578063af86530d14610581578063c7e772ed146105be578063cb1c80f8146105e7578063cfb3647b14610612578063dd62ed3e1461063d578063ff516c491461067a5761022b565b80636de9944d1461043757806370a08231146104745780637241dfa0146104b15780638f84aa09146104ee57806395d89b4114610519578063a9059cbb146105445761022b565b80631d960e6a116101085780631d960e6a1461032957806323b872dd1461036657806323d86a65146103a35780632c350879146103ba5780632c4d4d18146103e3578063313ce5671461040c5761022b565b8063068c44391461023057806306fdde0314610259578063095ea7b31461028457806312bc460d146102c157806318160ddd146102fe5761022b565b3661022b57600560009054906101000a900473ffffffffffffffffffffffffffffffffffffffff1673ffffffffffffffffffffffffffffffffffffffff1663bdfe7d476040518163ffffffff1660e01b81526004016101a290611a8e565b602060405180830381865afa1580156101bf573d6000803e3d6000fd5b505050506040513d601f19601f820116820180604052508101906101e39190611b11565b73ffffffffffffffffffffffffffffffffffffffff166108fc479081150290604051600060405180830381858888f19350505050158015610228573d6000803e3d6000fd5b50005b600080fd5b34801561023c57600080fd5b5061025760048036038101906102529190611b7c565b6106a5565b005b34801561026557600080fd5b5061026e61083c565b60405161027b9190611c31565b60405180910390f35b34801561029057600080fd5b506102ab60048036038101906102a69190611c89565b610875565b6040516102b89190611ce4565b60405180910390f35b3480156102cd57600080fd5b506102e860048036038101906102e39190611b7c565b610967565b6040516102f59190611d0e565b60405180910390f35b34801561030a57600080fd5b5061031361097f565b6040516103209190611d0e565b60405180910390f35b34801561033557600080fd5b50610350600480360381019061034b9190611d29565b610988565b60405161035d9190611d65565b60405180910390f35b34801561037257600080fd5b5061038d60048036038101906103889190611d80565b6109bb565b60405161039a9190611ce4565b60405180910390f35b3480156103af57600080fd5b506103b8610c64565b005b3480156103c657600080fd5b506103e160048036038101906103dc9190611dd3565b610e1a565b005b3480156103ef57600080fd5b5061040a60048036038101906104059190611b7c565b610f39565b005b34801561041857600080fd5b5061042161100d565b60405161042e9190611d0e565b60405180910390f35b34801561044357600080fd5b5061045e60048036038101906104599190611c89565b611012565b60405161046b9190611ce4565b60405180910390f35b34801561048057600080fd5b5061049b60048036038101906104969190611b7c565b6112da565b6040516104a89190611d0e565b60405180910390f35b3480156104bd57600080fd5b506104d860048036038101906104d39190611b7c565b611323565b6040516104e59190611ce4565b60405180910390f35b3480156104fa57600080fd5b50610503611343565b6040516105109190611d65565b60405180910390f35b34801561052557600080fd5b5061052e611369565b60405161053b9190611c31565b60405180910390f35b34801561055057600080fd5b5061056b60048036038101906105669190611c89565b6113a2565b6040516105789190611ce4565b60405180910390f35b34801561058d57600080fd5b506105a860048036038101906105a39190611d29565b61152f565b6040516105b59190611d0e565b60405180910390f35b3480156105ca57600080fd5b506105e560048036038101906105e09190611b7c565b611547565b005b3480156105f357600080fd5b506105fc6118ca565b6040516106099190611d0e565b60405180910390f35b34801561061e57600080fd5b506106276118d0565b6040516106349190611d65565b60405180910390f35b34801561064957600080fd5b50610664600480360381019061065f9190611e13565b6118f6565b6040516106719190611d0e565b60405180910390f35b34801561068657600080fd5b5061068f61197d565b60405161069c9190611d0e565b60405180910390f35b600160009054906101000a900473ffffffffffffffffffffffffffffffffffffffff1673ffffffffffffffffffffffffffffffffffffffff163373ffffffffffffffffffffffffffffffffffffffff1614610735576040517f08c379a000000000000000000000000000000000000000000000000000000000815260040161072c90611e9f565b60405180910390fd5b60008190503073ffffffffffffffffffffffffffffffffffffffff168173ffffffffffffffffffffffffffffffffffffffff1663946bb4f66040518163ffffffff1660e01b8152600401602060405180830381865afa15801561079c573d6000803e3d6000fd5b505050506040513d601f19601f820116820180604052508101906107c09190611ed4565b73ffffffffffffffffffffffffffffffffffffffff16146107e057600080fd5b6001600960008473ffffffffffffffffffffffffffffffffffffffff1673ffffffffffffffffffffffffffffffffffffffff16815260200190815260200160002060006101000a81548160ff0219169083151502179055505050565b6040518060400160405280601581526020017f43726f776466756e64696e6720706c6174666f726d000000000000000000000081525081565b600081600460003373ffffffffffffffffffffffffffffffffffffffff1673ffffffffffffffffffffffffffffffffffffffff16815260200190815260200160002060008573ffffffffffffffffffffffffffffffffffffffff1673ffffffffffffffffffffffffffffffffffffffff168152602001908152602001600020819055508273ffffffffffffffffffffffffffffffffffffffff163373ffffffffffffffffffffffffffffffffffffffff167f8c5be1e5ebec7d5bd14f71427d1e84f3dd0314c0f7b2291e5b200ac8c7c3b925846040516109559190611d0e565b60405180910390a36001905092915050565b600c6020528060005260406000206000915090505481565b60008054905090565b600a6020528060005260406000206000915054906101000a900473ffffffffffffffffffffffffffffffffffffffff1681565b60006109c684611547565b6109cf83611547565b81600360008673ffffffffffffffffffffffffffffffffffffffff1673ffffffffffffffffffffffffffffffffffffffff1681526020019081526020016000205410158015610a9a575081600460008673ffffffffffffffffffffffffffffffffffffffff1673ffffffffffffffffffffffffffffffffffffffff16815260200190815260200160002060003373ffffffffffffffffffffffffffffffffffffffff1673ffffffffffffffffffffffffffffffffffffffff1681526020019081526020016000205410155b8015610aa65750600082115b15610c585781600360008573ffffffffffffffffffffffffffffffffffffffff1673ffffffffffffffffffffffffffffffffffffffff1681526020019081526020016000206000828254610afa9190611f30565b9250508190555081600360008673ffffffffffffffffffffffffffffffffffffffff1673ffffffffffffffffffffffffffffffffffffffff1681526020019081526020016000206000828254610b509190611f86565b9250508190555081600460008673ffffffffffffffffffffffffffffffffffffffff1673ffffffffffffffffffffffffffffffffffffffff16815260200190815260200160002060003373ffffffffffffffffffffffffffffffffffffffff1673ffffffffffffffffffffffffffffffffffffffff1681526020019081526020016000206000828254610be39190611f86565b925050819055508273ffffffffffffffffffffffffffffffffffffffff168473ffffffffffffffffffffffffffffffffffffffff167fddf252ad1be2c89b69c2b068fc378daa952ba7f163c4a11628f55a4df523b3ef84604051610c479190611d0e565b60405180910390a360019050610c5d565b600090505b9392505050565b600560009054906101000a900473ffffffffffffffffffffffffffffffffffffffff1673ffffffffffffffffffffffffffffffffffffffff1663bdfe7d476040518163ffffffff1660e01b8152600401610cbd90612006565b602060405180830381865afa158015610cda573d6000803e3d6000fd5b505050506040513d601f19601f82011682018060405250810190610cfe9190611b11565b600760006101000a81548173ffffffffffffffffffffffffffffffffffffffff021916908373ffffffffffffffffffffffffffffffffffffffff160217905550600560009054906101000a900473ffffffffffffffffffffffffffffffffffffffff1673ffffffffffffffffffffffffffffffffffffffff1663bdfe7d476040518163ffffffff1660e01b8152600401610d9790612072565b602060405180830381865afa158015610db4573d6000803e3d6000fd5b505050506040513d601f19601f82011682018060405250810190610dd89190611b11565b600660006101000a81548173ffffffffffffffffffffffffffffffffffffffff021916908373ffffffffffffffffffffffffffffffffffffffff160217905550565b600960003373ffffffffffffffffffffffffffffffffffffffff1673ffffffffffffffffffffffffffffffffffffffff16815260200190815260200160002060009054906101000a900460ff16610ea6576040517f08c379a0000000000000000000000000000000000000000000000000000000008152600401610e9d90612104565b60405180910390fd5b600660009054906101000a900473ffffffffffffffffffffffffffffffffffffffff1673ffffffffffffffffffffffffffffffffffffffff16637f660be183836040518363ffffffff1660e01b8152600401610f03929190612124565b600060405180830381600087803b158015610f1d57600080fd5b505af1158015610f31573d6000803e3d6000fd5b505050505050565b600260009054906101000a900473ffffffffffffffffffffffffffffffffffffffff1673ffffffffffffffffffffffffffffffffffffffff163373ffffffffffffffffffffffffffffffffffffffff1614610fc9576040517f08c379a0000000000000000000000000000000000000000000000000000000008152600401610fc090611e9f565b60405180910390fd5b80600160006101000a81548173ffffffffffffffffffffffffffffffffffffffff021916908373ffffffffffffffffffffffffffffffffffffffff16021790555050565b601281565b6000808211611056576040517f08c379a000000000000000000000000000000000000000000000000000000000815260040161104d90612199565b60405180910390fd5b600560009054906101000a900473ffffffffffffffffffffffffffffffffffffffff1673ffffffffffffffffffffffffffffffffffffffff1663bdfe7d476040518163ffffffff1660e01b81526004016110af90612006565b602060405180830381865afa1580156110cc573d6000803e3d6000fd5b505050506040513d601f19601f820116820180604052508101906110f09190611b11565b73ffffffffffffffffffffffffffffffffffffffff168373ffffffffffffffffffffffffffffffffffffffff1614806111725750600960008473ffffffffffffffffffffffffffffffffffffffff1673ffffffffffffffffffffffffffffffffffffffff16815260200190815260200160002060009054906101000a900460ff165b6111b1576040517f08c379a00000000000000000000000000000000000000000000000000000000081526004016111a890612205565b60405180910390fd5b600960003373ffffffffffffffffffffffffffffffffffffffff1673ffffffffffffffffffffffffffffffffffffffff16815260200190815260200160002060009054906101000a900460ff1661123d576040517f08c379a000000000000000000000000000000000000000000000000000000000815260040161123490612205565b60405180910390fd5b82600a6000600854815260200190815260200160002060006101000a81548173ffffffffffffffffffffffffffffffffffffffff021916908373ffffffffffffffffffffffffffffffffffffffff1602179055506000548261129f9190612254565b600b6000600854815260200190815260200160002081905550600860008154809291906112cb90612285565b91905055506001905092915050565b6000600360008373ffffffffffffffffffffffffffffffffffffffff1673ffffffffffffffffffffffffffffffffffffffff168152602001908152602001600020549050919050565b60096020528060005260406000206000915054906101000a900460ff1681565b600260009054906101000a900473ffffffffffffffffffffffffffffffffffffffff1681565b6040518060400160405280600381526020017f434650000000000000000000000000000000000000000000000000000000000081525081565b60006113ad83611547565b6113b633611547565b81600360003373ffffffffffffffffffffffffffffffffffffffff1673ffffffffffffffffffffffffffffffffffffffff16815260200190815260200160002054101580156114055750600082115b156115245781600360003373ffffffffffffffffffffffffffffffffffffffff1673ffffffffffffffffffffffffffffffffffffffff16815260200190815260200160002060008282546114599190611f86565b9250508190555081600360008573ffffffffffffffffffffffffffffffffffffffff1673ffffffffffffffffffffffffffffffffffffffff16815260200190815260200160002060008282546114af9190611f30565b925050819055508273ffffffffffffffffffffffffffffffffffffffff163373ffffffffffffffffffffffffffffffffffffffff167fddf252ad1be2c89b69c2b068fc378daa952ba7f163c4a11628f55a4df523b3ef846040516115139190611d0e565b60405180910390a360019050611529565b600090505b92915050565b600b6020528060005260406000206000915090505481565b60008061155383611a1e565b1561158257600160009054906101000a900473ffffffffffffffffffffffffffffffffffffffff169050611586565b8290505b6000600c60008573ffffffffffffffffffffffffffffffffffffffff1673ffffffffffffffffffffffffffffffffffffffff1681526020019081526020016000205490505b60085481101561187e576000600a600083815260200190815260200160002060009054906101000a900473ffffffffffffffffffffffffffffffffffffffff169050600b600083815260200190815260200160002054600360008773ffffffffffffffffffffffffffffffffffffffff1673ffffffffffffffffffffffffffffffffffffffff1681526020019081526020016000205461166b91906122ce565b9350838173ffffffffffffffffffffffffffffffffffffffff166370a08231306040518263ffffffff1660e01b81526004016116a79190611d65565b602060405180830381865afa1580156116c4573d6000803e3d6000fd5b505050506040513d601f19601f820116820180604052508101906116e8919061233d565b10611771578073ffffffffffffffffffffffffffffffffffffffff1663a9059cbb84866040518363ffffffff1660e01b815260040161172892919061236a565b6020604051808303816000875af1158015611747573d6000803e3d6000fd5b505050506040513d601f19601f8201168201806040525081019061176b91906123bf565b5061186a565b8073ffffffffffffffffffffffffffffffffffffffff1663a9059cbb848373ffffffffffffffffffffffffffffffffffffffff166370a08231306040518263ffffffff1660e01b81526004016117c79190611d65565b602060405180830381865afa1580156117e4573d6000803e3d6000fd5b505050506040513d601f19601f82011682018060405250810190611808919061233d565b6040518363ffffffff1660e01b815260040161182592919061236a565b6020604051808303816000875af1158015611844573d6000803e3d6000fd5b505050506040513d601f19601f8201168201806040525081019061186891906123bf565b505b50808061187690612285565b9150506115cb565b50600854600c60008573ffffffffffffffffffffffffffffffffffffffff1673ffffffffffffffffffffffffffffffffffffffff16815260200190815260200160002081905550505050565b60085481565b600160009054906101000a900473ffffffffffffffffffffffffffffffffffffffff1681565b6000600460008473ffffffffffffffffffffffffffffffffffffffff1673ffffffffffffffffffffffffffffffffffffffff16815260200190815260200160002060008373ffffffffffffffffffffffffffffffffffffffff1673ffffffffffffffffffffffffffffffffffffffff16815260200190815260200160002054905092915050565b6000600560009054906101000a900473ffffffffffffffffffffffffffffffffffffffff1673ffffffffffffffffffffffffffffffffffffffff1663145f822b6040518163ffffffff1660e01b81526004016119d890612438565b602060405180830381865afa1580156119f5573d6000803e3d6000fd5b505050506040513d601f19601f82011682018060405250810190611a19919061233d565b905090565b600080823b905060008111915050919050565b600082825260208201905092915050565b7f6f7261636c650000000000000000000000000000000000000000000000000000600082015250565b6000611a78600683611a31565b9150611a8382611a42565b602082019050919050565b60006020820190508181036000830152611aa781611a6b565b9050919050565b600080fd5b600073ffffffffffffffffffffffffffffffffffffffff82169050919050565b6000611ade82611ab3565b9050919050565b611aee81611ad3565b8114611af957600080fd5b50565b600081519050611b0b81611ae5565b92915050565b600060208284031215611b2757611b26611aae565b5b6000611b3584828501611afc565b91505092915050565b6000611b4982611ab3565b9050919050565b611b5981611b3e565b8114611b6457600080fd5b50565b600081359050611b7681611b50565b92915050565b600060208284031215611b9257611b91611aae565b5b6000611ba084828501611b67565b91505092915050565b600081519050919050565b60005b83811015611bd2578082015181840152602081019050611bb7565b83811115611be1576000848401525b50505050565b6000601f19601f8301169050919050565b6000611c0382611ba9565b611c0d8185611a31565b9350611c1d818560208601611bb4565b611c2681611be7565b840191505092915050565b60006020820190508181036000830152611c4b8184611bf8565b905092915050565b6000819050919050565b611c6681611c53565b8114611c7157600080fd5b50565b600081359050611c8381611c5d565b92915050565b60008060408385031215611ca057611c9f611aae565b5b6000611cae85828601611b67565b9250506020611cbf85828601611c74565b9150509250929050565b60008115159050919050565b611cde81611cc9565b82525050565b6000602082019050611cf96000830184611cd5565b92915050565b611d0881611c53565b82525050565b6000602082019050611d236000830184611cff565b92915050565b600060208284031215611d3f57611d3e611aae565b5b6000611d4d84828501611c74565b91505092915050565b611d5f81611b3e565b82525050565b6000602082019050611d7a6000830184611d56565b92915050565b600080600060608486031215611d9957611d98611aae565b5b6000611da786828701611b67565b9350506020611db886828701611b67565b9250506040611dc986828701611c74565b9150509250925092565b60008060408385031215611dea57611de9611aae565b5b6000611df885828601611c74565b9250506020611e0985828601611b67565b9150509250929050565b60008060408385031215611e2a57611e29611aae565b5b6000611e3885828601611b67565b9250506020611e4985828601611b67565b9150509250929050565b7f546869732066756e6374696f6e20697320666f72206d696e746572206f6e6c79600082015250565b6000611e89602083611a31565b9150611e9482611e53565b602082019050919050565b60006020820190508181036000830152611eb881611e7c565b9050919050565b600081519050611ece81611b50565b92915050565b600060208284031215611eea57611ee9611aae565b5b6000611ef884828501611ebf565b91505092915050565b7f4e487b7100000000000000000000000000000000000000000000000000000000600052601160045260246000fd5b6000611f3b82611c53565b9150611f4683611c53565b9250827fffffffffffffffffffffffffffffffffffffffffffffffffffffffffffffffff03821115611f7b57611f7a611f01565b5b828201905092915050565b6000611f9182611c53565b9150611f9c83611c53565b925082821015611faf57611fae611f01565b5b828203905092915050565b7f737461626c65436f696e00000000000000000000000000000000000000000000600082015250565b6000611ff0600a83611a31565b9150611ffb82611fba565b602082019050919050565b6000602082019050818103600083015261201f81611fe3565b9050919050565b7f6364700000000000000000000000000000000000000000000000000000000000600082015250565b600061205c600383611a31565b915061206782612026565b602082019050919050565b6000602082019050818103600083015261208b8161204f565b9050919050565b7f6f6e6c7920746f6b656e732c206d696e7465642062792074686520706c61746660008201527f6f726d206d617920636c61696d20696e74657265737400000000000000000000602082015250565b60006120ee603683611a31565b91506120f982612092565b604082019050919050565b6000602082019050818103600083015261211d816120e1565b9050919050565b60006040820190506121396000830185611cff565b6121466020830184611d56565b9392505050565b7f646f6e7420626520677265656479000000000000000000000000000000000000600082015250565b6000612183600e83611a31565b915061218e8261214d565b602082019050919050565b600060208201905081810360008301526121b281612176565b9050919050565b7f6f6e6c7920666f7220617574686f72697a656420746f6b656e73000000000000600082015250565b60006121ef601a83611a31565b91506121fa826121b9565b602082019050919050565b6000602082019050818103600083015261221e816121e2565b9050919050565b7f4e487b7100000000000000000000000000000000000000000000000000000000600052601260045260246000fd5b600061225f82611c53565b915061226a83611c53565b92508261227a57612279612225565b5b828204905092915050565b600061229082611c53565b91507fffffffffffffffffffffffffffffffffffffffffffffffffffffffffffffffff8214156122c3576122c2611f01565b5b600182019050919050565b60006122d982611c53565b91506122e483611c53565b9250817fffffffffffffffffffffffffffffffffffffffffffffffffffffffffffffffff048311821515161561231d5761231c611f01565b5b828202905092915050565b60008151905061233781611c5d565b92915050565b60006020828403121561235357612352611aae565b5b600061236184828501612328565b91505092915050565b600060408201905061237f6000830185611d56565b61238c6020830184611cff565b9392505050565b61239c81611cc9565b81146123a757600080fd5b50565b6000815190506123b981612393565b92915050565b6000602082840312156123d5576123d4611aae565b5b60006123e3848285016123aa565b91505092915050565b7f6465706f73697452617465000000000000000000000000000000000000000000600082015250565b6000612422600b83611a31565b915061242d826123ec565b602082019050919050565b6000602082019050818103600083015261245181612415565b905091905056fea2646970667358221220f2ccb8f708f2fb4211626881a26160c2a4df9bafb25bda45e6cc76b4089297be64736f6c634300080a0033",
  "immutableReferences": {},
  "source": "// SPDX-License-Identifier: UNLICENSED\r\nimport \"./INTDAO.sol\";\r\nimport \"./stableCoin.sol\";\r\nimport \"./CDP.sol\";\r\nimport \"./tokenTemplate.sol\";\r\n\r\npragma solidity >=0.4.22 <0.9.0;\r\n\r\ncontract Platform is ERC20{\r\n    uint256 public constant decimals = 18;\r\n    uint256 initialSupply = 10**6;\r\n    address public tokenMinter;\r\n    address public ownerAddress;\r\n\r\n    string public constant name = \"Crowdfunding platform\";\r\n    string public constant symbol = \"CFP\";\r\n\r\n    mapping (address => uint256) balances;\r\n    mapping (address => mapping (address => uint256)) allowed;\r\n\r\n    INTDAO dao;\r\n    CDP cdp;\r\n    stableCoin coin;\r\n\r\n    uint256 public currentDividendsRound;\r\n    mapping (address => bool) public mintedTokens;\r\n    mapping (uint256 => address) public dividendsRounds;\r\n    mapping (uint256 => uint256) public dividendsPerRoundPerToken;\r\n    mapping (address => uint256) public lastPayedDividendsRound;\r\n\r\n    modifier onlyMinter{\r\n        require(msg.sender == tokenMinter, \"This function is for minter only\");\r\n        _;\r\n    }\r\n\r\n    modifier onlyOwner{\r\n        require(msg.sender == ownerAddress, \"This function is for minter only\");\r\n        _;\r\n    }\r\n\r\n    constructor(address payable INTDAOaddress){\r\n        dao = INTDAO(INTDAOaddress);\r\n        coin = stableCoin(dao.addresses('stableCoin'));\r\n        cdp = CDP(dao.addresses('cdp'));\r\n        tokenMinter = msg.sender;\r\n        ownerAddress = msg.sender;\r\n        balances[ownerAddress] = initialSupply;\r\n    }\r\n\r\n    function changeMinter(address addr) public onlyOwner{\r\n        tokenMinter = addr;\r\n    }\r\n\r\n    function renewContracts() public {\r\n        coin = stableCoin(dao.addresses('stableCoin'));\r\n        cdp = CDP(dao.addresses('cdp'));\r\n    }\r\n\r\n    function claimDividends(address addr) public{\r\n        uint256 divAmount;\r\n        address beneficiary;\r\n        if (isContract(addr)) {\r\n            beneficiary = tokenMinter;\r\n        }\r\n        else beneficiary = addr;\r\n        for (uint256 i=lastPayedDividendsRound[addr]; i<currentDividendsRound; i++){\r\n            ERC20 token = ERC20(dividendsRounds[i]);\r\n            divAmount = balances[addr]*dividendsPerRoundPerToken[i];\r\n            if (token.balanceOf(address(this))>=divAmount)\r\n                token.transfer(beneficiary, divAmount);\r\n            else\r\n                token.transfer(beneficiary, token.balanceOf(address(this)));\r\n        }\r\n        lastPayedDividendsRound[addr] = currentDividendsRound;\r\n    }\r\n\r\n    function isContract(address addr) internal view returns (bool) {\r\n        uint size;\r\n        assembly { size := extcodesize(addr) }\r\n        return size > 0;\r\n    }\r\n\r\n    function addMintedToken(address addr) public onlyMinter{\r\n        tokenTemplate token = tokenTemplate(addr);\r\n        require(token.platformContractAddress() == address(this));\r\n        mintedTokens[addr] = true;\r\n    }\r\n\r\n    function addDividend(address rewardToken, uint256 amount) public returns(bool success){\r\n        require(amount>0, \"dont be greedy\");\r\n        require(rewardToken == dao.addresses('stableCoin') || mintedTokens[rewardToken], \"only for authorized tokens\");\r\n        require(mintedTokens[msg.sender], \"only for authorized tokens\");\r\n        dividendsRounds[currentDividendsRound] = rewardToken;\r\n        dividendsPerRoundPerToken[currentDividendsRound] = amount/initialSupply;\r\n        currentDividendsRound++;\r\n        return true;\r\n    }\r\n\r\n    function claimInterestForMintedTokenHolder(uint256 amount, address beneficiary) public{\r\n        require(mintedTokens[msg.sender], \"only tokens, minted by the platform may claim interest\");\r\n        cdp.claimInterest(amount, beneficiary);\r\n    }\r\n\r\n    function getCurrentInterestRate() public view returns (uint256 interestRate){\r\n        return dao.params('depositRate');\r\n    }\r\n\r\n    function totalSupply() public view returns (uint256) {\r\n        return initialSupply;\r\n    }\r\n\r\n    function balanceOf(address owner) public view returns (uint256 balance) {\r\n        return balances[owner];\r\n    }\r\n\r\n    function allowance(address owner, address spender) public view returns (uint remaining) {\r\n        return allowed[owner][spender];\r\n    }\r\n\r\n    function transfer(address to, uint256 value) public returns (bool success) {\r\n        claimDividends(to);\r\n        claimDividends(msg.sender);\r\n        if (balances[msg.sender] >= value && value > 0) {\r\n            balances[msg.sender] -= value;\r\n            balances[to] += value;\r\n            emit Transfer(msg.sender, to, value);\r\n            return true;\r\n        } else {\r\n            return false;\r\n        }\r\n    }\r\n\r\n    function transferFrom(address from, address to, uint256 value) public returns (bool success) {\r\n        claimDividends(from);\r\n        claimDividends(to);\r\n        if (balances[from] >= value && allowed[from][msg.sender] >= value && value > 0) {\r\n            balances[to] += value;\r\n            balances[from] -= value;\r\n            allowed[from][msg.sender] -= value;\r\n            emit Transfer(from, to, value);\r\n            return true;\r\n        } else {\r\n            return false;\r\n        }\r\n    }\r\n\r\n    function approve(address spender, uint256 value) public returns (bool success) {\r\n        allowed[msg.sender][spender] = value;\r\n        emit Approval(msg.sender, spender, value);\r\n        return true;\r\n    }\r\n\r\n    receive() external payable {\r\n        dao.addresses('oracle').transfer(address(this).balance);\r\n    }\r\n}\r\n",
  "sourcePath": "B:\\YandexDisk\\\\ICO\\CryptoFiat\\repo\\contracts\\Platform.sol",
  "compiler": {
    "name": "solc",
    "version": "0.8.10+commit.fc410830.Emscripten.clang"
  },
  "schemaVersion": "3.4.5",
  "updatedAt": "2023-03-12T03:39:17.121Z",
  "devdoc": {
    "kind": "dev",
    "methods": {},
    "version": 1
  },
  "userdoc": {
    "kind": "user",
    "methods": {},
    "version": 1
  }
}