{
  "contractName": "Platform",
  "abi": [
    {
      "inputs": [
        {
          "internalType": "address payable",
          "name": "INTDAOaddress",
          "type": "address"
        }
      ],
      "stateMutability": "nonpayable",
      "type": "constructor"
    },
    {
      "anonymous": false,
      "inputs": [
        {
          "indexed": true,
          "internalType": "address",
          "name": "owner",
          "type": "address"
        },
        {
          "indexed": true,
          "internalType": "address",
          "name": "spender",
          "type": "address"
        },
        {
          "indexed": false,
          "internalType": "uint256",
          "name": "value",
          "type": "uint256"
        }
      ],
      "name": "Approval",
      "type": "event"
    },
    {
      "anonymous": false,
      "inputs": [
        {
          "indexed": true,
          "internalType": "address",
          "name": "from",
          "type": "address"
        },
        {
          "indexed": true,
          "internalType": "address",
          "name": "to",
          "type": "address"
        },
        {
          "indexed": false,
          "internalType": "uint256",
          "name": "value",
          "type": "uint256"
        }
      ],
      "name": "Transfer",
      "type": "event"
    },
    {
      "anonymous": false,
      "inputs": [
        {
          "indexed": false,
          "internalType": "uint256",
          "name": "round",
          "type": "uint256"
        },
        {
          "indexed": false,
          "internalType": "address",
          "name": "rewardToken",
          "type": "address"
        },
        {
          "indexed": false,
          "internalType": "uint256",
          "name": "amount",
          "type": "uint256"
        }
      ],
      "name": "newDividendsRound",
      "type": "event"
    },
    {
      "inputs": [
        {
          "internalType": "address",
          "name": "owner",
          "type": "address"
        },
        {
          "internalType": "address",
          "name": "spender",
          "type": "address"
        }
      ],
      "name": "allowance",
      "outputs": [
        {
          "internalType": "uint256",
          "name": "",
          "type": "uint256"
        }
      ],
      "stateMutability": "view",
      "type": "function"
    },
    {
      "inputs": [
        {
          "internalType": "address",
          "name": "spender",
          "type": "address"
        },
        {
          "internalType": "uint256",
          "name": "amount",
          "type": "uint256"
        }
      ],
      "name": "approve",
      "outputs": [
        {
          "internalType": "bool",
          "name": "",
          "type": "bool"
        }
      ],
      "stateMutability": "nonpayable",
      "type": "function"
    },
    {
      "inputs": [
        {
          "internalType": "address",
          "name": "account",
          "type": "address"
        }
      ],
      "name": "balanceOf",
      "outputs": [
        {
          "internalType": "uint256",
          "name": "",
          "type": "uint256"
        }
      ],
      "stateMutability": "view",
      "type": "function"
    },
    {
      "inputs": [],
      "name": "currentDividendsRound",
      "outputs": [
        {
          "internalType": "uint256",
          "name": "",
          "type": "uint256"
        }
      ],
      "stateMutability": "view",
      "type": "function"
    },
    {
      "inputs": [],
      "name": "decimals",
      "outputs": [
        {
          "internalType": "uint8",
          "name": "",
          "type": "uint8"
        }
      ],
      "stateMutability": "view",
      "type": "function"
    },
    {
      "inputs": [
        {
          "internalType": "address",
          "name": "spender",
          "type": "address"
        },
        {
          "internalType": "uint256",
          "name": "subtractedValue",
          "type": "uint256"
        }
      ],
      "name": "decreaseAllowance",
      "outputs": [
        {
          "internalType": "bool",
          "name": "",
          "type": "bool"
        }
      ],
      "stateMutability": "nonpayable",
      "type": "function"
    },
    {
      "inputs": [
        {
          "internalType": "uint256",
          "name": "",
          "type": "uint256"
        }
      ],
      "name": "dividendsPerRoundPerToken",
      "outputs": [
        {
          "internalType": "uint256",
          "name": "",
          "type": "uint256"
        }
      ],
      "stateMutability": "view",
      "type": "function"
    },
    {
      "inputs": [
        {
          "internalType": "uint256",
          "name": "",
          "type": "uint256"
        }
      ],
      "name": "dividendsRounds",
      "outputs": [
        {
          "internalType": "address",
          "name": "",
          "type": "address"
        }
      ],
      "stateMutability": "view",
      "type": "function"
    },
    {
      "inputs": [
        {
          "internalType": "address",
          "name": "spender",
          "type": "address"
        },
        {
          "internalType": "uint256",
          "name": "addedValue",
          "type": "uint256"
        }
      ],
      "name": "increaseAllowance",
      "outputs": [
        {
          "internalType": "bool",
          "name": "",
          "type": "bool"
        }
      ],
      "stateMutability": "nonpayable",
      "type": "function"
    },
    {
      "inputs": [
        {
          "internalType": "address",
          "name": "",
          "type": "address"
        }
      ],
      "name": "isMintedByPlatform",
      "outputs": [
        {
          "internalType": "bool",
          "name": "",
          "type": "bool"
        }
      ],
      "stateMutability": "view",
      "type": "function"
    },
    {
      "inputs": [
        {
          "internalType": "address",
          "name": "",
          "type": "address"
        }
      ],
      "name": "lastPayedDividendsRound",
      "outputs": [
        {
          "internalType": "uint256",
          "name": "",
          "type": "uint256"
        }
      ],
      "stateMutability": "view",
      "type": "function"
    },
    {
      "inputs": [],
      "name": "mintedNum",
      "outputs": [
        {
          "internalType": "uint256",
          "name": "",
          "type": "uint256"
        }
      ],
      "stateMutability": "view",
      "type": "function"
    },
    {
      "inputs": [
        {
          "internalType": "uint256",
          "name": "",
          "type": "uint256"
        }
      ],
      "name": "mintedTokens",
      "outputs": [
        {
          "internalType": "address",
          "name": "",
          "type": "address"
        }
      ],
      "stateMutability": "view",
      "type": "function"
    },
    {
      "inputs": [],
      "name": "name",
      "outputs": [
        {
          "internalType": "string",
          "name": "",
          "type": "string"
        }
      ],
      "stateMutability": "view",
      "type": "function"
    },
    {
      "inputs": [],
      "name": "ownerAddress",
      "outputs": [
        {
          "internalType": "address",
          "name": "",
          "type": "address"
        }
      ],
      "stateMutability": "view",
      "type": "function"
    },
    {
      "inputs": [],
      "name": "symbol",
      "outputs": [
        {
          "internalType": "string",
          "name": "",
          "type": "string"
        }
      ],
      "stateMutability": "view",
      "type": "function"
    },
    {
      "inputs": [],
      "name": "tokenMinter",
      "outputs": [
        {
          "internalType": "address",
          "name": "",
          "type": "address"
        }
      ],
      "stateMutability": "view",
      "type": "function"
    },
    {
      "inputs": [],
      "name": "totalSupply",
      "outputs": [
        {
          "internalType": "uint256",
          "name": "",
          "type": "uint256"
        }
      ],
      "stateMutability": "view",
      "type": "function"
    },
    {
      "inputs": [
        {
          "internalType": "address",
          "name": "to",
          "type": "address"
        },
        {
          "internalType": "uint256",
          "name": "amount",
          "type": "uint256"
        }
      ],
      "name": "transfer",
      "outputs": [
        {
          "internalType": "bool",
          "name": "",
          "type": "bool"
        }
      ],
      "stateMutability": "nonpayable",
      "type": "function"
    },
    {
      "inputs": [
        {
          "internalType": "address",
          "name": "from",
          "type": "address"
        },
        {
          "internalType": "address",
          "name": "to",
          "type": "address"
        },
        {
          "internalType": "uint256",
          "name": "amount",
          "type": "uint256"
        }
      ],
      "name": "transferFrom",
      "outputs": [
        {
          "internalType": "bool",
          "name": "",
          "type": "bool"
        }
      ],
      "stateMutability": "nonpayable",
      "type": "function"
    },
    {
      "stateMutability": "payable",
      "type": "receive"
    },
    {
      "inputs": [
        {
          "internalType": "address",
          "name": "addr",
          "type": "address"
        }
      ],
      "name": "changeMinter",
      "outputs": [],
      "stateMutability": "nonpayable",
      "type": "function"
    },
    {
      "inputs": [],
      "name": "renewContracts",
      "outputs": [],
      "stateMutability": "nonpayable",
      "type": "function"
    },
    {
      "inputs": [
        {
          "internalType": "address",
          "name": "addr",
          "type": "address"
        }
      ],
      "name": "claimDividends",
      "outputs": [],
      "stateMutability": "nonpayable",
      "type": "function"
    },
    {
      "inputs": [
        {
          "internalType": "address",
          "name": "addr",
          "type": "address"
        }
      ],
      "name": "addMintedToken",
      "outputs": [],
      "stateMutability": "nonpayable",
      "type": "function"
    },
    {
      "inputs": [
        {
          "internalType": "address",
          "name": "rewardToken",
          "type": "address"
        },
        {
          "internalType": "uint256",
          "name": "amount",
          "type": "uint256"
        }
      ],
      "name": "addDividend",
      "outputs": [
        {
          "internalType": "bool",
          "name": "success",
          "type": "bool"
        }
      ],
      "stateMutability": "nonpayable",
      "type": "function"
    },
    {
      "inputs": [
        {
          "internalType": "uint256",
          "name": "amount",
          "type": "uint256"
        },
        {
          "internalType": "address",
          "name": "beneficiary",
          "type": "address"
        }
      ],
      "name": "claimInterestForMintedTokenHolder",
      "outputs": [],
      "stateMutability": "nonpayable",
      "type": "function"
    },
    {
      "inputs": [],
      "name": "getCurrentInterestRate",
      "outputs": [
        {
          "internalType": "uint256",
          "name": "interestRate",
          "type": "uint256"
        }
      ],
      "stateMutability": "view",
      "type": "function"
    }
  ],
  "bytecode": "0x60806040523480156200001157600080fd5b5060405162001cfa38038062001cfa833981016040819052620000349162000378565b6040518060400160405280601581526020017f43726f776466756e64696e6720706c6174666f726d00000000000000000000008152506040518060400160405280600381526020016204346560ec1b81525081600390816200009791906200044e565b506004620000a682826200044e565b505050620000be33620f4240620002ad60201b60201c565b600880546001600160a01b0319166001600160a01b03831690811790915560405163bdfe7d4760e01b815260206004820152600a60248201526939ba30b13632a1b7b4b760b11b604482015263bdfe7d4790606401602060405180830381865afa15801562000131573d6000803e3d6000fd5b505050506040513d601f19601f8201168201806040525081019062000157919062000378565b600a80546001600160a01b0319166001600160a01b0392831617905560085460405163bdfe7d4760e01b815260206004820152600360248201526206364760ec1b604482015291169063bdfe7d4790606401602060405180830381865afa158015620001c7573d6000803e3d6000fd5b505050506040513d601f19601f82011682018060405250810190620001ed919062000378565b600980546001600160a01b0319166001600160a01b03928316179055600880546040805163155ef82760e11b81526004810191909152604481019290925267706c6174666f726d60c01b606483015230602483015290911690632abdf04e90608401600060405180830381600087803b1580156200026a57600080fd5b505af11580156200027f573d6000803e3d6000fd5b505060058054336001600160a01b031991821681179092556006805490911690911790555062000542915050565b6001600160a01b038216620003085760405162461bcd60e51b815260206004820152601f60248201527f45524332303a206d696e7420746f20746865207a65726f206164647265737300604482015260640160405180910390fd5b80600260008282546200031c91906200051a565b90915550506001600160a01b038216600081815260208181526040808320805486019055518481527fddf252ad1be2c89b69c2b068fc378daa952ba7f163c4a11628f55a4df523b3ef910160405180910390a35050565b505050565b6000602082840312156200038b57600080fd5b81516001600160a01b0381168114620003a357600080fd5b9392505050565b634e487b7160e01b600052604160045260246000fd5b600181811c90821680620003d557607f821691505b602082108103620003f657634e487b7160e01b600052602260045260246000fd5b50919050565b601f8211156200037357600081815260208120601f850160051c81016020861015620004255750805b601f850160051c820191505b81811015620004465782815560010162000431565b505050505050565b81516001600160401b038111156200046a576200046a620003aa565b62000482816200047b8454620003c0565b84620003fc565b602080601f831160018114620004ba5760008415620004a15750858301515b600019600386901b1c1916600185901b17855562000446565b600085815260208120601f198616915b82811015620004eb57888601518255948401946001909101908401620004ca565b50858210156200050a5787850151600019600388901b60f8161c191681555b5050505050600190811b01905550565b808201808211156200053c57634e487b7160e01b600052601160045260246000fd5b92915050565b6117a880620005526000396000f3fe6080604052600436106101405760003560e01c8063068c44391461020757806306fdde0314610227578063095ea7b3146102525780630d1134731461028257806312bc460d146102a657806318160ddd146102d35780631d960e6a146102e857806323b872dd1461032b57806323d86a651461034b5780632c350879146103605780632c4d4d1814610380578063313ce567146103a057806339509351146103bc5780636de9944d146103dc57806370a08231146103fc5780637ef758d41461041c5780638f84aa091461045257806395d89b4114610472578063a457c2d714610487578063a9059cbb146104a7578063af86530d146104c7578063c7e772ed146104f4578063c98df8c514610514578063cb1c80f814610544578063cfb3647b1461055a578063dd62ed3e1461057a578063ff516c491461059a57600080fd5b366102025760085460405163bdfe7d4760e01b81526020600482015260066024820152656f7261636c6560d01b60448201526001600160a01b039091169063bdfe7d4790606401602060405180830381865afa1580156101a4573d6000803e3d6000fd5b505050506040513d601f19601f820116820180604052508101906101c89190611362565b6001600160a01b03166108fc479081150290604051600060405180830381858888f19350505050158015610200573d6000803e3d6000fd5b005b600080fd5b34801561021357600080fd5b50610200610222366004611386565b6105af565b34801561023357600080fd5b5061023c6106c1565b60405161024991906113a3565b60405180910390f35b34801561025e57600080fd5b5061027261026d3660046113f1565b610753565b6040519015158152602001610249565b34801561028e57600080fd5b5061029860075481565b604051908152602001610249565b3480156102b257600080fd5b506102986102c1366004611386565b60106020526000908152604090205481565b3480156102df57600080fd5b50600254610298565b3480156102f457600080fd5b5061031e61030336600461141d565b600e602052600090815260409020546001600160a01b031681565b6040516102499190611436565b34801561033757600080fd5b5061027261034636600461144a565b61076d565b34801561035757600080fd5b50610200610791565b34801561036c57600080fd5b5061020061037b36600461148b565b6108b5565b34801561038c57600080fd5b5061020061039b366004611386565b61099d565b3480156103ac57600080fd5b5060405160128152602001610249565b3480156103c857600080fd5b506102726103d73660046113f1565b6109e9565b3480156103e857600080fd5b506102726103f73660046113f1565b610a0b565b34801561040857600080fd5b50610298610417366004611386565b610c0f565b34801561042857600080fd5b5061031e61043736600461141d565b600d602052600090815260409020546001600160a01b031681565b34801561045e57600080fd5b5060065461031e906001600160a01b031681565b34801561047e57600080fd5b5061023c610c2a565b34801561049357600080fd5b506102726104a23660046113f1565b610c39565b3480156104b357600080fd5b506102726104c23660046113f1565b610cb4565b3480156104d357600080fd5b506102986104e236600461141d565b600f6020526000908152604090205481565b34801561050057600080fd5b5061020061050f366004611386565b610cc2565b34801561052057600080fd5b5061027261052f366004611386565b600c6020526000908152604090205460ff1681565b34801561055057600080fd5b50610298600b5481565b34801561056657600080fd5b5060055461031e906001600160a01b031681565b34801561058657600080fd5b506102986105953660046114bb565b610f4f565b3480156105a657600080fd5b50610298610f7a565b6005546001600160a01b031633146105e25760405162461bcd60e51b81526004016105d9906114e9565b60405180910390fd5b6000819050306001600160a01b0316816001600160a01b031663946bb4f66040518163ffffffff1660e01b8152600401602060405180830381865afa15801561062f573d6000803e3d6000fd5b505050506040513d601f19601f820116820180604052508101906106539190611362565b6001600160a01b03161461066657600080fd5b6001600160a01b0382166000818152600c60209081526040808320805460ff19166001179055600780548452600d909252822080546001600160a01b031916909317909255815491906106b883611534565b91905055505050565b6060600380546106d09061154d565b80601f01602080910402602001604051908101604052809291908181526020018280546106fc9061154d565b80156107495780601f1061071e57610100808354040283529160200191610749565b820191906000526020600020905b81548152906001019060200180831161072c57829003601f168201915b5050505050905090565b600033610761818585611008565b60019150505b92915050565b60003361077b85828561112c565b6107868585856111a6565b506001949350505050565b60085460405163bdfe7d4760e01b81526001600160a01b039091169063bdfe7d47906107bf90600401611587565b602060405180830381865afa1580156107dc573d6000803e3d6000fd5b505050506040513d601f19601f820116820180604052508101906108009190611362565b600a80546001600160a01b0319166001600160a01b0392831617905560085460405163bdfe7d4760e01b815260206004820152600360248201526206364760ec1b604482015291169063bdfe7d4790606401602060405180830381865afa15801561086f573d6000803e3d6000fd5b505050506040513d601f19601f820116820180604052508101906108939190611362565b600980546001600160a01b0319166001600160a01b0392909216919091179055565b336000908152600c602052604090205460ff166109335760405162461bcd60e51b815260206004820152603660248201527f6f6e6c7920746f6b656e732c206d696e7465642062792074686520706c6174666044820152751bdc9b481b585e4818db185a5b481a5b9d195c995cdd60521b60648201526084016105d9565b600954604051637f660be160e01b8152600481018490526001600160a01b03838116602483015290911690637f660be190604401600060405180830381600087803b15801561098157600080fd5b505af1158015610995573d6000803e3d6000fd5b505050505050565b6006546001600160a01b031633146109c75760405162461bcd60e51b81526004016105d9906114e9565b600580546001600160a01b0319166001600160a01b0392909216919091179055565b6000336107618185856109fc8383610f4f565b610a0691906115ab565b611008565b6000808211610a4d5760405162461bcd60e51b815260206004820152600e60248201526d646f6e742062652067726565647960901b60448201526064016105d9565b60085460405163bdfe7d4760e01b81526001600160a01b039091169063bdfe7d4790610a7b90600401611587565b602060405180830381865afa158015610a98573d6000803e3d6000fd5b505050506040513d601f19601f82011682018060405250810190610abc9190611362565b6001600160a01b0316836001600160a01b03161480610af357506001600160a01b0383166000908152600c602052604090205460ff165b610b0f5760405162461bcd60e51b81526004016105d9906115be565b336000908152600c602052604090205460ff16610b3e5760405162461bcd60e51b81526004016105d9906115be565b600b546000908152600e6020526040902080546001600160a01b0319166001600160a01b038516179055600254826012610b7990600a6116d6565b610b8391906116e5565b610b8d91906116fc565b600b80546000908152600f602090815260409182902093909355905481519081526001600160a01b0386169281019290925281018390527f1376b5062146706e44d67ac2b98488ecfbacc14bf5603aa8abb88124c9fd1b079060600160405180910390a1600b8054906000610c0183611534565b909155506001949350505050565b6001600160a01b031660009081526020819052604090205490565b6060600480546106d09061154d565b60003381610c478286610f4f565b905083811015610ca75760405162461bcd60e51b815260206004820152602560248201527f45524332303a2064656372656173656420616c6c6f77616e63652062656c6f77604482015264207a65726f60d81b60648201526084016105d9565b6107868286868403611008565b6000336107618185856111a6565b600080823b15610cde57506005546001600160a01b0316610ce1565b50815b6001600160a01b0383166000908152601060205260409020545b600b54811015610f2a576000818152600e6020908152604080832054600f909252909120546001600160a01b0390911690670de0b6b3a7640000610d3e87610c0f565b610d4891906116fc565b610d5291906116e5565b935083816001600160a01b03166370a08231306040518263ffffffff1660e01b8152600401610d819190611436565b602060405180830381865afa158015610d9e573d6000803e3d6000fd5b505050506040513d601f19601f82011682018060405250810190610dc2919061171e565b10610e3e5760405163a9059cbb60e01b81526001600160a01b0382169063a9059cbb90610df59086908890600401611737565b6020604051808303816000875af1158015610e14573d6000803e3d6000fd5b505050506040513d601f19601f82011682018060405250810190610e389190611750565b50610f17565b6040516370a0823160e01b81526001600160a01b0382169063a9059cbb90859083906370a0823190610e74903090600401611436565b602060405180830381865afa158015610e91573d6000803e3d6000fd5b505050506040513d601f19601f82011682018060405250810190610eb5919061171e565b6040518363ffffffff1660e01b8152600401610ed2929190611737565b6020604051808303816000875af1158015610ef1573d6000803e3d6000fd5b505050506040513d601f19601f82011682018060405250810190610f159190611750565b505b5080610f2281611534565b915050610cfb565b5050600b546001600160a01b0390921660009081526010602052604090209190915550565b6001600160a01b03918216600090815260016020908152604080832093909416825291909152205490565b60085460405163145f822b60e01b815260206004820152600b60248201526a6465706f7369745261746560a81b60448201526000916001600160a01b03169063145f822b90606401602060405180830381865afa158015610fdf573d6000803e3d6000fd5b505050506040513d601f19601f82011682018060405250810190611003919061171e565b905090565b6001600160a01b03831661106a5760405162461bcd60e51b8152602060048201526024808201527f45524332303a20617070726f76652066726f6d20746865207a65726f206164646044820152637265737360e01b60648201526084016105d9565b6001600160a01b0382166110cb5760405162461bcd60e51b815260206004820152602260248201527f45524332303a20617070726f766520746f20746865207a65726f206164647265604482015261737360f01b60648201526084016105d9565b6001600160a01b0383811660008181526001602090815260408083209487168084529482529182902085905590518481527f8c5be1e5ebec7d5bd14f71427d1e84f3dd0314c0f7b2291e5b200ac8c7c3b925910160405180910390a3505050565b60006111388484610f4f565b905060001981146111a057818110156111935760405162461bcd60e51b815260206004820152601d60248201527f45524332303a20696e73756666696369656e7420616c6c6f77616e636500000060448201526064016105d9565b6111a08484848403611008565b50505050565b6001600160a01b03831661120a5760405162461bcd60e51b815260206004820152602560248201527f45524332303a207472616e736665722066726f6d20746865207a65726f206164604482015264647265737360d81b60648201526084016105d9565b6001600160a01b03821661126c5760405162461bcd60e51b815260206004820152602360248201527f45524332303a207472616e7366657220746f20746865207a65726f206164647260448201526265737360e81b60648201526084016105d9565b6001600160a01b038316600090815260208190526040902054818110156112e45760405162461bcd60e51b815260206004820152602660248201527f45524332303a207472616e7366657220616d6f756e7420657863656564732062604482015265616c616e636560d01b60648201526084016105d9565b6001600160a01b03848116600081815260208181526040808320878703905593871680835291849020805487019055925185815290927fddf252ad1be2c89b69c2b068fc378daa952ba7f163c4a11628f55a4df523b3ef910160405180910390a36111a0565b6001600160a01b038116811461135f57600080fd5b50565b60006020828403121561137457600080fd5b815161137f8161134a565b9392505050565b60006020828403121561139857600080fd5b813561137f8161134a565b600060208083528351808285015260005b818110156113d0578581018301518582016040015282016113b4565b506000604082860101526040601f19601f8301168501019250505092915050565b6000806040838503121561140457600080fd5b823561140f8161134a565b946020939093013593505050565b60006020828403121561142f57600080fd5b5035919050565b6001600160a01b0391909116815260200190565b60008060006060848603121561145f57600080fd5b833561146a8161134a565b9250602084013561147a8161134a565b929592945050506040919091013590565b6000806040838503121561149e57600080fd5b8235915060208301356114b08161134a565b809150509250929050565b600080604083850312156114ce57600080fd5b82356114d98161134a565b915060208301356114b08161134a565b6020808252818101527f546869732066756e6374696f6e20697320666f72206d696e746572206f6e6c79604082015260600190565b634e487b7160e01b600052601160045260246000fd5b6000600182016115465761154661151e565b5060010190565b600181811c9082168061156157607f821691505b60208210810361158157634e487b7160e01b600052602260045260246000fd5b50919050565b6020808252600a908201526939ba30b13632a1b7b4b760b11b604082015260600190565b808201808211156107675761076761151e565b6020808252601a90820152796f6e6c7920666f7220617574686f72697a656420746f6b656e7360301b604082015260600190565b600181815b8085111561162d5781600019048211156116135761161361151e565b8085161561162057918102915b93841c93908002906115f7565b509250929050565b60008261164457506001610767565b8161165157506000610767565b816001811461166757600281146116715761168d565b6001915050610767565b60ff8411156116825761168261151e565b50506001821b610767565b5060208310610133831016604e8410600b84101617156116b0575081810a610767565b6116ba83836115f2565b80600019048211156116ce576116ce61151e565b029392505050565b600061137f60ff841683611635565b80820281158282048414176107675761076761151e565b60008261171957634e487b7160e01b600052601260045260246000fd5b500490565b60006020828403121561173057600080fd5b5051919050565b6001600160a01b03929092168252602082015260400190565b60006020828403121561176257600080fd5b8151801515811461137f57600080fdfea2646970667358221220862cb7dfaef98e1d89035bacdbb80730c1791c6df5abeaa9fb193a088da31c0364736f6c63430008130033",
  "immutableReferences": {},
  "source": "// SPDX-License-Identifier: UNLICENSED\r\n\r\nimport \"@openzeppelin/contracts/token/ERC20/IERC20.sol\";\r\n\r\nimport \"./INTDAO.sol\";\r\nimport \"./CDP.sol\";\r\nimport \"./tokenTemplate.sol\";\r\n\r\npragma solidity 0.8.19;\r\n\r\ncontract Platform is ERC20{\r\n    address public tokenMinter;\r\n    address public ownerAddress;\r\n    uint256 public mintedNum;\r\n\r\n    event newDividendsRound(uint256 round, address rewardToken, uint256 amount);\r\n\r\n    INTDAO dao;\r\n    CDP cdp;\r\n    IERC20 coin;\r\n\r\n    uint256 public currentDividendsRound;\r\n    mapping (address => bool) public isMintedByPlatform;\r\n    mapping (uint256 => address) public mintedTokens;\r\n    mapping (uint256 => address) public dividendsRounds;\r\n    mapping (uint256 => uint256) public dividendsPerRoundPerToken;\r\n    mapping (address => uint256) public lastPayedDividendsRound;\r\n\r\n    modifier onlyMinter{\r\n        require(msg.sender == tokenMinter, \"This function is for minter only\");\r\n        _;\r\n    }\r\n\r\n    modifier onlyOwner{\r\n        require(msg.sender == ownerAddress, \"This function is for minter only\");\r\n        _;\r\n    }\r\n\r\n    constructor(address payable INTDAOaddress) ERC20(\"Crowdfunding platform\", \"CFP\"){\r\n        _mint(msg.sender, 10**6);\r\n        dao = INTDAO(INTDAOaddress);\r\n        coin = IERC20(dao.addresses('stableCoin'));\r\n        cdp = CDP(dao.addresses('cdp'));\r\n        dao.setAddressOnce('platform',payable(address(this)));\r\n        tokenMinter = msg.sender;\r\n        ownerAddress = msg.sender;\r\n    }\r\n\r\n    function changeMinter(address addr) public onlyOwner{\r\n        tokenMinter = addr;\r\n    }\r\n\r\n    function renewContracts() public {\r\n        coin = IERC20(dao.addresses('stableCoin'));\r\n        cdp = CDP(dao.addresses('cdp'));\r\n    }\r\n\r\n    function claimDividends(address addr) public{\r\n        uint256 divAmount;\r\n        address beneficiary;\r\n        if (isContract(addr)) {\r\n            beneficiary = tokenMinter;\r\n        }\r\n        else beneficiary = addr;\r\n        for (uint256 i=lastPayedDividendsRound[addr]; i<currentDividendsRound; i++){\r\n            ERC20 token = ERC20(dividendsRounds[i]);\r\n            divAmount = balanceOf(addr)/10**18*dividendsPerRoundPerToken[i];\r\n            if (token.balanceOf(address(this))>=divAmount)\r\n                token.transfer(beneficiary, divAmount);\r\n            else\r\n                token.transfer(beneficiary, token.balanceOf(address(this)));\r\n        }\r\n        lastPayedDividendsRound[addr] = currentDividendsRound;\r\n    }\r\n\r\n    function isContract(address addr) internal view returns (bool) {\r\n        uint size;\r\n        assembly { size := extcodesize(addr) }\r\n        return size > 0;\r\n    }\r\n\r\n    function addMintedToken(address addr) public onlyMinter{\r\n        tokenTemplate token = tokenTemplate(addr);\r\n        require(token.platformContractAddress() == address(this));\r\n        isMintedByPlatform[addr] = true;\r\n        mintedTokens[mintedNum] = addr;\r\n        mintedNum++;\r\n    }\r\n\r\n    function addDividend(address rewardToken, uint256 amount) public returns(bool success){\r\n        require(amount>0, \"dont be greedy\");\r\n        require(rewardToken == dao.addresses('stableCoin') || isMintedByPlatform[rewardToken], \"only for authorized tokens\");\r\n        require(isMintedByPlatform[msg.sender], \"only for authorized tokens\");\r\n        dividendsRounds[currentDividendsRound] = rewardToken;\r\n        dividendsPerRoundPerToken[currentDividendsRound] = 10**decimals()*amount/totalSupply();\r\n        emit newDividendsRound(currentDividendsRound, rewardToken, amount);\r\n        currentDividendsRound++;\r\n        return true;\r\n    }\r\n\r\n    function claimInterestForMintedTokenHolder(uint256 amount, address beneficiary) public{\r\n        require(isMintedByPlatform[msg.sender], \"only tokens, minted by the platform may claim interest\");\r\n        cdp.claimInterest(amount, beneficiary);\r\n    }\r\n\r\n    function getCurrentInterestRate() public view returns (uint256 interestRate){\r\n        return dao.params('depositRate');\r\n    }\r\n\r\n    receive() external payable {\r\n        dao.addresses('oracle').transfer(address(this).balance);\r\n    }\r\n}\r\n",
  "sourcePath": "C:\\Users\\d.nagornykh\\YandexDisk\\\\ICO\\CryptoFiat\\repo\\contracts\\Platform.sol",
  "compiler": {
    "name": "solc",
    "version": "0.8.19+commit.7dd6d404.Emscripten.clang"
  },
  "schemaVersion": "3.4.14",
  "updatedAt": "2023-08-11T06:20:07.282Z",
  "devdoc": {
    "events": {
      "Approval(address,address,uint256)": {
        "details": "Emitted when the allowance of a `spender` for an `owner` is set by a call to {approve}. `value` is the new allowance."
      },
      "Transfer(address,address,uint256)": {
        "details": "Emitted when `value` tokens are moved from one account (`from`) to another (`to`). Note that `value` may be zero."
      }
    },
    "kind": "dev",
    "methods": {
      "allowance(address,address)": {
        "details": "See {IERC20-allowance}."
      },
      "approve(address,uint256)": {
        "details": "See {IERC20-approve}. NOTE: If `amount` is the maximum `uint256`, the allowance is not updated on `transferFrom`. This is semantically equivalent to an infinite approval. Requirements: - `spender` cannot be the zero address."
      },
      "balanceOf(address)": {
        "details": "See {IERC20-balanceOf}."
      },
      "decimals()": {
        "details": "Returns the number of decimals used to get its user representation. For example, if `decimals` equals `2`, a balance of `505` tokens should be displayed to a user as `5.05` (`505 / 10 ** 2`). Tokens usually opt for a value of 18, imitating the relationship between Ether and Wei. This is the default value returned by this function, unless it's overridden. NOTE: This information is only used for _display_ purposes: it in no way affects any of the arithmetic of the contract, including {IERC20-balanceOf} and {IERC20-transfer}."
      },
      "decreaseAllowance(address,uint256)": {
        "details": "Atomically decreases the allowance granted to `spender` by the caller. This is an alternative to {approve} that can be used as a mitigation for problems described in {IERC20-approve}. Emits an {Approval} event indicating the updated allowance. Requirements: - `spender` cannot be the zero address. - `spender` must have allowance for the caller of at least `subtractedValue`."
      },
      "increaseAllowance(address,uint256)": {
        "details": "Atomically increases the allowance granted to `spender` by the caller. This is an alternative to {approve} that can be used as a mitigation for problems described in {IERC20-approve}. Emits an {Approval} event indicating the updated allowance. Requirements: - `spender` cannot be the zero address."
      },
      "name()": {
        "details": "Returns the name of the token."
      },
      "symbol()": {
        "details": "Returns the symbol of the token, usually a shorter version of the name."
      },
      "totalSupply()": {
        "details": "See {IERC20-totalSupply}."
      },
      "transfer(address,uint256)": {
        "details": "See {IERC20-transfer}. Requirements: - `to` cannot be the zero address. - the caller must have a balance of at least `amount`."
      },
      "transferFrom(address,address,uint256)": {
        "details": "See {IERC20-transferFrom}. Emits an {Approval} event indicating the updated allowance. This is not required by the EIP. See the note at the beginning of {ERC20}. NOTE: Does not update the allowance if the current allowance is the maximum `uint256`. Requirements: - `from` and `to` cannot be the zero address. - `from` must have a balance of at least `amount`. - the caller must have allowance for ``from``'s tokens of at least `amount`."
      }
    },
    "version": 1
  },
  "userdoc": {
    "kind": "user",
    "methods": {},
    "version": 1
  }
}