{
  "contractName": "Platform",
  "abi": [
    {
      "inputs": [
        {
          "internalType": "address payable",
          "name": "INTDAOaddress",
          "type": "address"
        }
      ],
      "stateMutability": "nonpayable",
      "type": "constructor"
    },
    {
      "anonymous": false,
      "inputs": [
        {
          "indexed": true,
          "internalType": "address",
          "name": "owner",
          "type": "address"
        },
        {
          "indexed": true,
          "internalType": "address",
          "name": "spender",
          "type": "address"
        },
        {
          "indexed": false,
          "internalType": "uint256",
          "name": "value",
          "type": "uint256"
        }
      ],
      "name": "Approval",
      "type": "event"
    },
    {
      "anonymous": false,
      "inputs": [
        {
          "indexed": true,
          "internalType": "address",
          "name": "from",
          "type": "address"
        },
        {
          "indexed": true,
          "internalType": "address",
          "name": "to",
          "type": "address"
        },
        {
          "indexed": false,
          "internalType": "uint256",
          "name": "value",
          "type": "uint256"
        }
      ],
      "name": "Transfer",
      "type": "event"
    },
    {
      "anonymous": false,
      "inputs": [
        {
          "indexed": false,
          "internalType": "uint256",
          "name": "round",
          "type": "uint256"
        },
        {
          "indexed": false,
          "internalType": "address",
          "name": "rewardToken",
          "type": "address"
        },
        {
          "indexed": false,
          "internalType": "uint256",
          "name": "amount",
          "type": "uint256"
        }
      ],
      "name": "newDividendsRound",
      "type": "event"
    },
    {
      "inputs": [],
      "name": "currentDividendsRound",
      "outputs": [
        {
          "internalType": "uint256",
          "name": "",
          "type": "uint256"
        }
      ],
      "stateMutability": "view",
      "type": "function",
      "constant": true
    },
    {
      "inputs": [],
      "name": "decimals",
      "outputs": [
        {
          "internalType": "uint256",
          "name": "",
          "type": "uint256"
        }
      ],
      "stateMutability": "view",
      "type": "function",
      "constant": true
    },
    {
      "inputs": [
        {
          "internalType": "uint256",
          "name": "",
          "type": "uint256"
        }
      ],
      "name": "dividendsPerRoundPerToken",
      "outputs": [
        {
          "internalType": "uint256",
          "name": "",
          "type": "uint256"
        }
      ],
      "stateMutability": "view",
      "type": "function",
      "constant": true
    },
    {
      "inputs": [
        {
          "internalType": "uint256",
          "name": "",
          "type": "uint256"
        }
      ],
      "name": "dividendsRounds",
      "outputs": [
        {
          "internalType": "address",
          "name": "",
          "type": "address"
        }
      ],
      "stateMutability": "view",
      "type": "function",
      "constant": true
    },
    {
      "inputs": [
        {
          "internalType": "address",
          "name": "",
          "type": "address"
        }
      ],
      "name": "isMintedByPlatform",
      "outputs": [
        {
          "internalType": "bool",
          "name": "",
          "type": "bool"
        }
      ],
      "stateMutability": "view",
      "type": "function",
      "constant": true
    },
    {
      "inputs": [
        {
          "internalType": "address",
          "name": "",
          "type": "address"
        }
      ],
      "name": "lastPayedDividendsRound",
      "outputs": [
        {
          "internalType": "uint256",
          "name": "",
          "type": "uint256"
        }
      ],
      "stateMutability": "view",
      "type": "function",
      "constant": true
    },
    {
      "inputs": [],
      "name": "mintedNum",
      "outputs": [
        {
          "internalType": "uint256",
          "name": "",
          "type": "uint256"
        }
      ],
      "stateMutability": "view",
      "type": "function",
      "constant": true
    },
    {
      "inputs": [
        {
          "internalType": "uint256",
          "name": "",
          "type": "uint256"
        }
      ],
      "name": "mintedTokens",
      "outputs": [
        {
          "internalType": "address",
          "name": "",
          "type": "address"
        }
      ],
      "stateMutability": "view",
      "type": "function",
      "constant": true
    },
    {
      "inputs": [],
      "name": "name",
      "outputs": [
        {
          "internalType": "string",
          "name": "",
          "type": "string"
        }
      ],
      "stateMutability": "view",
      "type": "function",
      "constant": true
    },
    {
      "inputs": [],
      "name": "ownerAddress",
      "outputs": [
        {
          "internalType": "address",
          "name": "",
          "type": "address"
        }
      ],
      "stateMutability": "view",
      "type": "function",
      "constant": true
    },
    {
      "inputs": [],
      "name": "symbol",
      "outputs": [
        {
          "internalType": "string",
          "name": "",
          "type": "string"
        }
      ],
      "stateMutability": "view",
      "type": "function",
      "constant": true
    },
    {
      "inputs": [],
      "name": "tokenMinter",
      "outputs": [
        {
          "internalType": "address",
          "name": "",
          "type": "address"
        }
      ],
      "stateMutability": "view",
      "type": "function",
      "constant": true
    },
    {
      "stateMutability": "payable",
      "type": "receive",
      "payable": true
    },
    {
      "inputs": [
        {
          "internalType": "address",
          "name": "addr",
          "type": "address"
        }
      ],
      "name": "changeMinter",
      "outputs": [],
      "stateMutability": "nonpayable",
      "type": "function"
    },
    {
      "inputs": [],
      "name": "renewContracts",
      "outputs": [],
      "stateMutability": "nonpayable",
      "type": "function"
    },
    {
      "inputs": [
        {
          "internalType": "address",
          "name": "addr",
          "type": "address"
        }
      ],
      "name": "claimDividends",
      "outputs": [],
      "stateMutability": "nonpayable",
      "type": "function"
    },
    {
      "inputs": [
        {
          "internalType": "address",
          "name": "addr",
          "type": "address"
        }
      ],
      "name": "addMintedToken",
      "outputs": [],
      "stateMutability": "nonpayable",
      "type": "function"
    },
    {
      "inputs": [
        {
          "internalType": "address",
          "name": "rewardToken",
          "type": "address"
        },
        {
          "internalType": "uint256",
          "name": "amount",
          "type": "uint256"
        }
      ],
      "name": "addDividend",
      "outputs": [
        {
          "internalType": "bool",
          "name": "success",
          "type": "bool"
        }
      ],
      "stateMutability": "nonpayable",
      "type": "function"
    },
    {
      "inputs": [
        {
          "internalType": "uint256",
          "name": "amount",
          "type": "uint256"
        },
        {
          "internalType": "address",
          "name": "beneficiary",
          "type": "address"
        }
      ],
      "name": "claimInterestForMintedTokenHolder",
      "outputs": [],
      "stateMutability": "nonpayable",
      "type": "function"
    },
    {
      "inputs": [],
      "name": "getCurrentInterestRate",
      "outputs": [
        {
          "internalType": "uint256",
          "name": "interestRate",
          "type": "uint256"
        }
      ],
      "stateMutability": "view",
      "type": "function",
      "constant": true
    },
    {
      "inputs": [],
      "name": "totalSupply",
      "outputs": [
        {
          "internalType": "uint256",
          "name": "",
          "type": "uint256"
        }
      ],
      "stateMutability": "view",
      "type": "function",
      "constant": true
    },
    {
      "inputs": [
        {
          "internalType": "address",
          "name": "owner",
          "type": "address"
        }
      ],
      "name": "balanceOf",
      "outputs": [
        {
          "internalType": "uint256",
          "name": "balance",
          "type": "uint256"
        }
      ],
      "stateMutability": "view",
      "type": "function",
      "constant": true
    },
    {
      "inputs": [
        {
          "internalType": "address",
          "name": "owner",
          "type": "address"
        },
        {
          "internalType": "address",
          "name": "spender",
          "type": "address"
        }
      ],
      "name": "allowance",
      "outputs": [
        {
          "internalType": "uint256",
          "name": "remaining",
          "type": "uint256"
        }
      ],
      "stateMutability": "view",
      "type": "function",
      "constant": true
    },
    {
      "inputs": [
        {
          "internalType": "address",
          "name": "to",
          "type": "address"
        },
        {
          "internalType": "uint256",
          "name": "value",
          "type": "uint256"
        }
      ],
      "name": "transfer",
      "outputs": [
        {
          "internalType": "bool",
          "name": "success",
          "type": "bool"
        }
      ],
      "stateMutability": "nonpayable",
      "type": "function"
    },
    {
      "inputs": [
        {
          "internalType": "address",
          "name": "from",
          "type": "address"
        },
        {
          "internalType": "address",
          "name": "to",
          "type": "address"
        },
        {
          "internalType": "uint256",
          "name": "value",
          "type": "uint256"
        }
      ],
      "name": "transferFrom",
      "outputs": [
        {
          "internalType": "bool",
          "name": "success",
          "type": "bool"
        }
      ],
      "stateMutability": "nonpayable",
      "type": "function"
    },
    {
      "inputs": [
        {
          "internalType": "address",
          "name": "spender",
          "type": "address"
        },
        {
          "internalType": "uint256",
          "name": "value",
          "type": "uint256"
        }
      ],
      "name": "approve",
      "outputs": [
        {
          "internalType": "bool",
          "name": "success",
          "type": "bool"
        }
      ],
      "stateMutability": "nonpayable",
      "type": "function"
    }
  ],
  "bytecode": "0x60806040526012600a62000014919062000583565b6103e8620000239190620005d4565b6000553480156200003357600080fd5b50604051620030473803806200304783398181016040528101906200005991906200069f565b80600660006101000a81548173ffffffffffffffffffffffffffffffffffffffff021916908373ffffffffffffffffffffffffffffffffffffffff160217905550600660009054906101000a900473ffffffffffffffffffffffffffffffffffffffff1673ffffffffffffffffffffffffffffffffffffffff1663bdfe7d476040518163ffffffff1660e01b8152600401620000f59062000732565b602060405180830381865afa15801562000113573d6000803e3d6000fd5b505050506040513d601f19601f820116820180604052508101906200013991906200069f565b600860006101000a81548173ffffffffffffffffffffffffffffffffffffffff021916908373ffffffffffffffffffffffffffffffffffffffff160217905550600660009054906101000a900473ffffffffffffffffffffffffffffffffffffffff1673ffffffffffffffffffffffffffffffffffffffff1663bdfe7d476040518163ffffffff1660e01b8152600401620001d490620007a4565b602060405180830381865afa158015620001f2573d6000803e3d6000fd5b505050506040513d601f19601f820116820180604052508101906200021891906200069f565b600760006101000a81548173ffffffffffffffffffffffffffffffffffffffff021916908373ffffffffffffffffffffffffffffffffffffffff160217905550600660009054906101000a900473ffffffffffffffffffffffffffffffffffffffff1673ffffffffffffffffffffffffffffffffffffffff16632abdf04e306040518263ffffffff1660e01b8152600401620002b5919062000827565b600060405180830381600087803b158015620002d057600080fd5b505af1158015620002e5573d6000803e3d6000fd5b5050505033600160006101000a81548173ffffffffffffffffffffffffffffffffffffffff021916908373ffffffffffffffffffffffffffffffffffffffff16021790555033600260006101000a81548173ffffffffffffffffffffffffffffffffffffffff021916908373ffffffffffffffffffffffffffffffffffffffff1602179055506012600a6200037b919062000583565b6000546200038a9190620005d4565b60046000600260009054906101000a900473ffffffffffffffffffffffffffffffffffffffff1673ffffffffffffffffffffffffffffffffffffffff1673ffffffffffffffffffffffffffffffffffffffff168152602001908152602001600020819055505062000859565b7f4e487b7100000000000000000000000000000000000000000000000000000000600052601160045260246000fd5b60008160011c9050919050565b6000808291508390505b600185111562000484578086048111156200045c576200045b620003f6565b5b60018516156200046c5780820291505b80810290506200047c8562000425565b94506200043c565b94509492505050565b6000826200049f576001905062000572565b81620004af576000905062000572565b8160018114620004c85760028114620004d35762000509565b600191505062000572565b60ff841115620004e857620004e7620003f6565b5b8360020a915084821115620005025762000501620003f6565b5b5062000572565b5060208310610133831016604e8410600b8410161715620005435782820a9050838111156200053d576200053c620003f6565b5b62000572565b62000552848484600162000432565b925090508184048111156200056c576200056b620003f6565b5b81810290505b9392505050565b6000819050919050565b6000620005908262000579565b91506200059d8362000579565b9250620005cc7fffffffffffffffffffffffffffffffffffffffffffffffffffffffffffffffff84846200048d565b905092915050565b6000620005e18262000579565b9150620005ee8362000579565b9250817fffffffffffffffffffffffffffffffffffffffffffffffffffffffffffffffff04831182151516156200062a5762000629620003f6565b5b828202905092915050565b600080fd5b600073ffffffffffffffffffffffffffffffffffffffff82169050919050565b600062000667826200063a565b9050919050565b62000679816200065a565b81146200068557600080fd5b50565b60008151905062000699816200066e565b92915050565b600060208284031215620006b857620006b762000635565b5b6000620006c88482850162000688565b91505092915050565b600082825260208201905092915050565b7f737461626c65436f696e00000000000000000000000000000000000000000000600082015250565b60006200071a600a83620006d1565b91506200072782620006e2565b602082019050919050565b600060208201905081810360008301526200074d816200070b565b9050919050565b7f6364700000000000000000000000000000000000000000000000000000000000600082015250565b60006200078c600383620006d1565b9150620007998262000754565b602082019050919050565b60006020820190508181036000830152620007bf816200077d565b9050919050565b7f706c6174666f726d000000000000000000000000000000000000000000000000600082015250565b6000620007fe600883620006d1565b91506200080b82620007c6565b602082019050919050565b62000821816200065a565b82525050565b600060408201905081810360008301526200084281620007ef565b905062000853602083018462000816565b92915050565b6127de80620008696000396000f3fe60806040526004361061016a5760003560e01c80636de9944d116100d1578063af86530d1161008a578063cb1c80f811610064578063cb1c80f814610675578063cfb3647b146106a0578063dd62ed3e146106cb578063ff516c491461070857610251565b8063af86530d146105d2578063c7e772ed1461060f578063c98df8c51461063857610251565b80636de9944d1461048857806370a08231146104c55780637ef758d4146105025780638f84aa091461053f57806395d89b411461056a578063a9059cbb1461059557610251565b80631d960e6a116101235780631d960e6a1461037a57806323b872dd146103b757806323d86a65146103f45780632c3508791461040b5780632c4d4d1814610434578063313ce5671461045d57610251565b8063068c44391461025657806306fdde031461027f578063095ea7b3146102aa5780630d113473146102e757806312bc460d1461031257806318160ddd1461034f57610251565b3661025157600660009054906101000a900473ffffffffffffffffffffffffffffffffffffffff1673ffffffffffffffffffffffffffffffffffffffff1663bdfe7d476040518163ffffffff1660e01b81526004016101c890611c29565b602060405180830381865afa1580156101e5573d6000803e3d6000fd5b505050506040513d601f19601f820116820180604052508101906102099190611cac565b73ffffffffffffffffffffffffffffffffffffffff166108fc479081150290604051600060405180830381858888f1935050505015801561024e573d6000803e3d6000fd5b50005b600080fd5b34801561026257600080fd5b5061027d60048036038101906102789190611d17565b610733565b005b34801561028b57600080fd5b50610294610936565b6040516102a19190611dcc565b60405180910390f35b3480156102b657600080fd5b506102d160048036038101906102cc9190611e24565b61096f565b6040516102de9190611e7f565b60405180910390f35b3480156102f357600080fd5b506102fc610a61565b6040516103099190611ea9565b60405180910390f35b34801561031e57600080fd5b5061033960048036038101906103349190611d17565b610a67565b6040516103469190611ea9565b60405180910390f35b34801561035b57600080fd5b50610364610a7f565b6040516103719190611ea9565b60405180910390f35b34801561038657600080fd5b506103a1600480360381019061039c9190611ec4565b610a88565b6040516103ae9190611f00565b60405180910390f35b3480156103c357600080fd5b506103de60048036038101906103d99190611f1b565b610abb565b6040516103eb9190611e7f565b60405180910390f35b34801561040057600080fd5b50610409610d64565b005b34801561041757600080fd5b50610432600480360381019061042d9190611f6e565b610f1a565b005b34801561044057600080fd5b5061045b60048036038101906104569190611d17565b611039565b005b34801561046957600080fd5b5061047261110d565b60405161047f9190611ea9565b60405180910390f35b34801561049457600080fd5b506104af60048036038101906104aa9190611e24565b611112565b6040516104bc9190611e7f565b60405180910390f35b3480156104d157600080fd5b506104ec60048036038101906104e79190611d17565b61142f565b6040516104f99190611ea9565b60405180910390f35b34801561050e57600080fd5b5061052960048036038101906105249190611ec4565b611478565b6040516105369190611f00565b60405180910390f35b34801561054b57600080fd5b506105546114ab565b6040516105619190611f00565b60405180910390f35b34801561057657600080fd5b5061057f6114d1565b60405161058c9190611dcc565b60405180910390f35b3480156105a157600080fd5b506105bc60048036038101906105b79190611e24565b61150a565b6040516105c99190611e7f565b60405180910390f35b3480156105de57600080fd5b506105f960048036038101906105f49190611ec4565b611697565b6040516106069190611ea9565b60405180910390f35b34801561061b57600080fd5b5061063660048036038101906106319190611d17565b6116af565b005b34801561064457600080fd5b5061065f600480360381019061065a9190611d17565b611a45565b60405161066c9190611e7f565b60405180910390f35b34801561068157600080fd5b5061068a611a65565b6040516106979190611ea9565b60405180910390f35b3480156106ac57600080fd5b506106b5611a6b565b6040516106c29190611f00565b60405180910390f35b3480156106d757600080fd5b506106f260048036038101906106ed9190611fae565b611a91565b6040516106ff9190611ea9565b60405180910390f35b34801561071457600080fd5b5061071d611b18565b60405161072a9190611ea9565b60405180910390f35b600160009054906101000a900473ffffffffffffffffffffffffffffffffffffffff1673ffffffffffffffffffffffffffffffffffffffff163373ffffffffffffffffffffffffffffffffffffffff16146107c3576040517f08c379a00000000000000000000000000000000000000000000000000000000081526004016107ba9061203a565b60405180910390fd5b60008190503073ffffffffffffffffffffffffffffffffffffffff168173ffffffffffffffffffffffffffffffffffffffff1663946bb4f66040518163ffffffff1660e01b8152600401602060405180830381865afa15801561082a573d6000803e3d6000fd5b505050506040513d601f19601f8201168201806040525081019061084e919061206f565b73ffffffffffffffffffffffffffffffffffffffff161461086e57600080fd5b6001600a60008473ffffffffffffffffffffffffffffffffffffffff1673ffffffffffffffffffffffffffffffffffffffff16815260200190815260200160002060006101000a81548160ff02191690831515021790555081600b6000600354815260200190815260200160002060006101000a81548173ffffffffffffffffffffffffffffffffffffffff021916908373ffffffffffffffffffffffffffffffffffffffff1602179055506003600081548092919061092d906120cb565b91905055505050565b6040518060400160405280601581526020017f43726f776466756e64696e6720706c6174666f726d000000000000000000000081525081565b600081600560003373ffffffffffffffffffffffffffffffffffffffff1673ffffffffffffffffffffffffffffffffffffffff16815260200190815260200160002060008573ffffffffffffffffffffffffffffffffffffffff1673ffffffffffffffffffffffffffffffffffffffff168152602001908152602001600020819055508273ffffffffffffffffffffffffffffffffffffffff163373ffffffffffffffffffffffffffffffffffffffff167f8c5be1e5ebec7d5bd14f71427d1e84f3dd0314c0f7b2291e5b200ac8c7c3b92584604051610a4f9190611ea9565b60405180910390a36001905092915050565b60035481565b600e6020528060005260406000206000915090505481565b60008054905090565b600c6020528060005260406000206000915054906101000a900473ffffffffffffffffffffffffffffffffffffffff1681565b6000610ac6846116af565b610acf836116af565b81600460008673ffffffffffffffffffffffffffffffffffffffff1673ffffffffffffffffffffffffffffffffffffffff1681526020019081526020016000205410158015610b9a575081600560008673ffffffffffffffffffffffffffffffffffffffff1673ffffffffffffffffffffffffffffffffffffffff16815260200190815260200160002060003373ffffffffffffffffffffffffffffffffffffffff1673ffffffffffffffffffffffffffffffffffffffff1681526020019081526020016000205410155b8015610ba65750600082115b15610d585781600460008573ffffffffffffffffffffffffffffffffffffffff1673ffffffffffffffffffffffffffffffffffffffff1681526020019081526020016000206000828254610bfa9190612114565b9250508190555081600460008673ffffffffffffffffffffffffffffffffffffffff1673ffffffffffffffffffffffffffffffffffffffff1681526020019081526020016000206000828254610c50919061216a565b9250508190555081600560008673ffffffffffffffffffffffffffffffffffffffff1673ffffffffffffffffffffffffffffffffffffffff16815260200190815260200160002060003373ffffffffffffffffffffffffffffffffffffffff1673ffffffffffffffffffffffffffffffffffffffff1681526020019081526020016000206000828254610ce3919061216a565b925050819055508273ffffffffffffffffffffffffffffffffffffffff168473ffffffffffffffffffffffffffffffffffffffff167fddf252ad1be2c89b69c2b068fc378daa952ba7f163c4a11628f55a4df523b3ef84604051610d479190611ea9565b60405180910390a360019050610d5d565b600090505b9392505050565b600660009054906101000a900473ffffffffffffffffffffffffffffffffffffffff1673ffffffffffffffffffffffffffffffffffffffff1663bdfe7d476040518163ffffffff1660e01b8152600401610dbd906121ea565b602060405180830381865afa158015610dda573d6000803e3d6000fd5b505050506040513d601f19601f82011682018060405250810190610dfe9190611cac565b600860006101000a81548173ffffffffffffffffffffffffffffffffffffffff021916908373ffffffffffffffffffffffffffffffffffffffff160217905550600660009054906101000a900473ffffffffffffffffffffffffffffffffffffffff1673ffffffffffffffffffffffffffffffffffffffff1663bdfe7d476040518163ffffffff1660e01b8152600401610e9790612256565b602060405180830381865afa158015610eb4573d6000803e3d6000fd5b505050506040513d601f19601f82011682018060405250810190610ed89190611cac565b600760006101000a81548173ffffffffffffffffffffffffffffffffffffffff021916908373ffffffffffffffffffffffffffffffffffffffff160217905550565b600a60003373ffffffffffffffffffffffffffffffffffffffff1673ffffffffffffffffffffffffffffffffffffffff16815260200190815260200160002060009054906101000a900460ff16610fa6576040517f08c379a0000000000000000000000000000000000000000000000000000000008152600401610f9d906122e8565b60405180910390fd5b600760009054906101000a900473ffffffffffffffffffffffffffffffffffffffff1673ffffffffffffffffffffffffffffffffffffffff16637f660be183836040518363ffffffff1660e01b8152600401611003929190612308565b600060405180830381600087803b15801561101d57600080fd5b505af1158015611031573d6000803e3d6000fd5b505050505050565b600260009054906101000a900473ffffffffffffffffffffffffffffffffffffffff1673ffffffffffffffffffffffffffffffffffffffff163373ffffffffffffffffffffffffffffffffffffffff16146110c9576040517f08c379a00000000000000000000000000000000000000000000000000000000081526004016110c09061203a565b60405180910390fd5b80600160006101000a81548173ffffffffffffffffffffffffffffffffffffffff021916908373ffffffffffffffffffffffffffffffffffffffff16021790555050565b601281565b6000808211611156576040517f08c379a000000000000000000000000000000000000000000000000000000000815260040161114d9061237d565b60405180910390fd5b600660009054906101000a900473ffffffffffffffffffffffffffffffffffffffff1673ffffffffffffffffffffffffffffffffffffffff1663bdfe7d476040518163ffffffff1660e01b81526004016111af906121ea565b602060405180830381865afa1580156111cc573d6000803e3d6000fd5b505050506040513d601f19601f820116820180604052508101906111f09190611cac565b73ffffffffffffffffffffffffffffffffffffffff168373ffffffffffffffffffffffffffffffffffffffff1614806112725750600a60008473ffffffffffffffffffffffffffffffffffffffff1673ffffffffffffffffffffffffffffffffffffffff16815260200190815260200160002060009054906101000a900460ff165b6112b1576040517f08c379a00000000000000000000000000000000000000000000000000000000081526004016112a8906123e9565b60405180910390fd5b600a60003373ffffffffffffffffffffffffffffffffffffffff1673ffffffffffffffffffffffffffffffffffffffff16815260200190815260200160002060009054906101000a900460ff1661133d576040517f08c379a0000000000000000000000000000000000000000000000000000000008152600401611334906123e9565b60405180910390fd5b82600c6000600954815260200190815260200160002060006101000a81548173ffffffffffffffffffffffffffffffffffffffff021916908373ffffffffffffffffffffffffffffffffffffffff160217905550600054826012600a6113a3919061253c565b6113ad9190612587565b6113b79190612610565b600d60006009548152602001908152602001600020819055507f1376b5062146706e44d67ac2b98488ecfbacc14bf5603aa8abb88124c9fd1b07600954848460405161140593929190612641565b60405180910390a160096000815480929190611420906120cb565b91905055506001905092915050565b6000600460008373ffffffffffffffffffffffffffffffffffffffff1673ffffffffffffffffffffffffffffffffffffffff168152602001908152602001600020549050919050565b600b6020528060005260406000206000915054906101000a900473ffffffffffffffffffffffffffffffffffffffff1681565b600260009054906101000a900473ffffffffffffffffffffffffffffffffffffffff1681565b6040518060400160405280600381526020017f434650000000000000000000000000000000000000000000000000000000000081525081565b6000611515836116af565b61151e336116af565b81600460003373ffffffffffffffffffffffffffffffffffffffff1673ffffffffffffffffffffffffffffffffffffffff168152602001908152602001600020541015801561156d5750600082115b1561168c5781600460003373ffffffffffffffffffffffffffffffffffffffff1673ffffffffffffffffffffffffffffffffffffffff16815260200190815260200160002060008282546115c1919061216a565b9250508190555081600460008573ffffffffffffffffffffffffffffffffffffffff1673ffffffffffffffffffffffffffffffffffffffff16815260200190815260200160002060008282546116179190612114565b925050819055508273ffffffffffffffffffffffffffffffffffffffff163373ffffffffffffffffffffffffffffffffffffffff167fddf252ad1be2c89b69c2b068fc378daa952ba7f163c4a11628f55a4df523b3ef8460405161167b9190611ea9565b60405180910390a360019050611691565b600090505b92915050565b600d6020528060005260406000206000915090505481565b6000806116bb83611bb9565b156116ea57600160009054906101000a900473ffffffffffffffffffffffffffffffffffffffff1690506116ee565b8290505b6000600e60008573ffffffffffffffffffffffffffffffffffffffff1673ffffffffffffffffffffffffffffffffffffffff1681526020019081526020016000205490505b6009548110156119f9576000600c600083815260200190815260200160002060009054906101000a900473ffffffffffffffffffffffffffffffffffffffff169050600d600083815260200190815260200160002054670de0b6b3a7640000600460008873ffffffffffffffffffffffffffffffffffffffff1673ffffffffffffffffffffffffffffffffffffffff168152602001908152602001600020546117dc9190612610565b6117e69190612587565b9350838173ffffffffffffffffffffffffffffffffffffffff166370a08231306040518263ffffffff1660e01b81526004016118229190611f00565b602060405180830381865afa15801561183f573d6000803e3d6000fd5b505050506040513d601f19601f82011682018060405250810190611863919061268d565b106118ec578073ffffffffffffffffffffffffffffffffffffffff1663a9059cbb84866040518363ffffffff1660e01b81526004016118a39291906126ba565b6020604051808303816000875af11580156118c2573d6000803e3d6000fd5b505050506040513d601f19601f820116820180604052508101906118e6919061270f565b506119e5565b8073ffffffffffffffffffffffffffffffffffffffff1663a9059cbb848373ffffffffffffffffffffffffffffffffffffffff166370a08231306040518263ffffffff1660e01b81526004016119429190611f00565b602060405180830381865afa15801561195f573d6000803e3d6000fd5b505050506040513d601f19601f82011682018060405250810190611983919061268d565b6040518363ffffffff1660e01b81526004016119a09291906126ba565b6020604051808303816000875af11580156119bf573d6000803e3d6000fd5b505050506040513d601f19601f820116820180604052508101906119e3919061270f565b505b5080806119f1906120cb565b915050611733565b50600954600e60008573ffffffffffffffffffffffffffffffffffffffff1673ffffffffffffffffffffffffffffffffffffffff16815260200190815260200160002081905550505050565b600a6020528060005260406000206000915054906101000a900460ff1681565b60095481565b600160009054906101000a900473ffffffffffffffffffffffffffffffffffffffff1681565b6000600560008473ffffffffffffffffffffffffffffffffffffffff1673ffffffffffffffffffffffffffffffffffffffff16815260200190815260200160002060008373ffffffffffffffffffffffffffffffffffffffff1673ffffffffffffffffffffffffffffffffffffffff16815260200190815260200160002054905092915050565b6000600660009054906101000a900473ffffffffffffffffffffffffffffffffffffffff1673ffffffffffffffffffffffffffffffffffffffff1663145f822b6040518163ffffffff1660e01b8152600401611b7390612788565b602060405180830381865afa158015611b90573d6000803e3d6000fd5b505050506040513d601f19601f82011682018060405250810190611bb4919061268d565b905090565b600080823b905060008111915050919050565b600082825260208201905092915050565b7f6f7261636c650000000000000000000000000000000000000000000000000000600082015250565b6000611c13600683611bcc565b9150611c1e82611bdd565b602082019050919050565b60006020820190508181036000830152611c4281611c06565b9050919050565b600080fd5b600073ffffffffffffffffffffffffffffffffffffffff82169050919050565b6000611c7982611c4e565b9050919050565b611c8981611c6e565b8114611c9457600080fd5b50565b600081519050611ca681611c80565b92915050565b600060208284031215611cc257611cc1611c49565b5b6000611cd084828501611c97565b91505092915050565b6000611ce482611c4e565b9050919050565b611cf481611cd9565b8114611cff57600080fd5b50565b600081359050611d1181611ceb565b92915050565b600060208284031215611d2d57611d2c611c49565b5b6000611d3b84828501611d02565b91505092915050565b600081519050919050565b60005b83811015611d6d578082015181840152602081019050611d52565b83811115611d7c576000848401525b50505050565b6000601f19601f8301169050919050565b6000611d9e82611d44565b611da88185611bcc565b9350611db8818560208601611d4f565b611dc181611d82565b840191505092915050565b60006020820190508181036000830152611de68184611d93565b905092915050565b6000819050919050565b611e0181611dee565b8114611e0c57600080fd5b50565b600081359050611e1e81611df8565b92915050565b60008060408385031215611e3b57611e3a611c49565b5b6000611e4985828601611d02565b9250506020611e5a85828601611e0f565b9150509250929050565b60008115159050919050565b611e7981611e64565b82525050565b6000602082019050611e946000830184611e70565b92915050565b611ea381611dee565b82525050565b6000602082019050611ebe6000830184611e9a565b92915050565b600060208284031215611eda57611ed9611c49565b5b6000611ee884828501611e0f565b91505092915050565b611efa81611cd9565b82525050565b6000602082019050611f156000830184611ef1565b92915050565b600080600060608486031215611f3457611f33611c49565b5b6000611f4286828701611d02565b9350506020611f5386828701611d02565b9250506040611f6486828701611e0f565b9150509250925092565b60008060408385031215611f8557611f84611c49565b5b6000611f9385828601611e0f565b9250506020611fa485828601611d02565b9150509250929050565b60008060408385031215611fc557611fc4611c49565b5b6000611fd385828601611d02565b9250506020611fe485828601611d02565b9150509250929050565b7f546869732066756e6374696f6e20697320666f72206d696e746572206f6e6c79600082015250565b6000612024602083611bcc565b915061202f82611fee565b602082019050919050565b6000602082019050818103600083015261205381612017565b9050919050565b60008151905061206981611ceb565b92915050565b60006020828403121561208557612084611c49565b5b60006120938482850161205a565b91505092915050565b7f4e487b7100000000000000000000000000000000000000000000000000000000600052601160045260246000fd5b60006120d682611dee565b91507fffffffffffffffffffffffffffffffffffffffffffffffffffffffffffffffff8214156121095761210861209c565b5b600182019050919050565b600061211f82611dee565b915061212a83611dee565b9250827fffffffffffffffffffffffffffffffffffffffffffffffffffffffffffffffff0382111561215f5761215e61209c565b5b828201905092915050565b600061217582611dee565b915061218083611dee565b9250828210156121935761219261209c565b5b828203905092915050565b7f737461626c65436f696e00000000000000000000000000000000000000000000600082015250565b60006121d4600a83611bcc565b91506121df8261219e565b602082019050919050565b60006020820190508181036000830152612203816121c7565b9050919050565b7f6364700000000000000000000000000000000000000000000000000000000000600082015250565b6000612240600383611bcc565b915061224b8261220a565b602082019050919050565b6000602082019050818103600083015261226f81612233565b9050919050565b7f6f6e6c7920746f6b656e732c206d696e7465642062792074686520706c61746660008201527f6f726d206d617920636c61696d20696e74657265737400000000000000000000602082015250565b60006122d2603683611bcc565b91506122dd82612276565b604082019050919050565b60006020820190508181036000830152612301816122c5565b9050919050565b600060408201905061231d6000830185611e9a565b61232a6020830184611ef1565b9392505050565b7f646f6e7420626520677265656479000000000000000000000000000000000000600082015250565b6000612367600e83611bcc565b915061237282612331565b602082019050919050565b600060208201905081810360008301526123968161235a565b9050919050565b7f6f6e6c7920666f7220617574686f72697a656420746f6b656e73000000000000600082015250565b60006123d3601a83611bcc565b91506123de8261239d565b602082019050919050565b60006020820190508181036000830152612402816123c6565b9050919050565b60008160011c9050919050565b6000808291508390505b60018511156124605780860481111561243c5761243b61209c565b5b600185161561244b5780820291505b808102905061245985612409565b9450612420565b94509492505050565b6000826124795760019050612535565b816124875760009050612535565b816001811461249d57600281146124a7576124d6565b6001915050612535565b60ff8411156124b9576124b861209c565b5b8360020a9150848211156124d0576124cf61209c565b5b50612535565b5060208310610133831016604e8410600b841016171561250b5782820a9050838111156125065761250561209c565b5b612535565b6125188484846001612416565b9250905081840481111561252f5761252e61209c565b5b81810290505b9392505050565b600061254782611dee565b915061255283611dee565b925061257f7fffffffffffffffffffffffffffffffffffffffffffffffffffffffffffffffff8484612469565b905092915050565b600061259282611dee565b915061259d83611dee565b9250817fffffffffffffffffffffffffffffffffffffffffffffffffffffffffffffffff04831182151516156125d6576125d561209c565b5b828202905092915050565b7f4e487b7100000000000000000000000000000000000000000000000000000000600052601260045260246000fd5b600061261b82611dee565b915061262683611dee565b925082612636576126356125e1565b5b828204905092915050565b60006060820190506126566000830186611e9a565b6126636020830185611ef1565b6126706040830184611e9a565b949350505050565b60008151905061268781611df8565b92915050565b6000602082840312156126a3576126a2611c49565b5b60006126b184828501612678565b91505092915050565b60006040820190506126cf6000830185611ef1565b6126dc6020830184611e9a565b9392505050565b6126ec81611e64565b81146126f757600080fd5b50565b600081519050612709816126e3565b92915050565b60006020828403121561272557612724611c49565b5b6000612733848285016126fa565b91505092915050565b7f6465706f73697452617465000000000000000000000000000000000000000000600082015250565b6000612772600b83611bcc565b915061277d8261273c565b602082019050919050565b600060208201905081810360008301526127a181612765565b905091905056fea2646970667358221220815213da34c6e8e98503013aad8eb3c75cd392f434e50398b7830f4eb2a5bb3e64736f6c634300080a0033",
  "immutableReferences": {},
  "source": "// SPDX-License-Identifier: UNLICENSED\r\nimport \"./INTDAO.sol\";\r\nimport \"./stableCoin.sol\";\r\nimport \"./CDP.sol\";\r\nimport \"./tokenTemplate.sol\";\r\n\r\npragma solidity >=0.4.22 <0.9.0;\r\n\r\ncontract Platform is ERC20{\r\n    uint256 public constant decimals = 18;\r\n    uint256 initialSupply = 1000*10**decimals;\r\n    address public tokenMinter;\r\n    address public ownerAddress;\r\n    uint256 public mintedNum;\r\n\r\n    string public constant name = \"Crowdfunding platform\";\r\n    string public constant symbol = \"CFP\";\r\n\r\n    mapping (address => uint256) balances;\r\n    mapping (address => mapping (address => uint256)) allowed;\r\n    event newDividendsRound(uint256 round, address rewardToken, uint256 amount);\r\n\r\n    INTDAO dao;\r\n    CDP cdp;\r\n    stableCoin coin;\r\n\r\n    uint256 public currentDividendsRound;\r\n    mapping (address => bool) public isMintedByPlatform;\r\n    mapping (uint256 => address) public mintedTokens;\r\n    mapping (uint256 => address) public dividendsRounds;\r\n    mapping (uint256 => uint256) public dividendsPerRoundPerToken;\r\n    mapping (address => uint256) public lastPayedDividendsRound;\r\n\r\n    modifier onlyMinter{\r\n        require(msg.sender == tokenMinter, \"This function is for minter only\");\r\n        _;\r\n    }\r\n\r\n    modifier onlyOwner{\r\n        require(msg.sender == ownerAddress, \"This function is for minter only\");\r\n        _;\r\n    }\r\n\r\n    constructor(address payable INTDAOaddress){\r\n        dao = INTDAO(INTDAOaddress);\r\n        coin = stableCoin(dao.addresses('stableCoin'));\r\n        cdp = CDP(dao.addresses('cdp'));\r\n        dao.setAddressOnce('platform',payable(address(this)));\r\n        tokenMinter = msg.sender;\r\n        ownerAddress = msg.sender;\r\n        balances[ownerAddress] = initialSupply*10**decimals;\r\n    }\r\n\r\n    function changeMinter(address addr) public onlyOwner{\r\n        tokenMinter = addr;\r\n    }\r\n\r\n    function renewContracts() public {\r\n        coin = stableCoin(dao.addresses('stableCoin'));\r\n        cdp = CDP(dao.addresses('cdp'));\r\n    }\r\n\r\n    function claimDividends(address addr) public{\r\n        uint256 divAmount;\r\n        address beneficiary;\r\n        if (isContract(addr)) {\r\n            beneficiary = tokenMinter;\r\n        }\r\n        else beneficiary = addr;\r\n        for (uint256 i=lastPayedDividendsRound[addr]; i<currentDividendsRound; i++){\r\n            ERC20 token = ERC20(dividendsRounds[i]);\r\n            divAmount = balances[addr]/10**18*dividendsPerRoundPerToken[i];\r\n            if (token.balanceOf(address(this))>=divAmount)\r\n                token.transfer(beneficiary, divAmount);\r\n            else\r\n                token.transfer(beneficiary, token.balanceOf(address(this)));\r\n        }\r\n        lastPayedDividendsRound[addr] = currentDividendsRound;\r\n    }\r\n\r\n    function isContract(address addr) internal view returns (bool) {\r\n        uint size;\r\n        assembly { size := extcodesize(addr) }\r\n        return size > 0;\r\n    }\r\n\r\n    function addMintedToken(address addr) public onlyMinter{\r\n        tokenTemplate token = tokenTemplate(addr);\r\n        require(token.platformContractAddress() == address(this));\r\n        isMintedByPlatform[addr] = true;\r\n        mintedTokens[mintedNum] = addr;\r\n        mintedNum++;\r\n    }\r\n\r\n    function addDividend(address rewardToken, uint256 amount) public returns(bool success){\r\n        require(amount>0, \"dont be greedy\");\r\n        require(rewardToken == dao.addresses('stableCoin') || isMintedByPlatform[rewardToken], \"only for authorized tokens\");\r\n        require(isMintedByPlatform[msg.sender], \"only for authorized tokens\");\r\n        dividendsRounds[currentDividendsRound] = rewardToken;\r\n        dividendsPerRoundPerToken[currentDividendsRound] = 10**decimals*amount/initialSupply;\r\n        emit newDividendsRound(currentDividendsRound, rewardToken, amount);\r\n        currentDividendsRound++;\r\n        return true;\r\n    }\r\n\r\n    function claimInterestForMintedTokenHolder(uint256 amount, address beneficiary) public{\r\n        require(isMintedByPlatform[msg.sender], \"only tokens, minted by the platform may claim interest\");\r\n        cdp.claimInterest(amount, beneficiary);\r\n    }\r\n\r\n    function getCurrentInterestRate() public view returns (uint256 interestRate){\r\n        return dao.params('depositRate');\r\n    }\r\n\r\n    function totalSupply() public view returns (uint256) {\r\n        return initialSupply;\r\n    }\r\n\r\n    function balanceOf(address owner) public view returns (uint256 balance) {\r\n        return balances[owner];\r\n    }\r\n\r\n    function allowance(address owner, address spender) public view returns (uint remaining) {\r\n        return allowed[owner][spender];\r\n    }\r\n\r\n    function transfer(address to, uint256 value) public returns (bool success) {\r\n        claimDividends(to);\r\n        claimDividends(msg.sender);\r\n        if (balances[msg.sender] >= value && value > 0) {\r\n            balances[msg.sender] -= value;\r\n            balances[to] += value;\r\n            emit Transfer(msg.sender, to, value);\r\n            return true;\r\n        } else {\r\n            return false;\r\n        }\r\n    }\r\n\r\n    function transferFrom(address from, address to, uint256 value) public returns (bool success) {\r\n        claimDividends(from);\r\n        claimDividends(to);\r\n        if (balances[from] >= value && allowed[from][msg.sender] >= value && value > 0) {\r\n            balances[to] += value;\r\n            balances[from] -= value;\r\n            allowed[from][msg.sender] -= value;\r\n            emit Transfer(from, to, value);\r\n            return true;\r\n        } else {\r\n            return false;\r\n        }\r\n    }\r\n\r\n    function approve(address spender, uint256 value) public returns (bool success) {\r\n        allowed[msg.sender][spender] = value;\r\n        emit Approval(msg.sender, spender, value);\r\n        return true;\r\n    }\r\n\r\n    receive() external payable {\r\n        dao.addresses('oracle').transfer(address(this).balance);\r\n    }\r\n}\r\n",
  "sourcePath": "C:\\Users\\d.nagornykh\\YandexDisk\\\\ICO\\CryptoFiat\\repo\\contracts\\Platform.sol",
  "compiler": {
    "name": "solc",
    "version": "0.8.10+commit.fc410830.Emscripten.clang"
  },
  "schemaVersion": "3.4.11",
  "updatedAt": "2023-03-14T06:05:35.313Z",
  "networkType": "ethereum",
  "devdoc": {
    "kind": "dev",
    "methods": {},
    "version": 1
  },
  "userdoc": {
    "kind": "user",
    "methods": {},
    "version": 1
  }
}