{
  "contractName": "Platform",
  "abi": [
    {
      "inputs": [
        {
          "internalType": "address payable",
          "name": "INTDAOaddress",
          "type": "address"
        }
      ],
      "stateMutability": "nonpayable",
      "type": "constructor"
    },
    {
      "anonymous": false,
      "inputs": [
        {
          "indexed": true,
          "internalType": "address",
          "name": "owner",
          "type": "address"
        },
        {
          "indexed": true,
          "internalType": "address",
          "name": "spender",
          "type": "address"
        },
        {
          "indexed": false,
          "internalType": "uint256",
          "name": "value",
          "type": "uint256"
        }
      ],
      "name": "Approval",
      "type": "event"
    },
    {
      "anonymous": false,
      "inputs": [
        {
          "indexed": true,
          "internalType": "address",
          "name": "from",
          "type": "address"
        },
        {
          "indexed": true,
          "internalType": "address",
          "name": "to",
          "type": "address"
        },
        {
          "indexed": false,
          "internalType": "uint256",
          "name": "value",
          "type": "uint256"
        }
      ],
      "name": "Transfer",
      "type": "event"
    },
    {
      "anonymous": false,
      "inputs": [
        {
          "indexed": false,
          "internalType": "uint256",
          "name": "round",
          "type": "uint256"
        },
        {
          "indexed": false,
          "internalType": "address",
          "name": "rewardToken",
          "type": "address"
        },
        {
          "indexed": false,
          "internalType": "uint256",
          "name": "amount",
          "type": "uint256"
        }
      ],
      "name": "newDividendsRound",
      "type": "event"
    },
    {
      "inputs": [
        {
          "internalType": "address",
          "name": "owner",
          "type": "address"
        },
        {
          "internalType": "address",
          "name": "spender",
          "type": "address"
        }
      ],
      "name": "allowance",
      "outputs": [
        {
          "internalType": "uint256",
          "name": "",
          "type": "uint256"
        }
      ],
      "stateMutability": "view",
      "type": "function"
    },
    {
      "inputs": [
        {
          "internalType": "address",
          "name": "spender",
          "type": "address"
        },
        {
          "internalType": "uint256",
          "name": "amount",
          "type": "uint256"
        }
      ],
      "name": "approve",
      "outputs": [
        {
          "internalType": "bool",
          "name": "",
          "type": "bool"
        }
      ],
      "stateMutability": "nonpayable",
      "type": "function"
    },
    {
      "inputs": [
        {
          "internalType": "address",
          "name": "account",
          "type": "address"
        }
      ],
      "name": "balanceOf",
      "outputs": [
        {
          "internalType": "uint256",
          "name": "",
          "type": "uint256"
        }
      ],
      "stateMutability": "view",
      "type": "function"
    },
    {
      "inputs": [],
      "name": "currentDividendsRound",
      "outputs": [
        {
          "internalType": "uint256",
          "name": "",
          "type": "uint256"
        }
      ],
      "stateMutability": "view",
      "type": "function"
    },
    {
      "inputs": [],
      "name": "decimals",
      "outputs": [
        {
          "internalType": "uint8",
          "name": "",
          "type": "uint8"
        }
      ],
      "stateMutability": "view",
      "type": "function"
    },
    {
      "inputs": [
        {
          "internalType": "address",
          "name": "spender",
          "type": "address"
        },
        {
          "internalType": "uint256",
          "name": "subtractedValue",
          "type": "uint256"
        }
      ],
      "name": "decreaseAllowance",
      "outputs": [
        {
          "internalType": "bool",
          "name": "",
          "type": "bool"
        }
      ],
      "stateMutability": "nonpayable",
      "type": "function"
    },
    {
      "inputs": [
        {
          "internalType": "uint256",
          "name": "",
          "type": "uint256"
        }
      ],
      "name": "dividendsPerRoundPerToken",
      "outputs": [
        {
          "internalType": "uint256",
          "name": "",
          "type": "uint256"
        }
      ],
      "stateMutability": "view",
      "type": "function"
    },
    {
      "inputs": [
        {
          "internalType": "uint256",
          "name": "",
          "type": "uint256"
        }
      ],
      "name": "dividendsRounds",
      "outputs": [
        {
          "internalType": "address",
          "name": "",
          "type": "address"
        }
      ],
      "stateMutability": "view",
      "type": "function"
    },
    {
      "inputs": [
        {
          "internalType": "address",
          "name": "spender",
          "type": "address"
        },
        {
          "internalType": "uint256",
          "name": "addedValue",
          "type": "uint256"
        }
      ],
      "name": "increaseAllowance",
      "outputs": [
        {
          "internalType": "bool",
          "name": "",
          "type": "bool"
        }
      ],
      "stateMutability": "nonpayable",
      "type": "function"
    },
    {
      "inputs": [
        {
          "internalType": "address",
          "name": "",
          "type": "address"
        }
      ],
      "name": "isMintedByPlatform",
      "outputs": [
        {
          "internalType": "bool",
          "name": "",
          "type": "bool"
        }
      ],
      "stateMutability": "view",
      "type": "function"
    },
    {
      "inputs": [
        {
          "internalType": "address",
          "name": "",
          "type": "address"
        }
      ],
      "name": "lastPayedDividendsRound",
      "outputs": [
        {
          "internalType": "uint256",
          "name": "",
          "type": "uint256"
        }
      ],
      "stateMutability": "view",
      "type": "function"
    },
    {
      "inputs": [],
      "name": "mintedNum",
      "outputs": [
        {
          "internalType": "uint256",
          "name": "",
          "type": "uint256"
        }
      ],
      "stateMutability": "view",
      "type": "function"
    },
    {
      "inputs": [
        {
          "internalType": "uint256",
          "name": "",
          "type": "uint256"
        }
      ],
      "name": "mintedTokens",
      "outputs": [
        {
          "internalType": "address",
          "name": "",
          "type": "address"
        }
      ],
      "stateMutability": "view",
      "type": "function"
    },
    {
      "inputs": [],
      "name": "name",
      "outputs": [
        {
          "internalType": "string",
          "name": "",
          "type": "string"
        }
      ],
      "stateMutability": "view",
      "type": "function"
    },
    {
      "inputs": [],
      "name": "ownerAddress",
      "outputs": [
        {
          "internalType": "address",
          "name": "",
          "type": "address"
        }
      ],
      "stateMutability": "view",
      "type": "function"
    },
    {
      "inputs": [],
      "name": "symbol",
      "outputs": [
        {
          "internalType": "string",
          "name": "",
          "type": "string"
        }
      ],
      "stateMutability": "view",
      "type": "function"
    },
    {
      "inputs": [],
      "name": "tokenMinter",
      "outputs": [
        {
          "internalType": "address",
          "name": "",
          "type": "address"
        }
      ],
      "stateMutability": "view",
      "type": "function"
    },
    {
      "inputs": [],
      "name": "totalSupply",
      "outputs": [
        {
          "internalType": "uint256",
          "name": "",
          "type": "uint256"
        }
      ],
      "stateMutability": "view",
      "type": "function"
    },
    {
      "inputs": [
        {
          "internalType": "address",
          "name": "to",
          "type": "address"
        },
        {
          "internalType": "uint256",
          "name": "amount",
          "type": "uint256"
        }
      ],
      "name": "transfer",
      "outputs": [
        {
          "internalType": "bool",
          "name": "",
          "type": "bool"
        }
      ],
      "stateMutability": "nonpayable",
      "type": "function"
    },
    {
      "inputs": [
        {
          "internalType": "address",
          "name": "from",
          "type": "address"
        },
        {
          "internalType": "address",
          "name": "to",
          "type": "address"
        },
        {
          "internalType": "uint256",
          "name": "amount",
          "type": "uint256"
        }
      ],
      "name": "transferFrom",
      "outputs": [
        {
          "internalType": "bool",
          "name": "",
          "type": "bool"
        }
      ],
      "stateMutability": "nonpayable",
      "type": "function"
    },
    {
      "inputs": [
        {
          "internalType": "address",
          "name": "addr",
          "type": "address"
        }
      ],
      "name": "changeMinter",
      "outputs": [],
      "stateMutability": "nonpayable",
      "type": "function"
    },
    {
      "inputs": [],
      "name": "renewContracts",
      "outputs": [],
      "stateMutability": "nonpayable",
      "type": "function"
    },
    {
      "inputs": [
        {
          "internalType": "address",
          "name": "addr",
          "type": "address"
        }
      ],
      "name": "claimDividends",
      "outputs": [],
      "stateMutability": "nonpayable",
      "type": "function"
    },
    {
      "inputs": [
        {
          "internalType": "address",
          "name": "addr",
          "type": "address"
        }
      ],
      "name": "addMintedToken",
      "outputs": [],
      "stateMutability": "nonpayable",
      "type": "function"
    },
    {
      "inputs": [
        {
          "internalType": "address",
          "name": "rewardToken",
          "type": "address"
        },
        {
          "internalType": "uint256",
          "name": "amount",
          "type": "uint256"
        }
      ],
      "name": "addDividend",
      "outputs": [
        {
          "internalType": "bool",
          "name": "success",
          "type": "bool"
        }
      ],
      "stateMutability": "nonpayable",
      "type": "function"
    },
    {
      "inputs": [
        {
          "internalType": "uint256",
          "name": "amount",
          "type": "uint256"
        },
        {
          "internalType": "address",
          "name": "beneficiary",
          "type": "address"
        }
      ],
      "name": "claimInterestForMintedTokenHolder",
      "outputs": [],
      "stateMutability": "nonpayable",
      "type": "function"
    },
    {
      "inputs": [],
      "name": "getCurrentInterestRate",
      "outputs": [
        {
          "internalType": "uint256",
          "name": "interestRate",
          "type": "uint256"
        }
      ],
      "stateMutability": "view",
      "type": "function"
    }
  ],
  "bytecode": "0x60806040523480156200001157600080fd5b5060405162001c4738038062001c478339810160408190526200003491620003b8565b6040518060400160405280601581526020017f43726f776466756e64696e6720706c6174666f726d00000000000000000000008152506040518060400160405280600381526020016204346560ec1b815250816003908162000097919062000483565b506004620000a6828262000483565b505050620000e033620000be620002cf60201b60201c565b620000cb90600a62000664565b620000da90620f424062000675565b620002d4565b600880546001600160a01b0319166001600160a01b03831690811790915560405163bdfe7d4760e01b815260206004820152600a60248201526939ba30b13632a1b7b4b760b11b604482015263bdfe7d4790606401602060405180830381865afa15801562000153573d6000803e3d6000fd5b505050506040513d601f19601f82011682018060405250810190620001799190620003b8565b600a80546001600160a01b0319166001600160a01b0392831617905560085460405163bdfe7d4760e01b815260206004820152600360248201526206364760ec1b604482015291169063bdfe7d4790606401602060405180830381865afa158015620001e9573d6000803e3d6000fd5b505050506040513d601f19601f820116820180604052508101906200020f9190620003b8565b600980546001600160a01b0319166001600160a01b03928316179055600880546040805163155ef82760e11b81526004810191909152604481019290925267706c6174666f726d60c01b606483015230602483015290911690632abdf04e90608401600060405180830381600087803b1580156200028c57600080fd5b505af1158015620002a1573d6000803e3d6000fd5b505060058054336001600160a01b0319918216811790925560068054909116909117905550620006a5915050565b601290565b6001600160a01b0382166200032f5760405162461bcd60e51b815260206004820152601f60248201527f45524332303a206d696e7420746f20746865207a65726f206164647265737300604482015260640160405180910390fd5b80600260008282546200034391906200068f565b90915550506001600160a01b038216600081815260208181526040808320805486019055518481527fddf252ad1be2c89b69c2b068fc378daa952ba7f163c4a11628f55a4df523b3ef910160405180910390a35050565b505050565b6001600160a01b0381168114620003b557600080fd5b50565b600060208284031215620003cb57600080fd5b8151620003d8816200039f565b9392505050565b634e487b7160e01b600052604160045260246000fd5b600181811c908216806200040a57607f821691505b6020821081036200042b57634e487b7160e01b600052602260045260246000fd5b50919050565b601f8211156200039a57600081815260208120601f850160051c810160208610156200045a5750805b601f850160051c820191505b818110156200047b5782815560010162000466565b505050505050565b81516001600160401b038111156200049f576200049f620003df565b620004b781620004b08454620003f5565b8462000431565b602080601f831160018114620004ef5760008415620004d65750858301515b600019600386901b1c1916600185901b1785556200047b565b600085815260208120601f198616915b828110156200052057888601518255948401946001909101908401620004ff565b50858210156200053f5787850151600019600388901b60f8161c191681555b5050505050600190811b01905550565b634e487b7160e01b600052601160045260246000fd5b600181815b80851115620005a65781600019048211156200058a576200058a6200054f565b808516156200059857918102915b93841c93908002906200056a565b509250929050565b600082620005bf575060016200065e565b81620005ce575060006200065e565b8160018114620005e75760028114620005f25762000612565b60019150506200065e565b60ff8411156200060657620006066200054f565b50506001821b6200065e565b5060208310610133831016604e8410600b841016171562000637575081810a6200065e565b62000643838362000565565b80600019048211156200065a576200065a6200054f565b0290505b92915050565b6000620003d860ff841683620005ae565b80820281158282048414176200065e576200065e6200054f565b808201808211156200065e576200065e6200054f565b61159280620006b56000396000f3fe608060405234801561001057600080fd5b50600436106101495760003560e01c8063068c44391461014e57806306fdde0314610163578063095ea7b3146101815780630d113473146101a457806312bc460d146101bb57806318160ddd146101db5780631d960e6a146101e357806323b872dd1461021957806323d86a651461022c5780632c350879146102345780632c4d4d1814610247578063313ce5671461025a57806339509351146102695780636de9944d1461027c57806370a082311461028f5780637ef758d4146102a25780638f84aa09146102cb57806395d89b41146102de578063a457c2d7146102e6578063a9059cbb146102f9578063af86530d1461030c578063c7e772ed1461032c578063c98df8c51461033f578063cb1c80f814610362578063cfb3647b1461036b578063dd62ed3e1461037e578063ff516c4914610391575b600080fd5b61016161015c36600461114c565b610399565b005b61016b6104ab565b6040516101789190611170565b60405180910390f35b61019461018f3660046111be565b61053d565b6040519015158152602001610178565b6101ad60075481565b604051908152602001610178565b6101ad6101c936600461114c565b60106020526000908152604090205481565b6002546101ad565b61020c6101f13660046111ea565b600e602052600090815260409020546001600160a01b031681565b6040516101789190611203565b610194610227366004611217565b610557565b61016161057b565b610161610242366004611258565b61069f565b61016161025536600461114c565b610787565b60405160128152602001610178565b6101946102773660046111be565b6107d3565b61019461028a3660046111be565b6107f5565b6101ad61029d36600461114c565b6109f9565b61020c6102b03660046111ea565b600d602052600090815260409020546001600160a01b031681565b60065461020c906001600160a01b031681565b61016b610a14565b6101946102f43660046111be565b610a23565b6101946103073660046111be565b610a9e565b6101ad61031a3660046111ea565b600f6020526000908152604090205481565b61016161033a36600461114c565b610aac565b61019461034d36600461114c565b600c6020526000908152604090205460ff1681565b6101ad600b5481565b60055461020c906001600160a01b031681565b6101ad61038c366004611288565b610d39565b6101ad610d64565b6005546001600160a01b031633146103cc5760405162461bcd60e51b81526004016103c3906112b6565b60405180910390fd5b6000819050306001600160a01b0316816001600160a01b031663946bb4f66040518163ffffffff1660e01b8152600401602060405180830381865afa158015610419573d6000803e3d6000fd5b505050506040513d601f19601f8201168201806040525081019061043d91906112eb565b6001600160a01b03161461045057600080fd5b6001600160a01b0382166000818152600c60209081526040808320805460ff19166001179055600780548452600d909252822080546001600160a01b031916909317909255815491906104a28361131e565b91905055505050565b6060600380546104ba90611337565b80601f01602080910402602001604051908101604052809291908181526020018280546104e690611337565b80156105335780601f1061050857610100808354040283529160200191610533565b820191906000526020600020905b81548152906001019060200180831161051657829003601f168201915b5050505050905090565b60003361054b818585610df2565b60019150505b92915050565b600033610565858285610f16565b610570858585610f90565b506001949350505050565b60085460405163bdfe7d4760e01b81526001600160a01b039091169063bdfe7d47906105a990600401611371565b602060405180830381865afa1580156105c6573d6000803e3d6000fd5b505050506040513d601f19601f820116820180604052508101906105ea91906112eb565b600a80546001600160a01b0319166001600160a01b0392831617905560085460405163bdfe7d4760e01b815260206004820152600360248201526206364760ec1b604482015291169063bdfe7d4790606401602060405180830381865afa158015610659573d6000803e3d6000fd5b505050506040513d601f19601f8201168201806040525081019061067d91906112eb565b600980546001600160a01b0319166001600160a01b0392909216919091179055565b336000908152600c602052604090205460ff1661071d5760405162461bcd60e51b815260206004820152603660248201527f6f6e6c7920746f6b656e732c206d696e7465642062792074686520706c6174666044820152751bdc9b481b585e4818db185a5b481a5b9d195c995cdd60521b60648201526084016103c3565b600954604051637f660be160e01b8152600481018490526001600160a01b03838116602483015290911690637f660be190604401600060405180830381600087803b15801561076b57600080fd5b505af115801561077f573d6000803e3d6000fd5b505050505050565b6006546001600160a01b031633146107b15760405162461bcd60e51b81526004016103c3906112b6565b600580546001600160a01b0319166001600160a01b0392909216919091179055565b60003361054b8185856107e68383610d39565b6107f09190611395565b610df2565b60008082116108375760405162461bcd60e51b815260206004820152600e60248201526d646f6e742062652067726565647960901b60448201526064016103c3565b60085460405163bdfe7d4760e01b81526001600160a01b039091169063bdfe7d479061086590600401611371565b602060405180830381865afa158015610882573d6000803e3d6000fd5b505050506040513d601f19601f820116820180604052508101906108a691906112eb565b6001600160a01b0316836001600160a01b031614806108dd57506001600160a01b0383166000908152600c602052604090205460ff165b6108f95760405162461bcd60e51b81526004016103c3906113a8565b336000908152600c602052604090205460ff166109285760405162461bcd60e51b81526004016103c3906113a8565b600b546000908152600e6020526040902080546001600160a01b0319166001600160a01b03851617905560025482601261096390600a6114c0565b61096d91906114cf565b61097791906114e6565b600b80546000908152600f602090815260409182902093909355905481519081526001600160a01b0386169281019290925281018390527f1376b5062146706e44d67ac2b98488ecfbacc14bf5603aa8abb88124c9fd1b079060600160405180910390a1600b80549060006109eb8361131e565b909155506001949350505050565b6001600160a01b031660009081526020819052604090205490565b6060600480546104ba90611337565b60003381610a318286610d39565b905083811015610a915760405162461bcd60e51b815260206004820152602560248201527f45524332303a2064656372656173656420616c6c6f77616e63652062656c6f77604482015264207a65726f60d81b60648201526084016103c3565b6105708286868403610df2565b60003361054b818585610f90565b600080823b15610ac857506005546001600160a01b0316610acb565b50815b6001600160a01b0383166000908152601060205260409020545b600b54811015610d14576000818152600e6020908152604080832054600f909252909120546001600160a01b0390911690670de0b6b3a7640000610b28876109f9565b610b3291906114e6565b610b3c91906114cf565b935083816001600160a01b03166370a08231306040518263ffffffff1660e01b8152600401610b6b9190611203565b602060405180830381865afa158015610b88573d6000803e3d6000fd5b505050506040513d601f19601f82011682018060405250810190610bac9190611508565b10610c285760405163a9059cbb60e01b81526001600160a01b0382169063a9059cbb90610bdf9086908890600401611521565b6020604051808303816000875af1158015610bfe573d6000803e3d6000fd5b505050506040513d601f19601f82011682018060405250810190610c22919061153a565b50610d01565b6040516370a0823160e01b81526001600160a01b0382169063a9059cbb90859083906370a0823190610c5e903090600401611203565b602060405180830381865afa158015610c7b573d6000803e3d6000fd5b505050506040513d601f19601f82011682018060405250810190610c9f9190611508565b6040518363ffffffff1660e01b8152600401610cbc929190611521565b6020604051808303816000875af1158015610cdb573d6000803e3d6000fd5b505050506040513d601f19601f82011682018060405250810190610cff919061153a565b505b5080610d0c8161131e565b915050610ae5565b5050600b546001600160a01b0390921660009081526010602052604090209190915550565b6001600160a01b03918216600090815260016020908152604080832093909416825291909152205490565b60085460405163145f822b60e01b815260206004820152600b60248201526a6465706f7369745261746560a81b60448201526000916001600160a01b03169063145f822b90606401602060405180830381865afa158015610dc9573d6000803e3d6000fd5b505050506040513d601f19601f82011682018060405250810190610ded9190611508565b905090565b6001600160a01b038316610e545760405162461bcd60e51b8152602060048201526024808201527f45524332303a20617070726f76652066726f6d20746865207a65726f206164646044820152637265737360e01b60648201526084016103c3565b6001600160a01b038216610eb55760405162461bcd60e51b815260206004820152602260248201527f45524332303a20617070726f766520746f20746865207a65726f206164647265604482015261737360f01b60648201526084016103c3565b6001600160a01b0383811660008181526001602090815260408083209487168084529482529182902085905590518481527f8c5be1e5ebec7d5bd14f71427d1e84f3dd0314c0f7b2291e5b200ac8c7c3b925910160405180910390a3505050565b6000610f228484610d39565b90506000198114610f8a5781811015610f7d5760405162461bcd60e51b815260206004820152601d60248201527f45524332303a20696e73756666696369656e7420616c6c6f77616e636500000060448201526064016103c3565b610f8a8484848403610df2565b50505050565b6001600160a01b038316610ff45760405162461bcd60e51b815260206004820152602560248201527f45524332303a207472616e736665722066726f6d20746865207a65726f206164604482015264647265737360d81b60648201526084016103c3565b6001600160a01b0382166110565760405162461bcd60e51b815260206004820152602360248201527f45524332303a207472616e7366657220746f20746865207a65726f206164647260448201526265737360e81b60648201526084016103c3565b6001600160a01b038316600090815260208190526040902054818110156110ce5760405162461bcd60e51b815260206004820152602660248201527f45524332303a207472616e7366657220616d6f756e7420657863656564732062604482015265616c616e636560d01b60648201526084016103c3565b6001600160a01b03848116600081815260208181526040808320878703905593871680835291849020805487019055925185815290927fddf252ad1be2c89b69c2b068fc378daa952ba7f163c4a11628f55a4df523b3ef910160405180910390a3610f8a565b6001600160a01b038116811461114957600080fd5b50565b60006020828403121561115e57600080fd5b813561116981611134565b9392505050565b600060208083528351808285015260005b8181101561119d57858101830151858201604001528201611181565b506000604082860101526040601f19601f8301168501019250505092915050565b600080604083850312156111d157600080fd5b82356111dc81611134565b946020939093013593505050565b6000602082840312156111fc57600080fd5b5035919050565b6001600160a01b0391909116815260200190565b60008060006060848603121561122c57600080fd5b833561123781611134565b9250602084013561124781611134565b929592945050506040919091013590565b6000806040838503121561126b57600080fd5b82359150602083013561127d81611134565b809150509250929050565b6000806040838503121561129b57600080fd5b82356112a681611134565b9150602083013561127d81611134565b6020808252818101527f546869732066756e6374696f6e20697320666f72206d696e746572206f6e6c79604082015260600190565b6000602082840312156112fd57600080fd5b815161116981611134565b634e487b7160e01b600052601160045260246000fd5b60006001820161133057611330611308565b5060010190565b600181811c9082168061134b57607f821691505b60208210810361136b57634e487b7160e01b600052602260045260246000fd5b50919050565b6020808252600a908201526939ba30b13632a1b7b4b760b11b604082015260600190565b8082018082111561055157610551611308565b6020808252601a90820152796f6e6c7920666f7220617574686f72697a656420746f6b656e7360301b604082015260600190565b600181815b808511156114175781600019048211156113fd576113fd611308565b8085161561140a57918102915b93841c93908002906113e1565b509250929050565b60008261142e57506001610551565b8161143b57506000610551565b8160018114611451576002811461145b57611477565b6001915050610551565b60ff84111561146c5761146c611308565b50506001821b610551565b5060208310610133831016604e8410600b841016171561149a575081810a610551565b6114a483836113dc565b80600019048211156114b8576114b8611308565b029392505050565b600061116960ff84168361141f565b808202811582820484141761055157610551611308565b60008261150357634e487b7160e01b600052601260045260246000fd5b500490565b60006020828403121561151a57600080fd5b5051919050565b6001600160a01b03929092168252602082015260400190565b60006020828403121561154c57600080fd5b8151801515811461116957600080fdfea26469706673582212203a86a9b60874b012d0bded73418179cc2d98a26232112ca834cea0a786d946f264736f6c63430008130033",
  "immutableReferences": {},
  "source": "// SPDX-License-Identifier: UNLICENSED\r\n\r\nimport \"@openzeppelin/contracts/token/ERC20/IERC20.sol\";\r\n\r\ninterface IDAO{\r\n    function addresses(string memory) external view returns (address);\r\n    function params(string memory) external view returns (uint256);\r\n    function setAddressOnce(string memory, address) external;\r\n}\r\n\r\ninterface ICDP{\r\n    function claimInterest(uint256 amount, address beneficiary) external;\r\n}\r\n\r\nimport \"./tokenTemplate.sol\";\r\n\r\npragma solidity 0.8.19;\r\n\r\ncontract Platform is ERC20{\r\n    address public tokenMinter;\r\n    address public ownerAddress;\r\n    uint256 public mintedNum;\r\n\r\n    event newDividendsRound(uint256 round, address rewardToken, uint256 amount);\r\n\r\n    IDAO dao;\r\n    ICDP cdp;\r\n    IERC20 coin;\r\n\r\n    uint256 public currentDividendsRound;\r\n    mapping (address => bool) public isMintedByPlatform;\r\n    mapping (uint256 => address) public mintedTokens;\r\n    mapping (uint256 => address) public dividendsRounds;\r\n    mapping (uint256 => uint256) public dividendsPerRoundPerToken;\r\n    mapping (address => uint256) public lastPayedDividendsRound;\r\n\r\n    modifier onlyMinter{\r\n        require(msg.sender == tokenMinter, \"This function is for minter only\");\r\n        _;\r\n    }\r\n\r\n    modifier onlyOwner{\r\n        require(msg.sender == ownerAddress, \"This function is for minter only\");\r\n        _;\r\n    }\r\n\r\n    constructor(address payable INTDAOaddress) ERC20(\"Crowdfunding platform\", \"CFP\"){\r\n        _mint(msg.sender, 10**6*10**decimals());\r\n        dao = IDAO(INTDAOaddress);\r\n        coin = IERC20(dao.addresses('stableCoin'));\r\n        cdp = ICDP(dao.addresses('cdp'));\r\n        dao.setAddressOnce('platform',payable(address(this)));\r\n        tokenMinter = msg.sender;\r\n        ownerAddress = msg.sender;\r\n    }\r\n\r\n    function changeMinter(address addr) public onlyOwner{\r\n        tokenMinter = addr;\r\n    }\r\n\r\n    function renewContracts() public {\r\n        coin = IERC20(dao.addresses('stableCoin'));\r\n        cdp = ICDP(dao.addresses('cdp'));\r\n    }\r\n\r\n    function claimDividends(address addr) public{\r\n        uint256 divAmount;\r\n        address beneficiary;\r\n        if (isContract(addr)) {\r\n            beneficiary = tokenMinter;\r\n        }\r\n        else beneficiary = addr;\r\n        for (uint256 i=lastPayedDividendsRound[addr]; i<currentDividendsRound; i++){\r\n            ERC20 token = ERC20(dividendsRounds[i]);\r\n            divAmount = balanceOf(addr)/10**18*dividendsPerRoundPerToken[i];\r\n            if (token.balanceOf(address(this))>=divAmount)\r\n                token.transfer(beneficiary, divAmount);\r\n            else\r\n                token.transfer(beneficiary, token.balanceOf(address(this)));\r\n        }\r\n        lastPayedDividendsRound[addr] = currentDividendsRound;\r\n    }\r\n\r\n    function isContract(address addr) internal view returns (bool) {\r\n        uint size;\r\n        assembly { size := extcodesize(addr) }\r\n        return size > 0;\r\n    }\r\n\r\n    function addMintedToken(address addr) public onlyMinter{\r\n        tokenTemplate token = tokenTemplate(addr);\r\n        require(token.platformContractAddress() == address(this));\r\n        isMintedByPlatform[addr] = true;\r\n        mintedTokens[mintedNum] = addr;\r\n        mintedNum++;\r\n    }\r\n\r\n    function addDividend(address rewardToken, uint256 amount) public returns(bool success){\r\n        require(amount>0, \"dont be greedy\");\r\n        require(rewardToken == dao.addresses('stableCoin') || isMintedByPlatform[rewardToken], \"only for authorized tokens\");\r\n        require(isMintedByPlatform[msg.sender], \"only for authorized tokens\");\r\n        dividendsRounds[currentDividendsRound] = rewardToken;\r\n        dividendsPerRoundPerToken[currentDividendsRound] = 10**decimals()*amount/totalSupply();\r\n        emit newDividendsRound(currentDividendsRound, rewardToken, amount);\r\n        currentDividendsRound++;\r\n        return true;\r\n    }\r\n\r\n    function claimInterestForMintedTokenHolder(uint256 amount, address beneficiary) public{\r\n        require(isMintedByPlatform[msg.sender], \"only tokens, minted by the platform may claim interest\");\r\n        cdp.claimInterest(amount, beneficiary);\r\n    }\r\n\r\n    function getCurrentInterestRate() public view returns (uint256 interestRate){\r\n        return dao.params('depositRate');\r\n    }\r\n}\r\n",
  "sourcePath": "C:\\Users\\d.nagornykh\\YandexDisk\\\\ICO\\CryptoFiat\\repo\\contracts\\Platform.sol",
  "compiler": {
    "name": "solc",
    "version": "0.8.19+commit.7dd6d404.Emscripten.clang"
  },
  "schemaVersion": "3.4.14",
  "updatedAt": "2023-08-14T08:16:10.286Z",
  "devdoc": {
    "events": {
      "Approval(address,address,uint256)": {
        "details": "Emitted when the allowance of a `spender` for an `owner` is set by a call to {approve}. `value` is the new allowance."
      },
      "Transfer(address,address,uint256)": {
        "details": "Emitted when `value` tokens are moved from one account (`from`) to another (`to`). Note that `value` may be zero."
      }
    },
    "kind": "dev",
    "methods": {
      "allowance(address,address)": {
        "details": "See {IERC20-allowance}."
      },
      "approve(address,uint256)": {
        "details": "See {IERC20-approve}. NOTE: If `amount` is the maximum `uint256`, the allowance is not updated on `transferFrom`. This is semantically equivalent to an infinite approval. Requirements: - `spender` cannot be the zero address."
      },
      "balanceOf(address)": {
        "details": "See {IERC20-balanceOf}."
      },
      "decimals()": {
        "details": "Returns the number of decimals used to get its user representation. For example, if `decimals` equals `2`, a balance of `505` tokens should be displayed to a user as `5.05` (`505 / 10 ** 2`). Tokens usually opt for a value of 18, imitating the relationship between Ether and Wei. This is the default value returned by this function, unless it's overridden. NOTE: This information is only used for _display_ purposes: it in no way affects any of the arithmetic of the contract, including {IERC20-balanceOf} and {IERC20-transfer}."
      },
      "decreaseAllowance(address,uint256)": {
        "details": "Atomically decreases the allowance granted to `spender` by the caller. This is an alternative to {approve} that can be used as a mitigation for problems described in {IERC20-approve}. Emits an {Approval} event indicating the updated allowance. Requirements: - `spender` cannot be the zero address. - `spender` must have allowance for the caller of at least `subtractedValue`."
      },
      "increaseAllowance(address,uint256)": {
        "details": "Atomically increases the allowance granted to `spender` by the caller. This is an alternative to {approve} that can be used as a mitigation for problems described in {IERC20-approve}. Emits an {Approval} event indicating the updated allowance. Requirements: - `spender` cannot be the zero address."
      },
      "name()": {
        "details": "Returns the name of the token."
      },
      "symbol()": {
        "details": "Returns the symbol of the token, usually a shorter version of the name."
      },
      "totalSupply()": {
        "details": "See {IERC20-totalSupply}."
      },
      "transfer(address,uint256)": {
        "details": "See {IERC20-transfer}. Requirements: - `to` cannot be the zero address. - the caller must have a balance of at least `amount`."
      },
      "transferFrom(address,address,uint256)": {
        "details": "See {IERC20-transferFrom}. Emits an {Approval} event indicating the updated allowance. This is not required by the EIP. See the note at the beginning of {ERC20}. NOTE: Does not update the allowance if the current allowance is the maximum `uint256`. Requirements: - `from` and `to` cannot be the zero address. - `from` must have a balance of at least `amount`. - the caller must have allowance for ``from``'s tokens of at least `amount`."
      }
    },
    "version": 1
  },
  "userdoc": {
    "kind": "user",
    "methods": {},
    "version": 1
  }
}