{
  "contractName": "Rule",
  "abi": [
    {
      "inputs": [
        {
          "internalType": "address payable",
          "name": "_INTDAOaddress",
          "type": "address"
        }
      ],
      "stateMutability": "nonpayable",
      "type": "constructor"
    },
    {
      "anonymous": false,
      "inputs": [
        {
          "indexed": true,
          "internalType": "address",
          "name": "owner",
          "type": "address"
        },
        {
          "indexed": true,
          "internalType": "address",
          "name": "spender",
          "type": "address"
        },
        {
          "indexed": false,
          "internalType": "uint256",
          "name": "value",
          "type": "uint256"
        }
      ],
      "name": "Approval",
      "type": "event"
    },
    {
      "anonymous": false,
      "inputs": [
        {
          "indexed": false,
          "internalType": "address",
          "name": "from",
          "type": "address"
        },
        {
          "indexed": false,
          "internalType": "uint256",
          "name": "value",
          "type": "uint256"
        }
      ],
      "name": "Burned",
      "type": "event"
    },
    {
      "anonymous": false,
      "inputs": [
        {
          "indexed": false,
          "internalType": "address",
          "name": "to",
          "type": "address"
        },
        {
          "indexed": false,
          "internalType": "uint256",
          "name": "value",
          "type": "uint256"
        }
      ],
      "name": "Mint",
      "type": "event"
    },
    {
      "anonymous": false,
      "inputs": [
        {
          "indexed": true,
          "internalType": "address",
          "name": "from",
          "type": "address"
        },
        {
          "indexed": true,
          "internalType": "address",
          "name": "to",
          "type": "address"
        },
        {
          "indexed": false,
          "internalType": "uint256",
          "name": "value",
          "type": "uint256"
        }
      ],
      "name": "Transfer",
      "type": "event"
    },
    {
      "inputs": [],
      "name": "name",
      "outputs": [
        {
          "internalType": "string",
          "name": "",
          "type": "string"
        }
      ],
      "stateMutability": "view",
      "type": "function",
      "constant": true
    },
    {
      "inputs": [],
      "name": "symbol",
      "outputs": [
        {
          "internalType": "string",
          "name": "",
          "type": "string"
        }
      ],
      "stateMutability": "view",
      "type": "function",
      "constant": true
    },
    {
      "stateMutability": "payable",
      "type": "receive",
      "payable": true
    },
    {
      "inputs": [],
      "name": "totalSupply",
      "outputs": [
        {
          "internalType": "uint256",
          "name": "supply",
          "type": "uint256"
        }
      ],
      "stateMutability": "view",
      "type": "function",
      "constant": true
    },
    {
      "inputs": [
        {
          "internalType": "address",
          "name": "tokenHolder",
          "type": "address"
        }
      ],
      "name": "balanceOf",
      "outputs": [
        {
          "internalType": "uint256",
          "name": "balance",
          "type": "uint256"
        }
      ],
      "stateMutability": "view",
      "type": "function",
      "constant": true
    },
    {
      "inputs": [
        {
          "internalType": "address",
          "name": "owner",
          "type": "address"
        },
        {
          "internalType": "address",
          "name": "spender",
          "type": "address"
        }
      ],
      "name": "allowance",
      "outputs": [
        {
          "internalType": "uint256",
          "name": "",
          "type": "uint256"
        }
      ],
      "stateMutability": "view",
      "type": "function",
      "constant": true
    },
    {
      "inputs": [
        {
          "internalType": "address",
          "name": "to",
          "type": "address"
        },
        {
          "internalType": "uint256",
          "name": "value",
          "type": "uint256"
        }
      ],
      "name": "transfer",
      "outputs": [
        {
          "internalType": "bool",
          "name": "success",
          "type": "bool"
        }
      ],
      "stateMutability": "nonpayable",
      "type": "function"
    },
    {
      "inputs": [
        {
          "internalType": "address",
          "name": "from",
          "type": "address"
        },
        {
          "internalType": "address",
          "name": "to",
          "type": "address"
        },
        {
          "internalType": "uint256",
          "name": "value",
          "type": "uint256"
        }
      ],
      "name": "transferFrom",
      "outputs": [
        {
          "internalType": "bool",
          "name": "success",
          "type": "bool"
        }
      ],
      "stateMutability": "nonpayable",
      "type": "function"
    },
    {
      "inputs": [
        {
          "internalType": "address",
          "name": "spender",
          "type": "address"
        },
        {
          "internalType": "uint256",
          "name": "value",
          "type": "uint256"
        }
      ],
      "name": "approve",
      "outputs": [
        {
          "internalType": "bool",
          "name": "success",
          "type": "bool"
        }
      ],
      "stateMutability": "nonpayable",
      "type": "function"
    },
    {
      "inputs": [
        {
          "internalType": "address",
          "name": "to",
          "type": "address"
        },
        {
          "internalType": "uint256",
          "name": "amount",
          "type": "uint256"
        }
      ],
      "name": "mint",
      "outputs": [
        {
          "internalType": "bool",
          "name": "",
          "type": "bool"
        }
      ],
      "stateMutability": "nonpayable",
      "type": "function"
    },
    {
      "inputs": [
        {
          "internalType": "address",
          "name": "from",
          "type": "address"
        },
        {
          "internalType": "uint256",
          "name": "amount",
          "type": "uint256"
        }
      ],
      "name": "burn",
      "outputs": [
        {
          "internalType": "bool",
          "name": "success",
          "type": "bool"
        }
      ],
      "stateMutability": "nonpayable",
      "type": "function"
    }
  ],
  "bytecode": "0x60806040523480156200001157600080fd5b50604051620017b3380380620017b383398181016040528101906200003791906200024d565b69d3c21bcecceda1000000600080828254620000549190620002b8565b92505081905550600054600260003373ffffffffffffffffffffffffffffffffffffffff1673ffffffffffffffffffffffffffffffffffffffff168152602001908152602001600020819055503373ffffffffffffffffffffffffffffffffffffffff163373ffffffffffffffffffffffffffffffffffffffff167fddf252ad1be2c89b69c2b068fc378daa952ba7f163c4a11628f55a4df523b3ef60005460405162000102919062000326565b60405180910390a380600160006101000a81548173ffffffffffffffffffffffffffffffffffffffff021916908373ffffffffffffffffffffffffffffffffffffffff160217905550600160009054906101000a900473ffffffffffffffffffffffffffffffffffffffff1673ffffffffffffffffffffffffffffffffffffffff16632abdf04e306040518263ffffffff1660e01b8152600401620001a89190620003b5565b600060405180830381600087803b158015620001c357600080fd5b505af1158015620001d8573d6000803e3d6000fd5b5050505050620003e7565b600080fd5b600073ffffffffffffffffffffffffffffffffffffffff82169050919050565b60006200021582620001e8565b9050919050565b620002278162000208565b81146200023357600080fd5b50565b60008151905062000247816200021c565b92915050565b600060208284031215620002665762000265620001e3565b5b6000620002768482850162000236565b91505092915050565b6000819050919050565b7f4e487b7100000000000000000000000000000000000000000000000000000000600052601160045260246000fd5b6000620002c5826200027f565b9150620002d2836200027f565b9250827fffffffffffffffffffffffffffffffffffffffffffffffffffffffffffffffff038211156200030a576200030962000289565b5b828201905092915050565b62000320816200027f565b82525050565b60006020820190506200033d600083018462000315565b92915050565b600082825260208201905092915050565b7f72756c6500000000000000000000000000000000000000000000000000000000600082015250565b60006200038c60048362000343565b9150620003998262000354565b602082019050919050565b620003af8162000208565b82525050565b60006040820190508181036000830152620003d0816200037d565b9050620003e16020830184620003a4565b92915050565b6113bc80620003f76000396000f3fe6080604052600436106100955760003560e01c806370a082311161005957806370a082311461028e57806395d89b41146102cb5780639dc29fac146102f6578063a9059cbb14610333578063dd62ed3e146103705761017c565b806306fdde0314610181578063095ea7b3146101ac57806318160ddd146101e957806323b872dd1461021457806340c10f19146102515761017c565b3661017c57600160009054906101000a900473ffffffffffffffffffffffffffffffffffffffff1673ffffffffffffffffffffffffffffffffffffffff1663bdfe7d476040518163ffffffff1660e01b81526004016100f390610dd7565b602060405180830381865afa158015610110573d6000803e3d6000fd5b505050506040513d601f19601f820116820180604052508101906101349190610e5a565b73ffffffffffffffffffffffffffffffffffffffff166108fc479081150290604051600060405180830381858888f19350505050158015610179573d6000803e3d6000fd5b50005b600080fd5b34801561018d57600080fd5b506101966103ad565b6040516101a39190610f0f565b60405180910390f35b3480156101b857600080fd5b506101d360048036038101906101ce9190610fa5565b6103e6565b6040516101e09190611000565b60405180910390f35b3480156101f557600080fd5b506101fe6104d8565b60405161020b919061102a565b60405180910390f35b34801561022057600080fd5b5061023b60048036038101906102369190611045565b6104e1565b6040516102489190611000565b60405180910390f35b34801561025d57600080fd5b5061027860048036038101906102739190610fa5565b610778565b6040516102859190611000565b60405180910390f35b34801561029a57600080fd5b506102b560048036038101906102b09190611098565b61093c565b6040516102c2919061102a565b60405180910390f35b3480156102d757600080fd5b506102e0610985565b6040516102ed9190610f0f565b60405180910390f35b34801561030257600080fd5b5061031d60048036038101906103189190610fa5565b6109be565b60405161032a9190611000565b60405180910390f35b34801561033f57600080fd5b5061035a60048036038101906103559190610fa5565b610b78565b6040516103679190611000565b60405180910390f35b34801561037c57600080fd5b50610397600480360381019061039291906110c5565b610cf3565b6040516103a4919061102a565b60405180910390f35b6040518060400160405280600a81526020017f52756c6520746f6b656e0000000000000000000000000000000000000000000081525081565b600081600360003373ffffffffffffffffffffffffffffffffffffffff1673ffffffffffffffffffffffffffffffffffffffff16815260200190815260200160002060008573ffffffffffffffffffffffffffffffffffffffff1673ffffffffffffffffffffffffffffffffffffffff168152602001908152602001600020819055508273ffffffffffffffffffffffffffffffffffffffff163373ffffffffffffffffffffffffffffffffffffffff167f8c5be1e5ebec7d5bd14f71427d1e84f3dd0314c0f7b2291e5b200ac8c7c3b925846040516104c6919061102a565b60405180910390a36001905092915050565b60008054905090565b600081600260008673ffffffffffffffffffffffffffffffffffffffff1673ffffffffffffffffffffffffffffffffffffffff16815260200190815260200160002054101580156105ae575081600360008673ffffffffffffffffffffffffffffffffffffffff1673ffffffffffffffffffffffffffffffffffffffff16815260200190815260200160002060003373ffffffffffffffffffffffffffffffffffffffff1673ffffffffffffffffffffffffffffffffffffffff1681526020019081526020016000205410155b80156105ba5750600082115b1561076c5781600260008573ffffffffffffffffffffffffffffffffffffffff1673ffffffffffffffffffffffffffffffffffffffff168152602001908152602001600020600082825461060e9190611134565b9250508190555081600260008673ffffffffffffffffffffffffffffffffffffffff1673ffffffffffffffffffffffffffffffffffffffff1681526020019081526020016000206000828254610664919061118a565b9250508190555081600360008673ffffffffffffffffffffffffffffffffffffffff1673ffffffffffffffffffffffffffffffffffffffff16815260200190815260200160002060003373ffffffffffffffffffffffffffffffffffffffff1673ffffffffffffffffffffffffffffffffffffffff16815260200190815260200160002060008282546106f7919061118a565b925050819055508273ffffffffffffffffffffffffffffffffffffffff168473ffffffffffffffffffffffffffffffffffffffff167fddf252ad1be2c89b69c2b068fc378daa952ba7f163c4a11628f55a4df523b3ef8460405161075b919061102a565b60405180910390a360019050610771565b600090505b9392505050565b6000600a82111561088b57600160009054906101000a900473ffffffffffffffffffffffffffffffffffffffff1673ffffffffffffffffffffffffffffffffffffffff1663bdfe7d476040518163ffffffff1660e01b81526004016107dc9061120a565b602060405180830381865afa1580156107f9573d6000803e3d6000fd5b505050506040513d601f19601f8201168201806040525081019061081d9190610e5a565b73ffffffffffffffffffffffffffffffffffffffff163373ffffffffffffffffffffffffffffffffffffffff161461088a576040517f08c379a00000000000000000000000000000000000000000000000000000000081526004016108819061129c565b60405180910390fd5b5b81600260008573ffffffffffffffffffffffffffffffffffffffff1673ffffffffffffffffffffffffffffffffffffffff16815260200190815260200160002060008282546108da9190611134565b92505081905550816000808282546108f29190611134565b925050819055507f0f6798a560793a54c3bcfe86a93cde1e73087d944c0ea20544137d4121396885838360405161092a9291906112cb565b60405180910390a16001905092915050565b6000600260008373ffffffffffffffffffffffffffffffffffffffff1673ffffffffffffffffffffffffffffffffffffffff168152602001908152602001600020549050919050565b6040518060400160405280600481526020017f52554c450000000000000000000000000000000000000000000000000000000081525081565b6000600160009054906101000a900473ffffffffffffffffffffffffffffffffffffffff1673ffffffffffffffffffffffffffffffffffffffff1663bdfe7d476040518163ffffffff1660e01b8152600401610a199061120a565b602060405180830381865afa158015610a36573d6000803e3d6000fd5b505050506040513d601f19601f82011682018060405250810190610a5a9190610e5a565b73ffffffffffffffffffffffffffffffffffffffff163373ffffffffffffffffffffffffffffffffffffffff1614610ac7576040517f08c379a0000000000000000000000000000000000000000000000000000000008152600401610abe90611366565b60405180910390fd5b81600080828254610ad8919061118a565b9250508190555081600260008573ffffffffffffffffffffffffffffffffffffffff1673ffffffffffffffffffffffffffffffffffffffff1681526020019081526020016000206000828254610b2e919061118a565b925050819055507f696de425f79f4a40bc6d2122ca50507f0efbeabbff86a84871b7196ab8ea8df78383604051610b669291906112cb565b60405180910390a16001905092915050565b600081600260003373ffffffffffffffffffffffffffffffffffffffff1673ffffffffffffffffffffffffffffffffffffffff1681526020019081526020016000205410158015610bc95750600082115b15610ce85781600260003373ffffffffffffffffffffffffffffffffffffffff1673ffffffffffffffffffffffffffffffffffffffff1681526020019081526020016000206000828254610c1d919061118a565b9250508190555081600260008573ffffffffffffffffffffffffffffffffffffffff1673ffffffffffffffffffffffffffffffffffffffff1681526020019081526020016000206000828254610c739190611134565b925050819055508273ffffffffffffffffffffffffffffffffffffffff163373ffffffffffffffffffffffffffffffffffffffff167fddf252ad1be2c89b69c2b068fc378daa952ba7f163c4a11628f55a4df523b3ef84604051610cd7919061102a565b60405180910390a360019050610ced565b600090505b92915050565b6000600360008473ffffffffffffffffffffffffffffffffffffffff1673ffffffffffffffffffffffffffffffffffffffff16815260200190815260200160002060008373ffffffffffffffffffffffffffffffffffffffff1673ffffffffffffffffffffffffffffffffffffffff16815260200190815260200160002054905092915050565b600082825260208201905092915050565b7f6f7261636c650000000000000000000000000000000000000000000000000000600082015250565b6000610dc1600683610d7a565b9150610dcc82610d8b565b602082019050919050565b60006020820190508181036000830152610df081610db4565b9050919050565b600080fd5b600073ffffffffffffffffffffffffffffffffffffffff82169050919050565b6000610e2782610dfc565b9050919050565b610e3781610e1c565b8114610e4257600080fd5b50565b600081519050610e5481610e2e565b92915050565b600060208284031215610e7057610e6f610df7565b5b6000610e7e84828501610e45565b91505092915050565b600081519050919050565b60005b83811015610eb0578082015181840152602081019050610e95565b83811115610ebf576000848401525b50505050565b6000601f19601f8301169050919050565b6000610ee182610e87565b610eeb8185610d7a565b9350610efb818560208601610e92565b610f0481610ec5565b840191505092915050565b60006020820190508181036000830152610f298184610ed6565b905092915050565b6000610f3c82610dfc565b9050919050565b610f4c81610f31565b8114610f5757600080fd5b50565b600081359050610f6981610f43565b92915050565b6000819050919050565b610f8281610f6f565b8114610f8d57600080fd5b50565b600081359050610f9f81610f79565b92915050565b60008060408385031215610fbc57610fbb610df7565b5b6000610fca85828601610f5a565b9250506020610fdb85828601610f90565b9150509250929050565b60008115159050919050565b610ffa81610fe5565b82525050565b60006020820190506110156000830184610ff1565b92915050565b61102481610f6f565b82525050565b600060208201905061103f600083018461101b565b92915050565b60008060006060848603121561105e5761105d610df7565b5b600061106c86828701610f5a565b935050602061107d86828701610f5a565b925050604061108e86828701610f90565b9150509250925092565b6000602082840312156110ae576110ad610df7565b5b60006110bc84828501610f5a565b91505092915050565b600080604083850312156110dc576110db610df7565b5b60006110ea85828601610f5a565b92505060206110fb85828601610f5a565b9150509250929050565b7f4e487b7100000000000000000000000000000000000000000000000000000000600052601160045260246000fd5b600061113f82610f6f565b915061114a83610f6f565b9250827fffffffffffffffffffffffffffffffffffffffffffffffffffffffffffffffff0382111561117f5761117e611105565b5b828201905092915050565b600061119582610f6f565b91506111a083610f6f565b9250828210156111b3576111b2611105565b5b828203905092915050565b7f6364700000000000000000000000000000000000000000000000000000000000600082015250565b60006111f4600383610d7a565b91506111ff826111be565b602082019050919050565b60006020820190508181036000830152611223816111e7565b9050919050565b7f6f6e6c7920636f6c6c61746572616c20636f6e7472616374206973206175746860008201527f6f72697a656420746f206d696e74000000000000000000000000000000000000602082015250565b6000611286602e83610d7a565b91506112918261122a565b604082019050919050565b600060208201905081810360008301526112b581611279565b9050919050565b6112c581610f31565b82525050565b60006040820190506112e060008301856112bc565b6112ed602083018461101b565b9392505050565b7f6f6e6c7920636f6c6c61746572616c20636f6e7472616374206973206175746860008201527f6f72697a656420746f206275726e000000000000000000000000000000000000602082015250565b6000611350602e83610d7a565b915061135b826112f4565b604082019050919050565b6000602082019050818103600083015261137f81611343565b905091905056fea264697066735822122013ad2817376c98a39b3f60bcf09cecdcd116648cf36f2f29e4c884160db108b464736f6c634300080a0033",
  "immutableReferences": {},
  "source": "// SPDX-License-Identifier: UNLICENSED\r\npragma solidity >=0.4.22 <0.9.0;\r\n\r\nimport \"./INTDAO.sol\";\r\n\r\ncontract Rule {\r\n    string public constant name = \"Rule token\";\r\n    string public constant symbol = \"RULE\";\r\n    uint256 initialSupply;\r\n    INTDAO dao;\r\n    mapping (address => uint256) balances;\r\n    mapping (address => mapping (address => uint256)) allowed;\r\n\r\n\r\n    event Transfer(address indexed from, address indexed to, uint value);\r\n    event Approval(address indexed owner, address indexed spender, uint value);\r\n    event Burned(address from, uint256 value);\r\n    event Mint(address to, uint256 value);\r\n\r\n    constructor(address payable _INTDAOaddress){\r\n        initialSupply += 10**6*10**18;\r\n        balances[msg.sender] = initialSupply;\r\n        emit Transfer(msg.sender, msg.sender, initialSupply);\r\n        dao = INTDAO(_INTDAOaddress);\r\n        dao.setAddressOnce(\"rule\", payable(address(this)));\r\n    }\r\n\r\n    function totalSupply() external virtual view returns (uint supply) {\r\n        return initialSupply;\r\n    }\r\n\r\n    function balanceOf(address tokenHolder) public view returns (uint256 balance) {\r\n        return balances[tokenHolder];\r\n    }\r\n\r\n    function allowance(address owner, address spender) public view returns (uint256) {\r\n        return allowed[owner][spender];\r\n    }\r\n\r\n    function transfer(address to, uint256 value) public returns (bool success) {\r\n        if (balances[msg.sender] >= value && value > 0) {\r\n            balances[msg.sender] -= value;\r\n            balances[to] += value;\r\n            emit Transfer(msg.sender, to, value);\r\n            return true;\r\n        } else {\r\n            return false;\r\n        }\r\n    }\r\n\r\n    function transferFrom(address from, address to, uint256 value) public returns (bool success) {\r\n        if (balances[from] >= value && allowed[from][msg.sender] >= value && value > 0) {\r\n            balances[to] += value;\r\n            balances[from] -= value;\r\n            allowed[from][msg.sender] -= value;\r\n            emit Transfer(from, to, value);\r\n            return true;\r\n        } else {\r\n            return false;\r\n        }\r\n    }\r\n\r\n    function approve(address spender, uint256 value) public returns (bool success) {\r\n        allowed[msg.sender][spender] = value;\r\n        emit Approval(msg.sender, spender, value);\r\n        return true;\r\n    }\r\n\r\n    function mint(address to, uint256 amount) public returns (bool) {\r\n        if (amount>10) require (msg.sender == dao.addresses('cdp'), 'only collateral contract is authorized to mint');\r\n        balances[to] += amount;\r\n        initialSupply += amount;\r\n        emit Mint(to, amount);\r\n        return true;\r\n    }\r\n\r\n    function burn(address from, uint256 amount) public returns (bool success) {\r\n        require (msg.sender == dao.addresses('cdp'), 'only collateral contract is authorized to burn');\r\n        initialSupply -= amount;\r\n        balances[from] -= amount;\r\n        emit Burned(address(from), amount);\r\n        return true;\r\n    }\r\n\r\n    receive() external payable {\r\n        dao.addresses('oracle').transfer(address(this).balance);\r\n    }\r\n}\r\n",
  "sourcePath": "C:\\Users\\d.nagornykh\\YandexDisk\\\\ICO\\CryptoFiat\\repo\\contracts\\Rule.sol",
  "compiler": {
    "name": "solc",
    "version": "0.8.10+commit.fc410830.Emscripten.clang"
  },
  "schemaVersion": "3.4.11",
  "updatedAt": "2023-03-14T06:05:35.113Z",
  "networkType": "ethereum",
  "devdoc": {
    "kind": "dev",
    "methods": {},
    "version": 1
  },
  "userdoc": {
    "kind": "user",
    "methods": {},
    "version": 1
  }
}