{
  "contractName": "Rule",
  "abi": [
    {
      "inputs": [],
      "stateMutability": "nonpayable",
      "type": "constructor"
    },
    {
      "anonymous": false,
      "inputs": [
        {
          "indexed": true,
          "internalType": "address",
          "name": "owner",
          "type": "address"
        },
        {
          "indexed": true,
          "internalType": "address",
          "name": "spender",
          "type": "address"
        },
        {
          "indexed": false,
          "internalType": "uint256",
          "name": "value",
          "type": "uint256"
        }
      ],
      "name": "Approval",
      "type": "event"
    },
    {
      "anonymous": false,
      "inputs": [
        {
          "indexed": true,
          "internalType": "address",
          "name": "from",
          "type": "address"
        },
        {
          "indexed": true,
          "internalType": "address",
          "name": "to",
          "type": "address"
        },
        {
          "indexed": false,
          "internalType": "uint256",
          "name": "value",
          "type": "uint256"
        }
      ],
      "name": "Transfer",
      "type": "event"
    },
    {
      "inputs": [],
      "name": "totalSupply",
      "outputs": [
        {
          "internalType": "uint256",
          "name": "supply",
          "type": "uint256"
        }
      ],
      "stateMutability": "view",
      "type": "function",
      "constant": true
    },
    {
      "inputs": [
        {
          "internalType": "address",
          "name": "who",
          "type": "address"
        }
      ],
      "name": "balanceOf",
      "outputs": [
        {
          "internalType": "uint256",
          "name": "value",
          "type": "uint256"
        }
      ],
      "stateMutability": "view",
      "type": "function",
      "constant": true
    },
    {
      "inputs": [
        {
          "internalType": "address",
          "name": "owner",
          "type": "address"
        },
        {
          "internalType": "address",
          "name": "spender",
          "type": "address"
        }
      ],
      "name": "allowance",
      "outputs": [
        {
          "internalType": "uint256",
          "name": "remaining",
          "type": "uint256"
        }
      ],
      "stateMutability": "view",
      "type": "function",
      "constant": true
    },
    {
      "inputs": [
        {
          "internalType": "address",
          "name": "to",
          "type": "address"
        },
        {
          "internalType": "uint256",
          "name": "value",
          "type": "uint256"
        }
      ],
      "name": "transfer",
      "outputs": [
        {
          "internalType": "bool",
          "name": "ok",
          "type": "bool"
        }
      ],
      "stateMutability": "nonpayable",
      "type": "function"
    },
    {
      "inputs": [
        {
          "internalType": "address",
          "name": "from",
          "type": "address"
        },
        {
          "internalType": "address",
          "name": "to",
          "type": "address"
        },
        {
          "internalType": "uint256",
          "name": "value",
          "type": "uint256"
        }
      ],
      "name": "transferFrom",
      "outputs": [
        {
          "internalType": "bool",
          "name": "ok",
          "type": "bool"
        }
      ],
      "stateMutability": "nonpayable",
      "type": "function"
    },
    {
      "inputs": [
        {
          "internalType": "address",
          "name": "spender",
          "type": "address"
        },
        {
          "internalType": "uint256",
          "name": "value",
          "type": "uint256"
        }
      ],
      "name": "approve",
      "outputs": [
        {
          "internalType": "bool",
          "name": "ok",
          "type": "bool"
        }
      ],
      "stateMutability": "nonpayable",
      "type": "function"
    },
    {
      "inputs": [],
      "name": "mintForCollateral",
      "outputs": [
        {
          "internalType": "bool",
          "name": "success",
          "type": "bool"
        }
      ],
      "stateMutability": "nonpayable",
      "type": "function"
    },
    {
      "inputs": [],
      "name": "burnFromCollateral",
      "outputs": [
        {
          "internalType": "bool",
          "name": "success",
          "type": "bool"
        }
      ],
      "stateMutability": "nonpayable",
      "type": "function"
    }
  ],
  "bytecode": "0x608060405234801561001057600080fd5b50610451806100206000396000f3fe608060405234801561001057600080fd5b50600436106100885760003560e01c8063a9059cbb1161005b578063a9059cbb1461013b578063c0a8221b1461016b578063dd62ed3e14610189578063f7623f77146101b957610088565b8063095ea7b31461008d57806318160ddd146100bd57806323b872dd146100db57806370a082311461010b575b600080fd5b6100a760048036038101906100a291906102bb565b6101d7565b6040516100b49190610316565b60405180910390f35b6100c56101e3565b6040516100d29190610340565b60405180910390f35b6100f560048036038101906100f0919061035b565b6101e8565b6040516101029190610316565b60405180910390f35b610125600480360381019061012091906103ae565b6101f5565b6040516101329190610340565b60405180910390f35b610155600480360381019061015091906102bb565b6101fc565b6040516101629190610316565b60405180910390f35b610173610208565b6040516101809190610316565b60405180910390f35b6101a3600480360381019061019e91906103db565b610211565b6040516101b09190610340565b60405180910390f35b6101c1610219565b6040516101ce9190610316565b60405180910390f35b60006001905092915050565b600090565b6000600190509392505050565b6000919050565b60006001905092915050565b60006001905090565b600092915050565b60006001905090565b600080fd5b600073ffffffffffffffffffffffffffffffffffffffff82169050919050565b600061025282610227565b9050919050565b61026281610247565b811461026d57600080fd5b50565b60008135905061027f81610259565b92915050565b6000819050919050565b61029881610285565b81146102a357600080fd5b50565b6000813590506102b58161028f565b92915050565b600080604083850312156102d2576102d1610222565b5b60006102e085828601610270565b92505060206102f1858286016102a6565b9150509250929050565b60008115159050919050565b610310816102fb565b82525050565b600060208201905061032b6000830184610307565b92915050565b61033a81610285565b82525050565b60006020820190506103556000830184610331565b92915050565b60008060006060848603121561037457610373610222565b5b600061038286828701610270565b935050602061039386828701610270565b92505060406103a4868287016102a6565b9150509250925092565b6000602082840312156103c4576103c3610222565b5b60006103d284828501610270565b91505092915050565b600080604083850312156103f2576103f1610222565b5b600061040085828601610270565b925050602061041185828601610270565b915050925092905056fea2646970667358221220d916130a4a66c1cefbffb7ad9c519f287a484782fb795cf35b2602c0f785ce2564736f6c634300080a0033",
  "immutableReferences": {},
  "source": "// SPDX-License-Identifier: UNLICENSED\r\npragma solidity >=0.4.22 <0.9.0;\r\n\r\ncontract Rule {\r\n\r\n\r\n    constructor(){\r\n\r\n    }\r\n\r\n    function totalSupply() external virtual view returns (uint supply) {\r\n        return 0;\r\n    }\r\n\r\n    function balanceOf(address who) external virtual view returns (uint value) {\r\n        return 0;\r\n    }\r\n\r\n    function allowance(address owner, address spender) external virtual view returns (uint remaining){\r\n        return 0;\r\n    }\r\n\r\n    function transfer(address to, uint value) external virtual returns (bool ok){\r\n        return true;\r\n    }\r\n\r\n    function transferFrom(address from, address to, uint value) external virtual returns (bool ok){\r\n        return true;\r\n    }\r\n\r\n    function approve(address spender, uint value) external virtual returns (bool ok){\r\n        return true;\r\n    }\r\n\r\n    event Transfer(address indexed from, address indexed to, uint value);\r\n    event Approval(address indexed owner, address indexed spender, uint value);\r\n\r\n    function mintForCollateral() external virtual returns (bool success){\r\n        return true;\r\n    }\r\n\r\n\r\n    function burnFromCollateral() external virtual returns (bool success){\r\n        return true;\r\n    }\r\n}\r\n",
  "sourcePath": "C:\\Users\\d.nagornykh\\YandexDisk\\\\ICO\\CryptoFiat\\repo\\contracts\\Rule.sol",
  "compiler": {
    "name": "solc",
    "version": "0.8.10+commit.fc410830.Emscripten.clang"
  },
  "schemaVersion": "3.4.4",
  "updatedAt": "2022-01-19T07:50:28.045Z",
  "networkType": "ethereum",
  "devdoc": {
    "kind": "dev",
    "methods": {},
    "version": 1
  },
  "userdoc": {
    "kind": "user",
    "methods": {},
    "version": 1
  }
}