{
  "contractName": "stableCoin",
  "abi": [
    {
      "anonymous": false,
      "inputs": [
        {
          "indexed": true,
          "internalType": "address",
          "name": "owner",
          "type": "address"
        },
        {
          "indexed": true,
          "internalType": "address",
          "name": "spender",
          "type": "address"
        },
        {
          "indexed": false,
          "internalType": "uint256",
          "name": "value",
          "type": "uint256"
        }
      ],
      "name": "Approval",
      "type": "event"
    },
    {
      "anonymous": false,
      "inputs": [
        {
          "indexed": false,
          "internalType": "address",
          "name": "from",
          "type": "address"
        },
        {
          "indexed": false,
          "internalType": "uint256",
          "name": "value",
          "type": "uint256"
        }
      ],
      "name": "Burned",
      "type": "event"
    },
    {
      "anonymous": false,
      "inputs": [
        {
          "indexed": true,
          "internalType": "address",
          "name": "from",
          "type": "address"
        },
        {
          "indexed": true,
          "internalType": "address",
          "name": "to",
          "type": "address"
        },
        {
          "indexed": false,
          "internalType": "uint256",
          "name": "value",
          "type": "uint256"
        }
      ],
      "name": "Transfer",
      "type": "event"
    },
    {
      "inputs": [],
      "name": "decimals",
      "outputs": [
        {
          "internalType": "uint8",
          "name": "",
          "type": "uint8"
        }
      ],
      "stateMutability": "view",
      "type": "function",
      "constant": true
    },
    {
      "inputs": [],
      "name": "name",
      "outputs": [
        {
          "internalType": "string",
          "name": "",
          "type": "string"
        }
      ],
      "stateMutability": "view",
      "type": "function",
      "constant": true
    },
    {
      "inputs": [],
      "name": "symbol",
      "outputs": [
        {
          "internalType": "string",
          "name": "",
          "type": "string"
        }
      ],
      "stateMutability": "view",
      "type": "function",
      "constant": true
    },
    {
      "stateMutability": "payable",
      "type": "receive",
      "payable": true
    },
    {
      "inputs": [],
      "name": "totalSupply",
      "outputs": [
        {
          "internalType": "uint256",
          "name": "",
          "type": "uint256"
        }
      ],
      "stateMutability": "view",
      "type": "function",
      "constant": true
    },
    {
      "inputs": [
        {
          "internalType": "address",
          "name": "owner",
          "type": "address"
        }
      ],
      "name": "balanceOf",
      "outputs": [
        {
          "internalType": "uint256",
          "name": "balance",
          "type": "uint256"
        }
      ],
      "stateMutability": "view",
      "type": "function",
      "constant": true
    },
    {
      "inputs": [
        {
          "internalType": "address",
          "name": "owner",
          "type": "address"
        },
        {
          "internalType": "address",
          "name": "spender",
          "type": "address"
        }
      ],
      "name": "allowance",
      "outputs": [
        {
          "internalType": "uint256",
          "name": "remaining",
          "type": "uint256"
        }
      ],
      "stateMutability": "view",
      "type": "function",
      "constant": true
    },
    {
      "inputs": [
        {
          "internalType": "address",
          "name": "to",
          "type": "address"
        },
        {
          "internalType": "uint256",
          "name": "value",
          "type": "uint256"
        }
      ],
      "name": "transfer",
      "outputs": [
        {
          "internalType": "bool",
          "name": "success",
          "type": "bool"
        }
      ],
      "stateMutability": "nonpayable",
      "type": "function"
    },
    {
      "inputs": [
        {
          "internalType": "address",
          "name": "from",
          "type": "address"
        },
        {
          "internalType": "address",
          "name": "to",
          "type": "address"
        },
        {
          "internalType": "uint256",
          "name": "value",
          "type": "uint256"
        }
      ],
      "name": "transferFrom",
      "outputs": [
        {
          "internalType": "bool",
          "name": "success",
          "type": "bool"
        }
      ],
      "stateMutability": "nonpayable",
      "type": "function"
    },
    {
      "inputs": [
        {
          "internalType": "address",
          "name": "spender",
          "type": "address"
        },
        {
          "internalType": "uint256",
          "name": "value",
          "type": "uint256"
        }
      ],
      "name": "approve",
      "outputs": [
        {
          "internalType": "bool",
          "name": "success",
          "type": "bool"
        }
      ],
      "stateMutability": "nonpayable",
      "type": "function"
    },
    {
      "inputs": [
        {
          "internalType": "address",
          "name": "initAddress",
          "type": "address"
        }
      ],
      "name": "setCPDAddressOnce",
      "outputs": [],
      "stateMutability": "nonpayable",
      "type": "function"
    },
    {
      "inputs": [],
      "name": "mint",
      "outputs": [
        {
          "internalType": "bool",
          "name": "",
          "type": "bool"
        }
      ],
      "stateMutability": "nonpayable",
      "type": "function"
    },
    {
      "inputs": [
        {
          "internalType": "uint256",
          "name": "amount",
          "type": "uint256"
        },
        {
          "internalType": "address",
          "name": "from",
          "type": "address"
        }
      ],
      "name": "burn",
      "outputs": [
        {
          "internalType": "bool",
          "name": "success",
          "type": "bool"
        }
      ],
      "stateMutability": "nonpayable",
      "type": "function"
    }
  ],
  "bytecode": "0x60806040526000805534801561001457600080fd5b506114d1806100246000396000f3fe6080604052600436106100ab5760003560e01c806370a082311161006457806370a08231146101dd57806395d89b411461021a578063a1fda76f14610245578063a9059cbb1461026e578063dd62ed3e146102ab578063fcd3533c146102e8576100b2565b806306fdde03146100b7578063095ea7b3146100e25780631249c58b1461011f57806318160ddd1461014a57806323b872dd14610175578063313ce567146101b2576100b2565b366100b257005b600080fd5b3480156100c357600080fd5b506100cc610325565b6040516100d99190610f1e565b60405180910390f35b3480156100ee57600080fd5b5061010960048036038101906101049190610fd9565b61035e565b6040516101169190611034565b60405180910390f35b34801561012b57600080fd5b50610134610450565b6040516101419190611034565b60405180910390f35b34801561015657600080fd5b5061015f610610565b60405161016c919061105e565b60405180910390f35b34801561018157600080fd5b5061019c60048036038101906101979190611079565b610619565b6040516101a99190611034565b60405180910390f35b3480156101be57600080fd5b506101c76108b0565b6040516101d491906110e8565b60405180910390f35b3480156101e957600080fd5b5061020460048036038101906101ff9190611103565b6108b5565b604051610211919061105e565b60405180910390f35b34801561022657600080fd5b5061022f6108fe565b60405161023c9190610f1e565b60405180910390f35b34801561025157600080fd5b5061026c60048036038101906102679190611103565b610937565b005b34801561027a57600080fd5b5061029560048036038101906102909190610fd9565b610a6f565b6040516102a29190611034565b60405180910390f35b3480156102b757600080fd5b506102d260048036038101906102cd9190611130565b610bea565b6040516102df919061105e565b60405180910390f35b3480156102f457600080fd5b5061030f600480360381019061030a9190611170565b610c71565b60405161031c9190611034565b60405180910390f35b6040518060400160405280600a81526020017f555344204176617461720000000000000000000000000000000000000000000081525081565b600081600260003373ffffffffffffffffffffffffffffffffffffffff1673ffffffffffffffffffffffffffffffffffffffff16815260200190815260200160002060008573ffffffffffffffffffffffffffffffffffffffff1673ffffffffffffffffffffffffffffffffffffffff168152602001908152602001600020819055508273ffffffffffffffffffffffffffffffffffffffff163373ffffffffffffffffffffffffffffffffffffffff167f8c5be1e5ebec7d5bd14f71427d1e84f3dd0314c0f7b2291e5b200ac8c7c3b9258460405161043e919061105e565b60405180910390a36001905092915050565b600080600360009054906101000a900473ffffffffffffffffffffffffffffffffffffffff1673ffffffffffffffffffffffffffffffffffffffff1663d63a8e11336040518263ffffffff1660e01b81526004016104ae91906111bf565b602060405180830381865afa1580156104cb573d6000803e3d6000fd5b505050506040513d601f19601f820116820180604052508101906104ef91906111ef565b9050600081116104fe57600080fd5b80600160003373ffffffffffffffffffffffffffffffffffffffff1673ffffffffffffffffffffffffffffffffffffffff168152602001908152602001600020600082825461054d919061124b565b9250508190555080600080828254610565919061124b565b92505081905550600360009054906101000a900473ffffffffffffffffffffffffffffffffffffffff1673ffffffffffffffffffffffffffffffffffffffff1663e14716026040518163ffffffff1660e01b81526004016020604051808303816000875af11580156105db573d6000803e3d6000fd5b505050506040513d601f19601f820116820180604052508101906105ff91906112cd565b61060857600080fd5b600191505090565b60008054905090565b600081600160008673ffffffffffffffffffffffffffffffffffffffff1673ffffffffffffffffffffffffffffffffffffffff16815260200190815260200160002054101580156106e6575081600260008673ffffffffffffffffffffffffffffffffffffffff1673ffffffffffffffffffffffffffffffffffffffff16815260200190815260200160002060003373ffffffffffffffffffffffffffffffffffffffff1673ffffffffffffffffffffffffffffffffffffffff1681526020019081526020016000205410155b80156106f25750600082115b156108a45781600160008573ffffffffffffffffffffffffffffffffffffffff1673ffffffffffffffffffffffffffffffffffffffff1681526020019081526020016000206000828254610746919061124b565b9250508190555081600160008673ffffffffffffffffffffffffffffffffffffffff1673ffffffffffffffffffffffffffffffffffffffff168152602001908152602001600020600082825461079c91906112fa565b9250508190555081600260008673ffffffffffffffffffffffffffffffffffffffff1673ffffffffffffffffffffffffffffffffffffffff16815260200190815260200160002060003373ffffffffffffffffffffffffffffffffffffffff1673ffffffffffffffffffffffffffffffffffffffff168152602001908152602001600020600082825461082f91906112fa565b925050819055508273ffffffffffffffffffffffffffffffffffffffff168473ffffffffffffffffffffffffffffffffffffffff167fddf252ad1be2c89b69c2b068fc378daa952ba7f163c4a11628f55a4df523b3ef84604051610893919061105e565b60405180910390a3600190506108a9565b600090505b9392505050565b601281565b6000600160008373ffffffffffffffffffffffffffffffffffffffff1673ffffffffffffffffffffffffffffffffffffffff168152602001908152602001600020549050919050565b6040518060400160405280600481526020017f615553440000000000000000000000000000000000000000000000000000000081525081565b600073ffffffffffffffffffffffffffffffffffffffff16600460009054906101000a900473ffffffffffffffffffffffffffffffffffffffff1673ffffffffffffffffffffffffffffffffffffffff16146109c8576040517f08c379a00000000000000000000000000000000000000000000000000000000081526004016109bf9061137a565b60405180910390fd5b80600460006101000a81548173ffffffffffffffffffffffffffffffffffffffff021916908373ffffffffffffffffffffffffffffffffffffffff160217905550600460009054906101000a900473ffffffffffffffffffffffffffffffffffffffff16600360006101000a81548173ffffffffffffffffffffffffffffffffffffffff021916908373ffffffffffffffffffffffffffffffffffffffff16021790555050565b600081600160003373ffffffffffffffffffffffffffffffffffffffff1673ffffffffffffffffffffffffffffffffffffffff1681526020019081526020016000205410158015610ac05750600082115b15610bdf5781600160003373ffffffffffffffffffffffffffffffffffffffff1673ffffffffffffffffffffffffffffffffffffffff1681526020019081526020016000206000828254610b1491906112fa565b9250508190555081600160008573ffffffffffffffffffffffffffffffffffffffff1673ffffffffffffffffffffffffffffffffffffffff1681526020019081526020016000206000828254610b6a919061124b565b925050819055508273ffffffffffffffffffffffffffffffffffffffff163373ffffffffffffffffffffffffffffffffffffffff167fddf252ad1be2c89b69c2b068fc378daa952ba7f163c4a11628f55a4df523b3ef84604051610bce919061105e565b60405180910390a360019050610be4565b600090505b92915050565b6000600260008473ffffffffffffffffffffffffffffffffffffffff1673ffffffffffffffffffffffffffffffffffffffff16815260200190815260200160002060008373ffffffffffffffffffffffffffffffffffffffff1673ffffffffffffffffffffffffffffffffffffffff16815260200190815260200160002054905092915050565b600082610c7e3384610bea565b1015610cbf576040517f08c379a0000000000000000000000000000000000000000000000000000000008152600401610cb6906113e6565b60405180910390fd5b82600160003373ffffffffffffffffffffffffffffffffffffffff1673ffffffffffffffffffffffffffffffffffffffff168152602001908152602001600020541015610d41576040517f08c379a0000000000000000000000000000000000000000000000000000000008152600401610d3890611452565b60405180910390fd5b82600080828254610d5291906112fa565b9250508190555082600160003373ffffffffffffffffffffffffffffffffffffffff1673ffffffffffffffffffffffffffffffffffffffff1681526020019081526020016000206000828254610da891906112fa565b9250508190555082600260003373ffffffffffffffffffffffffffffffffffffffff1673ffffffffffffffffffffffffffffffffffffffff16815260200190815260200160002060008473ffffffffffffffffffffffffffffffffffffffff1673ffffffffffffffffffffffffffffffffffffffff1681526020019081526020016000206000828254610e3b91906112fa565b925050819055507f696de425f79f4a40bc6d2122ca50507f0efbeabbff86a84871b7196ab8ea8df73084604051610e73929190611472565b60405180910390a16001905092915050565b600081519050919050565b600082825260208201905092915050565b60005b83811015610ebf578082015181840152602081019050610ea4565b83811115610ece576000848401525b50505050565b6000601f19601f8301169050919050565b6000610ef082610e85565b610efa8185610e90565b9350610f0a818560208601610ea1565b610f1381610ed4565b840191505092915050565b60006020820190508181036000830152610f388184610ee5565b905092915050565b600080fd5b600073ffffffffffffffffffffffffffffffffffffffff82169050919050565b6000610f7082610f45565b9050919050565b610f8081610f65565b8114610f8b57600080fd5b50565b600081359050610f9d81610f77565b92915050565b6000819050919050565b610fb681610fa3565b8114610fc157600080fd5b50565b600081359050610fd381610fad565b92915050565b60008060408385031215610ff057610fef610f40565b5b6000610ffe85828601610f8e565b925050602061100f85828601610fc4565b9150509250929050565b60008115159050919050565b61102e81611019565b82525050565b60006020820190506110496000830184611025565b92915050565b61105881610fa3565b82525050565b6000602082019050611073600083018461104f565b92915050565b60008060006060848603121561109257611091610f40565b5b60006110a086828701610f8e565b93505060206110b186828701610f8e565b92505060406110c286828701610fc4565b9150509250925092565b600060ff82169050919050565b6110e2816110cc565b82525050565b60006020820190506110fd60008301846110d9565b92915050565b60006020828403121561111957611118610f40565b5b600061112784828501610f8e565b91505092915050565b6000806040838503121561114757611146610f40565b5b600061115585828601610f8e565b925050602061116685828601610f8e565b9150509250929050565b6000806040838503121561118757611186610f40565b5b600061119585828601610fc4565b92505060206111a685828601610f8e565b9150509250929050565b6111b981610f65565b82525050565b60006020820190506111d460008301846111b0565b92915050565b6000815190506111e981610fad565b92915050565b60006020828403121561120557611204610f40565b5b6000611213848285016111da565b91505092915050565b7f4e487b7100000000000000000000000000000000000000000000000000000000600052601160045260246000fd5b600061125682610fa3565b915061126183610fa3565b9250827fffffffffffffffffffffffffffffffffffffffffffffffffffffffffffffffff038211156112965761129561121c565b5b828201905092915050565b6112aa81611019565b81146112b557600080fd5b50565b6000815190506112c7816112a1565b92915050565b6000602082840312156112e3576112e2610f40565b5b60006112f1848285016112b8565b91505092915050565b600061130582610fa3565b915061131083610fa3565b9250828210156113235761132261121c565b5b828203905092915050565b7f6364702063616e20626520736574206f6e6c79206f6e63650000000000000000600082015250565b6000611364601883610e90565b915061136f8261132e565b602082019050919050565b6000602082019050818103600083015261139381611357565b9050919050565b7f53686f756c6420616c6c6f772066697273740000000000000000000000000000600082015250565b60006113d0601283610e90565b91506113db8261139a565b602082019050919050565b600060208201905081810360008301526113ff816113c3565b9050919050565b7f53686f756c64206861766520636f696e73000000000000000000000000000000600082015250565b600061143c601183610e90565b915061144782611406565b602082019050919050565b6000602082019050818103600083015261146b8161142f565b9050919050565b600060408201905061148760008301856111b0565b611494602083018461104f565b939250505056fea264697066735822122084923b2a4f4a92df1f39b55589fc221683ef3e7f6c37d9dcedc41a5ed8203dca64736f6c634300080a0033",
  "immutableReferences": {},
  "source": "// SPDX-License-Identifier: UNLICENSED\r\npragma solidity >=0.4.22 <0.9.0;\r\n\r\ninterface CDPInterface {\r\n    function allowed (address to) external view returns (uint256 amount);\r\n    function decreaseAllowed() external returns (bool success);\r\n}\r\n\r\ninterface ERC20 {\r\n    function totalSupply() external view returns (uint supply);\r\n    function balanceOf(address who) external view returns (uint value);\r\n    function allowance(address owner, address spender) external view returns (uint remaining);\r\n\r\n    function transfer(address to, uint value) external returns (bool ok);\r\n    function transferFrom(address from, address to, uint value) external returns (bool ok);\r\n    function approve(address spender, uint value) external returns (bool ok);\r\n\r\n    event Transfer(address indexed from, address indexed to, uint value);\r\n    event Approval(address indexed owner, address indexed spender, uint value);\r\n}\r\n\r\ncontract stableCoin is ERC20{\r\n    uint8 public constant decimals = 18;\r\n    uint256 initialSupply = 0;\r\n\r\n    string public constant name = \"USD Avatar\";\r\n    string public constant symbol = \"aUSD\";\r\n\r\n    mapping (address => uint256) balances;\r\n    mapping (address => mapping (address => uint256)) allowed;\r\n    event Burned(address from, uint256 value);\r\n\r\n    CDPInterface cdp;\r\n    address cdpAddress;\r\n\r\n    function totalSupply() public view returns (uint256) {\r\n        return initialSupply;\r\n    }\r\n\r\n    function balanceOf(address owner) public view returns (uint256 balance) {\r\n        return balances[owner];\r\n    }\r\n\r\n    function allowance(address owner, address spender) public view returns (uint remaining) {\r\n        return allowed[owner][spender];\r\n    }\r\n\r\n    function transfer(address to, uint256 value) public returns (bool success) {\r\n        if (balances[msg.sender] >= value && value > 0) {\r\n            balances[msg.sender] -= value;\r\n            balances[to] += value;\r\n            emit Transfer(msg.sender, to, value);\r\n            return true;\r\n        } else {\r\n            return false;\r\n        }\r\n    }\r\n\r\n    function transferFrom(address from, address to, uint256 value) public returns (bool success) {\r\n        if (balances[from] >= value && allowed[from][msg.sender] >= value && value > 0) {\r\n            balances[to] += value;\r\n            balances[from] -= value;\r\n            allowed[from][msg.sender] -= value;\r\n            emit Transfer(from, to, value);\r\n            return true;\r\n        } else {\r\n            return false;\r\n        }\r\n    }\r\n\r\n    function approve(address spender, uint256 value) public returns (bool success) {\r\n        allowed[msg.sender][spender] = value;\r\n        emit Approval(msg.sender, spender, value);\r\n        return true;\r\n    }\r\n\r\n    receive() external payable {\r\n        //topup stablilization Fund\r\n        //.transfer(msg.value);\r\n    }\r\n\r\n    function setCPDAddressOnce(address initAddress) public{\r\n        require(cdpAddress == address (0), 'cdp can be set only once');\r\n        cdpAddress = initAddress;\r\n        cdp = CDPInterface (cdpAddress);\r\n    }\r\n\r\n    function mint() public returns (bool) {\r\n        uint toMint = cdp.allowed(msg.sender);\r\n        require(toMint>0);\r\n\r\n        balances[msg.sender] += toMint;\r\n        initialSupply += toMint;\r\n        require(cdp.decreaseAllowed());\r\n        return true;\r\n    }\r\n\r\n    function burn(uint256 amount, address from) public returns (bool success) {\r\n        require(allowance(msg.sender, from) >= amount, 'Should allow first');\r\n        require(balances[msg.sender] >= amount, 'Should have coins');\r\n\r\n        initialSupply -= amount;\r\n        balances[msg.sender] -= amount;\r\n        allowed[msg.sender][from] -= amount;\r\n        emit Burned(address(this), amount);\r\n        return true;\r\n    }\r\n}",
  "sourcePath": "C:\\Users\\d.nagornykh\\YandexDisk\\\\ICO\\CryptoFiat\\repo\\contracts\\stableCoin.sol",
  "compiler": {
    "name": "solc",
    "version": "0.8.10+commit.fc410830.Emscripten.clang"
  },
  "schemaVersion": "3.4.4",
  "updatedAt": "2022-12-12T03:20:06.860Z",
  "networkType": "ethereum",
  "devdoc": {
    "kind": "dev",
    "methods": {},
    "version": 1
  },
  "userdoc": {
    "kind": "user",
    "methods": {},
    "version": 1
  }
}