{
  "contractName": "stableCoin",
  "abi": [
    {
      "anonymous": false,
      "inputs": [
        {
          "indexed": true,
          "internalType": "address",
          "name": "owner",
          "type": "address"
        },
        {
          "indexed": true,
          "internalType": "address",
          "name": "spender",
          "type": "address"
        },
        {
          "indexed": false,
          "internalType": "uint256",
          "name": "value",
          "type": "uint256"
        }
      ],
      "name": "Approval",
      "type": "event"
    },
    {
      "anonymous": false,
      "inputs": [
        {
          "indexed": false,
          "internalType": "address",
          "name": "from",
          "type": "address"
        },
        {
          "indexed": false,
          "internalType": "uint256",
          "name": "value",
          "type": "uint256"
        }
      ],
      "name": "Burned",
      "type": "event"
    },
    {
      "anonymous": false,
      "inputs": [
        {
          "indexed": true,
          "internalType": "address",
          "name": "from",
          "type": "address"
        },
        {
          "indexed": true,
          "internalType": "address",
          "name": "to",
          "type": "address"
        },
        {
          "indexed": false,
          "internalType": "uint256",
          "name": "value",
          "type": "uint256"
        }
      ],
      "name": "Transfer",
      "type": "event"
    },
    {
      "inputs": [],
      "name": "decimals",
      "outputs": [
        {
          "internalType": "uint8",
          "name": "",
          "type": "uint8"
        }
      ],
      "stateMutability": "view",
      "type": "function"
    },
    {
      "inputs": [],
      "name": "name",
      "outputs": [
        {
          "internalType": "string",
          "name": "",
          "type": "string"
        }
      ],
      "stateMutability": "view",
      "type": "function"
    },
    {
      "inputs": [],
      "name": "symbol",
      "outputs": [
        {
          "internalType": "string",
          "name": "",
          "type": "string"
        }
      ],
      "stateMutability": "view",
      "type": "function"
    },
    {
      "inputs": [],
      "name": "totalSupply",
      "outputs": [
        {
          "internalType": "uint256",
          "name": "",
          "type": "uint256"
        }
      ],
      "stateMutability": "view",
      "type": "function"
    },
    {
      "inputs": [
        {
          "internalType": "address",
          "name": "owner",
          "type": "address"
        }
      ],
      "name": "balanceOf",
      "outputs": [
        {
          "internalType": "uint256",
          "name": "balance",
          "type": "uint256"
        }
      ],
      "stateMutability": "view",
      "type": "function"
    },
    {
      "inputs": [
        {
          "internalType": "address",
          "name": "owner",
          "type": "address"
        },
        {
          "internalType": "address",
          "name": "spender",
          "type": "address"
        }
      ],
      "name": "allowance",
      "outputs": [
        {
          "internalType": "uint256",
          "name": "remaining",
          "type": "uint256"
        }
      ],
      "stateMutability": "view",
      "type": "function"
    },
    {
      "inputs": [
        {
          "internalType": "address",
          "name": "to",
          "type": "address"
        },
        {
          "internalType": "uint256",
          "name": "value",
          "type": "uint256"
        }
      ],
      "name": "transfer",
      "outputs": [
        {
          "internalType": "bool",
          "name": "success",
          "type": "bool"
        }
      ],
      "stateMutability": "nonpayable",
      "type": "function"
    },
    {
      "inputs": [
        {
          "internalType": "address",
          "name": "from",
          "type": "address"
        },
        {
          "internalType": "address",
          "name": "to",
          "type": "address"
        },
        {
          "internalType": "uint256",
          "name": "value",
          "type": "uint256"
        }
      ],
      "name": "transferFrom",
      "outputs": [
        {
          "internalType": "bool",
          "name": "success",
          "type": "bool"
        }
      ],
      "stateMutability": "nonpayable",
      "type": "function"
    },
    {
      "inputs": [
        {
          "internalType": "address",
          "name": "spender",
          "type": "address"
        },
        {
          "internalType": "uint256",
          "name": "value",
          "type": "uint256"
        }
      ],
      "name": "approve",
      "outputs": [
        {
          "internalType": "bool",
          "name": "success",
          "type": "bool"
        }
      ],
      "stateMutability": "nonpayable",
      "type": "function"
    },
    {
      "inputs": [],
      "name": "receive",
      "outputs": [],
      "stateMutability": "payable",
      "type": "function"
    },
    {
      "inputs": [
        {
          "internalType": "address",
          "name": "initAddress",
          "type": "address"
        }
      ],
      "name": "setCPDAddressOnce",
      "outputs": [],
      "stateMutability": "nonpayable",
      "type": "function"
    },
    {
      "inputs": [],
      "name": "mint",
      "outputs": [
        {
          "internalType": "bool",
          "name": "success",
          "type": "bool"
        }
      ],
      "stateMutability": "nonpayable",
      "type": "function"
    },
    {
      "inputs": [
        {
          "internalType": "uint256",
          "name": "amount",
          "type": "uint256"
        },
        {
          "internalType": "address",
          "name": "from",
          "type": "address"
        }
      ],
      "name": "burn",
      "outputs": [
        {
          "internalType": "bool",
          "name": "success",
          "type": "bool"
        }
      ],
      "stateMutability": "nonpayable",
      "type": "function"
    }
  ],
  "bytecode": "0x60806040526000805534801561001457600080fd5b506114e9806100246000396000f3fe6080604052600436106100c25760003560e01c806370a082311161007f578063a3e76c0f11610059578063a3e76c0f1461027e578063a9059cbb14610288578063dd62ed3e146102c5578063fcd3533c14610302576100c2565b806370a08231146101ed57806395d89b411461022a578063a1fda76f14610255576100c2565b806306fdde03146100c7578063095ea7b3146100f25780631249c58b1461012f57806318160ddd1461015a57806323b872dd14610185578063313ce567146101c2575b600080fd5b3480156100d357600080fd5b506100dc61033f565b6040516100e99190610f36565b60405180910390f35b3480156100fe57600080fd5b5061011960048036038101906101149190610ff1565b610378565b604051610126919061104c565b60405180910390f35b34801561013b57600080fd5b5061014461046a565b604051610151919061104c565b60405180910390f35b34801561016657600080fd5b5061016f610626565b60405161017c9190611076565b60405180910390f35b34801561019157600080fd5b506101ac60048036038101906101a79190611091565b61062f565b6040516101b9919061104c565b60405180910390f35b3480156101ce57600080fd5b506101d76108c6565b6040516101e49190611100565b60405180910390f35b3480156101f957600080fd5b50610214600480360381019061020f919061111b565b6108cb565b6040516102219190611076565b60405180910390f35b34801561023657600080fd5b5061023f610914565b60405161024c9190610f36565b60405180910390f35b34801561026157600080fd5b5061027c6004803603810190610277919061111b565b61094d565b005b610286610a85565b005b34801561029457600080fd5b506102af60048036038101906102aa9190610ff1565b610a87565b6040516102bc919061104c565b60405180910390f35b3480156102d157600080fd5b506102ec60048036038101906102e79190611148565b610c02565b6040516102f99190611076565b60405180910390f35b34801561030e57600080fd5b5061032960048036038101906103249190611188565b610c89565b604051610336919061104c565b60405180910390f35b6040518060400160405280600a81526020017f555344204176617461720000000000000000000000000000000000000000000081525081565b600081600260003373ffffffffffffffffffffffffffffffffffffffff1673ffffffffffffffffffffffffffffffffffffffff16815260200190815260200160002060008573ffffffffffffffffffffffffffffffffffffffff1673ffffffffffffffffffffffffffffffffffffffff168152602001908152602001600020819055508273ffffffffffffffffffffffffffffffffffffffff163373ffffffffffffffffffffffffffffffffffffffff167f8c5be1e5ebec7d5bd14f71427d1e84f3dd0314c0f7b2291e5b200ac8c7c3b925846040516104589190611076565b60405180910390a36001905092915050565b600080600360009054906101000a900473ffffffffffffffffffffffffffffffffffffffff1673ffffffffffffffffffffffffffffffffffffffff1663d63a8e11336040518263ffffffff1660e01b81526004016104c891906111d7565b602060405180830381865afa1580156104e5573d6000803e3d6000fd5b505050506040513d601f19601f820116820180604052508101906105099190611207565b90506000811161051857600080fd5b80600160003373ffffffffffffffffffffffffffffffffffffffff1673ffffffffffffffffffffffffffffffffffffffff16815260200190815260200160002060008282546105679190611263565b925050819055508060008082825461057f9190611263565b92505081905550600360009054906101000a900473ffffffffffffffffffffffffffffffffffffffff1673ffffffffffffffffffffffffffffffffffffffff1663e14716026040518163ffffffff1660e01b81526004016020604051808303816000875af11580156105f5573d6000803e3d6000fd5b505050506040513d601f19601f8201168201806040525081019061061991906112e5565b61062257600080fd5b5090565b60008054905090565b600081600160008673ffffffffffffffffffffffffffffffffffffffff1673ffffffffffffffffffffffffffffffffffffffff16815260200190815260200160002054101580156106fc575081600260008673ffffffffffffffffffffffffffffffffffffffff1673ffffffffffffffffffffffffffffffffffffffff16815260200190815260200160002060003373ffffffffffffffffffffffffffffffffffffffff1673ffffffffffffffffffffffffffffffffffffffff1681526020019081526020016000205410155b80156107085750600082115b156108ba5781600160008573ffffffffffffffffffffffffffffffffffffffff1673ffffffffffffffffffffffffffffffffffffffff168152602001908152602001600020600082825461075c9190611263565b9250508190555081600160008673ffffffffffffffffffffffffffffffffffffffff1673ffffffffffffffffffffffffffffffffffffffff16815260200190815260200160002060008282546107b29190611312565b9250508190555081600260008673ffffffffffffffffffffffffffffffffffffffff1673ffffffffffffffffffffffffffffffffffffffff16815260200190815260200160002060003373ffffffffffffffffffffffffffffffffffffffff1673ffffffffffffffffffffffffffffffffffffffff16815260200190815260200160002060008282546108459190611312565b925050819055508273ffffffffffffffffffffffffffffffffffffffff168473ffffffffffffffffffffffffffffffffffffffff167fddf252ad1be2c89b69c2b068fc378daa952ba7f163c4a11628f55a4df523b3ef846040516108a99190611076565b60405180910390a3600190506108bf565b600090505b9392505050565b601281565b6000600160008373ffffffffffffffffffffffffffffffffffffffff1673ffffffffffffffffffffffffffffffffffffffff168152602001908152602001600020549050919050565b6040518060400160405280600481526020017f615553440000000000000000000000000000000000000000000000000000000081525081565b600073ffffffffffffffffffffffffffffffffffffffff16600460009054906101000a900473ffffffffffffffffffffffffffffffffffffffff1673ffffffffffffffffffffffffffffffffffffffff16146109de576040517f08c379a00000000000000000000000000000000000000000000000000000000081526004016109d590611392565b60405180910390fd5b80600460006101000a81548173ffffffffffffffffffffffffffffffffffffffff021916908373ffffffffffffffffffffffffffffffffffffffff160217905550600460009054906101000a900473ffffffffffffffffffffffffffffffffffffffff16600360006101000a81548173ffffffffffffffffffffffffffffffffffffffff021916908373ffffffffffffffffffffffffffffffffffffffff16021790555050565b565b600081600160003373ffffffffffffffffffffffffffffffffffffffff1673ffffffffffffffffffffffffffffffffffffffff1681526020019081526020016000205410158015610ad85750600082115b15610bf75781600160003373ffffffffffffffffffffffffffffffffffffffff1673ffffffffffffffffffffffffffffffffffffffff1681526020019081526020016000206000828254610b2c9190611312565b9250508190555081600160008573ffffffffffffffffffffffffffffffffffffffff1673ffffffffffffffffffffffffffffffffffffffff1681526020019081526020016000206000828254610b829190611263565b925050819055508273ffffffffffffffffffffffffffffffffffffffff163373ffffffffffffffffffffffffffffffffffffffff167fddf252ad1be2c89b69c2b068fc378daa952ba7f163c4a11628f55a4df523b3ef84604051610be69190611076565b60405180910390a360019050610bfc565b600090505b92915050565b6000600260008473ffffffffffffffffffffffffffffffffffffffff1673ffffffffffffffffffffffffffffffffffffffff16815260200190815260200160002060008373ffffffffffffffffffffffffffffffffffffffff1673ffffffffffffffffffffffffffffffffffffffff16815260200190815260200160002054905092915050565b600082610c963384610c02565b1015610cd7576040517f08c379a0000000000000000000000000000000000000000000000000000000008152600401610cce906113fe565b60405180910390fd5b82600160003373ffffffffffffffffffffffffffffffffffffffff1673ffffffffffffffffffffffffffffffffffffffff168152602001908152602001600020541015610d59576040517f08c379a0000000000000000000000000000000000000000000000000000000008152600401610d509061146a565b60405180910390fd5b82600080828254610d6a9190611312565b9250508190555082600160003373ffffffffffffffffffffffffffffffffffffffff1673ffffffffffffffffffffffffffffffffffffffff1681526020019081526020016000206000828254610dc09190611312565b9250508190555082600260003373ffffffffffffffffffffffffffffffffffffffff1673ffffffffffffffffffffffffffffffffffffffff16815260200190815260200160002060008473ffffffffffffffffffffffffffffffffffffffff1673ffffffffffffffffffffffffffffffffffffffff1681526020019081526020016000206000828254610e539190611312565b925050819055507f696de425f79f4a40bc6d2122ca50507f0efbeabbff86a84871b7196ab8ea8df73084604051610e8b92919061148a565b60405180910390a16001905092915050565b600081519050919050565b600082825260208201905092915050565b60005b83811015610ed7578082015181840152602081019050610ebc565b83811115610ee6576000848401525b50505050565b6000601f19601f8301169050919050565b6000610f0882610e9d565b610f128185610ea8565b9350610f22818560208601610eb9565b610f2b81610eec565b840191505092915050565b60006020820190508181036000830152610f508184610efd565b905092915050565b600080fd5b600073ffffffffffffffffffffffffffffffffffffffff82169050919050565b6000610f8882610f5d565b9050919050565b610f9881610f7d565b8114610fa357600080fd5b50565b600081359050610fb581610f8f565b92915050565b6000819050919050565b610fce81610fbb565b8114610fd957600080fd5b50565b600081359050610feb81610fc5565b92915050565b6000806040838503121561100857611007610f58565b5b600061101685828601610fa6565b925050602061102785828601610fdc565b9150509250929050565b60008115159050919050565b61104681611031565b82525050565b6000602082019050611061600083018461103d565b92915050565b61107081610fbb565b82525050565b600060208201905061108b6000830184611067565b92915050565b6000806000606084860312156110aa576110a9610f58565b5b60006110b886828701610fa6565b93505060206110c986828701610fa6565b92505060406110da86828701610fdc565b9150509250925092565b600060ff82169050919050565b6110fa816110e4565b82525050565b600060208201905061111560008301846110f1565b92915050565b60006020828403121561113157611130610f58565b5b600061113f84828501610fa6565b91505092915050565b6000806040838503121561115f5761115e610f58565b5b600061116d85828601610fa6565b925050602061117e85828601610fa6565b9150509250929050565b6000806040838503121561119f5761119e610f58565b5b60006111ad85828601610fdc565b92505060206111be85828601610fa6565b9150509250929050565b6111d181610f7d565b82525050565b60006020820190506111ec60008301846111c8565b92915050565b60008151905061120181610fc5565b92915050565b60006020828403121561121d5761121c610f58565b5b600061122b848285016111f2565b91505092915050565b7f4e487b7100000000000000000000000000000000000000000000000000000000600052601160045260246000fd5b600061126e82610fbb565b915061127983610fbb565b9250827fffffffffffffffffffffffffffffffffffffffffffffffffffffffffffffffff038211156112ae576112ad611234565b5b828201905092915050565b6112c281611031565b81146112cd57600080fd5b50565b6000815190506112df816112b9565b92915050565b6000602082840312156112fb576112fa610f58565b5b6000611309848285016112d0565b91505092915050565b600061131d82610fbb565b915061132883610fbb565b92508282101561133b5761133a611234565b5b828203905092915050565b7f6364702063616e20626520736574206f6e6c79206f6e63650000000000000000600082015250565b600061137c601883610ea8565b915061138782611346565b602082019050919050565b600060208201905081810360008301526113ab8161136f565b9050919050565b7f53686f756c6420616c6c6f772066697273740000000000000000000000000000600082015250565b60006113e8601283610ea8565b91506113f3826113b2565b602082019050919050565b60006020820190508181036000830152611417816113db565b9050919050565b7f53686f756c64206861766520636f696e73000000000000000000000000000000600082015250565b6000611454601183610ea8565b915061145f8261141e565b602082019050919050565b6000602082019050818103600083015261148381611447565b9050919050565b600060408201905061149f60008301856111c8565b6114ac6020830184611067565b939250505056fea2646970667358221220273680644cf9f778d2a9c97c224451269e2410acb9f23fdcd6c6162db6ffba6e64736f6c634300080a0033",
  "immutableReferences": {},
  "source": "// SPDX-License-Identifier: UNLICENSED\r\npragma solidity >=0.4.22 <0.9.0;\r\n\r\ninterface CDPInterface {\r\n    function allowed (address to) external view returns (uint256 amount);\r\n    function decreaseAllowed() external returns (bool success);\r\n}\r\n\r\ninterface ERC20 {\r\n    function totalSupply() external view returns (uint supply);\r\n    function balanceOf(address who) external view returns (uint value);\r\n    function allowance(address owner, address spender) external view returns (uint remaining);\r\n\r\n    function transfer(address to, uint value) external returns (bool ok);\r\n    function transferFrom(address from, address to, uint value) external returns (bool ok);\r\n    function approve(address spender, uint value) external returns (bool ok);\r\n\r\n    event Transfer(address indexed from, address indexed to, uint value);\r\n    event Approval(address indexed owner, address indexed spender, uint value);\r\n}\r\n\r\ncontract stableCoin is ERC20{\r\n    uint8 public constant decimals = 18;\r\n    uint256 initialSupply = 0;\r\n\r\n    string public constant name = \"USD Avatar\";\r\n    string public constant symbol = \"aUSD\";\r\n\r\n    mapping (address => uint256) balances;\r\n    mapping (address => mapping (address => uint256)) allowed;\r\n    event Burned(address from, uint256 value);\r\n\r\n    CDPInterface cdp;\r\n    address cdpAddress;\r\n\r\n    function totalSupply() public view returns (uint256) {\r\n        return initialSupply;\r\n    }\r\n\r\n    function balanceOf(address owner) public view returns (uint256 balance) {\r\n        return balances[owner];\r\n    }\r\n\r\n    function allowance(address owner, address spender) public view returns (uint remaining) {\r\n        return allowed[owner][spender];\r\n    }\r\n\r\n    function transfer(address to, uint256 value) public returns (bool success) {\r\n        if (balances[msg.sender] >= value && value > 0) {\r\n            balances[msg.sender] -= value;\r\n            balances[to] += value;\r\n            emit Transfer(msg.sender, to, value);\r\n            return true;\r\n        } else {\r\n            return false;\r\n        }\r\n    }\r\n\r\n    function transferFrom(address from, address to, uint256 value) public returns (bool success) {\r\n        if (balances[from] >= value && allowed[from][msg.sender] >= value && value > 0) {\r\n            balances[to] += value;\r\n            balances[from] -= value;\r\n            allowed[from][msg.sender] -= value;\r\n            emit Transfer(from, to, value);\r\n            return true;\r\n        } else {\r\n            return false;\r\n        }\r\n    }\r\n\r\n    function approve(address spender, uint256 value) public returns (bool success) {\r\n        allowed[msg.sender][spender] = value;\r\n        emit Approval(msg.sender, spender, value);\r\n        return true;\r\n    }\r\n\r\n    function receive() external payable {\r\n        //topup stablilization Fund\r\n        //.transfer(msg.value);\r\n    }\r\n\r\n    function setCPDAddressOnce(address initAddress) public{\r\n        require(cdpAddress == address (0), 'cdp can be set only once');\r\n        cdpAddress = initAddress;\r\n        cdp = CDPInterface (cdpAddress);\r\n    }\r\n\r\n    function mint() public returns (bool success) {\r\n        uint toMint = cdp.allowed(msg.sender);\r\n        require(toMint>0);\r\n\r\n        balances[msg.sender] += toMint;\r\n        initialSupply += toMint;\r\n        require(cdp.decreaseAllowed());\r\n    }\r\n\r\n    function burn(uint256 amount, address from) public returns (bool success) {\r\n        require(allowance(msg.sender, from) >= amount, 'Should allow first');\r\n        require(balances[msg.sender] >= amount, 'Should have coins');\r\n\r\n        initialSupply -= amount;\r\n        balances[msg.sender] -= amount;\r\n        allowed[msg.sender][from] -= amount;\r\n        emit Burned(address(this), amount);\r\n        return true;\r\n    }\r\n}",
  "sourcePath": "C:\\Users\\d.nagornykh\\YandexDisk\\\\ICO\\CryptoFiat\\repo\\contracts\\stableCoin.sol",
  "compiler": {
    "name": "solc",
    "version": "0.8.10+commit.fc410830.Emscripten.clang"
  },
  "schemaVersion": "3.4.4",
  "updatedAt": "2022-03-10T11:49:11.582Z",
  "devdoc": {
    "kind": "dev",
    "methods": {},
    "version": 1
  },
  "userdoc": {
    "kind": "user",
    "methods": {},
    "version": 1
  }
}