{
  "contractName": "stableCoin",
  "abi": [
    {
      "inputs": [
        {
          "internalType": "address",
          "name": "_INTDAOaddress",
          "type": "address"
        }
      ],
      "stateMutability": "nonpayable",
      "type": "constructor"
    },
    {
      "anonymous": false,
      "inputs": [
        {
          "indexed": true,
          "internalType": "address",
          "name": "owner",
          "type": "address"
        },
        {
          "indexed": true,
          "internalType": "address",
          "name": "spender",
          "type": "address"
        },
        {
          "indexed": false,
          "internalType": "uint256",
          "name": "value",
          "type": "uint256"
        }
      ],
      "name": "Approval",
      "type": "event"
    },
    {
      "anonymous": false,
      "inputs": [
        {
          "indexed": true,
          "internalType": "address",
          "name": "from",
          "type": "address"
        },
        {
          "indexed": true,
          "internalType": "address",
          "name": "to",
          "type": "address"
        },
        {
          "indexed": false,
          "internalType": "uint256",
          "name": "value",
          "type": "uint256"
        }
      ],
      "name": "Transfer",
      "type": "event"
    },
    {
      "inputs": [
        {
          "internalType": "address",
          "name": "owner",
          "type": "address"
        },
        {
          "internalType": "address",
          "name": "spender",
          "type": "address"
        }
      ],
      "name": "allowance",
      "outputs": [
        {
          "internalType": "uint256",
          "name": "",
          "type": "uint256"
        }
      ],
      "stateMutability": "view",
      "type": "function"
    },
    {
      "inputs": [
        {
          "internalType": "address",
          "name": "spender",
          "type": "address"
        },
        {
          "internalType": "uint256",
          "name": "amount",
          "type": "uint256"
        }
      ],
      "name": "approve",
      "outputs": [
        {
          "internalType": "bool",
          "name": "",
          "type": "bool"
        }
      ],
      "stateMutability": "nonpayable",
      "type": "function"
    },
    {
      "inputs": [
        {
          "internalType": "address",
          "name": "account",
          "type": "address"
        }
      ],
      "name": "balanceOf",
      "outputs": [
        {
          "internalType": "uint256",
          "name": "",
          "type": "uint256"
        }
      ],
      "stateMutability": "view",
      "type": "function"
    },
    {
      "inputs": [],
      "name": "decimals",
      "outputs": [
        {
          "internalType": "uint8",
          "name": "",
          "type": "uint8"
        }
      ],
      "stateMutability": "view",
      "type": "function"
    },
    {
      "inputs": [
        {
          "internalType": "address",
          "name": "spender",
          "type": "address"
        },
        {
          "internalType": "uint256",
          "name": "subtractedValue",
          "type": "uint256"
        }
      ],
      "name": "decreaseAllowance",
      "outputs": [
        {
          "internalType": "bool",
          "name": "",
          "type": "bool"
        }
      ],
      "stateMutability": "nonpayable",
      "type": "function"
    },
    {
      "inputs": [
        {
          "internalType": "address",
          "name": "spender",
          "type": "address"
        },
        {
          "internalType": "uint256",
          "name": "addedValue",
          "type": "uint256"
        }
      ],
      "name": "increaseAllowance",
      "outputs": [
        {
          "internalType": "bool",
          "name": "",
          "type": "bool"
        }
      ],
      "stateMutability": "nonpayable",
      "type": "function"
    },
    {
      "inputs": [],
      "name": "name",
      "outputs": [
        {
          "internalType": "string",
          "name": "",
          "type": "string"
        }
      ],
      "stateMutability": "view",
      "type": "function"
    },
    {
      "inputs": [],
      "name": "symbol",
      "outputs": [
        {
          "internalType": "string",
          "name": "",
          "type": "string"
        }
      ],
      "stateMutability": "view",
      "type": "function"
    },
    {
      "inputs": [],
      "name": "totalSupply",
      "outputs": [
        {
          "internalType": "uint256",
          "name": "",
          "type": "uint256"
        }
      ],
      "stateMutability": "view",
      "type": "function"
    },
    {
      "inputs": [
        {
          "internalType": "address",
          "name": "to",
          "type": "address"
        },
        {
          "internalType": "uint256",
          "name": "amount",
          "type": "uint256"
        }
      ],
      "name": "transfer",
      "outputs": [
        {
          "internalType": "bool",
          "name": "",
          "type": "bool"
        }
      ],
      "stateMutability": "nonpayable",
      "type": "function"
    },
    {
      "inputs": [
        {
          "internalType": "address",
          "name": "from",
          "type": "address"
        },
        {
          "internalType": "address",
          "name": "to",
          "type": "address"
        },
        {
          "internalType": "uint256",
          "name": "amount",
          "type": "uint256"
        }
      ],
      "name": "transferFrom",
      "outputs": [
        {
          "internalType": "bool",
          "name": "",
          "type": "bool"
        }
      ],
      "stateMutability": "nonpayable",
      "type": "function"
    },
    {
      "inputs": [
        {
          "internalType": "address",
          "name": "to",
          "type": "address"
        },
        {
          "internalType": "uint256",
          "name": "amount",
          "type": "uint256"
        }
      ],
      "name": "mint",
      "outputs": [],
      "stateMutability": "nonpayable",
      "type": "function"
    },
    {
      "inputs": [
        {
          "internalType": "address",
          "name": "from",
          "type": "address"
        },
        {
          "internalType": "uint256",
          "name": "amount",
          "type": "uint256"
        }
      ],
      "name": "burn",
      "outputs": [],
      "stateMutability": "nonpayable",
      "type": "function"
    }
  ],
  "bytecode": "0x60a06040523480156200001157600080fd5b5060405162000f2538038062000f258339810160408190526200003491620000ae565b6040518060400160405280601081526020016f2a393ab29029ba30b136329021b7b4b760811b8152506040518060400160405280600381526020016254534360e81b81525081600390816200008a919062000185565b50600462000099828262000185565b5050506001600160a01b031660805262000251565b600060208284031215620000c157600080fd5b81516001600160a01b0381168114620000d957600080fd5b9392505050565b634e487b7160e01b600052604160045260246000fd5b600181811c908216806200010b57607f821691505b6020821081036200012c57634e487b7160e01b600052602260045260246000fd5b50919050565b601f8211156200018057600081815260208120601f850160051c810160208610156200015b5750805b601f850160051c820191505b818110156200017c5782815560010162000167565b5050505b505050565b81516001600160401b03811115620001a157620001a1620000e0565b620001b981620001b28454620000f6565b8462000132565b602080601f831160018114620001f15760008415620001d85750858301515b600019600386901b1c1916600185901b1785556200017c565b600085815260208120601f198616915b82811015620002225788860151825594840194600190910190840162000201565b5085821015620002415787850151600019600388901b60f8161c191681555b5050505050600190811b01905550565b608051610cb162000274600039600081816102d701526103e90152610cb16000f3fe608060405234801561001057600080fd5b50600436106100af5760003560e01c806306fdde03146100b4578063095ea7b3146100d257806318160ddd146100f557806323b872dd14610107578063313ce5671461011a578063395093511461012957806340c10f191461013c57806370a082311461015157806395d89b411461017a5780639dc29fac14610182578063a457c2d714610195578063a9059cbb146101a8578063dd62ed3e146101bb575b600080fd5b6100bc6101ce565b6040516100c99190610a76565b60405180910390f35b6100e56100e0366004610adc565b610260565b60405190151581526020016100c9565b6002545b6040519081526020016100c9565b6100e5610115366004610b08565b61027a565b604051601281526020016100c9565b6100e5610137366004610adc565b61029e565b61014f61014a366004610adc565b6102c0565b005b6100f961015f366004610b49565b6001600160a01b031660009081526020819052604090205490565b6100bc6103c3565b61014f610190366004610adc565b6103d2565b6100e56101a3366004610adc565b6104cc565b6100e56101b6366004610adc565b610547565b6100f96101c9366004610b6d565b610555565b6060600380546101dd90610ba6565b80601f016020809104026020016040519081016040528092919081815260200182805461020990610ba6565b80156102565780601f1061022b57610100808354040283529160200191610256565b820191906000526020600020905b81548152906001019060200180831161023957829003601f168201915b5050505050905090565b60003361026e818585610580565b60019150505b92915050565b6000336102888582856106a5565b61029385858561071f565b506001949350505050565b60003361026e8185856102b18383610555565b6102bb9190610be0565b610580565b60405163bdfe7d4760e01b81526001600160a01b037f0000000000000000000000000000000000000000000000000000000000000000169063bdfe7d479061030a90600401610c01565b602060405180830381865afa158015610327573d6000803e3d6000fd5b505050506040513d601f19601f8201168201806040525081019061034b9190610c1e565b6001600160a01b0316336001600160a01b0316146103b55760405162461bcd60e51b815260206004820152602e6024820152600080516020610c3c83398151915260448201526d1bdc9a5e9959081d1bc81b5a5b9d60921b60648201526084015b60405180910390fd5b6103bf82826108b1565b5050565b6060600480546101dd90610ba6565b60405163bdfe7d4760e01b81526001600160a01b037f0000000000000000000000000000000000000000000000000000000000000000169063bdfe7d479061041c90600401610c01565b602060405180830381865afa158015610439573d6000803e3d6000fd5b505050506040513d601f19601f8201168201806040525081019061045d9190610c1e565b6001600160a01b0316336001600160a01b0316146104c25760405162461bcd60e51b815260206004820152602e6024820152600080516020610c3c83398151915260448201526d37b934bd32b2103a3790313ab93760911b60648201526084016103ac565b6103bf828261095e565b600033816104da8286610555565b90508381101561053a5760405162461bcd60e51b815260206004820152602560248201527f45524332303a2064656372656173656420616c6c6f77616e63652062656c6f77604482015264207a65726f60d81b60648201526084016103ac565b6102938286868403610580565b60003361026e81858561071f565b6001600160a01b03918216600090815260016020908152604080832093909416825291909152205490565b6001600160a01b0383166105e25760405162461bcd60e51b8152602060048201526024808201527f45524332303a20617070726f76652066726f6d20746865207a65726f206164646044820152637265737360e01b60648201526084016103ac565b6001600160a01b0382166106435760405162461bcd60e51b815260206004820152602260248201527f45524332303a20617070726f766520746f20746865207a65726f206164647265604482015261737360f01b60648201526084016103ac565b6001600160a01b0383811660008181526001602090815260408083209487168084529482529182902085905590518481527f8c5be1e5ebec7d5bd14f71427d1e84f3dd0314c0f7b2291e5b200ac8c7c3b92591015b60405180910390a3505050565b60006106b18484610555565b90506000198114610719578181101561070c5760405162461bcd60e51b815260206004820152601d60248201527f45524332303a20696e73756666696369656e7420616c6c6f77616e636500000060448201526064016103ac565b6107198484848403610580565b50505050565b6001600160a01b0383166107835760405162461bcd60e51b815260206004820152602560248201527f45524332303a207472616e736665722066726f6d20746865207a65726f206164604482015264647265737360d81b60648201526084016103ac565b6001600160a01b0382166107e55760405162461bcd60e51b815260206004820152602360248201527f45524332303a207472616e7366657220746f20746865207a65726f206164647260448201526265737360e81b60648201526084016103ac565b6001600160a01b0383166000908152602081905260409020548181101561085d5760405162461bcd60e51b815260206004820152602660248201527f45524332303a207472616e7366657220616d6f756e7420657863656564732062604482015265616c616e636560d01b60648201526084016103ac565b6001600160a01b0384811660008181526020818152604080832087870390559387168083529184902080548701905592518581529092600080516020610c5c833981519152910160405180910390a3610719565b6001600160a01b0382166109075760405162461bcd60e51b815260206004820152601f60248201527f45524332303a206d696e7420746f20746865207a65726f20616464726573730060448201526064016103ac565b80600260008282546109199190610be0565b90915550506001600160a01b03821660008181526020818152604080832080548601905551848152600080516020610c5c833981519152910160405180910390a35050565b6001600160a01b0382166109be5760405162461bcd60e51b815260206004820152602160248201527f45524332303a206275726e2066726f6d20746865207a65726f206164647265736044820152607360f81b60648201526084016103ac565b6001600160a01b03821660009081526020819052604090205481811015610a325760405162461bcd60e51b815260206004820152602260248201527f45524332303a206275726e20616d6f756e7420657863656564732062616c616e604482015261636560f01b60648201526084016103ac565b6001600160a01b038316600081815260208181526040808320868603905560028054879003905551858152919291600080516020610c5c8339815191529101610698565b600060208083528351808285015260005b81811015610aa357858101830151858201604001528201610a87565b506000604082860101526040601f19601f8301168501019250505092915050565b6001600160a01b0381168114610ad957600080fd5b50565b60008060408385031215610aef57600080fd5b8235610afa81610ac4565b946020939093013593505050565b600080600060608486031215610b1d57600080fd5b8335610b2881610ac4565b92506020840135610b3881610ac4565b929592945050506040919091013590565b600060208284031215610b5b57600080fd5b8135610b6681610ac4565b9392505050565b60008060408385031215610b8057600080fd5b8235610b8b81610ac4565b91506020830135610b9b81610ac4565b809150509250929050565b600181811c90821680610bba57607f821691505b602082108103610bda57634e487b7160e01b600052602260045260246000fd5b50919050565b8082018082111561027457634e487b7160e01b600052601160045260246000fd5b60208082526003908201526206364760ec1b604082015260600190565b600060208284031215610c3057600080fd5b8151610b6681610ac456fe6f6e6c7920636f6c6c61746572616c20636f6e74726163742069732061757468ddf252ad1be2c89b69c2b068fc378daa952ba7f163c4a11628f55a4df523b3efa2646970667358221220b4a73e42aa3e7abd90e7cb45f67f6bd9de806062813296bb9c951674505f743664736f6c63430008120033",
  "immutableReferences": {
    "6202": [
      {
        "length": 32,
        "start": 727
      },
      {
        "length": 32,
        "start": 1001
      }
    ]
  },
  "source": "// SPDX-License-Identifier: UNLICENSED\r\npragma solidity 0.8.18;\r\nimport \"@openzeppelin/contracts/token/ERC20/ERC20.sol\";\r\nimport \"./IDAO.sol\";\r\n\r\ncontract stableCoin is ERC20{\r\n    IDAO immutable dao;\r\n\r\n    constructor(address _INTDAOaddress) ERC20(\"True Stable Coin\", \"TSC\"){\r\n        dao = IDAO(_INTDAOaddress);\r\n    }\r\n\r\n    function mint(address to, uint256 amount) external{\r\n        require (msg.sender == dao.addresses(\"cdp\"), \"only collateral contract is authorized to mint\");\r\n        _mint(to, amount);\r\n    }\r\n\r\n    function burn(address from, uint256 amount) external{\r\n        require (msg.sender == dao.addresses(\"cdp\"), \"only collateral contract is authorized to burn\");\r\n        _burn(from, amount);\r\n    }\r\n}",
  "sourcePath": "C:\\Users\\d.nagornykh\\YandexDisk\\\\ICO\\CryptoFiat\\repo\\contracts\\stableCoin.sol",
  "compiler": {
    "name": "solc",
    "version": "0.8.18+commit.87f61d96.Emscripten.clang"
  },
  "schemaVersion": "3.4.14",
  "updatedAt": "2023-09-29T08:17:48.167Z",
  "devdoc": {
    "events": {
      "Approval(address,address,uint256)": {
        "details": "Emitted when the allowance of a `spender` for an `owner` is set by a call to {approve}. `value` is the new allowance."
      },
      "Transfer(address,address,uint256)": {
        "details": "Emitted when `value` tokens are moved from one account (`from`) to another (`to`). Note that `value` may be zero."
      }
    },
    "kind": "dev",
    "methods": {
      "allowance(address,address)": {
        "details": "See {IERC20-allowance}."
      },
      "approve(address,uint256)": {
        "details": "See {IERC20-approve}. NOTE: If `amount` is the maximum `uint256`, the allowance is not updated on `transferFrom`. This is semantically equivalent to an infinite approval. Requirements: - `spender` cannot be the zero address."
      },
      "balanceOf(address)": {
        "details": "See {IERC20-balanceOf}."
      },
      "decimals()": {
        "details": "Returns the number of decimals used to get its user representation. For example, if `decimals` equals `2`, a balance of `505` tokens should be displayed to a user as `5.05` (`505 / 10 ** 2`). Tokens usually opt for a value of 18, imitating the relationship between Ether and Wei. This is the default value returned by this function, unless it's overridden. NOTE: This information is only used for _display_ purposes: it in no way affects any of the arithmetic of the contract, including {IERC20-balanceOf} and {IERC20-transfer}."
      },
      "decreaseAllowance(address,uint256)": {
        "details": "Atomically decreases the allowance granted to `spender` by the caller. This is an alternative to {approve} that can be used as a mitigation for problems described in {IERC20-approve}. Emits an {Approval} event indicating the updated allowance. Requirements: - `spender` cannot be the zero address. - `spender` must have allowance for the caller of at least `subtractedValue`."
      },
      "increaseAllowance(address,uint256)": {
        "details": "Atomically increases the allowance granted to `spender` by the caller. This is an alternative to {approve} that can be used as a mitigation for problems described in {IERC20-approve}. Emits an {Approval} event indicating the updated allowance. Requirements: - `spender` cannot be the zero address."
      },
      "name()": {
        "details": "Returns the name of the token."
      },
      "symbol()": {
        "details": "Returns the symbol of the token, usually a shorter version of the name."
      },
      "totalSupply()": {
        "details": "See {IERC20-totalSupply}."
      },
      "transfer(address,uint256)": {
        "details": "See {IERC20-transfer}. Requirements: - `to` cannot be the zero address. - the caller must have a balance of at least `amount`."
      },
      "transferFrom(address,address,uint256)": {
        "details": "See {IERC20-transferFrom}. Emits an {Approval} event indicating the updated allowance. This is not required by the EIP. See the note at the beginning of {ERC20}. NOTE: Does not update the allowance if the current allowance is the maximum `uint256`. Requirements: - `from` and `to` cannot be the zero address. - `from` must have a balance of at least `amount`. - the caller must have allowance for ``from``'s tokens of at least `amount`."
      }
    },
    "version": 1
  },
  "userdoc": {
    "kind": "user",
    "methods": {},
    "version": 1
  }
}