{
  "contractName": "stableCoin",
  "abi": [
    {
      "inputs": [
        {
          "internalType": "address",
          "name": "_INTDAOaddress",
          "type": "address"
        }
      ],
      "stateMutability": "nonpayable",
      "type": "constructor"
    },
    {
      "anonymous": false,
      "inputs": [
        {
          "indexed": true,
          "internalType": "address",
          "name": "owner",
          "type": "address"
        },
        {
          "indexed": true,
          "internalType": "address",
          "name": "spender",
          "type": "address"
        },
        {
          "indexed": false,
          "internalType": "uint256",
          "name": "value",
          "type": "uint256"
        }
      ],
      "name": "Approval",
      "type": "event"
    },
    {
      "anonymous": false,
      "inputs": [
        {
          "indexed": false,
          "internalType": "address",
          "name": "from",
          "type": "address"
        },
        {
          "indexed": false,
          "internalType": "uint256",
          "name": "value",
          "type": "uint256"
        }
      ],
      "name": "Burned",
      "type": "event"
    },
    {
      "anonymous": false,
      "inputs": [
        {
          "indexed": true,
          "internalType": "address",
          "name": "from",
          "type": "address"
        },
        {
          "indexed": true,
          "internalType": "address",
          "name": "to",
          "type": "address"
        },
        {
          "indexed": false,
          "internalType": "uint256",
          "name": "value",
          "type": "uint256"
        }
      ],
      "name": "Transfer",
      "type": "event"
    },
    {
      "inputs": [],
      "name": "decimals",
      "outputs": [
        {
          "internalType": "uint8",
          "name": "",
          "type": "uint8"
        }
      ],
      "stateMutability": "view",
      "type": "function",
      "constant": true
    },
    {
      "inputs": [],
      "name": "name",
      "outputs": [
        {
          "internalType": "string",
          "name": "",
          "type": "string"
        }
      ],
      "stateMutability": "view",
      "type": "function",
      "constant": true
    },
    {
      "inputs": [],
      "name": "symbol",
      "outputs": [
        {
          "internalType": "string",
          "name": "",
          "type": "string"
        }
      ],
      "stateMutability": "view",
      "type": "function",
      "constant": true
    },
    {
      "stateMutability": "payable",
      "type": "receive",
      "payable": true
    },
    {
      "inputs": [],
      "name": "initCDP",
      "outputs": [
        {
          "internalType": "bool",
          "name": "",
          "type": "bool"
        }
      ],
      "stateMutability": "nonpayable",
      "type": "function"
    },
    {
      "inputs": [],
      "name": "totalSupply",
      "outputs": [
        {
          "internalType": "uint256",
          "name": "",
          "type": "uint256"
        }
      ],
      "stateMutability": "view",
      "type": "function",
      "constant": true
    },
    {
      "inputs": [
        {
          "internalType": "address",
          "name": "owner",
          "type": "address"
        }
      ],
      "name": "balanceOf",
      "outputs": [
        {
          "internalType": "uint256",
          "name": "balance",
          "type": "uint256"
        }
      ],
      "stateMutability": "view",
      "type": "function",
      "constant": true
    },
    {
      "inputs": [
        {
          "internalType": "address",
          "name": "owner",
          "type": "address"
        },
        {
          "internalType": "address",
          "name": "spender",
          "type": "address"
        }
      ],
      "name": "allowance",
      "outputs": [
        {
          "internalType": "uint256",
          "name": "remaining",
          "type": "uint256"
        }
      ],
      "stateMutability": "view",
      "type": "function",
      "constant": true
    },
    {
      "inputs": [
        {
          "internalType": "address",
          "name": "to",
          "type": "address"
        },
        {
          "internalType": "uint256",
          "name": "value",
          "type": "uint256"
        }
      ],
      "name": "transfer",
      "outputs": [
        {
          "internalType": "bool",
          "name": "success",
          "type": "bool"
        }
      ],
      "stateMutability": "nonpayable",
      "type": "function"
    },
    {
      "inputs": [
        {
          "internalType": "address",
          "name": "from",
          "type": "address"
        },
        {
          "internalType": "address",
          "name": "to",
          "type": "address"
        },
        {
          "internalType": "uint256",
          "name": "value",
          "type": "uint256"
        }
      ],
      "name": "transferFrom",
      "outputs": [
        {
          "internalType": "bool",
          "name": "success",
          "type": "bool"
        }
      ],
      "stateMutability": "nonpayable",
      "type": "function"
    },
    {
      "inputs": [
        {
          "internalType": "address",
          "name": "spender",
          "type": "address"
        },
        {
          "internalType": "uint256",
          "name": "value",
          "type": "uint256"
        }
      ],
      "name": "approve",
      "outputs": [
        {
          "internalType": "bool",
          "name": "success",
          "type": "bool"
        }
      ],
      "stateMutability": "nonpayable",
      "type": "function"
    },
    {
      "inputs": [],
      "name": "mint",
      "outputs": [
        {
          "internalType": "bool",
          "name": "",
          "type": "bool"
        }
      ],
      "stateMutability": "nonpayable",
      "type": "function"
    },
    {
      "inputs": [
        {
          "internalType": "uint256",
          "name": "amount",
          "type": "uint256"
        },
        {
          "internalType": "address",
          "name": "from",
          "type": "address"
        }
      ],
      "name": "burn",
      "outputs": [
        {
          "internalType": "bool",
          "name": "success",
          "type": "bool"
        }
      ],
      "stateMutability": "nonpayable",
      "type": "function"
    }
  ],
  "bytecode": "0x6080604052600080553480156200001557600080fd5b506040516200170d3803806200170d83398181016040528101906200003b919062000162565b80600460006101000a81548173ffffffffffffffffffffffffffffffffffffffff021916908373ffffffffffffffffffffffffffffffffffffffff16021790555060008190508073ffffffffffffffffffffffffffffffffffffffff16632abdf04e306040518263ffffffff1660e01b8152600401620000bc919062000206565b600060405180830381600087803b158015620000d757600080fd5b505af1158015620000ec573d6000803e3d6000fd5b50505050505062000238565b600080fd5b600073ffffffffffffffffffffffffffffffffffffffff82169050919050565b60006200012a82620000fd565b9050919050565b6200013c816200011d565b81146200014857600080fd5b50565b6000815190506200015c8162000131565b92915050565b6000602082840312156200017b576200017a620000f8565b5b60006200018b848285016200014b565b91505092915050565b600082825260208201905092915050565b7f737461626c65436f696e00000000000000000000000000000000000000000000600082015250565b6000620001dd600a8362000194565b9150620001ea82620001a5565b602082019050919050565b62000200816200011d565b82525050565b600060408201905081810360008301526200022181620001ce565b9050620002326020830184620001f5565b92915050565b6114c580620002486000396000f3fe6080604052600436106100ab5760003560e01c806370a082311161006457806370a08231146101dd578063865943f91461021a57806395d89b4114610245578063a9059cbb14610270578063dd62ed3e146102ad578063fcd3533c146102ea576100b2565b806306fdde03146100b7578063095ea7b3146100e25780631249c58b1461011f57806318160ddd1461014a57806323b872dd14610175578063313ce567146101b2576100b2565b366100b257005b600080fd5b3480156100c357600080fd5b506100cc610327565b6040516100d99190610ed0565b60405180910390f35b3480156100ee57600080fd5b5061010960048036038101906101049190610f8b565b610360565b6040516101169190610fe6565b60405180910390f35b34801561012b57600080fd5b50610134610452565b6040516101419190610fe6565b60405180910390f35b34801561015657600080fd5b5061015f610612565b60405161016c9190611010565b60405180910390f35b34801561018157600080fd5b5061019c6004803603810190610197919061102b565b61061b565b6040516101a99190610fe6565b60405180910390f35b3480156101be57600080fd5b506101c76108b2565b6040516101d4919061109a565b60405180910390f35b3480156101e957600080fd5b5061020460048036038101906101ff91906110b5565b6108b7565b6040516102119190611010565b60405180910390f35b34801561022657600080fd5b5061022f610900565b60405161023c9190610fe6565b60405180910390f35b34801561025157600080fd5b5061025a6109e8565b6040516102679190610ed0565b60405180910390f35b34801561027c57600080fd5b5061029760048036038101906102929190610f8b565b610a21565b6040516102a49190610fe6565b60405180910390f35b3480156102b957600080fd5b506102d460048036038101906102cf91906110e2565b610b9c565b6040516102e19190611010565b60405180910390f35b3480156102f657600080fd5b50610311600480360381019061030c9190611122565b610c23565b60405161031e9190610fe6565b60405180910390f35b6040518060400160405280600a81526020017f555344204176617461720000000000000000000000000000000000000000000081525081565b600081600260003373ffffffffffffffffffffffffffffffffffffffff1673ffffffffffffffffffffffffffffffffffffffff16815260200190815260200160002060008573ffffffffffffffffffffffffffffffffffffffff1673ffffffffffffffffffffffffffffffffffffffff168152602001908152602001600020819055508273ffffffffffffffffffffffffffffffffffffffff163373ffffffffffffffffffffffffffffffffffffffff167f8c5be1e5ebec7d5bd14f71427d1e84f3dd0314c0f7b2291e5b200ac8c7c3b925846040516104409190611010565b60405180910390a36001905092915050565b600080600360009054906101000a900473ffffffffffffffffffffffffffffffffffffffff1673ffffffffffffffffffffffffffffffffffffffff1663d63a8e11336040518263ffffffff1660e01b81526004016104b09190611171565b602060405180830381865afa1580156104cd573d6000803e3d6000fd5b505050506040513d601f19601f820116820180604052508101906104f191906111a1565b90506000811161050057600080fd5b80600160003373ffffffffffffffffffffffffffffffffffffffff1673ffffffffffffffffffffffffffffffffffffffff168152602001908152602001600020600082825461054f91906111fd565b925050819055508060008082825461056791906111fd565b92505081905550600360009054906101000a900473ffffffffffffffffffffffffffffffffffffffff1673ffffffffffffffffffffffffffffffffffffffff1663e14716026040518163ffffffff1660e01b81526004016020604051808303816000875af11580156105dd573d6000803e3d6000fd5b505050506040513d601f19601f82011682018060405250810190610601919061127f565b61060a57600080fd5b600191505090565b60008054905090565b600081600160008673ffffffffffffffffffffffffffffffffffffffff1673ffffffffffffffffffffffffffffffffffffffff16815260200190815260200160002054101580156106e8575081600260008673ffffffffffffffffffffffffffffffffffffffff1673ffffffffffffffffffffffffffffffffffffffff16815260200190815260200160002060003373ffffffffffffffffffffffffffffffffffffffff1673ffffffffffffffffffffffffffffffffffffffff1681526020019081526020016000205410155b80156106f45750600082115b156108a65781600160008573ffffffffffffffffffffffffffffffffffffffff1673ffffffffffffffffffffffffffffffffffffffff168152602001908152602001600020600082825461074891906111fd565b9250508190555081600160008673ffffffffffffffffffffffffffffffffffffffff1673ffffffffffffffffffffffffffffffffffffffff168152602001908152602001600020600082825461079e91906112ac565b9250508190555081600260008673ffffffffffffffffffffffffffffffffffffffff1673ffffffffffffffffffffffffffffffffffffffff16815260200190815260200160002060003373ffffffffffffffffffffffffffffffffffffffff1673ffffffffffffffffffffffffffffffffffffffff168152602001908152602001600020600082825461083191906112ac565b925050819055508273ffffffffffffffffffffffffffffffffffffffff168473ffffffffffffffffffffffffffffffffffffffff167fddf252ad1be2c89b69c2b068fc378daa952ba7f163c4a11628f55a4df523b3ef846040516108959190611010565b60405180910390a3600190506108ab565b600090505b9392505050565b601281565b6000600160008373ffffffffffffffffffffffffffffffffffffffff1673ffffffffffffffffffffffffffffffffffffffff168152602001908152602001600020549050919050565b600080600460009054906101000a900473ffffffffffffffffffffffffffffffffffffffff1690508073ffffffffffffffffffffffffffffffffffffffff1663bdfe7d476040518163ffffffff1660e01b815260040161095f9061132c565b602060405180830381865afa15801561097c573d6000803e3d6000fd5b505050506040513d601f19601f820116820180604052508101906109a09190611361565b600360006101000a81548173ffffffffffffffffffffffffffffffffffffffff021916908373ffffffffffffffffffffffffffffffffffffffff160217905550600191505090565b6040518060400160405280600481526020017f615553440000000000000000000000000000000000000000000000000000000081525081565b600081600160003373ffffffffffffffffffffffffffffffffffffffff1673ffffffffffffffffffffffffffffffffffffffff1681526020019081526020016000205410158015610a725750600082115b15610b915781600160003373ffffffffffffffffffffffffffffffffffffffff1673ffffffffffffffffffffffffffffffffffffffff1681526020019081526020016000206000828254610ac691906112ac565b9250508190555081600160008573ffffffffffffffffffffffffffffffffffffffff1673ffffffffffffffffffffffffffffffffffffffff1681526020019081526020016000206000828254610b1c91906111fd565b925050819055508273ffffffffffffffffffffffffffffffffffffffff163373ffffffffffffffffffffffffffffffffffffffff167fddf252ad1be2c89b69c2b068fc378daa952ba7f163c4a11628f55a4df523b3ef84604051610b809190611010565b60405180910390a360019050610b96565b600090505b92915050565b6000600260008473ffffffffffffffffffffffffffffffffffffffff1673ffffffffffffffffffffffffffffffffffffffff16815260200190815260200160002060008373ffffffffffffffffffffffffffffffffffffffff1673ffffffffffffffffffffffffffffffffffffffff16815260200190815260200160002054905092915050565b600082610c303384610b9c565b1015610c71576040517f08c379a0000000000000000000000000000000000000000000000000000000008152600401610c68906113da565b60405180910390fd5b82600160003373ffffffffffffffffffffffffffffffffffffffff1673ffffffffffffffffffffffffffffffffffffffff168152602001908152602001600020541015610cf3576040517f08c379a0000000000000000000000000000000000000000000000000000000008152600401610cea90611446565b60405180910390fd5b82600080828254610d0491906112ac565b9250508190555082600160003373ffffffffffffffffffffffffffffffffffffffff1673ffffffffffffffffffffffffffffffffffffffff1681526020019081526020016000206000828254610d5a91906112ac565b9250508190555082600260003373ffffffffffffffffffffffffffffffffffffffff1673ffffffffffffffffffffffffffffffffffffffff16815260200190815260200160002060008473ffffffffffffffffffffffffffffffffffffffff1673ffffffffffffffffffffffffffffffffffffffff1681526020019081526020016000206000828254610ded91906112ac565b925050819055507f696de425f79f4a40bc6d2122ca50507f0efbeabbff86a84871b7196ab8ea8df73084604051610e25929190611466565b60405180910390a16001905092915050565b600081519050919050565b600082825260208201905092915050565b60005b83811015610e71578082015181840152602081019050610e56565b83811115610e80576000848401525b50505050565b6000601f19601f8301169050919050565b6000610ea282610e37565b610eac8185610e42565b9350610ebc818560208601610e53565b610ec581610e86565b840191505092915050565b60006020820190508181036000830152610eea8184610e97565b905092915050565b600080fd5b600073ffffffffffffffffffffffffffffffffffffffff82169050919050565b6000610f2282610ef7565b9050919050565b610f3281610f17565b8114610f3d57600080fd5b50565b600081359050610f4f81610f29565b92915050565b6000819050919050565b610f6881610f55565b8114610f7357600080fd5b50565b600081359050610f8581610f5f565b92915050565b60008060408385031215610fa257610fa1610ef2565b5b6000610fb085828601610f40565b9250506020610fc185828601610f76565b9150509250929050565b60008115159050919050565b610fe081610fcb565b82525050565b6000602082019050610ffb6000830184610fd7565b92915050565b61100a81610f55565b82525050565b60006020820190506110256000830184611001565b92915050565b60008060006060848603121561104457611043610ef2565b5b600061105286828701610f40565b935050602061106386828701610f40565b925050604061107486828701610f76565b9150509250925092565b600060ff82169050919050565b6110948161107e565b82525050565b60006020820190506110af600083018461108b565b92915050565b6000602082840312156110cb576110ca610ef2565b5b60006110d984828501610f40565b91505092915050565b600080604083850312156110f9576110f8610ef2565b5b600061110785828601610f40565b925050602061111885828601610f40565b9150509250929050565b6000806040838503121561113957611138610ef2565b5b600061114785828601610f76565b925050602061115885828601610f40565b9150509250929050565b61116b81610f17565b82525050565b60006020820190506111866000830184611162565b92915050565b60008151905061119b81610f5f565b92915050565b6000602082840312156111b7576111b6610ef2565b5b60006111c58482850161118c565b91505092915050565b7f4e487b7100000000000000000000000000000000000000000000000000000000600052601160045260246000fd5b600061120882610f55565b915061121383610f55565b9250827fffffffffffffffffffffffffffffffffffffffffffffffffffffffffffffffff03821115611248576112476111ce565b5b828201905092915050565b61125c81610fcb565b811461126757600080fd5b50565b60008151905061127981611253565b92915050565b60006020828403121561129557611294610ef2565b5b60006112a38482850161126a565b91505092915050565b60006112b782610f55565b91506112c283610f55565b9250828210156112d5576112d46111ce565b5b828203905092915050565b7f6370640000000000000000000000000000000000000000000000000000000000600082015250565b6000611316600383610e42565b9150611321826112e0565b602082019050919050565b6000602082019050818103600083015261134581611309565b9050919050565b60008151905061135b81610f29565b92915050565b60006020828403121561137757611376610ef2565b5b60006113858482850161134c565b91505092915050565b7f53686f756c6420616c6c6f772066697273740000000000000000000000000000600082015250565b60006113c4601283610e42565b91506113cf8261138e565b602082019050919050565b600060208201905081810360008301526113f3816113b7565b9050919050565b7f53686f756c64206861766520636f696e73000000000000000000000000000000600082015250565b6000611430601183610e42565b915061143b826113fa565b602082019050919050565b6000602082019050818103600083015261145f81611423565b9050919050565b600060408201905061147b6000830185611162565b6114886020830184611001565b939250505056fea2646970667358221220e72122a8b025637fee9e322e09d2795568e324db36319653ee212af3e50e1cc264736f6c634300080a0033",
  "immutableReferences": {},
  "source": "// SPDX-License-Identifier: UNLICENSED\r\npragma solidity >=0.4.22 <0.9.0;\r\nimport \"./INTDAO.sol\";\r\n\r\ninterface CDPInterface {\r\n    function allowed (address to) external view returns (uint256 amount);\r\n    function decreaseAllowed() external returns (bool success);\r\n}\r\n\r\ninterface ERC20 {\r\n    function totalSupply() external view returns (uint supply);\r\n    function balanceOf(address who) external view returns (uint value);\r\n    function allowance(address owner, address spender) external view returns (uint remaining);\r\n\r\n    function transfer(address to, uint value) external returns (bool ok);\r\n    function transferFrom(address from, address to, uint value) external returns (bool ok);\r\n    function approve(address spender, uint value) external returns (bool ok);\r\n\r\n    event Transfer(address indexed from, address indexed to, uint value);\r\n    event Approval(address indexed owner, address indexed spender, uint value);\r\n}\r\n\r\ncontract stableCoin is ERC20{\r\n    uint8 public constant decimals = 18;\r\n    uint256 initialSupply = 0;\r\n\r\n    string public constant name = \"USD Avatar\";\r\n    string public constant symbol = \"aUSD\";\r\n\r\n    mapping (address => uint256) balances;\r\n    mapping (address => mapping (address => uint256)) allowed;\r\n    event Burned(address from, uint256 value);\r\n\r\n\r\n    CDPInterface cdp;\r\n    address daoAddress;\r\n\r\n    constructor(address _INTDAOaddress){\r\n        daoAddress = _INTDAOaddress;\r\n        INTDAO dao = INTDAO(_INTDAOaddress);\r\n        dao.setAddressOnce(\"stableCoin\", address(this));\r\n    }\r\n\r\n    function initCDP() public returns (bool) {\r\n        INTDAO dao = INTDAO(daoAddress);\r\n        cdp = CDPInterface(dao.addresses('cpd'));\r\n        return true;\r\n    }\r\n\r\n    function totalSupply() public view returns (uint256) {\r\n        return initialSupply;\r\n    }\r\n\r\n    function balanceOf(address owner) public view returns (uint256 balance) {\r\n        return balances[owner];\r\n    }\r\n\r\n    function allowance(address owner, address spender) public view returns (uint remaining) {\r\n        return allowed[owner][spender];\r\n    }\r\n\r\n    function transfer(address to, uint256 value) public returns (bool success) {\r\n        if (balances[msg.sender] >= value && value > 0) {\r\n            balances[msg.sender] -= value;\r\n            balances[to] += value;\r\n            emit Transfer(msg.sender, to, value);\r\n            return true;\r\n        } else {\r\n            return false;\r\n        }\r\n    }\r\n\r\n    function transferFrom(address from, address to, uint256 value) public returns (bool success) {\r\n        if (balances[from] >= value && allowed[from][msg.sender] >= value && value > 0) {\r\n            balances[to] += value;\r\n            balances[from] -= value;\r\n            allowed[from][msg.sender] -= value;\r\n            emit Transfer(from, to, value);\r\n            return true;\r\n        } else {\r\n            return false;\r\n        }\r\n    }\r\n\r\n    function approve(address spender, uint256 value) public returns (bool success) {\r\n        allowed[msg.sender][spender] = value;\r\n        emit Approval(msg.sender, spender, value);\r\n        return true;\r\n    }\r\n\r\n    receive() external payable {\r\n        //topup stablilization Fund\r\n        //.transfer(msg.value);\r\n    }\r\n\r\n    function mint() public returns (bool) {\r\n        uint toMint = cdp.allowed(msg.sender);\r\n        require(toMint>0);\r\n\r\n        balances[msg.sender] += toMint;\r\n        initialSupply += toMint;\r\n        require(cdp.decreaseAllowed());\r\n        return true;\r\n    }\r\n\r\n    function burn(uint256 amount, address from) public returns (bool success) {\r\n        require(allowance(msg.sender, from) >= amount, 'Should allow first');\r\n        require(balances[msg.sender] >= amount, 'Should have coins');\r\n\r\n        initialSupply -= amount;\r\n        balances[msg.sender] -= amount;\r\n        allowed[msg.sender][from] -= amount;\r\n        emit Burned(address(this), amount);\r\n        return true;\r\n    }\r\n}",
  "sourcePath": "C:\\Users\\d.nagornykh\\YandexDisk\\\\ICO\\CryptoFiat\\repo\\contracts\\stableCoin.sol",
  "compiler": {
    "name": "solc",
    "version": "0.8.10+commit.fc410830.Emscripten.clang"
  },
  "schemaVersion": "3.4.4",
  "updatedAt": "2022-12-14T05:23:33.191Z",
  "networkType": "ethereum",
  "devdoc": {
    "kind": "dev",
    "methods": {},
    "version": 1
  },
  "userdoc": {
    "kind": "user",
    "methods": {},
    "version": 1
  }
}