{
  "contractName": "tokenTemplate",
  "abi": [
    {
      "inputs": [
        {
          "internalType": "address[]",
          "name": "addresses",
          "type": "address[]"
        },
        {
          "internalType": "uint256[]",
          "name": "params",
          "type": "uint256[]"
        },
        {
          "internalType": "string",
          "name": "_symbol",
          "type": "string"
        },
        {
          "internalType": "string",
          "name": "_name",
          "type": "string"
        },
        {
          "internalType": "uint256[]",
          "name": "_budgetPercent",
          "type": "uint256[]"
        },
        {
          "internalType": "uint256[]",
          "name": "_extraChargePercent",
          "type": "uint256[]"
        },
        {
          "internalType": "uint256[]",
          "name": "_stagesDuration",
          "type": "uint256[]"
        },
        {
          "internalType": "string[]",
          "name": "_stagesShortDescription",
          "type": "string[]"
        }
      ],
      "stateMutability": "nonpayable",
      "type": "constructor"
    },
    {
      "anonymous": false,
      "inputs": [
        {
          "indexed": true,
          "internalType": "address",
          "name": "owner",
          "type": "address"
        },
        {
          "indexed": true,
          "internalType": "address",
          "name": "spender",
          "type": "address"
        },
        {
          "indexed": false,
          "internalType": "uint256",
          "name": "value",
          "type": "uint256"
        }
      ],
      "name": "Approval",
      "type": "event"
    },
    {
      "anonymous": false,
      "inputs": [
        {
          "indexed": true,
          "internalType": "address",
          "name": "from",
          "type": "address"
        },
        {
          "indexed": true,
          "internalType": "address",
          "name": "to",
          "type": "address"
        },
        {
          "indexed": false,
          "internalType": "uint256",
          "name": "value",
          "type": "uint256"
        }
      ],
      "name": "Transfer",
      "type": "event"
    },
    {
      "anonymous": false,
      "inputs": [
        {
          "indexed": false,
          "internalType": "uint256",
          "name": "stage",
          "type": "uint256"
        },
        {
          "indexed": false,
          "internalType": "uint256",
          "name": "amount",
          "type": "uint256"
        }
      ],
      "name": "fundsPassed",
      "type": "event"
    },
    {
      "anonymous": false,
      "inputs": [
        {
          "indexed": false,
          "internalType": "uint256",
          "name": "stageNumber",
          "type": "uint256"
        }
      ],
      "name": "stageSubmitted",
      "type": "event"
    },
    {
      "anonymous": false,
      "inputs": [
        {
          "indexed": false,
          "internalType": "uint256",
          "name": "amount",
          "type": "uint256"
        }
      ],
      "name": "tokensReturned",
      "type": "event"
    },
    {
      "anonymous": false,
      "inputs": [
        {
          "indexed": false,
          "internalType": "uint256",
          "name": "amount",
          "type": "uint256"
        },
        {
          "indexed": false,
          "internalType": "uint256",
          "name": "price",
          "type": "uint256"
        }
      ],
      "name": "tokensSold",
      "type": "event"
    },
    {
      "inputs": [
        {
          "internalType": "uint256",
          "name": "",
          "type": "uint256"
        }
      ],
      "name": "budgetPercent",
      "outputs": [
        {
          "internalType": "uint256",
          "name": "",
          "type": "uint256"
        }
      ],
      "stateMutability": "view",
      "type": "function"
    },
    {
      "inputs": [],
      "name": "crowdSaleDuration",
      "outputs": [
        {
          "internalType": "uint256",
          "name": "",
          "type": "uint256"
        }
      ],
      "stateMutability": "view",
      "type": "function"
    },
    {
      "inputs": [],
      "name": "crowdSaleIsActive",
      "outputs": [
        {
          "internalType": "bool",
          "name": "",
          "type": "bool"
        }
      ],
      "stateMutability": "view",
      "type": "function"
    },
    {
      "inputs": [],
      "name": "currentStage",
      "outputs": [
        {
          "internalType": "uint256",
          "name": "",
          "type": "uint256"
        }
      ],
      "stateMutability": "view",
      "type": "function"
    },
    {
      "inputs": [],
      "name": "decimals",
      "outputs": [
        {
          "internalType": "uint256",
          "name": "",
          "type": "uint256"
        }
      ],
      "stateMutability": "view",
      "type": "function"
    },
    {
      "inputs": [
        {
          "internalType": "uint256",
          "name": "",
          "type": "uint256"
        }
      ],
      "name": "extraChargePercent",
      "outputs": [
        {
          "internalType": "uint256",
          "name": "",
          "type": "uint256"
        }
      ],
      "stateMutability": "view",
      "type": "function"
    },
    {
      "inputs": [
        {
          "internalType": "address",
          "name": "",
          "type": "address"
        }
      ],
      "name": "frozen",
      "outputs": [
        {
          "internalType": "uint256",
          "name": "",
          "type": "uint256"
        }
      ],
      "stateMutability": "view",
      "type": "function"
    },
    {
      "inputs": [],
      "name": "hardCap",
      "outputs": [
        {
          "internalType": "uint256",
          "name": "",
          "type": "uint256"
        }
      ],
      "stateMutability": "view",
      "type": "function"
    },
    {
      "inputs": [],
      "name": "holdDuration",
      "outputs": [
        {
          "internalType": "uint256",
          "name": "",
          "type": "uint256"
        }
      ],
      "stateMutability": "view",
      "type": "function"
    },
    {
      "inputs": [],
      "name": "initialPrice",
      "outputs": [
        {
          "internalType": "uint256",
          "name": "",
          "type": "uint256"
        }
      ],
      "stateMutability": "view",
      "type": "function"
    },
    {
      "inputs": [],
      "name": "initialSupply",
      "outputs": [
        {
          "internalType": "uint256",
          "name": "",
          "type": "uint256"
        }
      ],
      "stateMutability": "view",
      "type": "function"
    },
    {
      "inputs": [],
      "name": "initialTime",
      "outputs": [
        {
          "internalType": "uint256",
          "name": "",
          "type": "uint256"
        }
      ],
      "stateMutability": "view",
      "type": "function"
    },
    {
      "inputs": [],
      "name": "name",
      "outputs": [
        {
          "internalType": "string",
          "name": "",
          "type": "string"
        }
      ],
      "stateMutability": "view",
      "type": "function"
    },
    {
      "inputs": [],
      "name": "numberOfMileStones",
      "outputs": [
        {
          "internalType": "uint256",
          "name": "",
          "type": "uint256"
        }
      ],
      "stateMutability": "view",
      "type": "function"
    },
    {
      "inputs": [],
      "name": "percentOfTokensToTeam",
      "outputs": [
        {
          "internalType": "uint256",
          "name": "",
          "type": "uint256"
        }
      ],
      "stateMutability": "view",
      "type": "function"
    },
    {
      "inputs": [],
      "name": "platformContractAddress",
      "outputs": [
        {
          "internalType": "address",
          "name": "",
          "type": "address"
        }
      ],
      "stateMutability": "view",
      "type": "function"
    },
    {
      "inputs": [],
      "name": "platformFeePercent",
      "outputs": [
        {
          "internalType": "uint256",
          "name": "",
          "type": "uint256"
        }
      ],
      "stateMutability": "view",
      "type": "function"
    },
    {
      "inputs": [],
      "name": "previousStageSubmitted",
      "outputs": [
        {
          "internalType": "uint256",
          "name": "",
          "type": "uint256"
        }
      ],
      "stateMutability": "view",
      "type": "function"
    },
    {
      "inputs": [],
      "name": "projectFinished",
      "outputs": [
        {
          "internalType": "bool",
          "name": "",
          "type": "bool"
        }
      ],
      "stateMutability": "view",
      "type": "function"
    },
    {
      "inputs": [],
      "name": "softCap",
      "outputs": [
        {
          "internalType": "uint256",
          "name": "",
          "type": "uint256"
        }
      ],
      "stateMutability": "view",
      "type": "function"
    },
    {
      "inputs": [],
      "name": "soldTokens",
      "outputs": [
        {
          "internalType": "uint256",
          "name": "",
          "type": "uint256"
        }
      ],
      "stateMutability": "view",
      "type": "function"
    },
    {
      "inputs": [],
      "name": "stableCoinAddress",
      "outputs": [
        {
          "internalType": "address",
          "name": "",
          "type": "address"
        }
      ],
      "stateMutability": "view",
      "type": "function"
    },
    {
      "inputs": [
        {
          "internalType": "uint256",
          "name": "",
          "type": "uint256"
        }
      ],
      "name": "stagesDuration",
      "outputs": [
        {
          "internalType": "uint256",
          "name": "",
          "type": "uint256"
        }
      ],
      "stateMutability": "view",
      "type": "function"
    },
    {
      "inputs": [
        {
          "internalType": "uint256",
          "name": "",
          "type": "uint256"
        }
      ],
      "name": "stagesShortDescription",
      "outputs": [
        {
          "internalType": "string",
          "name": "",
          "type": "string"
        }
      ],
      "stateMutability": "view",
      "type": "function"
    },
    {
      "inputs": [],
      "name": "symbol",
      "outputs": [
        {
          "internalType": "string",
          "name": "",
          "type": "string"
        }
      ],
      "stateMutability": "view",
      "type": "function"
    },
    {
      "inputs": [],
      "name": "teamAddress",
      "outputs": [
        {
          "internalType": "address",
          "name": "",
          "type": "address"
        }
      ],
      "stateMutability": "view",
      "type": "function"
    },
    {
      "inputs": [],
      "name": "tokensToSell",
      "outputs": [
        {
          "internalType": "uint256",
          "name": "",
          "type": "uint256"
        }
      ],
      "stateMutability": "view",
      "type": "function"
    },
    {
      "inputs": [],
      "name": "totalBudgetSpent",
      "outputs": [
        {
          "internalType": "uint256",
          "name": "",
          "type": "uint256"
        }
      ],
      "stateMutability": "view",
      "type": "function"
    },
    {
      "inputs": [],
      "name": "submitStage",
      "outputs": [],
      "stateMutability": "nonpayable",
      "type": "function"
    },
    {
      "inputs": [],
      "name": "finalizePublicOffer",
      "outputs": [],
      "stateMutability": "nonpayable",
      "type": "function"
    },
    {
      "inputs": [],
      "name": "passFundsToTeam",
      "outputs": [],
      "stateMutability": "nonpayable",
      "type": "function"
    },
    {
      "inputs": [],
      "name": "finalizeProject",
      "outputs": [],
      "stateMutability": "nonpayable",
      "type": "function"
    },
    {
      "inputs": [],
      "name": "buyTokens",
      "outputs": [],
      "stateMutability": "nonpayable",
      "type": "function"
    },
    {
      "inputs": [],
      "name": "returnTokens",
      "outputs": [],
      "stateMutability": "nonpayable",
      "type": "function"
    },
    {
      "inputs": [
        {
          "internalType": "uint256",
          "name": "coinsOnHold",
          "type": "uint256"
        },
        {
          "internalType": "address",
          "name": "holderAddress",
          "type": "address"
        }
      ],
      "name": "calculateInterestAvailable",
      "outputs": [
        {
          "internalType": "uint256",
          "name": "amount",
          "type": "uint256"
        }
      ],
      "stateMutability": "view",
      "type": "function"
    },
    {
      "inputs": [],
      "name": "totalSupply",
      "outputs": [
        {
          "internalType": "uint256",
          "name": "",
          "type": "uint256"
        }
      ],
      "stateMutability": "view",
      "type": "function"
    },
    {
      "inputs": [
        {
          "internalType": "address",
          "name": "owner",
          "type": "address"
        }
      ],
      "name": "balanceOf",
      "outputs": [
        {
          "internalType": "uint256",
          "name": "balance",
          "type": "uint256"
        }
      ],
      "stateMutability": "view",
      "type": "function"
    },
    {
      "inputs": [
        {
          "internalType": "address",
          "name": "owner",
          "type": "address"
        },
        {
          "internalType": "address",
          "name": "spender",
          "type": "address"
        }
      ],
      "name": "allowance",
      "outputs": [
        {
          "internalType": "uint256",
          "name": "remaining",
          "type": "uint256"
        }
      ],
      "stateMutability": "view",
      "type": "function"
    },
    {
      "inputs": [
        {
          "internalType": "address",
          "name": "to",
          "type": "address"
        },
        {
          "internalType": "uint256",
          "name": "value",
          "type": "uint256"
        }
      ],
      "name": "transfer",
      "outputs": [
        {
          "internalType": "bool",
          "name": "success",
          "type": "bool"
        }
      ],
      "stateMutability": "nonpayable",
      "type": "function"
    },
    {
      "inputs": [
        {
          "internalType": "address",
          "name": "from",
          "type": "address"
        },
        {
          "internalType": "address",
          "name": "to",
          "type": "address"
        },
        {
          "internalType": "uint256",
          "name": "value",
          "type": "uint256"
        }
      ],
      "name": "transferFrom",
      "outputs": [
        {
          "internalType": "bool",
          "name": "success",
          "type": "bool"
        }
      ],
      "stateMutability": "nonpayable",
      "type": "function"
    },
    {
      "inputs": [
        {
          "internalType": "address",
          "name": "spender",
          "type": "address"
        },
        {
          "internalType": "uint256",
          "name": "value",
          "type": "uint256"
        }
      ],
      "name": "approve",
      "outputs": [
        {
          "internalType": "bool",
          "name": "success",
          "type": "bool"
        }
      ],
      "stateMutability": "nonpayable",
      "type": "function"
    }
  ],
  "bytecode": "0x60806040523480156200001157600080fd5b506040516200479838038062004798833981810160405281019062000037919062000e50565b876000815181106200004e576200004d62001011565b5b6020026020010151600a60006101000a81548173ffffffffffffffffffffffffffffffffffffffff021916908373ffffffffffffffffffffffffffffffffffffffff16021790555087600181518110620000ad57620000ac62001011565b5b6020026020010151600160006101000a81548173ffffffffffffffffffffffffffffffffffffffff021916908373ffffffffffffffffffffffffffffffffffffffff160217905550876002815181106200010c576200010b62001011565b5b60200260200101516000806101000a81548173ffffffffffffffffffffffffffffffffffffffff021916908373ffffffffffffffffffffffffffffffffffffffff160217905550876002815181106200016a576200016962001011565b5b6020026020010151600960006101000a81548173ffffffffffffffffffffffffffffffffffffffff021916908373ffffffffffffffffffffffffffffffffffffffff16021790555086600081518110620001c957620001c862001011565b5b6020026020010151600b8190555086600181518110620001ee57620001ed62001011565b5b6020026020010151600c819055508660028151811062000213576200021262001011565b5b6020026020010151601d819055508660038151811062000238576200023762001011565b5b6020026020010151601381905550600a846000815181106200025f576200025e62001011565b5b60200260200101511115620002ab576040517f08c379a0000000000000000000000000000000000000000000000000000000008152600401620002a290620010a1565b60405180910390fd5b601e8460135481518110620002c557620002c462001011565b5b6020026020010151101562000311576040517f08c379a0000000000000000000000000000000000000000000000000000000008152600401620003089062001113565b60405180910390fd5b600080600090505b6013548111620003665785818151811062000339576200033862001011565b5b6020026020010151826200034e919062001164565b915080806200035d90620011c1565b91505062000319565b5060648114620003ad576040517f08c379a0000000000000000000000000000000000000000000000000000000008152600401620003a4906200125f565b60405180910390fd5b60005b6013548110156200043b5762278d0060188281548110620003d657620003d562001011565b5b9060005260206000200154101562000425576040517f08c379a00000000000000000000000000000000000000000000000000000000081526004016200041c90620012f7565b60405180910390fd5b80806200043290620011c1565b915050620003b0565b508760048151811062000453576200045262001011565b5b60200260200101516012819055508760058151811062000478576200047762001011565b5b6020026020010151600e81905550876006815181106200049d576200049c62001011565b5b6020026020010151601a8190555087600781518110620004c257620004c162001011565b5b6020026020010151601081905550600c5460118190555060105460115411620004ea57600080fd5b6000601b60006101000a81548160ff02191690831515021790555042600d8190555060016013546200051d919062001164565b67ffffffffffffffff81111562000539576200053862000995565b5b604051908082528060200260200182016040528015620005685781602001602082028036833780820191505090505b50601690805190602001906200058092919062000794565b5084601690805190602001906200059992919062000794565b5060135467ffffffffffffffff811115620005b957620005b862000995565b5b604051908082528060200260200182016040528015620005e85781602001602082028036833780820191505090505b50601790805190602001906200060092919062000794565b5083601790805190602001906200061992919062000794565b5060135467ffffffffffffffff81111562000639576200063862000995565b5b604051908082528060200260200182016040528015620006685781602001602082028036833780820191505090505b50601890805190602001906200068092919062000794565b5082601890805190602001906200069992919062000794565b5060135467ffffffffffffffff811115620006b957620006b862000995565b5b604051908082528060200260200182016040528015620006ee57816020015b6060815260200190600190039081620006d85790505b506019908051906020019062000706929190620007e6565b5081601990805190602001906200071f929190620007e6565b506001600f60006101000a81548160ff0219169083151502179055504260158190555085600290805190602001906200075a9291906200084d565b508660039080519060200190620007739291906200084d565b50600c54601f819055506000601c819055505050505050505050506200137e565b828054828255906000526020600020908101928215620007d3579160200282015b82811115620007d2578251825591602001919060010190620007b5565b5b509050620007e29190620008de565b5090565b8280548282559060005260206000209081019282156200083a579160200282015b8281111562000839578251829080519060200190620008289291906200084d565b509160200191906001019062000807565b5b509050620008499190620008fd565b5090565b8280546200085b9062001348565b90600052602060002090601f0160209004810192826200087f5760008555620008cb565b82601f106200089a57805160ff1916838001178555620008cb565b82800160010185558215620008cb579182015b82811115620008ca578251825591602001919060010190620008ad565b5b509050620008da9190620008de565b5090565b5b80821115620008f9576000816000905550600101620008df565b5090565b5b8082111562000921576000818162000917919062000925565b50600101620008fe565b5090565b508054620009339062001348565b6000825580601f1062000947575062000968565b601f016020900490600052602060002090810190620009679190620008de565b5b50565b6000604051905090565b600080fd5b600080fd5b600080fd5b6000601f19601f8301169050919050565b7f4e487b7100000000000000000000000000000000000000000000000000000000600052604160045260246000fd5b620009cf8262000984565b810181811067ffffffffffffffff82111715620009f157620009f062000995565b5b80604052505050565b600062000a066200096b565b905062000a148282620009c4565b919050565b600067ffffffffffffffff82111562000a375762000a3662000995565b5b602082029050602081019050919050565b600080fd5b600073ffffffffffffffffffffffffffffffffffffffff82169050919050565b600062000a7a8262000a4d565b9050919050565b62000a8c8162000a6d565b811462000a9857600080fd5b50565b60008151905062000aac8162000a81565b92915050565b600062000ac962000ac38462000a19565b620009fa565b9050808382526020820190506020840283018581111562000aef5762000aee62000a48565b5b835b8181101562000b1c578062000b07888262000a9b565b84526020840193505060208101905062000af1565b5050509392505050565b600082601f83011262000b3e5762000b3d6200097f565b5b815162000b5084826020860162000ab2565b91505092915050565b600067ffffffffffffffff82111562000b775762000b7662000995565b5b602082029050602081019050919050565b6000819050919050565b62000b9d8162000b88565b811462000ba957600080fd5b50565b60008151905062000bbd8162000b92565b92915050565b600062000bda62000bd48462000b59565b620009fa565b9050808382526020820190506020840283018581111562000c005762000bff62000a48565b5b835b8181101562000c2d578062000c18888262000bac565b84526020840193505060208101905062000c02565b5050509392505050565b600082601f83011262000c4f5762000c4e6200097f565b5b815162000c6184826020860162000bc3565b91505092915050565b600080fd5b600067ffffffffffffffff82111562000c8d5762000c8c62000995565b5b62000c988262000984565b9050602081019050919050565b60005b8381101562000cc557808201518184015260208101905062000ca8565b8381111562000cd5576000848401525b50505050565b600062000cf262000cec8462000c6f565b620009fa565b90508281526020810184848401111562000d115762000d1062000c6a565b5b62000d1e84828562000ca5565b509392505050565b600082601f83011262000d3e5762000d3d6200097f565b5b815162000d5084826020860162000cdb565b91505092915050565b600067ffffffffffffffff82111562000d775762000d7662000995565b5b602082029050602081019050919050565b600062000d9f62000d998462000d59565b620009fa565b9050808382526020820190506020840283018581111562000dc55762000dc462000a48565b5b835b8181101562000e1357805167ffffffffffffffff81111562000dee5762000ded6200097f565b5b80860162000dfd898262000d26565b8552602085019450505060208101905062000dc7565b5050509392505050565b600082601f83011262000e355762000e346200097f565b5b815162000e4784826020860162000d88565b91505092915050565b600080600080600080600080610100898b03121562000e745762000e7362000975565b5b600089015167ffffffffffffffff81111562000e955762000e946200097a565b5b62000ea38b828c0162000b26565b985050602089015167ffffffffffffffff81111562000ec75762000ec66200097a565b5b62000ed58b828c0162000c37565b975050604089015167ffffffffffffffff81111562000ef95762000ef86200097a565b5b62000f078b828c0162000d26565b965050606089015167ffffffffffffffff81111562000f2b5762000f2a6200097a565b5b62000f398b828c0162000d26565b955050608089015167ffffffffffffffff81111562000f5d5762000f5c6200097a565b5b62000f6b8b828c0162000c37565b94505060a089015167ffffffffffffffff81111562000f8f5762000f8e6200097a565b5b62000f9d8b828c0162000c37565b93505060c089015167ffffffffffffffff81111562000fc15762000fc06200097a565b5b62000fcf8b828c0162000c37565b92505060e089015167ffffffffffffffff81111562000ff35762000ff26200097a565b5b620010018b828c0162000e1d565b9150509295985092959890939650565b7f4e487b7100000000000000000000000000000000000000000000000000000000600052603260045260246000fd5b600082825260208201905092915050565b7f746f6f206d75636820666f722074686520666972737420737461676500000000600082015250565b600062001089601c8362001040565b9150620010968262001051565b602082019050919050565b60006020820190508181036000830152620010bc816200107a565b9050919050565b7f746f6f206c6974746c6520666f7220746865206c617374207374616765000000600082015250565b6000620010fb601d8362001040565b91506200110882620010c3565b602082019050919050565b600060208201905081810360008301526200112e81620010ec565b9050919050565b7f4e487b7100000000000000000000000000000000000000000000000000000000600052601160045260246000fd5b6000620011718262000b88565b91506200117e8362000b88565b9250827fffffffffffffffffffffffffffffffffffffffffffffffffffffffffffffffff03821115620011b657620011b562001135565b5b828201905092915050565b6000620011ce8262000b88565b91507fffffffffffffffffffffffffffffffffffffffffffffffffffffffffffffffff82141562001204576200120362001135565b5b600182019050919050565b7f57726f6e67206275646765742070657263656e742076616c7565730000000000600082015250565b600062001247601b8362001040565b915062001254826200120f565b602082019050919050565b600060208201905081810360008301526200127a8162001238565b9050919050565b7f65616368207374616765206475726174696f6e2073686f756c6420626520617460008201527f206c656173742031206d6f6e7468000000000000000000000000000000000000602082015250565b6000620012df602e8362001040565b9150620012ec8262001281565b604082019050919050565b600060208201905081810360008301526200131281620012d0565b9050919050565b7f4e487b7100000000000000000000000000000000000000000000000000000000600052602260045260246000fd5b600060028204905060018216806200136157607f821691505b6020821081141562001378576200137762001319565b5b50919050565b61340a806200138e6000396000f3fe608060405234801561001057600080fd5b50600436106102535760003560e01c80638c639a8511610146578063a98f472a116100c3578063d0febe4c11610087578063d0febe4c146106ea578063dd606391146106f4578063dd62ed3e14610712578063e4df37b414610742578063f9718fc81461074c578063fb86a4041461075657610253565b8063a98f472a14610632578063ab84047a14610650578063ac6f2a5e14610680578063c0b81ffa146106b0578063d0516650146106ba57610253565b806396d8ff471161010a57806396d8ff471461058a578063982aae46146105a85780639ced0e9b146105c6578063a8a15ec7146105e4578063a9059cbb1461060257610253565b80638c639a85146104e2578063906a26e014610500578063946bb4f61461051e578063954a7bc71461053c57806395d89b411461056c57610253565b80633d956691116101d45780635ed9ebfc116101985780635ed9ebfc1461043c57806369a37fd11461045a57806369dd8d841461048a57806370a08231146104a85780637417882c146104d857610253565b80633d956691146103a657806343506e9a146103c45780634440b81a146103e257806357e4288a146104005780635bf5d54c1461041e57610253565b806323b872dd1161021b57806323b872dd146103005780632d43b27414610330578063313ce5671461033a57806333bc2f9d14610358578063378dc3dc1461038857610253565b806306fdde0314610258578063095ea7b31461027657806318160ddd146102a65780631c75f085146102c45780631d0806ae146102e2575b600080fd5b610260610774565b60405161026d91906126b4565b60405180910390f35b610290600480360381019061028b919061276f565b610802565b60405161029d91906127ca565b60405180910390f35b6102ae6108f4565b6040516102bb91906127f4565b60405180910390f35b6102cc6108fe565b6040516102d9919061281e565b60405180910390f35b6102ea610924565b6040516102f791906127f4565b60405180910390f35b61031a60048036038101906103159190612839565b61092a565b60405161032791906127ca565b60405180910390f35b610338610c8c565b005b610342610ef8565b60405161034f91906127f4565b60405180910390f35b610372600480360381019061036d919061288c565b610efd565b60405161037f91906127f4565b60405180910390f35b610390610f21565b60405161039d91906127f4565b60405180910390f35b6103ae610f27565b6040516103bb91906127f4565b60405180910390f35b6103cc610f2d565b6040516103d991906127f4565b60405180910390f35b6103ea610f33565b6040516103f791906127ca565b60405180910390f35b610408610f46565b60405161041591906127f4565b60405180910390f35b610426610f4c565b60405161043391906127f4565b60405180910390f35b610444610f52565b60405161045191906127f4565b60405180910390f35b610474600480360381019061046f919061288c565b610f58565b60405161048191906126b4565b60405180910390f35b610492611004565b60405161049f91906127f4565b60405180910390f35b6104c260048036038101906104bd91906128b9565b61100a565b6040516104cf91906127f4565b60405180910390f35b6104e0611053565b005b6104ea611560565b6040516104f791906127f4565b60405180910390f35b610508611566565b60405161051591906127f4565b60405180910390f35b61052661156c565b604051610533919061281e565b60405180910390f35b6105566004803603810190610551919061288c565b611592565b60405161056391906127f4565b60405180910390f35b6105746115b6565b60405161058191906126b4565b60405180910390f35b610592611644565b60405161059f91906127f4565b60405180910390f35b6105b061164a565b6040516105bd919061281e565b60405180910390f35b6105ce611670565b6040516105db91906127f4565b60405180910390f35b6105ec611676565b6040516105f991906127ca565b60405180910390f35b61061c6004803603810190610617919061276f565b611689565b60405161062991906127ca565b60405180910390f35b61063a6118cf565b60405161064791906127f4565b60405180910390f35b61066a6004803603810190610665919061288c565b6118d5565b60405161067791906127f4565b60405180910390f35b61069a600480360381019061069591906128e6565b6118f9565b6040516106a791906127f4565b60405180910390f35b6106b8611a0d565b005b6106d460048036038101906106cf91906128b9565b611b66565b6040516106e191906127f4565b60405180910390f35b6106f2611b7e565b005b6106fc611f2d565b60405161070991906127f4565b60405180910390f35b61072c60048036038101906107279190612926565b611f33565b60405161073991906127f4565b60405180910390f35b61074a611fba565b005b610754612270565b005b61075e612615565b60405161076b91906127f4565b60405180910390f35b6002805461078190612995565b80601f01602080910402602001604051908101604052809291908181526020018280546107ad90612995565b80156107fa5780601f106107cf576101008083540402835291602001916107fa565b820191906000526020600020905b8154815290600101906020018083116107dd57829003601f168201915b505050505081565b600081600660003373ffffffffffffffffffffffffffffffffffffffff1673ffffffffffffffffffffffffffffffffffffffff16815260200190815260200160002060008573ffffffffffffffffffffffffffffffffffffffff1673ffffffffffffffffffffffffffffffffffffffff168152602001908152602001600020819055508273ffffffffffffffffffffffffffffffffffffffff163373ffffffffffffffffffffffffffffffffffffffff167f8c5be1e5ebec7d5bd14f71427d1e84f3dd0314c0f7b2291e5b200ac8c7c3b925846040516108e291906127f4565b60405180910390a36001905092915050565b6000600c54905090565b600a60009054906101000a900473ffffffffffffffffffffffffffffffffffffffff1681565b600b5481565b6000600760008573ffffffffffffffffffffffffffffffffffffffff1673ffffffffffffffffffffffffffffffffffffffff16815260200190815260200160002054600460008673ffffffffffffffffffffffffffffffffffffffff1673ffffffffffffffffffffffffffffffffffffffff168152602001908152602001600020546109b691906129f6565b82106109f7576040517f08c379a00000000000000000000000000000000000000000000000000000000081526004016109ee90612a9c565b60405180910390fd5b81600460008673ffffffffffffffffffffffffffffffffffffffff1673ffffffffffffffffffffffffffffffffffffffff1681526020019081526020016000205410158015610ac2575081600660008673ffffffffffffffffffffffffffffffffffffffff1673ffffffffffffffffffffffffffffffffffffffff16815260200190815260200160002060003373ffffffffffffffffffffffffffffffffffffffff1673ffffffffffffffffffffffffffffffffffffffff1681526020019081526020016000205410155b8015610ace5750600082115b15610c805781600460008573ffffffffffffffffffffffffffffffffffffffff1673ffffffffffffffffffffffffffffffffffffffff1681526020019081526020016000206000828254610b229190612abc565b9250508190555081600460008673ffffffffffffffffffffffffffffffffffffffff1673ffffffffffffffffffffffffffffffffffffffff1681526020019081526020016000206000828254610b7891906129f6565b9250508190555081600660008673ffffffffffffffffffffffffffffffffffffffff1673ffffffffffffffffffffffffffffffffffffffff16815260200190815260200160002060003373ffffffffffffffffffffffffffffffffffffffff1673ffffffffffffffffffffffffffffffffffffffff1681526020019081526020016000206000828254610c0b91906129f6565b925050819055508273ffffffffffffffffffffffffffffffffffffffff168473ffffffffffffffffffffffffffffffffffffffff167fddf252ad1be2c89b69c2b068fc378daa952ba7f163c4a11628f55a4df523b3ef84604051610c6f91906127f4565b60405180910390a360019050610c85565b600090505b9392505050565b600a60009054906101000a900473ffffffffffffffffffffffffffffffffffffffff1673ffffffffffffffffffffffffffffffffffffffff163373ffffffffffffffffffffffffffffffffffffffff1614610d1c576040517f08c379a0000000000000000000000000000000000000000000000000000000008152600401610d1390612b5e565b60405180910390fd5b601154601c5410610d43576000600f60006101000a81548160ff0219169083151502179055505b601154601c541015610da157600e54600d54610d5f9190612abc565b4211610da0576040517f08c379a0000000000000000000000000000000000000000000000000000000008152600401610d9790612bca565b60405180910390fd5b5b601054601c5410610dc8576000600f60006101000a81548160ff0219169083151502179055505b601054601c541015610df4576000600f60006101000a81548160ff021916908315150217905550610ef6565b601c54600c8190555060006012546064610e0e91906129f6565b601c54601254610e1e9190612bea565b610e289190612c73565b905080600460003073ffffffffffffffffffffffffffffffffffffffff1673ffffffffffffffffffffffffffffffffffffffff1681526020019081526020016000208190555080600c6000828254610e809190612abc565b925050819055503073ffffffffffffffffffffffffffffffffffffffff163073ffffffffffffffffffffffffffffffffffffffff167fddf252ad1be2c89b69c2b068fc378daa952ba7f163c4a11628f55a4df523b3ef83604051610ee491906127f4565b60405180910390a36000601f81905550505b565b601281565b60178181548110610f0d57600080fd5b906000526020600020016000915090505481565b600c5481565b601f5481565b60125481565b600f60009054906101000a900460ff1681565b601a5481565b60145481565b601c5481565b60198181548110610f6857600080fd5b906000526020600020016000915090508054610f8390612995565b80601f0160208091040260200160405190810160405280929190818152602001828054610faf90612995565b8015610ffc5780601f10610fd157610100808354040283529160200191610ffc565b820191906000526020600020905b815481529060010190602001808311610fdf57829003601f168201915b505050505081565b600e5481565b6000600460008373ffffffffffffffffffffffffffffffffffffffff1673ffffffffffffffffffffffffffffffffffffffff168152602001908152602001600020549050919050565b60135460145414611099576040517f08c379a000000000000000000000000000000000000000000000000000000000815260040161109090612cf0565b60405180910390fd5b6000601d546064600b54601c546110b09190612bea565b6110ba9190612c73565b6110c49190612bea565b9050600160009054906101000a900473ffffffffffffffffffffffffffffffffffffffff1673ffffffffffffffffffffffffffffffffffffffff1663a9059cbb600960009054906101000a900473ffffffffffffffffffffffffffffffffffffffff16836040518363ffffffff1660e01b8152600401611145929190612d10565b6020604051808303816000875af1158015611164573d6000803e3d6000fd5b505050506040513d601f19601f820116820180604052508101906111889190612d65565b5060008054906101000a900473ffffffffffffffffffffffffffffffffffffffff1673ffffffffffffffffffffffffffffffffffffffff16636de9944d600160009054906101000a900473ffffffffffffffffffffffffffffffffffffffff16836040518363ffffffff1660e01b8152600401611206929190612d10565b6020604051808303816000875af1158015611225573d6000803e3d6000fd5b505050506040513d601f19601f820116820180604052508101906112499190612d65565b506000600160009054906101000a900473ffffffffffffffffffffffffffffffffffffffff1673ffffffffffffffffffffffffffffffffffffffff166370a08231306040518263ffffffff1660e01b81526004016112a7919061281e565b602060405180830381865afa1580156112c4573d6000803e3d6000fd5b505050506040513d601f19601f820116820180604052508101906112e89190612da7565b9050600160009054906101000a900473ffffffffffffffffffffffffffffffffffffffff1673ffffffffffffffffffffffffffffffffffffffff1663a9059cbb600a60009054906101000a900473ffffffffffffffffffffffffffffffffffffffff16836040518363ffffffff1660e01b8152600401611369929190612d10565b6020604051808303816000875af1158015611388573d6000803e3d6000fd5b505050506040513d601f19601f820116820180604052508101906113ac9190612d65565b507f33e9239cca000a415d43b2ca42ccdb22b42875175208f455b307479ac7e14fee601454826040516113e0929190612dd4565b60405180910390a160006064601d54600c546113fc9190612bea565b6114069190612c73565b9050611434600960009054906101000a900473ffffffffffffffffffffffffffffffffffffffff1682611689565b5060008054906101000a900473ffffffffffffffffffffffffffffffffffffffff1673ffffffffffffffffffffffffffffffffffffffff16636de9944d30836040518363ffffffff1660e01b8152600401611490929190612d10565b6020604051808303816000875af11580156114af573d6000803e3d6000fd5b505050506040513d601f19601f820116820180604052508101906114d39190612d65565b5061153f600a60009054906101000a900473ffffffffffffffffffffffffffffffffffffffff16600460003073ffffffffffffffffffffffffffffffffffffffff1673ffffffffffffffffffffffffffffffffffffffff16815260200190815260200160002054611689565b506001601b60006101000a81548160ff021916908315150217905550505050565b601d5481565b60105481565b600960009054906101000a900473ffffffffffffffffffffffffffffffffffffffff1681565b601881815481106115a257600080fd5b906000526020600020016000915090505481565b600380546115c390612995565b80601f01602080910402602001604051908101604052809291908181526020018280546115ef90612995565b801561163c5780601f106116115761010080835404028352916020019161163c565b820191906000526020600020905b81548152906001019060200180831161161f57829003601f168201915b505050505081565b60155481565b600860009054906101000a900473ffffffffffffffffffffffffffffffffffffffff1681565b600d5481565b601b60009054906101000a900460ff1681565b6000600760003373ffffffffffffffffffffffffffffffffffffffff1673ffffffffffffffffffffffffffffffffffffffff16815260200190815260200160002054600460003373ffffffffffffffffffffffffffffffffffffffff1673ffffffffffffffffffffffffffffffffffffffff1681526020019081526020016000205461171591906129f6565b8210611756576040517f08c379a000000000000000000000000000000000000000000000000000000000815260040161174d90612a9c565b60405180910390fd5b81600460003373ffffffffffffffffffffffffffffffffffffffff1673ffffffffffffffffffffffffffffffffffffffff16815260200190815260200160002054101580156117a55750600082115b156118c45781600460003373ffffffffffffffffffffffffffffffffffffffff1673ffffffffffffffffffffffffffffffffffffffff16815260200190815260200160002060008282546117f991906129f6565b9250508190555081600460008573ffffffffffffffffffffffffffffffffffffffff1673ffffffffffffffffffffffffffffffffffffffff168152602001908152602001600020600082825461184f9190612abc565b925050819055508273ffffffffffffffffffffffffffffffffffffffff163373ffffffffffffffffffffffffffffffffffffffff167fddf252ad1be2c89b69c2b068fc378daa952ba7f163c4a11628f55a4df523b3ef846040516118b391906127f4565b60405180910390a3600190506118c9565b600090505b92915050565b60135481565b601681815481106118e557600080fd5b906000526020600020016000915090505481565b6000618e9460008054906101000a900473ffffffffffffffffffffffffffffffffffffffff1673ffffffffffffffffffffffffffffffffffffffff1663ff516c496040518163ffffffff1660e01b8152600401602060405180830381865afa158015611969573d6000803e3d6000fd5b505050506040513d601f19601f8201168201806040525081019061198d9190612da7565b62015180600560008673ffffffffffffffffffffffffffffffffffffffff1673ffffffffffffffffffffffffffffffffffffffff16815260200190815260200160002054426119dc91906129f6565b866119e79190612bea565b6119f19190612c73565b6119fb9190612bea565b611a059190612c73565b905092915050565b600a60009054906101000a900473ffffffffffffffffffffffffffffffffffffffff1673ffffffffffffffffffffffffffffffffffffffff163373ffffffffffffffffffffffffffffffffffffffff1614611a9d576040517f08c379a0000000000000000000000000000000000000000000000000000000008152600401611a9490612b5e565b60405180910390fd5b601860145481548110611ab357611ab2612dfd565b5b9060005260206000200154601554611acb9190612abc565b4211611b0c576040517f08c379a0000000000000000000000000000000000000000000000000000000008152600401611b0390612e78565b60405180910390fd5b7fc8fc80d017d600c3fb8f3186856beb77bbdcd5281dd1121001c3a9d4fc58b2c0601454604051611b3d91906127f4565b60405180910390a160146000815480929190611b5890612e98565b919050555042601581905550565b60076020528060005260406000206000915090505481565b6000601f5411611bc3576040517f08c379a0000000000000000000000000000000000000000000000000000000008152600401611bba90612f2d565b60405180910390fd5b6000600160009054906101000a900473ffffffffffffffffffffffffffffffffffffffff1673ffffffffffffffffffffffffffffffffffffffff1663dd62ed3e33306040518363ffffffff1660e01b8152600401611c22929190612f4d565b602060405180830381865afa158015611c3f573d6000803e3d6000fd5b505050506040513d601f19601f82011682018060405250810190611c639190612da7565b9050600b548111611ca9576040517f08c379a0000000000000000000000000000000000000000000000000000000008152600401611ca090612fe8565b60405180910390fd5b600160009054906101000a900473ffffffffffffffffffffffffffffffffffffffff1673ffffffffffffffffffffffffffffffffffffffff166323b872dd3330846040518463ffffffff1660e01b8152600401611d0893929190613008565b6020604051808303816000875af1158015611d27573d6000803e3d6000fd5b505050506040513d601f19601f82011682018060405250810190611d4b9190612d65565b611d8a576040517f08c379a0000000000000000000000000000000000000000000000000000000008152600401611d81906130b1565b60405180910390fd5b60006064601760145481548110611da457611da3612dfd565b5b90600052602060002001546064611dbb9190612abc565b600b54611dc89190612bea565b611dd29190612c73565b905060008183611de29190612c73565b9050600460003073ffffffffffffffffffffffffffffffffffffffff1673ffffffffffffffffffffffffffffffffffffffff16815260200190815260200160002054811115611e6e57600460003073ffffffffffffffffffffffffffffffffffffffff1673ffffffffffffffffffffffffffffffffffffffff1681526020019081526020016000205490505b611e783382611689565b5042600560003373ffffffffffffffffffffffffffffffffffffffff1673ffffffffffffffffffffffffffffffffffffffff1681526020019081526020016000208190555080601c6000828254611ecf9190612abc565b9250508190555080601f6000828254611ee891906129f6565b925050819055507fdff110bae24a8bd9f8765f2c28d27e26f4d8f059f164ecf06a007923230541bf8183604051611f20929190612dd4565b60405180910390a1505050565b601e5481565b6000600660008473ffffffffffffffffffffffffffffffffffffffff1673ffffffffffffffffffffffffffffffffffffffff16815260200190815260200160002060008373ffffffffffffffffffffffffffffffffffffffff1673ffffffffffffffffffffffffffffffffffffffff16815260200190815260200160002054905092915050565b600a60009054906101000a900473ffffffffffffffffffffffffffffffffffffffff1673ffffffffffffffffffffffffffffffffffffffff163373ffffffffffffffffffffffffffffffffffffffff161461204a576040517f08c379a000000000000000000000000000000000000000000000000000000000815260040161204190612b5e565b60405180910390fd5b601b60009054906101000a900460ff161561209a576040517f08c379a000000000000000000000000000000000000000000000000000000000815260040161209190613143565b60405180910390fd5b601a546015546120aa9190612abc565b42116120eb576040517f08c379a00000000000000000000000000000000000000000000000000000000081526004016120e2906131af565b60405180910390fd5b60006064600b54601c5460166014548154811061210b5761210a612dfd565b5b90600052602060002001546121209190612bea565b61212a9190612bea565b6121349190612c73565b9050600160009054906101000a900473ffffffffffffffffffffffffffffffffffffffff1673ffffffffffffffffffffffffffffffffffffffff1663a9059cbb600a60009054906101000a900473ffffffffffffffffffffffffffffffffffffffff16836040518363ffffffff1660e01b81526004016121b5929190612d10565b6020604051808303816000875af11580156121d4573d6000803e3d6000fd5b505050506040513d601f19601f820116820180604052508101906121f89190612d65565b507f33e9239cca000a415d43b2ca42ccdb22b42875175208f455b307479ac7e14fee6014548260405161222c929190612dd4565b60405180910390a160166014548154811061224a57612249612dfd565b5b9060005260206000200154601e60008282546122669190612abc565b9250508190555050565b601b60009054906101000a900460ff16156122c0576040517f08c379a00000000000000000000000000000000000000000000000000000000081526004016122b790613267565b60405180910390fd5b6000600660003373ffffffffffffffffffffffffffffffffffffffff1673ffffffffffffffffffffffffffffffffffffffff16815260200190815260200160002060003073ffffffffffffffffffffffffffffffffffffffff1673ffffffffffffffffffffffffffffffffffffffff16815260200190815260200160002054905060006064601e54836123539190612bea565b61235d9190612c73565b90506000818361236d91906129f6565b905060008111156126105761238333308361092a565b6123c2576040517f08c379a00000000000000000000000000000000000000000000000000000000081526004016123b9906132f9565b60405180910390fd5b7f1234ad5b903fc05a48a512705e358d3007a45bd48bce7566041a2c0afd347423816040516123f191906127f4565b60405180910390a16000600b54826124099190612bea565b9050600061241782336118f9565b905060008054906101000a900473ffffffffffffffffffffffffffffffffffffffff1673ffffffffffffffffffffffffffffffffffffffff16632c35087982336040518363ffffffff1660e01b8152600401612474929190613319565b600060405180830381600087803b15801561248e57600080fd5b505af11580156124a2573d6000803e3d6000fd5b50505050600160009054906101000a900473ffffffffffffffffffffffffffffffffffffffff1673ffffffffffffffffffffffffffffffffffffffff1663a9059cbb33846040518363ffffffff1660e01b8152600401612503929190612d10565b6020604051808303816000875af1158015612522573d6000803e3d6000fd5b505050506040513d601f19601f820116820180604052508101906125469190612d65565b612585576040517f08c379a000000000000000000000000000000000000000000000000000000000815260040161257c906133b4565b60405180910390fd5b82601f60008282546125979190612abc565b9250508190555082601c60008282546125b091906129f6565b9250508190555083600760003373ffffffffffffffffffffffffffffffffffffffff1673ffffffffffffffffffffffffffffffffffffffff16815260200190815260200160002060008282546126069190612abc565b9250508190555050505b505050565b60115481565b600081519050919050565b600082825260208201905092915050565b60005b8381101561265557808201518184015260208101905061263a565b83811115612664576000848401525b50505050565b6000601f19601f8301169050919050565b60006126868261261b565b6126908185612626565b93506126a0818560208601612637565b6126a98161266a565b840191505092915050565b600060208201905081810360008301526126ce818461267b565b905092915050565b600080fd5b600073ffffffffffffffffffffffffffffffffffffffff82169050919050565b6000612706826126db565b9050919050565b612716816126fb565b811461272157600080fd5b50565b6000813590506127338161270d565b92915050565b6000819050919050565b61274c81612739565b811461275757600080fd5b50565b60008135905061276981612743565b92915050565b60008060408385031215612786576127856126d6565b5b600061279485828601612724565b92505060206127a58582860161275a565b9150509250929050565b60008115159050919050565b6127c4816127af565b82525050565b60006020820190506127df60008301846127bb565b92915050565b6127ee81612739565b82525050565b600060208201905061280960008301846127e5565b92915050565b612818816126fb565b82525050565b6000602082019050612833600083018461280f565b92915050565b600080600060608486031215612852576128516126d6565b5b600061286086828701612724565b935050602061287186828701612724565b92505060406128828682870161275a565b9150509250925092565b6000602082840312156128a2576128a16126d6565b5b60006128b08482850161275a565b91505092915050565b6000602082840312156128cf576128ce6126d6565b5b60006128dd84828501612724565b91505092915050565b600080604083850312156128fd576128fc6126d6565b5b600061290b8582860161275a565b925050602061291c85828601612724565b9150509250929050565b6000806040838503121561293d5761293c6126d6565b5b600061294b85828601612724565b925050602061295c85828601612724565b9150509250929050565b7f4e487b7100000000000000000000000000000000000000000000000000000000600052602260045260246000fd5b600060028204905060018216806129ad57607f821691505b602082108114156129c1576129c0612966565b5b50919050565b7f4e487b7100000000000000000000000000000000000000000000000000000000600052601160045260246000fd5b6000612a0182612739565b9150612a0c83612739565b925082821015612a1f57612a1e6129c7565b5b828203905092915050565b7f596f752063616e206e6f74207472616e736665722066726f7a656e20746f6b6560008201527f6e732e0000000000000000000000000000000000000000000000000000000000602082015250565b6000612a86602383612626565b9150612a9182612a2a565b604082019050919050565b60006020820190508181036000830152612ab581612a79565b9050919050565b6000612ac782612739565b9150612ad283612739565b9250827fffffffffffffffffffffffffffffffffffffffffffffffffffffffffffffffff03821115612b0757612b066129c7565b5b828201905092915050565b7f546869732066756e6374696f6e20697320666f72207465616d206f6e6c790000600082015250565b6000612b48601e83612626565b9150612b5382612b12565b602082019050919050565b60006020820190508181036000830152612b7781612b3b565b9050919050565b7f746f6f206561726c7920746f2066696e616c697a652063726f776473616c6500600082015250565b6000612bb4601f83612626565b9150612bbf82612b7e565b602082019050919050565b60006020820190508181036000830152612be381612ba7565b9050919050565b6000612bf582612739565b9150612c0083612739565b9250817fffffffffffffffffffffffffffffffffffffffffffffffffffffffffffffffff0483118215151615612c3957612c386129c7565b5b828202905092915050565b7f4e487b7100000000000000000000000000000000000000000000000000000000600052601260045260246000fd5b6000612c7e82612739565b9150612c8983612739565b925082612c9957612c98612c44565b5b828204905092915050565b7f416c6c207374616765732073686f756c64206265207061737365640000000000600082015250565b6000612cda601b83612626565b9150612ce582612ca4565b602082019050919050565b60006020820190508181036000830152612d0981612ccd565b9050919050565b6000604082019050612d25600083018561280f565b612d3260208301846127e5565b9392505050565b612d42816127af565b8114612d4d57600080fd5b50565b600081519050612d5f81612d39565b92915050565b600060208284031215612d7b57612d7a6126d6565b5b6000612d8984828501612d50565b91505092915050565b600081519050612da181612743565b92915050565b600060208284031215612dbd57612dbc6126d6565b5b6000612dcb84828501612d92565b91505092915050565b6000604082019050612de960008301856127e5565b612df660208301846127e5565b9392505050565b7f4e487b7100000000000000000000000000000000000000000000000000000000600052603260045260246000fd5b7f746f6f206561726c7920746f207375626d697420746865207374616765000000600082015250565b6000612e62601d83612626565b9150612e6d82612e2c565b602082019050919050565b60006020820190508181036000830152612e9181612e55565b9050919050565b6000612ea382612739565b91507fffffffffffffffffffffffffffffffffffffffffffffffffffffffffffffffff821415612ed657612ed56129c7565b5b600182019050919050565b7f6e6f7468696e6720746f2073656c6c2c20736f72727900000000000000000000600082015250565b6000612f17601683612626565b9150612f2282612ee1565b602082019050919050565b60006020820190508181036000830152612f4681612f0a565b9050919050565b6000604082019050612f62600083018561280f565b612f6f602083018461280f565b9392505050565b7f596f752073686f756c6420616c6c6f7720656e6f75676820737461626c65436f60008201527f696e732066697273740000000000000000000000000000000000000000000000602082015250565b6000612fd2602983612626565b9150612fdd82612f76565b604082019050919050565b6000602082019050818103600083015261300181612fc5565b9050919050565b600060608201905061301d600083018661280f565b61302a602083018561280f565b61303760408301846127e5565b949350505050565b7f436f756c64206e6f74207472616e7366657220666f7220736f6d65207265617360008201527f6f6e000000000000000000000000000000000000000000000000000000000000602082015250565b600061309b602283612626565b91506130a68261303f565b604082019050919050565b600060208201905081810360008301526130ca8161308e565b9050919050565b7f50726f6a65637420697320616c72656164792066696e69736865642c206e6f7460008201527f68696e6720746f20706173730000000000000000000000000000000000000000602082015250565b600061312d602c83612626565b9150613138826130d1565b604082019050919050565b6000602082019050818103600083015261315c81613120565b9050919050565b7f486f6c6420706572696f64206973206e6f742066696e69736865642079657400600082015250565b6000613199601f83612626565b91506131a482613163565b602082019050919050565b600060208201905081810360008301526131c88161318c565b9050919050565b7f50726f6a65637420697320616c72656164792066696e69736865642c20616c6c60008201527f20737461676573207061737365642c206e6f7468696e6720746f20726574757260208201527f6e00000000000000000000000000000000000000000000000000000000000000604082015250565b6000613251604183612626565b915061325c826131cf565b606082019050919050565b6000602082019050818103600083015261328081613244565b9050919050565b7f436f756c64206e6f74207472616e7366657220746f6b656e7320666f7220736f60008201527f6d6520726561736f6e0000000000000000000000000000000000000000000000602082015250565b60006132e3602983612626565b91506132ee82613287565b604082019050919050565b60006020820190508181036000830152613312816132d6565b9050919050565b600060408201905061332e60008301856127e5565b61333b602083018461280f565b9392505050565b7f436f756c64206e6f74207472616e7366657220636f696e7320666f7220736f6d60008201527f6520726561736f6e000000000000000000000000000000000000000000000000602082015250565b600061339e602883612626565b91506133a982613342565b604082019050919050565b600060208201905081810360008301526133cd81613391565b905091905056fea264697066735822122091c8c9910fafe7cd0f5917156775443d7b105141d09644164e82af16dfe1e2c764736f6c634300080a0033",
  "immutableReferences": {},
  "source": "// SPDX-License-Identifier: UNLICENSED\r\nimport \"./Platform.sol\";\r\nimport \"./stableCoin.sol\";\r\n\r\npragma solidity >=0.4.22 <0.9.0;\r\n\r\ncontract tokenTemplate is ERC20{\r\n    Platform platform;\r\n    ERC20 coin;\r\n    uint256 public constant decimals = 18;\r\n    string public name;\r\n    string public symbol;\r\n\r\n    mapping (address => uint256) balances;\r\n    mapping (address => uint256) timeBought;\r\n    mapping (address => mapping (address => uint256)) allowed;\r\n    mapping (address => uint256) public frozen;\r\n\r\n    address public stableCoinAddress;\r\n    address public platformContractAddress;\r\n    address public teamAddress;\r\n    uint256 public initialPrice;\r\n    uint256 public initialSupply;\r\n    uint256 public initialTime;\r\n    uint256 public crowdSaleDuration;\r\n    bool public crowdSaleIsActive;\r\n    uint256 public softCap;\r\n    uint256 public hardCap;\r\n    uint256 public percentOfTokensToTeam;\r\n    uint256 public numberOfMileStones;\r\n    uint256 public currentStage;\r\n    uint256 public previousStageSubmitted;\r\n    uint256[] public budgetPercent;\r\n    uint256[] public extraChargePercent;\r\n    uint256[] public stagesDuration;\r\n    string [] public stagesShortDescription;\r\n    uint256 public holdDuration;\r\n    bool public projectFinished;\r\n    uint256 public soldTokens;\r\n    uint256 public platformFeePercent;\r\n    uint256 public totalBudgetSpent;\r\n    uint256 public tokensToSell;\r\n\r\n    event stageSubmitted(uint256 stageNumber);\r\n    event tokensSold(uint256 amount, uint256 price);\r\n    event tokensReturned(uint256 amount);\r\n    event fundsPassed(uint256 stage, uint256 amount);\r\n\r\n    modifier onlyTeam{\r\n        require(msg.sender == teamAddress, \"This function is for team only\");\r\n        _;\r\n    }\r\n\r\n    constructor(address[] memory addresses,\r\n                uint256[] memory params,\r\n                string memory _symbol,\r\n                string memory _name,\r\n                uint256[] memory _budgetPercent,\r\n                uint256[] memory _extraChargePercent,\r\n                uint256[] memory _stagesDuration,\r\n                string[] memory _stagesShortDescription) {\r\n\r\n        teamAddress = addresses[0];\r\n        coin = ERC20(addresses[1]);\r\n        platform = Platform(payable(addresses[2]));\r\n        platformContractAddress = addresses[2];\r\n\r\n        initialPrice = params[0];\r\n        initialSupply = params[1];\r\n        platformFeePercent = params[2];\r\n        numberOfMileStones = params[3];\r\n\r\n        require(_budgetPercent[0]<=10, \"too much for the first stage\");\r\n        require(_budgetPercent[numberOfMileStones]>=30, \"too little for the last stage\");\r\n\r\n        uint256 overallBudget;\r\n        for (uint256 i = 0; i<=numberOfMileStones; i++){\r\n            overallBudget += _budgetPercent[i];\r\n        }\r\n        require(overallBudget == 100, \"Wrong budget percent values\");\r\n\r\n        for (uint256 i = 0; i<numberOfMileStones; i++){\r\n            require (stagesDuration[i]>=2592000, \"each stage duration should be at least 1 month\");\r\n        }\r\n\r\n        percentOfTokensToTeam = params[4];\r\n        crowdSaleDuration = params[5];\r\n        holdDuration = params[6];\r\n        softCap = params[7];\r\n        hardCap = initialSupply;\r\n\r\n        require (hardCap>softCap);\r\n\r\n        projectFinished = false;\r\n        initialTime = block.timestamp;\r\n        budgetPercent = new uint256[](numberOfMileStones+1);\r\n        budgetPercent = _budgetPercent;\r\n        extraChargePercent = new uint256[](numberOfMileStones);\r\n        extraChargePercent = _extraChargePercent;\r\n        stagesDuration = new uint256[](numberOfMileStones);\r\n        stagesDuration = _stagesDuration;\r\n        stagesShortDescription = new string[](numberOfMileStones);\r\n        stagesShortDescription = _stagesShortDescription;\r\n        crowdSaleIsActive = true;\r\n        previousStageSubmitted = block.timestamp;\r\n        name = _name;\r\n        symbol = _symbol;\r\n        tokensToSell = initialSupply;\r\n        soldTokens = 0;\r\n    }\r\n\r\n    function submitStage() public onlyTeam{\r\n        require (block.timestamp > previousStageSubmitted+stagesDuration[currentStage], \"too early to submit the stage\");\r\n        emit stageSubmitted(currentStage);\r\n        currentStage++;\r\n        previousStageSubmitted = block.timestamp;\r\n    }\r\n\r\n    function finalizePublicOffer() public onlyTeam{\r\n        if (soldTokens >=hardCap)\r\n            crowdSaleIsActive = false;\r\n        if (soldTokens < hardCap)\r\n            require(block.timestamp> initialTime + crowdSaleDuration, \"too early to finalize crowdsale\");\r\n        if (soldTokens >=softCap) {\r\n            crowdSaleIsActive = false;\r\n        }\r\n        if (soldTokens<softCap){\r\n            crowdSaleIsActive = false;\r\n            return;\r\n        }\r\n        initialSupply = soldTokens;\r\n        uint256 tokensToTeam = percentOfTokensToTeam * soldTokens / (100 - percentOfTokensToTeam);\r\n        balances[address(this)] = tokensToTeam;\r\n        initialSupply += tokensToTeam;\r\n        emit Transfer(address(this), address(this), tokensToTeam);\r\n        tokensToSell = 0;\r\n    }\r\n\r\n    function passFundsToTeam() public onlyTeam{\r\n        require (!projectFinished, \"Project is already finished, nothing to pass\");\r\n        require (block.timestamp>previousStageSubmitted+holdDuration, \"Hold period is not finished yet\");\r\n        uint256 fundsToPass = budgetPercent[currentStage] * soldTokens * initialPrice / 100;\r\n        coin.transfer(teamAddress, fundsToPass);\r\n        emit fundsPassed(currentStage, fundsToPass);\r\n        totalBudgetSpent += budgetPercent[currentStage];\r\n    }\r\n\r\n    function finalizeProject() public{\r\n        require (currentStage==numberOfMileStones, \"All stages should be passed\");\r\n        uint256 fee = soldTokens * initialPrice / 100 * platformFeePercent;\r\n        coin.transfer(platformContractAddress, fee);\r\n        platform.addDividend(address(coin), fee);\r\n        uint256 coinsLeft = coin.balanceOf(address(this));\r\n        coin.transfer(teamAddress, coinsLeft);\r\n        emit fundsPassed(currentStage, coinsLeft);\r\n        uint256 tokensToPlatform =  initialSupply * platformFeePercent /100;\r\n        transfer(platformContractAddress, tokensToPlatform);\r\n        platform.addDividend(address(this), tokensToPlatform);\r\n        transfer(teamAddress, balances[address(this)]);\r\n        projectFinished = true;\r\n    }\r\n\r\n    function buyTokens() public{\r\n        require (tokensToSell > 0, \"nothing to sell, sorry\");\r\n        uint256 coinsAmount = coin.allowance(msg.sender, address(this));\r\n        require (coinsAmount > initialPrice, \"You should allow enough stableCoins first\");\r\n        require (coin.transferFrom(msg.sender, address(this), coinsAmount), \"Could not transfer for some reason\");\r\n        uint256 currentPrice = initialPrice * (100+extraChargePercent[currentStage])/100;\r\n        uint256 tokensAmount = coinsAmount/currentPrice;\r\n        if (tokensAmount>balances[address(this)])\r\n            tokensAmount = balances[address(this)];\r\n        transfer(msg.sender, tokensAmount);\r\n        timeBought[msg.sender] = block.timestamp;\r\n        soldTokens += tokensAmount;\r\n        tokensToSell -= tokensAmount;\r\n        emit tokensSold(tokensAmount, currentPrice);\r\n    }\r\n\r\n    function returnTokens() public{\r\n        require (!projectFinished, \"Project is already finished, all stages passed, nothing to return\");\r\n        uint256 tokensAmount = allowed[msg.sender][address(this)];\r\n        uint256 toFreeze = tokensAmount * totalBudgetSpent / 100;\r\n        uint256 toReturn = tokensAmount - toFreeze;\r\n        if (toReturn>0){\r\n            require(transferFrom(msg.sender, address(this), toReturn), \"Could not transfer tokens for some reason\");\r\n            emit tokensReturned(toReturn);\r\n            uint256 coinsAvailableForTokenHolder = toReturn * initialPrice;\r\n            uint256 interestAvailable = calculateInterestAvailable(coinsAvailableForTokenHolder, msg.sender);\r\n            platform.claimInterestForMintedTokenHolder(interestAvailable, msg.sender);\r\n            require(coin.transfer(msg.sender, coinsAvailableForTokenHolder), \"Could not transfer coins for some reason\");\r\n            tokensToSell += toReturn;\r\n            soldTokens -= toReturn;\r\n            frozen[msg.sender] += toFreeze;\r\n        }\r\n    }\r\n\r\n    function calculateInterestAvailable(uint256 coinsOnHold, address holderAddress) public view returns (uint256 amount){\r\n        return coinsOnHold*(block.timestamp - timeBought[holderAddress])/1 days*platform.getCurrentInterestRate()/36500;\r\n    }\r\n\r\n    function totalSupply() public view returns (uint256) {\r\n        return initialSupply;\r\n    }\r\n\r\n    function balanceOf(address owner) public view returns (uint256 balance) {\r\n        return balances[owner];\r\n    }\r\n\r\n    function allowance(address owner, address spender) public view returns (uint remaining) {\r\n        return allowed[owner][spender];\r\n    }\r\n\r\n    function transfer(address to, uint256 value) public returns (bool success) {\r\n        require(value<balances[msg.sender]-frozen[msg.sender], \"You can not transfer frozen tokens.\");\r\n        if (balances[msg.sender] >= value && value > 0) {\r\n            balances[msg.sender] -= value;\r\n            balances[to] += value;\r\n            emit Transfer(msg.sender, to, value);\r\n            return true;\r\n        } else {\r\n            return false;\r\n        }\r\n    }\r\n\r\n    function transferFrom(address from, address to, uint256 value) public returns (bool success) {\r\n        require(value<balances[from]-frozen[from], \"You can not transfer frozen tokens.\");\r\n        if (balances[from] >= value && allowed[from][msg.sender] >= value && value > 0) {\r\n            balances[to] += value;\r\n            balances[from] -= value;\r\n            allowed[from][msg.sender] -= value;\r\n            emit Transfer(from, to, value);\r\n            return true;\r\n        } else {\r\n            return false;\r\n        }\r\n    }\r\n\r\n    function approve(address spender, uint256 value) public returns (bool success) {\r\n        allowed[msg.sender][spender] = value;\r\n        emit Approval(msg.sender, spender, value);\r\n        return true;\r\n    }\r\n}\r\n\r\n",
  "sourcePath": "B:\\YandexDisk\\\\ICO\\CryptoFiat\\repo\\contracts\\tokenTemplate.sol",
  "compiler": {
    "name": "solc",
    "version": "0.8.10+commit.fc410830.Emscripten.clang"
  },
  "schemaVersion": "3.4.5",
  "updatedAt": "2023-03-12T03:39:17.225Z",
  "devdoc": {
    "kind": "dev",
    "methods": {},
    "version": 1
  },
  "userdoc": {
    "kind": "user",
    "methods": {},
    "version": 1
  }
}