{
  "contractName": "tokenTemplate",
  "abi": [
    {
      "inputs": [
        {
          "internalType": "address[]",
          "name": "addresses",
          "type": "address[]"
        },
        {
          "internalType": "uint256[]",
          "name": "params",
          "type": "uint256[]"
        },
        {
          "internalType": "string",
          "name": "_symbol",
          "type": "string"
        },
        {
          "internalType": "string",
          "name": "_name",
          "type": "string"
        },
        {
          "internalType": "uint256[]",
          "name": "_budgetPercent",
          "type": "uint256[]"
        },
        {
          "internalType": "uint256[]",
          "name": "_extraChargePercent",
          "type": "uint256[]"
        },
        {
          "internalType": "uint256[]",
          "name": "_stagesDuration",
          "type": "uint256[]"
        },
        {
          "internalType": "string[]",
          "name": "_stagesShortDescription",
          "type": "string[]"
        }
      ],
      "stateMutability": "nonpayable",
      "type": "constructor"
    },
    {
      "anonymous": false,
      "inputs": [
        {
          "indexed": true,
          "internalType": "address",
          "name": "owner",
          "type": "address"
        },
        {
          "indexed": true,
          "internalType": "address",
          "name": "spender",
          "type": "address"
        },
        {
          "indexed": false,
          "internalType": "uint256",
          "name": "value",
          "type": "uint256"
        }
      ],
      "name": "Approval",
      "type": "event"
    },
    {
      "anonymous": false,
      "inputs": [
        {
          "indexed": true,
          "internalType": "address",
          "name": "from",
          "type": "address"
        },
        {
          "indexed": true,
          "internalType": "address",
          "name": "to",
          "type": "address"
        },
        {
          "indexed": false,
          "internalType": "uint256",
          "name": "value",
          "type": "uint256"
        }
      ],
      "name": "Transfer",
      "type": "event"
    },
    {
      "anonymous": false,
      "inputs": [
        {
          "indexed": false,
          "internalType": "uint256",
          "name": "stage",
          "type": "uint256"
        },
        {
          "indexed": false,
          "internalType": "uint256",
          "name": "amount",
          "type": "uint256"
        }
      ],
      "name": "fundsPassed",
      "type": "event"
    },
    {
      "anonymous": false,
      "inputs": [
        {
          "indexed": false,
          "internalType": "uint256",
          "name": "stageNumber",
          "type": "uint256"
        }
      ],
      "name": "stageSubmitted",
      "type": "event"
    },
    {
      "anonymous": false,
      "inputs": [
        {
          "indexed": false,
          "internalType": "uint256",
          "name": "amount",
          "type": "uint256"
        }
      ],
      "name": "tokensReturned",
      "type": "event"
    },
    {
      "anonymous": false,
      "inputs": [
        {
          "indexed": false,
          "internalType": "uint256",
          "name": "amount",
          "type": "uint256"
        },
        {
          "indexed": false,
          "internalType": "uint256",
          "name": "price",
          "type": "uint256"
        }
      ],
      "name": "tokensSold",
      "type": "event"
    },
    {
      "inputs": [
        {
          "internalType": "uint256",
          "name": "",
          "type": "uint256"
        }
      ],
      "name": "budgetPercent",
      "outputs": [
        {
          "internalType": "uint256",
          "name": "",
          "type": "uint256"
        }
      ],
      "stateMutability": "view",
      "type": "function"
    },
    {
      "inputs": [],
      "name": "crowdSaleDuration",
      "outputs": [
        {
          "internalType": "uint256",
          "name": "",
          "type": "uint256"
        }
      ],
      "stateMutability": "view",
      "type": "function"
    },
    {
      "inputs": [],
      "name": "crowdSaleIsActive",
      "outputs": [
        {
          "internalType": "bool",
          "name": "",
          "type": "bool"
        }
      ],
      "stateMutability": "view",
      "type": "function"
    },
    {
      "inputs": [],
      "name": "currentStage",
      "outputs": [
        {
          "internalType": "uint256",
          "name": "",
          "type": "uint256"
        }
      ],
      "stateMutability": "view",
      "type": "function"
    },
    {
      "inputs": [],
      "name": "decimals",
      "outputs": [
        {
          "internalType": "uint256",
          "name": "",
          "type": "uint256"
        }
      ],
      "stateMutability": "view",
      "type": "function"
    },
    {
      "inputs": [
        {
          "internalType": "uint256",
          "name": "",
          "type": "uint256"
        }
      ],
      "name": "extraChargePercent",
      "outputs": [
        {
          "internalType": "uint256",
          "name": "",
          "type": "uint256"
        }
      ],
      "stateMutability": "view",
      "type": "function"
    },
    {
      "inputs": [
        {
          "internalType": "address",
          "name": "",
          "type": "address"
        }
      ],
      "name": "frozen",
      "outputs": [
        {
          "internalType": "uint256",
          "name": "",
          "type": "uint256"
        }
      ],
      "stateMutability": "view",
      "type": "function"
    },
    {
      "inputs": [],
      "name": "hardCap",
      "outputs": [
        {
          "internalType": "uint256",
          "name": "",
          "type": "uint256"
        }
      ],
      "stateMutability": "view",
      "type": "function"
    },
    {
      "inputs": [],
      "name": "holdDuration",
      "outputs": [
        {
          "internalType": "uint256",
          "name": "",
          "type": "uint256"
        }
      ],
      "stateMutability": "view",
      "type": "function"
    },
    {
      "inputs": [],
      "name": "initialPrice",
      "outputs": [
        {
          "internalType": "uint256",
          "name": "",
          "type": "uint256"
        }
      ],
      "stateMutability": "view",
      "type": "function"
    },
    {
      "inputs": [],
      "name": "initialSupply",
      "outputs": [
        {
          "internalType": "uint256",
          "name": "",
          "type": "uint256"
        }
      ],
      "stateMutability": "view",
      "type": "function"
    },
    {
      "inputs": [],
      "name": "initialTime",
      "outputs": [
        {
          "internalType": "uint256",
          "name": "",
          "type": "uint256"
        }
      ],
      "stateMutability": "view",
      "type": "function"
    },
    {
      "inputs": [],
      "name": "name",
      "outputs": [
        {
          "internalType": "string",
          "name": "",
          "type": "string"
        }
      ],
      "stateMutability": "view",
      "type": "function"
    },
    {
      "inputs": [],
      "name": "numberOfMileStones",
      "outputs": [
        {
          "internalType": "uint256",
          "name": "",
          "type": "uint256"
        }
      ],
      "stateMutability": "view",
      "type": "function"
    },
    {
      "inputs": [],
      "name": "percentOfTokensToTeam",
      "outputs": [
        {
          "internalType": "uint256",
          "name": "",
          "type": "uint256"
        }
      ],
      "stateMutability": "view",
      "type": "function"
    },
    {
      "inputs": [],
      "name": "platformContractAddress",
      "outputs": [
        {
          "internalType": "address",
          "name": "",
          "type": "address"
        }
      ],
      "stateMutability": "view",
      "type": "function"
    },
    {
      "inputs": [],
      "name": "platformFee",
      "outputs": [
        {
          "internalType": "uint256",
          "name": "",
          "type": "uint256"
        }
      ],
      "stateMutability": "view",
      "type": "function"
    },
    {
      "inputs": [],
      "name": "previousStageSubmitted",
      "outputs": [
        {
          "internalType": "uint256",
          "name": "",
          "type": "uint256"
        }
      ],
      "stateMutability": "view",
      "type": "function"
    },
    {
      "inputs": [],
      "name": "projectFinished",
      "outputs": [
        {
          "internalType": "bool",
          "name": "",
          "type": "bool"
        }
      ],
      "stateMutability": "view",
      "type": "function"
    },
    {
      "inputs": [],
      "name": "softCap",
      "outputs": [
        {
          "internalType": "uint256",
          "name": "",
          "type": "uint256"
        }
      ],
      "stateMutability": "view",
      "type": "function"
    },
    {
      "inputs": [],
      "name": "soldTokens",
      "outputs": [
        {
          "internalType": "uint256",
          "name": "",
          "type": "uint256"
        }
      ],
      "stateMutability": "view",
      "type": "function"
    },
    {
      "inputs": [],
      "name": "stableCoinAddress",
      "outputs": [
        {
          "internalType": "address",
          "name": "",
          "type": "address"
        }
      ],
      "stateMutability": "view",
      "type": "function"
    },
    {
      "inputs": [
        {
          "internalType": "uint256",
          "name": "",
          "type": "uint256"
        }
      ],
      "name": "stagesDuration",
      "outputs": [
        {
          "internalType": "uint256",
          "name": "",
          "type": "uint256"
        }
      ],
      "stateMutability": "view",
      "type": "function"
    },
    {
      "inputs": [
        {
          "internalType": "uint256",
          "name": "",
          "type": "uint256"
        }
      ],
      "name": "stagesShortDescription",
      "outputs": [
        {
          "internalType": "string",
          "name": "",
          "type": "string"
        }
      ],
      "stateMutability": "view",
      "type": "function"
    },
    {
      "inputs": [],
      "name": "symbol",
      "outputs": [
        {
          "internalType": "string",
          "name": "",
          "type": "string"
        }
      ],
      "stateMutability": "view",
      "type": "function"
    },
    {
      "inputs": [],
      "name": "teamAddress",
      "outputs": [
        {
          "internalType": "address",
          "name": "",
          "type": "address"
        }
      ],
      "stateMutability": "view",
      "type": "function"
    },
    {
      "inputs": [],
      "name": "tokensToSell",
      "outputs": [
        {
          "internalType": "uint256",
          "name": "",
          "type": "uint256"
        }
      ],
      "stateMutability": "view",
      "type": "function"
    },
    {
      "inputs": [],
      "name": "totalBudgetSpent",
      "outputs": [
        {
          "internalType": "uint256",
          "name": "",
          "type": "uint256"
        }
      ],
      "stateMutability": "view",
      "type": "function"
    },
    {
      "inputs": [],
      "name": "submitStage",
      "outputs": [],
      "stateMutability": "nonpayable",
      "type": "function"
    },
    {
      "inputs": [],
      "name": "finalizeICO",
      "outputs": [],
      "stateMutability": "nonpayable",
      "type": "function"
    },
    {
      "inputs": [],
      "name": "passFundsToTeam",
      "outputs": [],
      "stateMutability": "nonpayable",
      "type": "function"
    },
    {
      "inputs": [],
      "name": "finalizeProject",
      "outputs": [],
      "stateMutability": "nonpayable",
      "type": "function"
    },
    {
      "inputs": [],
      "name": "buyTokens",
      "outputs": [],
      "stateMutability": "nonpayable",
      "type": "function"
    },
    {
      "inputs": [],
      "name": "returnTokens",
      "outputs": [],
      "stateMutability": "nonpayable",
      "type": "function"
    },
    {
      "inputs": [
        {
          "internalType": "uint256",
          "name": "coinsOnHold",
          "type": "uint256"
        },
        {
          "internalType": "address",
          "name": "holderAddress",
          "type": "address"
        }
      ],
      "name": "calculateInterestAvailable",
      "outputs": [
        {
          "internalType": "uint256",
          "name": "amount",
          "type": "uint256"
        }
      ],
      "stateMutability": "view",
      "type": "function"
    },
    {
      "inputs": [],
      "name": "totalSupply",
      "outputs": [
        {
          "internalType": "uint256",
          "name": "",
          "type": "uint256"
        }
      ],
      "stateMutability": "view",
      "type": "function"
    },
    {
      "inputs": [
        {
          "internalType": "address",
          "name": "owner",
          "type": "address"
        }
      ],
      "name": "balanceOf",
      "outputs": [
        {
          "internalType": "uint256",
          "name": "balance",
          "type": "uint256"
        }
      ],
      "stateMutability": "view",
      "type": "function"
    },
    {
      "inputs": [
        {
          "internalType": "address",
          "name": "owner",
          "type": "address"
        },
        {
          "internalType": "address",
          "name": "spender",
          "type": "address"
        }
      ],
      "name": "allowance",
      "outputs": [
        {
          "internalType": "uint256",
          "name": "remaining",
          "type": "uint256"
        }
      ],
      "stateMutability": "view",
      "type": "function"
    },
    {
      "inputs": [
        {
          "internalType": "address",
          "name": "to",
          "type": "address"
        },
        {
          "internalType": "uint256",
          "name": "value",
          "type": "uint256"
        }
      ],
      "name": "transfer",
      "outputs": [
        {
          "internalType": "bool",
          "name": "success",
          "type": "bool"
        }
      ],
      "stateMutability": "nonpayable",
      "type": "function"
    },
    {
      "inputs": [
        {
          "internalType": "address",
          "name": "from",
          "type": "address"
        },
        {
          "internalType": "address",
          "name": "to",
          "type": "address"
        },
        {
          "internalType": "uint256",
          "name": "value",
          "type": "uint256"
        }
      ],
      "name": "transferFrom",
      "outputs": [
        {
          "internalType": "bool",
          "name": "success",
          "type": "bool"
        }
      ],
      "stateMutability": "nonpayable",
      "type": "function"
    },
    {
      "inputs": [
        {
          "internalType": "address",
          "name": "spender",
          "type": "address"
        },
        {
          "internalType": "uint256",
          "name": "value",
          "type": "uint256"
        }
      ],
      "name": "approve",
      "outputs": [
        {
          "internalType": "bool",
          "name": "success",
          "type": "bool"
        }
      ],
      "stateMutability": "nonpayable",
      "type": "function"
    }
  ],
  "bytecode": "0x608060405262093a80601a553480156200001857600080fd5b50604051620046443803806200464483398181016040528101906200003e919062000d45565b600a8460008151811062000057576200005662000f06565b5b60200260200101511115620000a3576040517f08c379a00000000000000000000000000000000000000000000000000000000081526004016200009a9062000f96565b60405180910390fd5b601e84600081518110620000bc57620000bb62000f06565b5b6020026020010151111562000108576040517f08c379a0000000000000000000000000000000000000000000000000000000008152600401620000ff9062001008565b60405180910390fd5b876000815181106200011f576200011e62000f06565b5b6020026020010151600a60006101000a81548173ffffffffffffffffffffffffffffffffffffffff021916908373ffffffffffffffffffffffffffffffffffffffff160217905550876001815181106200017e576200017d62000f06565b5b6020026020010151600160006101000a81548173ffffffffffffffffffffffffffffffffffffffff021916908373ffffffffffffffffffffffffffffffffffffffff16021790555087600281518110620001dd57620001dc62000f06565b5b60200260200101516000806101000a81548173ffffffffffffffffffffffffffffffffffffffff021916908373ffffffffffffffffffffffffffffffffffffffff160217905550876002815181106200023b576200023a62000f06565b5b6020026020010151600960006101000a81548173ffffffffffffffffffffffffffffffffffffffff021916908373ffffffffffffffffffffffffffffffffffffffff160217905550866000815181106200029a576200029962000f06565b5b6020026020010151600b8190555086600181518110620002bf57620002be62000f06565b5b6020026020010151600c8190555086600281518110620002e457620002e362000f06565b5b6020026020010151601d819055508660038151811062000309576200030862000f06565b5b6020026020010151601381905550600080600090505b6013548110156200036d5785818151811062000340576200033f62000f06565b5b60200260200101518262000355919062001059565b915080806200036490620010b6565b9150506200031f565b5060648114620003b4576040517f08c379a0000000000000000000000000000000000000000000000000000000008152600401620003ab9062001154565b60405180910390fd5b87600481518110620003cb57620003ca62000f06565b5b602002602001015160128190555087600581518110620003f057620003ef62000f06565b5b6020026020010151600e819055506000601b60006101000a81548160ff02191690831515021790555042600d8190555060135467ffffffffffffffff8111156200043f576200043e6200088a565b5b6040519080825280602002602001820160405280156200046e5781602001602082028036833780820191505090505b50601690805190602001906200048692919062000689565b5084601690805190602001906200049f92919062000689565b5060135467ffffffffffffffff811115620004bf57620004be6200088a565b5b604051908082528060200260200182016040528015620004ee5781602001602082028036833780820191505090505b50601790805190602001906200050692919062000689565b5083601790805190602001906200051f92919062000689565b5060135467ffffffffffffffff8111156200053f576200053e6200088a565b5b6040519080825280602002602001820160405280156200056e5781602001602082028036833780820191505090505b50601890805190602001906200058692919062000689565b5082601890805190602001906200059f92919062000689565b5060135467ffffffffffffffff811115620005bf57620005be6200088a565b5b604051908082528060200260200182016040528015620005f457816020015b6060815260200190600190039081620005de5790505b50601990805190602001906200060c929190620006db565b50816019908051906020019062000625929190620006db565b506001600f60006101000a81548160ff0219169083151502179055504260158190555085600290805190602001906200066092919062000742565b5086600390805190602001906200067992919062000742565b50505050505050505050620011db565b828054828255906000526020600020908101928215620006c8579160200282015b82811115620006c7578251825591602001919060010190620006aa565b5b509050620006d79190620007d3565b5090565b8280548282559060005260206000209081019282156200072f579160200282015b828111156200072e5782518290805190602001906200071d92919062000742565b5091602001919060010190620006fc565b5b5090506200073e9190620007f2565b5090565b8280546200075090620011a5565b90600052602060002090601f016020900481019282620007745760008555620007c0565b82601f106200078f57805160ff1916838001178555620007c0565b82800160010185558215620007c0579182015b82811115620007bf578251825591602001919060010190620007a2565b5b509050620007cf9190620007d3565b5090565b5b80821115620007ee576000816000905550600101620007d4565b5090565b5b808211156200081657600081816200080c91906200081a565b50600101620007f3565b5090565b5080546200082890620011a5565b6000825580601f106200083c57506200085d565b601f0160209004906000526020600020908101906200085c9190620007d3565b5b50565b6000604051905090565b600080fd5b600080fd5b600080fd5b6000601f19601f8301169050919050565b7f4e487b7100000000000000000000000000000000000000000000000000000000600052604160045260246000fd5b620008c48262000879565b810181811067ffffffffffffffff82111715620008e657620008e56200088a565b5b80604052505050565b6000620008fb62000860565b9050620009098282620008b9565b919050565b600067ffffffffffffffff8211156200092c576200092b6200088a565b5b602082029050602081019050919050565b600080fd5b600073ffffffffffffffffffffffffffffffffffffffff82169050919050565b60006200096f8262000942565b9050919050565b620009818162000962565b81146200098d57600080fd5b50565b600081519050620009a18162000976565b92915050565b6000620009be620009b8846200090e565b620008ef565b90508083825260208201905060208402830185811115620009e457620009e36200093d565b5b835b8181101562000a115780620009fc888262000990565b845260208401935050602081019050620009e6565b5050509392505050565b600082601f83011262000a335762000a3262000874565b5b815162000a45848260208601620009a7565b91505092915050565b600067ffffffffffffffff82111562000a6c5762000a6b6200088a565b5b602082029050602081019050919050565b6000819050919050565b62000a928162000a7d565b811462000a9e57600080fd5b50565b60008151905062000ab28162000a87565b92915050565b600062000acf62000ac98462000a4e565b620008ef565b9050808382526020820190506020840283018581111562000af55762000af46200093d565b5b835b8181101562000b22578062000b0d888262000aa1565b84526020840193505060208101905062000af7565b5050509392505050565b600082601f83011262000b445762000b4362000874565b5b815162000b5684826020860162000ab8565b91505092915050565b600080fd5b600067ffffffffffffffff82111562000b825762000b816200088a565b5b62000b8d8262000879565b9050602081019050919050565b60005b8381101562000bba57808201518184015260208101905062000b9d565b8381111562000bca576000848401525b50505050565b600062000be762000be18462000b64565b620008ef565b90508281526020810184848401111562000c065762000c0562000b5f565b5b62000c1384828562000b9a565b509392505050565b600082601f83011262000c335762000c3262000874565b5b815162000c4584826020860162000bd0565b91505092915050565b600067ffffffffffffffff82111562000c6c5762000c6b6200088a565b5b602082029050602081019050919050565b600062000c9462000c8e8462000c4e565b620008ef565b9050808382526020820190506020840283018581111562000cba5762000cb96200093d565b5b835b8181101562000d0857805167ffffffffffffffff81111562000ce35762000ce262000874565b5b80860162000cf2898262000c1b565b8552602085019450505060208101905062000cbc565b5050509392505050565b600082601f83011262000d2a5762000d2962000874565b5b815162000d3c84826020860162000c7d565b91505092915050565b600080600080600080600080610100898b03121562000d695762000d686200086a565b5b600089015167ffffffffffffffff81111562000d8a5762000d896200086f565b5b62000d988b828c0162000a1b565b985050602089015167ffffffffffffffff81111562000dbc5762000dbb6200086f565b5b62000dca8b828c0162000b2c565b975050604089015167ffffffffffffffff81111562000dee5762000ded6200086f565b5b62000dfc8b828c0162000c1b565b965050606089015167ffffffffffffffff81111562000e205762000e1f6200086f565b5b62000e2e8b828c0162000c1b565b955050608089015167ffffffffffffffff81111562000e525762000e516200086f565b5b62000e608b828c0162000b2c565b94505060a089015167ffffffffffffffff81111562000e845762000e836200086f565b5b62000e928b828c0162000b2c565b93505060c089015167ffffffffffffffff81111562000eb65762000eb56200086f565b5b62000ec48b828c0162000b2c565b92505060e089015167ffffffffffffffff81111562000ee85762000ee76200086f565b5b62000ef68b828c0162000d12565b9150509295985092959890939650565b7f4e487b7100000000000000000000000000000000000000000000000000000000600052603260045260246000fd5b600082825260208201905092915050565b7f746f6f206d75636820666f722074686520666972737420737461676500000000600082015250565b600062000f7e601c8362000f35565b915062000f8b8262000f46565b602082019050919050565b6000602082019050818103600083015262000fb18162000f6f565b9050919050565b7f746f6f206c6974746c6520666f72207468652066697273742073746167650000600082015250565b600062000ff0601e8362000f35565b915062000ffd8262000fb8565b602082019050919050565b60006020820190508181036000830152620010238162000fe1565b9050919050565b7f4e487b7100000000000000000000000000000000000000000000000000000000600052601160045260246000fd5b6000620010668262000a7d565b9150620010738362000a7d565b9250827fffffffffffffffffffffffffffffffffffffffffffffffffffffffffffffffff03821115620010ab57620010aa6200102a565b5b828201905092915050565b6000620010c38262000a7d565b91507fffffffffffffffffffffffffffffffffffffffffffffffffffffffffffffffff821415620010f957620010f86200102a565b5b600182019050919050565b7f57726f6e67206275646765742070657263656e742076616c7565730000000000600082015250565b60006200113c601b8362000f35565b9150620011498262001104565b602082019050919050565b600060208201905081810360008301526200116f816200112d565b9050919050565b7f4e487b7100000000000000000000000000000000000000000000000000000000600052602260045260246000fd5b60006002820490506001821680620011be57607f821691505b60208210811415620011d557620011d462001176565b5b50919050565b61345980620011eb6000396000f3fe608060405234801561001057600080fd5b50600436106102535760003560e01c80637417882c11610146578063a98f472a116100c3578063d0febe4c11610087578063d0febe4c146106ea578063dd606391146106f4578063dd62ed3e14610712578063e4df37b414610742578063f9718fc81461074c578063fb86a4041461075657610253565b8063a98f472a14610632578063ab84047a14610650578063ac6f2a5e14610680578063c0b81ffa146106b0578063d0516650146106ba57610253565b806396d8ff471161010a57806396d8ff471461058a578063982aae46146105a85780639ced0e9b146105c6578063a8a15ec7146105e4578063a9059cbb1461060257610253565b80637417882c146104f6578063906a26e014610500578063946bb4f61461051e578063954a7bc71461053c57806395d89b411461056c57610253565b8063378dc3dc116101d45780635bf5d54c116101985780635bf5d54c1461043c5780635ed9ebfc1461045a57806369a37fd11461047857806369dd8d84146104a857806370a08231146104c657610253565b8063378dc3dc146103a65780633d956691146103c457806343506e9a146103e25780634440b81a1461040057806357e4288a1461041e57610253565b806323b872dd1161021b57806323b872dd1461030057806323cc75a81461033057806326232a2e1461033a578063313ce5671461035857806333bc2f9d1461037657610253565b806306fdde0314610258578063095ea7b31461027657806318160ddd146102a65780631c75f085146102c45780631d0806ae146102e2575b600080fd5b610260610774565b60405161026d91906125df565b60405180910390f35b610290600480360381019061028b919061269a565b610802565b60405161029d91906126f5565b60405180910390f35b6102ae6108f4565b6040516102bb919061271f565b60405180910390f35b6102cc6108fe565b6040516102d99190612749565b60405180910390f35b6102ea610924565b6040516102f7919061271f565b60405180910390f35b61031a60048036038101906103159190612764565b61092a565b60405161032791906126f5565b60405180910390f35b610338610c8c565b005b610342610e3c565b60405161034f919061271f565b60405180910390f35b610360610e42565b60405161036d919061271f565b60405180910390f35b610390600480360381019061038b91906127b7565b610e47565b60405161039d919061271f565b60405180910390f35b6103ae610e6b565b6040516103bb919061271f565b60405180910390f35b6103cc610e71565b6040516103d9919061271f565b60405180910390f35b6103ea610e77565b6040516103f7919061271f565b60405180910390f35b610408610e7d565b60405161041591906126f5565b60405180910390f35b610426610e90565b604051610433919061271f565b60405180910390f35b610444610e96565b604051610451919061271f565b60405180910390f35b610462610e9c565b60405161046f919061271f565b60405180910390f35b610492600480360381019061048d91906127b7565b610ea2565b60405161049f91906125df565b60405180910390f35b6104b0610f4e565b6040516104bd919061271f565b60405180910390f35b6104e060048036038101906104db91906127e4565b610f54565b6040516104ed919061271f565b60405180910390f35b6104fe610f9d565b005b6105086114bf565b604051610515919061271f565b60405180910390f35b6105266114c5565b6040516105339190612749565b60405180910390f35b610556600480360381019061055191906127b7565b6114eb565b604051610563919061271f565b60405180910390f35b61057461150f565b60405161058191906125df565b60405180910390f35b61059261159d565b60405161059f919061271f565b60405180910390f35b6105b06115a3565b6040516105bd9190612749565b60405180910390f35b6105ce6115c9565b6040516105db919061271f565b60405180910390f35b6105ec6115cf565b6040516105f991906126f5565b60405180910390f35b61061c6004803603810190610617919061269a565b6115e2565b60405161062991906126f5565b60405180910390f35b61063a611828565b604051610647919061271f565b60405180910390f35b61066a600480360381019061066591906127b7565b61182e565b604051610677919061271f565b60405180910390f35b61069a60048036038101906106959190612811565b611852565b6040516106a7919061271f565b60405180910390f35b6106b8611966565b005b6106d460048036038101906106cf91906127e4565b611abf565b6040516106e1919061271f565b60405180910390f35b6106f2611ad7565b005b6106fc611e58565b604051610709919061271f565b60405180910390f35b61072c60048036038101906107279190612851565b611e5e565b604051610739919061271f565b60405180910390f35b61074a611ee5565b005b61075461219b565b005b61075e612540565b60405161076b919061271f565b60405180910390f35b60028054610781906128c0565b80601f01602080910402602001604051908101604052809291908181526020018280546107ad906128c0565b80156107fa5780601f106107cf576101008083540402835291602001916107fa565b820191906000526020600020905b8154815290600101906020018083116107dd57829003601f168201915b505050505081565b600081600660003373ffffffffffffffffffffffffffffffffffffffff1673ffffffffffffffffffffffffffffffffffffffff16815260200190815260200160002060008573ffffffffffffffffffffffffffffffffffffffff1673ffffffffffffffffffffffffffffffffffffffff168152602001908152602001600020819055508273ffffffffffffffffffffffffffffffffffffffff163373ffffffffffffffffffffffffffffffffffffffff167f8c5be1e5ebec7d5bd14f71427d1e84f3dd0314c0f7b2291e5b200ac8c7c3b925846040516108e2919061271f565b60405180910390a36001905092915050565b6000600c54905090565b600a60009054906101000a900473ffffffffffffffffffffffffffffffffffffffff1681565b600b5481565b6000600760008573ffffffffffffffffffffffffffffffffffffffff1673ffffffffffffffffffffffffffffffffffffffff16815260200190815260200160002054600460008673ffffffffffffffffffffffffffffffffffffffff1673ffffffffffffffffffffffffffffffffffffffff168152602001908152602001600020546109b69190612921565b82106109f7576040517f08c379a00000000000000000000000000000000000000000000000000000000081526004016109ee906129c7565b60405180910390fd5b81600460008673ffffffffffffffffffffffffffffffffffffffff1673ffffffffffffffffffffffffffffffffffffffff1681526020019081526020016000205410158015610ac2575081600660008673ffffffffffffffffffffffffffffffffffffffff1673ffffffffffffffffffffffffffffffffffffffff16815260200190815260200160002060003373ffffffffffffffffffffffffffffffffffffffff1673ffffffffffffffffffffffffffffffffffffffff1681526020019081526020016000205410155b8015610ace5750600082115b15610c805781600460008573ffffffffffffffffffffffffffffffffffffffff1673ffffffffffffffffffffffffffffffffffffffff1681526020019081526020016000206000828254610b2291906129e7565b9250508190555081600460008673ffffffffffffffffffffffffffffffffffffffff1673ffffffffffffffffffffffffffffffffffffffff1681526020019081526020016000206000828254610b789190612921565b9250508190555081600660008673ffffffffffffffffffffffffffffffffffffffff1673ffffffffffffffffffffffffffffffffffffffff16815260200190815260200160002060003373ffffffffffffffffffffffffffffffffffffffff1673ffffffffffffffffffffffffffffffffffffffff1681526020019081526020016000206000828254610c0b9190612921565b925050819055508273ffffffffffffffffffffffffffffffffffffffff168473ffffffffffffffffffffffffffffffffffffffff167fddf252ad1be2c89b69c2b068fc378daa952ba7f163c4a11628f55a4df523b3ef84604051610c6f919061271f565b60405180910390a360019050610c85565b600090505b9392505050565b601154601c5410610cb3576000600f60006101000a81548160ff0219169083151502179055505b601154601c541015610d1157600e54600d54610ccf91906129e7565b4211610d10576040517f08c379a0000000000000000000000000000000000000000000000000000000008152600401610d0790612a89565b60405180910390fd5b5b601054601c5410610d38576000600f60006101000a81548160ff0219169083151502179055505b60006064601c54601d54601254610d4f91906129e7565b610d599190612aa9565b610d639190612b32565b905080600460003073ffffffffffffffffffffffffffffffffffffffff1673ffffffffffffffffffffffffffffffffffffffff1681526020019081526020016000206000828254610db491906129e7565b9250508190555080600c6000828254610dcd91906129e7565b925050819055503073ffffffffffffffffffffffffffffffffffffffff163073ffffffffffffffffffffffffffffffffffffffff167fddf252ad1be2c89b69c2b068fc378daa952ba7f163c4a11628f55a4df523b3ef83604051610e31919061271f565b60405180910390a350565b601d5481565b601281565b60178181548110610e5757600080fd5b906000526020600020016000915090505481565b600c5481565b601f5481565b60125481565b600f60009054906101000a900460ff1681565b601a5481565b60145481565b601c5481565b60198181548110610eb257600080fd5b906000526020600020016000915090508054610ecd906128c0565b80601f0160208091040260200160405190810160405280929190818152602001828054610ef9906128c0565b8015610f465780601f10610f1b57610100808354040283529160200191610f46565b820191906000526020600020905b815481529060010190602001808311610f2957829003601f168201915b505050505081565b600e5481565b6000600460008373ffffffffffffffffffffffffffffffffffffffff1673ffffffffffffffffffffffffffffffffffffffff168152602001908152602001600020549050919050565b60135460145414610fe3576040517f08c379a0000000000000000000000000000000000000000000000000000000008152600401610fda90612baf565b60405180910390fd5b6000601d546064600b54601c54610ffa9190612aa9565b6110049190612b32565b61100e9190612aa9565b9050600160009054906101000a900473ffffffffffffffffffffffffffffffffffffffff1673ffffffffffffffffffffffffffffffffffffffff1663a9059cbb600960009054906101000a900473ffffffffffffffffffffffffffffffffffffffff16836040518363ffffffff1660e01b815260040161108f929190612bcf565b6020604051808303816000875af11580156110ae573d6000803e3d6000fd5b505050506040513d601f19601f820116820180604052508101906110d29190612c24565b5060008054906101000a900473ffffffffffffffffffffffffffffffffffffffff1673ffffffffffffffffffffffffffffffffffffffff16636de9944d600160009054906101000a900473ffffffffffffffffffffffffffffffffffffffff16836040518363ffffffff1660e01b8152600401611150929190612bcf565b6020604051808303816000875af115801561116f573d6000803e3d6000fd5b505050506040513d601f19601f820116820180604052508101906111939190612c24565b506000600160009054906101000a900473ffffffffffffffffffffffffffffffffffffffff1673ffffffffffffffffffffffffffffffffffffffff166370a08231306040518263ffffffff1660e01b81526004016111f19190612749565b602060405180830381865afa15801561120e573d6000803e3d6000fd5b505050506040513d601f19601f820116820180604052508101906112329190612c66565b9050600160009054906101000a900473ffffffffffffffffffffffffffffffffffffffff1673ffffffffffffffffffffffffffffffffffffffff1663a9059cbb600a60009054906101000a900473ffffffffffffffffffffffffffffffffffffffff16836040518363ffffffff1660e01b81526004016112b3929190612bcf565b6020604051808303816000875af11580156112d2573d6000803e3d6000fd5b505050506040513d601f19601f820116820180604052508101906112f69190612c24565b507f33e9239cca000a415d43b2ca42ccdb22b42875175208f455b307479ac7e14fee6014548260405161132a929190612c93565b60405180910390a1611379600960009054906101000a900473ffffffffffffffffffffffffffffffffffffffff166064601d54600c5461136a9190612aa9565b6113749190612b32565b6115e2565b5060008054906101000a900473ffffffffffffffffffffffffffffffffffffffff1673ffffffffffffffffffffffffffffffffffffffff16636de9944d306064601d54600c546113c99190612aa9565b6113d39190612b32565b6040518363ffffffff1660e01b81526004016113f0929190612bcf565b6020604051808303816000875af115801561140f573d6000803e3d6000fd5b505050506040513d601f19601f820116820180604052508101906114339190612c24565b5061149f600a60009054906101000a900473ffffffffffffffffffffffffffffffffffffffff16600460003073ffffffffffffffffffffffffffffffffffffffff1673ffffffffffffffffffffffffffffffffffffffff168152602001908152602001600020546115e2565b506001601b60006101000a81548160ff0219169083151502179055505050565b60105481565b600960009054906101000a900473ffffffffffffffffffffffffffffffffffffffff1681565b601881815481106114fb57600080fd5b906000526020600020016000915090505481565b6003805461151c906128c0565b80601f0160208091040260200160405190810160405280929190818152602001828054611548906128c0565b80156115955780601f1061156a57610100808354040283529160200191611595565b820191906000526020600020905b81548152906001019060200180831161157857829003601f168201915b505050505081565b60155481565b600860009054906101000a900473ffffffffffffffffffffffffffffffffffffffff1681565b600d5481565b601b60009054906101000a900460ff1681565b6000600760003373ffffffffffffffffffffffffffffffffffffffff1673ffffffffffffffffffffffffffffffffffffffff16815260200190815260200160002054600460003373ffffffffffffffffffffffffffffffffffffffff1673ffffffffffffffffffffffffffffffffffffffff1681526020019081526020016000205461166e9190612921565b82106116af576040517f08c379a00000000000000000000000000000000000000000000000000000000081526004016116a6906129c7565b60405180910390fd5b81600460003373ffffffffffffffffffffffffffffffffffffffff1673ffffffffffffffffffffffffffffffffffffffff16815260200190815260200160002054101580156116fe5750600082115b1561181d5781600460003373ffffffffffffffffffffffffffffffffffffffff1673ffffffffffffffffffffffffffffffffffffffff16815260200190815260200160002060008282546117529190612921565b9250508190555081600460008573ffffffffffffffffffffffffffffffffffffffff1673ffffffffffffffffffffffffffffffffffffffff16815260200190815260200160002060008282546117a891906129e7565b925050819055508273ffffffffffffffffffffffffffffffffffffffff163373ffffffffffffffffffffffffffffffffffffffff167fddf252ad1be2c89b69c2b068fc378daa952ba7f163c4a11628f55a4df523b3ef8460405161180c919061271f565b60405180910390a360019050611822565b600090505b92915050565b60135481565b6016818154811061183e57600080fd5b906000526020600020016000915090505481565b6000618e9460008054906101000a900473ffffffffffffffffffffffffffffffffffffffff1673ffffffffffffffffffffffffffffffffffffffff1663ff516c496040518163ffffffff1660e01b8152600401602060405180830381865afa1580156118c2573d6000803e3d6000fd5b505050506040513d601f19601f820116820180604052508101906118e69190612c66565b62015180600560008673ffffffffffffffffffffffffffffffffffffffff1673ffffffffffffffffffffffffffffffffffffffff16815260200190815260200160002054426119359190612921565b866119409190612aa9565b61194a9190612b32565b6119549190612aa9565b61195e9190612b32565b905092915050565b600a60009054906101000a900473ffffffffffffffffffffffffffffffffffffffff1673ffffffffffffffffffffffffffffffffffffffff163373ffffffffffffffffffffffffffffffffffffffff16146119f6576040517f08c379a00000000000000000000000000000000000000000000000000000000081526004016119ed90612d08565b60405180910390fd5b601860145481548110611a0c57611a0b612d28565b5b9060005260206000200154601554611a2491906129e7565b4211611a65576040517f08c379a0000000000000000000000000000000000000000000000000000000008152600401611a5c90612da3565b60405180910390fd5b7fc8fc80d017d600c3fb8f3186856beb77bbdcd5281dd1121001c3a9d4fc58b2c0601454604051611a96919061271f565b60405180910390a160146000815480929190611ab190612dc3565b919050555042601581905550565b60076020528060005260406000206000915090505481565b600f60009054906101000a900460ff1680611af457506000601f54145b611b33576040517f08c379a0000000000000000000000000000000000000000000000000000000008152600401611b2a90612e7e565b60405180910390fd5b6000600160009054906101000a900473ffffffffffffffffffffffffffffffffffffffff1673ffffffffffffffffffffffffffffffffffffffff1663dd62ed3e33306040518363ffffffff1660e01b8152600401611b92929190612e9e565b602060405180830381865afa158015611baf573d6000803e3d6000fd5b505050506040513d601f19601f82011682018060405250810190611bd39190612c66565b9050600b548111611c19576040517f08c379a0000000000000000000000000000000000000000000000000000000008152600401611c1090612f39565b60405180910390fd5b600160009054906101000a900473ffffffffffffffffffffffffffffffffffffffff1673ffffffffffffffffffffffffffffffffffffffff166323b872dd3330846040518463ffffffff1660e01b8152600401611c7893929190612f59565b6020604051808303816000875af1158015611c97573d6000803e3d6000fd5b505050506040513d601f19601f82011682018060405250810190611cbb9190612c24565b611cfa576040517f08c379a0000000000000000000000000000000000000000000000000000000008152600401611cf190613002565b60405180910390fd5b60006064601760145481548110611d1457611d13612d28565b5b90600052602060002001546064611d2b91906129e7565b600b54611d389190612aa9565b611d429190612b32565b905060008183611d529190612b32565b9050601f54811115611d99576040517f08c379a0000000000000000000000000000000000000000000000000000000008152600401611d9090613094565b60405180910390fd5b611da333826115e2565b5042600560003373ffffffffffffffffffffffffffffffffffffffff1673ffffffffffffffffffffffffffffffffffffffff1681526020019081526020016000208190555080601c6000828254611dfa91906129e7565b9250508190555080601f6000828254611e139190612921565b925050819055507fdff110bae24a8bd9f8765f2c28d27e26f4d8f059f164ecf06a007923230541bf8183604051611e4b929190612c93565b60405180910390a1505050565b601e5481565b6000600660008473ffffffffffffffffffffffffffffffffffffffff1673ffffffffffffffffffffffffffffffffffffffff16815260200190815260200160002060008373ffffffffffffffffffffffffffffffffffffffff1673ffffffffffffffffffffffffffffffffffffffff16815260200190815260200160002054905092915050565b600a60009054906101000a900473ffffffffffffffffffffffffffffffffffffffff1673ffffffffffffffffffffffffffffffffffffffff163373ffffffffffffffffffffffffffffffffffffffff1614611f75576040517f08c379a0000000000000000000000000000000000000000000000000000000008152600401611f6c90613100565b60405180910390fd5b601b60009054906101000a900460ff1615611fc5576040517f08c379a0000000000000000000000000000000000000000000000000000000008152600401611fbc90613192565b60405180910390fd5b601a54601554611fd591906129e7565b4211612016576040517f08c379a000000000000000000000000000000000000000000000000000000000815260040161200d906131fe565b60405180910390fd5b60006064600b54601c5460166014548154811061203657612035612d28565b5b906000526020600020015461204b9190612aa9565b6120559190612aa9565b61205f9190612b32565b9050600160009054906101000a900473ffffffffffffffffffffffffffffffffffffffff1673ffffffffffffffffffffffffffffffffffffffff1663a9059cbb600a60009054906101000a900473ffffffffffffffffffffffffffffffffffffffff16836040518363ffffffff1660e01b81526004016120e0929190612bcf565b6020604051808303816000875af11580156120ff573d6000803e3d6000fd5b505050506040513d601f19601f820116820180604052508101906121239190612c24565b507f33e9239cca000a415d43b2ca42ccdb22b42875175208f455b307479ac7e14fee60145482604051612157929190612c93565b60405180910390a160166014548154811061217557612174612d28565b5b9060005260206000200154601e600082825461219191906129e7565b9250508190555050565b601b60009054906101000a900460ff16156121eb576040517f08c379a00000000000000000000000000000000000000000000000000000000081526004016121e2906132b6565b60405180910390fd5b6000600660003373ffffffffffffffffffffffffffffffffffffffff1673ffffffffffffffffffffffffffffffffffffffff16815260200190815260200160002060003073ffffffffffffffffffffffffffffffffffffffff1673ffffffffffffffffffffffffffffffffffffffff16815260200190815260200160002054905060006064601e548361227e9190612aa9565b6122889190612b32565b9050600081836122989190612921565b9050600081111561253b576122ae33308361092a565b6122ed576040517f08c379a00000000000000000000000000000000000000000000000000000000081526004016122e490613348565b60405180910390fd5b7f1234ad5b903fc05a48a512705e358d3007a45bd48bce7566041a2c0afd3474238160405161231c919061271f565b60405180910390a16000600b54826123349190612aa9565b905060006123428233611852565b905060008054906101000a900473ffffffffffffffffffffffffffffffffffffffff1673ffffffffffffffffffffffffffffffffffffffff16632c35087982336040518363ffffffff1660e01b815260040161239f929190613368565b600060405180830381600087803b1580156123b957600080fd5b505af11580156123cd573d6000803e3d6000fd5b50505050600160009054906101000a900473ffffffffffffffffffffffffffffffffffffffff1673ffffffffffffffffffffffffffffffffffffffff1663a9059cbb33846040518363ffffffff1660e01b815260040161242e929190612bcf565b6020604051808303816000875af115801561244d573d6000803e3d6000fd5b505050506040513d601f19601f820116820180604052508101906124719190612c24565b6124b0576040517f08c379a00000000000000000000000000000000000000000000000000000000081526004016124a790613403565b60405180910390fd5b82601f60008282546124c291906129e7565b9250508190555082601c60008282546124db9190612921565b9250508190555083600760003373ffffffffffffffffffffffffffffffffffffffff1673ffffffffffffffffffffffffffffffffffffffff168152602001908152602001600020600082825461253191906129e7565b9250508190555050505b505050565b60115481565b600081519050919050565b600082825260208201905092915050565b60005b83811015612580578082015181840152602081019050612565565b8381111561258f576000848401525b50505050565b6000601f19601f8301169050919050565b60006125b182612546565b6125bb8185612551565b93506125cb818560208601612562565b6125d481612595565b840191505092915050565b600060208201905081810360008301526125f981846125a6565b905092915050565b600080fd5b600073ffffffffffffffffffffffffffffffffffffffff82169050919050565b600061263182612606565b9050919050565b61264181612626565b811461264c57600080fd5b50565b60008135905061265e81612638565b92915050565b6000819050919050565b61267781612664565b811461268257600080fd5b50565b6000813590506126948161266e565b92915050565b600080604083850312156126b1576126b0612601565b5b60006126bf8582860161264f565b92505060206126d085828601612685565b9150509250929050565b60008115159050919050565b6126ef816126da565b82525050565b600060208201905061270a60008301846126e6565b92915050565b61271981612664565b82525050565b60006020820190506127346000830184612710565b92915050565b61274381612626565b82525050565b600060208201905061275e600083018461273a565b92915050565b60008060006060848603121561277d5761277c612601565b5b600061278b8682870161264f565b935050602061279c8682870161264f565b92505060406127ad86828701612685565b9150509250925092565b6000602082840312156127cd576127cc612601565b5b60006127db84828501612685565b91505092915050565b6000602082840312156127fa576127f9612601565b5b60006128088482850161264f565b91505092915050565b6000806040838503121561282857612827612601565b5b600061283685828601612685565b92505060206128478582860161264f565b9150509250929050565b6000806040838503121561286857612867612601565b5b60006128768582860161264f565b92505060206128878582860161264f565b9150509250929050565b7f4e487b7100000000000000000000000000000000000000000000000000000000600052602260045260246000fd5b600060028204905060018216806128d857607f821691505b602082108114156128ec576128eb612891565b5b50919050565b7f4e487b7100000000000000000000000000000000000000000000000000000000600052601160045260246000fd5b600061292c82612664565b915061293783612664565b92508282101561294a576129496128f2565b5b828203905092915050565b7f596f752063616e206e6f74207472616e736665722066726f7a656e20746f6b6560008201527f6e732e0000000000000000000000000000000000000000000000000000000000602082015250565b60006129b1602383612551565b91506129bc82612955565b604082019050919050565b600060208201905081810360008301526129e0816129a4565b9050919050565b60006129f282612664565b91506129fd83612664565b9250827fffffffffffffffffffffffffffffffffffffffffffffffffffffffffffffffff03821115612a3257612a316128f2565b5b828201905092915050565b7f746f6f206561726c7920746f2066696e616c697a652063726f776473616c6500600082015250565b6000612a73601f83612551565b9150612a7e82612a3d565b602082019050919050565b60006020820190508181036000830152612aa281612a66565b9050919050565b6000612ab482612664565b9150612abf83612664565b9250817fffffffffffffffffffffffffffffffffffffffffffffffffffffffffffffffff0483118215151615612af857612af76128f2565b5b828202905092915050565b7f4e487b7100000000000000000000000000000000000000000000000000000000600052601260045260246000fd5b6000612b3d82612664565b9150612b4883612664565b925082612b5857612b57612b03565b5b828204905092915050565b7f416c6c207374616765732073686f756c64206265207061737365640000000000600082015250565b6000612b99601b83612551565b9150612ba482612b63565b602082019050919050565b60006020820190508181036000830152612bc881612b8c565b9050919050565b6000604082019050612be4600083018561273a565b612bf16020830184612710565b9392505050565b612c01816126da565b8114612c0c57600080fd5b50565b600081519050612c1e81612bf8565b92915050565b600060208284031215612c3a57612c39612601565b5b6000612c4884828501612c0f565b91505092915050565b600081519050612c608161266e565b92915050565b600060208284031215612c7c57612c7b612601565b5b6000612c8a84828501612c51565b91505092915050565b6000604082019050612ca86000830185612710565b612cb56020830184612710565b9392505050565b7f4f6e6c79207465616d206d6179207375626d6974207468652073746167650000600082015250565b6000612cf2601e83612551565b9150612cfd82612cbc565b602082019050919050565b60006020820190508181036000830152612d2181612ce5565b9050919050565b7f4e487b7100000000000000000000000000000000000000000000000000000000600052603260045260246000fd5b7f746f6f206561726c7920746f207375626d697420746865207374616765000000600082015250565b6000612d8d601d83612551565b9150612d9882612d57565b602082019050919050565b60006020820190508181036000830152612dbc81612d80565b9050919050565b6000612dce82612664565b91507fffffffffffffffffffffffffffffffffffffffffffffffffffffffffffffffff821415612e0157612e006128f2565b5b600182019050919050565b7f63726f776453616c652069732066696e697368656420616e64206e6f7468696e60008201527f6720746f2073656c6c2c20736f72727900000000000000000000000000000000602082015250565b6000612e68603083612551565b9150612e7382612e0c565b604082019050919050565b60006020820190508181036000830152612e9781612e5b565b9050919050565b6000604082019050612eb3600083018561273a565b612ec0602083018461273a565b9392505050565b7f596f752073686f756c6420616c6c6f7720656e6f75676820737461626c65436f60008201527f696e732066697273740000000000000000000000000000000000000000000000602082015250565b6000612f23602983612551565b9150612f2e82612ec7565b604082019050919050565b60006020820190508181036000830152612f5281612f16565b9050919050565b6000606082019050612f6e600083018661273a565b612f7b602083018561273a565b612f886040830184612710565b949350505050565b7f436f756c64206e6f74207472616e7366657220666f7220736f6d65207265617360008201527f6f6e000000000000000000000000000000000000000000000000000000000000602082015250565b6000612fec602283612551565b9150612ff782612f90565b604082019050919050565b6000602082019050818103600083015261301b81612fdf565b9050919050565b7f596f752073686f756c6420646563726561736520737461626c65636f696e732060008201527f616c6c6f77656400000000000000000000000000000000000000000000000000602082015250565b600061307e602783612551565b915061308982613022565b604082019050919050565b600060208201905081810360008301526130ad81613071565b9050919050565b7f4f6e6c79207465616d206d617920636c61696d2066756e647300000000000000600082015250565b60006130ea601983612551565b91506130f5826130b4565b602082019050919050565b60006020820190508181036000830152613119816130dd565b9050919050565b7f50726f6a65637420697320616c72656164792066696e69736865642c206e6f7460008201527f68696e6720746f20706173730000000000000000000000000000000000000000602082015250565b600061317c602c83612551565b915061318782613120565b604082019050919050565b600060208201905081810360008301526131ab8161316f565b9050919050565b7f486f6c6420706572696f64206973206e6f742066696e69736865642079657400600082015250565b60006131e8601f83612551565b91506131f3826131b2565b602082019050919050565b60006020820190508181036000830152613217816131db565b9050919050565b7f50726f6a65637420697320616c72656164792066696e69736865642c20616c6c60008201527f20737461676573207061737365642c206e6f7468696e6720746f20726574757260208201527f6e00000000000000000000000000000000000000000000000000000000000000604082015250565b60006132a0604183612551565b91506132ab8261321e565b606082019050919050565b600060208201905081810360008301526132cf81613293565b9050919050565b7f436f756c64206e6f74207472616e7366657220746f6b656e7320666f7220736f60008201527f6d6520726561736f6e0000000000000000000000000000000000000000000000602082015250565b6000613332602983612551565b915061333d826132d6565b604082019050919050565b6000602082019050818103600083015261336181613325565b9050919050565b600060408201905061337d6000830185612710565b61338a602083018461273a565b9392505050565b7f436f756c64206e6f74207472616e7366657220636f696e7320666f7220736f6d60008201527f6520726561736f6e000000000000000000000000000000000000000000000000602082015250565b60006133ed602883612551565b91506133f882613391565b604082019050919050565b6000602082019050818103600083015261341c816133e0565b905091905056fea26469706673582212206597adfe38da718b0d6493b3d0ae08ff32a43e2d159c52742900ee45adbb2a4664736f6c634300080a0033",
  "immutableReferences": {},
  "source": "// SPDX-License-Identifier: UNLICENSED\r\nimport \"./Platform.sol\";\r\nimport \"./stableCoin.sol\";\r\n\r\npragma solidity >=0.4.22 <0.9.0;\r\n\r\ncontract tokenTemplate is ERC20{\r\n    Platform platform;\r\n    ERC20 coin;\r\n    uint256 public constant decimals = 18;\r\n    string public name;\r\n    string public symbol;\r\n\r\n    mapping (address => uint256) balances;\r\n    mapping (address => uint256) timeBought;\r\n    mapping (address => mapping (address => uint256)) allowed;\r\n    mapping (address => uint256) public frozen;\r\n\r\n    address public stableCoinAddress;\r\n    address public platformContractAddress;\r\n    address public teamAddress;\r\n    uint256 public initialPrice;\r\n    uint256 public initialSupply;\r\n    uint256 public initialTime;\r\n    uint256 public crowdSaleDuration;\r\n    bool public crowdSaleIsActive;\r\n    uint256 public softCap;\r\n    uint256 public hardCap;\r\n    uint256 public percentOfTokensToTeam;\r\n    uint256 public numberOfMileStones;\r\n    uint256 public currentStage;\r\n    uint256 public previousStageSubmitted;\r\n    uint256[] public budgetPercent;\r\n    uint256[] public extraChargePercent;\r\n    uint256[] public stagesDuration;\r\n    string [] public stagesShortDescription;\r\n    uint256 public holdDuration = 7 days;\r\n    bool public projectFinished;\r\n    uint256 public soldTokens;\r\n    uint256 public platformFee;\r\n    uint256 public totalBudgetSpent;\r\n    uint256 public tokensToSell;\r\n\r\n    event stageSubmitted(uint256 stageNumber);\r\n    event tokensSold(uint256 amount, uint256 price);\r\n    event tokensReturned(uint256 amount);\r\n    event fundsPassed(uint256 stage, uint256 amount);\r\n\r\n    constructor(address[] memory addresses,\r\n                uint256[] memory params,\r\n                string memory _symbol,\r\n                string memory _name,\r\n                uint256[] memory _budgetPercent,\r\n                uint256[] memory _extraChargePercent,\r\n                uint256[] memory _stagesDuration,\r\n                string[] memory _stagesShortDescription) {\r\n\r\n        require(_budgetPercent[0]<=10, \"too much for the first stage\");\r\n        require(_budgetPercent[0]<=30, \"too little for the first stage\");\r\n\r\n\r\n        teamAddress = addresses[0];\r\n        coin = ERC20(addresses[1]);\r\n        platform = Platform(payable(addresses[2]));\r\n        platformContractAddress = addresses[2];\r\n\r\n        initialPrice = params[0];\r\n        initialSupply = params[1];\r\n        platformFee = params[2];\r\n        numberOfMileStones = params[3];\r\n\r\n        uint256 overallBudget;\r\n        for (uint256 i = 0; i<numberOfMileStones; i++){\r\n            overallBudget += _budgetPercent[i];\r\n        }\r\n        require(overallBudget == 100, \"Wrong budget percent values\");\r\n\r\n        percentOfTokensToTeam = params[4];\r\n        crowdSaleDuration = params[5];\r\n\r\n        projectFinished = false;\r\n        initialTime = block.timestamp;\r\n        budgetPercent = new uint256[](numberOfMileStones);\r\n        budgetPercent = _budgetPercent;\r\n        extraChargePercent = new uint256[](numberOfMileStones);\r\n        extraChargePercent = _extraChargePercent;\r\n        stagesDuration = new uint256[](numberOfMileStones);\r\n        stagesDuration = _stagesDuration;\r\n        stagesShortDescription = new string[](numberOfMileStones);\r\n        stagesShortDescription = _stagesShortDescription;\r\n        crowdSaleIsActive = true;\r\n        previousStageSubmitted = block.timestamp;\r\n        name = _name;\r\n        symbol = _symbol;\r\n    }\r\n\r\n    function submitStage() public{\r\n        require (msg.sender == teamAddress, \"Only team may submit the stage\");\r\n        require (block.timestamp > previousStageSubmitted+stagesDuration[currentStage], \"too early to submit the stage\");\r\n        emit stageSubmitted(currentStage);\r\n        currentStage++;\r\n        previousStageSubmitted = block.timestamp;\r\n\r\n    }\r\n\r\n    function finalizeICO() public{\r\n        if (soldTokens >=hardCap)\r\n            crowdSaleIsActive = false;\r\n        if (soldTokens <hardCap)\r\n            require(block.timestamp> initialTime +crowdSaleDuration, \"too early to finalize crowdsale\");\r\n        if (soldTokens >=softCap) {\r\n            crowdSaleIsActive = false;\r\n        }\r\n        uint256 tokensToTeam = (percentOfTokensToTeam + platformFee)* soldTokens /100;\r\n        balances[address(this)] += tokensToTeam;\r\n        initialSupply += tokensToTeam;\r\n        emit Transfer(address(this), address(this), tokensToTeam);\r\n    }\r\n\r\n    function passFundsToTeam() public{\r\n        require (msg.sender == teamAddress, \"Only team may claim funds\");\r\n        require (!projectFinished, \"Project is already finished, nothing to pass\");\r\n        require (block.timestamp>previousStageSubmitted+holdDuration, \"Hold period is not finished yet\");\r\n        uint256 fundsToPass = budgetPercent[currentStage] * soldTokens * initialPrice / 100;\r\n        coin.transfer(teamAddress, fundsToPass);\r\n        emit fundsPassed(currentStage, fundsToPass);\r\n        totalBudgetSpent += budgetPercent[currentStage];\r\n    }\r\n\r\n    function finalizeProject() public {\r\n        require (currentStage==numberOfMileStones, \"All stages should be passed\");\r\n        uint256 fee = soldTokens * initialPrice / 100 * platformFee;\r\n        coin.transfer(platformContractAddress, fee);\r\n        platform.addDividend(address(coin), fee);\r\n        uint256 coinsLeft = coin.balanceOf(address(this));\r\n        coin.transfer(teamAddress, coinsLeft);\r\n        emit fundsPassed(currentStage, coinsLeft);\r\n        transfer(platformContractAddress, initialSupply*platformFee/100);\r\n        platform.addDividend(address(this), initialSupply*platformFee/100);\r\n        transfer(teamAddress, balances[address(this)]);\r\n        projectFinished = true;\r\n    }\r\n\r\n    function buyTokens() public{\r\n        require (crowdSaleIsActive || tokensToSell ==0, \"crowdSale is finished and nothing to sell, sorry\");\r\n        uint256 coinsAmount = coin.allowance(msg.sender, address(this));\r\n        require (coinsAmount > initialPrice, \"You should allow enough stableCoins first\");\r\n        require (coin.transferFrom(msg.sender, address(this), coinsAmount), \"Could not transfer for some reason\");\r\n        uint256 currentPrice = initialPrice * (100+extraChargePercent[currentStage])/100;\r\n        uint256 tokensAmount = coinsAmount/currentPrice;\r\n        require(tokensAmount<=tokensToSell, \"You should decrease stablecoins allowed\");\r\n        transfer(msg.sender, tokensAmount);\r\n        timeBought[msg.sender] = block.timestamp;\r\n        soldTokens += tokensAmount;\r\n        tokensToSell -= tokensAmount;\r\n        emit tokensSold(tokensAmount, currentPrice);\r\n    }\r\n\r\n    function returnTokens() public{\r\n        require (!projectFinished, \"Project is already finished, all stages passed, nothing to return\");\r\n        uint256 tokensAmount = allowed[msg.sender][address(this)];\r\n        uint256 toFreeze = tokensAmount * totalBudgetSpent / 100;\r\n        uint256 toReturn = tokensAmount - toFreeze;\r\n        if (toReturn>0){\r\n            require(transferFrom(msg.sender, address(this), toReturn), \"Could not transfer tokens for some reason\");\r\n            emit tokensReturned(toReturn);\r\n            uint256 coinsAvailableForTokenHolder = toReturn * initialPrice;\r\n            uint256 interestAvailable = calculateInterestAvailable(coinsAvailableForTokenHolder, msg.sender);\r\n            platform.claimInterestForMintedTokenHolder(interestAvailable, msg.sender);\r\n            require(coin.transfer(msg.sender, coinsAvailableForTokenHolder), \"Could not transfer coins for some reason\");\r\n            tokensToSell += toReturn;\r\n            soldTokens -= toReturn;\r\n            frozen[msg.sender] += toFreeze;\r\n        }\r\n    }\r\n\r\n    function calculateInterestAvailable(uint256 coinsOnHold, address holderAddress) public view returns (uint256 amount){\r\n        return coinsOnHold*(block.timestamp - timeBought[holderAddress])/1 days*platform.getCurrentInterestRate()/36500;\r\n    }\r\n\r\n    function totalSupply() public view returns (uint256) {\r\n        return initialSupply;\r\n    }\r\n\r\n    function balanceOf(address owner) public view returns (uint256 balance) {\r\n        return balances[owner];\r\n    }\r\n\r\n    function allowance(address owner, address spender) public view returns (uint remaining) {\r\n        return allowed[owner][spender];\r\n    }\r\n\r\n    function transfer(address to, uint256 value) public returns (bool success) {\r\n        require(value<balances[msg.sender]-frozen[msg.sender], \"You can not transfer frozen tokens.\");\r\n        if (balances[msg.sender] >= value && value > 0) {\r\n            balances[msg.sender] -= value;\r\n            balances[to] += value;\r\n            emit Transfer(msg.sender, to, value);\r\n            return true;\r\n        } else {\r\n            return false;\r\n        }\r\n    }\r\n\r\n    function transferFrom(address from, address to, uint256 value) public returns (bool success) {\r\n        require(value<balances[from]-frozen[from], \"You can not transfer frozen tokens.\");\r\n        if (balances[from] >= value && allowed[from][msg.sender] >= value && value > 0) {\r\n            balances[to] += value;\r\n            balances[from] -= value;\r\n            allowed[from][msg.sender] -= value;\r\n            emit Transfer(from, to, value);\r\n            return true;\r\n        } else {\r\n            return false;\r\n        }\r\n    }\r\n\r\n    function approve(address spender, uint256 value) public returns (bool success) {\r\n        allowed[msg.sender][spender] = value;\r\n        emit Approval(msg.sender, spender, value);\r\n        return true;\r\n    }\r\n}\r\n\r\n",
  "sourcePath": "B:\\YandexDisk\\\\ICO\\CryptoFiat\\repo\\contracts\\tokenTemplate.sol",
  "compiler": {
    "name": "solc",
    "version": "0.8.10+commit.fc410830.Emscripten.clang"
  },
  "schemaVersion": "3.4.5",
  "updatedAt": "2023-03-11T14:53:45.417Z",
  "devdoc": {
    "kind": "dev",
    "methods": {},
    "version": 1
  },
  "userdoc": {
    "kind": "user",
    "methods": {},
    "version": 1
  }
}