{
  "contractName": "tokenTemplate",
  "abi": [
    {
      "inputs": [
        {
          "internalType": "address[]",
          "name": "addresses",
          "type": "address[]"
        },
        {
          "internalType": "uint256[]",
          "name": "params",
          "type": "uint256[]"
        },
        {
          "internalType": "string",
          "name": "_symbol",
          "type": "string"
        },
        {
          "internalType": "string",
          "name": "_name",
          "type": "string"
        },
        {
          "internalType": "uint256[]",
          "name": "_budgetPercent",
          "type": "uint256[]"
        },
        {
          "internalType": "uint256[]",
          "name": "_extraChargePercent",
          "type": "uint256[]"
        },
        {
          "internalType": "uint256[]",
          "name": "_stagesDuration",
          "type": "uint256[]"
        },
        {
          "internalType": "string[]",
          "name": "_stagesShortDescription",
          "type": "string[]"
        }
      ],
      "stateMutability": "nonpayable",
      "type": "constructor"
    },
    {
      "anonymous": false,
      "inputs": [
        {
          "indexed": true,
          "internalType": "address",
          "name": "owner",
          "type": "address"
        },
        {
          "indexed": true,
          "internalType": "address",
          "name": "spender",
          "type": "address"
        },
        {
          "indexed": false,
          "internalType": "uint256",
          "name": "value",
          "type": "uint256"
        }
      ],
      "name": "Approval",
      "type": "event"
    },
    {
      "anonymous": false,
      "inputs": [
        {
          "indexed": true,
          "internalType": "address",
          "name": "from",
          "type": "address"
        },
        {
          "indexed": true,
          "internalType": "address",
          "name": "to",
          "type": "address"
        },
        {
          "indexed": false,
          "internalType": "uint256",
          "name": "value",
          "type": "uint256"
        }
      ],
      "name": "Transfer",
      "type": "event"
    },
    {
      "anonymous": false,
      "inputs": [
        {
          "indexed": false,
          "internalType": "uint256",
          "name": "stage",
          "type": "uint256"
        },
        {
          "indexed": false,
          "internalType": "uint256",
          "name": "amount",
          "type": "uint256"
        }
      ],
      "name": "fundsPassed",
      "type": "event"
    },
    {
      "anonymous": false,
      "inputs": [
        {
          "indexed": false,
          "internalType": "uint256",
          "name": "stageNumber",
          "type": "uint256"
        }
      ],
      "name": "stageComplete",
      "type": "event"
    },
    {
      "anonymous": false,
      "inputs": [
        {
          "indexed": false,
          "internalType": "uint256",
          "name": "amount",
          "type": "uint256"
        }
      ],
      "name": "tokensReturned",
      "type": "event"
    },
    {
      "anonymous": false,
      "inputs": [
        {
          "indexed": false,
          "internalType": "uint256",
          "name": "amount",
          "type": "uint256"
        },
        {
          "indexed": false,
          "internalType": "uint256",
          "name": "price",
          "type": "uint256"
        }
      ],
      "name": "tokensSold",
      "type": "event"
    },
    {
      "inputs": [
        {
          "internalType": "address",
          "name": "owner",
          "type": "address"
        },
        {
          "internalType": "address",
          "name": "spender",
          "type": "address"
        }
      ],
      "name": "allowance",
      "outputs": [
        {
          "internalType": "uint256",
          "name": "",
          "type": "uint256"
        }
      ],
      "stateMutability": "view",
      "type": "function"
    },
    {
      "inputs": [
        {
          "internalType": "address",
          "name": "spender",
          "type": "address"
        },
        {
          "internalType": "uint256",
          "name": "amount",
          "type": "uint256"
        }
      ],
      "name": "approve",
      "outputs": [
        {
          "internalType": "bool",
          "name": "",
          "type": "bool"
        }
      ],
      "stateMutability": "nonpayable",
      "type": "function"
    },
    {
      "inputs": [
        {
          "internalType": "address",
          "name": "account",
          "type": "address"
        }
      ],
      "name": "balanceOf",
      "outputs": [
        {
          "internalType": "uint256",
          "name": "",
          "type": "uint256"
        }
      ],
      "stateMutability": "view",
      "type": "function"
    },
    {
      "inputs": [
        {
          "internalType": "uint256",
          "name": "",
          "type": "uint256"
        }
      ],
      "name": "budgetPercent",
      "outputs": [
        {
          "internalType": "uint256",
          "name": "",
          "type": "uint256"
        }
      ],
      "stateMutability": "view",
      "type": "function"
    },
    {
      "inputs": [],
      "name": "crowdSaleDuration",
      "outputs": [
        {
          "internalType": "uint256",
          "name": "",
          "type": "uint256"
        }
      ],
      "stateMutability": "view",
      "type": "function"
    },
    {
      "inputs": [],
      "name": "crowdSaleIsActive",
      "outputs": [
        {
          "internalType": "bool",
          "name": "",
          "type": "bool"
        }
      ],
      "stateMutability": "view",
      "type": "function"
    },
    {
      "inputs": [],
      "name": "currentStage",
      "outputs": [
        {
          "internalType": "uint256",
          "name": "",
          "type": "uint256"
        }
      ],
      "stateMutability": "view",
      "type": "function"
    },
    {
      "inputs": [],
      "name": "decimals",
      "outputs": [
        {
          "internalType": "uint8",
          "name": "",
          "type": "uint8"
        }
      ],
      "stateMutability": "view",
      "type": "function"
    },
    {
      "inputs": [
        {
          "internalType": "address",
          "name": "spender",
          "type": "address"
        },
        {
          "internalType": "uint256",
          "name": "subtractedValue",
          "type": "uint256"
        }
      ],
      "name": "decreaseAllowance",
      "outputs": [
        {
          "internalType": "bool",
          "name": "",
          "type": "bool"
        }
      ],
      "stateMutability": "nonpayable",
      "type": "function"
    },
    {
      "inputs": [
        {
          "internalType": "uint256",
          "name": "",
          "type": "uint256"
        }
      ],
      "name": "extraChargePercent",
      "outputs": [
        {
          "internalType": "uint256",
          "name": "",
          "type": "uint256"
        }
      ],
      "stateMutability": "view",
      "type": "function"
    },
    {
      "inputs": [
        {
          "internalType": "address",
          "name": "",
          "type": "address"
        }
      ],
      "name": "frozen",
      "outputs": [
        {
          "internalType": "uint256",
          "name": "",
          "type": "uint256"
        }
      ],
      "stateMutability": "view",
      "type": "function"
    },
    {
      "inputs": [],
      "name": "fundsRaised",
      "outputs": [
        {
          "internalType": "uint256",
          "name": "",
          "type": "uint256"
        }
      ],
      "stateMutability": "view",
      "type": "function"
    },
    {
      "inputs": [],
      "name": "hardCap",
      "outputs": [
        {
          "internalType": "uint256",
          "name": "",
          "type": "uint256"
        }
      ],
      "stateMutability": "view",
      "type": "function"
    },
    {
      "inputs": [],
      "name": "holdDuration",
      "outputs": [
        {
          "internalType": "uint256",
          "name": "",
          "type": "uint256"
        }
      ],
      "stateMutability": "view",
      "type": "function"
    },
    {
      "inputs": [
        {
          "internalType": "address",
          "name": "spender",
          "type": "address"
        },
        {
          "internalType": "uint256",
          "name": "addedValue",
          "type": "uint256"
        }
      ],
      "name": "increaseAllowance",
      "outputs": [
        {
          "internalType": "bool",
          "name": "",
          "type": "bool"
        }
      ],
      "stateMutability": "nonpayable",
      "type": "function"
    },
    {
      "inputs": [],
      "name": "initialPrice",
      "outputs": [
        {
          "internalType": "uint256",
          "name": "",
          "type": "uint256"
        }
      ],
      "stateMutability": "view",
      "type": "function"
    },
    {
      "inputs": [],
      "name": "initialSupply",
      "outputs": [
        {
          "internalType": "uint256",
          "name": "",
          "type": "uint256"
        }
      ],
      "stateMutability": "view",
      "type": "function"
    },
    {
      "inputs": [],
      "name": "initialTime",
      "outputs": [
        {
          "internalType": "uint256",
          "name": "",
          "type": "uint256"
        }
      ],
      "stateMutability": "view",
      "type": "function"
    },
    {
      "inputs": [],
      "name": "name",
      "outputs": [
        {
          "internalType": "string",
          "name": "",
          "type": "string"
        }
      ],
      "stateMutability": "view",
      "type": "function"
    },
    {
      "inputs": [],
      "name": "numberOfMileStones",
      "outputs": [
        {
          "internalType": "uint256",
          "name": "",
          "type": "uint256"
        }
      ],
      "stateMutability": "view",
      "type": "function"
    },
    {
      "inputs": [],
      "name": "percentOfTokensToTeam",
      "outputs": [
        {
          "internalType": "uint256",
          "name": "",
          "type": "uint256"
        }
      ],
      "stateMutability": "view",
      "type": "function"
    },
    {
      "inputs": [],
      "name": "platformContractAddress",
      "outputs": [
        {
          "internalType": "address",
          "name": "",
          "type": "address"
        }
      ],
      "stateMutability": "view",
      "type": "function"
    },
    {
      "inputs": [],
      "name": "platformFeePercent",
      "outputs": [
        {
          "internalType": "uint256",
          "name": "",
          "type": "uint256"
        }
      ],
      "stateMutability": "view",
      "type": "function"
    },
    {
      "inputs": [],
      "name": "previousStageSubmitted",
      "outputs": [
        {
          "internalType": "uint256",
          "name": "",
          "type": "uint256"
        }
      ],
      "stateMutability": "view",
      "type": "function"
    },
    {
      "inputs": [],
      "name": "projectFinished",
      "outputs": [
        {
          "internalType": "bool",
          "name": "",
          "type": "bool"
        }
      ],
      "stateMutability": "view",
      "type": "function"
    },
    {
      "inputs": [],
      "name": "softCap",
      "outputs": [
        {
          "internalType": "uint256",
          "name": "",
          "type": "uint256"
        }
      ],
      "stateMutability": "view",
      "type": "function"
    },
    {
      "inputs": [],
      "name": "soldTokens",
      "outputs": [
        {
          "internalType": "uint256",
          "name": "",
          "type": "uint256"
        }
      ],
      "stateMutability": "view",
      "type": "function"
    },
    {
      "inputs": [],
      "name": "stableCoinAddress",
      "outputs": [
        {
          "internalType": "address",
          "name": "",
          "type": "address"
        }
      ],
      "stateMutability": "view",
      "type": "function"
    },
    {
      "inputs": [
        {
          "internalType": "uint256",
          "name": "",
          "type": "uint256"
        }
      ],
      "name": "stagesDuration",
      "outputs": [
        {
          "internalType": "uint256",
          "name": "",
          "type": "uint256"
        }
      ],
      "stateMutability": "view",
      "type": "function"
    },
    {
      "inputs": [
        {
          "internalType": "uint256",
          "name": "",
          "type": "uint256"
        }
      ],
      "name": "stagesShortDescription",
      "outputs": [
        {
          "internalType": "string",
          "name": "",
          "type": "string"
        }
      ],
      "stateMutability": "view",
      "type": "function"
    },
    {
      "inputs": [],
      "name": "symbol",
      "outputs": [
        {
          "internalType": "string",
          "name": "",
          "type": "string"
        }
      ],
      "stateMutability": "view",
      "type": "function"
    },
    {
      "inputs": [],
      "name": "teamAddress",
      "outputs": [
        {
          "internalType": "address",
          "name": "",
          "type": "address"
        }
      ],
      "stateMutability": "view",
      "type": "function"
    },
    {
      "inputs": [],
      "name": "tokensToSell",
      "outputs": [
        {
          "internalType": "uint256",
          "name": "",
          "type": "uint256"
        }
      ],
      "stateMutability": "view",
      "type": "function"
    },
    {
      "inputs": [],
      "name": "totalBudgetSpent",
      "outputs": [
        {
          "internalType": "uint256",
          "name": "",
          "type": "uint256"
        }
      ],
      "stateMutability": "view",
      "type": "function"
    },
    {
      "inputs": [],
      "name": "totalSupply",
      "outputs": [
        {
          "internalType": "uint256",
          "name": "",
          "type": "uint256"
        }
      ],
      "stateMutability": "view",
      "type": "function"
    },
    {
      "inputs": [
        {
          "internalType": "address",
          "name": "to",
          "type": "address"
        },
        {
          "internalType": "uint256",
          "name": "amount",
          "type": "uint256"
        }
      ],
      "name": "transfer",
      "outputs": [
        {
          "internalType": "bool",
          "name": "",
          "type": "bool"
        }
      ],
      "stateMutability": "nonpayable",
      "type": "function"
    },
    {
      "inputs": [
        {
          "internalType": "address",
          "name": "from",
          "type": "address"
        },
        {
          "internalType": "address",
          "name": "to",
          "type": "address"
        },
        {
          "internalType": "uint256",
          "name": "amount",
          "type": "uint256"
        }
      ],
      "name": "transferFrom",
      "outputs": [
        {
          "internalType": "bool",
          "name": "",
          "type": "bool"
        }
      ],
      "stateMutability": "nonpayable",
      "type": "function"
    },
    {
      "inputs": [],
      "name": "submitStage",
      "outputs": [],
      "stateMutability": "nonpayable",
      "type": "function"
    },
    {
      "inputs": [],
      "name": "finalizePublicOffer",
      "outputs": [],
      "stateMutability": "nonpayable",
      "type": "function"
    },
    {
      "inputs": [],
      "name": "passFundsToTeam",
      "outputs": [],
      "stateMutability": "nonpayable",
      "type": "function"
    },
    {
      "inputs": [],
      "name": "finalizeProject",
      "outputs": [],
      "stateMutability": "nonpayable",
      "type": "function"
    },
    {
      "inputs": [],
      "name": "buyTokens",
      "outputs": [],
      "stateMutability": "nonpayable",
      "type": "function"
    },
    {
      "inputs": [],
      "name": "returnTokens",
      "outputs": [],
      "stateMutability": "nonpayable",
      "type": "function"
    },
    {
      "inputs": [
        {
          "internalType": "uint256",
          "name": "coinsOnHold",
          "type": "uint256"
        },
        {
          "internalType": "address",
          "name": "holderAddress",
          "type": "address"
        }
      ],
      "name": "calculateInterestAvailable",
      "outputs": [
        {
          "internalType": "uint256",
          "name": "amount",
          "type": "uint256"
        }
      ],
      "stateMutability": "view",
      "type": "function"
    }
  ],
  "bytecode": "0x60806040523480156200001157600080fd5b5060405162002f3738038062002f37833981016040819052620000349162000a9e565b8585600362000044838262000c85565b50600462000053828262000c85565b505050876000815181106200006c576200006c62000d51565b6020026020010151600d60006101000a8154816001600160a01b0302191690836001600160a01b0316021790555087600181518110620000b057620000b062000d51565b6020026020010151600660006101000a8154816001600160a01b0302191690836001600160a01b0316021790555087600281518110620000f457620000f462000d51565b6020026020010151600560006101000a8154816001600160a01b0302191690836001600160a01b031602179055508760028151811062000138576200013862000d51565b6020026020010151600c60006101000a8154816001600160a01b0302191690836001600160a01b03160217905550866000815181106200017c576200017c62000d51565b6020026020010151600e8190555086600181518110620001a057620001a062000d51565b602090810291909101810151600f8190553060009081526007909252604090912055865187906002908110620001da57620001da62000d51565b602002602001015160208190555086600381518110620001fe57620001fe62000d51565b6020026020010151601681905550600a8460008151811062000224576200022462000d51565b60200260200101511115620002805760405162461bcd60e51b815260206004820152601c60248201527f746f6f206d75636820666f72207468652066697273742073746167650000000060448201526064015b60405180910390fd5b601e846016548151811062000299576200029962000d51565b60200260200101511015620002f15760405162461bcd60e51b815260206004820152601d60248201527f746f6f206c6974746c6520666f7220746865206c617374207374616765000000604482015260640162000277565b6000805b6016548111620003405785818151811062000314576200031462000d51565b60200260200101518262000329919062000d7d565b915080620003378162000d99565b915050620002f5565b5080606414620003935760405162461bcd60e51b815260206004820152601b60248201527f57726f6e67206275646765742070657263656e742076616c7565730000000000604482015260640162000277565b60005b6016548110156200043e5762278d00848281518110620003ba57620003ba62000d51565b60200260200101511015620004295760405162461bcd60e51b815260206004820152602e60248201527f65616368207374616765206475726174696f6e2073686f756c6420626520617460448201526d040d8cac2e6e8406240dadedce8d60931b606482015260840162000277565b80620004358162000d99565b91505062000396565b508760048151811062000455576200045562000d51565b60200260200101516015819055508760058151811062000479576200047962000d51565b6020026020010151601181905550876006815181106200049d576200049d62000d51565b6020026020010151601d8190555087600781518110620004c157620004c162000d51565b60209081029190910101516013819055600f54601481905511620004e457600080fd5b601e805460ff19169055426010556016546200050290600162000d7d565b6001600160401b038111156200051c576200051c6200082d565b60405190808252806020026020018201604052801562000546578160200160208202803683370190505b5080516200055d916019916020909101906200070a565b508451620005739060199060208801906200070a565b506016546001600160401b038111156200059157620005916200082d565b604051908082528060200260200182016040528015620005bb578160200160208202803683370190505b508051620005d291601a916020909101906200070a565b508351620005e890601a9060208701906200070a565b506016546001600160401b038111156200060657620006066200082d565b60405190808252806020026020018201604052801562000630578160200160208202803683370190505b5080516200064791601b916020909101906200070a565b5082516200065d90601b9060208601906200070a565b506016546001600160401b038111156200067b576200067b6200082d565b604051908082528060200260200182016040528015620006b057816020015b60608152602001906001900390816200069a5790505b508051620006c791601c916020909101906200075a565b508151620006dd90601c9060208501906200075a565b50506012805460ff191660011790555050426018555050600f5460225550506000601f555062000db59050565b82805482825590600052602060002090810192821562000748579160200282015b82811115620007485782518255916020019190600101906200072b565b5062000756929150620007b3565b5090565b828054828255906000526020600020908101928215620007a5579160200282015b82811115620007a5578251829062000794908262000c85565b50916020019190600101906200077b565b5062000756929150620007ca565b5b80821115620007565760008155600101620007b4565b8082111562000756576000620007e18282620007eb565b50600101620007ca565b508054620007f99062000bf6565b6000825580601f106200080a575050565b601f0160209004906000526020600020908101906200082a9190620007b3565b50565b634e487b7160e01b600052604160045260246000fd5b604051601f8201601f191681016001600160401b03811182821017156200086e576200086e6200082d565b604052919050565b60006001600160401b038211156200089257620008926200082d565b5060051b60200190565b600082601f830112620008ae57600080fd5b81516020620008c7620008c18362000876565b62000843565b82815260059290921b84018101918181019086841115620008e757600080fd5b8286015b848110156200091b5780516001600160a01b03811681146200090d5760008081fd5b8352918301918301620008eb565b509695505050505050565b600082601f8301126200093857600080fd5b815160206200094b620008c18362000876565b82815260059290921b840181019181810190868411156200096b57600080fd5b8286015b848110156200091b57805183529183019183016200096f565b600082601f8301126200099a57600080fd5b81516001600160401b03811115620009b657620009b66200082d565b6020620009cc601f8301601f1916820162000843565b8281528582848701011115620009e157600080fd5b60005b8381101562000a01578581018301518282018401528201620009e4565b506000928101909101919091529392505050565b600082601f83011262000a2757600080fd5b8151602062000a3a620008c18362000876565b82815260059290921b8401810191818101908684111562000a5a57600080fd5b8286015b848110156200091b5780516001600160401b0381111562000a7f5760008081fd5b62000a8f8986838b010162000988565b84525091830191830162000a5e565b600080600080600080600080610100898b03121562000abc57600080fd5b88516001600160401b038082111562000ad457600080fd5b62000ae28c838d016200089c565b995060208b015191508082111562000af957600080fd5b62000b078c838d0162000926565b985060408b015191508082111562000b1e57600080fd5b62000b2c8c838d0162000988565b975060608b015191508082111562000b4357600080fd5b62000b518c838d0162000988565b965060808b015191508082111562000b6857600080fd5b62000b768c838d0162000926565b955060a08b015191508082111562000b8d57600080fd5b62000b9b8c838d0162000926565b945060c08b015191508082111562000bb257600080fd5b62000bc08c838d0162000926565b935060e08b015191508082111562000bd757600080fd5b5062000be68b828c0162000a15565b9150509295985092959890939650565b600181811c9082168062000c0b57607f821691505b60208210810362000c2c57634e487b7160e01b600052602260045260246000fd5b50919050565b601f82111562000c8057600081815260208120601f850160051c8101602086101562000c5b5750805b601f850160051c820191505b8181101562000c7c5782815560010162000c67565b5050505b505050565b81516001600160401b0381111562000ca15762000ca16200082d565b62000cb98162000cb2845462000bf6565b8462000c32565b602080601f83116001811462000cf1576000841562000cd85750858301515b600019600386901b1c1916600185901b17855562000c7c565b600085815260208120601f198616915b8281101562000d225788860151825594840194600190910190840162000d01565b508582101562000d415787850151600019600388901b60f8161c191681555b5050505050600190811b01905550565b634e487b7160e01b600052603260045260246000fd5b634e487b7160e01b600052601160045260246000fd5b8082018082111562000d935762000d9362000d67565b92915050565b60006001820162000dae5762000dae62000d67565b5060010190565b6121728062000dc56000396000f3fe608060405234801561001057600080fd5b50600436106102045760003560e01c806306fdde0314610209578063095ea7b31461022757806318160ddd1461024a5780631c75f0851461025c5780631d0806ae1461027c57806323b872dd146102855780632d43b27414610298578063313ce567146102a257806333bc2f9d146102b1578063378dc3dc146102c457806339509351146102cd5780633d956691146102e057806343506e9a146102e95780634440b81a146102f257806357e4288a146102ff5780635bf5d54c146103085780635ed9ebfc146103115780636681b9fd1461031a57806369a37fd11461032357806369dd8d841461033657806370a082311461033f5780637417882c146103685780638c639a8514610370578063906a26e014610379578063946bb4f614610382578063954a7bc71461039557806395d89b41146103a857806396d8ff47146103b0578063982aae46146103b95780639ced0e9b146103cc578063a457c2d7146103d5578063a8a15ec7146103e8578063a9059cbb146103f5578063a98f472a14610408578063ab84047a14610411578063ac6f2a5e14610424578063c0b81ffa14610437578063d05166501461043f578063d0febe4c1461045f578063dd60639114610467578063dd62ed3e14610470578063e4df37b414610483578063f9718fc81461048b578063fb86a40414610493575b600080fd5b61021161049c565b60405161021e9190611db4565b60405180910390f35b61023a610235366004611e1e565b61052e565b604051901515815260200161021e565b6002545b60405190815260200161021e565b600d5461026f906001600160a01b031681565b60405161021e9190611e48565b61024e600e5481565b61023a610293366004611e5c565b610548565b6102a061056c565b005b6040516012815260200161021e565b61024e6102bf366004611e98565b6106f6565b61024e600f5481565b61023a6102db366004611e1e565b610717565b61024e60225481565b61024e60155481565b60125461023a9060ff1681565b61024e601d5481565b61024e60175481565b61024e601f5481565b61024e60235481565b610211610331366004611e98565b610739565b61024e60115481565b61024e61034d366004611eb1565b6001600160a01b031660009081526020819052604090205490565b6102a06107e5565b61024e60205481565b61024e60135481565b600c5461026f906001600160a01b031681565b61024e6103a3366004611e98565b610c3d565b610211610c4d565b61024e60185481565b600b5461026f906001600160a01b031681565b61024e60105481565b61023a6103e3366004611e1e565b610c5c565b601e5461023a9060ff1681565b61023a610403366004611e1e565b610cd7565b61024e60165481565b61024e61041f366004611e98565b610ce5565b61024e610432366004611ecc565b610cf5565b6102a0610dc8565b61024e61044d366004611eb1565b600a6020526000908152604090205481565b6102a0610f63565b61024e60215481565b61024e61047e366004611ef8565b611308565b6102a0611333565b6102a06115cd565b61024e60145481565b6060600380546104ab90611f22565b80601f01602080910402602001604051908101604052809291908181526020018280546104d790611f22565b80156105245780601f106104f957610100808354040283529160200191610524565b820191906000526020600020905b81548152906001019060200180831161050757829003601f168201915b5050505050905090565b60003361053c8185856119f3565b60019150505b92915050565b600033610556858285611b0f565b610561858585611b89565b506001949350505050565b600d546001600160a01b0316331461059f5760405162461bcd60e51b815260040161059690611f5c565b60405180910390fd5b601454601f54106105b5576012805460ff191690555b601454601f54101561061f576011546010546105d19190611fa9565b421161061f5760405162461bcd60e51b815260206004820152601f60248201527f746f6f206561726c7920746f2066696e616c697a652063726f776473616c65006044820152606401610596565b601354601f5410610635576012805460ff191690555b601354601f54101561064d576012805460ff19169055565b601f54600f55601554600090610664906064611fbc565b601f546015546106749190611fcf565b61067e9190611fe6565b306000908152600760205260408120829055600f805492935083929091906106a7908490611fa9565b90915550506040518181523090819060008051602061211d8339815191529060200160405180910390a36000602255601d546001906106e69042611fbc565b6106f09190611fbc565b60185550565b601a818154811061070657600080fd5b600091825260209091200154905081565b60003361053c81858561072a8383611308565b6107349190611fa9565b6119f3565b601c818154811061074957600080fd5b90600052602060002001600091509050805461076490611f22565b80601f016020809104026020016040519081016040528092919081815260200182805461079090611f22565b80156107dd5780601f106107b2576101008083540402835291602001916107dd565b820191906000526020600020905b8154815290600101906020018083116107c057829003601f168201915b505050505081565b600d546001600160a01b0316331461080f5760405162461bcd60e51b815260040161059690611f5c565b600160165461081e9190611fbc565b6017541461086c5760405162461bcd60e51b815260206004820152601b60248201527a105b1b081cdd1859d95cc81cda1bdd5b19081899481c185cdcd959602a1b6044820152606401610596565b600060646020546023546108809190611fcf565b61088a9190611fe6565b600654600c5460405163a9059cbb60e01b81529293506001600160a01b039182169263a9059cbb926108c29216908590600401612008565b6020604051808303816000875af11580156108e1573d6000803e3d6000fd5b505050506040513d601f19601f820116820180604052508101906109059190612021565b50600554600654604051636de9944d60e01b81526001600160a01b0392831692636de9944d9261093c929116908590600401612008565b6020604051808303816000875af115801561095b573d6000803e3d6000fd5b505050506040513d601f19601f8201168201806040525081019061097f9190612021565b506006546040516370a0823160e01b81526000916001600160a01b0316906370a08231906109b1903090600401611e48565b602060405180830381865afa1580156109ce573d6000803e3d6000fd5b505050506040513d601f19601f820116820180604052508101906109f29190612043565b600654600d5460405163a9059cbb60e01b81529293506001600160a01b039182169263a9059cbb92610a2a9216908590600401612008565b6020604051808303816000875af1158015610a49573d6000803e3d6000fd5b505050506040513d601f19601f82011682018060405250810190610a6d9190612021565b5060175460408051918252602082018390526000805160206120fd833981519152910160405180910390a160006064602054600f54610aac9190611fcf565b610ab69190611fe6565b600c5460405163a9059cbb60e01b8152919250309163a9059cbb91610aeb916001600160a01b03909116908590600401612008565b6020604051808303816000875af1158015610b0a573d6000803e3d6000fd5b505050506040513d601f19601f82011682018060405250810190610b2e9190612021565b50600554604051636de9944d60e01b81526001600160a01b0390911690636de9944d90610b619030908590600401612008565b6020604051808303816000875af1158015610b80573d6000803e3d6000fd5b505050506040513d601f19601f82011682018060405250810190610ba49190612021565b50600d54306000818152600760205260409081902054905163a9059cbb60e01b8152919263a9059cbb92610be7926001600160a01b039092169190600401612008565b6020604051808303816000875af1158015610c06573d6000803e3d6000fd5b505050506040513d601f19601f82011682018060405250810190610c2a9190612021565b5050601e805460ff191660011790555050565b601b818154811061070657600080fd5b6060600480546104ab90611f22565b60003381610c6a8286611308565b905083811015610cca5760405162461bcd60e51b815260206004820152602560248201527f45524332303a2064656372656173656420616c6c6f77616e63652062656c6f77604482015264207a65726f60d81b6064820152608401610596565b61056182868684036119f3565b60003361053c818585611b89565b6019818154811061070657600080fd5b6000618e94600560009054906101000a90046001600160a01b03166001600160a01b031663ff516c496040518163ffffffff1660e01b8152600401602060405180830381865afa158015610d4d573d6000803e3d6000fd5b505050506040513d601f19601f82011682018060405250810190610d719190612043565b6001600160a01b0384166000908152600860205260409020546201518090610d999042611fbc565b610da39087611fcf565b610dad9190611fe6565b610db79190611fcf565b610dc19190611fe6565b9392505050565b600d546001600160a01b03163314610df25760405162461bcd60e51b815260040161059690611f5c565b60125460ff1615610e625760405162461bcd60e51b815260206004820152603460248201527f63726f776473616c65206973207374696c6c206163746976652c2066696e616c6044820152731a5e99541d589b1a58d3d999995c88199a5c9cdd60621b6064820152608401610596565b601b60175481548110610e7757610e7761205c565b9060005260206000200154601854610e8f9190611fa9565b421015610ede5760405162461bcd60e51b815260206004820152601d60248201527f746f6f206561726c7920746f207375626d6974207468652073746167650000006044820152606401610596565b6001601654610eed9190611fbc565b60175410610f0d5760405162461bcd60e51b815260040161059690612072565b7fc4ab07f9778d895dfa64b2e41647695b2003fd8064bf6114969cf0d73b780bbe601754604051610f4091815260200190565b60405180910390a160178054906000610f58836120bf565b909155505042601855565b600060225411610fae5760405162461bcd60e51b81526020600482015260166024820152756e6f7468696e6720746f2073656c6c2c20736f72727960501b6044820152606401610596565b600654604051636eb1769f60e11b81523360048201523060248201526000916001600160a01b03169063dd62ed3e90604401602060405180830381865afa158015610ffd573d6000803e3d6000fd5b505050506040513d601f19601f820116820180604052508101906110219190612043565b9050600e548110156110875760405162461bcd60e51b815260206004820152602960248201527f596f752073686f756c6420616c6c6f7720656e6f75676820737461626c65436f6044820152681a5b9cc8199a5c9cdd60ba1b6064820152608401610596565b6006546040516323b872dd60e01b81526001600160a01b03909116906323b872dd906110bb903390309086906004016120d8565b6020604051808303816000875af11580156110da573d6000803e3d6000fd5b505050506040513d601f19601f820116820180604052508101906110fe9190612021565b6111555760405162461bcd60e51b815260206004820152602260248201527f436f756c64206e6f74207472616e7366657220666f7220736f6d65207265617360448201526137b760f11b6064820152608401610596565b80602360008282546111679190611fa9565b9091555050600e5460125460ff166111c1576064601a601754815481106111905761119061205c565b906000526020600020015460646111a79190611fa9565b600e546111b49190611fcf565b6111be9190611fe6565b90505b60006111cd8284611fe6565b306000908152600760205260409020549091508111156111f95750306000908152600760205260409020545b60405163a9059cbb60e01b8152309063a9059cbb9061121e9033908590600401612008565b6020604051808303816000875af115801561123d573d6000803e3d6000fd5b505050506040513d601f19601f820116820180604052508101906112619190612021565b50336000908152600860205260408120429055601f8054839290611286908490611fa9565b92505081905550806022600082825461129f9190611fbc565b909155505060408051828152602081018490527fdff110bae24a8bd9f8765f2c28d27e26f4d8f059f164ecf06a007923230541bf910160405180910390a16040518181523390309060008051602061211d833981519152906020015b60405180910390a3505050565b6001600160a01b03918216600090815260016020908152604080832093909416825291909152205490565b600d546001600160a01b0316331461135d5760405162461bcd60e51b815260040161059690611f5c565b601e5460ff16156113c55760405162461bcd60e51b815260206004820152602c60248201527f50726f6a65637420697320616c72656164792066696e69736865642c206e6f7460448201526b68696e6720746f207061737360a01b6064820152608401610596565b60125460ff16156114245760405162461bcd60e51b8152602060048201526024808201527f796f752073686f756c642066696e697368207075626c6963206f6666657220666044820152631a5c9cdd60e21b6064820152608401610596565b601654601754106114475760405162461bcd60e51b815260040161059690612072565b601d546018546114579190611fa9565b4210156114a65760405162461bcd60e51b815260206004820152601f60248201527f486f6c6420706572696f64206973206e6f742066696e697368656420796574006044820152606401610596565b60006064600e54601f546019601754815481106114c5576114c561205c565b90600052602060002001546114da9190611fcf565b6114e49190611fcf565b6114ee9190611fe6565b600654600d5460405163a9059cbb60e01b81529293506001600160a01b039182169263a9059cbb926115269216908590600401612008565b6020604051808303816000875af1158015611545573d6000803e3d6000fd5b505050506040513d601f19601f820116820180604052508101906115699190612021565b5060175460408051918252602082018390526000805160206120fd833981519152910160405180910390a16019601754815481106115a9576115a961205c565b9060005260206000200154602160008282546115c59190611fa9565b909155505050565b601e5460ff16156116505760405162461bcd60e51b815260206004820152604160248201527f50726f6a65637420697320616c72656164792066696e69736865642c20616c6c60448201527f20737461676573207061737365642c206e6f7468696e6720746f2072657475726064820152603760f91b608482015260a401610596565b336000908152600760209081526040808320546009835281842030855290925290912054146116cd5760405162461bcd60e51b815260206004820152602360248201527f796f752073686f756c6420616c6c6f7720796f75722077686f6c652062616c616044820152626e636560e81b6064820152608401610596565b336000908152600a6020908152604080832054600983528184203085529092528220546116fa9190611fbc565b9050600060646021548361170e9190611fcf565b6117189190611fe6565b905060006117268284611fbc565b905080156119ee576040516323b872dd60e01b815230906323b872dd90611755903390849086906004016120d8565b6020604051808303816000875af1158015611774573d6000803e3d6000fd5b505050506040513d601f19601f820116820180604052508101906117989190612021565b6117f65760405162461bcd60e51b815260206004820152602960248201527f436f756c64206e6f74207472616e7366657220746f6b656e7320666f7220736f60448201526836b2903932b0b9b7b760b91b6064820152608401610596565b6040518181527f1234ad5b903fc05a48a512705e358d3007a45bd48bce7566041a2c0afd3474239060200160405180910390a1600081600e546118399190611fe6565b905060006118478233610cf5565b600554604051632c35087960e01b8152600481018390523360248201529192506001600160a01b031690632c35087990604401600060405180830381600087803b15801561189457600080fd5b505af11580156118a8573d6000803e3d6000fd5b505060065460405163a9059cbb60e01b81526001600160a01b03909116925063a9059cbb91506118de9033908690600401612008565b6020604051808303816000875af11580156118fd573d6000803e3d6000fd5b505050506040513d601f19601f820116820180604052508101906119219190612021565b61197e5760405162461bcd60e51b815260206004820152602860248201527f436f756c64206e6f74207472616e7366657220636f696e7320666f7220736f6d60448201526732903932b0b9b7b760c11b6064820152608401610596565b81602360008282546119909190611fbc565b9250508190555082602260008282546119a99190611fa9565b9250508190555082601f60008282546119c29190611fbc565b9091555050336000908152600a6020526040812080548692906119e6908490611fa9565b909155505050505b505050565b6001600160a01b038316611a555760405162461bcd60e51b8152602060048201526024808201527f45524332303a20617070726f76652066726f6d20746865207a65726f206164646044820152637265737360e01b6064820152608401610596565b6001600160a01b038216611ab65760405162461bcd60e51b815260206004820152602260248201527f45524332303a20617070726f766520746f20746865207a65726f206164647265604482015261737360f01b6064820152608401610596565b6001600160a01b0383811660008181526001602090815260408083209487168084529482529182902085905590518481527f8c5be1e5ebec7d5bd14f71427d1e84f3dd0314c0f7b2291e5b200ac8c7c3b92591016112fb565b6000611b1b8484611308565b90506000198114611b835781811015611b765760405162461bcd60e51b815260206004820152601d60248201527f45524332303a20696e73756666696369656e7420616c6c6f77616e63650000006044820152606401610596565b611b8384848484036119f3565b50505050565b601e5460ff16611c1c576001600160a01b0383166000908152600a6020908152604080832054600790925290912054611bc29190611fbc565b811115611c1c5760405162461bcd60e51b815260206004820152602260248201527f596f752063616e206e6f74207472616e736665722066726f7a656e20746f6b656044820152616e7360f01b6064820152608401610596565b6119ee8383836001600160a01b038316611c865760405162461bcd60e51b815260206004820152602560248201527f45524332303a207472616e736665722066726f6d20746865207a65726f206164604482015264647265737360d81b6064820152608401610596565b6001600160a01b038216611ce85760405162461bcd60e51b815260206004820152602360248201527f45524332303a207472616e7366657220746f20746865207a65726f206164647260448201526265737360e81b6064820152608401610596565b6001600160a01b03831660009081526020819052604090205481811015611d605760405162461bcd60e51b815260206004820152602660248201527f45524332303a207472616e7366657220616d6f756e7420657863656564732062604482015265616c616e636560d01b6064820152608401610596565b6001600160a01b038481166000818152602081815260408083208787039055938716808352918490208054870190559251858152909260008051602061211d833981519152910160405180910390a3611b83565b600060208083528351808285015260005b81811015611de157858101830151858201604001528201611dc5565b506000604082860101526040601f19601f8301168501019250505092915050565b80356001600160a01b0381168114611e1957600080fd5b919050565b60008060408385031215611e3157600080fd5b611e3a83611e02565b946020939093013593505050565b6001600160a01b0391909116815260200190565b600080600060608486031215611e7157600080fd5b611e7a84611e02565b9250611e8860208501611e02565b9150604084013590509250925092565b600060208284031215611eaa57600080fd5b5035919050565b600060208284031215611ec357600080fd5b610dc182611e02565b60008060408385031215611edf57600080fd5b82359150611eef60208401611e02565b90509250929050565b60008060408385031215611f0b57600080fd5b611f1483611e02565b9150611eef60208401611e02565b600181811c90821680611f3657607f821691505b602082108103611f5657634e487b7160e01b600052602260045260246000fd5b50919050565b6020808252601e908201527f546869732066756e6374696f6e20697320666f72207465616d206f6e6c790000604082015260600190565b634e487b7160e01b600052601160045260246000fd5b8082018082111561054257610542611f93565b8181038181111561054257610542611f93565b808202811582820484141761054257610542611f93565b60008261200357634e487b7160e01b600052601260045260246000fd5b500490565b6001600160a01b03929092168252602082015260400190565b60006020828403121561203357600080fd5b81518015158114610dc157600080fd5b60006020828403121561205557600080fd5b5051919050565b634e487b7160e01b600052603260045260246000fd5b6020808252602d908201527f616c6c2073746167657320636f6d706c6574652c2066696e616c697a6520707260408201526c6f6a6563742c20706c6561736560981b606082015260800190565b6000600182016120d1576120d1611f93565b5060010190565b6001600160a01b03938416815291909216602082015260408101919091526060019056fe33e9239cca000a415d43b2ca42ccdb22b42875175208f455b307479ac7e14feeddf252ad1be2c89b69c2b068fc378daa952ba7f163c4a11628f55a4df523b3efa26469706673582212205108c528cb2cbbc7dcf72c1af8136c88e4778acf0636a4f724d6d079280f349d64736f6c63430008130033",
  "immutableReferences": {},
  "source": "// SPDX-License-Identifier: UNLICENSED\r\nimport \"./Platform.sol\";\r\n\r\nimport \"@openzeppelin/contracts/token/ERC20/ERC20.sol\";\r\nimport \"@openzeppelin/contracts/access/Ownable.sol\";\r\n\r\npragma solidity 0.8.19;\r\n\r\n\r\ncontract tokenTemplate is ERC20{\r\n    Platform platform;\r\n    ERC20 coin;\r\n\r\n    mapping (address => uint256) balances;\r\n    mapping (address => uint256) timeBought;\r\n    mapping (address => mapping (address => uint256)) allowed;\r\n    mapping (address => uint256) public frozen;\r\n\r\n    address public stableCoinAddress;\r\n    address public platformContractAddress;\r\n    address public teamAddress;\r\n    uint256 public initialPrice;\r\n    uint256 public initialSupply;\r\n    uint256 public initialTime;\r\n    uint256 public crowdSaleDuration;\r\n    bool public crowdSaleIsActive;\r\n    uint256 public softCap;\r\n    uint256 public hardCap;\r\n    uint256 public percentOfTokensToTeam;\r\n    uint256 public numberOfMileStones;\r\n    uint256 public currentStage;\r\n    uint256 public previousStageSubmitted;\r\n    uint256[] public budgetPercent;\r\n    uint256[] public extraChargePercent;\r\n    uint256[] public stagesDuration;\r\n    string [] public stagesShortDescription;\r\n    uint256 public holdDuration;\r\n    bool public projectFinished;\r\n    uint256 public soldTokens;\r\n    uint256 public platformFeePercent;\r\n    uint256 public totalBudgetSpent;\r\n    uint256 public tokensToSell;\r\n    uint256 public fundsRaised;\r\n\r\n    event stageComplete(uint256 stageNumber);\r\n    event tokensSold(uint256 amount, uint256 price);\r\n    event tokensReturned(uint256 amount);\r\n    event fundsPassed(uint256 stage, uint256 amount);\r\n\r\n    modifier onlyTeam{\r\n        require(msg.sender == teamAddress, \"This function is for team only\");\r\n        _;\r\n    }\r\n\r\n    constructor(address[] memory addresses,\r\n                uint256[] memory params,\r\n                string memory _symbol,\r\n                string memory _name,\r\n                uint256[] memory _budgetPercent,\r\n                uint256[] memory _extraChargePercent,\r\n                uint256[] memory _stagesDuration,\r\n                string[] memory _stagesShortDescription) ERC20 (_symbol, _name){\r\n\r\n        teamAddress = addresses[0];\r\n        coin = ERC20(payable(addresses[1]));\r\n        platform = Platform(payable(addresses[2]));\r\n        platformContractAddress = addresses[2];\r\n\r\n        initialPrice = params[0];\r\n        initialSupply = params[1];\r\n        balances[address(this)] = initialSupply;\r\n        platformFeePercent = params[2];\r\n        numberOfMileStones = params[3];\r\n\r\n        require(_budgetPercent[0]<=10, \"too much for the first stage\");\r\n        require(_budgetPercent[numberOfMileStones]>=30, \"too little for the last stage\");\r\n                      uint256 overallBudget;\r\n                for (uint256 i = 0; i<=numberOfMileStones; i++){\r\n                    overallBudget += _budgetPercent[i];\r\n                }\r\n                require(overallBudget == 100, \"Wrong budget percent values\");\r\n\r\n                for (uint256 j = 0; j<numberOfMileStones; j++){\r\n                    require (_stagesDuration[j]>=2592000, \"each stage duration should be at least 1 month\");\r\n                }\r\n\r\n        percentOfTokensToTeam = params[4];\r\n        crowdSaleDuration = params[5];\r\n        holdDuration = params[6];\r\n        softCap = params[7];\r\n        hardCap = initialSupply;\r\n\r\n        require (hardCap>softCap);\r\n\r\n        projectFinished = false;\r\n        initialTime = block.timestamp;\r\n        budgetPercent = new uint256[](numberOfMileStones+1);\r\n        budgetPercent = _budgetPercent; //????/\r\n        extraChargePercent = new uint256[](numberOfMileStones);\r\n        extraChargePercent = _extraChargePercent;\r\n        stagesDuration = new uint256[](numberOfMileStones);\r\n        stagesDuration = _stagesDuration;\r\n        stagesShortDescription = new string[](numberOfMileStones);\r\n        stagesShortDescription = _stagesShortDescription;\r\n        crowdSaleIsActive = true;\r\n        previousStageSubmitted = block.timestamp;\r\n        tokensToSell = initialSupply;\r\n        soldTokens = 0;\r\n    }\r\n\r\n    function submitStage() public onlyTeam{\r\n        require(!crowdSaleIsActive, \"crowdsale is still active, finalizePublicOffer first\");\r\n        require (block.timestamp >= previousStageSubmitted+stagesDuration[currentStage], \"too early to submit the stage\");\r\n        require (currentStage<numberOfMileStones-1, \"all stages complete, finalize project, please\");\r\n        emit stageComplete(currentStage);\r\n        currentStage++;\r\n        previousStageSubmitted = block.timestamp;\r\n    }\r\n\r\n    function finalizePublicOffer() public onlyTeam{\r\n        if (soldTokens >=hardCap)\r\n            crowdSaleIsActive = false;\r\n        if (soldTokens < hardCap)\r\n            require(block.timestamp> initialTime + crowdSaleDuration, \"too early to finalize crowdsale\");\r\n        if (soldTokens >=softCap) {\r\n            crowdSaleIsActive = false;\r\n        }\r\n        if (soldTokens<softCap){\r\n            crowdSaleIsActive = false;\r\n            return;\r\n        }\r\n        initialSupply = soldTokens;\r\n        uint256 tokensToTeam = percentOfTokensToTeam * soldTokens / (100 - percentOfTokensToTeam);\r\n        balances[address(this)] = tokensToTeam;\r\n        initialSupply += tokensToTeam;\r\n        emit Transfer(address(this), address(this), tokensToTeam);\r\n        tokensToSell = 0;\r\n        previousStageSubmitted = block.timestamp - holdDuration-1;\r\n    }\r\n\r\n    function passFundsToTeam() public onlyTeam{\r\n        require (!projectFinished, \"Project is already finished, nothing to pass\");\r\n        require (!crowdSaleIsActive, \"you should finish public offer first\");\r\n        require (currentStage<numberOfMileStones, \"all stages complete, finalize project, please\");\r\n        require (block.timestamp>=previousStageSubmitted+holdDuration, \"Hold period is not finished yet\");\r\n        uint256 fundsToPass = budgetPercent[currentStage] * soldTokens * initialPrice / 100;\r\n        coin.transfer(teamAddress, fundsToPass);\r\n        emit fundsPassed(currentStage, fundsToPass);\r\n        totalBudgetSpent += budgetPercent[currentStage];\r\n    }\r\n\r\n    function finalizeProject() public onlyTeam{\r\n        require (currentStage==numberOfMileStones-1, \"All stages should be passed\");\r\n        uint256 fee = fundsRaised * platformFeePercent / 100;\r\n        coin.transfer(platformContractAddress, fee);\r\n        platform.addDividend(address(coin), fee);\r\n        uint256 coinsLeft = coin.balanceOf(address(this));\r\n        coin.transfer(teamAddress, coinsLeft);\r\n        emit fundsPassed(currentStage, coinsLeft);\r\n        uint256 tokensToPlatform =  initialSupply * platformFeePercent /100;\r\n        this.transfer(platformContractAddress, tokensToPlatform);\r\n        platform.addDividend(address(this), tokensToPlatform);\r\n        this.transfer(teamAddress, balances[address(this)]);\r\n        projectFinished = true;\r\n    }\r\n\r\n    function buyTokens() public{\r\n        require (tokensToSell > 0, \"nothing to sell, sorry\");\r\n        uint256 coinsAmount = coin.allowance(msg.sender, address(this));\r\n        require (coinsAmount >= initialPrice, \"You should allow enough stableCoins first\");\r\n        require (coin.transferFrom(msg.sender, address(this), coinsAmount), \"Could not transfer for some reason\");\r\n        fundsRaised += coinsAmount;\r\n        uint256 currentPrice = initialPrice;\r\n        if (!crowdSaleIsActive)\r\n            currentPrice = initialPrice * (100+extraChargePercent[currentStage])/100;\r\n        uint256 tokensAmount = coinsAmount/currentPrice;\r\n        if (tokensAmount>balances[address(this)])\r\n            tokensAmount = balances[address(this)];\r\n        this.transfer(msg.sender, tokensAmount);\r\n        timeBought[msg.sender] = block.timestamp;\r\n        soldTokens += tokensAmount;\r\n        tokensToSell -= tokensAmount;\r\n        emit tokensSold(tokensAmount, currentPrice);\r\n        emit Transfer(address(this), msg.sender, tokensAmount);\r\n    }\r\n\r\n    function returnTokens() public{\r\n        require (!projectFinished, \"Project is already finished, all stages passed, nothing to return\");\r\n        require (allowed[msg.sender][address(this)] == balances[msg.sender], \"you should allow your whole balance\");\r\n        uint256 tokensAmount = allowed[msg.sender][address(this)] - frozen[msg.sender];\r\n        uint256 toFreeze = tokensAmount * totalBudgetSpent / 100;\r\n        uint256 toReturn = tokensAmount - toFreeze;\r\n        if (toReturn>0){\r\n            require(this.transferFrom(msg.sender, address(this), toReturn), \"Could not transfer tokens for some reason\");\r\n            emit tokensReturned(toReturn);\r\n            uint256 coinsAvailableForTokenHolder = initialPrice/ toReturn;\r\n            uint256 interestAvailable = calculateInterestAvailable(coinsAvailableForTokenHolder, msg.sender);\r\n            platform.claimInterestForMintedTokenHolder(interestAvailable, msg.sender);\r\n            require(coin.transfer(msg.sender, coinsAvailableForTokenHolder), \"Could not transfer coins for some reason\");\r\n            fundsRaised -= coinsAvailableForTokenHolder;\r\n            tokensToSell += toReturn;\r\n            soldTokens -= toReturn;\r\n            frozen[msg.sender] += toFreeze;\r\n        }\r\n    }\r\n\r\n    function calculateInterestAvailable(uint256 coinsOnHold, address holderAddress) public view returns (uint256 amount){\r\n        return coinsOnHold*(block.timestamp - timeBought[holderAddress])/1 days*platform.getCurrentInterestRate()/36500;\r\n    }\r\n\r\n    function _transfer(address from, address to, uint256 amount) internal override {\r\n        if (!projectFinished){\r\n            require(amount<=(balances[from]-frozen[from]),\r\n                \"You can not transfer frozen tokens\");\r\n        }\r\n        super._transfer(from, to, amount);\r\n    }\r\n}\r\n\r\n",
  "sourcePath": "C:\\Users\\d.nagornykh\\YandexDisk\\\\ICO\\CryptoFiat\\repo\\contracts\\tokenTemplate.sol",
  "compiler": {
    "name": "solc",
    "version": "0.8.19+commit.7dd6d404.Emscripten.clang"
  },
  "schemaVersion": "3.4.14",
  "updatedAt": "2023-08-11T06:20:07.350Z",
  "devdoc": {
    "events": {
      "Approval(address,address,uint256)": {
        "details": "Emitted when the allowance of a `spender` for an `owner` is set by a call to {approve}. `value` is the new allowance."
      },
      "Transfer(address,address,uint256)": {
        "details": "Emitted when `value` tokens are moved from one account (`from`) to another (`to`). Note that `value` may be zero."
      }
    },
    "kind": "dev",
    "methods": {
      "allowance(address,address)": {
        "details": "See {IERC20-allowance}."
      },
      "approve(address,uint256)": {
        "details": "See {IERC20-approve}. NOTE: If `amount` is the maximum `uint256`, the allowance is not updated on `transferFrom`. This is semantically equivalent to an infinite approval. Requirements: - `spender` cannot be the zero address."
      },
      "balanceOf(address)": {
        "details": "See {IERC20-balanceOf}."
      },
      "decimals()": {
        "details": "Returns the number of decimals used to get its user representation. For example, if `decimals` equals `2`, a balance of `505` tokens should be displayed to a user as `5.05` (`505 / 10 ** 2`). Tokens usually opt for a value of 18, imitating the relationship between Ether and Wei. This is the default value returned by this function, unless it's overridden. NOTE: This information is only used for _display_ purposes: it in no way affects any of the arithmetic of the contract, including {IERC20-balanceOf} and {IERC20-transfer}."
      },
      "decreaseAllowance(address,uint256)": {
        "details": "Atomically decreases the allowance granted to `spender` by the caller. This is an alternative to {approve} that can be used as a mitigation for problems described in {IERC20-approve}. Emits an {Approval} event indicating the updated allowance. Requirements: - `spender` cannot be the zero address. - `spender` must have allowance for the caller of at least `subtractedValue`."
      },
      "increaseAllowance(address,uint256)": {
        "details": "Atomically increases the allowance granted to `spender` by the caller. This is an alternative to {approve} that can be used as a mitigation for problems described in {IERC20-approve}. Emits an {Approval} event indicating the updated allowance. Requirements: - `spender` cannot be the zero address."
      },
      "name()": {
        "details": "Returns the name of the token."
      },
      "symbol()": {
        "details": "Returns the symbol of the token, usually a shorter version of the name."
      },
      "totalSupply()": {
        "details": "See {IERC20-totalSupply}."
      },
      "transfer(address,uint256)": {
        "details": "See {IERC20-transfer}. Requirements: - `to` cannot be the zero address. - the caller must have a balance of at least `amount`."
      },
      "transferFrom(address,address,uint256)": {
        "details": "See {IERC20-transferFrom}. Emits an {Approval} event indicating the updated allowance. This is not required by the EIP. See the note at the beginning of {ERC20}. NOTE: Does not update the allowance if the current allowance is the maximum `uint256`. Requirements: - `from` and `to` cannot be the zero address. - `from` must have a balance of at least `amount`. - the caller must have allowance for ``from``'s tokens of at least `amount`."
      }
    },
    "version": 1
  },
  "userdoc": {
    "kind": "user",
    "methods": {},
    "version": 1
  }
}