{
  "contractName": "tokenTemplate",
  "abi": [
    {
      "inputs": [
        {
          "internalType": "address[]",
          "name": "addresses",
          "type": "address[]"
        },
        {
          "internalType": "uint256[]",
          "name": "params",
          "type": "uint256[]"
        },
        {
          "internalType": "string",
          "name": "_symbol",
          "type": "string"
        },
        {
          "internalType": "string",
          "name": "_name",
          "type": "string"
        },
        {
          "internalType": "uint256[]",
          "name": "_budgetPercent",
          "type": "uint256[]"
        },
        {
          "internalType": "uint256[]",
          "name": "_extraChargePercent",
          "type": "uint256[]"
        },
        {
          "internalType": "uint256[]",
          "name": "_stagesDuration",
          "type": "uint256[]"
        },
        {
          "internalType": "string[]",
          "name": "_stagesShortDescription",
          "type": "string[]"
        }
      ],
      "stateMutability": "nonpayable",
      "type": "constructor"
    },
    {
      "anonymous": false,
      "inputs": [
        {
          "indexed": true,
          "internalType": "address",
          "name": "owner",
          "type": "address"
        },
        {
          "indexed": true,
          "internalType": "address",
          "name": "spender",
          "type": "address"
        },
        {
          "indexed": false,
          "internalType": "uint256",
          "name": "value",
          "type": "uint256"
        }
      ],
      "name": "Approval",
      "type": "event"
    },
    {
      "anonymous": false,
      "inputs": [
        {
          "indexed": true,
          "internalType": "address",
          "name": "from",
          "type": "address"
        },
        {
          "indexed": true,
          "internalType": "address",
          "name": "to",
          "type": "address"
        },
        {
          "indexed": false,
          "internalType": "uint256",
          "name": "value",
          "type": "uint256"
        }
      ],
      "name": "Transfer",
      "type": "event"
    },
    {
      "anonymous": false,
      "inputs": [
        {
          "indexed": false,
          "internalType": "uint256",
          "name": "stage",
          "type": "uint256"
        },
        {
          "indexed": false,
          "internalType": "uint256",
          "name": "amount",
          "type": "uint256"
        }
      ],
      "name": "fundsPassed",
      "type": "event"
    },
    {
      "anonymous": false,
      "inputs": [
        {
          "indexed": false,
          "internalType": "uint256",
          "name": "stageNumber",
          "type": "uint256"
        }
      ],
      "name": "stageComplete",
      "type": "event"
    },
    {
      "anonymous": false,
      "inputs": [
        {
          "indexed": false,
          "internalType": "uint256",
          "name": "amount",
          "type": "uint256"
        }
      ],
      "name": "tokensReturned",
      "type": "event"
    },
    {
      "anonymous": false,
      "inputs": [
        {
          "indexed": false,
          "internalType": "uint256",
          "name": "amount",
          "type": "uint256"
        },
        {
          "indexed": false,
          "internalType": "uint256",
          "name": "price",
          "type": "uint256"
        }
      ],
      "name": "tokensSold",
      "type": "event"
    },
    {
      "inputs": [
        {
          "internalType": "uint256",
          "name": "",
          "type": "uint256"
        }
      ],
      "name": "budgetPercent",
      "outputs": [
        {
          "internalType": "uint256",
          "name": "",
          "type": "uint256"
        }
      ],
      "stateMutability": "view",
      "type": "function",
      "constant": true
    },
    {
      "inputs": [],
      "name": "crowdSaleDuration",
      "outputs": [
        {
          "internalType": "uint256",
          "name": "",
          "type": "uint256"
        }
      ],
      "stateMutability": "view",
      "type": "function",
      "constant": true
    },
    {
      "inputs": [],
      "name": "crowdSaleIsActive",
      "outputs": [
        {
          "internalType": "bool",
          "name": "",
          "type": "bool"
        }
      ],
      "stateMutability": "view",
      "type": "function",
      "constant": true
    },
    {
      "inputs": [],
      "name": "currentStage",
      "outputs": [
        {
          "internalType": "uint256",
          "name": "",
          "type": "uint256"
        }
      ],
      "stateMutability": "view",
      "type": "function",
      "constant": true
    },
    {
      "inputs": [],
      "name": "decimals",
      "outputs": [
        {
          "internalType": "uint256",
          "name": "",
          "type": "uint256"
        }
      ],
      "stateMutability": "view",
      "type": "function",
      "constant": true
    },
    {
      "inputs": [
        {
          "internalType": "uint256",
          "name": "",
          "type": "uint256"
        }
      ],
      "name": "extraChargePercent",
      "outputs": [
        {
          "internalType": "uint256",
          "name": "",
          "type": "uint256"
        }
      ],
      "stateMutability": "view",
      "type": "function",
      "constant": true
    },
    {
      "inputs": [
        {
          "internalType": "address",
          "name": "",
          "type": "address"
        }
      ],
      "name": "frozen",
      "outputs": [
        {
          "internalType": "uint256",
          "name": "",
          "type": "uint256"
        }
      ],
      "stateMutability": "view",
      "type": "function",
      "constant": true
    },
    {
      "inputs": [],
      "name": "fundsRaised",
      "outputs": [
        {
          "internalType": "uint256",
          "name": "",
          "type": "uint256"
        }
      ],
      "stateMutability": "view",
      "type": "function",
      "constant": true
    },
    {
      "inputs": [],
      "name": "hardCap",
      "outputs": [
        {
          "internalType": "uint256",
          "name": "",
          "type": "uint256"
        }
      ],
      "stateMutability": "view",
      "type": "function",
      "constant": true
    },
    {
      "inputs": [],
      "name": "holdDuration",
      "outputs": [
        {
          "internalType": "uint256",
          "name": "",
          "type": "uint256"
        }
      ],
      "stateMutability": "view",
      "type": "function",
      "constant": true
    },
    {
      "inputs": [],
      "name": "initialPrice",
      "outputs": [
        {
          "internalType": "uint256",
          "name": "",
          "type": "uint256"
        }
      ],
      "stateMutability": "view",
      "type": "function",
      "constant": true
    },
    {
      "inputs": [],
      "name": "initialSupply",
      "outputs": [
        {
          "internalType": "uint256",
          "name": "",
          "type": "uint256"
        }
      ],
      "stateMutability": "view",
      "type": "function",
      "constant": true
    },
    {
      "inputs": [],
      "name": "initialTime",
      "outputs": [
        {
          "internalType": "uint256",
          "name": "",
          "type": "uint256"
        }
      ],
      "stateMutability": "view",
      "type": "function",
      "constant": true
    },
    {
      "inputs": [],
      "name": "name",
      "outputs": [
        {
          "internalType": "string",
          "name": "",
          "type": "string"
        }
      ],
      "stateMutability": "view",
      "type": "function",
      "constant": true
    },
    {
      "inputs": [],
      "name": "numberOfMileStones",
      "outputs": [
        {
          "internalType": "uint256",
          "name": "",
          "type": "uint256"
        }
      ],
      "stateMutability": "view",
      "type": "function",
      "constant": true
    },
    {
      "inputs": [],
      "name": "percentOfTokensToTeam",
      "outputs": [
        {
          "internalType": "uint256",
          "name": "",
          "type": "uint256"
        }
      ],
      "stateMutability": "view",
      "type": "function",
      "constant": true
    },
    {
      "inputs": [],
      "name": "platformContractAddress",
      "outputs": [
        {
          "internalType": "address",
          "name": "",
          "type": "address"
        }
      ],
      "stateMutability": "view",
      "type": "function",
      "constant": true
    },
    {
      "inputs": [],
      "name": "platformFeePercent",
      "outputs": [
        {
          "internalType": "uint256",
          "name": "",
          "type": "uint256"
        }
      ],
      "stateMutability": "view",
      "type": "function",
      "constant": true
    },
    {
      "inputs": [],
      "name": "previousStageSubmitted",
      "outputs": [
        {
          "internalType": "uint256",
          "name": "",
          "type": "uint256"
        }
      ],
      "stateMutability": "view",
      "type": "function",
      "constant": true
    },
    {
      "inputs": [],
      "name": "projectFinished",
      "outputs": [
        {
          "internalType": "bool",
          "name": "",
          "type": "bool"
        }
      ],
      "stateMutability": "view",
      "type": "function",
      "constant": true
    },
    {
      "inputs": [],
      "name": "softCap",
      "outputs": [
        {
          "internalType": "uint256",
          "name": "",
          "type": "uint256"
        }
      ],
      "stateMutability": "view",
      "type": "function",
      "constant": true
    },
    {
      "inputs": [],
      "name": "soldTokens",
      "outputs": [
        {
          "internalType": "uint256",
          "name": "",
          "type": "uint256"
        }
      ],
      "stateMutability": "view",
      "type": "function",
      "constant": true
    },
    {
      "inputs": [],
      "name": "stableCoinAddress",
      "outputs": [
        {
          "internalType": "address",
          "name": "",
          "type": "address"
        }
      ],
      "stateMutability": "view",
      "type": "function",
      "constant": true
    },
    {
      "inputs": [
        {
          "internalType": "uint256",
          "name": "",
          "type": "uint256"
        }
      ],
      "name": "stagesDuration",
      "outputs": [
        {
          "internalType": "uint256",
          "name": "",
          "type": "uint256"
        }
      ],
      "stateMutability": "view",
      "type": "function",
      "constant": true
    },
    {
      "inputs": [
        {
          "internalType": "uint256",
          "name": "",
          "type": "uint256"
        }
      ],
      "name": "stagesShortDescription",
      "outputs": [
        {
          "internalType": "string",
          "name": "",
          "type": "string"
        }
      ],
      "stateMutability": "view",
      "type": "function",
      "constant": true
    },
    {
      "inputs": [],
      "name": "symbol",
      "outputs": [
        {
          "internalType": "string",
          "name": "",
          "type": "string"
        }
      ],
      "stateMutability": "view",
      "type": "function",
      "constant": true
    },
    {
      "inputs": [],
      "name": "teamAddress",
      "outputs": [
        {
          "internalType": "address",
          "name": "",
          "type": "address"
        }
      ],
      "stateMutability": "view",
      "type": "function",
      "constant": true
    },
    {
      "inputs": [],
      "name": "tokensToSell",
      "outputs": [
        {
          "internalType": "uint256",
          "name": "",
          "type": "uint256"
        }
      ],
      "stateMutability": "view",
      "type": "function",
      "constant": true
    },
    {
      "inputs": [],
      "name": "totalBudgetSpent",
      "outputs": [
        {
          "internalType": "uint256",
          "name": "",
          "type": "uint256"
        }
      ],
      "stateMutability": "view",
      "type": "function",
      "constant": true
    },
    {
      "inputs": [],
      "name": "submitStage",
      "outputs": [],
      "stateMutability": "nonpayable",
      "type": "function"
    },
    {
      "inputs": [],
      "name": "finalizePublicOffer",
      "outputs": [],
      "stateMutability": "nonpayable",
      "type": "function"
    },
    {
      "inputs": [],
      "name": "passFundsToTeam",
      "outputs": [],
      "stateMutability": "nonpayable",
      "type": "function"
    },
    {
      "inputs": [],
      "name": "finalizeProject",
      "outputs": [],
      "stateMutability": "nonpayable",
      "type": "function"
    },
    {
      "inputs": [],
      "name": "buyTokens",
      "outputs": [],
      "stateMutability": "nonpayable",
      "type": "function"
    },
    {
      "inputs": [],
      "name": "returnTokens",
      "outputs": [],
      "stateMutability": "nonpayable",
      "type": "function"
    },
    {
      "inputs": [
        {
          "internalType": "uint256",
          "name": "coinsOnHold",
          "type": "uint256"
        },
        {
          "internalType": "address",
          "name": "holderAddress",
          "type": "address"
        }
      ],
      "name": "calculateInterestAvailable",
      "outputs": [
        {
          "internalType": "uint256",
          "name": "amount",
          "type": "uint256"
        }
      ],
      "stateMutability": "view",
      "type": "function",
      "constant": true
    },
    {
      "inputs": [],
      "name": "totalSupply",
      "outputs": [
        {
          "internalType": "uint256",
          "name": "",
          "type": "uint256"
        }
      ],
      "stateMutability": "view",
      "type": "function",
      "constant": true
    },
    {
      "inputs": [
        {
          "internalType": "address",
          "name": "owner",
          "type": "address"
        }
      ],
      "name": "balanceOf",
      "outputs": [
        {
          "internalType": "uint256",
          "name": "balance",
          "type": "uint256"
        }
      ],
      "stateMutability": "view",
      "type": "function",
      "constant": true
    },
    {
      "inputs": [
        {
          "internalType": "address",
          "name": "owner",
          "type": "address"
        },
        {
          "internalType": "address",
          "name": "spender",
          "type": "address"
        }
      ],
      "name": "allowance",
      "outputs": [
        {
          "internalType": "uint256",
          "name": "remaining",
          "type": "uint256"
        }
      ],
      "stateMutability": "view",
      "type": "function",
      "constant": true
    },
    {
      "inputs": [
        {
          "internalType": "address",
          "name": "to",
          "type": "address"
        },
        {
          "internalType": "uint256",
          "name": "value",
          "type": "uint256"
        }
      ],
      "name": "transfer",
      "outputs": [
        {
          "internalType": "bool",
          "name": "success",
          "type": "bool"
        }
      ],
      "stateMutability": "nonpayable",
      "type": "function"
    },
    {
      "inputs": [
        {
          "internalType": "address",
          "name": "from",
          "type": "address"
        },
        {
          "internalType": "address",
          "name": "to",
          "type": "address"
        },
        {
          "internalType": "uint256",
          "name": "value",
          "type": "uint256"
        }
      ],
      "name": "transferFrom",
      "outputs": [
        {
          "internalType": "bool",
          "name": "success",
          "type": "bool"
        }
      ],
      "stateMutability": "nonpayable",
      "type": "function"
    },
    {
      "inputs": [
        {
          "internalType": "address",
          "name": "spender",
          "type": "address"
        },
        {
          "internalType": "uint256",
          "name": "value",
          "type": "uint256"
        }
      ],
      "name": "approve",
      "outputs": [
        {
          "internalType": "bool",
          "name": "success",
          "type": "bool"
        }
      ],
      "stateMutability": "nonpayable",
      "type": "function"
    }
  ],
  "bytecode": "0x60806040523480156200001157600080fd5b50604051620054f8380380620054f8833981810160405281019062000037919062000f5c565b876000815181106200004e576200004d6200111d565b5b6020026020010151600a60006101000a81548173ffffffffffffffffffffffffffffffffffffffff021916908373ffffffffffffffffffffffffffffffffffffffff16021790555087600181518110620000ad57620000ac6200111d565b5b6020026020010151600160006101000a81548173ffffffffffffffffffffffffffffffffffffffff021916908373ffffffffffffffffffffffffffffffffffffffff160217905550876002815181106200010c576200010b6200111d565b5b60200260200101516000806101000a81548173ffffffffffffffffffffffffffffffffffffffff021916908373ffffffffffffffffffffffffffffffffffffffff160217905550876002815181106200016a57620001696200111d565b5b6020026020010151600960006101000a81548173ffffffffffffffffffffffffffffffffffffffff021916908373ffffffffffffffffffffffffffffffffffffffff160217905550600160009054906101000a900473ffffffffffffffffffffffffffffffffffffffff1673ffffffffffffffffffffffffffffffffffffffff1663313ce5676040518163ffffffff1660e01b8152600401602060405180830381865afa15801562000220573d6000803e3d6000fd5b505050506040513d601f19601f820116820180604052508101906200024691906200114c565b600a62000254919062001301565b876000815181106200026b576200026a6200111d565b5b60200260200101516200027f919062001352565b600b819055506012600a62000295919062001301565b87600181518110620002ac57620002ab6200111d565b5b6020026020010151620002c0919062001352565b600c81905550600c54600460003073ffffffffffffffffffffffffffffffffffffffff1673ffffffffffffffffffffffffffffffffffffffff16815260200190815260200160002081905550866002815181106200032357620003226200111d565b5b6020026020010151601d81905550866003815181106200034857620003476200111d565b5b6020026020010151601381905550600a846000815181106200036f576200036e6200111d565b5b60200260200101511115620003bb576040517f08c379a0000000000000000000000000000000000000000000000000000000008152600401620003b29062001414565b60405180910390fd5b601e8460135481518110620003d557620003d46200111d565b5b6020026020010151101562000421576040517f08c379a0000000000000000000000000000000000000000000000000000000008152600401620004189062001486565b60405180910390fd5b600080600090505b601354811162000476578581815181106200044957620004486200111d565b5b6020026020010151826200045e9190620014a8565b915080806200046d9062001505565b91505062000429565b5060648114620004bd576040517f08c379a0000000000000000000000000000000000000000000000000000000008152600401620004b490620015a3565b60405180910390fd5b60005b601354811015620005475762278d00848281518110620004e557620004e46200111d565b5b6020026020010151101562000531576040517f08c379a000000000000000000000000000000000000000000000000000000000815260040162000528906200163b565b60405180910390fd5b80806200053e9062001505565b915050620004c0565b50876004815181106200055f576200055e6200111d565b5b6020026020010151601281905550876005815181106200058457620005836200111d565b5b6020026020010151600e8190555087600681518110620005a957620005a86200111d565b5b6020026020010151601a8190555087600781518110620005ce57620005cd6200111d565b5b6020026020010151601081905550600c5460118190555060105460115411620005f657600080fd5b6000601b60006101000a81548160ff02191690831515021790555042600d819055506001601354620006299190620014a8565b67ffffffffffffffff81111562000645576200064462000aa1565b5b604051908082528060200260200182016040528015620006745781602001602082028036833780820191505090505b50601690805190602001906200068c929190620008a0565b508460169080519060200190620006a5929190620008a0565b5060135467ffffffffffffffff811115620006c557620006c462000aa1565b5b604051908082528060200260200182016040528015620006f45781602001602082028036833780820191505090505b50601790805190602001906200070c929190620008a0565b50836017908051906020019062000725929190620008a0565b5060135467ffffffffffffffff81111562000745576200074462000aa1565b5b604051908082528060200260200182016040528015620007745781602001602082028036833780820191505090505b50601890805190602001906200078c929190620008a0565b508260189080519060200190620007a5929190620008a0565b5060135467ffffffffffffffff811115620007c557620007c462000aa1565b5b604051908082528060200260200182016040528015620007fa57816020015b6060815260200190600190039081620007e45790505b506019908051906020019062000812929190620008f2565b5081601990805190602001906200082b929190620008f2565b506001600f60006101000a81548160ff0219169083151502179055504260158190555085600290805190602001906200086692919062000959565b5086600390805190602001906200087f92919062000959565b50600c54601f819055506000601c81905550505050505050505050620016c2565b828054828255906000526020600020908101928215620008df579160200282015b82811115620008de578251825591602001919060010190620008c1565b5b509050620008ee9190620009ea565b5090565b82805482825590600052602060002090810192821562000946579160200282015b82811115620009455782518290805190602001906200093492919062000959565b509160200191906001019062000913565b5b50905062000955919062000a09565b5090565b82805462000967906200168c565b90600052602060002090601f0160209004810192826200098b5760008555620009d7565b82601f10620009a657805160ff1916838001178555620009d7565b82800160010185558215620009d7579182015b82811115620009d6578251825591602001919060010190620009b9565b5b509050620009e69190620009ea565b5090565b5b8082111562000a05576000816000905550600101620009eb565b5090565b5b8082111562000a2d576000818162000a23919062000a31565b5060010162000a0a565b5090565b50805462000a3f906200168c565b6000825580601f1062000a53575062000a74565b601f01602090049060005260206000209081019062000a739190620009ea565b5b50565b6000604051905090565b600080fd5b600080fd5b600080fd5b6000601f19601f8301169050919050565b7f4e487b7100000000000000000000000000000000000000000000000000000000600052604160045260246000fd5b62000adb8262000a90565b810181811067ffffffffffffffff8211171562000afd5762000afc62000aa1565b5b80604052505050565b600062000b1262000a77565b905062000b20828262000ad0565b919050565b600067ffffffffffffffff82111562000b435762000b4262000aa1565b5b602082029050602081019050919050565b600080fd5b600073ffffffffffffffffffffffffffffffffffffffff82169050919050565b600062000b868262000b59565b9050919050565b62000b988162000b79565b811462000ba457600080fd5b50565b60008151905062000bb88162000b8d565b92915050565b600062000bd562000bcf8462000b25565b62000b06565b9050808382526020820190506020840283018581111562000bfb5762000bfa62000b54565b5b835b8181101562000c28578062000c13888262000ba7565b84526020840193505060208101905062000bfd565b5050509392505050565b600082601f83011262000c4a5762000c4962000a8b565b5b815162000c5c84826020860162000bbe565b91505092915050565b600067ffffffffffffffff82111562000c835762000c8262000aa1565b5b602082029050602081019050919050565b6000819050919050565b62000ca98162000c94565b811462000cb557600080fd5b50565b60008151905062000cc98162000c9e565b92915050565b600062000ce662000ce08462000c65565b62000b06565b9050808382526020820190506020840283018581111562000d0c5762000d0b62000b54565b5b835b8181101562000d39578062000d24888262000cb8565b84526020840193505060208101905062000d0e565b5050509392505050565b600082601f83011262000d5b5762000d5a62000a8b565b5b815162000d6d84826020860162000ccf565b91505092915050565b600080fd5b600067ffffffffffffffff82111562000d995762000d9862000aa1565b5b62000da48262000a90565b9050602081019050919050565b60005b8381101562000dd157808201518184015260208101905062000db4565b8381111562000de1576000848401525b50505050565b600062000dfe62000df88462000d7b565b62000b06565b90508281526020810184848401111562000e1d5762000e1c62000d76565b5b62000e2a84828562000db1565b509392505050565b600082601f83011262000e4a5762000e4962000a8b565b5b815162000e5c84826020860162000de7565b91505092915050565b600067ffffffffffffffff82111562000e835762000e8262000aa1565b5b602082029050602081019050919050565b600062000eab62000ea58462000e65565b62000b06565b9050808382526020820190506020840283018581111562000ed15762000ed062000b54565b5b835b8181101562000f1f57805167ffffffffffffffff81111562000efa5762000ef962000a8b565b5b80860162000f09898262000e32565b8552602085019450505060208101905062000ed3565b5050509392505050565b600082601f83011262000f415762000f4062000a8b565b5b815162000f5384826020860162000e94565b91505092915050565b600080600080600080600080610100898b03121562000f805762000f7f62000a81565b5b600089015167ffffffffffffffff81111562000fa15762000fa062000a86565b5b62000faf8b828c0162000c32565b985050602089015167ffffffffffffffff81111562000fd35762000fd262000a86565b5b62000fe18b828c0162000d43565b975050604089015167ffffffffffffffff81111562001005576200100462000a86565b5b620010138b828c0162000e32565b965050606089015167ffffffffffffffff81111562001037576200103662000a86565b5b620010458b828c0162000e32565b955050608089015167ffffffffffffffff81111562001069576200106862000a86565b5b620010778b828c0162000d43565b94505060a089015167ffffffffffffffff8111156200109b576200109a62000a86565b5b620010a98b828c0162000d43565b93505060c089015167ffffffffffffffff811115620010cd57620010cc62000a86565b5b620010db8b828c0162000d43565b92505060e089015167ffffffffffffffff811115620010ff57620010fe62000a86565b5b6200110d8b828c0162000f29565b9150509295985092959890939650565b7f4e487b7100000000000000000000000000000000000000000000000000000000600052603260045260246000fd5b60006020828403121562001165576200116462000a81565b5b6000620011758482850162000cb8565b91505092915050565b7f4e487b7100000000000000000000000000000000000000000000000000000000600052601160045260246000fd5b60008160011c9050919050565b6000808291508390505b60018511156200120c57808604811115620011e457620011e36200117e565b5b6001851615620011f45780820291505b80810290506200120485620011ad565b9450620011c4565b94509492505050565b600082620012275760019050620012fa565b81620012375760009050620012fa565b81600181146200125057600281146200125b5762001291565b6001915050620012fa565b60ff84111562001270576200126f6200117e565b5b8360020a9150848211156200128a57620012896200117e565b5b50620012fa565b5060208310610133831016604e8410600b8410161715620012cb5782820a905083811115620012c557620012c46200117e565b5b620012fa565b620012da8484846001620011ba565b92509050818404811115620012f457620012f36200117e565b5b81810290505b9392505050565b60006200130e8262000c94565b91506200131b8362000c94565b92506200134a7fffffffffffffffffffffffffffffffffffffffffffffffffffffffffffffffff848462001215565b905092915050565b60006200135f8262000c94565b91506200136c8362000c94565b9250817fffffffffffffffffffffffffffffffffffffffffffffffffffffffffffffffff0483118215151615620013a857620013a76200117e565b5b828202905092915050565b600082825260208201905092915050565b7f746f6f206d75636820666f722074686520666972737420737461676500000000600082015250565b6000620013fc601c83620013b3565b91506200140982620013c4565b602082019050919050565b600060208201905081810360008301526200142f81620013ed565b9050919050565b7f746f6f206c6974746c6520666f7220746865206c617374207374616765000000600082015250565b60006200146e601d83620013b3565b91506200147b8262001436565b602082019050919050565b60006020820190508181036000830152620014a1816200145f565b9050919050565b6000620014b58262000c94565b9150620014c28362000c94565b9250827fffffffffffffffffffffffffffffffffffffffffffffffffffffffffffffffff03821115620014fa57620014f96200117e565b5b828201905092915050565b6000620015128262000c94565b91507fffffffffffffffffffffffffffffffffffffffffffffffffffffffffffffffff8214156200154857620015476200117e565b5b600182019050919050565b7f57726f6e67206275646765742070657263656e742076616c7565730000000000600082015250565b60006200158b601b83620013b3565b9150620015988262001553565b602082019050919050565b60006020820190508181036000830152620015be816200157c565b9050919050565b7f65616368207374616765206475726174696f6e2073686f756c6420626520617460008201527f206c656173742031206d6f6e7468000000000000000000000000000000000000602082015250565b600062001623602e83620013b3565b91506200163082620015c5565b604082019050919050565b60006020820190508181036000830152620016568162001614565b9050919050565b7f4e487b7100000000000000000000000000000000000000000000000000000000600052602260045260246000fd5b60006002820490506001821680620016a557607f821691505b60208210811415620016bc57620016bb6200165d565b5b50919050565b613e2680620016d26000396000f3fe608060405234801561001057600080fd5b506004361061025e5760003560e01c80638c639a8511610146578063a98f472a116100c3578063d0febe4c11610087578063d0febe4c14610713578063dd6063911461071d578063dd62ed3e1461073b578063e4df37b41461076b578063f9718fc814610775578063fb86a4041461077f5761025e565b8063a98f472a1461065b578063ab84047a14610679578063ac6f2a5e146106a9578063c0b81ffa146106d9578063d0516650146106e35761025e565b806396d8ff471161010a57806396d8ff47146105b3578063982aae46146105d15780639ced0e9b146105ef578063a8a15ec71461060d578063a9059cbb1461062b5761025e565b80638c639a851461050b578063906a26e014610529578063946bb4f614610547578063954a7bc71461056557806395d89b41146105955761025e565b80633d956691116101df5780635ed9ebfc116101a35780635ed9ebfc146104475780636681b9fd1461046557806369a37fd11461048357806369dd8d84146104b357806370a08231146104d15780637417882c146105015761025e565b80633d956691146103b157806343506e9a146103cf5780634440b81a146103ed57806357e4288a1461040b5780635bf5d54c146104295761025e565b806323b872dd1161022657806323b872dd1461030b5780632d43b2741461033b578063313ce5671461034557806333bc2f9d14610363578063378dc3dc146103935761025e565b806306fdde0314610263578063095ea7b31461028157806318160ddd146102b15780631c75f085146102cf5780631d0806ae146102ed575b600080fd5b61026b61079d565b6040516102789190612d0a565b60405180910390f35b61029b60048036038101906102969190612dc5565b61082b565b6040516102a89190612e20565b60405180910390f35b6102b961091d565b6040516102c69190612e4a565b60405180910390f35b6102d7610927565b6040516102e49190612e74565b60405180910390f35b6102f561094d565b6040516103029190612e4a565b60405180910390f35b61032560048036038101906103209190612e8f565b610953565b6040516103329190612e20565b60405180910390f35b610343610ccb565b005b61034d610f57565b60405161035a9190612e4a565b60405180910390f35b61037d60048036038101906103789190612ee2565b610f5c565b60405161038a9190612e4a565b60405180910390f35b61039b610f80565b6040516103a89190612e4a565b60405180910390f35b6103b9610f86565b6040516103c69190612e4a565b60405180910390f35b6103d7610f8c565b6040516103e49190612e4a565b60405180910390f35b6103f5610f92565b6040516104029190612e20565b60405180910390f35b610413610fa5565b6040516104209190612e4a565b60405180910390f35b610431610fab565b60405161043e9190612e4a565b60405180910390f35b61044f610fb1565b60405161045c9190612e4a565b60405180910390f35b61046d610fb7565b60405161047a9190612e4a565b60405180910390f35b61049d60048036038101906104989190612ee2565b610fbd565b6040516104aa9190612d0a565b60405180910390f35b6104bb611069565b6040516104c89190612e4a565b60405180910390f35b6104eb60048036038101906104e69190612f0f565b61106f565b6040516104f89190612e4a565b60405180910390f35b6105096110b8565b005b61051361173c565b6040516105209190612e4a565b60405180910390f35b610531611742565b60405161053e9190612e4a565b60405180910390f35b61054f611748565b60405161055c9190612e74565b60405180910390f35b61057f600480360381019061057a9190612ee2565b61176e565b60405161058c9190612e4a565b60405180910390f35b61059d611792565b6040516105aa9190612d0a565b60405180910390f35b6105bb611820565b6040516105c89190612e4a565b60405180910390f35b6105d9611826565b6040516105e69190612e74565b60405180910390f35b6105f761184c565b6040516106049190612e4a565b60405180910390f35b610615611852565b6040516106229190612e20565b60405180910390f35b61064560048036038101906106409190612dc5565b611865565b6040516106529190612e20565b60405180910390f35b610663611ac1565b6040516106709190612e4a565b60405180910390f35b610693600480360381019061068e9190612ee2565b611ac7565b6040516106a09190612e4a565b60405180910390f35b6106c360048036038101906106be9190612f3c565b611aeb565b6040516106d09190612e4a565b60405180910390f35b6106e1611bff565b005b6106fd60048036038101906106f89190612f0f565b611dfb565b60405161070a9190612e4a565b60405180910390f35b61071b611e13565b005b6107256122e7565b6040516107329190612e4a565b60405180910390f35b61075560048036038101906107509190612f7c565b6122ed565b6040516107629190612e4a565b60405180910390f35b610773612374565b005b61077d6126d9565b005b610787612c6b565b6040516107949190612e4a565b60405180910390f35b600280546107aa90612feb565b80601f01602080910402602001604051908101604052809291908181526020018280546107d690612feb565b80156108235780601f106107f857610100808354040283529160200191610823565b820191906000526020600020905b81548152906001019060200180831161080657829003601f168201915b505050505081565b600081600660003373ffffffffffffffffffffffffffffffffffffffff1673ffffffffffffffffffffffffffffffffffffffff16815260200190815260200160002060008573ffffffffffffffffffffffffffffffffffffffff1673ffffffffffffffffffffffffffffffffffffffff168152602001908152602001600020819055508273ffffffffffffffffffffffffffffffffffffffff163373ffffffffffffffffffffffffffffffffffffffff167f8c5be1e5ebec7d5bd14f71427d1e84f3dd0314c0f7b2291e5b200ac8c7c3b9258460405161090b9190612e4a565b60405180910390a36001905092915050565b6000600c54905090565b600a60009054906101000a900473ffffffffffffffffffffffffffffffffffffffff1681565b600b5481565b6000601b60009054906101000a900460ff16610a3657600760008573ffffffffffffffffffffffffffffffffffffffff1673ffffffffffffffffffffffffffffffffffffffff16815260200190815260200160002054600460008673ffffffffffffffffffffffffffffffffffffffff1673ffffffffffffffffffffffffffffffffffffffff168152602001908152602001600020546109f3919061304c565b821115610a35576040517f08c379a0000000000000000000000000000000000000000000000000000000008152600401610a2c906130f2565b60405180910390fd5b5b81600460008673ffffffffffffffffffffffffffffffffffffffff1673ffffffffffffffffffffffffffffffffffffffff1681526020019081526020016000205410158015610b01575081600660008673ffffffffffffffffffffffffffffffffffffffff1673ffffffffffffffffffffffffffffffffffffffff16815260200190815260200160002060003373ffffffffffffffffffffffffffffffffffffffff1673ffffffffffffffffffffffffffffffffffffffff1681526020019081526020016000205410155b8015610b0d5750600082115b15610cbf5781600460008573ffffffffffffffffffffffffffffffffffffffff1673ffffffffffffffffffffffffffffffffffffffff1681526020019081526020016000206000828254610b619190613112565b9250508190555081600460008673ffffffffffffffffffffffffffffffffffffffff1673ffffffffffffffffffffffffffffffffffffffff1681526020019081526020016000206000828254610bb7919061304c565b9250508190555081600660008673ffffffffffffffffffffffffffffffffffffffff1673ffffffffffffffffffffffffffffffffffffffff16815260200190815260200160002060003373ffffffffffffffffffffffffffffffffffffffff1673ffffffffffffffffffffffffffffffffffffffff1681526020019081526020016000206000828254610c4a919061304c565b925050819055508273ffffffffffffffffffffffffffffffffffffffff168473ffffffffffffffffffffffffffffffffffffffff167fddf252ad1be2c89b69c2b068fc378daa952ba7f163c4a11628f55a4df523b3ef84604051610cae9190612e4a565b60405180910390a360019050610cc4565b600090505b9392505050565b600a60009054906101000a900473ffffffffffffffffffffffffffffffffffffffff1673ffffffffffffffffffffffffffffffffffffffff163373ffffffffffffffffffffffffffffffffffffffff1614610d5b576040517f08c379a0000000000000000000000000000000000000000000000000000000008152600401610d52906131b4565b60405180910390fd5b601154601c5410610d82576000600f60006101000a81548160ff0219169083151502179055505b601154601c541015610de057600e54600d54610d9e9190613112565b4211610ddf576040517f08c379a0000000000000000000000000000000000000000000000000000000008152600401610dd690613220565b60405180910390fd5b5b601054601c5410610e07576000600f60006101000a81548160ff0219169083151502179055505b601054601c541015610e33576000600f60006101000a81548160ff021916908315150217905550610f55565b601c54600c8190555060006012546064610e4d919061304c565b601c54601254610e5d9190613240565b610e6791906132c9565b905080600460003073ffffffffffffffffffffffffffffffffffffffff1673ffffffffffffffffffffffffffffffffffffffff1681526020019081526020016000208190555080600c6000828254610ebf9190613112565b925050819055503073ffffffffffffffffffffffffffffffffffffffff163073ffffffffffffffffffffffffffffffffffffffff167fddf252ad1be2c89b69c2b068fc378daa952ba7f163c4a11628f55a4df523b3ef83604051610f239190612e4a565b60405180910390a36000601f819055506001601a5442610f43919061304c565b610f4d919061304c565b601581905550505b565b601281565b60178181548110610f6c57600080fd5b906000526020600020016000915090505481565b600c5481565b601f5481565b60125481565b600f60009054906101000a900460ff1681565b601a5481565b60145481565b601c5481565b60205481565b60198181548110610fcd57600080fd5b906000526020600020016000915090508054610fe890612feb565b80601f016020809104026020016040519081016040528092919081815260200182805461101490612feb565b80156110615780601f1061103657610100808354040283529160200191611061565b820191906000526020600020905b81548152906001019060200180831161104457829003601f168201915b505050505081565b600e5481565b6000600460008373ffffffffffffffffffffffffffffffffffffffff1673ffffffffffffffffffffffffffffffffffffffff168152602001908152602001600020549050919050565b600a60009054906101000a900473ffffffffffffffffffffffffffffffffffffffff1673ffffffffffffffffffffffffffffffffffffffff163373ffffffffffffffffffffffffffffffffffffffff1614611148576040517f08c379a000000000000000000000000000000000000000000000000000000000815260040161113f906131b4565b60405180910390fd5b6001601354611157919061304c565b6014541461119a576040517f08c379a000000000000000000000000000000000000000000000000000000000815260040161119190613346565b60405180910390fd5b60006064601d546020546111ae9190613240565b6111b891906132c9565b9050600160009054906101000a900473ffffffffffffffffffffffffffffffffffffffff1673ffffffffffffffffffffffffffffffffffffffff1663a9059cbb600960009054906101000a900473ffffffffffffffffffffffffffffffffffffffff16836040518363ffffffff1660e01b8152600401611239929190613366565b6020604051808303816000875af1158015611258573d6000803e3d6000fd5b505050506040513d601f19601f8201168201806040525081019061127c91906133bb565b5060008054906101000a900473ffffffffffffffffffffffffffffffffffffffff1673ffffffffffffffffffffffffffffffffffffffff16636de9944d600160009054906101000a900473ffffffffffffffffffffffffffffffffffffffff16836040518363ffffffff1660e01b81526004016112fa929190613366565b6020604051808303816000875af1158015611319573d6000803e3d6000fd5b505050506040513d601f19601f8201168201806040525081019061133d91906133bb565b506000600160009054906101000a900473ffffffffffffffffffffffffffffffffffffffff1673ffffffffffffffffffffffffffffffffffffffff166370a08231306040518263ffffffff1660e01b815260040161139b9190612e74565b602060405180830381865afa1580156113b8573d6000803e3d6000fd5b505050506040513d601f19601f820116820180604052508101906113dc91906133fd565b9050600160009054906101000a900473ffffffffffffffffffffffffffffffffffffffff1673ffffffffffffffffffffffffffffffffffffffff1663a9059cbb600a60009054906101000a900473ffffffffffffffffffffffffffffffffffffffff16836040518363ffffffff1660e01b815260040161145d929190613366565b6020604051808303816000875af115801561147c573d6000803e3d6000fd5b505050506040513d601f19601f820116820180604052508101906114a091906133bb565b507f33e9239cca000a415d43b2ca42ccdb22b42875175208f455b307479ac7e14fee601454826040516114d492919061342a565b60405180910390a160006064601d54600c546114f09190613240565b6114fa91906132c9565b90503073ffffffffffffffffffffffffffffffffffffffff1663a9059cbb600960009054906101000a900473ffffffffffffffffffffffffffffffffffffffff16836040518363ffffffff1660e01b8152600401611559929190613366565b6020604051808303816000875af1158015611578573d6000803e3d6000fd5b505050506040513d601f19601f8201168201806040525081019061159c91906133bb565b5060008054906101000a900473ffffffffffffffffffffffffffffffffffffffff1673ffffffffffffffffffffffffffffffffffffffff16636de9944d30836040518363ffffffff1660e01b81526004016115f8929190613366565b6020604051808303816000875af1158015611617573d6000803e3d6000fd5b505050506040513d601f19601f8201168201806040525081019061163b91906133bb565b503073ffffffffffffffffffffffffffffffffffffffff1663a9059cbb600a60009054906101000a900473ffffffffffffffffffffffffffffffffffffffff16600460003073ffffffffffffffffffffffffffffffffffffffff1673ffffffffffffffffffffffffffffffffffffffff168152602001908152602001600020546040518363ffffffff1660e01b81526004016116d8929190613366565b6020604051808303816000875af11580156116f7573d6000803e3d6000fd5b505050506040513d601f19601f8201168201806040525081019061171b91906133bb565b506001601b60006101000a81548160ff021916908315150217905550505050565b601d5481565b60105481565b600960009054906101000a900473ffffffffffffffffffffffffffffffffffffffff1681565b6018818154811061177e57600080fd5b906000526020600020016000915090505481565b6003805461179f90612feb565b80601f01602080910402602001604051908101604052809291908181526020018280546117cb90612feb565b80156118185780601f106117ed57610100808354040283529160200191611818565b820191906000526020600020905b8154815290600101906020018083116117fb57829003601f168201915b505050505081565b60155481565b600860009054906101000a900473ffffffffffffffffffffffffffffffffffffffff1681565b600d5481565b601b60009054906101000a900460ff1681565b6000601b60009054906101000a900460ff1661194857600760003373ffffffffffffffffffffffffffffffffffffffff1673ffffffffffffffffffffffffffffffffffffffff16815260200190815260200160002054600460003373ffffffffffffffffffffffffffffffffffffffff1673ffffffffffffffffffffffffffffffffffffffff16815260200190815260200160002054611905919061304c565b821115611947576040517f08c379a000000000000000000000000000000000000000000000000000000000815260040161193e906130f2565b60405180910390fd5b5b81600460003373ffffffffffffffffffffffffffffffffffffffff1673ffffffffffffffffffffffffffffffffffffffff16815260200190815260200160002054101580156119975750600082115b15611ab65781600460003373ffffffffffffffffffffffffffffffffffffffff1673ffffffffffffffffffffffffffffffffffffffff16815260200190815260200160002060008282546119eb919061304c565b9250508190555081600460008573ffffffffffffffffffffffffffffffffffffffff1673ffffffffffffffffffffffffffffffffffffffff1681526020019081526020016000206000828254611a419190613112565b925050819055508273ffffffffffffffffffffffffffffffffffffffff163373ffffffffffffffffffffffffffffffffffffffff167fddf252ad1be2c89b69c2b068fc378daa952ba7f163c4a11628f55a4df523b3ef84604051611aa59190612e4a565b60405180910390a360019050611abb565b600090505b92915050565b60135481565b60168181548110611ad757600080fd5b906000526020600020016000915090505481565b6000618e9460008054906101000a900473ffffffffffffffffffffffffffffffffffffffff1673ffffffffffffffffffffffffffffffffffffffff1663ff516c496040518163ffffffff1660e01b8152600401602060405180830381865afa158015611b5b573d6000803e3d6000fd5b505050506040513d601f19601f82011682018060405250810190611b7f91906133fd565b62015180600560008673ffffffffffffffffffffffffffffffffffffffff1673ffffffffffffffffffffffffffffffffffffffff1681526020019081526020016000205442611bce919061304c565b86611bd99190613240565b611be391906132c9565b611bed9190613240565b611bf791906132c9565b905092915050565b600a60009054906101000a900473ffffffffffffffffffffffffffffffffffffffff1673ffffffffffffffffffffffffffffffffffffffff163373ffffffffffffffffffffffffffffffffffffffff1614611c8f576040517f08c379a0000000000000000000000000000000000000000000000000000000008152600401611c86906131b4565b60405180910390fd5b600f60009054906101000a900460ff1615611cdf576040517f08c379a0000000000000000000000000000000000000000000000000000000008152600401611cd6906134c5565b60405180910390fd5b601860145481548110611cf557611cf46134e5565b5b9060005260206000200154601554611d0d9190613112565b421015611d4f576040517f08c379a0000000000000000000000000000000000000000000000000000000008152600401611d4690613560565b60405180910390fd5b6001601354611d5e919061304c565b60145410611da1576040517f08c379a0000000000000000000000000000000000000000000000000000000008152600401611d98906135f2565b60405180910390fd5b7fc4ab07f9778d895dfa64b2e41647695b2003fd8064bf6114969cf0d73b780bbe601454604051611dd29190612e4a565b60405180910390a160146000815480929190611ded90613612565b919050555042601581905550565b60076020528060005260406000206000915090505481565b6000601f5411611e58576040517f08c379a0000000000000000000000000000000000000000000000000000000008152600401611e4f906136a7565b60405180910390fd5b6000600160009054906101000a900473ffffffffffffffffffffffffffffffffffffffff1673ffffffffffffffffffffffffffffffffffffffff1663dd62ed3e33306040518363ffffffff1660e01b8152600401611eb79291906136c7565b602060405180830381865afa158015611ed4573d6000803e3d6000fd5b505050506040513d601f19601f82011682018060405250810190611ef891906133fd565b9050600b54811015611f3f576040517f08c379a0000000000000000000000000000000000000000000000000000000008152600401611f3690613762565b60405180910390fd5b600160009054906101000a900473ffffffffffffffffffffffffffffffffffffffff1673ffffffffffffffffffffffffffffffffffffffff166323b872dd3330846040518463ffffffff1660e01b8152600401611f9e93929190613782565b6020604051808303816000875af1158015611fbd573d6000803e3d6000fd5b505050506040513d601f19601f82011682018060405250810190611fe191906133bb565b612020576040517f08c379a00000000000000000000000000000000000000000000000000000000081526004016120179061382b565b60405180910390fd5b80602060008282546120329190613112565b925050819055506000600b549050600f60009054906101000a900460ff1661209d57606460176014548154811061206c5761206b6134e5565b5b906000526020600020015460646120839190613112565b600b546120909190613240565b61209a91906132c9565b90505b6000816012600a6120ae919061397e565b846120b99190613240565b6120c391906132c9565b9050600460003073ffffffffffffffffffffffffffffffffffffffff1673ffffffffffffffffffffffffffffffffffffffff1681526020019081526020016000205481111561214f57600460003073ffffffffffffffffffffffffffffffffffffffff1673ffffffffffffffffffffffffffffffffffffffff1681526020019081526020016000205490505b3073ffffffffffffffffffffffffffffffffffffffff1663a9059cbb33836040518363ffffffff1660e01b815260040161218a929190613366565b6020604051808303816000875af11580156121a9573d6000803e3d6000fd5b505050506040513d601f19601f820116820180604052508101906121cd91906133bb565b5042600560003373ffffffffffffffffffffffffffffffffffffffff1673ffffffffffffffffffffffffffffffffffffffff1681526020019081526020016000208190555080601c60008282546122249190613112565b9250508190555080601f600082825461223d919061304c565b925050819055507fdff110bae24a8bd9f8765f2c28d27e26f4d8f059f164ecf06a007923230541bf818360405161227592919061342a565b60405180910390a13373ffffffffffffffffffffffffffffffffffffffff163073ffffffffffffffffffffffffffffffffffffffff167fddf252ad1be2c89b69c2b068fc378daa952ba7f163c4a11628f55a4df523b3ef836040516122da9190612e4a565b60405180910390a3505050565b601e5481565b6000600660008473ffffffffffffffffffffffffffffffffffffffff1673ffffffffffffffffffffffffffffffffffffffff16815260200190815260200160002060008373ffffffffffffffffffffffffffffffffffffffff1673ffffffffffffffffffffffffffffffffffffffff16815260200190815260200160002054905092915050565b600a60009054906101000a900473ffffffffffffffffffffffffffffffffffffffff1673ffffffffffffffffffffffffffffffffffffffff163373ffffffffffffffffffffffffffffffffffffffff1614612404576040517f08c379a00000000000000000000000000000000000000000000000000000000081526004016123fb906131b4565b60405180910390fd5b601b60009054906101000a900460ff1615612454576040517f08c379a000000000000000000000000000000000000000000000000000000000815260040161244b90613a3b565b60405180910390fd5b600f60009054906101000a900460ff16156124a4576040517f08c379a000000000000000000000000000000000000000000000000000000000815260040161249b90613acd565b60405180910390fd5b601354601454106124ea576040517f08c379a00000000000000000000000000000000000000000000000000000000081526004016124e1906135f2565b60405180910390fd5b601a546015546124fa9190613112565b42101561253c576040517f08c379a000000000000000000000000000000000000000000000000000000000815260040161253390613b39565b60405180910390fd5b60006012600a61254c919061397e565b6064600b54601c5460166014548154811061256a576125696134e5565b5b906000526020600020015461257f9190613240565b6125899190613240565b61259391906132c9565b61259d91906132c9565b9050600160009054906101000a900473ffffffffffffffffffffffffffffffffffffffff1673ffffffffffffffffffffffffffffffffffffffff1663a9059cbb600a60009054906101000a900473ffffffffffffffffffffffffffffffffffffffff16836040518363ffffffff1660e01b815260040161261e929190613366565b6020604051808303816000875af115801561263d573d6000803e3d6000fd5b505050506040513d601f19601f8201168201806040525081019061266191906133bb565b507f33e9239cca000a415d43b2ca42ccdb22b42875175208f455b307479ac7e14fee6014548260405161269592919061342a565b60405180910390a16016601454815481106126b3576126b26134e5565b5b9060005260206000200154601e60008282546126cf9190613112565b9250508190555050565b601b60009054906101000a900460ff1615612729576040517f08c379a000000000000000000000000000000000000000000000000000000000815260040161272090613bf1565b60405180910390fd5b600460003373ffffffffffffffffffffffffffffffffffffffff1673ffffffffffffffffffffffffffffffffffffffff16815260200190815260200160002054600660003373ffffffffffffffffffffffffffffffffffffffff1673ffffffffffffffffffffffffffffffffffffffff16815260200190815260200160002060003073ffffffffffffffffffffffffffffffffffffffff1673ffffffffffffffffffffffffffffffffffffffff1681526020019081526020016000205414612826576040517f08c379a000000000000000000000000000000000000000000000000000000000815260040161281d90613c83565b60405180910390fd5b6000600760003373ffffffffffffffffffffffffffffffffffffffff1673ffffffffffffffffffffffffffffffffffffffff16815260200190815260200160002054600660003373ffffffffffffffffffffffffffffffffffffffff1673ffffffffffffffffffffffffffffffffffffffff16815260200190815260200160002060003073ffffffffffffffffffffffffffffffffffffffff1673ffffffffffffffffffffffffffffffffffffffff168152602001908152602001600020546128ef919061304c565b905060006064601e54836129039190613240565b61290d91906132c9565b90506000818361291d919061304c565b90506000811115612c66573073ffffffffffffffffffffffffffffffffffffffff166323b872dd3330846040518463ffffffff1660e01b815260040161296593929190613782565b6020604051808303816000875af1158015612984573d6000803e3d6000fd5b505050506040513d601f19601f820116820180604052508101906129a891906133bb565b6129e7576040517f08c379a00000000000000000000000000000000000000000000000000000000081526004016129de90613d15565b60405180910390fd5b7f1234ad5b903fc05a48a512705e358d3007a45bd48bce7566041a2c0afd34742381604051612a169190612e4a565b60405180910390a16000816012600a612a2f919061397e565b600b54612a3c91906132c9565b612a469190613240565b90506000612a548233611aeb565b905060008054906101000a900473ffffffffffffffffffffffffffffffffffffffff1673ffffffffffffffffffffffffffffffffffffffff16632c35087982336040518363ffffffff1660e01b8152600401612ab1929190613d35565b600060405180830381600087803b158015612acb57600080fd5b505af1158015612adf573d6000803e3d6000fd5b50505050600160009054906101000a900473ffffffffffffffffffffffffffffffffffffffff1673ffffffffffffffffffffffffffffffffffffffff1663a9059cbb33846040518363ffffffff1660e01b8152600401612b40929190613366565b6020604051808303816000875af1158015612b5f573d6000803e3d6000fd5b505050506040513d601f19601f82011682018060405250810190612b8391906133bb565b612bc2576040517f08c379a0000000000000000000000000000000000000000000000000000000008152600401612bb990613dd0565b60405180910390fd5b8160206000828254612bd4919061304c565b9250508190555082601f6000828254612bed9190613112565b9250508190555082601c6000828254612c06919061304c565b9250508190555083600760003373ffffffffffffffffffffffffffffffffffffffff1673ffffffffffffffffffffffffffffffffffffffff1681526020019081526020016000206000828254612c5c9190613112565b9250508190555050505b505050565b60115481565b600081519050919050565b600082825260208201905092915050565b60005b83811015612cab578082015181840152602081019050612c90565b83811115612cba576000848401525b50505050565b6000601f19601f8301169050919050565b6000612cdc82612c71565b612ce68185612c7c565b9350612cf6818560208601612c8d565b612cff81612cc0565b840191505092915050565b60006020820190508181036000830152612d248184612cd1565b905092915050565b600080fd5b600073ffffffffffffffffffffffffffffffffffffffff82169050919050565b6000612d5c82612d31565b9050919050565b612d6c81612d51565b8114612d7757600080fd5b50565b600081359050612d8981612d63565b92915050565b6000819050919050565b612da281612d8f565b8114612dad57600080fd5b50565b600081359050612dbf81612d99565b92915050565b60008060408385031215612ddc57612ddb612d2c565b5b6000612dea85828601612d7a565b9250506020612dfb85828601612db0565b9150509250929050565b60008115159050919050565b612e1a81612e05565b82525050565b6000602082019050612e356000830184612e11565b92915050565b612e4481612d8f565b82525050565b6000602082019050612e5f6000830184612e3b565b92915050565b612e6e81612d51565b82525050565b6000602082019050612e896000830184612e65565b92915050565b600080600060608486031215612ea857612ea7612d2c565b5b6000612eb686828701612d7a565b9350506020612ec786828701612d7a565b9250506040612ed886828701612db0565b9150509250925092565b600060208284031215612ef857612ef7612d2c565b5b6000612f0684828501612db0565b91505092915050565b600060208284031215612f2557612f24612d2c565b5b6000612f3384828501612d7a565b91505092915050565b60008060408385031215612f5357612f52612d2c565b5b6000612f6185828601612db0565b9250506020612f7285828601612d7a565b9150509250929050565b60008060408385031215612f9357612f92612d2c565b5b6000612fa185828601612d7a565b9250506020612fb285828601612d7a565b9150509250929050565b7f4e487b7100000000000000000000000000000000000000000000000000000000600052602260045260246000fd5b6000600282049050600182168061300357607f821691505b6020821081141561301757613016612fbc565b5b50919050565b7f4e487b7100000000000000000000000000000000000000000000000000000000600052601160045260246000fd5b600061305782612d8f565b915061306283612d8f565b9250828210156130755761307461301d565b5b828203905092915050565b7f596f752063616e206e6f74207472616e736665722066726f7a656e20746f6b6560008201527f6e73000000000000000000000000000000000000000000000000000000000000602082015250565b60006130dc602283612c7c565b91506130e782613080565b604082019050919050565b6000602082019050818103600083015261310b816130cf565b9050919050565b600061311d82612d8f565b915061312883612d8f565b9250827fffffffffffffffffffffffffffffffffffffffffffffffffffffffffffffffff0382111561315d5761315c61301d565b5b828201905092915050565b7f546869732066756e6374696f6e20697320666f72207465616d206f6e6c790000600082015250565b600061319e601e83612c7c565b91506131a982613168565b602082019050919050565b600060208201905081810360008301526131cd81613191565b9050919050565b7f746f6f206561726c7920746f2066696e616c697a652063726f776473616c6500600082015250565b600061320a601f83612c7c565b9150613215826131d4565b602082019050919050565b60006020820190508181036000830152613239816131fd565b9050919050565b600061324b82612d8f565b915061325683612d8f565b9250817fffffffffffffffffffffffffffffffffffffffffffffffffffffffffffffffff048311821515161561328f5761328e61301d565b5b828202905092915050565b7f4e487b7100000000000000000000000000000000000000000000000000000000600052601260045260246000fd5b60006132d482612d8f565b91506132df83612d8f565b9250826132ef576132ee61329a565b5b828204905092915050565b7f416c6c207374616765732073686f756c64206265207061737365640000000000600082015250565b6000613330601b83612c7c565b915061333b826132fa565b602082019050919050565b6000602082019050818103600083015261335f81613323565b9050919050565b600060408201905061337b6000830185612e65565b6133886020830184612e3b565b9392505050565b61339881612e05565b81146133a357600080fd5b50565b6000815190506133b58161338f565b92915050565b6000602082840312156133d1576133d0612d2c565b5b60006133df848285016133a6565b91505092915050565b6000815190506133f781612d99565b92915050565b60006020828403121561341357613412612d2c565b5b6000613421848285016133e8565b91505092915050565b600060408201905061343f6000830185612e3b565b61344c6020830184612e3b565b9392505050565b7f63726f776473616c65206973207374696c6c206163746976652c2066696e616c60008201527f697a655075626c69634f66666572206669727374000000000000000000000000602082015250565b60006134af603483612c7c565b91506134ba82613453565b604082019050919050565b600060208201905081810360008301526134de816134a2565b9050919050565b7f4e487b7100000000000000000000000000000000000000000000000000000000600052603260045260246000fd5b7f746f6f206561726c7920746f207375626d697420746865207374616765000000600082015250565b600061354a601d83612c7c565b915061355582613514565b602082019050919050565b600060208201905081810360008301526135798161353d565b9050919050565b7f616c6c2073746167657320636f6d706c6574652c2066696e616c697a6520707260008201527f6f6a6563742c20706c6561736500000000000000000000000000000000000000602082015250565b60006135dc602d83612c7c565b91506135e782613580565b604082019050919050565b6000602082019050818103600083015261360b816135cf565b9050919050565b600061361d82612d8f565b91507fffffffffffffffffffffffffffffffffffffffffffffffffffffffffffffffff8214156136505761364f61301d565b5b600182019050919050565b7f6e6f7468696e6720746f2073656c6c2c20736f72727900000000000000000000600082015250565b6000613691601683612c7c565b915061369c8261365b565b602082019050919050565b600060208201905081810360008301526136c081613684565b9050919050565b60006040820190506136dc6000830185612e65565b6136e96020830184612e65565b9392505050565b7f596f752073686f756c6420616c6c6f7720656e6f75676820737461626c65436f60008201527f696e732066697273740000000000000000000000000000000000000000000000602082015250565b600061374c602983612c7c565b9150613757826136f0565b604082019050919050565b6000602082019050818103600083015261377b8161373f565b9050919050565b60006060820190506137976000830186612e65565b6137a46020830185612e65565b6137b16040830184612e3b565b949350505050565b7f436f756c64206e6f74207472616e7366657220666f7220736f6d65207265617360008201527f6f6e000000000000000000000000000000000000000000000000000000000000602082015250565b6000613815602283612c7c565b9150613820826137b9565b604082019050919050565b6000602082019050818103600083015261384481613808565b9050919050565b60008160011c9050919050565b6000808291508390505b60018511156138a25780860481111561387e5761387d61301d565b5b600185161561388d5780820291505b808102905061389b8561384b565b9450613862565b94509492505050565b6000826138bb5760019050613977565b816138c95760009050613977565b81600181146138df57600281146138e957613918565b6001915050613977565b60ff8411156138fb576138fa61301d565b5b8360020a9150848211156139125761391161301d565b5b50613977565b5060208310610133831016604e8410600b841016171561394d5782820a9050838111156139485761394761301d565b5b613977565b61395a8484846001613858565b925090508184048111156139715761397061301d565b5b81810290505b9392505050565b600061398982612d8f565b915061399483612d8f565b92506139c17fffffffffffffffffffffffffffffffffffffffffffffffffffffffffffffffff84846138ab565b905092915050565b7f50726f6a65637420697320616c72656164792066696e69736865642c206e6f7460008201527f68696e6720746f20706173730000000000000000000000000000000000000000602082015250565b6000613a25602c83612c7c565b9150613a30826139c9565b604082019050919050565b60006020820190508181036000830152613a5481613a18565b9050919050565b7f796f752073686f756c642066696e697368207075626c6963206f66666572206660008201527f6972737400000000000000000000000000000000000000000000000000000000602082015250565b6000613ab7602483612c7c565b9150613ac282613a5b565b604082019050919050565b60006020820190508181036000830152613ae681613aaa565b9050919050565b7f486f6c6420706572696f64206973206e6f742066696e69736865642079657400600082015250565b6000613b23601f83612c7c565b9150613b2e82613aed565b602082019050919050565b60006020820190508181036000830152613b5281613b16565b9050919050565b7f50726f6a65637420697320616c72656164792066696e69736865642c20616c6c60008201527f20737461676573207061737365642c206e6f7468696e6720746f20726574757260208201527f6e00000000000000000000000000000000000000000000000000000000000000604082015250565b6000613bdb604183612c7c565b9150613be682613b59565b606082019050919050565b60006020820190508181036000830152613c0a81613bce565b9050919050565b7f796f752073686f756c6420616c6c6f7720796f75722077686f6c652062616c6160008201527f6e63650000000000000000000000000000000000000000000000000000000000602082015250565b6000613c6d602383612c7c565b9150613c7882613c11565b604082019050919050565b60006020820190508181036000830152613c9c81613c60565b9050919050565b7f436f756c64206e6f74207472616e7366657220746f6b656e7320666f7220736f60008201527f6d6520726561736f6e0000000000000000000000000000000000000000000000602082015250565b6000613cff602983612c7c565b9150613d0a82613ca3565b604082019050919050565b60006020820190508181036000830152613d2e81613cf2565b9050919050565b6000604082019050613d4a6000830185612e3b565b613d576020830184612e65565b9392505050565b7f436f756c64206e6f74207472616e7366657220636f696e7320666f7220736f6d60008201527f6520726561736f6e000000000000000000000000000000000000000000000000602082015250565b6000613dba602883612c7c565b9150613dc582613d5e565b604082019050919050565b60006020820190508181036000830152613de981613dad565b905091905056fea26469706673582212203deac402ef2191be065e7e530cfeb02505a8df01d8c7b624df9af5a14f56fd2964736f6c634300080a0033",
  "immutableReferences": {},
  "source": "// SPDX-License-Identifier: UNLICENSED\r\nimport \"./Platform.sol\";\r\nimport \"./stableCoin.sol\";\r\n\r\npragma solidity >=0.4.22 <0.9.0;\r\n\r\ncontract tokenTemplate is ERC20{\r\n    Platform platform;\r\n    stableCoin coin;\r\n    uint256 public constant decimals = 18;\r\n    string public name;\r\n    string public symbol;\r\n\r\n    mapping (address => uint256) balances;\r\n    mapping (address => uint256) timeBought;\r\n    mapping (address => mapping (address => uint256)) allowed;\r\n    mapping (address => uint256) public frozen;\r\n\r\n    address public stableCoinAddress;\r\n    address public platformContractAddress;\r\n    address public teamAddress;\r\n    uint256 public initialPrice;\r\n    uint256 public initialSupply;\r\n    uint256 public initialTime;\r\n    uint256 public crowdSaleDuration;\r\n    bool public crowdSaleIsActive;\r\n    uint256 public softCap;\r\n    uint256 public hardCap;\r\n    uint256 public percentOfTokensToTeam;\r\n    uint256 public numberOfMileStones;\r\n    uint256 public currentStage;\r\n    uint256 public previousStageSubmitted;\r\n    uint256[] public budgetPercent;\r\n    uint256[] public extraChargePercent;\r\n    uint256[] public stagesDuration;\r\n    string [] public stagesShortDescription;\r\n    uint256 public holdDuration;\r\n    bool public projectFinished;\r\n    uint256 public soldTokens;\r\n    uint256 public platformFeePercent;\r\n    uint256 public totalBudgetSpent;\r\n    uint256 public tokensToSell;\r\n    uint256 public fundsRaised;\r\n\r\n    event stageComplete(uint256 stageNumber);\r\n    event tokensSold(uint256 amount, uint256 price);\r\n    event tokensReturned(uint256 amount);\r\n    event fundsPassed(uint256 stage, uint256 amount);\r\n\r\n    modifier onlyTeam{\r\n        require(msg.sender == teamAddress, \"This function is for team only\");\r\n        _;\r\n    }\r\n\r\n    constructor(address[] memory addresses,\r\n                uint256[] memory params,\r\n                string memory _symbol,\r\n                string memory _name,\r\n                uint256[] memory _budgetPercent,\r\n                uint256[] memory _extraChargePercent,\r\n                uint256[] memory _stagesDuration,\r\n                string[] memory _stagesShortDescription) {\r\n\r\n        teamAddress = addresses[0];\r\n        coin = stableCoin(payable(addresses[1]));\r\n        platform = Platform(payable(addresses[2]));\r\n        platformContractAddress = addresses[2];\r\n\r\n        initialPrice = params[0]*10**coin.decimals();\r\n        initialSupply = params[1]*10**decimals;\r\n        balances[address(this)] = initialSupply;\r\n        platformFeePercent = params[2];\r\n        numberOfMileStones = params[3];\r\n\r\n        require(_budgetPercent[0]<=10, \"too much for the first stage\");\r\n        require(_budgetPercent[numberOfMileStones]>=30, \"too little for the last stage\");\r\n                      uint256 overallBudget;\r\n                for (uint256 i = 0; i<=numberOfMileStones; i++){\r\n                    overallBudget += _budgetPercent[i];\r\n                }\r\n                require(overallBudget == 100, \"Wrong budget percent values\");\r\n\r\n                for (uint256 j = 0; j<numberOfMileStones; j++){\r\n                    require (_stagesDuration[j]>=2592000, \"each stage duration should be at least 1 month\");\r\n                }\r\n\r\n        percentOfTokensToTeam = params[4];\r\n        crowdSaleDuration = params[5];\r\n        holdDuration = params[6];\r\n        softCap = params[7];\r\n        hardCap = initialSupply;\r\n\r\n        require (hardCap>softCap);\r\n\r\n        projectFinished = false;\r\n        initialTime = block.timestamp;\r\n        budgetPercent = new uint256[](numberOfMileStones+1);\r\n        budgetPercent = _budgetPercent;\r\n        extraChargePercent = new uint256[](numberOfMileStones);\r\n        extraChargePercent = _extraChargePercent;\r\n        stagesDuration = new uint256[](numberOfMileStones);\r\n        stagesDuration = _stagesDuration;\r\n        stagesShortDescription = new string[](numberOfMileStones);\r\n        stagesShortDescription = _stagesShortDescription;\r\n        crowdSaleIsActive = true;\r\n        previousStageSubmitted = block.timestamp;\r\n        name = _name;\r\n        symbol = _symbol;\r\n        tokensToSell = initialSupply;\r\n        soldTokens = 0;\r\n    }\r\n\r\n    function submitStage() public onlyTeam{\r\n        require(!crowdSaleIsActive, \"crowdsale is still active, finalizePublicOffer first\");\r\n        require (block.timestamp >= previousStageSubmitted+stagesDuration[currentStage], \"too early to submit the stage\");\r\n        require (currentStage<numberOfMileStones-1, \"all stages complete, finalize project, please\");\r\n        emit stageComplete(currentStage);\r\n        currentStage++;\r\n        previousStageSubmitted = block.timestamp;\r\n    }\r\n\r\n    function finalizePublicOffer() public onlyTeam{\r\n        if (soldTokens >=hardCap)\r\n            crowdSaleIsActive = false;\r\n        if (soldTokens < hardCap)\r\n            require(block.timestamp> initialTime + crowdSaleDuration, \"too early to finalize crowdsale\");\r\n        if (soldTokens >=softCap) {\r\n            crowdSaleIsActive = false;\r\n        }\r\n        if (soldTokens<softCap){\r\n            crowdSaleIsActive = false;\r\n            return;\r\n        }\r\n        initialSupply = soldTokens;\r\n        uint256 tokensToTeam = percentOfTokensToTeam * soldTokens / (100 - percentOfTokensToTeam);\r\n        balances[address(this)] = tokensToTeam;\r\n        initialSupply += tokensToTeam;\r\n        emit Transfer(address(this), address(this), tokensToTeam);\r\n        tokensToSell = 0;\r\n        previousStageSubmitted = block.timestamp - holdDuration-1;\r\n    }\r\n\r\n    function passFundsToTeam() public onlyTeam{\r\n        require (!projectFinished, \"Project is already finished, nothing to pass\");\r\n        require (!crowdSaleIsActive, \"you should finish public offer first\");\r\n        require (currentStage<numberOfMileStones, \"all stages complete, finalize project, please\");\r\n        require (block.timestamp>=previousStageSubmitted+holdDuration, \"Hold period is not finished yet\");\r\n        uint256 fundsToPass = budgetPercent[currentStage] * soldTokens * initialPrice / 100 / 10**decimals;\r\n        coin.transfer(teamAddress, fundsToPass);\r\n        emit fundsPassed(currentStage, fundsToPass);\r\n        totalBudgetSpent += budgetPercent[currentStage];\r\n    }\r\n\r\n    function finalizeProject() public onlyTeam{\r\n        require (currentStage==numberOfMileStones-1, \"All stages should be passed\");\r\n        uint256 fee = fundsRaised * platformFeePercent / 100;\r\n        coin.transfer(platformContractAddress, fee);\r\n        platform.addDividend(address(coin), fee);\r\n        uint256 coinsLeft = coin.balanceOf(address(this));\r\n        coin.transfer(teamAddress, coinsLeft);\r\n        emit fundsPassed(currentStage, coinsLeft);\r\n        uint256 tokensToPlatform =  initialSupply * platformFeePercent /100;\r\n        this.transfer(platformContractAddress, tokensToPlatform);\r\n        platform.addDividend(address(this), tokensToPlatform);\r\n        this.transfer(teamAddress, balances[address(this)]);\r\n        projectFinished = true;\r\n    }\r\n\r\n    function buyTokens() public{\r\n        require (tokensToSell > 0, \"nothing to sell, sorry\");\r\n        uint256 coinsAmount = coin.allowance(msg.sender, address(this));\r\n        require (coinsAmount >= initialPrice, \"You should allow enough stableCoins first\");\r\n        require (coin.transferFrom(msg.sender, address(this), coinsAmount), \"Could not transfer for some reason\");\r\n        fundsRaised += coinsAmount;\r\n        uint256 currentPrice = initialPrice;\r\n        if (!crowdSaleIsActive)\r\n            currentPrice = initialPrice * (100+extraChargePercent[currentStage])/100;\r\n        uint256 tokensAmount = coinsAmount*10**decimals/currentPrice;\r\n        if (tokensAmount>balances[address(this)])\r\n            tokensAmount = balances[address(this)];\r\n        this.transfer(msg.sender, tokensAmount);\r\n        timeBought[msg.sender] = block.timestamp;\r\n        soldTokens += tokensAmount;\r\n        tokensToSell -= tokensAmount;\r\n        emit tokensSold(tokensAmount, currentPrice);\r\n        emit Transfer(address(this), msg.sender, tokensAmount);\r\n    }\r\n\r\n    function returnTokens() public{\r\n        require (!projectFinished, \"Project is already finished, all stages passed, nothing to return\");\r\n        require (allowed[msg.sender][address(this)] == balances[msg.sender], \"you should allow your whole balance\");\r\n        uint256 tokensAmount = allowed[msg.sender][address(this)] - frozen[msg.sender];\r\n        uint256 toFreeze = tokensAmount * totalBudgetSpent / 100;\r\n        uint256 toReturn = tokensAmount - toFreeze;\r\n        if (toReturn>0){\r\n            require(this.transferFrom(msg.sender, address(this), toReturn), \"Could not transfer tokens for some reason\");\r\n            emit tokensReturned(toReturn);\r\n            uint256 coinsAvailableForTokenHolder = initialPrice/ 10**decimals * toReturn;\r\n            uint256 interestAvailable = calculateInterestAvailable(coinsAvailableForTokenHolder, msg.sender);\r\n            platform.claimInterestForMintedTokenHolder(interestAvailable, msg.sender);\r\n            require(coin.transfer(msg.sender, coinsAvailableForTokenHolder), \"Could not transfer coins for some reason\");\r\n            fundsRaised -= coinsAvailableForTokenHolder;\r\n            tokensToSell += toReturn;\r\n            soldTokens -= toReturn;\r\n            frozen[msg.sender] += toFreeze;\r\n        }\r\n    }\r\n\r\n    function calculateInterestAvailable(uint256 coinsOnHold, address holderAddress) public view returns (uint256 amount){\r\n        return coinsOnHold*(block.timestamp - timeBought[holderAddress])/1 days*platform.getCurrentInterestRate()/36500;\r\n    }\r\n\r\n    function totalSupply() public view returns (uint256) {\r\n        return initialSupply;\r\n    }\r\n\r\n    function balanceOf(address owner) public view returns (uint256 balance) {\r\n        return balances[owner];\r\n    }\r\n\r\n    function allowance(address owner, address spender) public view returns (uint remaining) {\r\n        return allowed[owner][spender];\r\n    }\r\n\r\n    function transfer(address to, uint256 value) public returns (bool success) {\r\n        if (!projectFinished)\r\n            require(value<=(balances[msg.sender]-frozen[msg.sender]), \"You can not transfer frozen tokens\");\r\n        if (balances[msg.sender] >= value && value > 0) {\r\n            balances[msg.sender] -= value;\r\n            balances[to] += value;\r\n            emit Transfer(msg.sender, to, value);\r\n            return true;\r\n        } else {\r\n            return false;\r\n        }\r\n    }\r\n\r\n    function transferFrom(address from, address to, uint256 value) public returns (bool success) {\r\n        if (!projectFinished)\r\n            require(value<=(balances[from]-frozen[from]), \"You can not transfer frozen tokens\");\r\n        if (balances[from] >= value && allowed[from][msg.sender] >= value && value > 0) {\r\n            balances[to] += value;\r\n            balances[from] -= value;\r\n            allowed[from][msg.sender] -= value;\r\n            emit Transfer(from, to, value);\r\n            return true;\r\n        } else {\r\n            return false;\r\n        }\r\n    }\r\n\r\n    function approve(address spender, uint256 value) public returns (bool success) {\r\n        allowed[msg.sender][spender] = value;\r\n        emit Approval(msg.sender, spender, value);\r\n        return true;\r\n    }\r\n}\r\n\r\n",
  "sourcePath": "B:\\YandexDisk\\\\ICO\\CryptoFiat\\repo\\contracts\\tokenTemplate.sol",
  "compiler": {
    "name": "solc",
    "version": "0.8.10+commit.fc410830.Emscripten.clang"
  },
  "schemaVersion": "3.4.5",
  "updatedAt": "2023-06-26T11:35:20.698Z",
  "networkType": "ethereum",
  "devdoc": {
    "kind": "dev",
    "methods": {},
    "version": 1
  },
  "userdoc": {
    "kind": "user",
    "methods": {},
    "version": 1
  }
}